{
  "contractName": "NPXSXEMigrationMulSig",
  "abi": [
    {
      "inputs": [
        {
          "internalType": "contract PurseTokenMultiSigUpgradable",
          "name": "_purseToken",
          "type": "address"
        },
        {
          "internalType": "address[]",
          "name": "_owners",
          "type": "address[]"
        },
        {
          "internalType": "address[]",
          "name": "_admins",
          "type": "address[]"
        },
        {
          "internalType": "uint256",
          "name": "_numConfirmationsRequired",
          "type": "uint256"
        }
      ],
      "stateMutability": "nonpayable",
      "type": "constructor"
    },
    {
      "anonymous": false,
      "inputs": [
        {
          "indexed": true,
          "internalType": "address",
          "name": "owner",
          "type": "address"
        },
        {
          "indexed": true,
          "internalType": "uint256",
          "name": "txIndex",
          "type": "uint256"
        }
      ],
      "name": "ConfirmTransaction",
      "type": "event"
    },
    {
      "anonymous": false,
      "inputs": [
        {
          "indexed": true,
          "internalType": "address",
          "name": "owner",
          "type": "address"
        },
        {
          "indexed": true,
          "internalType": "uint256",
          "name": "txIndex",
          "type": "uint256"
        }
      ],
      "name": "ExecuteTransaction",
      "type": "event"
    },
    {
      "anonymous": false,
      "inputs": [
        {
          "indexed": true,
          "internalType": "address",
          "name": "owner",
          "type": "address"
        },
        {
          "indexed": true,
          "internalType": "uint256",
          "name": "txIndex",
          "type": "uint256"
        }
      ],
      "name": "RevokeConfirmation",
      "type": "event"
    },
    {
      "anonymous": false,
      "inputs": [
        {
          "indexed": false,
          "internalType": "address",
          "name": "owner",
          "type": "address"
        },
        {
          "indexed": true,
          "internalType": "uint256",
          "name": "txIndex",
          "type": "uint256"
        },
        {
          "indexed": true,
          "internalType": "string",
          "name": "_from",
          "type": "string"
        },
        {
          "indexed": true,
          "internalType": "address",
          "name": "to",
          "type": "address"
        },
        {
          "indexed": false,
          "internalType": "uint16",
          "name": "nonce",
          "type": "uint16"
        },
        {
          "indexed": false,
          "internalType": "uint256",
          "name": "value",
          "type": "uint256"
        }
      ],
      "name": "SubmitTransaction",
      "type": "event"
    },
    {
      "inputs": [
        {
          "internalType": "uint256",
          "name": "",
          "type": "uint256"
        }
      ],
      "name": "admins",
      "outputs": [
        {
          "internalType": "address",
          "name": "",
          "type": "address"
        }
      ],
      "stateMutability": "view",
      "type": "function",
      "constant": true
    },
    {
      "inputs": [
        {
          "internalType": "address",
          "name": "",
          "type": "address"
        }
      ],
      "name": "isAdmin",
      "outputs": [
        {
          "internalType": "bool",
          "name": "",
          "type": "bool"
        }
      ],
      "stateMutability": "view",
      "type": "function",
      "constant": true
    },
    {
      "inputs": [
        {
          "internalType": "uint256",
          "name": "",
          "type": "uint256"
        },
        {
          "internalType": "address",
          "name": "",
          "type": "address"
        }
      ],
      "name": "isConfirmed",
      "outputs": [
        {
          "internalType": "bool",
          "name": "",
          "type": "bool"
        }
      ],
      "stateMutability": "view",
      "type": "function",
      "constant": true
    },
    {
      "inputs": [
        {
          "internalType": "address",
          "name": "",
          "type": "address"
        }
      ],
      "name": "isOwner",
      "outputs": [
        {
          "internalType": "bool",
          "name": "",
          "type": "bool"
        }
      ],
      "stateMutability": "view",
      "type": "function",
      "constant": true
    },
    {
      "inputs": [],
      "name": "name",
      "outputs": [
        {
          "internalType": "string",
          "name": "",
          "type": "string"
        }
      ],
      "stateMutability": "view",
      "type": "function",
      "constant": true
    },
    {
      "inputs": [
        {
          "internalType": "string",
          "name": "",
          "type": "string"
        },
        {
          "internalType": "uint16",
          "name": "",
          "type": "uint16"
        }
      ],
      "name": "nonceCheck",
      "outputs": [
        {
          "internalType": "bool",
          "name": "",
          "type": "bool"
        }
      ],
      "stateMutability": "view",
      "type": "function",
      "constant": true
    },
    {
      "inputs": [],
      "name": "numConfirmationsRequired",
      "outputs": [
        {
          "internalType": "uint256",
          "name": "",
          "type": "uint256"
        }
      ],
      "stateMutability": "view",
      "type": "function",
      "constant": true
    },
    {
      "inputs": [
        {
          "internalType": "uint256",
          "name": "",
          "type": "uint256"
        }
      ],
      "name": "owners",
      "outputs": [
        {
          "internalType": "address",
          "name": "",
          "type": "address"
        }
      ],
      "stateMutability": "view",
      "type": "function",
      "constant": true
    },
    {
      "inputs": [],
      "name": "purseToken",
      "outputs": [
        {
          "internalType": "contract PurseTokenMultiSigUpgradable",
          "name": "",
          "type": "address"
        }
      ],
      "stateMutability": "view",
      "type": "function",
      "constant": true
    },
    {
      "inputs": [],
      "name": "transactionIndex",
      "outputs": [
        {
          "internalType": "uint256",
          "name": "",
          "type": "uint256"
        }
      ],
      "stateMutability": "view",
      "type": "function",
      "constant": true
    },
    {
      "inputs": [
        {
          "internalType": "uint256",
          "name": "",
          "type": "uint256"
        }
      ],
      "name": "transactions",
      "outputs": [
        {
          "internalType": "string",
          "name": "from",
          "type": "string"
        },
        {
          "internalType": "address",
          "name": "to",
          "type": "address"
        },
        {
          "internalType": "uint16",
          "name": "nonce",
          "type": "uint16"
        },
        {
          "internalType": "uint256",
          "name": "value",
          "type": "uint256"
        },
        {
          "internalType": "bool",
          "name": "executed",
          "type": "bool"
        },
        {
          "internalType": "uint256",
          "name": "numConfirmations",
          "type": "uint256"
        }
      ],
      "stateMutability": "view",
      "type": "function",
      "constant": true
    },
    {
      "inputs": [
        {
          "internalType": "uint256",
          "name": "",
          "type": "uint256"
        }
      ],
      "name": "txExist",
      "outputs": [
        {
          "internalType": "bool",
          "name": "",
          "type": "bool"
        }
      ],
      "stateMutability": "view",
      "type": "function",
      "constant": true
    },
    {
      "inputs": [
        {
          "internalType": "string",
          "name": "_from",
          "type": "string"
        },
        {
          "internalType": "address",
          "name": "_to",
          "type": "address"
        },
        {
          "internalType": "uint16",
          "name": "_nonce",
          "type": "uint16"
        },
        {
          "internalType": "uint256",
          "name": "_value",
          "type": "uint256"
        }
      ],
      "name": "submitTransaction",
      "outputs": [],
      "stateMutability": "nonpayable",
      "type": "function"
    },
    {
      "inputs": [
        {
          "internalType": "uint256",
          "name": "_txIndex",
          "type": "uint256"
        }
      ],
      "name": "confirmTransaction",
      "outputs": [],
      "stateMutability": "nonpayable",
      "type": "function"
    },
    {
      "inputs": [
        {
          "internalType": "uint256",
          "name": "_txIndex",
          "type": "uint256"
        }
      ],
      "name": "executeTransaction",
      "outputs": [],
      "stateMutability": "nonpayable",
      "type": "function"
    },
    {
      "inputs": [
        {
          "internalType": "uint256",
          "name": "_txIndex",
          "type": "uint256"
        }
      ],
      "name": "revokeConfirmation",
      "outputs": [],
      "stateMutability": "nonpayable",
      "type": "function"
    },
    {
      "inputs": [],
      "name": "getOwners",
      "outputs": [
        {
          "internalType": "address[]",
          "name": "",
          "type": "address[]"
        }
      ],
      "stateMutability": "view",
      "type": "function",
      "constant": true
    },
    {
      "inputs": [],
      "name": "getAdmins",
      "outputs": [
        {
          "internalType": "address[]",
          "name": "",
          "type": "address[]"
        }
      ],
      "stateMutability": "view",
      "type": "function",
      "constant": true
    },
    {
      "inputs": [],
      "name": "getTransactionCount",
      "outputs": [
        {
          "internalType": "uint256",
          "name": "",
          "type": "uint256"
        }
      ],
      "stateMutability": "view",
      "type": "function",
      "constant": true
    },
    {
      "inputs": [
        {
          "internalType": "uint256",
          "name": "_txIndex",
          "type": "uint256"
        }
      ],
      "name": "getTransaction",
      "outputs": [
        {
          "internalType": "address",
          "name": "to",
          "type": "address"
        },
        {
          "internalType": "uint256",
          "name": "value",
          "type": "uint256"
        },
        {
          "internalType": "bool",
          "name": "executed",
          "type": "bool"
        },
        {
          "internalType": "uint256",
          "name": "numConfirmations",
          "type": "uint256"
        }
      ],
      "stateMutability": "view",
      "type": "function",
      "constant": true
    },
    {
      "inputs": [
        {
          "internalType": "address",
          "name": "_admin",
          "type": "address"
        }
      ],
      "name": "addAdmins",
      "outputs": [],
      "stateMutability": "nonpayable",
      "type": "function"
    },
    {
      "inputs": [
        {
          "internalType": "uint256",
          "name": "index",
          "type": "uint256"
        }
      ],
      "name": "removeAdmins",
      "outputs": [
        {
          "internalType": "address[]",
          "name": "",
          "type": "address[]"
        }
      ],
      "stateMutability": "nonpayable",
      "type": "function"
    },
    {
      "inputs": [
        {
          "internalType": "address",
          "name": "_owner",
          "type": "address"
        }
      ],
      "name": "addOwners",
      "outputs": [],
      "stateMutability": "nonpayable",
      "type": "function"
    },
    {
      "inputs": [
        {
          "internalType": "uint256",
          "name": "index",
          "type": "uint256"
        }
      ],
      "name": "removeOwners",
      "outputs": [
        {
          "internalType": "address[]",
          "name": "",
          "type": "address[]"
        }
      ],
      "stateMutability": "nonpayable",
      "type": "function"
    },
    {
      "inputs": [
        {
          "internalType": "address",
          "name": "_to",
          "type": "address"
        }
      ],
      "name": "returnToken",
      "outputs": [],
      "stateMutability": "nonpayable",
      "type": "function"
    }
  ],
  "bytecode": "0x60806040526040518060400160405280601181526020017f4e50585358454d204d6967726174696f6e000000000000000000000000000000815250600090805190602001906200005192919062000622565b503480156200005f57600080fd5b50604051620045eb380380620045eb8339818101604052810190620000859190620007b9565b6000835111620000cc576040517f08c379a0000000000000000000000000000000000000000000000000000000008152600401620000c3906200098a565b60405180910390fd5b600082511162000113576040517f08c379a00000000000000000000000000000000000000000000000000000000081526004016200010a90620009ce565b60405180910390fd5b60008111801562000125575082518111155b62000167576040517f08c379a00000000000000000000000000000000000000000000000000000000081526004016200015e9062000a34565b60405180910390fd5b60005b83518110156200038f576000848281518110620001b0577f4e487b7100000000000000000000000000000000000000000000000000000000600052603260045260246000fd5b60200260200101519050600073ffffffffffffffffffffffffffffffffffffffff168173ffffffffffffffffffffffffffffffffffffffff1614156200022d576040517f08c379a00000000000000000000000000000000000000000000000000000000081526004016200022490620009f0565b60405180910390fd5b600760008273ffffffffffffffffffffffffffffffffffffffff1673ffffffffffffffffffffffffffffffffffffffff16815260200190815260200160002060009054906101000a900460ff1615620002bd576040517f08c379a0000000000000000000000000000000000000000000000000000000008152600401620002b49062000968565b60405180910390fd5b6001600760008373ffffffffffffffffffffffffffffffffffffffff1673ffffffffffffffffffffffffffffffffffffffff16815260200190815260200160002060006101000a81548160ff0219169083151502179055506005819080600181540180825580915050600190039060005260206000200160009091909190916101000a81548173ffffffffffffffffffffffffffffffffffffffff021916908373ffffffffffffffffffffffffffffffffffffffff160217905550508080620003869062000bda565b9150506200016a565b5060005b8251811015620005b8576000838281518110620003d9577f4e487b7100000000000000000000000000000000000000000000000000000000600052603260045260246000fd5b60200260200101519050600073ffffffffffffffffffffffffffffffffffffffff168173ffffffffffffffffffffffffffffffffffffffff16141562000456576040517f08c379a00000000000000000000000000000000000000000000000000000000081526004016200044d9062000a12565b60405180910390fd5b600860008273ffffffffffffffffffffffffffffffffffffffff1673ffffffffffffffffffffffffffffffffffffffff16815260200190815260200160002060009054906101000a900460ff1615620004e6576040517f08c379a0000000000000000000000000000000000000000000000000000000008152600401620004dd90620009ac565b60405180910390fd5b6001600860008373ffffffffffffffffffffffffffffffffffffffff1673ffffffffffffffffffffffffffffffffffffffff16815260200190815260200160002060006101000a81548160ff0219169083151502179055506006819080600181540180825580915050600190039060005260206000200160009091909190916101000a81548173ffffffffffffffffffffffffffffffffffffffff021916908373ffffffffffffffffffffffffffffffffffffffff160217905550508080620005af9062000bda565b91505062000393565b5083600160006101000a81548173ffffffffffffffffffffffffffffffffffffffff021916908373ffffffffffffffffffffffffffffffffffffffff160217905550806002819055506276a7004262000612919062000abf565b6004819055505050505062000e59565b828054620006309062000b6e565b90600052602060002090601f016020900481019282620006545760008555620006a0565b82601f106200066f57805160ff1916838001178555620006a0565b82800160010185558215620006a0579182015b828111156200069f57825182559160200191906001019062000682565b5b509050620006af9190620006b3565b5090565b5b80821115620006ce576000816000905550600101620006b4565b5090565b6000620006e9620006e38462000a7f565b62000a56565b905080838252602082019050828560208602820111156200070957600080fd5b60005b858110156200073d578162000722888262000747565b8452602084019350602083019250506001810190506200070c565b5050509392505050565b600081519050620007588162000e0b565b92915050565b600082601f8301126200077057600080fd5b815162000782848260208601620006d2565b91505092915050565b6000815190506200079c8162000e25565b92915050565b600081519050620007b38162000e3f565b92915050565b60008060008060808587031215620007d057600080fd5b6000620007e0878288016200078b565b945050602085015167ffffffffffffffff811115620007fe57600080fd5b6200080c878288016200075e565b935050604085015167ffffffffffffffff8111156200082a57600080fd5b62000838878288016200075e565b92505060606200084b87828801620007a2565b91505092959194509250565b60006200086660108362000aae565b9150620008738262000cc6565b602082019050919050565b60006200088d600f8362000aae565b91506200089a8262000cef565b602082019050919050565b6000620008b460108362000aae565b9150620008c18262000d18565b602082019050919050565b6000620008db600f8362000aae565b9150620008e88262000d41565b602082019050919050565b600062000902600d8362000aae565b91506200090f8262000d6a565b602082019050919050565b600062000929600d8362000aae565b9150620009368262000d93565b602082019050919050565b60006200095060288362000aae565b91506200095d8262000dbc565b604082019050919050565b60006020820190508181036000830152620009838162000857565b9050919050565b60006020820190508181036000830152620009a5816200087e565b9050919050565b60006020820190508181036000830152620009c781620008a5565b9050919050565b60006020820190508181036000830152620009e981620008cc565b9050919050565b6000602082019050818103600083015262000a0b81620008f3565b9050919050565b6000602082019050818103600083015262000a2d816200091a565b9050919050565b6000602082019050818103600083015262000a4f8162000941565b9050919050565b600062000a6262000a75565b905062000a70828262000ba4565b919050565b6000604051905090565b600067ffffffffffffffff82111562000a9d5762000a9c62000c86565b5b602082029050602081019050919050565b600082825260208201905092915050565b600062000acc8262000b64565b915062000ad98362000b64565b9250827fffffffffffffffffffffffffffffffffffffffffffffffffffffffffffffffff0382111562000b115762000b1062000c28565b5b828201905092915050565b600062000b298262000b44565b9050919050565b600062000b3d8262000b1c565b9050919050565b600073ffffffffffffffffffffffffffffffffffffffff82169050919050565b6000819050919050565b6000600282049050600182168062000b8757607f821691505b6020821081141562000b9e5762000b9d62000c57565b5b50919050565b62000baf8262000cb5565b810181811067ffffffffffffffff8211171562000bd15762000bd062000c86565b5b80604052505050565b600062000be78262000b64565b91507fffffffffffffffffffffffffffffffffffffffffffffffffffffffffffffffff82141562000c1d5762000c1c62000c28565b5b600182019050919050565b7f4e487b7100000000000000000000000000000000000000000000000000000000600052601160045260246000fd5b7f4e487b7100000000000000000000000000000000000000000000000000000000600052602260045260246000fd5b7f4e487b7100000000000000000000000000000000000000000000000000000000600052604160045260246000fd5b6000601f19601f8301169050919050565b7f6f776e6572206e6f7420756e6971756500000000000000000000000000000000600082015250565b7f6f776e6572732072657175697265640000000000000000000000000000000000600082015250565b7f61646d696e206e6f7420756e6971756500000000000000000000000000000000600082015250565b7f61646d696e732072657175697265640000000000000000000000000000000000600082015250565b7f696e76616c6964206f776e657200000000000000000000000000000000000000600082015250565b7f696e76616c69642061646d696e00000000000000000000000000000000000000600082015250565b7f696e76616c6964206e756d626572206f6620726571756972656420636f6e666960008201527f726d6174696f6e73000000000000000000000000000000000000000000000000602082015250565b62000e168162000b1c565b811462000e2257600080fd5b50565b62000e308162000b30565b811462000e3c57600080fd5b50565b62000e4a8162000b64565b811462000e5657600080fd5b50565b6137828062000e696000396000f3fe608060405234801561001057600080fd5b50600436106101735760003560e01c80635f3b1f3b116100de578063b8220f6a11610097578063d0549b8511610071578063d0549b85146104b4578063e304f6ee146104d2578063e33e952c146104ee578063ee22610b1461050a57610173565b8063b8220f6a1461044a578063c01a8c8414610468578063d030db6a1461048457610173565b80635f3b1f3b1461035f5780637bb88c891461037b57806380f59a65146103ab578063924806a0146103db5780639ace38c2146103f7578063a0e67e2b1461042c57610173565b80632f54bf6e116101305780632f54bf6e1461026057806331ae450b1461029057806333ea3dc8146102ae578063381c88d1146102e157806351bf16ef1461031157806354a45c911461032f57610173565b8063025e7c271461017857806306fdde03146101a857806314bfd6d0146101c657806320ea8d86146101f657806324d7806c146102125780632e7700f014610242575b600080fd5b610192600480360381019061018d91906129c4565b610526565b60405161019f9190612da6565b60405180910390f35b6101b0610565565b6040516101bd9190612ebe565b60405180910390f35b6101e060048036038101906101db91906129c4565b6105f3565b6040516101ed9190612da6565b60405180910390f35b610210600480360381019061020b91906129c4565b610632565b005b61022c6004803603810190610227919061289e565b610901565b6040516102399190612e88565b60405180910390f35b61024a610921565b6040516102579190613128565b60405180910390f35b61027a6004803603810190610275919061289e565b61092b565b6040516102879190612e88565b60405180910390f35b61029861094b565b6040516102a59190612e66565b60405180910390f35b6102c860048036038101906102c391906129c4565b6109d9565b6040516102d89493929190612e21565b60405180910390f35b6102fb60048036038101906102f69190612970565b610a77565b6040516103089190612e88565b60405180910390f35b610319610abc565b6040516103269190612ea3565b60405180910390f35b610349600480360381019061034491906129c4565b610ae2565b6040516103569190612e66565b60405180910390f35b6103796004803603810190610374919061289e565b610f96565b005b610395600480360381019061039091906129c4565b6111dd565b6040516103a29190612e88565b60405180910390f35b6103c560048036038101906103c09190612a16565b6111fd565b6040516103d29190612e88565b60405180910390f35b6103f560048036038101906103f0919061289e565b61122c565b005b610411600480360381019061040c91906129c4565b61148b565b60405161042396959493929190612ee0565b60405180910390f35b61043461158a565b6040516104419190612e66565b60405180910390f35b610452611618565b60405161045f9190613128565b60405180910390f35b610482600480360381019061047d91906129c4565b61161e565b005b61049e600480360381019061049991906129c4565b6118f0565b6040516104ab9190612e66565b60405180910390f35b6104bc611da4565b6040516104c99190613128565b60405180910390f35b6104ec60048036038101906104e7919061289e565b611daa565b005b610508600480360381019061050391906128f0565b611ff1565b005b610524600480360381019061051f91906129c4565b6123b9565b005b6005818154811061053657600080fd5b906000526020600020016000915054906101000a900473ffffffffffffffffffffffffffffffffffffffff1681565b600080546105729061333f565b80601f016020809104026020016040519081016040528092919081815260200182805461059e9061333f565b80156105eb5780601f106105c0576101008083540402835291602001916105eb565b820191906000526020600020905b8154815290600101906020018083116105ce57829003601f168201915b505050505081565b6006818154811061060357600080fd5b906000526020600020016000915054906101000a900473ffffffffffffffffffffffffffffffffffffffff1681565b600760003373ffffffffffffffffffffffffffffffffffffffff1673ffffffffffffffffffffffffffffffffffffffff16815260200190815260200160002060009054906101000a900460ff166106be576040517f08c379a00000000000000000000000000000000000000000000000000000000081526004016106b5906130e8565b60405180910390fd5b80600a600082815260200190815260200160002060009054906101000a900460ff1661071f576040517f08c379a000000000000000000000000000000000000000000000000000000000815260040161071690612fa8565b60405180910390fd5b81600c600082815260200190815260200160002060030160009054906101000a900460ff1615610784576040517f08c379a000000000000000000000000000000000000000000000000000000000815260040161077b90613048565b60405180910390fd5b6009600084815260200190815260200160002060003373ffffffffffffffffffffffffffffffffffffffff1673ffffffffffffffffffffffffffffffffffffffff16815260200190815260200160002060009054906101000a900460ff16610821576040517f08c379a000000000000000000000000000000000000000000000000000000000815260040161081890613068565b60405180910390fd5b6001600c60008581526020019081526020016000206004016000828254610848919061324f565b9250508190555060006009600085815260200190815260200160002060003373ffffffffffffffffffffffffffffffffffffffff1673ffffffffffffffffffffffffffffffffffffffff16815260200190815260200160002060006101000a81548160ff021916908315150217905550823373ffffffffffffffffffffffffffffffffffffffff167ff0dca620e2e81f7841d07bcc105e1704fb01475b278a9d4c236e1c62945edd5560405160405180910390a3505050565b60086020528060005260406000206000915054906101000a900460ff1681565b6000600354905090565b60076020528060005260406000206000915054906101000a900460ff1681565b606060068054806020026020016040519081016040528092919081815260200182805480156109cf57602002820191906000526020600020905b8160009054906101000a900473ffffffffffffffffffffffffffffffffffffffff1673ffffffffffffffffffffffffffffffffffffffff1681526020019060010190808311610985575b5050505050905090565b600080600080600c600086815260200190815260200160002060010160009054906101000a900473ffffffffffffffffffffffffffffffffffffffff16600c600087815260200190815260200160002060020154600c600088815260200190815260200160002060030160009054906101000a900460ff16600c60008981526020019081526020016000206004015493509350935093509193509193565b600b828051602081018201805184825260208301602085012081835280955050505050506020528060005260406000206000915091509054906101000a900460ff1681565b600160009054906101000a900473ffffffffffffffffffffffffffffffffffffffff1681565b6060600760003373ffffffffffffffffffffffffffffffffffffffff1673ffffffffffffffffffffffffffffffffffffffff16815260200190815260200160002060009054906101000a900460ff16610b70576040517f08c379a0000000000000000000000000000000000000000000000000000000008152600401610b67906130e8565b60405180910390fd5b600060068381548110610bac577f4e487b7100000000000000000000000000000000000000000000000000000000600052603260045260246000fd5b9060005260206000200160009054906101000a900473ffffffffffffffffffffffffffffffffffffffff1690506006805490508310610c20576040517f08c379a0000000000000000000000000000000000000000000000000000000008152600401610c17906130a8565b60405180910390fd5b600073ffffffffffffffffffffffffffffffffffffffff168173ffffffffffffffffffffffffffffffffffffffff161415610c90576040517f08c379a0000000000000000000000000000000000000000000000000000000008152600401610c8790612fe8565b60405180910390fd5b600860008273ffffffffffffffffffffffffffffffffffffffff1673ffffffffffffffffffffffffffffffffffffffff16815260200190815260200160002060009054906101000a900460ff16610d1c576040517f08c379a0000000000000000000000000000000000000000000000000000000008152600401610d1390613088565b60405180910390fd5b60008390505b6001600680549050610d34919061324f565b811015610e41576006600182610d4a91906131f9565b81548110610d81577f4e487b7100000000000000000000000000000000000000000000000000000000600052603260045260246000fd5b9060005260206000200160009054906101000a900473ffffffffffffffffffffffffffffffffffffffff1660068281548110610de6577f4e487b7100000000000000000000000000000000000000000000000000000000600052603260045260246000fd5b9060005260206000200160006101000a81548173ffffffffffffffffffffffffffffffffffffffff021916908373ffffffffffffffffffffffffffffffffffffffff1602179055508080610e39906133a2565b915050610d22565b506006805480610e7a577f4e487b7100000000000000000000000000000000000000000000000000000000600052603160045260246000fd5b6001900381819060005260206000200160006101000a81549073ffffffffffffffffffffffffffffffffffffffff021916905590556000600860008373ffffffffffffffffffffffffffffffffffffffff1673ffffffffffffffffffffffffffffffffffffffff16815260200190815260200160002060006101000a81548160ff0219169083151502179055506006805480602002602001604051908101604052809291908181526020018280548015610f8957602002820191906000526020600020905b8160009054906101000a900473ffffffffffffffffffffffffffffffffffffffff1673ffffffffffffffffffffffffffffffffffffffff1681526020019060010190808311610f3f575b5050505050915050919050565b600760003373ffffffffffffffffffffffffffffffffffffffff1673ffffffffffffffffffffffffffffffffffffffff16815260200190815260200160002060009054906101000a900460ff16611022576040517f08c379a0000000000000000000000000000000000000000000000000000000008152600401611019906130e8565b60405180910390fd5b600073ffffffffffffffffffffffffffffffffffffffff168173ffffffffffffffffffffffffffffffffffffffff161415611092576040517f08c379a000000000000000000000000000000000000000000000000000000000815260040161108990612f88565b60405180910390fd5b600760008273ffffffffffffffffffffffffffffffffffffffff1673ffffffffffffffffffffffffffffffffffffffff16815260200190815260200160002060009054906101000a900460ff161561111f576040517f08c379a000000000000000000000000000000000000000000000000000000000815260040161111690612f48565b60405180910390fd5b6001600760008373ffffffffffffffffffffffffffffffffffffffff1673ffffffffffffffffffffffffffffffffffffffff16815260200190815260200160002060006101000a81548160ff0219169083151502179055506005819080600181540180825580915050600190039060005260206000200160009091909190916101000a81548173ffffffffffffffffffffffffffffffffffffffff021916908373ffffffffffffffffffffffffffffffffffffffff16021790555050565b600a6020528060005260406000206000915054906101000a900460ff1681565b60096020528160005260406000206020528060005260406000206000915091509054906101000a900460ff1681565b600760003373ffffffffffffffffffffffffffffffffffffffff1673ffffffffffffffffffffffffffffffffffffffff16815260200190815260200160002060009054906101000a900460ff166112b8576040517f08c379a00000000000000000000000000000000000000000000000000000000081526004016112af906130e8565b60405180910390fd5b600073ffffffffffffffffffffffffffffffffffffffff168173ffffffffffffffffffffffffffffffffffffffff161415611328576040517f08c379a000000000000000000000000000000000000000000000000000000000815260040161131f90613008565b60405180910390fd5b6000600160009054906101000a900473ffffffffffffffffffffffffffffffffffffffff1673ffffffffffffffffffffffffffffffffffffffff166370a08231306040518263ffffffff1660e01b81526004016113859190612da6565b60206040518083038186803b15801561139d57600080fd5b505afa1580156113b1573d6000803e3d6000fd5b505050506040513d601f19601f820116820180604052508101906113d591906129ed565b9050600160009054906101000a900473ffffffffffffffffffffffffffffffffffffffff1673ffffffffffffffffffffffffffffffffffffffff1663a9059cbb83836040518363ffffffff1660e01b8152600401611434929190612df8565b602060405180830381600087803b15801561144e57600080fd5b505af1158015611462573d6000803e3d6000fd5b505050506040513d601f19601f8201168201806040525081019061148691906128c7565b505050565b600c6020528060005260406000206000915090508060000180546114ae9061333f565b80601f01602080910402602001604051908101604052809291908181526020018280546114da9061333f565b80156115275780601f106114fc57610100808354040283529160200191611527565b820191906000526020600020905b81548152906001019060200180831161150a57829003601f168201915b5050505050908060010160009054906101000a900473ffffffffffffffffffffffffffffffffffffffff16908060010160149054906101000a900461ffff16908060020154908060030160009054906101000a900460ff16908060040154905086565b6060600580548060200260200160405190810160405280929190818152602001828054801561160e57602002820191906000526020600020905b8160009054906101000a900473ffffffffffffffffffffffffffffffffffffffff1673ffffffffffffffffffffffffffffffffffffffff16815260200190600101908083116115c4575b5050505050905090565b60035481565b600760003373ffffffffffffffffffffffffffffffffffffffff1673ffffffffffffffffffffffffffffffffffffffff16815260200190815260200160002060009054906101000a900460ff166116aa576040517f08c379a00000000000000000000000000000000000000000000000000000000081526004016116a1906130e8565b60405180910390fd5b80600a600082815260200190815260200160002060009054906101000a900460ff1661170b576040517f08c379a000000000000000000000000000000000000000000000000000000000815260040161170290612fa8565b60405180910390fd5b81600c600082815260200190815260200160002060030160009054906101000a900460ff1615611770576040517f08c379a000000000000000000000000000000000000000000000000000000000815260040161176790613048565b60405180910390fd5b826009600082815260200190815260200160002060003373ffffffffffffffffffffffffffffffffffffffff1673ffffffffffffffffffffffffffffffffffffffff16815260200190815260200160002060009054906101000a900460ff161561180f576040517f08c379a000000000000000000000000000000000000000000000000000000000815260040161180690612fc8565b60405180910390fd5b6001600c6000868152602001908152602001600020600401600082825461183691906131f9565b9250508190555060016009600086815260200190815260200160002060003373ffffffffffffffffffffffffffffffffffffffff1673ffffffffffffffffffffffffffffffffffffffff16815260200190815260200160002060006101000a81548160ff021916908315150217905550833373ffffffffffffffffffffffffffffffffffffffff167f5cbe105e36805f7820e291f799d5794ff948af2a5f664e580382defb6339004160405160405180910390a350505050565b6060600760003373ffffffffffffffffffffffffffffffffffffffff1673ffffffffffffffffffffffffffffffffffffffff16815260200190815260200160002060009054906101000a900460ff1661197e576040517f08c379a0000000000000000000000000000000000000000000000000000000008152600401611975906130e8565b60405180910390fd5b6000600583815481106119ba577f4e487b7100000000000000000000000000000000000000000000000000000000600052603260045260246000fd5b9060005260206000200160009054906101000a900473ffffffffffffffffffffffffffffffffffffffff1690506005805490508310611a2e576040517f08c379a0000000000000000000000000000000000000000000000000000000008152600401611a25906130a8565b60405180910390fd5b600073ffffffffffffffffffffffffffffffffffffffff168173ffffffffffffffffffffffffffffffffffffffff161415611a9e576040517f08c379a0000000000000000000000000000000000000000000000000000000008152600401611a9590612f88565b60405180910390fd5b600760008273ffffffffffffffffffffffffffffffffffffffff1673ffffffffffffffffffffffffffffffffffffffff16815260200190815260200160002060009054906101000a900460ff16611b2a576040517f08c379a0000000000000000000000000000000000000000000000000000000008152600401611b21906130e8565b60405180910390fd5b60008390505b6001600580549050611b42919061324f565b811015611c4f576005600182611b5891906131f9565b81548110611b8f577f4e487b7100000000000000000000000000000000000000000000000000000000600052603260045260246000fd5b9060005260206000200160009054906101000a900473ffffffffffffffffffffffffffffffffffffffff1660058281548110611bf4577f4e487b7100000000000000000000000000000000000000000000000000000000600052603260045260246000fd5b9060005260206000200160006101000a81548173ffffffffffffffffffffffffffffffffffffffff021916908373ffffffffffffffffffffffffffffffffffffffff1602179055508080611c47906133a2565b915050611b30565b506005805480611c88577f4e487b7100000000000000000000000000000000000000000000000000000000600052603160045260246000fd5b6001900381819060005260206000200160006101000a81549073ffffffffffffffffffffffffffffffffffffffff021916905590556000600760008373ffffffffffffffffffffffffffffffffffffffff1673ffffffffffffffffffffffffffffffffffffffff16815260200190815260200160002060006101000a81548160ff0219169083151502179055506005805480602002602001604051908101604052809291908181526020018280548015611d9757602002820191906000526020600020905b8160009054906101000a900473ffffffffffffffffffffffffffffffffffffffff1673ffffffffffffffffffffffffffffffffffffffff1681526020019060010190808311611d4d575b5050505050915050919050565b60025481565b600760003373ffffffffffffffffffffffffffffffffffffffff1673ffffffffffffffffffffffffffffffffffffffff16815260200190815260200160002060009054906101000a900460ff16611e36576040517f08c379a0000000000000000000000000000000000000000000000000000000008152600401611e2d906130e8565b60405180910390fd5b600073ffffffffffffffffffffffffffffffffffffffff168173ffffffffffffffffffffffffffffffffffffffff161415611ea6576040517f08c379a0000000000000000000000000000000000000000000000000000000008152600401611e9d90612fe8565b60405180910390fd5b600860008273ffffffffffffffffffffffffffffffffffffffff1673ffffffffffffffffffffffffffffffffffffffff16815260200190815260200160002060009054906101000a900460ff1615611f33576040517f08c379a0000000000000000000000000000000000000000000000000000000008152600401611f2a90612f68565b60405180910390fd5b6001600860008373ffffffffffffffffffffffffffffffffffffffff1673ffffffffffffffffffffffffffffffffffffffff16815260200190815260200160002060006101000a81548160ff0219169083151502179055506006819080600181540180825580915050600190039060005260206000200160009091909190916101000a81548173ffffffffffffffffffffffffffffffffffffffff021916908373ffffffffffffffffffffffffffffffffffffffff16021790555050565b600860003373ffffffffffffffffffffffffffffffffffffffff1673ffffffffffffffffffffffffffffffffffffffff16815260200190815260200160002060009054906101000a900460ff1661207d576040517f08c379a000000000000000000000000000000000000000000000000000000000815260040161207490613088565b60405180910390fd5b6004544211156120c2576040517f08c379a00000000000000000000000000000000000000000000000000000000081526004016120b990613028565b60405180910390fd5b600b85856040516120d4929190612d8d565b908152602001604051809103902060008361ffff1661ffff16815260200190815260200160002060009054906101000a900460ff1615612149576040517f08c379a000000000000000000000000000000000000000000000000000000000815260040161214090613108565b60405180910390fd5b6040518060c0016040528086868080601f016020809104026020016040519081016040528093929190818152602001838380828437600081840152601f19601f8201169050808301925050505050505081526020018473ffffffffffffffffffffffffffffffffffffffff1681526020018361ffff1681526020018281526020016000151581526020016000815250600c6000600354815260200190815260200160002060008201518160000190805190602001906122099291906126e0565b5060208201518160010160006101000a81548173ffffffffffffffffffffffffffffffffffffffff021916908373ffffffffffffffffffffffffffffffffffffffff16021790555060408201518160010160146101000a81548161ffff021916908361ffff1602179055506060820151816002015560808201518160030160006101000a81548160ff02191690831515021790555060a082015181600401559050506001600a6000600354815260200190815260200160002060006101000a81548160ff0219169083151502179055506001600b86866040516122ed929190612d8d565b908152602001604051809103902060008461ffff1661ffff16815260200190815260200160002060006101000a81548160ff0219169083151502179055508273ffffffffffffffffffffffffffffffffffffffff168585604051612352929190612d8d565b60405180910390206003547f2cd61f13f4318cd7038a2f449f80124f7f20df2f940c88b855ec3ce8686afd1b33868660405161239093929190612dc1565b60405180910390a46001600360008282546123ab91906131f9565b925050819055505050505050565b600760003373ffffffffffffffffffffffffffffffffffffffff1673ffffffffffffffffffffffffffffffffffffffff16815260200190815260200160002060009054906101000a900460ff16612445576040517f08c379a000000000000000000000000000000000000000000000000000000000815260040161243c906130e8565b60405180910390fd5b80600a600082815260200190815260200160002060009054906101000a900460ff166124a6576040517f08c379a000000000000000000000000000000000000000000000000000000000815260040161249d90612fa8565b60405180910390fd5b81600c600082815260200190815260200160002060030160009054906101000a900460ff161561250b576040517f08c379a000000000000000000000000000000000000000000000000000000000815260040161250290613048565b60405180910390fd5b600254600c6000858152602001908152602001600020600401541015612566576040517f08c379a000000000000000000000000000000000000000000000000000000000815260040161255d906130c8565b60405180910390fd5b6001600c600085815260200190815260200160002060030160006101000a81548160ff0219169083151502179055506000600c6000858152602001908152602001600020600201549050600160009054906101000a900473ffffffffffffffffffffffffffffffffffffffff1673ffffffffffffffffffffffffffffffffffffffff1663a9059cbb600c600087815260200190815260200160002060010160009054906101000a900473ffffffffffffffffffffffffffffffffffffffff16836040518363ffffffff1660e01b8152600401612643929190612df8565b602060405180830381600087803b15801561265d57600080fd5b505af1158015612671573d6000803e3d6000fd5b505050506040513d601f19601f8201168201806040525081019061269591906128c7565b50833373ffffffffffffffffffffffffffffffffffffffff167f5445f318f4f5fcfb66592e68e0cc5822aa15664039bd5f0ffde24c5a8142b1ac60405160405180910390a350505050565b8280546126ec9061333f565b90600052602060002090601f01602090048101928261270e5760008555612755565b82601f1061272757805160ff1916838001178555612755565b82800160010185558215612755579182015b82811115612754578251825591602001919060010190612739565b5b5090506127629190612766565b5090565b5b8082111561277f576000816000905550600101612767565b5090565b600061279661279184613168565b613143565b9050828152602081018484840111156127ae57600080fd5b6127b98482856132fd565b509392505050565b6000813590506127d0816136f0565b92915050565b6000815190506127e581613707565b92915050565b60008083601f8401126127fd57600080fd5b8235905067ffffffffffffffff81111561281657600080fd5b60208301915083600182028301111561282e57600080fd5b9250929050565b600082601f83011261284657600080fd5b8135612856848260208601612783565b91505092915050565b60008135905061286e8161371e565b92915050565b60008135905061288381613735565b92915050565b60008151905061289881613735565b92915050565b6000602082840312156128b057600080fd5b60006128be848285016127c1565b91505092915050565b6000602082840312156128d957600080fd5b60006128e7848285016127d6565b91505092915050565b60008060008060006080868803121561290857600080fd5b600086013567ffffffffffffffff81111561292257600080fd5b61292e888289016127eb565b95509550506020612941888289016127c1565b93505060406129528882890161285f565b925050606061296388828901612874565b9150509295509295909350565b6000806040838503121561298357600080fd5b600083013567ffffffffffffffff81111561299d57600080fd5b6129a985828601612835565b92505060206129ba8582860161285f565b9150509250929050565b6000602082840312156129d657600080fd5b60006129e484828501612874565b91505092915050565b6000602082840312156129ff57600080fd5b6000612a0d84828501612889565b91505092915050565b60008060408385031215612a2957600080fd5b6000612a3785828601612874565b9250506020612a48858286016127c1565b9150509250929050565b6000612a5e8383612a6a565b60208301905092915050565b612a7381613283565b82525050565b612a8281613283565b82525050565b6000612a93826131a9565b612a9d81856131cc565b9350612aa883613199565b8060005b83811015612ad9578151612ac08882612a52565b9750612acb836131bf565b925050600181019050612aac565b5085935050505092915050565b612aef81613295565b82525050565b612afe816132d9565b82525050565b6000612b1083856131ee565b9350612b1d8385846132fd565b82840190509392505050565b6000612b34826131b4565b612b3e81856131dd565b9350612b4e81856020860161330c565b612b5781613478565b840191505092915050565b6000612b6f6010836131dd565b9150612b7a82613489565b602082019050919050565b6000612b926010836131dd565b9150612b9d826134b2565b602082019050919050565b6000612bb5600d836131dd565b9150612bc0826134db565b602082019050919050565b6000612bd86011836131dd565b9150612be382613504565b602082019050919050565b6000612bfb6014836131dd565b9150612c068261352d565b602082019050919050565b6000612c1e600d836131dd565b9150612c2982613556565b602082019050919050565b6000612c416018836131dd565b9150612c4c8261357f565b602082019050919050565b6000612c646015836131dd565b9150612c6f826135a8565b602082019050919050565b6000612c876013836131dd565b9150612c92826135d1565b602082019050919050565b6000612caa6010836131dd565b9150612cb5826135fa565b602082019050919050565b6000612ccd6009836131dd565b9150612cd882613623565b602082019050919050565b6000612cf0600d836131dd565b9150612cfb8261364c565b602082019050919050565b6000612d136011836131dd565b9150612d1e82613675565b602082019050919050565b6000612d366009836131dd565b9150612d418261369e565b602082019050919050565b6000612d59601d836131dd565b9150612d64826136c7565b602082019050919050565b612d78816132a1565b82525050565b612d87816132cf565b82525050565b6000612d9a828486612b04565b91508190509392505050565b6000602082019050612dbb6000830184612a79565b92915050565b6000606082019050612dd66000830186612a79565b612de36020830185612d6f565b612df06040830184612d7e565b949350505050565b6000604082019050612e0d6000830185612a79565b612e1a6020830184612d7e565b9392505050565b6000608082019050612e366000830187612a79565b612e436020830186612d7e565b612e506040830185612ae6565b612e5d6060830184612d7e565b95945050505050565b60006020820190508181036000830152612e808184612a88565b905092915050565b6000602082019050612e9d6000830184612ae6565b92915050565b6000602082019050612eb86000830184612af5565b92915050565b60006020820190508181036000830152612ed88184612b29565b905092915050565b600060c0820190508181036000830152612efa8189612b29565b9050612f096020830188612a79565b612f166040830187612d6f565b612f236060830186612d7e565b612f306080830185612ae6565b612f3d60a0830184612d7e565b979650505050505050565b60006020820190508181036000830152612f6181612b62565b9050919050565b60006020820190508181036000830152612f8181612b85565b9050919050565b60006020820190508181036000830152612fa181612ba8565b9050919050565b60006020820190508181036000830152612fc181612bcb565b9050919050565b60006020820190508181036000830152612fe181612bee565b9050919050565b6000602082019050818103600083015261300181612c11565b9050919050565b6000602082019050818103600083015261302181612c34565b9050919050565b6000602082019050818103600083015261304181612c57565b9050919050565b6000602082019050818103600083015261306181612c7a565b9050919050565b6000602082019050818103600083015261308181612c9d565b9050919050565b600060208201905081810360008301526130a181612cc0565b9050919050565b600060208201905081810360008301526130c181612ce3565b9050919050565b600060208201905081810360008301526130e181612d06565b9050919050565b6000602082019050818103600083015261310181612d29565b9050919050565b6000602082019050818103600083015261312181612d4c565b9050919050565b600060208201905061313d6000830184612d7e565b92915050565b600061314d61315e565b90506131598282613371565b919050565b6000604051905090565b600067ffffffffffffffff82111561318357613182613449565b5b61318c82613478565b9050602081019050919050565b6000819050602082019050919050565b600081519050919050565b600081519050919050565b6000602082019050919050565b600082825260208201905092915050565b600082825260208201905092915050565b600081905092915050565b6000613204826132cf565b915061320f836132cf565b9250827fffffffffffffffffffffffffffffffffffffffffffffffffffffffffffffffff03821115613244576132436133eb565b5b828201905092915050565b600061325a826132cf565b9150613265836132cf565b925082821015613278576132776133eb565b5b828203905092915050565b600061328e826132af565b9050919050565b60008115159050919050565b600061ffff82169050919050565b600073ffffffffffffffffffffffffffffffffffffffff82169050919050565b6000819050919050565b60006132e4826132eb565b9050919050565b60006132f6826132af565b9050919050565b82818337600083830152505050565b60005b8381101561332a57808201518184015260208101905061330f565b83811115613339576000848401525b50505050565b6000600282049050600182168061335757607f821691505b6020821081141561336b5761336a61341a565b5b50919050565b61337a82613478565b810181811067ffffffffffffffff8211171561339957613398613449565b5b80604052505050565b60006133ad826132cf565b91507fffffffffffffffffffffffffffffffffffffffffffffffffffffffffffffffff8214156133e0576133df6133eb565b5b600182019050919050565b7f4e487b7100000000000000000000000000000000000000000000000000000000600052601160045260246000fd5b7f4e487b7100000000000000000000000000000000000000000000000000000000600052602260045260246000fd5b7f4e487b7100000000000000000000000000000000000000000000000000000000600052604160045260246000fd5b6000601f19601f8301169050919050565b7f6f776e6572206e6f7420756e6971756500000000000000000000000000000000600082015250565b7f61646d696e206e6f7420756e6971756500000000000000000000000000000000600082015250565b7f696e76616c6964206f776e657200000000000000000000000000000000000000600082015250565b7f747820646f6573206e6f74206578697374000000000000000000000000000000600082015250565b7f747820616c726561647920636f6e6669726d6564000000000000000000000000600082015250565b7f696e76616c69642061646d696e00000000000000000000000000000000000000600082015250565b7f73656e6420746f20746865207a65726f20616464726573730000000000000000600082015250565b7f4d6967726174696f6e2077696e646f77206f7665720000000000000000000000600082015250565b7f747820616c726561647920657865637574656400000000000000000000000000600082015250565b7f7478206e6f7420636f6e6669726d656400000000000000000000000000000000600082015250565b7f6e6f742061646d696e0000000000000000000000000000000000000000000000600082015250565b7f696e76616c696420696e64657800000000000000000000000000000000000000600082015250565b7f63616e6e6f742065786563757465207478000000000000000000000000000000600082015250565b7f6e6f74206f776e65720000000000000000000000000000000000000000000000600082015250565b7f6e6f6e63652065786973742066726f6d2073616d652061646472657373000000600082015250565b6136f981613283565b811461370457600080fd5b50565b61371081613295565b811461371b57600080fd5b50565b613727816132a1565b811461373257600080fd5b50565b61373e816132cf565b811461374957600080fd5b5056fea26469706673582212207312a6ccd5c944fee0041c155b9b697a857128a54b93e7696e93e216568f085f64736f6c63430008030033",
  "immutableReferences": {},
  "source": "// SPDX-License-Identifier: UNLICENSED\r\n\r\npragma solidity ^0.8.0;\r\n\r\nimport \"./PurseTokenMultiSigUpgradable.sol\";\r\n\r\ncontract NPXSXEMigrationMulSig {\r\n    event SubmitTransaction(address owner, uint indexed txIndex, string indexed _from, address indexed to, uint16 nonce, uint value);\r\n    event ConfirmTransaction(address indexed owner, uint indexed txIndex);\r\n    event RevokeConfirmation(address indexed owner, uint indexed txIndex);\r\n    event ExecuteTransaction(address indexed owner, uint indexed txIndex);\r\n    \r\n    string public name = \"NPXSXEM Migration\";\r\n    PurseTokenMultiSigUpgradable public purseToken;\r\n    uint public numConfirmationsRequired;\r\n    uint public transactionIndex;\r\n    uint256 internal migrationEnd;\r\n    address[] public owners;\r\n    address[] public admins;\r\n    mapping(address => bool) public isOwner;\r\n    mapping(address => bool) public isAdmin;\r\n    // mapping from tx index => owner => bool\r\n    mapping(uint => mapping(address => bool)) public isConfirmed;\r\n    mapping(uint => bool) public txExist;\r\n    mapping(string => mapping(uint16 => bool)) public nonceCheck;\r\n    mapping(uint => Transaction) public transactions;\r\n    \r\n    \r\n    struct Transaction {\r\n        string from;\r\n        address to;\r\n        uint16 nonce;\r\n        uint value;\r\n        bool executed;\r\n        uint numConfirmations;\r\n    }\r\n\r\n    modifier onlyOwner() {\r\n        require(isOwner[msg.sender], \"not owner\");\r\n        _;\r\n    }\r\n\r\n    modifier onlyAdmin() {\r\n        require(isAdmin[msg.sender], \"not admin\");\r\n        _;\r\n    }\r\n\r\n    modifier txExists(uint _txIndex) {\r\n        require(txExist[_txIndex], \"tx does not exist\");\r\n        _;\r\n    }\r\n\r\n    modifier notExecuted(uint _txIndex) {\r\n        require(!transactions[_txIndex].executed, \"tx already executed\");\r\n        _;\r\n    }\r\n\r\n    modifier notConfirmed(uint _txIndex) {\r\n        require(!isConfirmed[_txIndex][msg.sender], \"tx already confirmed\");\r\n        _;\r\n    }\r\n\r\n    constructor(PurseTokenMultiSigUpgradable _purseToken, address[] memory _owners, address[] memory _admins, uint _numConfirmationsRequired) {\r\n        require(_owners.length > 0, \"owners required\");\r\n        require(_admins.length > 0, \"admins required\");\r\n        require(\r\n            _numConfirmationsRequired > 0 &&\r\n                _numConfirmationsRequired <= _owners.length,\r\n            \"invalid number of required confirmations\"\r\n        );\r\n\r\n        for (uint i = 0; i < _owners.length; i++) {\r\n            address owner = _owners[i];\r\n\r\n            require(owner != address(0), \"invalid owner\");\r\n            require(!isOwner[owner], \"owner not unique\");\r\n\r\n            isOwner[owner] = true;\r\n            owners.push(owner);\r\n        }\r\n        for (uint i = 0; i < _admins.length; i++) {\r\n            address admin = _admins[i];\r\n\r\n            require(admin != address(0), \"invalid admin\");\r\n            require(!isAdmin[admin], \"admin not unique\");\r\n\r\n            isAdmin[admin] = true;\r\n            admins.push(admin);\r\n        }\r\n        purseToken = _purseToken;\r\n        numConfirmationsRequired = _numConfirmationsRequired;\r\n        migrationEnd = block.timestamp + 90 days;\r\n    }\r\n\r\n    function submitTransaction(string calldata _from, address _to, uint16 _nonce, uint _value) public onlyAdmin {\r\n        require(block.timestamp <= migrationEnd, \"Migration window over\");\r\n        require(!nonceCheck[_from][_nonce], \"nonce exist from same address\");\r\n        transactions[transactionIndex] = Transaction(_from, _to, _nonce,  _value, false, 0 );\r\n        txExist[transactionIndex] = true;\r\n        nonceCheck[_from][_nonce] = true;\r\n        emit SubmitTransaction(msg.sender, transactionIndex, _from, _to, _nonce, _value);\r\n        transactionIndex +=1;\r\n    }\r\n\r\n    function confirmTransaction(uint _txIndex) public onlyOwner txExists(_txIndex) notExecuted(_txIndex) notConfirmed(_txIndex) {\r\n\r\n        transactions[_txIndex].numConfirmations += 1;\r\n        isConfirmed[_txIndex][msg.sender] = true;\r\n\r\n        emit ConfirmTransaction(msg.sender, _txIndex);\r\n    }\r\n\r\n    function executeTransaction(uint _txIndex) public onlyOwner txExists(_txIndex) notExecuted(_txIndex) {\r\n\r\n        require(transactions[_txIndex].numConfirmations >= numConfirmationsRequired, \"cannot execute tx\");\r\n        transactions[_txIndex].executed = true;\r\n        uint256 transferAmount = transactions[_txIndex].value;\r\n        purseToken.transfer(transactions[_txIndex].to, transferAmount);\r\n\r\n        emit ExecuteTransaction(msg.sender, _txIndex);\r\n    }\r\n\r\n    function revokeConfirmation(uint _txIndex) public onlyOwner txExists(_txIndex) notExecuted(_txIndex) {\r\n\r\n        require(isConfirmed[_txIndex][msg.sender], \"tx not confirmed\");\r\n\r\n        transactions[_txIndex].numConfirmations -= 1;\r\n        isConfirmed[_txIndex][msg.sender] = false;\r\n\r\n        emit RevokeConfirmation(msg.sender, _txIndex);\r\n    }\r\n\r\n    function getOwners() public view returns (address[] memory) {\r\n        return owners;\r\n    }\r\n\r\n    function getAdmins() public view returns (address[] memory) {\r\n        return admins;\r\n    }\r\n\r\n    function getTransactionCount() public view returns (uint) {\r\n        return transactionIndex;\r\n    }\r\n\r\n    function getTransaction(uint _txIndex) public view returns (address to, uint value, bool executed, uint numConfirmations ) {\r\n        return (\r\n            transactions[_txIndex].to,\r\n            transactions[_txIndex].value,\r\n            transactions[_txIndex].executed,\r\n            transactions[_txIndex].numConfirmations\r\n        );\r\n    }\r\n\r\n    function addAdmins(address _admin) public onlyOwner{\r\n        require(_admin != address(0), \"invalid admin\");\r\n        require(!isAdmin[_admin], \"admin not unique\");\r\n        \r\n        isAdmin[_admin] = true;\r\n        admins.push(_admin);\r\n    }\r\n\r\n    function removeAdmins(uint index) public onlyOwner returns (address[] memory){\r\n        address removeAdmin = admins[index];\r\n        require(index < admins.length, \"invalid index\");\r\n        require(removeAdmin != address(0), \"invalid admin\");\r\n        require(isAdmin[removeAdmin], \"not admin\");\r\n\r\n        for (uint i = index; i<admins.length-1; i++){\r\n            admins[i] = admins[i+1];\r\n        }\r\n        \r\n        admins.pop();\r\n        isAdmin[removeAdmin] = false;\r\n\r\n        return admins;\r\n    }\r\n\r\n    function addOwners(address _owner) public onlyOwner{\r\n        require(_owner != address(0), \"invalid owner\");\r\n        require(!isOwner[_owner], \"owner not unique\");\r\n        \r\n        isOwner[_owner] = true;\r\n        owners.push(_owner);\r\n    }\r\n\r\n    function removeOwners(uint index) public onlyOwner returns (address[] memory){\r\n        address removeOwner = owners[index];\r\n        require(index < owners.length, \"invalid index\");\r\n        require(removeOwner != address(0), \"invalid owner\");\r\n        require(isOwner[removeOwner], \"not owner\");\r\n        \r\n        for (uint i = index; i<owners.length-1; i++){\r\n            owners[i] = owners[i+1];\r\n        }\r\n        owners.pop();\r\n\r\n        isOwner[removeOwner] = false;\r\n        return owners;\r\n    }\r\n\r\n    function returnToken(address _to) public onlyOwner{\r\n        require(_to != address(0), \"send to the zero address\");\r\n        uint256 remainingAmount = purseToken.balanceOf(address(this));\r\n        purseToken.transfer(_to, remainingAmount);\r\n    }\r\n}\r\n",
  "sourcePath": "C:/Users/cheek/Desktop/Developer doc/Visual Studio Code/PundiX/PurseReward/YieldFarm_BridgeEthBsc/src/contracts/NPXSXEMigrationMulSig.sol",
  "compiler": {
    "name": "solc",
    "version": "0.8.3+commit.8d00100c.Emscripten.clang"
  },
  "schemaVersion": "3.2.3",
  "updatedAt": "2021-08-31T07:51:38.296Z",
  "networkType": "ethereum",
  "devdoc": {
    "kind": "dev",
    "methods": {},
    "version": 1
  },
  "userdoc": {
    "kind": "user",
    "methods": {},
    "version": 1
  }
}