{
  "contractName": "NPXSXEMigration",
  "abi": [
    {
      "inputs": [
        {
          "internalType": "contract NPXSXEMToken",
          "name": "_npxsxemToken",
          "type": "address"
        },
        {
          "internalType": "contract PurseToken",
          "name": "_purseToken",
          "type": "address"
        }
      ],
      "stateMutability": "nonpayable",
      "type": "constructor"
    },
    {
      "inputs": [
        {
          "internalType": "address",
          "name": "",
          "type": "address"
        }
      ],
      "name": "migrateCount",
      "outputs": [
        {
          "internalType": "uint256",
          "name": "",
          "type": "uint256"
        }
      ],
      "stateMutability": "view",
      "type": "function",
      "constant": true
    },
    {
      "inputs": [
        {
          "internalType": "address",
          "name": "",
          "type": "address"
        },
        {
          "internalType": "uint256",
          "name": "",
          "type": "uint256"
        },
        {
          "internalType": "uint256",
          "name": "",
          "type": "uint256"
        }
      ],
      "name": "migrator",
      "outputs": [
        {
          "internalType": "uint256",
          "name": "migrateCount",
          "type": "uint256"
        },
        {
          "internalType": "uint256",
          "name": "releaseIteration",
          "type": "uint256"
        },
        {
          "internalType": "uint256",
          "name": "releaseBalance",
          "type": "uint256"
        },
        {
          "internalType": "uint256",
          "name": "unlockTime",
          "type": "uint256"
        },
        {
          "internalType": "bool",
          "name": "isRedeem",
          "type": "bool"
        }
      ],
      "stateMutability": "view",
      "type": "function",
      "constant": true
    },
    {
      "inputs": [],
      "name": "name",
      "outputs": [
        {
          "internalType": "string",
          "name": "",
          "type": "string"
        }
      ],
      "stateMutability": "view",
      "type": "function",
      "constant": true
    },
    {
      "inputs": [],
      "name": "npxsxemToken",
      "outputs": [
        {
          "internalType": "contract NPXSXEMToken",
          "name": "",
          "type": "address"
        }
      ],
      "stateMutability": "view",
      "type": "function",
      "constant": true
    },
    {
      "inputs": [],
      "name": "owner",
      "outputs": [
        {
          "internalType": "address",
          "name": "",
          "type": "address"
        }
      ],
      "stateMutability": "view",
      "type": "function",
      "constant": true
    },
    {
      "inputs": [],
      "name": "purseToken",
      "outputs": [
        {
          "internalType": "contract PurseToken",
          "name": "",
          "type": "address"
        }
      ],
      "stateMutability": "view",
      "type": "function",
      "constant": true
    },
    {
      "inputs": [],
      "name": "releaseDuration",
      "outputs": [
        {
          "internalType": "uint256",
          "name": "",
          "type": "uint256"
        }
      ],
      "stateMutability": "view",
      "type": "function",
      "constant": true
    },
    {
      "inputs": [
        {
          "internalType": "address",
          "name": "",
          "type": "address"
        },
        {
          "internalType": "uint256",
          "name": "",
          "type": "uint256"
        }
      ],
      "name": "releaseIteration",
      "outputs": [
        {
          "internalType": "uint256",
          "name": "",
          "type": "uint256"
        }
      ],
      "stateMutability": "view",
      "type": "function",
      "constant": true
    },
    {
      "inputs": [],
      "name": "validDuration",
      "outputs": [
        {
          "internalType": "uint256",
          "name": "",
          "type": "uint256"
        }
      ],
      "stateMutability": "view",
      "type": "function",
      "constant": true
    },
    {
      "inputs": [
        {
          "internalType": "uint256",
          "name": "_amount",
          "type": "uint256"
        }
      ],
      "name": "migrateNPXSXEM",
      "outputs": [],
      "stateMutability": "nonpayable",
      "type": "function"
    },
    {
      "inputs": [
        {
          "internalType": "uint256",
          "name": "_migrateCount",
          "type": "uint256"
        },
        {
          "internalType": "uint256",
          "name": "_releaseIteration",
          "type": "uint256"
        }
      ],
      "name": "release",
      "outputs": [],
      "stateMutability": "nonpayable",
      "type": "function"
    },
    {
      "inputs": [],
      "name": "releaseAll",
      "outputs": [],
      "stateMutability": "nonpayable",
      "type": "function"
    }
  ],
  "bytecode": "0x60806040526040518060400160405280601181526020017f4e50585358454d204d6967726174696f6e00000000000000000000000000000081525060009080519060200190620000519291906200015c565b5060026004553480156200006457600080fd5b50604051620019b7380380620019b783398181016040528101906200008a91906200023a565b81600160006101000a81548173ffffffffffffffffffffffffffffffffffffffff021916908373ffffffffffffffffffffffffffffffffffffffff16021790555080600260006101000a81548173ffffffffffffffffffffffffffffffffffffffff021916908373ffffffffffffffffffffffffffffffffffffffff16021790555033600360006101000a81548173ffffffffffffffffffffffffffffffffffffffff021916908373ffffffffffffffffffffffffffffffffffffffff16021790555042600581905550505062000370565b8280546200016a90620002d7565b90600052602060002090601f0160209004810192826200018e5760008555620001da565b82601f10620001a957805160ff1916838001178555620001da565b82800160010185558215620001da579182015b82811115620001d9578251825591602001919060010190620001bc565b5b509050620001e99190620001ed565b5090565b5b8082111562000208576000816000905550600101620001ee565b5090565b6000815190506200021d816200033c565b92915050565b600081519050620002348162000356565b92915050565b600080604083850312156200024e57600080fd5b60006200025e858286016200020c565b9250506020620002718582860162000223565b9150509250929050565b60006200028882620002b7565b9050919050565b60006200029c826200027b565b9050919050565b6000620002b0826200027b565b9050919050565b600073ffffffffffffffffffffffffffffffffffffffff82169050919050565b60006002820490506001821680620002f057607f821691505b602082108114156200030757620003066200030d565b5b50919050565b7f4e487b7100000000000000000000000000000000000000000000000000000000600052602260045260246000fd5b62000347816200028f565b81146200035357600080fd5b50565b6200036181620002a3565b81146200036d57600080fd5b50565b61163780620003806000396000f3fe608060405234801561001057600080fd5b50600436106100b45760003560e01c80635be7fde8116100715780635be7fde81461017d578063714443ac1461018757806384fe8cbf146101bb5780638da5cb5b146101d7578063b9f015cd146101f5578063f9b4189114610225576100b4565b806306fdde03146100b957806324482858146100d75780632948ff41146100f5578063366a41201461011357806351bf16ef1461012f578063575f71601461014d575b600080fd5b6100c1610243565b6040516100ce91906111d3565b60405180910390f35b6100df6102d1565b6040516100ec919061119d565b60405180910390f35b6100fd6102f7565b60405161010a9190611275565b60405180910390f35b61012d60048036038101906101289190610f99565b6102fe565b005b610137610613565b60405161014491906111b8565b60405180910390f35b61016760048036038101906101629190610ebc565b610639565b6040516101749190611275565b60405180910390f35b61018561065e565b005b6101a1600480360381019061019c9190610ef8565b61098d565b6040516101b2959493929190611290565b60405180910390f35b6101d560048036038101906101d09190610f70565b6109ea565b005b6101df610e11565b6040516101ec9190611159565b60405180910390f35b61020f600480360381019061020a9190610e93565b610e37565b60405161021c9190611275565b60405180910390f35b61022d610e4f565b60405161023a9190611275565b60405180910390f35b60008054610250906114a3565b80601f016020809104026020016040519081016040528092919081815260200182805461027c906114a3565b80156102c95780601f1061029e576101008083540402835291602001916102c9565b820191906000526020600020905b8154815290600101906020018083116102ac57829003601f168201915b505050505081565b600160009054906101000a900473ffffffffffffffffffffffffffffffffffffffff1681565b6203f48081565b600860003373ffffffffffffffffffffffffffffffffffffffff1673ffffffffffffffffffffffffffffffffffffffff16815260200190815260200160002060008381526020019081526020016000206000828152602001908152602001600020600301544210156103a5576040517f08c379a000000000000000000000000000000000000000000000000000000000815260040161039c906111f5565b60405180910390fd5b60011515600860003373ffffffffffffffffffffffffffffffffffffffff1673ffffffffffffffffffffffffffffffffffffffff1681526020019081526020016000206000848152602001908152602001600020600083815260200190815260200160002060040160009054906101000a900460ff1615151461045d576040517f08c379a000000000000000000000000000000000000000000000000000000000815260040161045490611215565b60405180910390fd5b6000600454600860003373ffffffffffffffffffffffffffffffffffffffff1673ffffffffffffffffffffffffffffffffffffffff16815260200190815260200160002060008581526020019081526020016000206000848152602001908152602001600020600201546104d19190611386565b905060008110156104e157600080fd5b6000600860003373ffffffffffffffffffffffffffffffffffffffff1673ffffffffffffffffffffffffffffffffffffffff1681526020019081526020016000206000858152602001908152602001600020600084815260200190815260200160002060040160006101000a81548160ff021916908315150217905550600260009054906101000a900473ffffffffffffffffffffffffffffffffffffffff1673ffffffffffffffffffffffffffffffffffffffff1663a9059cbb33836040518363ffffffff1660e01b81526004016105bb929190611174565b602060405180830381600087803b1580156105d557600080fd5b505af11580156105e9573d6000803e3d6000fd5b505050506040513d601f19601f8201168201806040525081019061060d9190610f47565b50505050565b600260009054906101000a900473ffffffffffffffffffffffffffffffffffffffff1681565b6007602052816000526040600020602052806000526040600020600091509150505481565b600080600190505b600660003373ffffffffffffffffffffffffffffffffffffffff1673ffffffffffffffffffffffffffffffffffffffff1681526020019081526020016000205481116108d0576000600190505b600c8110156108bc57600860003373ffffffffffffffffffffffffffffffffffffffff1673ffffffffffffffffffffffffffffffffffffffff168152602001908152602001600020600083815260200190815260200160002060008281526020019081526020016000206003015442106108a95760011515600860003373ffffffffffffffffffffffffffffffffffffffff1673ffffffffffffffffffffffffffffffffffffffff1681526020019081526020016000206000848152602001908152602001600020600083815260200190815260200160002060040160009054906101000a900460ff16151514156108a8576000600454600860003373ffffffffffffffffffffffffffffffffffffffff1673ffffffffffffffffffffffffffffffffffffffff16815260200190815260200160002060008581526020019081526020016000206000848152602001908152602001600020600201546108199190611386565b90506000600860003373ffffffffffffffffffffffffffffffffffffffff1673ffffffffffffffffffffffffffffffffffffffff1681526020019081526020016000206000858152602001908152602001600020600084815260200190815260200160002060040160006101000a81548160ff02191690831515021790555080846108a491906112ff565b9350505b5b80806108b4906114d5565b9150506106b3565b5080806108c8906114d5565b915050610666565b506000811061098a57600260009054906101000a900473ffffffffffffffffffffffffffffffffffffffff1673ffffffffffffffffffffffffffffffffffffffff1663a9059cbb33836040518363ffffffff1660e01b8152600401610936929190611174565b602060405180830381600087803b15801561095057600080fd5b505af1158015610964573d6000803e3d6000fd5b505050506040513d601f19601f820116820180604052508101906109889190610f47565b505b50565b600860205282600052604060002060205281600052604060002060205280600052604060002060009250925050508060000154908060010154908060020154908060030154908060040160009054906101000a900460ff16905085565b60006203f4806005546109fd91906112ff565b90506000821015610a43576040517f08c379a0000000000000000000000000000000000000000000000000000000008152600401610a3a90611255565b60405180910390fd5b80421115610a86576040517f08c379a0000000000000000000000000000000000000000000000000000000008152600401610a7d90611235565b60405180910390fd5b6001600660003373ffffffffffffffffffffffffffffffffffffffff1673ffffffffffffffffffffffffffffffffffffffff1681526020019081526020016000206000828254610ad691906112ff565b92505081905550600b600760003373ffffffffffffffffffffffffffffffffffffffff1673ffffffffffffffffffffffffffffffffffffffff1681526020019081526020016000206000600660003373ffffffffffffffffffffffffffffffffffffffff1673ffffffffffffffffffffffffffffffffffffffff1681526020019081526020016000205481526020019081526020016000208190555060006064600c60045485610b869190611386565b610b909190611386565b610b9a9190611355565b9050600260009054906101000a900473ffffffffffffffffffffffffffffffffffffffff1673ffffffffffffffffffffffffffffffffffffffff1663a9059cbb33836040518363ffffffff1660e01b8152600401610bf9929190611174565b602060405180830381600087803b158015610c1357600080fd5b505af1158015610c27573d6000803e3d6000fd5b505050506040513d601f19601f82011682018060405250810190610c4b9190610f47565b5060006064600860045486610c609190611386565b610c6a9190611386565b610c749190611355565b90506000600190505b600c811015610e0a57600081603c610c959190611386565b42610ca091906112ff565b90506040518060a00160405280600660003373ffffffffffffffffffffffffffffffffffffffff1673ffffffffffffffffffffffffffffffffffffffff16815260200190815260200160002054815260200183815260200184815260200182815260200160011515815250600860003373ffffffffffffffffffffffffffffffffffffffff1673ffffffffffffffffffffffffffffffffffffffff1681526020019081526020016000206000600660003373ffffffffffffffffffffffffffffffffffffffff1673ffffffffffffffffffffffffffffffffffffffff16815260200190815260200160002054815260200190815260200160002060008481526020019081526020016000206000820151816000015560208201518160010155604082015181600201556060820151816003015560808201518160040160006101000a81548160ff021916908315150217905550905050508080610e02906114d5565b915050610c7d565b5050505050565b600360009054906101000a900473ffffffffffffffffffffffffffffffffffffffff1681565b60066020528060005260406000206000915090505481565b603c81565b600081359050610e63816115bc565b92915050565b600081519050610e78816115d3565b92915050565b600081359050610e8d816115ea565b92915050565b600060208284031215610ea557600080fd5b6000610eb384828501610e54565b91505092915050565b60008060408385031215610ecf57600080fd5b6000610edd85828601610e54565b9250506020610eee85828601610e7e565b9150509250929050565b600080600060608486031215610f0d57600080fd5b6000610f1b86828701610e54565b9350506020610f2c86828701610e7e565b9250506040610f3d86828701610e7e565b9150509250925092565b600060208284031215610f5957600080fd5b6000610f6784828501610e69565b91505092915050565b600060208284031215610f8257600080fd5b6000610f9084828501610e7e565b91505092915050565b60008060408385031215610fac57600080fd5b6000610fba85828601610e7e565b9250506020610fcb85828601610e7e565b9150509250929050565b610fde816113e0565b82525050565b610fed816113f2565b82525050565b610ffc81611428565b82525050565b61100b8161144c565b82525050565b600061101c826112e3565b61102681856112ee565b9350611036818560208601611470565b61103f816115ab565b840191505092915050565b6000611057600d836112ee565b91507f6c6f636b656420706572696f64000000000000000000000000000000000000006000830152602082019050919050565b60006110976010836112ee565b91507f68617665206265656e2072656465656d000000000000000000000000000000006000830152602082019050919050565b60006110d76015836112ee565b91507f4d6967726174696f6e2077696e646f77206f76657200000000000000000000006000830152602082019050919050565b60006111176012836112ee565b91507f616d6f756e74206c657373207468616e203000000000000000000000000000006000830152602082019050919050565b6111538161141e565b82525050565b600060208201905061116e6000830184610fd5565b92915050565b60006040820190506111896000830185610fd5565b611196602083018461114a565b9392505050565b60006020820190506111b26000830184610ff3565b92915050565b60006020820190506111cd6000830184611002565b92915050565b600060208201905081810360008301526111ed8184611011565b905092915050565b6000602082019050818103600083015261120e8161104a565b9050919050565b6000602082019050818103600083015261122e8161108a565b9050919050565b6000602082019050818103600083015261124e816110ca565b9050919050565b6000602082019050818103600083015261126e8161110a565b9050919050565b600060208201905061128a600083018461114a565b92915050565b600060a0820190506112a5600083018861114a565b6112b2602083018761114a565b6112bf604083018661114a565b6112cc606083018561114a565b6112d96080830184610fe4565b9695505050505050565b600081519050919050565b600082825260208201905092915050565b600061130a8261141e565b91506113158361141e565b9250827fffffffffffffffffffffffffffffffffffffffffffffffffffffffffffffffff0382111561134a5761134961151e565b5b828201905092915050565b60006113608261141e565b915061136b8361141e565b92508261137b5761137a61154d565b5b828204905092915050565b60006113918261141e565b915061139c8361141e565b9250817fffffffffffffffffffffffffffffffffffffffffffffffffffffffffffffffff04831182151516156113d5576113d461151e565b5b828202905092915050565b60006113eb826113fe565b9050919050565b60008115159050919050565b600073ffffffffffffffffffffffffffffffffffffffff82169050919050565b6000819050919050565b60006114338261143a565b9050919050565b6000611445826113fe565b9050919050565b60006114578261145e565b9050919050565b6000611469826113fe565b9050919050565b60005b8381101561148e578082015181840152602081019050611473565b8381111561149d576000848401525b50505050565b600060028204905060018216806114bb57607f821691505b602082108114156114cf576114ce61157c565b5b50919050565b60006114e08261141e565b91507fffffffffffffffffffffffffffffffffffffffffffffffffffffffffffffffff8214156115135761151261151e565b5b600182019050919050565b7f4e487b7100000000000000000000000000000000000000000000000000000000600052601160045260246000fd5b7f4e487b7100000000000000000000000000000000000000000000000000000000600052601260045260246000fd5b7f4e487b7100000000000000000000000000000000000000000000000000000000600052602260045260246000fd5b6000601f19601f8301169050919050565b6115c5816113e0565b81146115d057600080fd5b50565b6115dc816113f2565b81146115e757600080fd5b50565b6115f38161141e565b81146115fe57600080fd5b5056fea26469706673582212202aebc85ff841359aec03c16a522cd1816905e1a7079798ec8c68015d179c129f64736f6c63430008000033",
  "immutableReferences": {},
  "source": "pragma solidity ^0.8.0;\r\n\r\nimport \"./NPXSXEMToken.sol\";\r\nimport \"./PurseToken.sol\";\r\n\r\ncontract NPXSXEMigration {\r\n    string public name = \"NPXSXEM Migration\";\r\n    NPXSXEMToken public npxsxemToken;\r\n    PurseToken public purseToken;\r\n    address public owner;\r\n    uint256 public constant validDuration = 3 days;\r\n    uint256 public constant releaseDuration = 1 minutes;\r\n    uint256 internal tokenBurnRate = 2;\r\n    uint256 internal migrationStart;\r\n\r\n    mapping(address => uint256) public migrateCount;\r\n    mapping(address => mapping (uint256 => uint256)) public releaseIteration;\r\n    mapping(address => mapping (uint256 => mapping (uint256 => migratorInfo))) public migrator;  //address->index->times   \r\n\r\n    struct migratorInfo {\r\n        uint256 migrateCount;\r\n        uint256 releaseIteration;\r\n        uint256 releaseBalance;\r\n        uint256 unlockTime;\r\n        bool isRedeem;\r\n    }\r\n\r\n    constructor(NPXSXEMToken _npxsxemToken, PurseToken _purseToken) public {\r\n        npxsxemToken = _npxsxemToken;\r\n        purseToken = _purseToken;\r\n        owner = msg.sender;\r\n        migrationStart = block.timestamp;\r\n    }\r\n\r\n    function migrateNPXSXEM(uint256 _amount) public {\r\n        uint256 end = migrationStart + validDuration;\r\n        require(_amount >= 0, 'amount less than 0');\r\n        require(block.timestamp <= end, \"Migration window over\");\r\n        migrateCount[msg.sender] += 1;\r\n        releaseIteration[msg.sender][migrateCount[msg.sender]] = 11;\r\n        uint256 transferAmount = (_amount * tokenBurnRate * 12) / 100;\r\n        purseToken.transfer(msg.sender, transferAmount);\r\n        uint256 releaseBalance = (_amount * tokenBurnRate * 8) / 100;\r\n\r\n        for (uint256 i = 1; i < 12; i++) {\r\n            uint256 unlockTimeStamp = block.timestamp + (releaseDuration*i);\r\n            migrator[msg.sender][migrateCount[msg.sender]][i] = migratorInfo(migrateCount[msg.sender],i, releaseBalance, unlockTimeStamp, true);\r\n        }\r\n    }\r\n\r\n    // notice Transfers tokens held by timelock to beneficiary.\r\n    function release(uint256 _migrateCount, uint256 _releaseIteration) public {\r\n        require(block.timestamp >= migrator[msg.sender][_migrateCount][_releaseIteration].unlockTime, 'locked period');\r\n        require(migrator[msg.sender][_migrateCount][_releaseIteration].isRedeem == true, 'have been redeem');\r\n\r\n        uint256 migrateAmount = (migrator[msg.sender][_migrateCount][_releaseIteration].releaseBalance * tokenBurnRate);\r\n        require(migrateAmount >= 0);\r\n        migrator[msg.sender][_migrateCount][_releaseIteration].isRedeem = false;\r\n        purseToken.transfer(msg.sender, migrateAmount);\r\n    }\r\n\r\n    // notice Transfers tokens held by timelock to beneficiary.\r\n    function releaseAll() public {\r\n        uint256 claimAmount = 0;\r\n        for (uint256 c = 1; c <= migrateCount[msg.sender]; c++){\r\n            for (uint256 i = 1; i < 12; i++) {\r\n                if (block.timestamp >= migrator[msg.sender][c][i].unlockTime) {\r\n                    if (migrator[msg.sender][c][i].isRedeem == true) {\r\n                        uint256 migrateAmount = (migrator[msg.sender][c][i].releaseBalance * tokenBurnRate);\r\n                        migrator[msg.sender][c][i].isRedeem = false;\r\n                        claimAmount += migrateAmount;\r\n                    }\r\n                }\r\n            }\r\n        }\r\n        if (claimAmount >= 0) {\r\n            purseToken.transfer(msg.sender, claimAmount);\r\n        }        \r\n    }\r\n}\r\n",
  "sourcePath": "C:/Users/cheek/Desktop/Developer doc/Visual Studio Code/PundiX/PurseReward/YieldFarm_BridgeEthBsc/src/contracts/NPXSXEMigration.sol",
  "compiler": {
    "name": "solc",
    "version": "0.8.0+commit.c7dfd78e.Emscripten.clang"
  },
  "schemaVersion": "3.3.4",
  "updatedAt": "2021-08-10T11:57:39.277Z",
  "networkType": "ethereum",
  "devdoc": {
    "kind": "dev",
    "methods": {},
    "version": 1
  },
  "userdoc": {
    "kind": "user",
    "methods": {},
    "version": 1
  }
}