{
  "contractName": "NPXSXEMigrationMulSig",
  "abi": [
    {
      "inputs": [
        {
          "internalType": "contract PurseTokenMultiSigUpgradable",
          "name": "_purseToken",
          "type": "address"
        },
        {
          "internalType": "address[]",
          "name": "_owners",
          "type": "address[]"
        },
        {
          "internalType": "address[]",
          "name": "_admins",
          "type": "address[]"
        },
        {
          "internalType": "uint256",
          "name": "_numConfirmationsRequired",
          "type": "uint256"
        }
      ],
      "stateMutability": "nonpayable",
      "type": "constructor"
    },
    {
      "anonymous": false,
      "inputs": [
        {
          "indexed": true,
          "internalType": "address",
          "name": "owner",
          "type": "address"
        },
        {
          "indexed": true,
          "internalType": "uint256",
          "name": "txIndex",
          "type": "uint256"
        }
      ],
      "name": "ConfirmTransaction",
      "type": "event"
    },
    {
      "anonymous": false,
      "inputs": [
        {
          "indexed": true,
          "internalType": "address",
          "name": "owner",
          "type": "address"
        },
        {
          "indexed": true,
          "internalType": "uint256",
          "name": "txIndex",
          "type": "uint256"
        }
      ],
      "name": "ExecuteTransaction",
      "type": "event"
    },
    {
      "anonymous": false,
      "inputs": [
        {
          "indexed": true,
          "internalType": "address",
          "name": "owner",
          "type": "address"
        },
        {
          "indexed": true,
          "internalType": "uint256",
          "name": "txIndex",
          "type": "uint256"
        }
      ],
      "name": "RevokeConfirmation",
      "type": "event"
    },
    {
      "anonymous": false,
      "inputs": [
        {
          "indexed": true,
          "internalType": "address",
          "name": "owner",
          "type": "address"
        },
        {
          "indexed": true,
          "internalType": "uint256",
          "name": "txIndex",
          "type": "uint256"
        },
        {
          "indexed": true,
          "internalType": "address",
          "name": "to",
          "type": "address"
        },
        {
          "indexed": false,
          "internalType": "uint256",
          "name": "value",
          "type": "uint256"
        }
      ],
      "name": "SubmitTransaction",
      "type": "event"
    },
    {
      "inputs": [
        {
          "internalType": "uint256",
          "name": "",
          "type": "uint256"
        }
      ],
      "name": "admins",
      "outputs": [
        {
          "internalType": "address",
          "name": "",
          "type": "address"
        }
      ],
      "stateMutability": "view",
      "type": "function",
      "constant": true
    },
    {
      "inputs": [
        {
          "internalType": "address",
          "name": "",
          "type": "address"
        }
      ],
      "name": "isAdmin",
      "outputs": [
        {
          "internalType": "bool",
          "name": "",
          "type": "bool"
        }
      ],
      "stateMutability": "view",
      "type": "function",
      "constant": true
    },
    {
      "inputs": [
        {
          "internalType": "uint256",
          "name": "",
          "type": "uint256"
        },
        {
          "internalType": "address",
          "name": "",
          "type": "address"
        }
      ],
      "name": "isConfirmed",
      "outputs": [
        {
          "internalType": "bool",
          "name": "",
          "type": "bool"
        }
      ],
      "stateMutability": "view",
      "type": "function",
      "constant": true
    },
    {
      "inputs": [
        {
          "internalType": "address",
          "name": "",
          "type": "address"
        }
      ],
      "name": "isOwner",
      "outputs": [
        {
          "internalType": "bool",
          "name": "",
          "type": "bool"
        }
      ],
      "stateMutability": "view",
      "type": "function",
      "constant": true
    },
    {
      "inputs": [],
      "name": "name",
      "outputs": [
        {
          "internalType": "string",
          "name": "",
          "type": "string"
        }
      ],
      "stateMutability": "view",
      "type": "function",
      "constant": true
    },
    {
      "inputs": [],
      "name": "numConfirmationsRequired",
      "outputs": [
        {
          "internalType": "uint256",
          "name": "",
          "type": "uint256"
        }
      ],
      "stateMutability": "view",
      "type": "function",
      "constant": true
    },
    {
      "inputs": [
        {
          "internalType": "uint256",
          "name": "",
          "type": "uint256"
        }
      ],
      "name": "owners",
      "outputs": [
        {
          "internalType": "address",
          "name": "",
          "type": "address"
        }
      ],
      "stateMutability": "view",
      "type": "function",
      "constant": true
    },
    {
      "inputs": [],
      "name": "purseToken",
      "outputs": [
        {
          "internalType": "contract PurseTokenMultiSigUpgradable",
          "name": "",
          "type": "address"
        }
      ],
      "stateMutability": "view",
      "type": "function",
      "constant": true
    },
    {
      "inputs": [],
      "name": "transactionIndex",
      "outputs": [
        {
          "internalType": "uint256",
          "name": "",
          "type": "uint256"
        }
      ],
      "stateMutability": "view",
      "type": "function",
      "constant": true
    },
    {
      "inputs": [
        {
          "internalType": "uint256",
          "name": "",
          "type": "uint256"
        }
      ],
      "name": "transactions",
      "outputs": [
        {
          "internalType": "address",
          "name": "to",
          "type": "address"
        },
        {
          "internalType": "uint256",
          "name": "value",
          "type": "uint256"
        },
        {
          "internalType": "bool",
          "name": "executed",
          "type": "bool"
        },
        {
          "internalType": "uint256",
          "name": "numConfirmations",
          "type": "uint256"
        }
      ],
      "stateMutability": "view",
      "type": "function",
      "constant": true
    },
    {
      "inputs": [
        {
          "internalType": "uint256",
          "name": "",
          "type": "uint256"
        }
      ],
      "name": "txExist",
      "outputs": [
        {
          "internalType": "bool",
          "name": "",
          "type": "bool"
        }
      ],
      "stateMutability": "view",
      "type": "function",
      "constant": true
    },
    {
      "inputs": [
        {
          "internalType": "address",
          "name": "_to",
          "type": "address"
        },
        {
          "internalType": "uint256",
          "name": "_value",
          "type": "uint256"
        }
      ],
      "name": "submitTransaction",
      "outputs": [],
      "stateMutability": "nonpayable",
      "type": "function"
    },
    {
      "inputs": [
        {
          "internalType": "uint256",
          "name": "_txIndex",
          "type": "uint256"
        }
      ],
      "name": "confirmTransaction",
      "outputs": [],
      "stateMutability": "nonpayable",
      "type": "function"
    },
    {
      "inputs": [
        {
          "internalType": "uint256",
          "name": "_txIndex",
          "type": "uint256"
        }
      ],
      "name": "executeTransaction",
      "outputs": [],
      "stateMutability": "nonpayable",
      "type": "function"
    },
    {
      "inputs": [
        {
          "internalType": "uint256",
          "name": "_txIndex",
          "type": "uint256"
        }
      ],
      "name": "revokeConfirmation",
      "outputs": [],
      "stateMutability": "nonpayable",
      "type": "function"
    },
    {
      "inputs": [],
      "name": "getOwners",
      "outputs": [
        {
          "internalType": "address[]",
          "name": "",
          "type": "address[]"
        }
      ],
      "stateMutability": "view",
      "type": "function",
      "constant": true
    },
    {
      "inputs": [],
      "name": "getAdmins",
      "outputs": [
        {
          "internalType": "address[]",
          "name": "",
          "type": "address[]"
        }
      ],
      "stateMutability": "view",
      "type": "function",
      "constant": true
    },
    {
      "inputs": [],
      "name": "getTransactionCount",
      "outputs": [
        {
          "internalType": "uint256",
          "name": "",
          "type": "uint256"
        }
      ],
      "stateMutability": "view",
      "type": "function",
      "constant": true
    },
    {
      "inputs": [
        {
          "internalType": "uint256",
          "name": "_txIndex",
          "type": "uint256"
        }
      ],
      "name": "getTransaction",
      "outputs": [
        {
          "internalType": "address",
          "name": "to",
          "type": "address"
        },
        {
          "internalType": "uint256",
          "name": "value",
          "type": "uint256"
        },
        {
          "internalType": "bool",
          "name": "executed",
          "type": "bool"
        },
        {
          "internalType": "uint256",
          "name": "numConfirmations",
          "type": "uint256"
        }
      ],
      "stateMutability": "view",
      "type": "function",
      "constant": true
    },
    {
      "inputs": [
        {
          "internalType": "address",
          "name": "_admin",
          "type": "address"
        }
      ],
      "name": "addAdmins",
      "outputs": [],
      "stateMutability": "nonpayable",
      "type": "function"
    },
    {
      "inputs": [
        {
          "internalType": "uint256",
          "name": "index",
          "type": "uint256"
        }
      ],
      "name": "removeAdmins",
      "outputs": [
        {
          "internalType": "address[]",
          "name": "",
          "type": "address[]"
        }
      ],
      "stateMutability": "nonpayable",
      "type": "function"
    },
    {
      "inputs": [
        {
          "internalType": "address",
          "name": "_owner",
          "type": "address"
        }
      ],
      "name": "addOwners",
      "outputs": [],
      "stateMutability": "nonpayable",
      "type": "function"
    },
    {
      "inputs": [
        {
          "internalType": "uint256",
          "name": "index",
          "type": "uint256"
        }
      ],
      "name": "removeOwners",
      "outputs": [
        {
          "internalType": "address[]",
          "name": "",
          "type": "address[]"
        }
      ],
      "stateMutability": "nonpayable",
      "type": "function"
    }
  ],
  "bytecode": "0x60806040526040518060400160405280601181526020017f4e50585358454d204d6967726174696f6e00000000000000000000000000000081525060009080519060200190620000519291906200060f565b50600280553480156200006357600080fd5b5060405162003b0938038062003b098339818101604052810190620000899190620007a6565b6000835111620000d0576040517f08c379a0000000000000000000000000000000000000000000000000000000008152600401620000c79062000977565b60405180910390fd5b600082511162000117576040517f08c379a00000000000000000000000000000000000000000000000000000000081526004016200010e90620009bb565b60405180910390fd5b60008111801562000129575082518111155b6200016b576040517f08c379a0000000000000000000000000000000000000000000000000000000008152600401620001629062000a21565b60405180910390fd5b60005b835181101562000393576000848281518110620001b4577f4e487b7100000000000000000000000000000000000000000000000000000000600052603260045260246000fd5b60200260200101519050600073ffffffffffffffffffffffffffffffffffffffff168173ffffffffffffffffffffffffffffffffffffffff16141562000231576040517f08c379a00000000000000000000000000000000000000000000000000000000081526004016200022890620009dd565b60405180910390fd5b600760008273ffffffffffffffffffffffffffffffffffffffff1673ffffffffffffffffffffffffffffffffffffffff16815260200190815260200160002060009054906101000a900460ff1615620002c1576040517f08c379a0000000000000000000000000000000000000000000000000000000008152600401620002b89062000955565b60405180910390fd5b6001600760008373ffffffffffffffffffffffffffffffffffffffff1673ffffffffffffffffffffffffffffffffffffffff16815260200190815260200160002060006101000a81548160ff0219169083151502179055506005819080600181540180825580915050600190039060005260206000200160009091909190916101000a81548173ffffffffffffffffffffffffffffffffffffffff021916908373ffffffffffffffffffffffffffffffffffffffff1602179055505080806200038a9062000b6a565b9150506200016e565b5060005b8251811015620005bc576000838281518110620003dd577f4e487b7100000000000000000000000000000000000000000000000000000000600052603260045260246000fd5b60200260200101519050600073ffffffffffffffffffffffffffffffffffffffff168173ffffffffffffffffffffffffffffffffffffffff1614156200045a576040517f08c379a00000000000000000000000000000000000000000000000000000000081526004016200045190620009ff565b60405180910390fd5b600860008273ffffffffffffffffffffffffffffffffffffffff1673ffffffffffffffffffffffffffffffffffffffff16815260200190815260200160002060009054906101000a900460ff1615620004ea576040517f08c379a0000000000000000000000000000000000000000000000000000000008152600401620004e19062000999565b60405180910390fd5b6001600860008373ffffffffffffffffffffffffffffffffffffffff1673ffffffffffffffffffffffffffffffffffffffff16815260200190815260200160002060006101000a81548160ff0219169083151502179055506006819080600181540180825580915050600190039060005260206000200160009091909190916101000a81548173ffffffffffffffffffffffffffffffffffffffff021916908373ffffffffffffffffffffffffffffffffffffffff160217905550508080620005b39062000b6a565b91505062000397565b5083600160006101000a81548173ffffffffffffffffffffffffffffffffffffffff021916908373ffffffffffffffffffffffffffffffffffffffff160217905550806003819055505050505062000de9565b8280546200061d9062000afe565b90600052602060002090601f0160209004810192826200064157600085556200068d565b82601f106200065c57805160ff19168380011785556200068d565b828001600101855582156200068d579182015b828111156200068c5782518255916020019190600101906200066f565b5b5090506200069c9190620006a0565b5090565b5b80821115620006bb576000816000905550600101620006a1565b5090565b6000620006d6620006d08462000a6c565b62000a43565b90508083825260208201905082856020860282011115620006f657600080fd5b60005b858110156200072a57816200070f888262000734565b845260208401935060208301925050600181019050620006f9565b5050509392505050565b600081519050620007458162000d9b565b92915050565b600082601f8301126200075d57600080fd5b81516200076f848260208601620006bf565b91505092915050565b600081519050620007898162000db5565b92915050565b600081519050620007a08162000dcf565b92915050565b60008060008060808587031215620007bd57600080fd5b6000620007cd8782880162000778565b945050602085015167ffffffffffffffff811115620007eb57600080fd5b620007f9878288016200074b565b935050604085015167ffffffffffffffff8111156200081757600080fd5b62000825878288016200074b565b925050606062000838878288016200078f565b91505092959194509250565b60006200085360108362000a9b565b9150620008608262000c56565b602082019050919050565b60006200087a600f8362000a9b565b9150620008878262000c7f565b602082019050919050565b6000620008a160108362000a9b565b9150620008ae8262000ca8565b602082019050919050565b6000620008c8600f8362000a9b565b9150620008d58262000cd1565b602082019050919050565b6000620008ef600d8362000a9b565b9150620008fc8262000cfa565b602082019050919050565b600062000916600d8362000a9b565b9150620009238262000d23565b602082019050919050565b60006200093d60288362000a9b565b91506200094a8262000d4c565b604082019050919050565b60006020820190508181036000830152620009708162000844565b9050919050565b6000602082019050818103600083015262000992816200086b565b9050919050565b60006020820190508181036000830152620009b48162000892565b9050919050565b60006020820190508181036000830152620009d681620008b9565b9050919050565b60006020820190508181036000830152620009f881620008e0565b9050919050565b6000602082019050818103600083015262000a1a8162000907565b9050919050565b6000602082019050818103600083015262000a3c816200092e565b9050919050565b600062000a4f62000a62565b905062000a5d828262000b34565b919050565b6000604051905090565b600067ffffffffffffffff82111562000a8a5762000a8962000c16565b5b602082029050602081019050919050565b600082825260208201905092915050565b600062000ab98262000ad4565b9050919050565b600062000acd8262000aac565b9050919050565b600073ffffffffffffffffffffffffffffffffffffffff82169050919050565b6000819050919050565b6000600282049050600182168062000b1757607f821691505b6020821081141562000b2e5762000b2d62000be7565b5b50919050565b62000b3f8262000c45565b810181811067ffffffffffffffff8211171562000b615762000b6062000c16565b5b80604052505050565b600062000b778262000af4565b91507fffffffffffffffffffffffffffffffffffffffffffffffffffffffffffffffff82141562000bad5762000bac62000bb8565b5b600182019050919050565b7f4e487b7100000000000000000000000000000000000000000000000000000000600052601160045260246000fd5b7f4e487b7100000000000000000000000000000000000000000000000000000000600052602260045260246000fd5b7f4e487b7100000000000000000000000000000000000000000000000000000000600052604160045260246000fd5b6000601f19601f8301169050919050565b7f6f776e6572206e6f7420756e6971756500000000000000000000000000000000600082015250565b7f6f776e6572732072657175697265640000000000000000000000000000000000600082015250565b7f61646d696e206e6f7420756e6971756500000000000000000000000000000000600082015250565b7f61646d696e732072657175697265640000000000000000000000000000000000600082015250565b7f696e76616c6964206f776e657200000000000000000000000000000000000000600082015250565b7f696e76616c69642061646d696e00000000000000000000000000000000000000600082015250565b7f696e76616c6964206e756d626572206f6620726571756972656420636f6e666960008201527f726d6174696f6e73000000000000000000000000000000000000000000000000602082015250565b62000da68162000aac565b811462000db257600080fd5b50565b62000dc08162000ac0565b811462000dcc57600080fd5b50565b62000dda8162000af4565b811462000de657600080fd5b50565b612d108062000df96000396000f3fe608060405234801561001057600080fd5b506004361061014d5760003560e01c806354a45c91116100c3578063b8220f6a1161007c578063b8220f6a146103f2578063c01a8c8414610410578063d030db6a1461042c578063d0549b851461045c578063e304f6ee1461047a578063ee22610b146104965761014d565b806354a45c91146102f55780635f3b1f3b146103255780637bb88c891461034157806380f59a65146103715780639ace38c2146103a1578063a0e67e2b146103d45761014d565b806324d7806c1161011557806324d7806c146102085780632e7700f0146102385780632f54bf6e1461025657806331ae450b1461028657806333ea3dc8146102a457806351bf16ef146102d75761014d565b8063025e7c271461015257806306fdde031461018257806314bfd6d0146101a05780631d43b653146101d057806320ea8d86146101ec575b600080fd5b61016c60048036038101906101679190612246565b6104b2565b6040516101799190612549565b60405180910390f35b61018a6104f1565b604051610197919061262a565b60405180910390f35b6101ba60048036038101906101b59190612246565b61057f565b6040516101c79190612549565b60405180910390f35b6101ea60048036038101906101e591906121e1565b6105be565b005b61020660048036038101906102019190612246565b6107cc565b005b610222600480360381019061021d91906121b8565b610a9b565b60405161022f91906125f4565b60405180910390f35b610240610abb565b60405161024d91906127cc565b60405180910390f35b610270600480360381019061026b91906121b8565b610ac5565b60405161027d91906125f4565b60405180910390f35b61028e610ae5565b60405161029b91906125d2565b60405180910390f35b6102be60048036038101906102b99190612246565b610b73565b6040516102ce949392919061258d565b60405180910390f35b6102df610c11565b6040516102ec919061260f565b60405180910390f35b61030f600480360381019061030a9190612246565b610c37565b60405161031c91906125d2565b60405180910390f35b61033f600480360381019061033a91906121b8565b6110eb565b005b61035b60048036038101906103569190612246565b611332565b60405161036891906125f4565b60405180910390f35b61038b6004803603810190610386919061226f565b611352565b60405161039891906125f4565b60405180910390f35b6103bb60048036038101906103b69190612246565b611381565b6040516103cb949392919061258d565b60405180910390f35b6103dc6113de565b6040516103e991906125d2565b60405180910390f35b6103fa61146c565b60405161040791906127cc565b60405180910390f35b61042a60048036038101906104259190612246565b611472565b005b61044660048036038101906104419190612246565b611744565b60405161045391906125d2565b60405180910390f35b610464611bf8565b60405161047191906127cc565b60405180910390f35b610494600480360381019061048f91906121b8565b611bfe565b005b6104b060048036038101906104ab9190612246565b611e45565b005b600581815481106104c257600080fd5b906000526020600020016000915054906101000a900473ffffffffffffffffffffffffffffffffffffffff1681565b600080546104fe906129bf565b80601f016020809104026020016040519081016040528092919081815260200182805461052a906129bf565b80156105775780601f1061054c57610100808354040283529160200191610577565b820191906000526020600020905b81548152906001019060200180831161055a57829003601f168201915b505050505081565b6006818154811061058f57600080fd5b906000526020600020016000915054906101000a900473ffffffffffffffffffffffffffffffffffffffff1681565b600860003373ffffffffffffffffffffffffffffffffffffffff1673ffffffffffffffffffffffffffffffffffffffff16815260200190815260200160002060009054906101000a900460ff1661064a576040517f08c379a00000000000000000000000000000000000000000000000000000000081526004016106419061274c565b60405180910390fd5b60405180608001604052808373ffffffffffffffffffffffffffffffffffffffff1681526020018281526020016000151581526020016000815250600b6000600454815260200190815260200160002060008201518160000160006101000a81548173ffffffffffffffffffffffffffffffffffffffff021916908373ffffffffffffffffffffffffffffffffffffffff1602179055506020820151816001015560408201518160020160006101000a81548160ff021916908315150217905550606082015181600301559050506001600a6000600454815260200190815260200160002060006101000a81548160ff0219169083151502179055508173ffffffffffffffffffffffffffffffffffffffff166004543373ffffffffffffffffffffffffffffffffffffffff167fcd144288a078b7562351164feb1762115faca27f30827b4142f2bbe27166e320846040516107a691906127cc565b60405180910390a46001600460008282546107c1919061283c565b925050819055505050565b600760003373ffffffffffffffffffffffffffffffffffffffff1673ffffffffffffffffffffffffffffffffffffffff16815260200190815260200160002060009054906101000a900460ff16610858576040517f08c379a000000000000000000000000000000000000000000000000000000000815260040161084f906127ac565b60405180910390fd5b80600a600082815260200190815260200160002060009054906101000a900460ff166108b9576040517f08c379a00000000000000000000000000000000000000000000000000000000081526004016108b0906126ac565b60405180910390fd5b81600b600082815260200190815260200160002060020160009054906101000a900460ff161561091e576040517f08c379a00000000000000000000000000000000000000000000000000000000081526004016109159061270c565b60405180910390fd5b6009600084815260200190815260200160002060003373ffffffffffffffffffffffffffffffffffffffff1673ffffffffffffffffffffffffffffffffffffffff16815260200190815260200160002060009054906101000a900460ff166109bb576040517f08c379a00000000000000000000000000000000000000000000000000000000081526004016109b29061272c565b60405180910390fd5b6001600b600085815260200190815260200160002060030160008282546109e291906128ec565b9250508190555060006009600085815260200190815260200160002060003373ffffffffffffffffffffffffffffffffffffffff1673ffffffffffffffffffffffffffffffffffffffff16815260200190815260200160002060006101000a81548160ff021916908315150217905550823373ffffffffffffffffffffffffffffffffffffffff167ff0dca620e2e81f7841d07bcc105e1704fb01475b278a9d4c236e1c62945edd5560405160405180910390a3505050565b60086020528060005260406000206000915054906101000a900460ff1681565b6000600454905090565b60076020528060005260406000206000915054906101000a900460ff1681565b60606006805480602002602001604051908101604052809291908181526020018280548015610b6957602002820191906000526020600020905b8160009054906101000a900473ffffffffffffffffffffffffffffffffffffffff1673ffffffffffffffffffffffffffffffffffffffff1681526020019060010190808311610b1f575b5050505050905090565b600080600080600b600086815260200190815260200160002060000160009054906101000a900473ffffffffffffffffffffffffffffffffffffffff16600b600087815260200190815260200160002060010154600b600088815260200190815260200160002060020160009054906101000a900460ff16600b60008981526020019081526020016000206003015493509350935093509193509193565b600160009054906101000a900473ffffffffffffffffffffffffffffffffffffffff1681565b6060600760003373ffffffffffffffffffffffffffffffffffffffff1673ffffffffffffffffffffffffffffffffffffffff16815260200190815260200160002060009054906101000a900460ff16610cc5576040517f08c379a0000000000000000000000000000000000000000000000000000000008152600401610cbc906127ac565b60405180910390fd5b600060068381548110610d01577f4e487b7100000000000000000000000000000000000000000000000000000000600052603260045260246000fd5b9060005260206000200160009054906101000a900473ffffffffffffffffffffffffffffffffffffffff1690506006805490508310610d75576040517f08c379a0000000000000000000000000000000000000000000000000000000008152600401610d6c9061276c565b60405180910390fd5b600073ffffffffffffffffffffffffffffffffffffffff168173ffffffffffffffffffffffffffffffffffffffff161415610de5576040517f08c379a0000000000000000000000000000000000000000000000000000000008152600401610ddc906126ec565b60405180910390fd5b600860008273ffffffffffffffffffffffffffffffffffffffff1673ffffffffffffffffffffffffffffffffffffffff16815260200190815260200160002060009054906101000a900460ff16610e71576040517f08c379a0000000000000000000000000000000000000000000000000000000008152600401610e689061274c565b60405180910390fd5b60008390505b6001600680549050610e8991906128ec565b811015610f96576006600182610e9f919061283c565b81548110610ed6577f4e487b7100000000000000000000000000000000000000000000000000000000600052603260045260246000fd5b9060005260206000200160009054906101000a900473ffffffffffffffffffffffffffffffffffffffff1660068281548110610f3b577f4e487b7100000000000000000000000000000000000000000000000000000000600052603260045260246000fd5b9060005260206000200160006101000a81548173ffffffffffffffffffffffffffffffffffffffff021916908373ffffffffffffffffffffffffffffffffffffffff1602179055508080610f8e906129f1565b915050610e77565b506006805480610fcf577f4e487b7100000000000000000000000000000000000000000000000000000000600052603160045260246000fd5b6001900381819060005260206000200160006101000a81549073ffffffffffffffffffffffffffffffffffffffff021916905590556000600860008373ffffffffffffffffffffffffffffffffffffffff1673ffffffffffffffffffffffffffffffffffffffff16815260200190815260200160002060006101000a81548160ff02191690831515021790555060068054806020026020016040519081016040528092919081815260200182805480156110de57602002820191906000526020600020905b8160009054906101000a900473ffffffffffffffffffffffffffffffffffffffff1673ffffffffffffffffffffffffffffffffffffffff1681526020019060010190808311611094575b5050505050915050919050565b600760003373ffffffffffffffffffffffffffffffffffffffff1673ffffffffffffffffffffffffffffffffffffffff16815260200190815260200160002060009054906101000a900460ff16611177576040517f08c379a000000000000000000000000000000000000000000000000000000000815260040161116e906127ac565b60405180910390fd5b600073ffffffffffffffffffffffffffffffffffffffff168173ffffffffffffffffffffffffffffffffffffffff1614156111e7576040517f08c379a00000000000000000000000000000000000000000000000000000000081526004016111de9061268c565b60405180910390fd5b600760008273ffffffffffffffffffffffffffffffffffffffff1673ffffffffffffffffffffffffffffffffffffffff16815260200190815260200160002060009054906101000a900460ff1615611274576040517f08c379a000000000000000000000000000000000000000000000000000000000815260040161126b9061264c565b60405180910390fd5b6001600760008373ffffffffffffffffffffffffffffffffffffffff1673ffffffffffffffffffffffffffffffffffffffff16815260200190815260200160002060006101000a81548160ff0219169083151502179055506005819080600181540180825580915050600190039060005260206000200160009091909190916101000a81548173ffffffffffffffffffffffffffffffffffffffff021916908373ffffffffffffffffffffffffffffffffffffffff16021790555050565b600a6020528060005260406000206000915054906101000a900460ff1681565b60096020528160005260406000206020528060005260406000206000915091509054906101000a900460ff1681565b600b6020528060005260406000206000915090508060000160009054906101000a900473ffffffffffffffffffffffffffffffffffffffff16908060010154908060020160009054906101000a900460ff16908060030154905084565b6060600580548060200260200160405190810160405280929190818152602001828054801561146257602002820191906000526020600020905b8160009054906101000a900473ffffffffffffffffffffffffffffffffffffffff1673ffffffffffffffffffffffffffffffffffffffff1681526020019060010190808311611418575b5050505050905090565b60045481565b600760003373ffffffffffffffffffffffffffffffffffffffff1673ffffffffffffffffffffffffffffffffffffffff16815260200190815260200160002060009054906101000a900460ff166114fe576040517f08c379a00000000000000000000000000000000000000000000000000000000081526004016114f5906127ac565b60405180910390fd5b80600a600082815260200190815260200160002060009054906101000a900460ff1661155f576040517f08c379a0000000000000000000000000000000000000000000000000000000008152600401611556906126ac565b60405180910390fd5b81600b600082815260200190815260200160002060020160009054906101000a900460ff16156115c4576040517f08c379a00000000000000000000000000000000000000000000000000000000081526004016115bb9061270c565b60405180910390fd5b826009600082815260200190815260200160002060003373ffffffffffffffffffffffffffffffffffffffff1673ffffffffffffffffffffffffffffffffffffffff16815260200190815260200160002060009054906101000a900460ff1615611663576040517f08c379a000000000000000000000000000000000000000000000000000000000815260040161165a906126cc565b60405180910390fd5b6001600b6000868152602001908152602001600020600301600082825461168a919061283c565b9250508190555060016009600086815260200190815260200160002060003373ffffffffffffffffffffffffffffffffffffffff1673ffffffffffffffffffffffffffffffffffffffff16815260200190815260200160002060006101000a81548160ff021916908315150217905550833373ffffffffffffffffffffffffffffffffffffffff167f5cbe105e36805f7820e291f799d5794ff948af2a5f664e580382defb6339004160405160405180910390a350505050565b6060600760003373ffffffffffffffffffffffffffffffffffffffff1673ffffffffffffffffffffffffffffffffffffffff16815260200190815260200160002060009054906101000a900460ff166117d2576040517f08c379a00000000000000000000000000000000000000000000000000000000081526004016117c9906127ac565b60405180910390fd5b60006005838154811061180e577f4e487b7100000000000000000000000000000000000000000000000000000000600052603260045260246000fd5b9060005260206000200160009054906101000a900473ffffffffffffffffffffffffffffffffffffffff1690506005805490508310611882576040517f08c379a00000000000000000000000000000000000000000000000000000000081526004016118799061276c565b60405180910390fd5b600073ffffffffffffffffffffffffffffffffffffffff168173ffffffffffffffffffffffffffffffffffffffff1614156118f2576040517f08c379a00000000000000000000000000000000000000000000000000000000081526004016118e99061268c565b60405180910390fd5b600760008273ffffffffffffffffffffffffffffffffffffffff1673ffffffffffffffffffffffffffffffffffffffff16815260200190815260200160002060009054906101000a900460ff1661197e576040517f08c379a0000000000000000000000000000000000000000000000000000000008152600401611975906127ac565b60405180910390fd5b60008390505b600160058054905061199691906128ec565b811015611aa35760056001826119ac919061283c565b815481106119e3577f4e487b7100000000000000000000000000000000000000000000000000000000600052603260045260246000fd5b9060005260206000200160009054906101000a900473ffffffffffffffffffffffffffffffffffffffff1660058281548110611a48577f4e487b7100000000000000000000000000000000000000000000000000000000600052603260045260246000fd5b9060005260206000200160006101000a81548173ffffffffffffffffffffffffffffffffffffffff021916908373ffffffffffffffffffffffffffffffffffffffff1602179055508080611a9b906129f1565b915050611984565b506005805480611adc577f4e487b7100000000000000000000000000000000000000000000000000000000600052603160045260246000fd5b6001900381819060005260206000200160006101000a81549073ffffffffffffffffffffffffffffffffffffffff021916905590556000600760008373ffffffffffffffffffffffffffffffffffffffff1673ffffffffffffffffffffffffffffffffffffffff16815260200190815260200160002060006101000a81548160ff0219169083151502179055506005805480602002602001604051908101604052809291908181526020018280548015611beb57602002820191906000526020600020905b8160009054906101000a900473ffffffffffffffffffffffffffffffffffffffff1673ffffffffffffffffffffffffffffffffffffffff1681526020019060010190808311611ba1575b5050505050915050919050565b60035481565b600760003373ffffffffffffffffffffffffffffffffffffffff1673ffffffffffffffffffffffffffffffffffffffff16815260200190815260200160002060009054906101000a900460ff16611c8a576040517f08c379a0000000000000000000000000000000000000000000000000000000008152600401611c81906127ac565b60405180910390fd5b600073ffffffffffffffffffffffffffffffffffffffff168173ffffffffffffffffffffffffffffffffffffffff161415611cfa576040517f08c379a0000000000000000000000000000000000000000000000000000000008152600401611cf1906126ec565b60405180910390fd5b600860008273ffffffffffffffffffffffffffffffffffffffff1673ffffffffffffffffffffffffffffffffffffffff16815260200190815260200160002060009054906101000a900460ff1615611d87576040517f08c379a0000000000000000000000000000000000000000000000000000000008152600401611d7e9061266c565b60405180910390fd5b6001600860008373ffffffffffffffffffffffffffffffffffffffff1673ffffffffffffffffffffffffffffffffffffffff16815260200190815260200160002060006101000a81548160ff0219169083151502179055506006819080600181540180825580915050600190039060005260206000200160009091909190916101000a81548173ffffffffffffffffffffffffffffffffffffffff021916908373ffffffffffffffffffffffffffffffffffffffff16021790555050565b600760003373ffffffffffffffffffffffffffffffffffffffff1673ffffffffffffffffffffffffffffffffffffffff16815260200190815260200160002060009054906101000a900460ff16611ed1576040517f08c379a0000000000000000000000000000000000000000000000000000000008152600401611ec8906127ac565b60405180910390fd5b80600a600082815260200190815260200160002060009054906101000a900460ff16611f32576040517f08c379a0000000000000000000000000000000000000000000000000000000008152600401611f29906126ac565b60405180910390fd5b81600b600082815260200190815260200160002060020160009054906101000a900460ff1615611f97576040517f08c379a0000000000000000000000000000000000000000000000000000000008152600401611f8e9061270c565b60405180910390fd5b600354600b6000858152602001908152602001600020600301541015611ff2576040517f08c379a0000000000000000000000000000000000000000000000000000000008152600401611fe99061278c565b60405180910390fd5b6001600b600085815260200190815260200160002060020160006101000a81548160ff0219169083151502179055506000600254600b6000868152602001908152602001600020600101546120479190612892565b9050600160009054906101000a900473ffffffffffffffffffffffffffffffffffffffff1673ffffffffffffffffffffffffffffffffffffffff1663a9059cbb600b600087815260200190815260200160002060000160009054906101000a900473ffffffffffffffffffffffffffffffffffffffff16836040518363ffffffff1660e01b81526004016120dc929190612564565b602060405180830381600087803b1580156120f657600080fd5b505af115801561210a573d6000803e3d6000fd5b505050506040513d601f19601f8201168201806040525081019061212e919061221d565b50833373ffffffffffffffffffffffffffffffffffffffff167f5445f318f4f5fcfb66592e68e0cc5822aa15664039bd5f0ffde24c5a8142b1ac60405160405180910390a350505050565b60008135905061218881612c95565b92915050565b60008151905061219d81612cac565b92915050565b6000813590506121b281612cc3565b92915050565b6000602082840312156121ca57600080fd5b60006121d884828501612179565b91505092915050565b600080604083850312156121f457600080fd5b600061220285828601612179565b9250506020612213858286016121a3565b9150509250929050565b60006020828403121561222f57600080fd5b600061223d8482850161218e565b91505092915050565b60006020828403121561225857600080fd5b6000612266848285016121a3565b91505092915050565b6000806040838503121561228257600080fd5b6000612290858286016121a3565b92505060206122a185828601612179565b9150509250929050565b60006122b783836122c3565b60208301905092915050565b6122cc81612920565b82525050565b6122db81612920565b82525050565b60006122ec826127f7565b6122f6818561281a565b9350612301836127e7565b8060005b8381101561233257815161231988826122ab565b97506123248361280d565b925050600181019050612305565b5085935050505092915050565b61234881612932565b82525050565b61235781612968565b82525050565b600061236882612802565b612372818561282b565b935061238281856020860161298c565b61238b81612a98565b840191505092915050565b60006123a360108361282b565b91506123ae82612aa9565b602082019050919050565b60006123c660108361282b565b91506123d182612ad2565b602082019050919050565b60006123e9600d8361282b565b91506123f482612afb565b602082019050919050565b600061240c60118361282b565b915061241782612b24565b602082019050919050565b600061242f60148361282b565b915061243a82612b4d565b602082019050919050565b6000612452600d8361282b565b915061245d82612b76565b602082019050919050565b600061247560138361282b565b915061248082612b9f565b602082019050919050565b600061249860108361282b565b91506124a382612bc8565b602082019050919050565b60006124bb60098361282b565b91506124c682612bf1565b602082019050919050565b60006124de600d8361282b565b91506124e982612c1a565b602082019050919050565b600061250160118361282b565b915061250c82612c43565b602082019050919050565b600061252460098361282b565b915061252f82612c6c565b602082019050919050565b6125438161295e565b82525050565b600060208201905061255e60008301846122d2565b92915050565b600060408201905061257960008301856122d2565b612586602083018461253a565b9392505050565b60006080820190506125a260008301876122d2565b6125af602083018661253a565b6125bc604083018561233f565b6125c9606083018461253a565b95945050505050565b600060208201905081810360008301526125ec81846122e1565b905092915050565b6000602082019050612609600083018461233f565b92915050565b6000602082019050612624600083018461234e565b92915050565b60006020820190508181036000830152612644818461235d565b905092915050565b6000602082019050818103600083015261266581612396565b9050919050565b60006020820190508181036000830152612685816123b9565b9050919050565b600060208201905081810360008301526126a5816123dc565b9050919050565b600060208201905081810360008301526126c5816123ff565b9050919050565b600060208201905081810360008301526126e581612422565b9050919050565b6000602082019050818103600083015261270581612445565b9050919050565b6000602082019050818103600083015261272581612468565b9050919050565b600060208201905081810360008301526127458161248b565b9050919050565b60006020820190508181036000830152612765816124ae565b9050919050565b60006020820190508181036000830152612785816124d1565b9050919050565b600060208201905081810360008301526127a5816124f4565b9050919050565b600060208201905081810360008301526127c581612517565b9050919050565b60006020820190506127e1600083018461253a565b92915050565b6000819050602082019050919050565b600081519050919050565b600081519050919050565b6000602082019050919050565b600082825260208201905092915050565b600082825260208201905092915050565b60006128478261295e565b91506128528361295e565b9250827fffffffffffffffffffffffffffffffffffffffffffffffffffffffffffffffff0382111561288757612886612a3a565b5b828201905092915050565b600061289d8261295e565b91506128a88361295e565b9250817fffffffffffffffffffffffffffffffffffffffffffffffffffffffffffffffff04831182151516156128e1576128e0612a3a565b5b828202905092915050565b60006128f78261295e565b91506129028361295e565b92508282101561291557612914612a3a565b5b828203905092915050565b600061292b8261293e565b9050919050565b60008115159050919050565b600073ffffffffffffffffffffffffffffffffffffffff82169050919050565b6000819050919050565b60006129738261297a565b9050919050565b60006129858261293e565b9050919050565b60005b838110156129aa57808201518184015260208101905061298f565b838111156129b9576000848401525b50505050565b600060028204905060018216806129d757607f821691505b602082108114156129eb576129ea612a69565b5b50919050565b60006129fc8261295e565b91507fffffffffffffffffffffffffffffffffffffffffffffffffffffffffffffffff821415612a2f57612a2e612a3a565b5b600182019050919050565b7f4e487b7100000000000000000000000000000000000000000000000000000000600052601160045260246000fd5b7f4e487b7100000000000000000000000000000000000000000000000000000000600052602260045260246000fd5b6000601f19601f8301169050919050565b7f6f776e6572206e6f7420756e6971756500000000000000000000000000000000600082015250565b7f61646d696e206e6f7420756e6971756500000000000000000000000000000000600082015250565b7f696e76616c6964206f776e657200000000000000000000000000000000000000600082015250565b7f747820646f6573206e6f74206578697374000000000000000000000000000000600082015250565b7f747820616c726561647920636f6e6669726d6564000000000000000000000000600082015250565b7f696e76616c69642061646d696e00000000000000000000000000000000000000600082015250565b7f747820616c726561647920657865637574656400000000000000000000000000600082015250565b7f7478206e6f7420636f6e6669726d656400000000000000000000000000000000600082015250565b7f6e6f742061646d696e0000000000000000000000000000000000000000000000600082015250565b7f696e76616c696420696e64657800000000000000000000000000000000000000600082015250565b7f63616e6e6f742065786563757465207478000000000000000000000000000000600082015250565b7f6e6f74206f776e65720000000000000000000000000000000000000000000000600082015250565b612c9e81612920565b8114612ca957600080fd5b50565b612cb581612932565b8114612cc057600080fd5b50565b612ccc8161295e565b8114612cd757600080fd5b5056fea264697066735822122095391f7efb24a7aeb1adbe20d56df0743c0b32eaef78a55a77feed32d9898eb064736f6c63430008030033",
  "immutableReferences": {},
  "source": "// SPDX-License-Identifier: UNLICENSED\r\n\r\npragma solidity ^0.8.0;\r\n\r\nimport \"./PurseTokenMultiSigUpgradable.sol\";\r\n\r\ncontract NPXSXEMigrationMulSig {\r\n    event SubmitTransaction(address indexed owner, uint indexed txIndex, address indexed to, uint value);\r\n    event ConfirmTransaction(address indexed owner, uint indexed txIndex);\r\n    event RevokeConfirmation(address indexed owner, uint indexed txIndex);\r\n    event ExecuteTransaction(address indexed owner, uint indexed txIndex);\r\n    \r\n    string public name = \"NPXSXEM Migration\";\r\n    PurseTokenMultiSigUpgradable public purseToken;\r\n    uint256 internal tokenBurnRate = 2;\r\n    uint public numConfirmationsRequired;\r\n    uint public transactionIndex;\r\n    address[] public owners;\r\n    address[] public admins;\r\n    mapping(address => bool) public isOwner;\r\n    mapping(address => bool) public isAdmin;\r\n    // mapping from tx index => owner => bool\r\n    mapping(uint => mapping(address => bool)) public isConfirmed;\r\n    mapping(uint => bool) public txExist;\r\n    mapping(uint => Transaction) public transactions;\r\n\r\n    struct Transaction {\r\n        address to;\r\n        uint value;\r\n        bool executed;\r\n        uint numConfirmations;\r\n    }\r\n\r\n    modifier onlyOwner() {\r\n        require(isOwner[msg.sender], \"not owner\");\r\n        _;\r\n    }\r\n\r\n    modifier onlyAdmin() {\r\n        require(isAdmin[msg.sender], \"not admin\");\r\n        _;\r\n    }\r\n\r\n    modifier txExists(uint _txIndex) {\r\n        require(txExist[_txIndex], \"tx does not exist\");\r\n        _;\r\n    }\r\n\r\n    modifier notExecuted(uint _txIndex) {\r\n        require(!transactions[_txIndex].executed, \"tx already executed\");\r\n        _;\r\n    }\r\n\r\n    modifier notConfirmed(uint _txIndex) {\r\n        require(!isConfirmed[_txIndex][msg.sender], \"tx already confirmed\");\r\n        _;\r\n    }\r\n\r\n    constructor(PurseTokenMultiSigUpgradable _purseToken, address[] memory _owners, address[] memory _admins, uint _numConfirmationsRequired) {\r\n        require(_owners.length > 0, \"owners required\");\r\n        require(_admins.length > 0, \"admins required\");\r\n        require(\r\n            _numConfirmationsRequired > 0 &&\r\n                _numConfirmationsRequired <= _owners.length,\r\n            \"invalid number of required confirmations\"\r\n        );\r\n\r\n        for (uint i = 0; i < _owners.length; i++) {\r\n            address owner = _owners[i];\r\n\r\n            require(owner != address(0), \"invalid owner\");\r\n            require(!isOwner[owner], \"owner not unique\");\r\n\r\n            isOwner[owner] = true;\r\n            owners.push(owner);\r\n        }\r\n        for (uint i = 0; i < _admins.length; i++) {\r\n            address admin = _admins[i];\r\n\r\n            require(admin != address(0), \"invalid admin\");\r\n            require(!isAdmin[admin], \"admin not unique\");\r\n\r\n            isAdmin[admin] = true;\r\n            admins.push(admin);\r\n        }\r\n        purseToken = _purseToken;\r\n        numConfirmationsRequired = _numConfirmationsRequired;\r\n    }\r\n\r\n    function submitTransaction(address _to, uint _value) public onlyAdmin {\r\n        \r\n        transactions[transactionIndex] = Transaction( _to,  _value, false, 0 );\r\n        txExist[transactionIndex] = true;\r\n        emit SubmitTransaction(msg.sender, transactionIndex, _to, _value);\r\n        transactionIndex +=1;\r\n    }\r\n\r\n    function confirmTransaction(uint _txIndex) public onlyOwner txExists(_txIndex) notExecuted(_txIndex) notConfirmed(_txIndex) {\r\n\r\n        transactions[_txIndex].numConfirmations += 1;\r\n        isConfirmed[_txIndex][msg.sender] = true;\r\n\r\n        emit ConfirmTransaction(msg.sender, _txIndex);\r\n    }\r\n\r\n    function executeTransaction(uint _txIndex) public onlyOwner txExists(_txIndex) notExecuted(_txIndex) {\r\n\r\n        require(transactions[_txIndex].numConfirmations >= numConfirmationsRequired, \"cannot execute tx\");\r\n        transactions[_txIndex].executed = true;\r\n        uint256 transferAmount = transactions[_txIndex].value * tokenBurnRate;\r\n        purseToken.transfer(transactions[_txIndex].to, transferAmount);\r\n\r\n        emit ExecuteTransaction(msg.sender, _txIndex);\r\n    }\r\n\r\n    function revokeConfirmation(uint _txIndex) public onlyOwner txExists(_txIndex) notExecuted(_txIndex) {\r\n\r\n        require(isConfirmed[_txIndex][msg.sender], \"tx not confirmed\");\r\n\r\n        transactions[_txIndex].numConfirmations -= 1;\r\n        isConfirmed[_txIndex][msg.sender] = false;\r\n\r\n        emit RevokeConfirmation(msg.sender, _txIndex);\r\n    }\r\n\r\n    function getOwners() public view returns (address[] memory) {\r\n        return owners;\r\n    }\r\n\r\n    function getAdmins() public view returns (address[] memory) {\r\n        return admins;\r\n    }\r\n\r\n    function getTransactionCount() public view returns (uint) {\r\n        return transactionIndex;\r\n    }\r\n\r\n    function getTransaction(uint _txIndex) public view returns (address to, uint value, bool executed, uint numConfirmations ) {\r\n        return (\r\n            transactions[_txIndex].to,\r\n            transactions[_txIndex].value,\r\n            transactions[_txIndex].executed,\r\n            transactions[_txIndex].numConfirmations\r\n        );\r\n    }\r\n\r\n    function addAdmins(address _admin) public onlyOwner{\r\n        require(_admin != address(0), \"invalid admin\");\r\n        require(!isAdmin[_admin], \"admin not unique\");\r\n        \r\n        isAdmin[_admin] = true;\r\n        admins.push(_admin);\r\n    }\r\n\r\n    function removeAdmins(uint index) public onlyOwner returns (address[] memory){\r\n        address removeAdmin = admins[index];\r\n        require(index < admins.length, \"invalid index\");\r\n        require(removeAdmin != address(0), \"invalid admin\");\r\n        require(isAdmin[removeAdmin], \"not admin\");\r\n\r\n        for (uint i = index; i<admins.length-1; i++){\r\n            admins[i] = admins[i+1];\r\n        }\r\n        \r\n\r\n        admins.pop();\r\n        isAdmin[removeAdmin] = false;\r\n\r\n        return admins;\r\n    }\r\n\r\n    function addOwners(address _owner) public onlyOwner{\r\n        require(_owner != address(0), \"invalid owner\");\r\n        require(!isOwner[_owner], \"owner not unique\");\r\n        \r\n        isOwner[_owner] = true;\r\n        owners.push(_owner);\r\n    }\r\n\r\n    function removeOwners(uint index) public onlyOwner returns (address[] memory){\r\n        address removeOwner = owners[index];\r\n        require(index < owners.length, \"invalid index\");\r\n        require(removeOwner != address(0), \"invalid owner\");\r\n        require(isOwner[removeOwner], \"not owner\");\r\n        \r\n        for (uint i = index; i<owners.length-1; i++){\r\n            owners[i] = owners[i+1];\r\n        }\r\n        owners.pop();\r\n\r\n        isOwner[removeOwner] = false;\r\n        return owners;\r\n    }\r\n}\r\n",
  "sourcePath": "C:/Users/cheek/Desktop/Developer doc/Visual Studio Code/PundiX/PurseReward/YieldFarm_BridgeEthBsc/src/contracts/NPXSXEMigrationMulSig.sol",
  "compiler": {
    "name": "solc",
    "version": "0.8.3+commit.8d00100c.Emscripten.clang"
  },
  "schemaVersion": "3.2.3",
  "updatedAt": "2021-08-27T03:06:12.991Z",
  "networkType": "ethereum",
  "devdoc": {
    "kind": "dev",
    "methods": {},
    "version": 1
  },
  "userdoc": {
    "kind": "user",
    "methods": {},
    "version": 1
  }
}