{
  "contractName": "NPXSXEMigration",
  "abi": [
    {
      "inputs": [
        {
          "internalType": "contract PurseToken",
          "name": "_purseToken",
          "type": "address"
        }
      ],
      "stateMutability": "nonpayable",
      "type": "constructor"
    },
    {
      "inputs": [],
      "name": "name",
      "outputs": [
        {
          "internalType": "string",
          "name": "",
          "type": "string"
        }
      ],
      "stateMutability": "view",
      "type": "function",
      "constant": true
    },
    {
      "inputs": [],
      "name": "owner",
      "outputs": [
        {
          "internalType": "address",
          "name": "",
          "type": "address"
        }
      ],
      "stateMutability": "view",
      "type": "function",
      "constant": true
    },
    {
      "inputs": [],
      "name": "purseToken",
      "outputs": [
        {
          "internalType": "contract PurseToken",
          "name": "",
          "type": "address"
        }
      ],
      "stateMutability": "view",
      "type": "function",
      "constant": true
    },
    {
      "inputs": [],
      "name": "validDuration",
      "outputs": [
        {
          "internalType": "uint256",
          "name": "",
          "type": "uint256"
        }
      ],
      "stateMutability": "view",
      "type": "function",
      "constant": true
    },
    {
      "inputs": [
        {
          "internalType": "address",
          "name": "to",
          "type": "address"
        },
        {
          "internalType": "uint256",
          "name": "_amount",
          "type": "uint256"
        }
      ],
      "name": "migrateNPXSXEM",
      "outputs": [],
      "stateMutability": "nonpayable",
      "type": "function"
    }
  ],
  "bytecode": "0x60806040526040518060400160405280601181526020017f4e50585358454d204d6967726174696f6e00000000000000000000000000000081525060009080519060200190620000519291906200011a565b5060026003553480156200006457600080fd5b5060405162000bf638038062000bf683398181016040528101906200008a9190620001e1565b80600160006101000a81548173ffffffffffffffffffffffffffffffffffffffff021916908373ffffffffffffffffffffffffffffffffffffffff16021790555033600260006101000a81548173ffffffffffffffffffffffffffffffffffffffff021916908373ffffffffffffffffffffffffffffffffffffffff1602179055504260048190555050620002d4565b828054620001289062000255565b90600052602060002090601f0160209004810192826200014c576000855562000198565b82601f106200016757805160ff191683800117855562000198565b8280016001018555821562000198579182015b82811115620001975782518255916020019190600101906200017a565b5b509050620001a79190620001ab565b5090565b5b80821115620001c6576000816000905550600101620001ac565b5090565b600081519050620001db81620002ba565b92915050565b600060208284031215620001f457600080fd5b60006200020484828501620001ca565b91505092915050565b60006200021a8262000235565b9050919050565b60006200022e826200020d565b9050919050565b600073ffffffffffffffffffffffffffffffffffffffff82169050919050565b600060028204905060018216806200026e57607f821691505b602082108114156200028557620002846200028b565b5b50919050565b7f4e487b7100000000000000000000000000000000000000000000000000000000600052602260045260246000fd5b620002c58162000221565b8114620002d157600080fd5b50565b61091280620002e46000396000f3fe608060405234801561001057600080fd5b50600436106100575760003560e01c806306fdde031461005c5780632948ff411461007a57806351bf16ef146100985780638da5cb5b146100b6578063f3939723146100d4575b600080fd5b6100646100f0565b60405161007191906105ee565b60405180910390f35b61008261017e565b60405161008f9190610670565b60405180910390f35b6100a0610185565b6040516100ad91906105d3565b60405180910390f35b6100be6101ab565b6040516100cb919061058f565b60405180910390f35b6100ee60048036038101906100e99190610404565b6101d1565b005b600080546100fd906107f6565b80601f0160208091040260200160405190810160405280929190818152602001828054610129906107f6565b80156101765780601f1061014b57610100808354040283529160200191610176565b820191906000526020600020905b81548152906001019060200180831161015957829003601f168201915b505050505081565b6203f48081565b600160009054906101000a900473ffffffffffffffffffffffffffffffffffffffff1681565b600260009054906101000a900473ffffffffffffffffffffffffffffffffffffffff1681565b60006203f4806004546101e491906106a7565b9050600260009054906101000a900473ffffffffffffffffffffffffffffffffffffffff1673ffffffffffffffffffffffffffffffffffffffff163373ffffffffffffffffffffffffffffffffffffffff1614610276576040517f08c379a000000000000000000000000000000000000000000000000000000000815260040161026d90610650565b60405180910390fd5b60008210156102ba576040517f08c379a00000000000000000000000000000000000000000000000000000000081526004016102b190610630565b60405180910390fd5b804211156102fd576040517f08c379a00000000000000000000000000000000000000000000000000000000081526004016102f490610610565b60405180910390fd5b60006003548361030d91906106fd565b9050600160009054906101000a900473ffffffffffffffffffffffffffffffffffffffff1673ffffffffffffffffffffffffffffffffffffffff1663a9059cbb85836040518363ffffffff1660e01b815260040161036c9291906105aa565b602060405180830381600087803b15801561038657600080fd5b505af115801561039a573d6000803e3d6000fd5b505050506040513d601f19601f820116820180604052508101906103be9190610440565b5050505050565b6000813590506103d481610897565b92915050565b6000815190506103e9816108ae565b92915050565b6000813590506103fe816108c5565b92915050565b6000806040838503121561041757600080fd5b6000610425858286016103c5565b9250506020610436858286016103ef565b9150509250929050565b60006020828403121561045257600080fd5b6000610460848285016103da565b91505092915050565b61047281610757565b82525050565b6104818161079f565b82525050565b60006104928261068b565b61049c8185610696565b93506104ac8185602086016107c3565b6104b581610886565b840191505092915050565b60006104cd601583610696565b91507f4d6967726174696f6e2077696e646f77206f76657200000000000000000000006000830152602082019050919050565b600061050d601283610696565b91507f616d6f756e74206c657373207468616e203000000000000000000000000000006000830152602082019050919050565b600061054d600983610696565b91507f6e6f74206f776e657200000000000000000000000000000000000000000000006000830152602082019050919050565b61058981610795565b82525050565b60006020820190506105a46000830184610469565b92915050565b60006040820190506105bf6000830185610469565b6105cc6020830184610580565b9392505050565b60006020820190506105e86000830184610478565b92915050565b600060208201905081810360008301526106088184610487565b905092915050565b60006020820190508181036000830152610629816104c0565b9050919050565b6000602082019050818103600083015261064981610500565b9050919050565b6000602082019050818103600083015261066981610540565b9050919050565b60006020820190506106856000830184610580565b92915050565b600081519050919050565b600082825260208201905092915050565b60006106b282610795565b91506106bd83610795565b9250827fffffffffffffffffffffffffffffffffffffffffffffffffffffffffffffffff038211156106f2576106f1610828565b5b828201905092915050565b600061070882610795565b915061071383610795565b9250817fffffffffffffffffffffffffffffffffffffffffffffffffffffffffffffffff048311821515161561074c5761074b610828565b5b828202905092915050565b600061076282610775565b9050919050565b60008115159050919050565b600073ffffffffffffffffffffffffffffffffffffffff82169050919050565b6000819050919050565b60006107aa826107b1565b9050919050565b60006107bc82610775565b9050919050565b60005b838110156107e15780820151818401526020810190506107c6565b838111156107f0576000848401525b50505050565b6000600282049050600182168061080e57607f821691505b6020821081141561082257610821610857565b5b50919050565b7f4e487b7100000000000000000000000000000000000000000000000000000000600052601160045260246000fd5b7f4e487b7100000000000000000000000000000000000000000000000000000000600052602260045260246000fd5b6000601f19601f8301169050919050565b6108a081610757565b81146108ab57600080fd5b50565b6108b781610769565b81146108c257600080fd5b50565b6108ce81610795565b81146108d957600080fd5b5056fea26469706673582212200d00b2e3275c584f6647a48f5a03d5354776c451fe864d3c44d2b335f96777b364736f6c63430008000033",
  "immutableReferences": {},
  "source": "pragma solidity ^0.8.0;\r\n\r\nimport \"./PurseToken.sol\";\r\n\r\ncontract NPXSXEMigration {\r\n    string public name = \"NPXSXEM Migration\";\r\n    PurseToken public purseToken;\r\n    address public owner;\r\n    uint256 public constant validDuration = 3 days;\r\n    uint256 internal tokenBurnRate = 2;\r\n    uint256 internal migrationStart;\r\n\r\n    constructor( PurseToken _purseToken) public {\r\n        purseToken = _purseToken;\r\n        owner = msg.sender;\r\n        migrationStart = block.timestamp;\r\n    }\r\n\r\n    function migrateNPXSXEM(address to, uint256 _amount) public {\r\n        uint256 end = migrationStart + validDuration;\r\n        require(msg.sender == owner, 'not owner');\r\n        require(_amount >= 0, 'amount less than 0');\r\n        require(block.timestamp <= end, \"Migration window over\");     \r\n        uint256 transferAmount = _amount * tokenBurnRate;\r\n        purseToken.transfer(to, transferAmount);\r\n\r\n    }\r\n\r\n}\r\n",
  "sourcePath": "C:/Users/cheek/Desktop/Developer doc/Visual Studio Code/PundiX/PurseReward/YieldFarm_BridgeEthBsc/src/contracts/NPXSXEMigration.sol",
  "compiler": {
    "name": "solc",
    "version": "0.8.0+commit.c7dfd78e.Emscripten.clang"
  },
  "schemaVersion": "3.3.4",
  "updatedAt": "2021-08-17T11:45:51.048Z",
  "networkType": "ethereum",
  "devdoc": {
    "kind": "dev",
    "methods": {},
    "version": 1
  },
  "userdoc": {
    "kind": "user",
    "methods": {},
    "version": 1
  }
}