{
  "contractName": "NPXSXEMigration",
  "abi": [
    {
      "inputs": [
        {
          "internalType": "address",
          "name": "_npxsxemToken",
          "type": "address"
        },
        {
          "internalType": "contract IERC20",
          "name": "_purseToken",
          "type": "address"
        }
      ],
      "stateMutability": "nonpayable",
      "type": "constructor"
    },
    {
      "anonymous": false,
      "inputs": [
        {
          "indexed": false,
          "internalType": "uint256",
          "name": "_start",
          "type": "uint256"
        },
        {
          "indexed": false,
          "internalType": "uint256",
          "name": "_to",
          "type": "uint256"
        },
        {
          "indexed": false,
          "internalType": "uint256",
          "name": "_airDropIndex",
          "type": "uint256"
        }
      ],
      "name": "AirDrop",
      "type": "event"
    },
    {
      "anonymous": false,
      "inputs": [
        {
          "indexed": false,
          "internalType": "uint256",
          "name": "migrateIndex",
          "type": "uint256"
        },
        {
          "indexed": true,
          "internalType": "address",
          "name": "_from",
          "type": "address"
        },
        {
          "indexed": false,
          "internalType": "address",
          "name": "_to",
          "type": "address"
        },
        {
          "indexed": false,
          "internalType": "uint256",
          "name": "value",
          "type": "uint256"
        }
      ],
      "name": "Migrate",
      "type": "event"
    },
    {
      "inputs": [
        {
          "internalType": "address",
          "name": "",
          "type": "address"
        },
        {
          "internalType": "uint256",
          "name": "",
          "type": "uint256"
        }
      ],
      "name": "addressMigrator",
      "outputs": [
        {
          "internalType": "uint256",
          "name": "",
          "type": "uint256"
        }
      ],
      "stateMutability": "view",
      "type": "function",
      "constant": true
    },
    {
      "inputs": [
        {
          "internalType": "address",
          "name": "",
          "type": "address"
        }
      ],
      "name": "airdropAmount",
      "outputs": [
        {
          "internalType": "uint256",
          "name": "",
          "type": "uint256"
        }
      ],
      "stateMutability": "view",
      "type": "function",
      "constant": true
    },
    {
      "inputs": [
        {
          "internalType": "uint256",
          "name": "",
          "type": "uint256"
        },
        {
          "internalType": "uint256",
          "name": "",
          "type": "uint256"
        }
      ],
      "name": "airdropped",
      "outputs": [
        {
          "internalType": "uint256",
          "name": "",
          "type": "uint256"
        }
      ],
      "stateMutability": "view",
      "type": "function",
      "constant": true
    },
    {
      "inputs": [],
      "name": "endMigration",
      "outputs": [
        {
          "internalType": "uint256",
          "name": "",
          "type": "uint256"
        }
      ],
      "stateMutability": "view",
      "type": "function",
      "constant": true
    },
    {
      "inputs": [],
      "name": "isMigrationStart",
      "outputs": [
        {
          "internalType": "bool",
          "name": "",
          "type": "bool"
        }
      ],
      "stateMutability": "view",
      "type": "function",
      "constant": true
    },
    {
      "inputs": [
        {
          "internalType": "address",
          "name": "",
          "type": "address"
        }
      ],
      "name": "isOwner",
      "outputs": [
        {
          "internalType": "bool",
          "name": "",
          "type": "bool"
        }
      ],
      "stateMutability": "view",
      "type": "function",
      "constant": true
    },
    {
      "inputs": [],
      "name": "migrateIndex",
      "outputs": [
        {
          "internalType": "uint256",
          "name": "",
          "type": "uint256"
        }
      ],
      "stateMutability": "view",
      "type": "function",
      "constant": true
    },
    {
      "inputs": [
        {
          "internalType": "uint256",
          "name": "",
          "type": "uint256"
        }
      ],
      "name": "migration",
      "outputs": [
        {
          "internalType": "uint256",
          "name": "migrateIndex",
          "type": "uint256"
        },
        {
          "internalType": "address",
          "name": "migrator",
          "type": "address"
        },
        {
          "internalType": "address",
          "name": "to",
          "type": "address"
        },
        {
          "internalType": "uint256",
          "name": "migrateBalance",
          "type": "uint256"
        }
      ],
      "stateMutability": "view",
      "type": "function",
      "constant": true
    },
    {
      "inputs": [
        {
          "internalType": "address",
          "name": "",
          "type": "address"
        }
      ],
      "name": "migratorAmount",
      "outputs": [
        {
          "internalType": "uint256",
          "name": "",
          "type": "uint256"
        }
      ],
      "stateMutability": "view",
      "type": "function",
      "constant": true
    },
    {
      "inputs": [],
      "name": "name",
      "outputs": [
        {
          "internalType": "string",
          "name": "",
          "type": "string"
        }
      ],
      "stateMutability": "view",
      "type": "function",
      "constant": true
    },
    {
      "inputs": [],
      "name": "npxsxemToken",
      "outputs": [
        {
          "internalType": "address",
          "name": "",
          "type": "address"
        }
      ],
      "stateMutability": "view",
      "type": "function",
      "constant": true
    },
    {
      "inputs": [],
      "name": "owner",
      "outputs": [
        {
          "internalType": "address",
          "name": "",
          "type": "address"
        }
      ],
      "stateMutability": "view",
      "type": "function",
      "constant": true
    },
    {
      "inputs": [],
      "name": "purseToken",
      "outputs": [
        {
          "internalType": "contract IERC20",
          "name": "",
          "type": "address"
        }
      ],
      "stateMutability": "view",
      "type": "function",
      "constant": true
    },
    {
      "inputs": [],
      "name": "validDuration",
      "outputs": [
        {
          "internalType": "uint256",
          "name": "",
          "type": "uint256"
        }
      ],
      "stateMutability": "view",
      "type": "function",
      "constant": true
    },
    {
      "inputs": [
        {
          "internalType": "address",
          "name": "_to",
          "type": "address"
        },
        {
          "internalType": "uint256",
          "name": "_amount",
          "type": "uint256"
        }
      ],
      "name": "migrateNPXSXEM",
      "outputs": [],
      "stateMutability": "nonpayable",
      "type": "function"
    },
    {
      "inputs": [
        {
          "internalType": "bool",
          "name": "check",
          "type": "bool"
        },
        {
          "internalType": "uint256",
          "name": "_startMigrate",
          "type": "uint256"
        }
      ],
      "name": "startMigration",
      "outputs": [],
      "stateMutability": "nonpayable",
      "type": "function"
    },
    {
      "inputs": [
        {
          "internalType": "uint256",
          "name": "_endMigration",
          "type": "uint256"
        }
      ],
      "name": "updateEndMigration",
      "outputs": [],
      "stateMutability": "nonpayable",
      "type": "function"
    },
    {
      "inputs": [
        {
          "internalType": "uint256",
          "name": "start",
          "type": "uint256"
        },
        {
          "internalType": "uint256",
          "name": "end",
          "type": "uint256"
        },
        {
          "internalType": "uint256",
          "name": "airdropIndex",
          "type": "uint256"
        }
      ],
      "name": "airDrop",
      "outputs": [],
      "stateMutability": "nonpayable",
      "type": "function"
    },
    {
      "inputs": [
        {
          "internalType": "address",
          "name": "addr",
          "type": "address"
        }
      ],
      "name": "migratedCount",
      "outputs": [
        {
          "internalType": "uint256",
          "name": "",
          "type": "uint256"
        }
      ],
      "stateMutability": "view",
      "type": "function",
      "constant": true
    },
    {
      "inputs": [
        {
          "internalType": "uint256",
          "name": "index",
          "type": "uint256"
        }
      ],
      "name": "migrateState",
      "outputs": [
        {
          "internalType": "uint256[11]",
          "name": "",
          "type": "uint256[11]"
        }
      ],
      "stateMutability": "view",
      "type": "function",
      "constant": true
    },
    {
      "inputs": [
        {
          "internalType": "address",
          "name": "_to",
          "type": "address"
        }
      ],
      "name": "returnPurseToken",
      "outputs": [],
      "stateMutability": "nonpayable",
      "type": "function"
    },
    {
      "inputs": [
        {
          "internalType": "address",
          "name": "token",
          "type": "address"
        },
        {
          "internalType": "uint256",
          "name": "amount",
          "type": "uint256"
        },
        {
          "internalType": "address",
          "name": "_to",
          "type": "address"
        }
      ],
      "name": "returnAnyToken",
      "outputs": [],
      "stateMutability": "nonpayable",
      "type": "function"
    },
    {
      "inputs": [
        {
          "internalType": "address",
          "name": "_owner",
          "type": "address"
        }
      ],
      "name": "updateOwner",
      "outputs": [],
      "stateMutability": "nonpayable",
      "type": "function"
    }
  ],
  "bytecode": "0x60c0604052601160808190527027282c29ac22a69026b4b3b930ba34b7b760791b60a0908152620000349160009190620000c2565b5060006005553480156200004757600080fd5b5060405162001621380380620016218339810160408190526200006a9162000168565b336000818152600760205260409020805460ff19166001908117909155600480546001600160a01b0319908116909317905580546001600160a01b0394851690831617905560028054929093169116179055620001fd565b828054620000d090620001a7565b90600052602060002090601f016020900481019282620000f457600085556200013f565b82601f106200010f57805160ff19168380011785556200013f565b828001600101855582156200013f579182015b828111156200013f57825182559160200191906001019062000122565b506200014d92915062000151565b5090565b5b808211156200014d576000815560010162000152565b600080604083850312156200017c57600080fd5b82516200018981620001e4565b60208401519092506200019c81620001e4565b809150509250929050565b600181811c90821680620001bc57607f821691505b60208210811415620001de57634e487b7160e01b600052602260045260246000fd5b50919050565b6001600160a01b0381168114620001fa57600080fd5b50565b611414806200020d6000396000f3fe608060405234801561001057600080fd5b506004361061014d5760003560e01c806391717615116100c3578063eaa372f41161007c578063eaa372f41461035b578063f09de43f1461036e578063f393972314610381578063f3cb26ff14610394578063fb43c650146103b4578063fee9866c146103c757600080fd5b80639171761514610264578063a3e902551461028d578063b2d37470146102ad578063b530dc8c146102b6578063c237e326146102d6578063e640d862146102e957600080fd5b80634b28eea7116101155780634b28eea7146101fa57806351bf16ef1461020f5780636c525d041461022257806382d3c17d1461022b578063880cdc311461023e5780638da5cb5b1461025157600080fd5b806306fdde03146101525780630713f1b61461017057806324482858146101945780632948ff41146101bf5780632f54bf6e146101d7575b600080fd5b61015a6103da565b604051610167919061127a565b60405180910390f35b60045461018490600160a01b900460ff1681565b6040519015158152602001610167565b6001546101a7906001600160a01b031681565b6040516001600160a01b039091168152602001610167565b6101c96277f88081565b604051908152602001610167565b6101846101e5366004611105565b60076020526000908152604090205460ff1681565b61020d6102083660046111aa565b610468565b005b6002546101a7906001600160a01b031681565b6101c960035481565b61020d6102393660046111c8565b6104de565b61020d61024c366004611105565b610512565b6004546101a7906001600160a01b031681565b6101c9610272366004611105565b6001600160a01b031660009081526008602052604090205490565b6101c961029b366004611105565b600a6020526000908152604090205481565b6101c960055481565b6101c96102c4366004611105565b600b6020526000908152604090205481565b61020d6102e4366004611151565b610615565b61032b6102f73660046111c8565b600660205260009081526040902080546001820154600283015460039093015491926001600160a01b039182169291169084565b60405161016794939291909384526001600160a01b03928316602085015291166040830152606082015260800190565b6101c96103693660046111fa565b61071d565b61020d61037c366004611105565b610742565b61020d61038f366004611127565b6108cb565b6103a76103a23660046111c8565b610d56565b6040516101679190611248565b6101c96103c2366004611127565b610d9f565b61020d6103d536600461121c565b610dd0565b600080546103e79061134b565b80601f01602080910402602001604051908101604052809291908181526020018280546104139061134b565b80156104605780601f1061043557610100808354040283529160200191610460565b820191906000526020600020905b81548152906001019060200180831161044357829003601f168201915b505050505081565b3360009081526007602052604090205460ff166104a05760405162461bcd60e51b8152600401610497906112cf565b60405180910390fd5b81156104cd576104b36277f880826112f2565b6003556004805460ff60a01b1916600160a01b1790555050565b6004805460ff60a01b191690555050565b3360009081526007602052604090205460ff1661050d5760405162461bcd60e51b8152600401610497906112cf565b600355565b3360009081526007602052604090205460ff166105415760405162461bcd60e51b8152600401610497906112cf565b6001600160a01b03811661058b5760405162461bcd60e51b81526020600482015260116024820152706e6f742076616c6964206164647265737360781b6044820152606401610497565b6004546001600160a01b03828116911614156105de5760405162461bcd60e51b815260206004820152601260248201527173616d65206f776e6572206164647265737360701b6044820152606401610497565b6001600160a01b03166000818152600760205260409020805460ff19166001179055600480546001600160a01b0319169091179055565b3360009081526007602052604090205460ff166106445760405162461bcd60e51b8152600401610497906112cf565b6001600160a01b0381166106955760405162461bcd60e51b815260206004820152601860248201527773656e6420746f20746865207a65726f206164647265737360401b6044820152606401610497565b60405163a9059cbb60e01b81526001600160a01b0382811660048301526024820184905284169063a9059cbb90604401602060405180830381600087803b1580156106df57600080fd5b505af11580156106f3573d6000803e3d6000fd5b505050506040513d601f19601f82011682018060405250810190610717919061118d565b50505050565b600960205281600052604060002081600b811061073957600080fd5b01549150829050565b3360009081526007602052604090205460ff166107715760405162461bcd60e51b8152600401610497906112cf565b6001600160a01b0381166107c25760405162461bcd60e51b815260206004820152601860248201527773656e6420746f20746865207a65726f206164647265737360401b6044820152606401610497565b6002546040516370a0823160e01b81523060048201526000916001600160a01b0316906370a082319060240160206040518083038186803b15801561080657600080fd5b505afa15801561081a573d6000803e3d6000fd5b505050506040513d601f19601f8201168201806040525081019061083e91906111e1565b60025460405163a9059cbb60e01b81526001600160a01b0385811660048301526024820184905292935091169063a9059cbb90604401602060405180830381600087803b15801561088e57600080fd5b505af11580156108a2573d6000803e3d6000fd5b505050506040513d601f19601f820116820180604052508101906108c6919061118d565b505050565b600454600160a01b900460ff16151560011461091e5760405162461bcd60e51b81526020600482015260126024820152714d6967726174696f6e2069732066616c736560701b6044820152606401610497565b6002546040516370a0823160e01b81523060048201526000916001600160a01b0316906370a082319060240160206040518083038186803b15801561096257600080fd5b505afa158015610976573d6000803e3d6000fd5b505050506040513d601f19601f8201168201806040525081019061099a91906111e1565b90506003544211156109e65760405162461bcd60e51b815260206004820152601560248201527426b4b3b930ba34b7b7103bb4b73237bb9037bb32b960591b6044820152606401610497565b60008211610a215760405162461bcd60e51b81526020600482015260086024820152670c08185b5bdd5b9d60c21b6044820152606401610497565b81811015610a665760405162461bcd60e51b81526020600482015260126024820152714e6f7420656e6f7567682062616c616e636560701b6044820152606401610497565b60006064610a7584600c61132c565b610a7f919061130a565b6001546040516323b872dd60e01b8152336004820152306024820152604481018690529192506001600160a01b0316906323b872dd90606401602060405180830381600087803b158015610ad257600080fd5b505af1158015610ae6573d6000803e3d6000fd5b505050506040513d601f19601f82011682018060405250810190610b0a919061118d565b5060408051608081018252600580548083523360208085018281526001600160a01b038b8116878901908152606088018c81526000968752600685528987209851895592516001808a0180549285166001600160a01b0319938416179055915160028a0180549190941691161790915590516003909601959095558183526008815285832093548454958601855593835280832090940192909255908152600a9091522054610bba9084906112f2565b336000908152600a6020908152604080832093909355600b90522054610be19082906112f2565b336000908152600b6020818152604080842094909455835161016081018552838152808201849052808501849052606081018490526080810184905260a0810184905260c0810184905260e081018490526101008101849052610120810184905261014081018490526005548452600990915292909120610c63929091611072565b5060025460405163a9059cbb60e01b81526001600160a01b038681166004830152602482018490529091169063a9059cbb90604401602060405180830381600087803b158015610cb257600080fd5b505af1158015610cc6573d6000803e3d6000fd5b505050506040513d601f19601f82011682018060405250810190610cea919061118d565b50600554604080519182526001600160a01b0386166020830152810184905233907f53a871c29c111546fa4a56d438d4db74ce48762942459053889518f7f573309e9060600160405180910390a2600160056000828254610d4b91906112f2565b909155505050505050565b610d5e6110b5565b60008281526009602052604090819020815161016081019283905291600b9082845b815481526020019060010190808311610d805750505050509050919050565b60086020528160005260406000208181548110610dbb57600080fd5b90600052602060002001600091509150505481565b3360009081526007602052604090205460ff16610dff5760405162461bcd60e51b8152600401610497906112cf565b8183108015610e1057506005548211155b610e535760405162461bcd60e51b8152602060048201526014602482015273125b9d985b1a59081cdd185c9d081bdc88195b9960621b6044820152606401610497565b600b81108015610e61575060015b610eb95760405162461bcd60e51b8152602060048201526024808201527f696e646578206c657373207468616e2030206f722067726561746572207468616044820152636e20313160e01b6064820152608401610497565b825b8281101561102b57600081815260096020526040902082600b8110610ee257610ee26113b7565b0154611019576000818152600660205260408120600181015460028201546003909201546001600160a01b03918216939190921691606490610f2590600861132c565b610f2f919061130a565b6000858152600960205260409020909150439086600b8110610f5357610f536113b7565b01556001600160a01b0383166000908152600b6020526040902054610f799082906112f2565b6001600160a01b038481166000908152600b60205260409081902092909255600254915163a9059cbb60e01b815284821660048201526024810184905291169063a9059cbb90604401602060405180830381600087803b158015610fdc57600080fd5b505af1158015610ff0573d6000803e3d6000fd5b505050506040513d601f19601f82011682018060405250810190611014919061118d565b505050505b8061102381611386565b915050610ebb565b5060408051848152602081018490529081018290527fb36e59137034385089283a52cbf7e6c12a10417c87ed268780a1d680605b50549060600160405180910390a1505050565b82600b81019282156110a5579160200282015b828111156110a5578251829060ff16905591602001919060010190611085565b506110b19291506110d4565b5090565b604051806101600160405280600b906020820280368337509192915050565b5b808211156110b157600081556001016110d5565b80356001600160a01b038116811461110057600080fd5b919050565b60006020828403121561111757600080fd5b611120826110e9565b9392505050565b6000806040838503121561113a57600080fd5b611143836110e9565b946020939093013593505050565b60008060006060848603121561116657600080fd5b61116f846110e9565b925060208401359150611184604085016110e9565b90509250925092565b60006020828403121561119f57600080fd5b8151611120816113cd565b600080604083850312156111bd57600080fd5b8235611143816113cd565b6000602082840312156111da57600080fd5b5035919050565b6000602082840312156111f357600080fd5b5051919050565b6000806040838503121561120d57600080fd5b50508035926020909101359150565b60008060006060848603121561123157600080fd5b505081359360208301359350604090920135919050565b6101608101818360005b600b811015611271578151835260209283019290910190600101611252565b50505092915050565b600060208083528351808285015260005b818110156112a75785810183015185820160400152820161128b565b818111156112b9576000604083870101525b50601f01601f1916929092016040019392505050565b6020808252600990820152683737ba1037bbb732b960b91b604082015260600190565b60008219821115611305576113056113a1565b500190565b60008261132757634e487b7160e01b600052601260045260246000fd5b500490565b6000816000190483118215151615611346576113466113a1565b500290565b600181811c9082168061135f57607f821691505b6020821081141561138057634e487b7160e01b600052602260045260246000fd5b50919050565b600060001982141561139a5761139a6113a1565b5060010190565b634e487b7160e01b600052601160045260246000fd5b634e487b7160e01b600052603260045260246000fd5b80151581146113db57600080fd5b5056fea2646970667358221220924abe46ddaa0cd3c3f8971a85e0646d832cc38a8e89c5b46a3093d20314a9b564736f6c63430008070033",
  "immutableReferences": {},
  "source": "// SPDX-License-Identifier: MIT\r\n\r\npragma solidity ^0.8.0;\r\n\r\nimport \"@openzeppelin/contracts/token/ERC20/IERC20.sol\";\r\n\r\ncontract NPXSXEMigration {\r\n    event Migrate (uint256 migrateIndex, address indexed _from, address _to, uint256 value);\r\n    event AirDrop (uint256 _start, uint256 _to, uint256 _airDropIndex);\r\n\r\n    string public name = \"NPXSXEM Migration\";\r\n    address public npxsxemToken;\r\n    IERC20 public purseToken;\r\n    uint256 public constant validDuration = 91 days;\r\n    uint256 public endMigration;\r\n    address public owner;\r\n    bool public isMigrationStart;\r\n\r\n    uint256 public migrateIndex = 0;\r\n    mapping(uint256 => MigratorInfo) public migration;  //index->times\r\n    mapping(address => bool) public isOwner;\r\n    mapping(address => uint256[]) public addressMigrator;\r\n    mapping(uint256 => uint256[11]) public airdropped;\r\n    mapping(address => uint256) public migratorAmount;\r\n    mapping(address => uint256) public airdropAmount;\r\n\r\n    struct MigratorInfo {\r\n        uint256 migrateIndex;\r\n        address migrator;\r\n        address to;\r\n        uint256 migrateBalance;\r\n    }\r\n\r\n    modifier onlyOwner() {\r\n        require(isOwner[msg.sender], \"not owner\");\r\n        _;\r\n    }\r\n\r\n    constructor(address _npxsxemToken, IERC20 _purseToken) {\r\n        isOwner[msg.sender] = true;\r\n        owner = msg.sender;\r\n        npxsxemToken = _npxsxemToken;\r\n        purseToken = _purseToken;\r\n    }\r\n\r\n    function migrateNPXSXEM(address _to, uint256 _amount) public {\r\n        require(isMigrationStart == true, \"Migration is false\");\r\n        uint256 remainingAmount = purseToken.balanceOf(address(this));\r\n        require(block.timestamp <= endMigration, \"Migration window over\");\r\n        require(_amount > 0, \"0 amount\");\r\n        require(remainingAmount >= _amount, \"Not enough balance\");\r\n\r\n        uint256 transferAmount = (_amount * 12) / 100;\r\n        IERC20(npxsxemToken).transferFrom(msg.sender, address(this), _amount);\r\n\r\n        migration[migrateIndex] = MigratorInfo(migrateIndex, msg.sender, _to, _amount);\r\n        addressMigrator[msg.sender].push(migrateIndex);\r\n        migratorAmount[msg.sender] = migratorAmount[msg.sender] + _amount;\r\n        airdropAmount[msg.sender] = airdropAmount[msg.sender] + transferAmount;\r\n        airdropped[migrateIndex] = [0, 0, 0, 0, 0, 0, 0, 0, 0, 0, 0];\r\n\r\n        purseToken.transfer(_to, transferAmount);\r\n\r\n        emit Migrate(migrateIndex, msg.sender, _to, _amount);\r\n        migrateIndex += 1;\r\n    }\r\n\r\n    function startMigration(bool check, uint256 _startMigrate) public onlyOwner {\r\n        if (check) {\r\n            endMigration = _startMigrate + validDuration;\r\n            isMigrationStart = true;\r\n        } else {\r\n            isMigrationStart = false;\r\n        }\r\n    }\r\n\r\n    function updateEndMigration(uint256 _endMigration) public onlyOwner {\r\n        endMigration = _endMigration;\r\n    }\r\n\r\n    function airDrop(uint256 start, uint256 end, uint256 airdropIndex) public onlyOwner {\r\n        require(start < end && end <= migrateIndex, \"Invalid start or end\");\r\n        require(airdropIndex < 11 && airdropIndex >= 0, \"index less than 0 or greater than 11\");\r\n        for (uint256 i = start; i < end; i++) {\r\n            if (airdropped[i][airdropIndex] == 0) {\r\n                address migrator = migration[i].migrator;\r\n                address recipient = migration[i].to;\r\n                uint256 amount = migration[i].migrateBalance * 8 / 100;\r\n                airdropped[i][airdropIndex] = block.number;\r\n                airdropAmount[migrator] = airdropAmount[migrator] + amount;\r\n                purseToken.transfer(recipient, amount);\r\n            }\r\n        }\r\n        emit AirDrop(start, end, airdropIndex);\r\n    }\r\n\r\n    function migratedCount(address addr) public view returns (uint256){\r\n        return addressMigrator[addr].length;\r\n    }\r\n\r\n    function migrateState(uint256 index) public view returns (uint256[11] memory){\r\n        return airdropped[index];\r\n    }\r\n\r\n    function returnPurseToken(address _to) public onlyOwner {\r\n        require(_to != address(0), \"send to the zero address\");\r\n        uint256 remainingAmount = purseToken.balanceOf(address(this));\r\n        purseToken.transfer(_to, remainingAmount);\r\n    }\r\n\r\n    function returnAnyToken(address token, uint256 amount, address _to) public onlyOwner {\r\n        require(_to != address(0), \"send to the zero address\");\r\n        IERC20(token).transfer(_to, amount);\r\n    }\r\n\r\n    function updateOwner(address _owner) public onlyOwner {\r\n        require(_owner != address(0), \"not valid address\");\r\n        require(_owner != owner, \"same owner address\");\r\n        isOwner[_owner] = true;\r\n        owner = _owner;\r\n    }\r\n}",
  "sourcePath": "C:/Users/cheek/Desktop/Developer doc/Visual Studio Code/PundiX/purseRewardBSC/src/contracts/NPXSXEMigration.sol",
  "compiler": {
    "name": "solc",
    "version": "0.8.7+commit.e28d00a7.Emscripten.clang"
  },
  "schemaVersion": "3.2.3",
  "updatedAt": "2021-10-25T03:21:00.287Z",
  "networkType": "ethereum",
  "devdoc": {
    "kind": "dev",
    "methods": {},
    "version": 1
  },
  "userdoc": {
    "kind": "user",
    "methods": {},
    "version": 1
  }
}