{
  "contractName": "NPXSXEMigration",
  "abi": [
    {
      "inputs": [
        {
          "internalType": "address",
          "name": "_npxsxemToken",
          "type": "address"
        },
        {
          "internalType": "contract IERC20",
          "name": "_purseToken",
          "type": "address"
        }
      ],
      "stateMutability": "nonpayable",
      "type": "constructor"
    },
    {
      "anonymous": false,
      "inputs": [
        {
          "indexed": false,
          "internalType": "uint256",
          "name": "migrateIndex",
          "type": "uint256"
        },
        {
          "indexed": true,
          "internalType": "address",
          "name": "_from",
          "type": "address"
        },
        {
          "indexed": false,
          "internalType": "address",
          "name": "_to",
          "type": "address"
        },
        {
          "indexed": false,
          "internalType": "uint256",
          "name": "value",
          "type": "uint256"
        }
      ],
      "name": "Migrate",
      "type": "event"
    },
    {
      "inputs": [],
      "name": "endMigration",
      "outputs": [
        {
          "internalType": "uint256",
          "name": "",
          "type": "uint256"
        }
      ],
      "stateMutability": "view",
      "type": "function",
      "constant": true
    },
    {
      "inputs": [
        {
          "internalType": "uint256",
          "name": "",
          "type": "uint256"
        },
        {
          "internalType": "uint256",
          "name": "",
          "type": "uint256"
        }
      ],
      "name": "isAirdrop",
      "outputs": [
        {
          "internalType": "bool",
          "name": "",
          "type": "bool"
        }
      ],
      "stateMutability": "view",
      "type": "function",
      "constant": true
    },
    {
      "inputs": [],
      "name": "isMigrationStart",
      "outputs": [
        {
          "internalType": "bool",
          "name": "",
          "type": "bool"
        }
      ],
      "stateMutability": "view",
      "type": "function",
      "constant": true
    },
    {
      "inputs": [
        {
          "internalType": "address",
          "name": "",
          "type": "address"
        }
      ],
      "name": "isOwner",
      "outputs": [
        {
          "internalType": "bool",
          "name": "",
          "type": "bool"
        }
      ],
      "stateMutability": "view",
      "type": "function",
      "constant": true
    },
    {
      "inputs": [],
      "name": "migrateIndex",
      "outputs": [
        {
          "internalType": "uint256",
          "name": "",
          "type": "uint256"
        }
      ],
      "stateMutability": "view",
      "type": "function",
      "constant": true
    },
    {
      "inputs": [
        {
          "internalType": "uint256",
          "name": "",
          "type": "uint256"
        }
      ],
      "name": "migration",
      "outputs": [
        {
          "internalType": "uint256",
          "name": "migrateIndex",
          "type": "uint256"
        },
        {
          "internalType": "address",
          "name": "migrator",
          "type": "address"
        },
        {
          "internalType": "address",
          "name": "to",
          "type": "address"
        },
        {
          "internalType": "uint256",
          "name": "migrateBalance",
          "type": "uint256"
        }
      ],
      "stateMutability": "view",
      "type": "function",
      "constant": true
    },
    {
      "inputs": [],
      "name": "name",
      "outputs": [
        {
          "internalType": "string",
          "name": "",
          "type": "string"
        }
      ],
      "stateMutability": "view",
      "type": "function",
      "constant": true
    },
    {
      "inputs": [],
      "name": "npxsxemToken",
      "outputs": [
        {
          "internalType": "address",
          "name": "",
          "type": "address"
        }
      ],
      "stateMutability": "view",
      "type": "function",
      "constant": true
    },
    {
      "inputs": [],
      "name": "owner",
      "outputs": [
        {
          "internalType": "address",
          "name": "",
          "type": "address"
        }
      ],
      "stateMutability": "view",
      "type": "function",
      "constant": true
    },
    {
      "inputs": [],
      "name": "purseToken",
      "outputs": [
        {
          "internalType": "contract IERC20",
          "name": "",
          "type": "address"
        }
      ],
      "stateMutability": "view",
      "type": "function",
      "constant": true
    },
    {
      "inputs": [],
      "name": "validDuration",
      "outputs": [
        {
          "internalType": "uint256",
          "name": "",
          "type": "uint256"
        }
      ],
      "stateMutability": "view",
      "type": "function",
      "constant": true
    },
    {
      "inputs": [
        {
          "internalType": "address",
          "name": "_to",
          "type": "address"
        },
        {
          "internalType": "uint256",
          "name": "_amount",
          "type": "uint256"
        }
      ],
      "name": "migrateNPXSXEM",
      "outputs": [],
      "stateMutability": "nonpayable",
      "type": "function"
    },
    {
      "inputs": [
        {
          "internalType": "bool",
          "name": "check",
          "type": "bool"
        },
        {
          "internalType": "uint256",
          "name": "_startMigrate",
          "type": "uint256"
        }
      ],
      "name": "startMigration",
      "outputs": [],
      "stateMutability": "nonpayable",
      "type": "function"
    },
    {
      "inputs": [
        {
          "internalType": "uint256",
          "name": "_endMigration",
          "type": "uint256"
        }
      ],
      "name": "updateEndMigration",
      "outputs": [],
      "stateMutability": "nonpayable",
      "type": "function"
    },
    {
      "inputs": [
        {
          "internalType": "uint256",
          "name": "start",
          "type": "uint256"
        },
        {
          "internalType": "uint256",
          "name": "end",
          "type": "uint256"
        },
        {
          "internalType": "uint256",
          "name": "airdropIndex",
          "type": "uint256"
        }
      ],
      "name": "airDrop",
      "outputs": [],
      "stateMutability": "nonpayable",
      "type": "function"
    },
    {
      "inputs": [
        {
          "internalType": "address",
          "name": "_to",
          "type": "address"
        }
      ],
      "name": "returnPurseToken",
      "outputs": [],
      "stateMutability": "nonpayable",
      "type": "function"
    },
    {
      "inputs": [
        {
          "internalType": "address",
          "name": "token",
          "type": "address"
        },
        {
          "internalType": "uint256",
          "name": "amount",
          "type": "uint256"
        },
        {
          "internalType": "address",
          "name": "_to",
          "type": "address"
        }
      ],
      "name": "returnAnyToken",
      "outputs": [],
      "stateMutability": "nonpayable",
      "type": "function"
    },
    {
      "inputs": [
        {
          "internalType": "address",
          "name": "_owner",
          "type": "address"
        }
      ],
      "name": "updateOwner",
      "outputs": [],
      "stateMutability": "nonpayable",
      "type": "function"
    }
  ],
  "bytecode": "0x60c0604052601160808190527027282c29ac22a69026b4b3b930ba34b7b760791b60a0908152620000349160009190620000bd565b503480156200004257600080fd5b50604051620011b2380380620011b2833981016040819052620000659162000163565b336000818152600760205260409020805460ff19166001908117909155600480546001600160a01b0319908116909317905580546001600160a01b0394851690831617905560028054929093169116179055620001f8565b828054620000cb90620001a2565b90600052602060002090601f016020900481019282620000ef57600085556200013a565b82601f106200010a57805160ff19168380011785556200013a565b828001600101855582156200013a579182015b828111156200013a5782518255916020019190600101906200011d565b50620001489291506200014c565b5090565b5b808211156200014857600081556001016200014d565b600080604083850312156200017757600080fd5b82516200018481620001df565b60208401519092506200019781620001df565b809150509250929050565b600181811c90821680620001b757607f821691505b60208210811415620001d957634e487b7160e01b600052602260045260246000fd5b50919050565b6001600160a01b0381168114620001f557600080fd5b50565b610faa80620002086000396000f3fe608060405234801561001057600080fd5b50600436106101165760003560e01c8063880cdc31116100a2578063c237e32611610071578063c237e32614610264578063e640d86214610277578063f09de43f146102e9578063f3939723146102fc578063fee9866c1461030f57600080fd5b8063880cdc31146102075780638da5cb5b1461021a578063a286f8e11461022d578063b2d374701461025b57600080fd5b80632f54bf6e116100e95780632f54bf6e146101a05780634b28eea7146101c357806351bf16ef146101d85780636c525d04146101eb57806382d3c17d146101f457600080fd5b806306fdde031461011b5780630713f1b614610139578063244828581461015d5780632948ff4114610188575b600080fd5b610123610322565b6040516101309190610e26565b60405180910390f35b60045461014d90600160a01b900460ff1681565b6040519015158152602001610130565b600154610170906001600160a01b031681565b6040516001600160a01b039091168152602001610130565b6101926277f88081565b604051908152602001610130565b61014d6101ae366004610ce3565b60076020526000908152604090205460ff1681565b6101d66101d1366004610d88565b6103b0565b005b600254610170906001600160a01b031681565b61019260035481565b6101d6610202366004610da6565b610426565b6101d6610215366004610ce3565b61045a565b600454610170906001600160a01b031681565b61014d61023b366004610dd8565b600860209081526000928352604080842090915290825290205460ff1681565b61019260055481565b6101d6610272366004610d2f565b61055d565b6102b9610285366004610da6565b600660205260009081526040902080546001820154600283015460039093015491926001600160a01b039182169291169084565b60405161013094939291909384526001600160a01b03928316602085015291166040830152606082015260800190565b6101d66102f7366004610ce3565b610665565b6101d661030a366004610d05565b6107ee565b6101d661031d366004610dfa565b610b3b565b6000805461032f90610ef7565b80601f016020809104026020016040519081016040528092919081815260200182805461035b90610ef7565b80156103a85780601f1061037d576101008083540402835291602001916103a8565b820191906000526020600020905b81548152906001019060200180831161038b57829003601f168201915b505050505081565b3360009081526007602052604090205460ff166103e85760405162461bcd60e51b81526004016103df90610e7b565b60405180910390fd5b8115610415576103fb6277f88082610e9e565b6003556004805460ff60a01b1916600160a01b1790555050565b6004805460ff60a01b191690555050565b3360009081526007602052604090205460ff166104555760405162461bcd60e51b81526004016103df90610e7b565b600355565b3360009081526007602052604090205460ff166104895760405162461bcd60e51b81526004016103df90610e7b565b6001600160a01b0381166104d35760405162461bcd60e51b81526020600482015260116024820152706e6f742076616c6964206164647265737360781b60448201526064016103df565b6004546001600160a01b03828116911614156105265760405162461bcd60e51b815260206004820152601260248201527173616d65206f776e6572206164647265737360701b60448201526064016103df565b6001600160a01b03166000818152600760205260409020805460ff19166001179055600480546001600160a01b0319169091179055565b3360009081526007602052604090205460ff1661058c5760405162461bcd60e51b81526004016103df90610e7b565b6001600160a01b0381166105dd5760405162461bcd60e51b815260206004820152601860248201527773656e6420746f20746865207a65726f206164647265737360401b60448201526064016103df565b60405163a9059cbb60e01b81526001600160a01b0382811660048301526024820184905284169063a9059cbb90604401602060405180830381600087803b15801561062757600080fd5b505af115801561063b573d6000803e3d6000fd5b505050506040513d601f19601f8201168201806040525081019061065f9190610d6b565b50505050565b3360009081526007602052604090205460ff166106945760405162461bcd60e51b81526004016103df90610e7b565b6001600160a01b0381166106e55760405162461bcd60e51b815260206004820152601860248201527773656e6420746f20746865207a65726f206164647265737360401b60448201526064016103df565b6002546040516370a0823160e01b81523060048201526000916001600160a01b0316906370a082319060240160206040518083038186803b15801561072957600080fd5b505afa15801561073d573d6000803e3d6000fd5b505050506040513d601f19601f820116820180604052508101906107619190610dbf565b60025460405163a9059cbb60e01b81526001600160a01b0385811660048301526024820184905292935091169063a9059cbb90604401602060405180830381600087803b1580156107b157600080fd5b505af11580156107c5573d6000803e3d6000fd5b505050506040513d601f19601f820116820180604052508101906107e99190610d6b565b505050565b600454600160a01b900460ff16151560011461080957600080fd5b6002546040516370a0823160e01b81523060048201526000916001600160a01b0316906370a082319060240160206040518083038186803b15801561084d57600080fd5b505afa158015610861573d6000803e3d6000fd5b505050506040513d601f19601f820116820180604052508101906108859190610dbf565b90506003544211156108d15760405162461bcd60e51b815260206004820152601560248201527426b4b3b930ba34b7b7103bb4b73237bb9037bb32b960591b60448201526064016103df565b600082116108de57600080fd5b818110156108eb57600080fd5b600060646108fa84600c610ed8565b6109049190610eb6565b6001546040516323b872dd60e01b8152336004820152306024820152604481018690529192506001600160a01b0316906323b872dd90606401602060405180830381600087803b15801561095757600080fd5b505af115801561096b573d6000803e3d6000fd5b505050506040513d601f19601f8201168201806040525081019061098f9190610d6b565b50604080516080810182526005548082523360208084019182526001600160a01b03898116858701908152606086018a8152600095865260069093529584209451855591516001850180549184166001600160a01b0319928316179055945160028501805491909316951694909417905591516003909101555b600b811015610a485760055460009081526008602090815260408083208484529091529020805460ff1916905580610a4081610f32565b915050610a09565b5060025460405163a9059cbb60e01b81526001600160a01b038681166004830152602482018490529091169063a9059cbb90604401602060405180830381600087803b158015610a9757600080fd5b505af1158015610aab573d6000803e3d6000fd5b505050506040513d601f19601f82011682018060405250810190610acf9190610d6b565b50600554604080519182526001600160a01b0386166020830152810184905233907f53a871c29c111546fa4a56d438d4db74ce48762942459053889518f7f573309e9060600160405180910390a2600160056000828254610b309190610e9e565b909155505050505050565b3360009081526007602052604090205460ff16610b6a5760405162461bcd60e51b81526004016103df90610e7b565b8183108015610b7b57506005548211155b610b8457600080fd5b600b81108015610b92575060015b610b9b57600080fd5b825b8281101561065f57600081815260086020908152604080832085845290915290205460ff16610cb557600081815260066020526040812060028101546003909101546001600160a01b039091169190606490610bfa906008610ed8565b610c049190610eb6565b600084815260086020908152604080832088845290915290819020805460ff19166001179055600254905163a9059cbb60e01b81526001600160a01b0385811660048301526024820184905292935091169063a9059cbb90604401602060405180830381600087803b158015610c7957600080fd5b505af1158015610c8d573d6000803e3d6000fd5b505050506040513d601f19601f82011682018060405250810190610cb19190610d6b565b5050505b80610cbf81610f32565b915050610b9d565b80356001600160a01b0381168114610cde57600080fd5b919050565b600060208284031215610cf557600080fd5b610cfe82610cc7565b9392505050565b60008060408385031215610d1857600080fd5b610d2183610cc7565b946020939093013593505050565b600080600060608486031215610d4457600080fd5b610d4d84610cc7565b925060208401359150610d6260408501610cc7565b90509250925092565b600060208284031215610d7d57600080fd5b8151610cfe81610f63565b60008060408385031215610d9b57600080fd5b8235610d2181610f63565b600060208284031215610db857600080fd5b5035919050565b600060208284031215610dd157600080fd5b5051919050565b60008060408385031215610deb57600080fd5b50508035926020909101359150565b600080600060608486031215610e0f57600080fd5b505081359360208301359350604090920135919050565b600060208083528351808285015260005b81811015610e5357858101830151858201604001528201610e37565b81811115610e65576000604083870101525b50601f01601f1916929092016040019392505050565b6020808252600990820152683737ba1037bbb732b960b91b604082015260600190565b60008219821115610eb157610eb1610f4d565b500190565b600082610ed357634e487b7160e01b600052601260045260246000fd5b500490565b6000816000190483118215151615610ef257610ef2610f4d565b500290565b600181811c90821680610f0b57607f821691505b60208210811415610f2c57634e487b7160e01b600052602260045260246000fd5b50919050565b6000600019821415610f4657610f46610f4d565b5060010190565b634e487b7160e01b600052601160045260246000fd5b8015158114610f7157600080fd5b5056fea2646970667358221220a36967601182dfa0745f0edd69b5656e71d9be4abb0767137e05fe4323da579d64736f6c63430008070033",
  "immutableReferences": {},
  "source": "// SPDX-License-Identifier: UNLICENSED\r\n\r\npragma solidity ^0.8.0;\r\n\r\nimport \"@openzeppelin/contracts/token/ERC20/IERC20.sol\";\r\n\r\ncontract NPXSXEMigration {\r\n    event Migrate (uint256 migrateIndex, address indexed _from, address _to,  uint256 value);\r\n\r\n    string public name = \"NPXSXEM Migration\";\r\n    address public npxsxemToken;\r\n    IERC20 public purseToken;\r\n    uint256 public constant validDuration = 91 days;\r\n    uint256 public endMigration;\r\n    address public owner;\r\n    bool public isMigrationStart;\r\n\r\n    uint256 public migrateIndex;\r\n    mapping(uint256 => MigratorInfo) public migration;  //index->times   \r\n    mapping(address => bool) public isOwner;\r\n    mapping(uint256 => mapping(uint256 => bool)) public isAirdrop;\r\n\r\n    struct MigratorInfo {\r\n        uint256 migrateIndex;\r\n        address migrator;\r\n        address to;\r\n        uint256 migrateBalance;\r\n    }\r\n\r\n    modifier onlyOwner() {\r\n        require(isOwner[msg.sender], \"not owner\");\r\n        _;\r\n    }\r\n\r\n    constructor(address _npxsxemToken, IERC20 _purseToken) {\r\n        isOwner[msg.sender] = true;\r\n        owner = msg.sender;\r\n        npxsxemToken = _npxsxemToken;\r\n        purseToken = _purseToken;\r\n    }\r\n\r\n    function migrateNPXSXEM(address _to, uint256 _amount) public {    \r\n        require (isMigrationStart == true);\r\n        uint256 remainingAmount = purseToken.balanceOf(address(this)); \r\n        require(block.timestamp <= endMigration, \"Migration window over\");\r\n        require(_amount > 0);\r\n        require(remainingAmount >=_amount);\r\n\r\n        uint256 transferAmount = (_amount * 12) / 100;\r\n        IERC20(npxsxemToken).transferFrom(msg.sender, address(this), _amount);\r\n\r\n        migration[migrateIndex] = MigratorInfo(migrateIndex, msg.sender, _to, _amount);\r\n        for (uint256 i = 0; i < 11; i++) {\r\n            isAirdrop[migrateIndex][i] = false;\r\n        }\r\n        purseToken.transfer(_to, transferAmount);\r\n\r\n        emit Migrate(migrateIndex, msg.sender, _to, _amount);\r\n        migrateIndex += 1;\r\n    }\r\n    \r\n    function startMigration(bool check, uint256 _startMigrate) public onlyOwner {\r\n        if (check) {\r\n            endMigration = _startMigrate + validDuration;\r\n            isMigrationStart = true;\r\n        } else {\r\n            isMigrationStart = false;\r\n        }\r\n    }\r\n\r\n    function updateEndMigration(uint256 _endMigration) public onlyOwner {\r\n        endMigration = _endMigration;\r\n    }\r\n\r\n    function airDrop(uint256 start, uint256 end, uint256 airdropIndex) public onlyOwner {\r\n        require(start < end && end <= migrateIndex );\r\n        require(airdropIndex < 11 && airdropIndex >= 0) ;\r\n        for (uint256 i = start; i < end; i++) {\r\n            if (isAirdrop[i][airdropIndex] == false) {\r\n                address recipient = migration[i].to;\r\n                uint256 amount = migration[i].migrateBalance * 8 / 100;\r\n                isAirdrop[i][airdropIndex] = true;\r\n                purseToken.transfer(recipient, amount);                \r\n            }\r\n        }\r\n    }\r\n    \r\n    function returnPurseToken(address _to) public onlyOwner {\r\n        require(_to != address(0), \"send to the zero address\");\r\n        uint256 remainingAmount = purseToken.balanceOf(address(this));\r\n        purseToken.transfer(_to, remainingAmount);\r\n    }\r\n    \r\n    function returnAnyToken(address token, uint256 amount, address _to) public onlyOwner {\r\n        require(_to != address(0), \"send to the zero address\");\r\n        IERC20(token).transfer(_to, amount);\r\n    }\r\n\r\n    function updateOwner(address _owner) public onlyOwner{\r\n        require(_owner != address(0), \"not valid address\");\r\n        require(_owner != owner, \"same owner address\");\r\n        isOwner[_owner] = true;\r\n        owner = _owner;\r\n    } \r\n}\r\n",
  "sourcePath": "C:/Users/cheek/Desktop/Developer doc/Visual Studio Code/PundiX/purseRewardBSC/src/contracts/NPXSXEMigration.sol",
  "compiler": {
    "name": "solc",
    "version": "0.8.7+commit.e28d00a7.Emscripten.clang"
  },
  "schemaVersion": "3.2.3",
  "updatedAt": "2021-10-11T10:34:37.735Z",
  "networkType": "ethereum",
  "devdoc": {
    "kind": "dev",
    "methods": {},
    "version": 1
  },
  "userdoc": {
    "kind": "user",
    "methods": {},
    "version": 1
  }
}