{
  "contractName": "NPXSXEMigrationMulSig",
  "abi": [
    {
      "inputs": [
        {
          "internalType": "contract PurseTokenMultiSigUpgradable",
          "name": "_purseToken",
          "type": "address"
        },
        {
          "internalType": "address[]",
          "name": "_owners",
          "type": "address[]"
        },
        {
          "internalType": "address[]",
          "name": "_admins",
          "type": "address[]"
        },
        {
          "internalType": "uint256",
          "name": "_numConfirmationsRequired",
          "type": "uint256"
        }
      ],
      "stateMutability": "nonpayable",
      "type": "constructor"
    },
    {
      "anonymous": false,
      "inputs": [
        {
          "indexed": true,
          "internalType": "address",
          "name": "owner",
          "type": "address"
        },
        {
          "indexed": true,
          "internalType": "uint256",
          "name": "txIndex",
          "type": "uint256"
        }
      ],
      "name": "ConfirmTransaction",
      "type": "event"
    },
    {
      "anonymous": false,
      "inputs": [
        {
          "indexed": true,
          "internalType": "address",
          "name": "owner",
          "type": "address"
        },
        {
          "indexed": true,
          "internalType": "uint256",
          "name": "txIndex",
          "type": "uint256"
        }
      ],
      "name": "ExecuteTransaction",
      "type": "event"
    },
    {
      "anonymous": false,
      "inputs": [
        {
          "indexed": true,
          "internalType": "address",
          "name": "owner",
          "type": "address"
        },
        {
          "indexed": true,
          "internalType": "uint256",
          "name": "txIndex",
          "type": "uint256"
        }
      ],
      "name": "RevokeConfirmation",
      "type": "event"
    },
    {
      "anonymous": false,
      "inputs": [
        {
          "indexed": false,
          "internalType": "address",
          "name": "owner",
          "type": "address"
        },
        {
          "indexed": true,
          "internalType": "uint256",
          "name": "txIndex",
          "type": "uint256"
        },
        {
          "indexed": true,
          "internalType": "string",
          "name": "_from",
          "type": "string"
        },
        {
          "indexed": true,
          "internalType": "address",
          "name": "to",
          "type": "address"
        },
        {
          "indexed": false,
          "internalType": "uint16",
          "name": "nonce",
          "type": "uint16"
        },
        {
          "indexed": false,
          "internalType": "uint256",
          "name": "value",
          "type": "uint256"
        }
      ],
      "name": "SubmitTransaction",
      "type": "event"
    },
    {
      "inputs": [
        {
          "internalType": "uint256",
          "name": "",
          "type": "uint256"
        }
      ],
      "name": "admins",
      "outputs": [
        {
          "internalType": "address",
          "name": "",
          "type": "address"
        }
      ],
      "stateMutability": "view",
      "type": "function",
      "constant": true
    },
    {
      "inputs": [
        {
          "internalType": "address",
          "name": "",
          "type": "address"
        }
      ],
      "name": "isAdmin",
      "outputs": [
        {
          "internalType": "bool",
          "name": "",
          "type": "bool"
        }
      ],
      "stateMutability": "view",
      "type": "function",
      "constant": true
    },
    {
      "inputs": [
        {
          "internalType": "uint256",
          "name": "",
          "type": "uint256"
        },
        {
          "internalType": "address",
          "name": "",
          "type": "address"
        }
      ],
      "name": "isConfirmed",
      "outputs": [
        {
          "internalType": "bool",
          "name": "",
          "type": "bool"
        }
      ],
      "stateMutability": "view",
      "type": "function",
      "constant": true
    },
    {
      "inputs": [
        {
          "internalType": "address",
          "name": "",
          "type": "address"
        }
      ],
      "name": "isOwner",
      "outputs": [
        {
          "internalType": "bool",
          "name": "",
          "type": "bool"
        }
      ],
      "stateMutability": "view",
      "type": "function",
      "constant": true
    },
    {
      "inputs": [],
      "name": "name",
      "outputs": [
        {
          "internalType": "string",
          "name": "",
          "type": "string"
        }
      ],
      "stateMutability": "view",
      "type": "function",
      "constant": true
    },
    {
      "inputs": [
        {
          "internalType": "string",
          "name": "",
          "type": "string"
        },
        {
          "internalType": "uint16",
          "name": "",
          "type": "uint16"
        }
      ],
      "name": "nonceCheck",
      "outputs": [
        {
          "internalType": "bool",
          "name": "",
          "type": "bool"
        }
      ],
      "stateMutability": "view",
      "type": "function",
      "constant": true
    },
    {
      "inputs": [],
      "name": "numConfirmationsRequired",
      "outputs": [
        {
          "internalType": "uint256",
          "name": "",
          "type": "uint256"
        }
      ],
      "stateMutability": "view",
      "type": "function",
      "constant": true
    },
    {
      "inputs": [
        {
          "internalType": "uint256",
          "name": "",
          "type": "uint256"
        }
      ],
      "name": "owners",
      "outputs": [
        {
          "internalType": "address",
          "name": "",
          "type": "address"
        }
      ],
      "stateMutability": "view",
      "type": "function",
      "constant": true
    },
    {
      "inputs": [],
      "name": "purseToken",
      "outputs": [
        {
          "internalType": "contract PurseTokenMultiSigUpgradable",
          "name": "",
          "type": "address"
        }
      ],
      "stateMutability": "view",
      "type": "function",
      "constant": true
    },
    {
      "inputs": [],
      "name": "transactionIndex",
      "outputs": [
        {
          "internalType": "uint256",
          "name": "",
          "type": "uint256"
        }
      ],
      "stateMutability": "view",
      "type": "function",
      "constant": true
    },
    {
      "inputs": [
        {
          "internalType": "uint256",
          "name": "",
          "type": "uint256"
        }
      ],
      "name": "transactions",
      "outputs": [
        {
          "internalType": "string",
          "name": "from",
          "type": "string"
        },
        {
          "internalType": "address",
          "name": "to",
          "type": "address"
        },
        {
          "internalType": "uint16",
          "name": "nonce",
          "type": "uint16"
        },
        {
          "internalType": "uint256",
          "name": "value",
          "type": "uint256"
        },
        {
          "internalType": "bool",
          "name": "executed",
          "type": "bool"
        },
        {
          "internalType": "uint256",
          "name": "numConfirmations",
          "type": "uint256"
        }
      ],
      "stateMutability": "view",
      "type": "function",
      "constant": true
    },
    {
      "inputs": [
        {
          "internalType": "uint256",
          "name": "",
          "type": "uint256"
        }
      ],
      "name": "txExist",
      "outputs": [
        {
          "internalType": "bool",
          "name": "",
          "type": "bool"
        }
      ],
      "stateMutability": "view",
      "type": "function",
      "constant": true
    },
    {
      "inputs": [
        {
          "internalType": "string",
          "name": "_from",
          "type": "string"
        },
        {
          "internalType": "address",
          "name": "_to",
          "type": "address"
        },
        {
          "internalType": "uint16",
          "name": "_nonce",
          "type": "uint16"
        },
        {
          "internalType": "uint256",
          "name": "_value",
          "type": "uint256"
        }
      ],
      "name": "submitTransaction",
      "outputs": [],
      "stateMutability": "nonpayable",
      "type": "function"
    },
    {
      "inputs": [
        {
          "internalType": "uint256",
          "name": "_txIndex",
          "type": "uint256"
        }
      ],
      "name": "confirmTransaction",
      "outputs": [],
      "stateMutability": "nonpayable",
      "type": "function"
    },
    {
      "inputs": [
        {
          "internalType": "uint256",
          "name": "_txIndex",
          "type": "uint256"
        }
      ],
      "name": "executeTransaction",
      "outputs": [],
      "stateMutability": "nonpayable",
      "type": "function"
    },
    {
      "inputs": [
        {
          "internalType": "uint256",
          "name": "_txIndex",
          "type": "uint256"
        }
      ],
      "name": "revokeConfirmation",
      "outputs": [],
      "stateMutability": "nonpayable",
      "type": "function"
    },
    {
      "inputs": [],
      "name": "getOwners",
      "outputs": [
        {
          "internalType": "address[]",
          "name": "",
          "type": "address[]"
        }
      ],
      "stateMutability": "view",
      "type": "function",
      "constant": true
    },
    {
      "inputs": [],
      "name": "getAdmins",
      "outputs": [
        {
          "internalType": "address[]",
          "name": "",
          "type": "address[]"
        }
      ],
      "stateMutability": "view",
      "type": "function",
      "constant": true
    },
    {
      "inputs": [],
      "name": "getTransactionCount",
      "outputs": [
        {
          "internalType": "uint256",
          "name": "",
          "type": "uint256"
        }
      ],
      "stateMutability": "view",
      "type": "function",
      "constant": true
    },
    {
      "inputs": [
        {
          "internalType": "uint256",
          "name": "_txIndex",
          "type": "uint256"
        }
      ],
      "name": "getTransaction",
      "outputs": [
        {
          "internalType": "address",
          "name": "to",
          "type": "address"
        },
        {
          "internalType": "uint256",
          "name": "value",
          "type": "uint256"
        },
        {
          "internalType": "bool",
          "name": "executed",
          "type": "bool"
        },
        {
          "internalType": "uint256",
          "name": "numConfirmations",
          "type": "uint256"
        }
      ],
      "stateMutability": "view",
      "type": "function",
      "constant": true
    },
    {
      "inputs": [
        {
          "internalType": "address",
          "name": "_admin",
          "type": "address"
        }
      ],
      "name": "addAdmins",
      "outputs": [],
      "stateMutability": "nonpayable",
      "type": "function"
    },
    {
      "inputs": [
        {
          "internalType": "uint256",
          "name": "index",
          "type": "uint256"
        }
      ],
      "name": "removeAdmins",
      "outputs": [
        {
          "internalType": "address[]",
          "name": "",
          "type": "address[]"
        }
      ],
      "stateMutability": "nonpayable",
      "type": "function"
    },
    {
      "inputs": [
        {
          "internalType": "address",
          "name": "_owner",
          "type": "address"
        }
      ],
      "name": "addOwners",
      "outputs": [],
      "stateMutability": "nonpayable",
      "type": "function"
    },
    {
      "inputs": [
        {
          "internalType": "uint256",
          "name": "index",
          "type": "uint256"
        }
      ],
      "name": "removeOwners",
      "outputs": [
        {
          "internalType": "address[]",
          "name": "",
          "type": "address[]"
        }
      ],
      "stateMutability": "nonpayable",
      "type": "function"
    }
  ],
  "bytecode": "0x60806040526040518060400160405280601181526020017f4e50585358454d204d6967726174696f6e000000000000000000000000000000815250600090805190602001906200005192919062000622565b503480156200005f57600080fd5b50604051620042ab380380620042ab8339818101604052810190620000859190620007b9565b6000835111620000cc576040517f08c379a0000000000000000000000000000000000000000000000000000000008152600401620000c3906200098a565b60405180910390fd5b600082511162000113576040517f08c379a00000000000000000000000000000000000000000000000000000000081526004016200010a90620009ce565b60405180910390fd5b60008111801562000125575082518111155b62000167576040517f08c379a00000000000000000000000000000000000000000000000000000000081526004016200015e9062000a34565b60405180910390fd5b60005b83518110156200038f576000848281518110620001b0577f4e487b7100000000000000000000000000000000000000000000000000000000600052603260045260246000fd5b60200260200101519050600073ffffffffffffffffffffffffffffffffffffffff168173ffffffffffffffffffffffffffffffffffffffff1614156200022d576040517f08c379a00000000000000000000000000000000000000000000000000000000081526004016200022490620009f0565b60405180910390fd5b600760008273ffffffffffffffffffffffffffffffffffffffff1673ffffffffffffffffffffffffffffffffffffffff16815260200190815260200160002060009054906101000a900460ff1615620002bd576040517f08c379a0000000000000000000000000000000000000000000000000000000008152600401620002b49062000968565b60405180910390fd5b6001600760008373ffffffffffffffffffffffffffffffffffffffff1673ffffffffffffffffffffffffffffffffffffffff16815260200190815260200160002060006101000a81548160ff0219169083151502179055506005819080600181540180825580915050600190039060005260206000200160009091909190916101000a81548173ffffffffffffffffffffffffffffffffffffffff021916908373ffffffffffffffffffffffffffffffffffffffff160217905550508080620003869062000bda565b9150506200016a565b5060005b8251811015620005b8576000838281518110620003d9577f4e487b7100000000000000000000000000000000000000000000000000000000600052603260045260246000fd5b60200260200101519050600073ffffffffffffffffffffffffffffffffffffffff168173ffffffffffffffffffffffffffffffffffffffff16141562000456576040517f08c379a00000000000000000000000000000000000000000000000000000000081526004016200044d9062000a12565b60405180910390fd5b600860008273ffffffffffffffffffffffffffffffffffffffff1673ffffffffffffffffffffffffffffffffffffffff16815260200190815260200160002060009054906101000a900460ff1615620004e6576040517f08c379a0000000000000000000000000000000000000000000000000000000008152600401620004dd90620009ac565b60405180910390fd5b6001600860008373ffffffffffffffffffffffffffffffffffffffff1673ffffffffffffffffffffffffffffffffffffffff16815260200190815260200160002060006101000a81548160ff0219169083151502179055506006819080600181540180825580915050600190039060005260206000200160009091909190916101000a81548173ffffffffffffffffffffffffffffffffffffffff021916908373ffffffffffffffffffffffffffffffffffffffff160217905550508080620005af9062000bda565b91505062000393565b5083600160006101000a81548173ffffffffffffffffffffffffffffffffffffffff021916908373ffffffffffffffffffffffffffffffffffffffff160217905550806002819055506276a7004262000612919062000abf565b6004819055505050505062000e59565b828054620006309062000b6e565b90600052602060002090601f016020900481019282620006545760008555620006a0565b82601f106200066f57805160ff1916838001178555620006a0565b82800160010185558215620006a0579182015b828111156200069f57825182559160200191906001019062000682565b5b509050620006af9190620006b3565b5090565b5b80821115620006ce576000816000905550600101620006b4565b5090565b6000620006e9620006e38462000a7f565b62000a56565b905080838252602082019050828560208602820111156200070957600080fd5b60005b858110156200073d578162000722888262000747565b8452602084019350602083019250506001810190506200070c565b5050509392505050565b600081519050620007588162000e0b565b92915050565b600082601f8301126200077057600080fd5b815162000782848260208601620006d2565b91505092915050565b6000815190506200079c8162000e25565b92915050565b600081519050620007b38162000e3f565b92915050565b60008060008060808587031215620007d057600080fd5b6000620007e0878288016200078b565b945050602085015167ffffffffffffffff811115620007fe57600080fd5b6200080c878288016200075e565b935050604085015167ffffffffffffffff8111156200082a57600080fd5b62000838878288016200075e565b92505060606200084b87828801620007a2565b91505092959194509250565b60006200086660108362000aae565b9150620008738262000cc6565b602082019050919050565b60006200088d600f8362000aae565b91506200089a8262000cef565b602082019050919050565b6000620008b460108362000aae565b9150620008c18262000d18565b602082019050919050565b6000620008db600f8362000aae565b9150620008e88262000d41565b602082019050919050565b600062000902600d8362000aae565b91506200090f8262000d6a565b602082019050919050565b600062000929600d8362000aae565b9150620009368262000d93565b602082019050919050565b60006200095060288362000aae565b91506200095d8262000dbc565b604082019050919050565b60006020820190508181036000830152620009838162000857565b9050919050565b60006020820190508181036000830152620009a5816200087e565b9050919050565b60006020820190508181036000830152620009c781620008a5565b9050919050565b60006020820190508181036000830152620009e981620008cc565b9050919050565b6000602082019050818103600083015262000a0b81620008f3565b9050919050565b6000602082019050818103600083015262000a2d816200091a565b9050919050565b6000602082019050818103600083015262000a4f8162000941565b9050919050565b600062000a6262000a75565b905062000a70828262000ba4565b919050565b6000604051905090565b600067ffffffffffffffff82111562000a9d5762000a9c62000c86565b5b602082029050602081019050919050565b600082825260208201905092915050565b600062000acc8262000b64565b915062000ad98362000b64565b9250827fffffffffffffffffffffffffffffffffffffffffffffffffffffffffffffffff0382111562000b115762000b1062000c28565b5b828201905092915050565b600062000b298262000b44565b9050919050565b600062000b3d8262000b1c565b9050919050565b600073ffffffffffffffffffffffffffffffffffffffff82169050919050565b6000819050919050565b6000600282049050600182168062000b8757607f821691505b6020821081141562000b9e5762000b9d62000c57565b5b50919050565b62000baf8262000cb5565b810181811067ffffffffffffffff8211171562000bd15762000bd062000c86565b5b80604052505050565b600062000be78262000b64565b91507fffffffffffffffffffffffffffffffffffffffffffffffffffffffffffffffff82141562000c1d5762000c1c62000c28565b5b600182019050919050565b7f4e487b7100000000000000000000000000000000000000000000000000000000600052601160045260246000fd5b7f4e487b7100000000000000000000000000000000000000000000000000000000600052602260045260246000fd5b7f4e487b7100000000000000000000000000000000000000000000000000000000600052604160045260246000fd5b6000601f19601f8301169050919050565b7f6f776e6572206e6f7420756e6971756500000000000000000000000000000000600082015250565b7f6f776e6572732072657175697265640000000000000000000000000000000000600082015250565b7f61646d696e206e6f7420756e6971756500000000000000000000000000000000600082015250565b7f61646d696e732072657175697265640000000000000000000000000000000000600082015250565b7f696e76616c6964206f776e657200000000000000000000000000000000000000600082015250565b7f696e76616c69642061646d696e00000000000000000000000000000000000000600082015250565b7f696e76616c6964206e756d626572206f6620726571756972656420636f6e666960008201527f726d6174696f6e73000000000000000000000000000000000000000000000000602082015250565b62000e168162000b1c565b811462000e2257600080fd5b50565b62000e308162000b30565b811462000e3c57600080fd5b50565b62000e4a8162000b64565b811462000e5657600080fd5b50565b6134428062000e696000396000f3fe608060405234801561001057600080fd5b50600436106101585760003560e01c80635f3b1f3b116100c3578063c01a8c841161007c578063c01a8c8414610431578063d030db6a1461044d578063d0549b851461047d578063e304f6ee1461049b578063e33e952c146104b7578063ee22610b146104d357610158565b80635f3b1f3b146103445780637bb88c891461036057806380f59a65146103905780639ace38c2146103c0578063a0e67e2b146103f5578063b8220f6a1461041357610158565b80632f54bf6e116101155780632f54bf6e1461024557806331ae450b1461027557806333ea3dc814610293578063381c88d1146102c657806351bf16ef146102f657806354a45c911461031457610158565b8063025e7c271461015d57806306fdde031461018d57806314bfd6d0146101ab57806320ea8d86146101db57806324d7806c146101f75780632e7700f014610227575b600080fd5b61017760048036038101906101729190612719565b6104ef565b6040516101849190612aaf565b60405180910390f35b61019561052e565b6040516101a29190612bc7565b60405180910390f35b6101c560048036038101906101c09190612719565b6105bc565b6040516101d29190612aaf565b60405180910390f35b6101f560048036038101906101f09190612719565b6105fb565b005b610211600480360381019061020c91906125f3565b6108ca565b60405161021e9190612b91565b60405180910390f35b61022f6108ea565b60405161023c9190612e11565b60405180910390f35b61025f600480360381019061025a91906125f3565b6108f4565b60405161026c9190612b91565b60405180910390f35b61027d610914565b60405161028a9190612b6f565b60405180910390f35b6102ad60048036038101906102a89190612719565b6109a2565b6040516102bd9493929190612b2a565b60405180910390f35b6102e060048036038101906102db91906126c5565b610a40565b6040516102ed9190612b91565b60405180910390f35b6102fe610a85565b60405161030b9190612bac565b60405180910390f35b61032e60048036038101906103299190612719565b610aab565b60405161033b9190612b6f565b60405180910390f35b61035e600480360381019061035991906125f3565b610f5f565b005b61037a60048036038101906103759190612719565b6111a6565b6040516103879190612b91565b60405180910390f35b6103aa60048036038101906103a59190612742565b6111c6565b6040516103b79190612b91565b60405180910390f35b6103da60048036038101906103d59190612719565b6111f5565b6040516103ec96959493929190612be9565b60405180910390f35b6103fd6112f4565b60405161040a9190612b6f565b60405180910390f35b61041b611382565b6040516104289190612e11565b60405180910390f35b61044b60048036038101906104469190612719565b611388565b005b61046760048036038101906104629190612719565b61165a565b6040516104749190612b6f565b60405180910390f35b610485611b0e565b6040516104929190612e11565b60405180910390f35b6104b560048036038101906104b091906125f3565b611b14565b005b6104d160048036038101906104cc9190612645565b611d5b565b005b6104ed60048036038101906104e89190612719565b612123565b005b600581815481106104ff57600080fd5b906000526020600020016000915054906101000a900473ffffffffffffffffffffffffffffffffffffffff1681565b6000805461053b90613028565b80601f016020809104026020016040519081016040528092919081815260200182805461056790613028565b80156105b45780601f10610589576101008083540402835291602001916105b4565b820191906000526020600020905b81548152906001019060200180831161059757829003601f168201915b505050505081565b600681815481106105cc57600080fd5b906000526020600020016000915054906101000a900473ffffffffffffffffffffffffffffffffffffffff1681565b600760003373ffffffffffffffffffffffffffffffffffffffff1673ffffffffffffffffffffffffffffffffffffffff16815260200190815260200160002060009054906101000a900460ff16610687576040517f08c379a000000000000000000000000000000000000000000000000000000000815260040161067e90612dd1565b60405180910390fd5b80600a600082815260200190815260200160002060009054906101000a900460ff166106e8576040517f08c379a00000000000000000000000000000000000000000000000000000000081526004016106df90612cb1565b60405180910390fd5b81600c600082815260200190815260200160002060030160009054906101000a900460ff161561074d576040517f08c379a000000000000000000000000000000000000000000000000000000000815260040161074490612d31565b60405180910390fd5b6009600084815260200190815260200160002060003373ffffffffffffffffffffffffffffffffffffffff1673ffffffffffffffffffffffffffffffffffffffff16815260200190815260200160002060009054906101000a900460ff166107ea576040517f08c379a00000000000000000000000000000000000000000000000000000000081526004016107e190612d51565b60405180910390fd5b6001600c600085815260200190815260200160002060040160008282546108119190612f38565b9250508190555060006009600085815260200190815260200160002060003373ffffffffffffffffffffffffffffffffffffffff1673ffffffffffffffffffffffffffffffffffffffff16815260200190815260200160002060006101000a81548160ff021916908315150217905550823373ffffffffffffffffffffffffffffffffffffffff167ff0dca620e2e81f7841d07bcc105e1704fb01475b278a9d4c236e1c62945edd5560405160405180910390a3505050565b60086020528060005260406000206000915054906101000a900460ff1681565b6000600354905090565b60076020528060005260406000206000915054906101000a900460ff1681565b6060600680548060200260200160405190810160405280929190818152602001828054801561099857602002820191906000526020600020905b8160009054906101000a900473ffffffffffffffffffffffffffffffffffffffff1673ffffffffffffffffffffffffffffffffffffffff168152602001906001019080831161094e575b5050505050905090565b600080600080600c600086815260200190815260200160002060010160009054906101000a900473ffffffffffffffffffffffffffffffffffffffff16600c600087815260200190815260200160002060020154600c600088815260200190815260200160002060030160009054906101000a900460ff16600c60008981526020019081526020016000206004015493509350935093509193509193565b600b828051602081018201805184825260208301602085012081835280955050505050506020528060005260406000206000915091509054906101000a900460ff1681565b600160009054906101000a900473ffffffffffffffffffffffffffffffffffffffff1681565b6060600760003373ffffffffffffffffffffffffffffffffffffffff1673ffffffffffffffffffffffffffffffffffffffff16815260200190815260200160002060009054906101000a900460ff16610b39576040517f08c379a0000000000000000000000000000000000000000000000000000000008152600401610b3090612dd1565b60405180910390fd5b600060068381548110610b75577f4e487b7100000000000000000000000000000000000000000000000000000000600052603260045260246000fd5b9060005260206000200160009054906101000a900473ffffffffffffffffffffffffffffffffffffffff1690506006805490508310610be9576040517f08c379a0000000000000000000000000000000000000000000000000000000008152600401610be090612d91565b60405180910390fd5b600073ffffffffffffffffffffffffffffffffffffffff168173ffffffffffffffffffffffffffffffffffffffff161415610c59576040517f08c379a0000000000000000000000000000000000000000000000000000000008152600401610c5090612cf1565b60405180910390fd5b600860008273ffffffffffffffffffffffffffffffffffffffff1673ffffffffffffffffffffffffffffffffffffffff16815260200190815260200160002060009054906101000a900460ff16610ce5576040517f08c379a0000000000000000000000000000000000000000000000000000000008152600401610cdc90612d71565b60405180910390fd5b60008390505b6001600680549050610cfd9190612f38565b811015610e0a576006600182610d139190612ee2565b81548110610d4a577f4e487b7100000000000000000000000000000000000000000000000000000000600052603260045260246000fd5b9060005260206000200160009054906101000a900473ffffffffffffffffffffffffffffffffffffffff1660068281548110610daf577f4e487b7100000000000000000000000000000000000000000000000000000000600052603260045260246000fd5b9060005260206000200160006101000a81548173ffffffffffffffffffffffffffffffffffffffff021916908373ffffffffffffffffffffffffffffffffffffffff1602179055508080610e029061308b565b915050610ceb565b506006805480610e43577f4e487b7100000000000000000000000000000000000000000000000000000000600052603160045260246000fd5b6001900381819060005260206000200160006101000a81549073ffffffffffffffffffffffffffffffffffffffff021916905590556000600860008373ffffffffffffffffffffffffffffffffffffffff1673ffffffffffffffffffffffffffffffffffffffff16815260200190815260200160002060006101000a81548160ff0219169083151502179055506006805480602002602001604051908101604052809291908181526020018280548015610f5257602002820191906000526020600020905b8160009054906101000a900473ffffffffffffffffffffffffffffffffffffffff1673ffffffffffffffffffffffffffffffffffffffff1681526020019060010190808311610f08575b5050505050915050919050565b600760003373ffffffffffffffffffffffffffffffffffffffff1673ffffffffffffffffffffffffffffffffffffffff16815260200190815260200160002060009054906101000a900460ff16610feb576040517f08c379a0000000000000000000000000000000000000000000000000000000008152600401610fe290612dd1565b60405180910390fd5b600073ffffffffffffffffffffffffffffffffffffffff168173ffffffffffffffffffffffffffffffffffffffff16141561105b576040517f08c379a000000000000000000000000000000000000000000000000000000000815260040161105290612c91565b60405180910390fd5b600760008273ffffffffffffffffffffffffffffffffffffffff1673ffffffffffffffffffffffffffffffffffffffff16815260200190815260200160002060009054906101000a900460ff16156110e8576040517f08c379a00000000000000000000000000000000000000000000000000000000081526004016110df90612c51565b60405180910390fd5b6001600760008373ffffffffffffffffffffffffffffffffffffffff1673ffffffffffffffffffffffffffffffffffffffff16815260200190815260200160002060006101000a81548160ff0219169083151502179055506005819080600181540180825580915050600190039060005260206000200160009091909190916101000a81548173ffffffffffffffffffffffffffffffffffffffff021916908373ffffffffffffffffffffffffffffffffffffffff16021790555050565b600a6020528060005260406000206000915054906101000a900460ff1681565b60096020528160005260406000206020528060005260406000206000915091509054906101000a900460ff1681565b600c60205280600052604060002060009150905080600001805461121890613028565b80601f016020809104026020016040519081016040528092919081815260200182805461124490613028565b80156112915780601f1061126657610100808354040283529160200191611291565b820191906000526020600020905b81548152906001019060200180831161127457829003601f168201915b5050505050908060010160009054906101000a900473ffffffffffffffffffffffffffffffffffffffff16908060010160149054906101000a900461ffff16908060020154908060030160009054906101000a900460ff16908060040154905086565b6060600580548060200260200160405190810160405280929190818152602001828054801561137857602002820191906000526020600020905b8160009054906101000a900473ffffffffffffffffffffffffffffffffffffffff1673ffffffffffffffffffffffffffffffffffffffff168152602001906001019080831161132e575b5050505050905090565b60035481565b600760003373ffffffffffffffffffffffffffffffffffffffff1673ffffffffffffffffffffffffffffffffffffffff16815260200190815260200160002060009054906101000a900460ff16611414576040517f08c379a000000000000000000000000000000000000000000000000000000000815260040161140b90612dd1565b60405180910390fd5b80600a600082815260200190815260200160002060009054906101000a900460ff16611475576040517f08c379a000000000000000000000000000000000000000000000000000000000815260040161146c90612cb1565b60405180910390fd5b81600c600082815260200190815260200160002060030160009054906101000a900460ff16156114da576040517f08c379a00000000000000000000000000000000000000000000000000000000081526004016114d190612d31565b60405180910390fd5b826009600082815260200190815260200160002060003373ffffffffffffffffffffffffffffffffffffffff1673ffffffffffffffffffffffffffffffffffffffff16815260200190815260200160002060009054906101000a900460ff1615611579576040517f08c379a000000000000000000000000000000000000000000000000000000000815260040161157090612cd1565b60405180910390fd5b6001600c600086815260200190815260200160002060040160008282546115a09190612ee2565b9250508190555060016009600086815260200190815260200160002060003373ffffffffffffffffffffffffffffffffffffffff1673ffffffffffffffffffffffffffffffffffffffff16815260200190815260200160002060006101000a81548160ff021916908315150217905550833373ffffffffffffffffffffffffffffffffffffffff167f5cbe105e36805f7820e291f799d5794ff948af2a5f664e580382defb6339004160405160405180910390a350505050565b6060600760003373ffffffffffffffffffffffffffffffffffffffff1673ffffffffffffffffffffffffffffffffffffffff16815260200190815260200160002060009054906101000a900460ff166116e8576040517f08c379a00000000000000000000000000000000000000000000000000000000081526004016116df90612dd1565b60405180910390fd5b600060058381548110611724577f4e487b7100000000000000000000000000000000000000000000000000000000600052603260045260246000fd5b9060005260206000200160009054906101000a900473ffffffffffffffffffffffffffffffffffffffff1690506005805490508310611798576040517f08c379a000000000000000000000000000000000000000000000000000000000815260040161178f90612d91565b60405180910390fd5b600073ffffffffffffffffffffffffffffffffffffffff168173ffffffffffffffffffffffffffffffffffffffff161415611808576040517f08c379a00000000000000000000000000000000000000000000000000000000081526004016117ff90612c91565b60405180910390fd5b600760008273ffffffffffffffffffffffffffffffffffffffff1673ffffffffffffffffffffffffffffffffffffffff16815260200190815260200160002060009054906101000a900460ff16611894576040517f08c379a000000000000000000000000000000000000000000000000000000000815260040161188b90612dd1565b60405180910390fd5b60008390505b60016005805490506118ac9190612f38565b8110156119b95760056001826118c29190612ee2565b815481106118f9577f4e487b7100000000000000000000000000000000000000000000000000000000600052603260045260246000fd5b9060005260206000200160009054906101000a900473ffffffffffffffffffffffffffffffffffffffff166005828154811061195e577f4e487b7100000000000000000000000000000000000000000000000000000000600052603260045260246000fd5b9060005260206000200160006101000a81548173ffffffffffffffffffffffffffffffffffffffff021916908373ffffffffffffffffffffffffffffffffffffffff16021790555080806119b19061308b565b91505061189a565b5060058054806119f2577f4e487b7100000000000000000000000000000000000000000000000000000000600052603160045260246000fd5b6001900381819060005260206000200160006101000a81549073ffffffffffffffffffffffffffffffffffffffff021916905590556000600760008373ffffffffffffffffffffffffffffffffffffffff1673ffffffffffffffffffffffffffffffffffffffff16815260200190815260200160002060006101000a81548160ff0219169083151502179055506005805480602002602001604051908101604052809291908181526020018280548015611b0157602002820191906000526020600020905b8160009054906101000a900473ffffffffffffffffffffffffffffffffffffffff1673ffffffffffffffffffffffffffffffffffffffff1681526020019060010190808311611ab7575b5050505050915050919050565b60025481565b600760003373ffffffffffffffffffffffffffffffffffffffff1673ffffffffffffffffffffffffffffffffffffffff16815260200190815260200160002060009054906101000a900460ff16611ba0576040517f08c379a0000000000000000000000000000000000000000000000000000000008152600401611b9790612dd1565b60405180910390fd5b600073ffffffffffffffffffffffffffffffffffffffff168173ffffffffffffffffffffffffffffffffffffffff161415611c10576040517f08c379a0000000000000000000000000000000000000000000000000000000008152600401611c0790612cf1565b60405180910390fd5b600860008273ffffffffffffffffffffffffffffffffffffffff1673ffffffffffffffffffffffffffffffffffffffff16815260200190815260200160002060009054906101000a900460ff1615611c9d576040517f08c379a0000000000000000000000000000000000000000000000000000000008152600401611c9490612c71565b60405180910390fd5b6001600860008373ffffffffffffffffffffffffffffffffffffffff1673ffffffffffffffffffffffffffffffffffffffff16815260200190815260200160002060006101000a81548160ff0219169083151502179055506006819080600181540180825580915050600190039060005260206000200160009091909190916101000a81548173ffffffffffffffffffffffffffffffffffffffff021916908373ffffffffffffffffffffffffffffffffffffffff16021790555050565b600860003373ffffffffffffffffffffffffffffffffffffffff1673ffffffffffffffffffffffffffffffffffffffff16815260200190815260200160002060009054906101000a900460ff16611de7576040517f08c379a0000000000000000000000000000000000000000000000000000000008152600401611dde90612d71565b60405180910390fd5b600454421115611e2c576040517f08c379a0000000000000000000000000000000000000000000000000000000008152600401611e2390612d11565b60405180910390fd5b600b8585604051611e3e929190612a96565b908152602001604051809103902060008361ffff1661ffff16815260200190815260200160002060009054906101000a900460ff1615611eb3576040517f08c379a0000000000000000000000000000000000000000000000000000000008152600401611eaa90612df1565b60405180910390fd5b6040518060c0016040528086868080601f016020809104026020016040519081016040528093929190818152602001838380828437600081840152601f19601f8201169050808301925050505050505081526020018473ffffffffffffffffffffffffffffffffffffffff1681526020018361ffff1681526020018281526020016000151581526020016000815250600c600060035481526020019081526020016000206000820151816000019080519060200190611f7392919061244a565b5060208201518160010160006101000a81548173ffffffffffffffffffffffffffffffffffffffff021916908373ffffffffffffffffffffffffffffffffffffffff16021790555060408201518160010160146101000a81548161ffff021916908361ffff1602179055506060820151816002015560808201518160030160006101000a81548160ff02191690831515021790555060a082015181600401559050506001600a6000600354815260200190815260200160002060006101000a81548160ff0219169083151502179055506001600b8686604051612057929190612a96565b908152602001604051809103902060008461ffff1661ffff16815260200190815260200160002060006101000a81548160ff0219169083151502179055508273ffffffffffffffffffffffffffffffffffffffff1685856040516120bc929190612a96565b60405180910390206003547f2cd61f13f4318cd7038a2f449f80124f7f20df2f940c88b855ec3ce8686afd1b3386866040516120fa93929190612aca565b60405180910390a46001600360008282546121159190612ee2565b925050819055505050505050565b600760003373ffffffffffffffffffffffffffffffffffffffff1673ffffffffffffffffffffffffffffffffffffffff16815260200190815260200160002060009054906101000a900460ff166121af576040517f08c379a00000000000000000000000000000000000000000000000000000000081526004016121a690612dd1565b60405180910390fd5b80600a600082815260200190815260200160002060009054906101000a900460ff16612210576040517f08c379a000000000000000000000000000000000000000000000000000000000815260040161220790612cb1565b60405180910390fd5b81600c600082815260200190815260200160002060030160009054906101000a900460ff1615612275576040517f08c379a000000000000000000000000000000000000000000000000000000000815260040161226c90612d31565b60405180910390fd5b600254600c60008581526020019081526020016000206004015410156122d0576040517f08c379a00000000000000000000000000000000000000000000000000000000081526004016122c790612db1565b60405180910390fd5b6001600c600085815260200190815260200160002060030160006101000a81548160ff0219169083151502179055506000600c6000858152602001908152602001600020600201549050600160009054906101000a900473ffffffffffffffffffffffffffffffffffffffff1673ffffffffffffffffffffffffffffffffffffffff1663a9059cbb600c600087815260200190815260200160002060010160009054906101000a900473ffffffffffffffffffffffffffffffffffffffff16836040518363ffffffff1660e01b81526004016123ad929190612b01565b602060405180830381600087803b1580156123c757600080fd5b505af11580156123db573d6000803e3d6000fd5b505050506040513d601f19601f820116820180604052508101906123ff919061261c565b50833373ffffffffffffffffffffffffffffffffffffffff167f5445f318f4f5fcfb66592e68e0cc5822aa15664039bd5f0ffde24c5a8142b1ac60405160405180910390a350505050565b82805461245690613028565b90600052602060002090601f01602090048101928261247857600085556124bf565b82601f1061249157805160ff19168380011785556124bf565b828001600101855582156124bf579182015b828111156124be5782518255916020019190600101906124a3565b5b5090506124cc91906124d0565b5090565b5b808211156124e95760008160009055506001016124d1565b5090565b60006125006124fb84612e51565b612e2c565b90508281526020810184848401111561251857600080fd5b612523848285612fe6565b509392505050565b60008135905061253a816133b0565b92915050565b60008151905061254f816133c7565b92915050565b60008083601f84011261256757600080fd5b8235905067ffffffffffffffff81111561258057600080fd5b60208301915083600182028301111561259857600080fd5b9250929050565b600082601f8301126125b057600080fd5b81356125c08482602086016124ed565b91505092915050565b6000813590506125d8816133de565b92915050565b6000813590506125ed816133f5565b92915050565b60006020828403121561260557600080fd5b60006126138482850161252b565b91505092915050565b60006020828403121561262e57600080fd5b600061263c84828501612540565b91505092915050565b60008060008060006080868803121561265d57600080fd5b600086013567ffffffffffffffff81111561267757600080fd5b61268388828901612555565b955095505060206126968882890161252b565b93505060406126a7888289016125c9565b92505060606126b8888289016125de565b9150509295509295909350565b600080604083850312156126d857600080fd5b600083013567ffffffffffffffff8111156126f257600080fd5b6126fe8582860161259f565b925050602061270f858286016125c9565b9150509250929050565b60006020828403121561272b57600080fd5b6000612739848285016125de565b91505092915050565b6000806040838503121561275557600080fd5b6000612763858286016125de565b92505060206127748582860161252b565b9150509250929050565b600061278a8383612796565b60208301905092915050565b61279f81612f6c565b82525050565b6127ae81612f6c565b82525050565b60006127bf82612e92565b6127c98185612eb5565b93506127d483612e82565b8060005b838110156128055781516127ec888261277e565b97506127f783612ea8565b9250506001810190506127d8565b5085935050505092915050565b61281b81612f7e565b82525050565b61282a81612fc2565b82525050565b600061283c8385612ed7565b9350612849838584612fe6565b82840190509392505050565b600061286082612e9d565b61286a8185612ec6565b935061287a818560208601612ff5565b61288381613161565b840191505092915050565b600061289b601083612ec6565b91506128a682613172565b602082019050919050565b60006128be601083612ec6565b91506128c98261319b565b602082019050919050565b60006128e1600d83612ec6565b91506128ec826131c4565b602082019050919050565b6000612904601183612ec6565b915061290f826131ed565b602082019050919050565b6000612927601483612ec6565b915061293282613216565b602082019050919050565b600061294a600d83612ec6565b91506129558261323f565b602082019050919050565b600061296d601583612ec6565b915061297882613268565b602082019050919050565b6000612990601383612ec6565b915061299b82613291565b602082019050919050565b60006129b3601083612ec6565b91506129be826132ba565b602082019050919050565b60006129d6600983612ec6565b91506129e1826132e3565b602082019050919050565b60006129f9600d83612ec6565b9150612a048261330c565b602082019050919050565b6000612a1c601183612ec6565b9150612a2782613335565b602082019050919050565b6000612a3f600983612ec6565b9150612a4a8261335e565b602082019050919050565b6000612a62601d83612ec6565b9150612a6d82613387565b602082019050919050565b612a8181612f8a565b82525050565b612a9081612fb8565b82525050565b6000612aa3828486612830565b91508190509392505050565b6000602082019050612ac460008301846127a5565b92915050565b6000606082019050612adf60008301866127a5565b612aec6020830185612a78565b612af96040830184612a87565b949350505050565b6000604082019050612b1660008301856127a5565b612b236020830184612a87565b9392505050565b6000608082019050612b3f60008301876127a5565b612b4c6020830186612a87565b612b596040830185612812565b612b666060830184612a87565b95945050505050565b60006020820190508181036000830152612b8981846127b4565b905092915050565b6000602082019050612ba66000830184612812565b92915050565b6000602082019050612bc16000830184612821565b92915050565b60006020820190508181036000830152612be18184612855565b905092915050565b600060c0820190508181036000830152612c038189612855565b9050612c1260208301886127a5565b612c1f6040830187612a78565b612c2c6060830186612a87565b612c396080830185612812565b612c4660a0830184612a87565b979650505050505050565b60006020820190508181036000830152612c6a8161288e565b9050919050565b60006020820190508181036000830152612c8a816128b1565b9050919050565b60006020820190508181036000830152612caa816128d4565b9050919050565b60006020820190508181036000830152612cca816128f7565b9050919050565b60006020820190508181036000830152612cea8161291a565b9050919050565b60006020820190508181036000830152612d0a8161293d565b9050919050565b60006020820190508181036000830152612d2a81612960565b9050919050565b60006020820190508181036000830152612d4a81612983565b9050919050565b60006020820190508181036000830152612d6a816129a6565b9050919050565b60006020820190508181036000830152612d8a816129c9565b9050919050565b60006020820190508181036000830152612daa816129ec565b9050919050565b60006020820190508181036000830152612dca81612a0f565b9050919050565b60006020820190508181036000830152612dea81612a32565b9050919050565b60006020820190508181036000830152612e0a81612a55565b9050919050565b6000602082019050612e266000830184612a87565b92915050565b6000612e36612e47565b9050612e42828261305a565b919050565b6000604051905090565b600067ffffffffffffffff821115612e6c57612e6b613132565b5b612e7582613161565b9050602081019050919050565b6000819050602082019050919050565b600081519050919050565b600081519050919050565b6000602082019050919050565b600082825260208201905092915050565b600082825260208201905092915050565b600081905092915050565b6000612eed82612fb8565b9150612ef883612fb8565b9250827fffffffffffffffffffffffffffffffffffffffffffffffffffffffffffffffff03821115612f2d57612f2c6130d4565b5b828201905092915050565b6000612f4382612fb8565b9150612f4e83612fb8565b925082821015612f6157612f606130d4565b5b828203905092915050565b6000612f7782612f98565b9050919050565b60008115159050919050565b600061ffff82169050919050565b600073ffffffffffffffffffffffffffffffffffffffff82169050919050565b6000819050919050565b6000612fcd82612fd4565b9050919050565b6000612fdf82612f98565b9050919050565b82818337600083830152505050565b60005b83811015613013578082015181840152602081019050612ff8565b83811115613022576000848401525b50505050565b6000600282049050600182168061304057607f821691505b6020821081141561305457613053613103565b5b50919050565b61306382613161565b810181811067ffffffffffffffff8211171561308257613081613132565b5b80604052505050565b600061309682612fb8565b91507fffffffffffffffffffffffffffffffffffffffffffffffffffffffffffffffff8214156130c9576130c86130d4565b5b600182019050919050565b7f4e487b7100000000000000000000000000000000000000000000000000000000600052601160045260246000fd5b7f4e487b7100000000000000000000000000000000000000000000000000000000600052602260045260246000fd5b7f4e487b7100000000000000000000000000000000000000000000000000000000600052604160045260246000fd5b6000601f19601f8301169050919050565b7f6f776e6572206e6f7420756e6971756500000000000000000000000000000000600082015250565b7f61646d696e206e6f7420756e6971756500000000000000000000000000000000600082015250565b7f696e76616c6964206f776e657200000000000000000000000000000000000000600082015250565b7f747820646f6573206e6f74206578697374000000000000000000000000000000600082015250565b7f747820616c726561647920636f6e6669726d6564000000000000000000000000600082015250565b7f696e76616c69642061646d696e00000000000000000000000000000000000000600082015250565b7f4d6967726174696f6e2077696e646f77206f7665720000000000000000000000600082015250565b7f747820616c726561647920657865637574656400000000000000000000000000600082015250565b7f7478206e6f7420636f6e6669726d656400000000000000000000000000000000600082015250565b7f6e6f742061646d696e0000000000000000000000000000000000000000000000600082015250565b7f696e76616c696420696e64657800000000000000000000000000000000000000600082015250565b7f63616e6e6f742065786563757465207478000000000000000000000000000000600082015250565b7f6e6f74206f776e65720000000000000000000000000000000000000000000000600082015250565b7f6e6f6e63652065786973742066726f6d2073616d652061646472657373000000600082015250565b6133b981612f6c565b81146133c457600080fd5b50565b6133d081612f7e565b81146133db57600080fd5b50565b6133e781612f8a565b81146133f257600080fd5b50565b6133fe81612fb8565b811461340957600080fd5b5056fea2646970667358221220510461e8d368a23367746b4bacb58838210d87205e75cf0baa348497b65ff44964736f6c63430008030033",
  "immutableReferences": {},
  "source": "// SPDX-License-Identifier: UNLICENSED\r\n\r\npragma solidity ^0.8.0;\r\n\r\nimport \"./PurseTokenMultiSigUpgradable.sol\";\r\n\r\ncontract NPXSXEMigrationMulSig {\r\n    event SubmitTransaction(address owner, uint indexed txIndex, string indexed _from, address indexed to, uint16 nonce, uint value);\r\n    event ConfirmTransaction(address indexed owner, uint indexed txIndex);\r\n    event RevokeConfirmation(address indexed owner, uint indexed txIndex);\r\n    event ExecuteTransaction(address indexed owner, uint indexed txIndex);\r\n    \r\n    string public name = \"NPXSXEM Migration\";\r\n    PurseTokenMultiSigUpgradable public purseToken;\r\n    uint public numConfirmationsRequired;\r\n    uint public transactionIndex;\r\n    uint256 internal migrationEnd;\r\n    address[] public owners;\r\n    address[] public admins;\r\n    mapping(address => bool) public isOwner;\r\n    mapping(address => bool) public isAdmin;\r\n    // mapping from tx index => owner => bool\r\n    mapping(uint => mapping(address => bool)) public isConfirmed;\r\n    mapping(uint => bool) public txExist;\r\n    mapping(string => mapping(uint16 => bool)) public nonceCheck;\r\n    mapping(uint => Transaction) public transactions;\r\n    \r\n    \r\n    struct Transaction {\r\n        string from;\r\n        address to;\r\n        uint16 nonce;\r\n        uint value;\r\n        bool executed;\r\n        uint numConfirmations;\r\n    }\r\n\r\n    modifier onlyOwner() {\r\n        require(isOwner[msg.sender], \"not owner\");\r\n        _;\r\n    }\r\n\r\n    modifier onlyAdmin() {\r\n        require(isAdmin[msg.sender], \"not admin\");\r\n        _;\r\n    }\r\n\r\n    modifier txExists(uint _txIndex) {\r\n        require(txExist[_txIndex], \"tx does not exist\");\r\n        _;\r\n    }\r\n\r\n    modifier notExecuted(uint _txIndex) {\r\n        require(!transactions[_txIndex].executed, \"tx already executed\");\r\n        _;\r\n    }\r\n\r\n    modifier notConfirmed(uint _txIndex) {\r\n        require(!isConfirmed[_txIndex][msg.sender], \"tx already confirmed\");\r\n        _;\r\n    }\r\n\r\n    constructor(PurseTokenMultiSigUpgradable _purseToken, address[] memory _owners, address[] memory _admins, uint _numConfirmationsRequired) {\r\n        require(_owners.length > 0, \"owners required\");\r\n        require(_admins.length > 0, \"admins required\");\r\n        require(\r\n            _numConfirmationsRequired > 0 &&\r\n                _numConfirmationsRequired <= _owners.length,\r\n            \"invalid number of required confirmations\"\r\n        );\r\n\r\n        for (uint i = 0; i < _owners.length; i++) {\r\n            address owner = _owners[i];\r\n\r\n            require(owner != address(0), \"invalid owner\");\r\n            require(!isOwner[owner], \"owner not unique\");\r\n\r\n            isOwner[owner] = true;\r\n            owners.push(owner);\r\n        }\r\n        for (uint i = 0; i < _admins.length; i++) {\r\n            address admin = _admins[i];\r\n\r\n            require(admin != address(0), \"invalid admin\");\r\n            require(!isAdmin[admin], \"admin not unique\");\r\n\r\n            isAdmin[admin] = true;\r\n            admins.push(admin);\r\n        }\r\n        purseToken = _purseToken;\r\n        numConfirmationsRequired = _numConfirmationsRequired;\r\n        migrationEnd = block.timestamp + 90 days;\r\n    }\r\n\r\n    function submitTransaction(string calldata _from, address _to, uint16 _nonce, uint _value) public onlyAdmin {\r\n        require(block.timestamp <= migrationEnd, \"Migration window over\");\r\n        require(!nonceCheck[_from][_nonce], \"nonce exist from same address\");\r\n        transactions[transactionIndex] = Transaction(_from, _to, _nonce,  _value, false, 0 );\r\n        txExist[transactionIndex] = true;\r\n        nonceCheck[_from][_nonce] = true;\r\n        emit SubmitTransaction(msg.sender, transactionIndex, _from, _to, _nonce, _value);\r\n        transactionIndex +=1;\r\n    }\r\n\r\n    function confirmTransaction(uint _txIndex) public onlyOwner txExists(_txIndex) notExecuted(_txIndex) notConfirmed(_txIndex) {\r\n\r\n        transactions[_txIndex].numConfirmations += 1;\r\n        isConfirmed[_txIndex][msg.sender] = true;\r\n\r\n        emit ConfirmTransaction(msg.sender, _txIndex);\r\n    }\r\n\r\n    function executeTransaction(uint _txIndex) public onlyOwner txExists(_txIndex) notExecuted(_txIndex) {\r\n\r\n        require(transactions[_txIndex].numConfirmations >= numConfirmationsRequired, \"cannot execute tx\");\r\n        transactions[_txIndex].executed = true;\r\n        uint256 transferAmount = transactions[_txIndex].value;\r\n        purseToken.transfer(transactions[_txIndex].to, transferAmount);\r\n\r\n        emit ExecuteTransaction(msg.sender, _txIndex);\r\n    }\r\n\r\n    function revokeConfirmation(uint _txIndex) public onlyOwner txExists(_txIndex) notExecuted(_txIndex) {\r\n\r\n        require(isConfirmed[_txIndex][msg.sender], \"tx not confirmed\");\r\n\r\n        transactions[_txIndex].numConfirmations -= 1;\r\n        isConfirmed[_txIndex][msg.sender] = false;\r\n\r\n        emit RevokeConfirmation(msg.sender, _txIndex);\r\n    }\r\n\r\n    function getOwners() public view returns (address[] memory) {\r\n        return owners;\r\n    }\r\n\r\n    function getAdmins() public view returns (address[] memory) {\r\n        return admins;\r\n    }\r\n\r\n    function getTransactionCount() public view returns (uint) {\r\n        return transactionIndex;\r\n    }\r\n\r\n    function getTransaction(uint _txIndex) public view returns (address to, uint value, bool executed, uint numConfirmations ) {\r\n        return (\r\n            transactions[_txIndex].to,\r\n            transactions[_txIndex].value,\r\n            transactions[_txIndex].executed,\r\n            transactions[_txIndex].numConfirmations\r\n        );\r\n    }\r\n\r\n    function addAdmins(address _admin) public onlyOwner{\r\n        require(_admin != address(0), \"invalid admin\");\r\n        require(!isAdmin[_admin], \"admin not unique\");\r\n        \r\n        isAdmin[_admin] = true;\r\n        admins.push(_admin);\r\n    }\r\n\r\n    function removeAdmins(uint index) public onlyOwner returns (address[] memory){\r\n        address removeAdmin = admins[index];\r\n        require(index < admins.length, \"invalid index\");\r\n        require(removeAdmin != address(0), \"invalid admin\");\r\n        require(isAdmin[removeAdmin], \"not admin\");\r\n\r\n        for (uint i = index; i<admins.length-1; i++){\r\n            admins[i] = admins[i+1];\r\n        }\r\n        \r\n        admins.pop();\r\n        isAdmin[removeAdmin] = false;\r\n\r\n        return admins;\r\n    }\r\n\r\n    function addOwners(address _owner) public onlyOwner{\r\n        require(_owner != address(0), \"invalid owner\");\r\n        require(!isOwner[_owner], \"owner not unique\");\r\n        \r\n        isOwner[_owner] = true;\r\n        owners.push(_owner);\r\n    }\r\n\r\n    function removeOwners(uint index) public onlyOwner returns (address[] memory){\r\n        address removeOwner = owners[index];\r\n        require(index < owners.length, \"invalid index\");\r\n        require(removeOwner != address(0), \"invalid owner\");\r\n        require(isOwner[removeOwner], \"not owner\");\r\n        \r\n        for (uint i = index; i<owners.length-1; i++){\r\n            owners[i] = owners[i+1];\r\n        }\r\n        owners.pop();\r\n\r\n        isOwner[removeOwner] = false;\r\n        return owners;\r\n    }\r\n}\r\n",
  "sourcePath": "C:/Users/cheek/Desktop/Developer doc/Visual Studio Code/PundiX/PurseReward/YieldFarm_BridgeEthBsc/src/contracts/NPXSXEMigrationMulSig.sol",
  "compiler": {
    "name": "solc",
    "version": "0.8.3+commit.8d00100c.Emscripten.clang"
  },
  "schemaVersion": "3.2.3",
  "updatedAt": "2021-08-29T11:09:38.164Z",
  "networkType": "ethereum",
  "devdoc": {
    "kind": "dev",
    "methods": {},
    "version": 1
  },
  "userdoc": {
    "kind": "user",
    "methods": {},
    "version": 1
  }
}