{
  "contractName": "NPXSXEMigrationMulSig",
  "abi": [
    {
      "inputs": [
        {
          "internalType": "contract PurseTokenMultiSigUpgradable",
          "name": "_purseToken",
          "type": "address"
        },
        {
          "internalType": "address[]",
          "name": "_owners",
          "type": "address[]"
        },
        {
          "internalType": "address[]",
          "name": "_admins",
          "type": "address[]"
        },
        {
          "internalType": "uint256",
          "name": "_numConfirmationsRequired",
          "type": "uint256"
        }
      ],
      "stateMutability": "nonpayable",
      "type": "constructor"
    },
    {
      "anonymous": false,
      "inputs": [
        {
          "indexed": true,
          "internalType": "address",
          "name": "owner",
          "type": "address"
        },
        {
          "indexed": true,
          "internalType": "uint256",
          "name": "txIndex",
          "type": "uint256"
        }
      ],
      "name": "ConfirmTransaction",
      "type": "event"
    },
    {
      "anonymous": false,
      "inputs": [
        {
          "indexed": true,
          "internalType": "address",
          "name": "owner",
          "type": "address"
        },
        {
          "indexed": true,
          "internalType": "uint256",
          "name": "txIndex",
          "type": "uint256"
        }
      ],
      "name": "ExecuteTransaction",
      "type": "event"
    },
    {
      "anonymous": false,
      "inputs": [
        {
          "indexed": true,
          "internalType": "address",
          "name": "owner",
          "type": "address"
        },
        {
          "indexed": true,
          "internalType": "uint256",
          "name": "txIndex",
          "type": "uint256"
        }
      ],
      "name": "RevokeConfirmation",
      "type": "event"
    },
    {
      "anonymous": false,
      "inputs": [
        {
          "indexed": true,
          "internalType": "address",
          "name": "owner",
          "type": "address"
        },
        {
          "indexed": true,
          "internalType": "uint256",
          "name": "txIndex",
          "type": "uint256"
        },
        {
          "indexed": true,
          "internalType": "address",
          "name": "to",
          "type": "address"
        },
        {
          "indexed": false,
          "internalType": "uint256",
          "name": "value",
          "type": "uint256"
        }
      ],
      "name": "SubmitTransaction",
      "type": "event"
    },
    {
      "inputs": [
        {
          "internalType": "uint256",
          "name": "",
          "type": "uint256"
        }
      ],
      "name": "admins",
      "outputs": [
        {
          "internalType": "address",
          "name": "",
          "type": "address"
        }
      ],
      "stateMutability": "view",
      "type": "function",
      "constant": true
    },
    {
      "inputs": [
        {
          "internalType": "address",
          "name": "",
          "type": "address"
        }
      ],
      "name": "isAdmin",
      "outputs": [
        {
          "internalType": "bool",
          "name": "",
          "type": "bool"
        }
      ],
      "stateMutability": "view",
      "type": "function",
      "constant": true
    },
    {
      "inputs": [
        {
          "internalType": "uint256",
          "name": "",
          "type": "uint256"
        },
        {
          "internalType": "address",
          "name": "",
          "type": "address"
        }
      ],
      "name": "isConfirmed",
      "outputs": [
        {
          "internalType": "bool",
          "name": "",
          "type": "bool"
        }
      ],
      "stateMutability": "view",
      "type": "function",
      "constant": true
    },
    {
      "inputs": [
        {
          "internalType": "address",
          "name": "",
          "type": "address"
        }
      ],
      "name": "isOwner",
      "outputs": [
        {
          "internalType": "bool",
          "name": "",
          "type": "bool"
        }
      ],
      "stateMutability": "view",
      "type": "function",
      "constant": true
    },
    {
      "inputs": [],
      "name": "name",
      "outputs": [
        {
          "internalType": "string",
          "name": "",
          "type": "string"
        }
      ],
      "stateMutability": "view",
      "type": "function",
      "constant": true
    },
    {
      "inputs": [],
      "name": "numConfirmationsRequired",
      "outputs": [
        {
          "internalType": "uint256",
          "name": "",
          "type": "uint256"
        }
      ],
      "stateMutability": "view",
      "type": "function",
      "constant": true
    },
    {
      "inputs": [
        {
          "internalType": "uint256",
          "name": "",
          "type": "uint256"
        }
      ],
      "name": "owners",
      "outputs": [
        {
          "internalType": "address",
          "name": "",
          "type": "address"
        }
      ],
      "stateMutability": "view",
      "type": "function",
      "constant": true
    },
    {
      "inputs": [],
      "name": "purseToken",
      "outputs": [
        {
          "internalType": "contract PurseTokenMultiSigUpgradable",
          "name": "",
          "type": "address"
        }
      ],
      "stateMutability": "view",
      "type": "function",
      "constant": true
    },
    {
      "inputs": [],
      "name": "transactionIndex",
      "outputs": [
        {
          "internalType": "uint256",
          "name": "",
          "type": "uint256"
        }
      ],
      "stateMutability": "view",
      "type": "function",
      "constant": true
    },
    {
      "inputs": [
        {
          "internalType": "uint256",
          "name": "",
          "type": "uint256"
        }
      ],
      "name": "transactions",
      "outputs": [
        {
          "internalType": "address",
          "name": "to",
          "type": "address"
        },
        {
          "internalType": "uint256",
          "name": "value",
          "type": "uint256"
        },
        {
          "internalType": "bool",
          "name": "executed",
          "type": "bool"
        },
        {
          "internalType": "uint256",
          "name": "numConfirmations",
          "type": "uint256"
        }
      ],
      "stateMutability": "view",
      "type": "function",
      "constant": true
    },
    {
      "inputs": [
        {
          "internalType": "uint256",
          "name": "",
          "type": "uint256"
        }
      ],
      "name": "txExist",
      "outputs": [
        {
          "internalType": "bool",
          "name": "",
          "type": "bool"
        }
      ],
      "stateMutability": "view",
      "type": "function",
      "constant": true
    },
    {
      "inputs": [
        {
          "internalType": "address",
          "name": "_to",
          "type": "address"
        },
        {
          "internalType": "uint256",
          "name": "_value",
          "type": "uint256"
        }
      ],
      "name": "submitTransaction",
      "outputs": [],
      "stateMutability": "nonpayable",
      "type": "function"
    },
    {
      "inputs": [
        {
          "internalType": "uint256",
          "name": "_txIndex",
          "type": "uint256"
        }
      ],
      "name": "confirmTransaction",
      "outputs": [],
      "stateMutability": "nonpayable",
      "type": "function"
    },
    {
      "inputs": [
        {
          "internalType": "uint256",
          "name": "_txIndex",
          "type": "uint256"
        }
      ],
      "name": "executeTransaction",
      "outputs": [],
      "stateMutability": "nonpayable",
      "type": "function"
    },
    {
      "inputs": [
        {
          "internalType": "uint256",
          "name": "_txIndex",
          "type": "uint256"
        }
      ],
      "name": "revokeConfirmation",
      "outputs": [],
      "stateMutability": "nonpayable",
      "type": "function"
    },
    {
      "inputs": [],
      "name": "getOwners",
      "outputs": [
        {
          "internalType": "address[]",
          "name": "",
          "type": "address[]"
        }
      ],
      "stateMutability": "view",
      "type": "function",
      "constant": true
    },
    {
      "inputs": [],
      "name": "getAdmins",
      "outputs": [
        {
          "internalType": "address[]",
          "name": "",
          "type": "address[]"
        }
      ],
      "stateMutability": "view",
      "type": "function",
      "constant": true
    },
    {
      "inputs": [],
      "name": "getTransactionCount",
      "outputs": [
        {
          "internalType": "uint256",
          "name": "",
          "type": "uint256"
        }
      ],
      "stateMutability": "view",
      "type": "function",
      "constant": true
    },
    {
      "inputs": [
        {
          "internalType": "uint256",
          "name": "_txIndex",
          "type": "uint256"
        }
      ],
      "name": "getTransaction",
      "outputs": [
        {
          "internalType": "address",
          "name": "to",
          "type": "address"
        },
        {
          "internalType": "uint256",
          "name": "value",
          "type": "uint256"
        },
        {
          "internalType": "bool",
          "name": "executed",
          "type": "bool"
        },
        {
          "internalType": "uint256",
          "name": "numConfirmations",
          "type": "uint256"
        }
      ],
      "stateMutability": "view",
      "type": "function",
      "constant": true
    },
    {
      "inputs": [
        {
          "internalType": "address",
          "name": "_admin",
          "type": "address"
        }
      ],
      "name": "addAdmins",
      "outputs": [],
      "stateMutability": "nonpayable",
      "type": "function"
    },
    {
      "inputs": [
        {
          "internalType": "uint256",
          "name": "index",
          "type": "uint256"
        }
      ],
      "name": "removeAdmins",
      "outputs": [
        {
          "internalType": "address[]",
          "name": "",
          "type": "address[]"
        }
      ],
      "stateMutability": "nonpayable",
      "type": "function"
    },
    {
      "inputs": [
        {
          "internalType": "address",
          "name": "_owner",
          "type": "address"
        }
      ],
      "name": "addOwners",
      "outputs": [],
      "stateMutability": "nonpayable",
      "type": "function"
    },
    {
      "inputs": [
        {
          "internalType": "uint256",
          "name": "index",
          "type": "uint256"
        }
      ],
      "name": "removeOwners",
      "outputs": [
        {
          "internalType": "address[]",
          "name": "",
          "type": "address[]"
        }
      ],
      "stateMutability": "nonpayable",
      "type": "function"
    }
  ],
  "bytecode": "0x60806040526040518060400160405280601181526020017f4e50585358454d204d6967726174696f6e00000000000000000000000000000081525060009080519060200190620000519291906200060b565b503480156200005f57600080fd5b5060405162003a9e38038062003a9e8339818101604052810190620000859190620007a2565b6000835111620000cc576040517f08c379a0000000000000000000000000000000000000000000000000000000008152600401620000c39062000973565b60405180910390fd5b600082511162000113576040517f08c379a00000000000000000000000000000000000000000000000000000000081526004016200010a90620009b7565b60405180910390fd5b60008111801562000125575082518111155b62000167576040517f08c379a00000000000000000000000000000000000000000000000000000000081526004016200015e9062000a1d565b60405180910390fd5b60005b83518110156200038f576000848281518110620001b0577f4e487b7100000000000000000000000000000000000000000000000000000000600052603260045260246000fd5b60200260200101519050600073ffffffffffffffffffffffffffffffffffffffff168173ffffffffffffffffffffffffffffffffffffffff1614156200022d576040517f08c379a00000000000000000000000000000000000000000000000000000000081526004016200022490620009d9565b60405180910390fd5b600660008273ffffffffffffffffffffffffffffffffffffffff1673ffffffffffffffffffffffffffffffffffffffff16815260200190815260200160002060009054906101000a900460ff1615620002bd576040517f08c379a0000000000000000000000000000000000000000000000000000000008152600401620002b49062000951565b60405180910390fd5b6001600660008373ffffffffffffffffffffffffffffffffffffffff1673ffffffffffffffffffffffffffffffffffffffff16815260200190815260200160002060006101000a81548160ff0219169083151502179055506004819080600181540180825580915050600190039060005260206000200160009091909190916101000a81548173ffffffffffffffffffffffffffffffffffffffff021916908373ffffffffffffffffffffffffffffffffffffffff160217905550508080620003869062000b66565b9150506200016a565b5060005b8251811015620005b8576000838281518110620003d9577f4e487b7100000000000000000000000000000000000000000000000000000000600052603260045260246000fd5b60200260200101519050600073ffffffffffffffffffffffffffffffffffffffff168173ffffffffffffffffffffffffffffffffffffffff16141562000456576040517f08c379a00000000000000000000000000000000000000000000000000000000081526004016200044d90620009fb565b60405180910390fd5b600760008273ffffffffffffffffffffffffffffffffffffffff1673ffffffffffffffffffffffffffffffffffffffff16815260200190815260200160002060009054906101000a900460ff1615620004e6576040517f08c379a0000000000000000000000000000000000000000000000000000000008152600401620004dd9062000995565b60405180910390fd5b6001600760008373ffffffffffffffffffffffffffffffffffffffff1673ffffffffffffffffffffffffffffffffffffffff16815260200190815260200160002060006101000a81548160ff0219169083151502179055506005819080600181540180825580915050600190039060005260206000200160009091909190916101000a81548173ffffffffffffffffffffffffffffffffffffffff021916908373ffffffffffffffffffffffffffffffffffffffff160217905550508080620005af9062000b66565b91505062000393565b5083600160006101000a81548173ffffffffffffffffffffffffffffffffffffffff021916908373ffffffffffffffffffffffffffffffffffffffff160217905550806002819055505050505062000de5565b828054620006199062000afa565b90600052602060002090601f0160209004810192826200063d576000855562000689565b82601f106200065857805160ff191683800117855562000689565b8280016001018555821562000689579182015b82811115620006885782518255916020019190600101906200066b565b5b5090506200069891906200069c565b5090565b5b80821115620006b75760008160009055506001016200069d565b5090565b6000620006d2620006cc8462000a68565b62000a3f565b90508083825260208201905082856020860282011115620006f257600080fd5b60005b858110156200072657816200070b888262000730565b845260208401935060208301925050600181019050620006f5565b5050509392505050565b600081519050620007418162000d97565b92915050565b600082601f8301126200075957600080fd5b81516200076b848260208601620006bb565b91505092915050565b600081519050620007858162000db1565b92915050565b6000815190506200079c8162000dcb565b92915050565b60008060008060808587031215620007b957600080fd5b6000620007c98782880162000774565b945050602085015167ffffffffffffffff811115620007e757600080fd5b620007f58782880162000747565b935050604085015167ffffffffffffffff8111156200081357600080fd5b620008218782880162000747565b925050606062000834878288016200078b565b91505092959194509250565b60006200084f60108362000a97565b91506200085c8262000c52565b602082019050919050565b600062000876600f8362000a97565b9150620008838262000c7b565b602082019050919050565b60006200089d60108362000a97565b9150620008aa8262000ca4565b602082019050919050565b6000620008c4600f8362000a97565b9150620008d18262000ccd565b602082019050919050565b6000620008eb600d8362000a97565b9150620008f88262000cf6565b602082019050919050565b600062000912600d8362000a97565b91506200091f8262000d1f565b602082019050919050565b60006200093960288362000a97565b9150620009468262000d48565b604082019050919050565b600060208201905081810360008301526200096c8162000840565b9050919050565b600060208201905081810360008301526200098e8162000867565b9050919050565b60006020820190508181036000830152620009b0816200088e565b9050919050565b60006020820190508181036000830152620009d281620008b5565b9050919050565b60006020820190508181036000830152620009f481620008dc565b9050919050565b6000602082019050818103600083015262000a168162000903565b9050919050565b6000602082019050818103600083015262000a38816200092a565b9050919050565b600062000a4b62000a5e565b905062000a59828262000b30565b919050565b6000604051905090565b600067ffffffffffffffff82111562000a865762000a8562000c12565b5b602082029050602081019050919050565b600082825260208201905092915050565b600062000ab58262000ad0565b9050919050565b600062000ac98262000aa8565b9050919050565b600073ffffffffffffffffffffffffffffffffffffffff82169050919050565b6000819050919050565b6000600282049050600182168062000b1357607f821691505b6020821081141562000b2a5762000b2962000be3565b5b50919050565b62000b3b8262000c41565b810181811067ffffffffffffffff8211171562000b5d5762000b5c62000c12565b5b80604052505050565b600062000b738262000af0565b91507fffffffffffffffffffffffffffffffffffffffffffffffffffffffffffffffff82141562000ba95762000ba862000bb4565b5b600182019050919050565b7f4e487b7100000000000000000000000000000000000000000000000000000000600052601160045260246000fd5b7f4e487b7100000000000000000000000000000000000000000000000000000000600052602260045260246000fd5b7f4e487b7100000000000000000000000000000000000000000000000000000000600052604160045260246000fd5b6000601f19601f8301169050919050565b7f6f776e6572206e6f7420756e6971756500000000000000000000000000000000600082015250565b7f6f776e6572732072657175697265640000000000000000000000000000000000600082015250565b7f61646d696e206e6f7420756e6971756500000000000000000000000000000000600082015250565b7f61646d696e732072657175697265640000000000000000000000000000000000600082015250565b7f696e76616c6964206f776e657200000000000000000000000000000000000000600082015250565b7f696e76616c69642061646d696e00000000000000000000000000000000000000600082015250565b7f696e76616c6964206e756d626572206f6620726571756972656420636f6e666960008201527f726d6174696f6e73000000000000000000000000000000000000000000000000602082015250565b62000da28162000aa8565b811462000dae57600080fd5b50565b62000dbc8162000abc565b811462000dc857600080fd5b50565b62000dd68162000af0565b811462000de257600080fd5b50565b612ca98062000df56000396000f3fe608060405234801561001057600080fd5b506004361061014d5760003560e01c806354a45c91116100c3578063b8220f6a1161007c578063b8220f6a146103f2578063c01a8c8414610410578063d030db6a1461042c578063d0549b851461045c578063e304f6ee1461047a578063ee22610b146104965761014d565b806354a45c91146102f55780635f3b1f3b146103255780637bb88c891461034157806380f59a65146103715780639ace38c2146103a1578063a0e67e2b146103d45761014d565b806324d7806c1161011557806324d7806c146102085780632e7700f0146102385780632f54bf6e1461025657806331ae450b1461028657806333ea3dc8146102a457806351bf16ef146102d75761014d565b8063025e7c271461015257806306fdde031461018257806314bfd6d0146101a05780631d43b653146101d057806320ea8d86146101ec575b600080fd5b61016c60048036038101906101679190612239565b6104b2565b604051610179919061253c565b60405180910390f35b61018a6104f1565b604051610197919061261d565b60405180910390f35b6101ba60048036038101906101b59190612239565b61057f565b6040516101c7919061253c565b60405180910390f35b6101ea60048036038101906101e591906121d4565b6105be565b005b61020660048036038101906102019190612239565b6107cc565b005b610222600480360381019061021d91906121ab565b610a9b565b60405161022f91906125e7565b60405180910390f35b610240610abb565b60405161024d91906127bf565b60405180910390f35b610270600480360381019061026b91906121ab565b610ac5565b60405161027d91906125e7565b60405180910390f35b61028e610ae5565b60405161029b91906125c5565b60405180910390f35b6102be60048036038101906102b99190612239565b610b73565b6040516102ce9493929190612580565b60405180910390f35b6102df610c11565b6040516102ec9190612602565b60405180910390f35b61030f600480360381019061030a9190612239565b610c37565b60405161031c91906125c5565b60405180910390f35b61033f600480360381019061033a91906121ab565b6110eb565b005b61035b60048036038101906103569190612239565b611332565b60405161036891906125e7565b60405180910390f35b61038b60048036038101906103869190612262565b611352565b60405161039891906125e7565b60405180910390f35b6103bb60048036038101906103b69190612239565b611381565b6040516103cb9493929190612580565b60405180910390f35b6103dc6113de565b6040516103e991906125c5565b60405180910390f35b6103fa61146c565b60405161040791906127bf565b60405180910390f35b61042a60048036038101906104259190612239565b611472565b005b61044660048036038101906104419190612239565b611744565b60405161045391906125c5565b60405180910390f35b610464611bf8565b60405161047191906127bf565b60405180910390f35b610494600480360381019061048f91906121ab565b611bfe565b005b6104b060048036038101906104ab9190612239565b611e45565b005b600481815481106104c257600080fd5b906000526020600020016000915054906101000a900473ffffffffffffffffffffffffffffffffffffffff1681565b600080546104fe90612958565b80601f016020809104026020016040519081016040528092919081815260200182805461052a90612958565b80156105775780601f1061054c57610100808354040283529160200191610577565b820191906000526020600020905b81548152906001019060200180831161055a57829003601f168201915b505050505081565b6005818154811061058f57600080fd5b906000526020600020016000915054906101000a900473ffffffffffffffffffffffffffffffffffffffff1681565b600760003373ffffffffffffffffffffffffffffffffffffffff1673ffffffffffffffffffffffffffffffffffffffff16815260200190815260200160002060009054906101000a900460ff1661064a576040517f08c379a00000000000000000000000000000000000000000000000000000000081526004016106419061273f565b60405180910390fd5b60405180608001604052808373ffffffffffffffffffffffffffffffffffffffff1681526020018281526020016000151581526020016000815250600a6000600354815260200190815260200160002060008201518160000160006101000a81548173ffffffffffffffffffffffffffffffffffffffff021916908373ffffffffffffffffffffffffffffffffffffffff1602179055506020820151816001015560408201518160020160006101000a81548160ff02191690831515021790555060608201518160030155905050600160096000600354815260200190815260200160002060006101000a81548160ff0219169083151502179055508173ffffffffffffffffffffffffffffffffffffffff166003543373ffffffffffffffffffffffffffffffffffffffff167fcd144288a078b7562351164feb1762115faca27f30827b4142f2bbe27166e320846040516107a691906127bf565b60405180910390a46001600360008282546107c1919061282f565b925050819055505050565b600660003373ffffffffffffffffffffffffffffffffffffffff1673ffffffffffffffffffffffffffffffffffffffff16815260200190815260200160002060009054906101000a900460ff16610858576040517f08c379a000000000000000000000000000000000000000000000000000000000815260040161084f9061279f565b60405180910390fd5b806009600082815260200190815260200160002060009054906101000a900460ff166108b9576040517f08c379a00000000000000000000000000000000000000000000000000000000081526004016108b09061269f565b60405180910390fd5b81600a600082815260200190815260200160002060020160009054906101000a900460ff161561091e576040517f08c379a0000000000000000000000000000000000000000000000000000000008152600401610915906126ff565b60405180910390fd5b6008600084815260200190815260200160002060003373ffffffffffffffffffffffffffffffffffffffff1673ffffffffffffffffffffffffffffffffffffffff16815260200190815260200160002060009054906101000a900460ff166109bb576040517f08c379a00000000000000000000000000000000000000000000000000000000081526004016109b29061271f565b60405180910390fd5b6001600a600085815260200190815260200160002060030160008282546109e29190612885565b9250508190555060006008600085815260200190815260200160002060003373ffffffffffffffffffffffffffffffffffffffff1673ffffffffffffffffffffffffffffffffffffffff16815260200190815260200160002060006101000a81548160ff021916908315150217905550823373ffffffffffffffffffffffffffffffffffffffff167ff0dca620e2e81f7841d07bcc105e1704fb01475b278a9d4c236e1c62945edd5560405160405180910390a3505050565b60076020528060005260406000206000915054906101000a900460ff1681565b6000600354905090565b60066020528060005260406000206000915054906101000a900460ff1681565b60606005805480602002602001604051908101604052809291908181526020018280548015610b6957602002820191906000526020600020905b8160009054906101000a900473ffffffffffffffffffffffffffffffffffffffff1673ffffffffffffffffffffffffffffffffffffffff1681526020019060010190808311610b1f575b5050505050905090565b600080600080600a600086815260200190815260200160002060000160009054906101000a900473ffffffffffffffffffffffffffffffffffffffff16600a600087815260200190815260200160002060010154600a600088815260200190815260200160002060020160009054906101000a900460ff16600a60008981526020019081526020016000206003015493509350935093509193509193565b600160009054906101000a900473ffffffffffffffffffffffffffffffffffffffff1681565b6060600660003373ffffffffffffffffffffffffffffffffffffffff1673ffffffffffffffffffffffffffffffffffffffff16815260200190815260200160002060009054906101000a900460ff16610cc5576040517f08c379a0000000000000000000000000000000000000000000000000000000008152600401610cbc9061279f565b60405180910390fd5b600060058381548110610d01577f4e487b7100000000000000000000000000000000000000000000000000000000600052603260045260246000fd5b9060005260206000200160009054906101000a900473ffffffffffffffffffffffffffffffffffffffff1690506005805490508310610d75576040517f08c379a0000000000000000000000000000000000000000000000000000000008152600401610d6c9061275f565b60405180910390fd5b600073ffffffffffffffffffffffffffffffffffffffff168173ffffffffffffffffffffffffffffffffffffffff161415610de5576040517f08c379a0000000000000000000000000000000000000000000000000000000008152600401610ddc906126df565b60405180910390fd5b600760008273ffffffffffffffffffffffffffffffffffffffff1673ffffffffffffffffffffffffffffffffffffffff16815260200190815260200160002060009054906101000a900460ff16610e71576040517f08c379a0000000000000000000000000000000000000000000000000000000008152600401610e689061273f565b60405180910390fd5b60008390505b6001600580549050610e899190612885565b811015610f96576005600182610e9f919061282f565b81548110610ed6577f4e487b7100000000000000000000000000000000000000000000000000000000600052603260045260246000fd5b9060005260206000200160009054906101000a900473ffffffffffffffffffffffffffffffffffffffff1660058281548110610f3b577f4e487b7100000000000000000000000000000000000000000000000000000000600052603260045260246000fd5b9060005260206000200160006101000a81548173ffffffffffffffffffffffffffffffffffffffff021916908373ffffffffffffffffffffffffffffffffffffffff1602179055508080610f8e9061298a565b915050610e77565b506005805480610fcf577f4e487b7100000000000000000000000000000000000000000000000000000000600052603160045260246000fd5b6001900381819060005260206000200160006101000a81549073ffffffffffffffffffffffffffffffffffffffff021916905590556000600760008373ffffffffffffffffffffffffffffffffffffffff1673ffffffffffffffffffffffffffffffffffffffff16815260200190815260200160002060006101000a81548160ff02191690831515021790555060058054806020026020016040519081016040528092919081815260200182805480156110de57602002820191906000526020600020905b8160009054906101000a900473ffffffffffffffffffffffffffffffffffffffff1673ffffffffffffffffffffffffffffffffffffffff1681526020019060010190808311611094575b5050505050915050919050565b600660003373ffffffffffffffffffffffffffffffffffffffff1673ffffffffffffffffffffffffffffffffffffffff16815260200190815260200160002060009054906101000a900460ff16611177576040517f08c379a000000000000000000000000000000000000000000000000000000000815260040161116e9061279f565b60405180910390fd5b600073ffffffffffffffffffffffffffffffffffffffff168173ffffffffffffffffffffffffffffffffffffffff1614156111e7576040517f08c379a00000000000000000000000000000000000000000000000000000000081526004016111de9061267f565b60405180910390fd5b600660008273ffffffffffffffffffffffffffffffffffffffff1673ffffffffffffffffffffffffffffffffffffffff16815260200190815260200160002060009054906101000a900460ff1615611274576040517f08c379a000000000000000000000000000000000000000000000000000000000815260040161126b9061263f565b60405180910390fd5b6001600660008373ffffffffffffffffffffffffffffffffffffffff1673ffffffffffffffffffffffffffffffffffffffff16815260200190815260200160002060006101000a81548160ff0219169083151502179055506004819080600181540180825580915050600190039060005260206000200160009091909190916101000a81548173ffffffffffffffffffffffffffffffffffffffff021916908373ffffffffffffffffffffffffffffffffffffffff16021790555050565b60096020528060005260406000206000915054906101000a900460ff1681565b60086020528160005260406000206020528060005260406000206000915091509054906101000a900460ff1681565b600a6020528060005260406000206000915090508060000160009054906101000a900473ffffffffffffffffffffffffffffffffffffffff16908060010154908060020160009054906101000a900460ff16908060030154905084565b6060600480548060200260200160405190810160405280929190818152602001828054801561146257602002820191906000526020600020905b8160009054906101000a900473ffffffffffffffffffffffffffffffffffffffff1673ffffffffffffffffffffffffffffffffffffffff1681526020019060010190808311611418575b5050505050905090565b60035481565b600660003373ffffffffffffffffffffffffffffffffffffffff1673ffffffffffffffffffffffffffffffffffffffff16815260200190815260200160002060009054906101000a900460ff166114fe576040517f08c379a00000000000000000000000000000000000000000000000000000000081526004016114f59061279f565b60405180910390fd5b806009600082815260200190815260200160002060009054906101000a900460ff1661155f576040517f08c379a00000000000000000000000000000000000000000000000000000000081526004016115569061269f565b60405180910390fd5b81600a600082815260200190815260200160002060020160009054906101000a900460ff16156115c4576040517f08c379a00000000000000000000000000000000000000000000000000000000081526004016115bb906126ff565b60405180910390fd5b826008600082815260200190815260200160002060003373ffffffffffffffffffffffffffffffffffffffff1673ffffffffffffffffffffffffffffffffffffffff16815260200190815260200160002060009054906101000a900460ff1615611663576040517f08c379a000000000000000000000000000000000000000000000000000000000815260040161165a906126bf565b60405180910390fd5b6001600a6000868152602001908152602001600020600301600082825461168a919061282f565b9250508190555060016008600086815260200190815260200160002060003373ffffffffffffffffffffffffffffffffffffffff1673ffffffffffffffffffffffffffffffffffffffff16815260200190815260200160002060006101000a81548160ff021916908315150217905550833373ffffffffffffffffffffffffffffffffffffffff167f5cbe105e36805f7820e291f799d5794ff948af2a5f664e580382defb6339004160405160405180910390a350505050565b6060600660003373ffffffffffffffffffffffffffffffffffffffff1673ffffffffffffffffffffffffffffffffffffffff16815260200190815260200160002060009054906101000a900460ff166117d2576040517f08c379a00000000000000000000000000000000000000000000000000000000081526004016117c99061279f565b60405180910390fd5b60006004838154811061180e577f4e487b7100000000000000000000000000000000000000000000000000000000600052603260045260246000fd5b9060005260206000200160009054906101000a900473ffffffffffffffffffffffffffffffffffffffff1690506004805490508310611882576040517f08c379a00000000000000000000000000000000000000000000000000000000081526004016118799061275f565b60405180910390fd5b600073ffffffffffffffffffffffffffffffffffffffff168173ffffffffffffffffffffffffffffffffffffffff1614156118f2576040517f08c379a00000000000000000000000000000000000000000000000000000000081526004016118e99061267f565b60405180910390fd5b600660008273ffffffffffffffffffffffffffffffffffffffff1673ffffffffffffffffffffffffffffffffffffffff16815260200190815260200160002060009054906101000a900460ff1661197e576040517f08c379a00000000000000000000000000000000000000000000000000000000081526004016119759061279f565b60405180910390fd5b60008390505b60016004805490506119969190612885565b811015611aa35760046001826119ac919061282f565b815481106119e3577f4e487b7100000000000000000000000000000000000000000000000000000000600052603260045260246000fd5b9060005260206000200160009054906101000a900473ffffffffffffffffffffffffffffffffffffffff1660048281548110611a48577f4e487b7100000000000000000000000000000000000000000000000000000000600052603260045260246000fd5b9060005260206000200160006101000a81548173ffffffffffffffffffffffffffffffffffffffff021916908373ffffffffffffffffffffffffffffffffffffffff1602179055508080611a9b9061298a565b915050611984565b506004805480611adc577f4e487b7100000000000000000000000000000000000000000000000000000000600052603160045260246000fd5b6001900381819060005260206000200160006101000a81549073ffffffffffffffffffffffffffffffffffffffff021916905590556000600660008373ffffffffffffffffffffffffffffffffffffffff1673ffffffffffffffffffffffffffffffffffffffff16815260200190815260200160002060006101000a81548160ff0219169083151502179055506004805480602002602001604051908101604052809291908181526020018280548015611beb57602002820191906000526020600020905b8160009054906101000a900473ffffffffffffffffffffffffffffffffffffffff1673ffffffffffffffffffffffffffffffffffffffff1681526020019060010190808311611ba1575b5050505050915050919050565b60025481565b600660003373ffffffffffffffffffffffffffffffffffffffff1673ffffffffffffffffffffffffffffffffffffffff16815260200190815260200160002060009054906101000a900460ff16611c8a576040517f08c379a0000000000000000000000000000000000000000000000000000000008152600401611c819061279f565b60405180910390fd5b600073ffffffffffffffffffffffffffffffffffffffff168173ffffffffffffffffffffffffffffffffffffffff161415611cfa576040517f08c379a0000000000000000000000000000000000000000000000000000000008152600401611cf1906126df565b60405180910390fd5b600760008273ffffffffffffffffffffffffffffffffffffffff1673ffffffffffffffffffffffffffffffffffffffff16815260200190815260200160002060009054906101000a900460ff1615611d87576040517f08c379a0000000000000000000000000000000000000000000000000000000008152600401611d7e9061265f565b60405180910390fd5b6001600760008373ffffffffffffffffffffffffffffffffffffffff1673ffffffffffffffffffffffffffffffffffffffff16815260200190815260200160002060006101000a81548160ff0219169083151502179055506005819080600181540180825580915050600190039060005260206000200160009091909190916101000a81548173ffffffffffffffffffffffffffffffffffffffff021916908373ffffffffffffffffffffffffffffffffffffffff16021790555050565b600660003373ffffffffffffffffffffffffffffffffffffffff1673ffffffffffffffffffffffffffffffffffffffff16815260200190815260200160002060009054906101000a900460ff16611ed1576040517f08c379a0000000000000000000000000000000000000000000000000000000008152600401611ec89061279f565b60405180910390fd5b806009600082815260200190815260200160002060009054906101000a900460ff16611f32576040517f08c379a0000000000000000000000000000000000000000000000000000000008152600401611f299061269f565b60405180910390fd5b81600a600082815260200190815260200160002060020160009054906101000a900460ff1615611f97576040517f08c379a0000000000000000000000000000000000000000000000000000000008152600401611f8e906126ff565b60405180910390fd5b600254600a6000858152602001908152602001600020600301541015611ff2576040517f08c379a0000000000000000000000000000000000000000000000000000000008152600401611fe99061277f565b60405180910390fd5b6001600a600085815260200190815260200160002060020160006101000a81548160ff0219169083151502179055506000600a6000858152602001908152602001600020600101549050600160009054906101000a900473ffffffffffffffffffffffffffffffffffffffff1673ffffffffffffffffffffffffffffffffffffffff1663a9059cbb600a600087815260200190815260200160002060000160009054906101000a900473ffffffffffffffffffffffffffffffffffffffff16836040518363ffffffff1660e01b81526004016120cf929190612557565b602060405180830381600087803b1580156120e957600080fd5b505af11580156120fd573d6000803e3d6000fd5b505050506040513d601f19601f820116820180604052508101906121219190612210565b50833373ffffffffffffffffffffffffffffffffffffffff167f5445f318f4f5fcfb66592e68e0cc5822aa15664039bd5f0ffde24c5a8142b1ac60405160405180910390a350505050565b60008135905061217b81612c2e565b92915050565b60008151905061219081612c45565b92915050565b6000813590506121a581612c5c565b92915050565b6000602082840312156121bd57600080fd5b60006121cb8482850161216c565b91505092915050565b600080604083850312156121e757600080fd5b60006121f58582860161216c565b925050602061220685828601612196565b9150509250929050565b60006020828403121561222257600080fd5b600061223084828501612181565b91505092915050565b60006020828403121561224b57600080fd5b600061225984828501612196565b91505092915050565b6000806040838503121561227557600080fd5b600061228385828601612196565b92505060206122948582860161216c565b9150509250929050565b60006122aa83836122b6565b60208301905092915050565b6122bf816128b9565b82525050565b6122ce816128b9565b82525050565b60006122df826127ea565b6122e9818561280d565b93506122f4836127da565b8060005b8381101561232557815161230c888261229e565b975061231783612800565b9250506001810190506122f8565b5085935050505092915050565b61233b816128cb565b82525050565b61234a81612901565b82525050565b600061235b826127f5565b612365818561281e565b9350612375818560208601612925565b61237e81612a31565b840191505092915050565b600061239660108361281e565b91506123a182612a42565b602082019050919050565b60006123b960108361281e565b91506123c482612a6b565b602082019050919050565b60006123dc600d8361281e565b91506123e782612a94565b602082019050919050565b60006123ff60118361281e565b915061240a82612abd565b602082019050919050565b600061242260148361281e565b915061242d82612ae6565b602082019050919050565b6000612445600d8361281e565b915061245082612b0f565b602082019050919050565b600061246860138361281e565b915061247382612b38565b602082019050919050565b600061248b60108361281e565b915061249682612b61565b602082019050919050565b60006124ae60098361281e565b91506124b982612b8a565b602082019050919050565b60006124d1600d8361281e565b91506124dc82612bb3565b602082019050919050565b60006124f460118361281e565b91506124ff82612bdc565b602082019050919050565b600061251760098361281e565b915061252282612c05565b602082019050919050565b612536816128f7565b82525050565b600060208201905061255160008301846122c5565b92915050565b600060408201905061256c60008301856122c5565b612579602083018461252d565b9392505050565b600060808201905061259560008301876122c5565b6125a2602083018661252d565b6125af6040830185612332565b6125bc606083018461252d565b95945050505050565b600060208201905081810360008301526125df81846122d4565b905092915050565b60006020820190506125fc6000830184612332565b92915050565b60006020820190506126176000830184612341565b92915050565b600060208201905081810360008301526126378184612350565b905092915050565b6000602082019050818103600083015261265881612389565b9050919050565b60006020820190508181036000830152612678816123ac565b9050919050565b60006020820190508181036000830152612698816123cf565b9050919050565b600060208201905081810360008301526126b8816123f2565b9050919050565b600060208201905081810360008301526126d881612415565b9050919050565b600060208201905081810360008301526126f881612438565b9050919050565b600060208201905081810360008301526127188161245b565b9050919050565b600060208201905081810360008301526127388161247e565b9050919050565b60006020820190508181036000830152612758816124a1565b9050919050565b60006020820190508181036000830152612778816124c4565b9050919050565b60006020820190508181036000830152612798816124e7565b9050919050565b600060208201905081810360008301526127b88161250a565b9050919050565b60006020820190506127d4600083018461252d565b92915050565b6000819050602082019050919050565b600081519050919050565b600081519050919050565b6000602082019050919050565b600082825260208201905092915050565b600082825260208201905092915050565b600061283a826128f7565b9150612845836128f7565b9250827fffffffffffffffffffffffffffffffffffffffffffffffffffffffffffffffff0382111561287a576128796129d3565b5b828201905092915050565b6000612890826128f7565b915061289b836128f7565b9250828210156128ae576128ad6129d3565b5b828203905092915050565b60006128c4826128d7565b9050919050565b60008115159050919050565b600073ffffffffffffffffffffffffffffffffffffffff82169050919050565b6000819050919050565b600061290c82612913565b9050919050565b600061291e826128d7565b9050919050565b60005b83811015612943578082015181840152602081019050612928565b83811115612952576000848401525b50505050565b6000600282049050600182168061297057607f821691505b6020821081141561298457612983612a02565b5b50919050565b6000612995826128f7565b91507fffffffffffffffffffffffffffffffffffffffffffffffffffffffffffffffff8214156129c8576129c76129d3565b5b600182019050919050565b7f4e487b7100000000000000000000000000000000000000000000000000000000600052601160045260246000fd5b7f4e487b7100000000000000000000000000000000000000000000000000000000600052602260045260246000fd5b6000601f19601f8301169050919050565b7f6f776e6572206e6f7420756e6971756500000000000000000000000000000000600082015250565b7f61646d696e206e6f7420756e6971756500000000000000000000000000000000600082015250565b7f696e76616c6964206f776e657200000000000000000000000000000000000000600082015250565b7f747820646f6573206e6f74206578697374000000000000000000000000000000600082015250565b7f747820616c726561647920636f6e6669726d6564000000000000000000000000600082015250565b7f696e76616c69642061646d696e00000000000000000000000000000000000000600082015250565b7f747820616c726561647920657865637574656400000000000000000000000000600082015250565b7f7478206e6f7420636f6e6669726d656400000000000000000000000000000000600082015250565b7f6e6f742061646d696e0000000000000000000000000000000000000000000000600082015250565b7f696e76616c696420696e64657800000000000000000000000000000000000000600082015250565b7f63616e6e6f742065786563757465207478000000000000000000000000000000600082015250565b7f6e6f74206f776e65720000000000000000000000000000000000000000000000600082015250565b612c37816128b9565b8114612c4257600080fd5b50565b612c4e816128cb565b8114612c5957600080fd5b50565b612c65816128f7565b8114612c7057600080fd5b5056fea2646970667358221220bee33ead5e7ff2a1f9e1e2be168d698ace49dc361d441f0f907bb897365a32f064736f6c63430008030033",
  "immutableReferences": {},
  "source": "// SPDX-License-Identifier: UNLICENSED\r\n\r\npragma solidity ^0.8.0;\r\n\r\nimport \"./PurseTokenMultiSigUpgradable.sol\";\r\n\r\ncontract NPXSXEMigrationMulSig {\r\n    event SubmitTransaction(address indexed owner, uint indexed txIndex, address indexed to, uint value);\r\n    event ConfirmTransaction(address indexed owner, uint indexed txIndex);\r\n    event RevokeConfirmation(address indexed owner, uint indexed txIndex);\r\n    event ExecuteTransaction(address indexed owner, uint indexed txIndex);\r\n    \r\n    string public name = \"NPXSXEM Migration\";\r\n    PurseTokenMultiSigUpgradable public purseToken;\r\n    uint public numConfirmationsRequired;\r\n    uint public transactionIndex;\r\n    address[] public owners;\r\n    address[] public admins;\r\n    mapping(address => bool) public isOwner;\r\n    mapping(address => bool) public isAdmin;\r\n    // mapping from tx index => owner => bool\r\n    mapping(uint => mapping(address => bool)) public isConfirmed;\r\n    mapping(uint => bool) public txExist;\r\n    mapping(uint => Transaction) public transactions;\r\n\r\n    struct Transaction {\r\n        address to;\r\n        uint value;\r\n        bool executed;\r\n        uint numConfirmations;\r\n    }\r\n\r\n    modifier onlyOwner() {\r\n        require(isOwner[msg.sender], \"not owner\");\r\n        _;\r\n    }\r\n\r\n    modifier onlyAdmin() {\r\n        require(isAdmin[msg.sender], \"not admin\");\r\n        _;\r\n    }\r\n\r\n    modifier txExists(uint _txIndex) {\r\n        require(txExist[_txIndex], \"tx does not exist\");\r\n        _;\r\n    }\r\n\r\n    modifier notExecuted(uint _txIndex) {\r\n        require(!transactions[_txIndex].executed, \"tx already executed\");\r\n        _;\r\n    }\r\n\r\n    modifier notConfirmed(uint _txIndex) {\r\n        require(!isConfirmed[_txIndex][msg.sender], \"tx already confirmed\");\r\n        _;\r\n    }\r\n\r\n    constructor(PurseTokenMultiSigUpgradable _purseToken, address[] memory _owners, address[] memory _admins, uint _numConfirmationsRequired) {\r\n        require(_owners.length > 0, \"owners required\");\r\n        require(_admins.length > 0, \"admins required\");\r\n        require(\r\n            _numConfirmationsRequired > 0 &&\r\n                _numConfirmationsRequired <= _owners.length,\r\n            \"invalid number of required confirmations\"\r\n        );\r\n\r\n        for (uint i = 0; i < _owners.length; i++) {\r\n            address owner = _owners[i];\r\n\r\n            require(owner != address(0), \"invalid owner\");\r\n            require(!isOwner[owner], \"owner not unique\");\r\n\r\n            isOwner[owner] = true;\r\n            owners.push(owner);\r\n        }\r\n        for (uint i = 0; i < _admins.length; i++) {\r\n            address admin = _admins[i];\r\n\r\n            require(admin != address(0), \"invalid admin\");\r\n            require(!isAdmin[admin], \"admin not unique\");\r\n\r\n            isAdmin[admin] = true;\r\n            admins.push(admin);\r\n        }\r\n        purseToken = _purseToken;\r\n        numConfirmationsRequired = _numConfirmationsRequired;\r\n    }\r\n\r\n    function submitTransaction(address _to, uint _value) public onlyAdmin {\r\n        \r\n        transactions[transactionIndex] = Transaction( _to,  _value, false, 0 );\r\n        txExist[transactionIndex] = true;\r\n        emit SubmitTransaction(msg.sender, transactionIndex, _to, _value);\r\n        transactionIndex +=1;\r\n    }\r\n\r\n    function confirmTransaction(uint _txIndex) public onlyOwner txExists(_txIndex) notExecuted(_txIndex) notConfirmed(_txIndex) {\r\n\r\n        transactions[_txIndex].numConfirmations += 1;\r\n        isConfirmed[_txIndex][msg.sender] = true;\r\n\r\n        emit ConfirmTransaction(msg.sender, _txIndex);\r\n    }\r\n\r\n    function executeTransaction(uint _txIndex) public onlyOwner txExists(_txIndex) notExecuted(_txIndex) {\r\n\r\n        require(transactions[_txIndex].numConfirmations >= numConfirmationsRequired, \"cannot execute tx\");\r\n        transactions[_txIndex].executed = true;\r\n        uint256 transferAmount = transactions[_txIndex].value;\r\n        purseToken.transfer(transactions[_txIndex].to, transferAmount);\r\n\r\n        emit ExecuteTransaction(msg.sender, _txIndex);\r\n    }\r\n\r\n    function revokeConfirmation(uint _txIndex) public onlyOwner txExists(_txIndex) notExecuted(_txIndex) {\r\n\r\n        require(isConfirmed[_txIndex][msg.sender], \"tx not confirmed\");\r\n\r\n        transactions[_txIndex].numConfirmations -= 1;\r\n        isConfirmed[_txIndex][msg.sender] = false;\r\n\r\n        emit RevokeConfirmation(msg.sender, _txIndex);\r\n    }\r\n\r\n    function getOwners() public view returns (address[] memory) {\r\n        return owners;\r\n    }\r\n\r\n    function getAdmins() public view returns (address[] memory) {\r\n        return admins;\r\n    }\r\n\r\n    function getTransactionCount() public view returns (uint) {\r\n        return transactionIndex;\r\n    }\r\n\r\n    function getTransaction(uint _txIndex) public view returns (address to, uint value, bool executed, uint numConfirmations ) {\r\n        return (\r\n            transactions[_txIndex].to,\r\n            transactions[_txIndex].value,\r\n            transactions[_txIndex].executed,\r\n            transactions[_txIndex].numConfirmations\r\n        );\r\n    }\r\n\r\n    function addAdmins(address _admin) public onlyOwner{\r\n        require(_admin != address(0), \"invalid admin\");\r\n        require(!isAdmin[_admin], \"admin not unique\");\r\n        \r\n        isAdmin[_admin] = true;\r\n        admins.push(_admin);\r\n    }\r\n\r\n    function removeAdmins(uint index) public onlyOwner returns (address[] memory){\r\n        address removeAdmin = admins[index];\r\n        require(index < admins.length, \"invalid index\");\r\n        require(removeAdmin != address(0), \"invalid admin\");\r\n        require(isAdmin[removeAdmin], \"not admin\");\r\n\r\n        for (uint i = index; i<admins.length-1; i++){\r\n            admins[i] = admins[i+1];\r\n        }\r\n        \r\n        admins.pop();\r\n        isAdmin[removeAdmin] = false;\r\n\r\n        return admins;\r\n    }\r\n\r\n    function addOwners(address _owner) public onlyOwner{\r\n        require(_owner != address(0), \"invalid owner\");\r\n        require(!isOwner[_owner], \"owner not unique\");\r\n        \r\n        isOwner[_owner] = true;\r\n        owners.push(_owner);\r\n    }\r\n\r\n    function removeOwners(uint index) public onlyOwner returns (address[] memory){\r\n        address removeOwner = owners[index];\r\n        require(index < owners.length, \"invalid index\");\r\n        require(removeOwner != address(0), \"invalid owner\");\r\n        require(isOwner[removeOwner], \"not owner\");\r\n        \r\n        for (uint i = index; i<owners.length-1; i++){\r\n            owners[i] = owners[i+1];\r\n        }\r\n        owners.pop();\r\n\r\n        isOwner[removeOwner] = false;\r\n        return owners;\r\n    }\r\n}\r\n",
  "sourcePath": "C:/Users/cheek/Desktop/Developer doc/Visual Studio Code/PundiX/PurseReward/YieldFarm_BridgeEthBsc/src/contracts/NPXSXEMigrationMulSig.sol",
  "compiler": {
    "name": "solc",
    "version": "0.8.3+commit.8d00100c.Emscripten.clang"
  },
  "schemaVersion": "3.2.3",
  "updatedAt": "2021-08-27T08:19:36.651Z",
  "networkType": "ethereum",
  "devdoc": {
    "kind": "dev",
    "methods": {},
    "version": 1
  },
  "userdoc": {
    "kind": "user",
    "methods": {},
    "version": 1
  }
}