{
  "contractName": "NPXSXEMigration",
  "abi": [
    {
      "inputs": [
        {
          "internalType": "contract NPXSXEMToken",
          "name": "_npxsxemToken",
          "type": "address"
        },
        {
          "internalType": "contract PurseToken",
          "name": "_purseToken",
          "type": "address"
        }
      ],
      "stateMutability": "nonpayable",
      "type": "constructor"
    },
    {
      "inputs": [
        {
          "internalType": "address",
          "name": "",
          "type": "address"
        }
      ],
      "name": "migrateCount",
      "outputs": [
        {
          "internalType": "uint256",
          "name": "",
          "type": "uint256"
        }
      ],
      "stateMutability": "view",
      "type": "function",
      "constant": true
    },
    {
      "inputs": [
        {
          "internalType": "address",
          "name": "",
          "type": "address"
        },
        {
          "internalType": "uint256",
          "name": "",
          "type": "uint256"
        },
        {
          "internalType": "uint256",
          "name": "",
          "type": "uint256"
        }
      ],
      "name": "migrator",
      "outputs": [
        {
          "internalType": "uint256",
          "name": "migrateCount",
          "type": "uint256"
        },
        {
          "internalType": "uint256",
          "name": "releaseIteration",
          "type": "uint256"
        },
        {
          "internalType": "uint256",
          "name": "releaseBalance",
          "type": "uint256"
        },
        {
          "internalType": "uint256",
          "name": "unlockTime",
          "type": "uint256"
        },
        {
          "internalType": "bool",
          "name": "isRedeem",
          "type": "bool"
        }
      ],
      "stateMutability": "view",
      "type": "function",
      "constant": true
    },
    {
      "inputs": [],
      "name": "name",
      "outputs": [
        {
          "internalType": "string",
          "name": "",
          "type": "string"
        }
      ],
      "stateMutability": "view",
      "type": "function",
      "constant": true
    },
    {
      "inputs": [],
      "name": "owner",
      "outputs": [
        {
          "internalType": "address",
          "name": "",
          "type": "address"
        }
      ],
      "stateMutability": "view",
      "type": "function",
      "constant": true
    },
    {
      "inputs": [],
      "name": "purseToken",
      "outputs": [
        {
          "internalType": "contract PurseToken",
          "name": "",
          "type": "address"
        }
      ],
      "stateMutability": "view",
      "type": "function",
      "constant": true
    },
    {
      "inputs": [],
      "name": "releaseDuration",
      "outputs": [
        {
          "internalType": "uint256",
          "name": "",
          "type": "uint256"
        }
      ],
      "stateMutability": "view",
      "type": "function",
      "constant": true
    },
    {
      "inputs": [
        {
          "internalType": "address",
          "name": "",
          "type": "address"
        },
        {
          "internalType": "uint256",
          "name": "",
          "type": "uint256"
        }
      ],
      "name": "releaseIteration",
      "outputs": [
        {
          "internalType": "uint256",
          "name": "",
          "type": "uint256"
        }
      ],
      "stateMutability": "view",
      "type": "function",
      "constant": true
    },
    {
      "inputs": [],
      "name": "validDuration",
      "outputs": [
        {
          "internalType": "uint256",
          "name": "",
          "type": "uint256"
        }
      ],
      "stateMutability": "view",
      "type": "function",
      "constant": true
    },
    {
      "inputs": [
        {
          "internalType": "uint256",
          "name": "_amount",
          "type": "uint256"
        }
      ],
      "name": "migrateNPXSXEM",
      "outputs": [],
      "stateMutability": "nonpayable",
      "type": "function"
    }
  ],
  "bytecode": "0x60806040526040518060400160405280601181526020017f4e50585358454d204d6967726174696f6e00000000000000000000000000000081525060009080519060200190620000519291906200011b565b5060026003553480156200006457600080fd5b5060405162000e4738038062000e4783398181016040528101906200008a9190620001f9565b80600160006101000a81548173ffffffffffffffffffffffffffffffffffffffff021916908373ffffffffffffffffffffffffffffffffffffffff16021790555033600260006101000a81548173ffffffffffffffffffffffffffffffffffffffff021916908373ffffffffffffffffffffffffffffffffffffffff1602179055504260048190555050506200032f565b828054620001299062000296565b90600052602060002090601f0160209004810192826200014d576000855562000199565b82601f106200016857805160ff191683800117855562000199565b8280016001018555821562000199579182015b82811115620001985782518255916020019190600101906200017b565b5b509050620001a89190620001ac565b5090565b5b80821115620001c7576000816000905550600101620001ad565b5090565b600081519050620001dc81620002fb565b92915050565b600081519050620001f38162000315565b92915050565b600080604083850312156200020d57600080fd5b60006200021d85828601620001cb565b92505060206200023085828601620001e2565b9150509250929050565b6000620002478262000276565b9050919050565b60006200025b826200023a565b9050919050565b60006200026f826200023a565b9050919050565b600073ffffffffffffffffffffffffffffffffffffffff82169050919050565b60006002820490506001821680620002af57607f821691505b60208210811415620002c657620002c5620002cc565b5b50919050565b7f4e487b7100000000000000000000000000000000000000000000000000000000600052602260045260246000fd5b62000306816200024e565b81146200031257600080fd5b50565b620003208162000262565b81146200032c57600080fd5b50565b610b08806200033f6000396000f3fe608060405234801561001057600080fd5b50600436106100935760003560e01c8063714443ac11610066578063714443ac1461012257806384fe8cbf146101565780638da5cb5b14610172578063b9f015cd14610190578063f9b41891146101c057610093565b806306fdde03146100985780632948ff41146100b657806351bf16ef146100d4578063575f7160146100f2575b600080fd5b6100a06101de565b6040516100ad91906107b1565b60405180910390f35b6100be61026c565b6040516100cb9190610813565b60405180910390f35b6100dc610273565b6040516100e99190610796565b60405180910390f35b61010c60048036038101906101079190610580565b610299565b6040516101199190610813565b60405180910390f35b61013c600480360381019061013791906105bc565b6102be565b60405161014d95949392919061082e565b60405180910390f35b610170600480360381019061016b9190610634565b61031b565b005b61017a6104d5565b6040516101879190610752565b60405180910390f35b6101aa60048036038101906101a59190610557565b6104fb565b6040516101b79190610813565b60405180910390f35b6101c8610513565b6040516101d59190610813565b60405180910390f35b600080546101eb906109ec565b80601f0160208091040260200160405190810160405280929190818152602001828054610217906109ec565b80156102645780601f1061023957610100808354040283529160200191610264565b820191906000526020600020905b81548152906001019060200180831161024757829003601f168201915b505050505081565b6203f48081565b600160009054906101000a900473ffffffffffffffffffffffffffffffffffffffff1681565b6006602052816000526040600020602052806000526040600020600091509150505481565b600760205282600052604060002060205281600052604060002060205280600052604060002060009250925050508060000154908060010154908060020154908060030154908060040160009054906101000a900460ff16905085565b60006203f48060045461032e919061089d565b90506000821015610374576040517f08c379a000000000000000000000000000000000000000000000000000000000815260040161036b906107f3565b60405180910390fd5b804211156103b7576040517f08c379a00000000000000000000000000000000000000000000000000000000081526004016103ae906107d3565b60405180910390fd5b6001600560003373ffffffffffffffffffffffffffffffffffffffff1673ffffffffffffffffffffffffffffffffffffffff1681526020019081526020016000206000828254610407919061089d565b9250508190555060006003548361041e91906108f3565b9050600160009054906101000a900473ffffffffffffffffffffffffffffffffffffffff1673ffffffffffffffffffffffffffffffffffffffff1663a9059cbb33836040518363ffffffff1660e01b815260040161047d92919061076d565b602060405180830381600087803b15801561049757600080fd5b505af11580156104ab573d6000803e3d6000fd5b505050506040513d601f19601f820116820180604052508101906104cf919061060b565b50505050565b600260009054906101000a900473ffffffffffffffffffffffffffffffffffffffff1681565b60056020528060005260406000206000915090505481565b603c81565b60008135905061052781610a8d565b92915050565b60008151905061053c81610aa4565b92915050565b60008135905061055181610abb565b92915050565b60006020828403121561056957600080fd5b600061057784828501610518565b91505092915050565b6000806040838503121561059357600080fd5b60006105a185828601610518565b92505060206105b285828601610542565b9150509250929050565b6000806000606084860312156105d157600080fd5b60006105df86828701610518565b93505060206105f086828701610542565b925050604061060186828701610542565b9150509250925092565b60006020828403121561061d57600080fd5b600061062b8482850161052d565b91505092915050565b60006020828403121561064657600080fd5b600061065484828501610542565b91505092915050565b6106668161094d565b82525050565b6106758161095f565b82525050565b61068481610995565b82525050565b600061069582610881565b61069f818561088c565b93506106af8185602086016109b9565b6106b881610a7c565b840191505092915050565b60006106d060158361088c565b91507f4d6967726174696f6e2077696e646f77206f76657200000000000000000000006000830152602082019050919050565b600061071060128361088c565b91507f616d6f756e74206c657373207468616e203000000000000000000000000000006000830152602082019050919050565b61074c8161098b565b82525050565b6000602082019050610767600083018461065d565b92915050565b6000604082019050610782600083018561065d565b61078f6020830184610743565b9392505050565b60006020820190506107ab600083018461067b565b92915050565b600060208201905081810360008301526107cb818461068a565b905092915050565b600060208201905081810360008301526107ec816106c3565b9050919050565b6000602082019050818103600083015261080c81610703565b9050919050565b60006020820190506108286000830184610743565b92915050565b600060a0820190506108436000830188610743565b6108506020830187610743565b61085d6040830186610743565b61086a6060830185610743565b610877608083018461066c565b9695505050505050565b600081519050919050565b600082825260208201905092915050565b60006108a88261098b565b91506108b38361098b565b9250827fffffffffffffffffffffffffffffffffffffffffffffffffffffffffffffffff038211156108e8576108e7610a1e565b5b828201905092915050565b60006108fe8261098b565b91506109098361098b565b9250817fffffffffffffffffffffffffffffffffffffffffffffffffffffffffffffffff048311821515161561094257610941610a1e565b5b828202905092915050565b60006109588261096b565b9050919050565b60008115159050919050565b600073ffffffffffffffffffffffffffffffffffffffff82169050919050565b6000819050919050565b60006109a0826109a7565b9050919050565b60006109b28261096b565b9050919050565b60005b838110156109d75780820151818401526020810190506109bc565b838111156109e6576000848401525b50505050565b60006002820490506001821680610a0457607f821691505b60208210811415610a1857610a17610a4d565b5b50919050565b7f4e487b7100000000000000000000000000000000000000000000000000000000600052601160045260246000fd5b7f4e487b7100000000000000000000000000000000000000000000000000000000600052602260045260246000fd5b6000601f19601f8301169050919050565b610a968161094d565b8114610aa157600080fd5b50565b610aad8161095f565b8114610ab857600080fd5b50565b610ac48161098b565b8114610acf57600080fd5b5056fea264697066735822122061097d20d3e4158e1b5bbb578bd38379e0126354d0ed37399c5c5556d86c4d8864736f6c63430008000033",
  "immutableReferences": {},
  "source": "pragma solidity ^0.8.0;\r\n\r\nimport \"./NPXSXEMToken.sol\";\r\nimport \"./PurseToken.sol\";\r\n\r\ncontract NPXSXEMigration {\r\n    string public name = \"NPXSXEM Migration\";\r\n    PurseToken public purseToken;\r\n    address public owner;\r\n    uint256 public constant validDuration = 3 days;\r\n    uint256 public constant releaseDuration = 1 minutes;\r\n    uint256 internal tokenBurnRate = 2;\r\n    uint256 internal migrationStart;\r\n\r\n    mapping(address => uint256) public migrateCount;\r\n    mapping(address => mapping (uint256 => uint256)) public releaseIteration;\r\n    mapping(address => mapping (uint256 => mapping (uint256 => migratorInfo))) public migrator;  //address->index->times   \r\n\r\n    struct migratorInfo {\r\n        uint256 migrateCount;\r\n        uint256 releaseIteration;\r\n        uint256 releaseBalance;\r\n        uint256 unlockTime;\r\n        bool isRedeem;\r\n    }\r\n\r\n    constructor(NPXSXEMToken _npxsxemToken, PurseToken _purseToken) public {\r\n        purseToken = _purseToken;\r\n        owner = msg.sender;\r\n        migrationStart = block.timestamp;\r\n    }\r\n\r\n    function migrateNPXSXEM(uint256 _amount) public {\r\n        uint256 end = migrationStart + validDuration;\r\n        require(_amount >= 0, 'amount less than 0');\r\n        require(block.timestamp <= end, \"Migration window over\");\r\n        migrateCount[msg.sender] += 1;\r\n        uint256 transferAmount = _amount * tokenBurnRate;\r\n        purseToken.transfer(msg.sender, transferAmount);\r\n\r\n    }\r\n\r\n}\r\n",
  "sourcePath": "C:/Users/cheek/Desktop/Developer doc/Visual Studio Code/PundiX/PurseReward/YieldFarm_BridgeEthBsc/src/contracts/NPXSXEMigration.sol",
  "compiler": {
    "name": "solc",
    "version": "0.8.0+commit.c7dfd78e.Emscripten.clang"
  },
  "schemaVersion": "3.3.4",
  "updatedAt": "2021-08-16T01:39:56.109Z",
  "networkType": "ethereum",
  "devdoc": {
    "kind": "dev",
    "methods": {},
    "version": 1
  },
  "userdoc": {
    "kind": "user",
    "methods": {},
    "version": 1
  }
}