{
  "contractName": "PurseDistribution",
  "abi": [
    {
      "inputs": [
        {
          "internalType": "contract PurseTokenMultiSigUpgradable",
          "name": "_purseToken",
          "type": "address"
        }
      ],
      "stateMutability": "nonpayable",
      "type": "constructor"
    },
    {
      "inputs": [
        {
          "internalType": "address",
          "name": "",
          "type": "address"
        },
        {
          "internalType": "uint256",
          "name": "",
          "type": "uint256"
        }
      ],
      "name": "holder",
      "outputs": [
        {
          "internalType": "uint256",
          "name": "releaseIteration",
          "type": "uint256"
        },
        {
          "internalType": "uint256",
          "name": "distributeAmount",
          "type": "uint256"
        },
        {
          "internalType": "uint256",
          "name": "unlockTime",
          "type": "uint256"
        },
        {
          "internalType": "bool",
          "name": "isRedeem",
          "type": "bool"
        }
      ],
      "stateMutability": "view",
      "type": "function",
      "constant": true
    },
    {
      "inputs": [],
      "name": "name",
      "outputs": [
        {
          "internalType": "string",
          "name": "",
          "type": "string"
        }
      ],
      "stateMutability": "view",
      "type": "function",
      "constant": true
    },
    {
      "inputs": [],
      "name": "owner",
      "outputs": [
        {
          "internalType": "address",
          "name": "",
          "type": "address"
        }
      ],
      "stateMutability": "view",
      "type": "function",
      "constant": true
    },
    {
      "inputs": [],
      "name": "purseToken",
      "outputs": [
        {
          "internalType": "contract PurseTokenMultiSigUpgradable",
          "name": "",
          "type": "address"
        }
      ],
      "stateMutability": "view",
      "type": "function",
      "constant": true
    },
    {
      "inputs": [],
      "name": "releaseDuration",
      "outputs": [
        {
          "internalType": "uint256",
          "name": "",
          "type": "uint256"
        }
      ],
      "stateMutability": "view",
      "type": "function",
      "constant": true
    },
    {
      "inputs": [
        {
          "internalType": "address",
          "name": "",
          "type": "address"
        }
      ],
      "name": "releaseIteration",
      "outputs": [
        {
          "internalType": "uint256",
          "name": "",
          "type": "uint256"
        }
      ],
      "stateMutability": "view",
      "type": "function",
      "constant": true
    },
    {
      "inputs": [
        {
          "internalType": "address",
          "name": "_holder",
          "type": "address"
        },
        {
          "internalType": "uint256",
          "name": "_amount",
          "type": "uint256"
        }
      ],
      "name": "updateHolderInfoFirst",
      "outputs": [],
      "stateMutability": "nonpayable",
      "type": "function"
    },
    {
      "inputs": [
        {
          "internalType": "address",
          "name": "_holder",
          "type": "address"
        },
        {
          "internalType": "uint256",
          "name": "_amount",
          "type": "uint256"
        },
        {
          "internalType": "uint256",
          "name": "_iteration",
          "type": "uint256"
        }
      ],
      "name": "updateHolderInfoRemaining",
      "outputs": [],
      "stateMutability": "nonpayable",
      "type": "function"
    },
    {
      "inputs": [
        {
          "internalType": "uint256",
          "name": "_releaseIteration",
          "type": "uint256"
        }
      ],
      "name": "claim",
      "outputs": [],
      "stateMutability": "nonpayable",
      "type": "function"
    },
    {
      "inputs": [],
      "name": "claimAll",
      "outputs": [],
      "stateMutability": "nonpayable",
      "type": "function"
    }
  ],
  "bytecode": "0x60806040526040518060400160405280601281526020017f507572736520446973747269627574696f6e0000000000000000000000000000815250600090805190602001906200005192919062000113565b5060026003553480156200006457600080fd5b50604051620017053803806200170583398181016040528101906200008a9190620001da565b80600160006101000a81548173ffffffffffffffffffffffffffffffffffffffff021916908373ffffffffffffffffffffffffffffffffffffffff16021790555033600260006101000a81548173ffffffffffffffffffffffffffffffffffffffff021916908373ffffffffffffffffffffffffffffffffffffffff16021790555050620002cd565b82805462000121906200024e565b90600052602060002090601f01602090048101928262000145576000855562000191565b82601f106200016057805160ff191683800117855562000191565b8280016001018555821562000191579182015b828111156200019057825182559160200191906001019062000173565b5b509050620001a09190620001a4565b5090565b5b80821115620001bf576000816000905550600101620001a5565b5090565b600081519050620001d481620002b3565b92915050565b600060208284031215620001ed57600080fd5b6000620001fd84828501620001c3565b91505092915050565b600062000213826200022e565b9050919050565b6000620002278262000206565b9050919050565b600073ffffffffffffffffffffffffffffffffffffffff82169050919050565b600060028204905060018216806200026757607f821691505b602082108114156200027e576200027d62000284565b5b50919050565b7f4e487b7100000000000000000000000000000000000000000000000000000000600052602260045260246000fd5b620002be816200021a565b8114620002ca57600080fd5b50565b61142880620002dd6000396000f3fe608060405234801561001057600080fd5b506004361061009e5760003560e01c806351bf16ef1161006657806351bf16ef1461015c5780638da5cb5b1461017a578063a8c23a9814610198578063d1058e59146101b4578063f9b41891146101be5761009e565b806306fdde03146100a357806325b0da02146100c157806329a512fd146100dd578063379607f51461010d5780633f594c4f14610129575b600080fd5b6100ab6101dc565b6040516100b89190610f52565b60405180910390f35b6100db60048036038101906100d69190610d15565b61026a565b005b6100f760048036038101906100f29190610cec565b61046e565b6040516101049190610ff4565b60405180910390f35b61012760048036038101906101229190610dc9565b610486565b005b610143600480360381019061013e9190610d15565b610748565b604051610153949392919061100f565b60405180910390f35b610164610792565b6040516101719190610f37565b60405180910390f35b6101826107b8565b60405161018f9190610ef3565b60405180910390f35b6101b260048036038101906101ad9190610d51565b6107de565b005b6101bc6109e0565b005b6101c6610ca8565b6040516101d39190610ff4565b60405180910390f35b600080546101e9906111f0565b80601f0160208091040260200160405190810160405280929190818152602001828054610215906111f0565b80156102625780601f1061023757610100808354040283529160200191610262565b820191906000526020600020905b81548152906001019060200180831161024557829003601f168201915b505050505081565b600260009054906101000a900473ffffffffffffffffffffffffffffffffffffffff1673ffffffffffffffffffffffffffffffffffffffff163373ffffffffffffffffffffffffffffffffffffffff16146102fa576040517f08c379a00000000000000000000000000000000000000000000000000000000081526004016102f190610fb4565b60405180910390fd5b600081101561033e576040517f08c379a000000000000000000000000000000000000000000000000000000000815260040161033590610fd4565b60405180910390fd5b60006064600c8361034f91906110f7565b61035991906110c6565b90506000603c4261036a9190611070565b905060405180608001604052806001815260200183815260200182815260200160011515815250600560008673ffffffffffffffffffffffffffffffffffffffff1673ffffffffffffffffffffffffffffffffffffffff16815260200190815260200160002060006001815260200190815260200160002060008201518160000155602082015181600101556040820151816002015560608201518160030160006101000a81548160ff0219169083151502179055509050506001600460008673ffffffffffffffffffffffffffffffffffffffff1673ffffffffffffffffffffffffffffffffffffffff1681526020019081526020016000208190555050505050565b60046020528060005260406000206000915090505481565b600560003373ffffffffffffffffffffffffffffffffffffffff1673ffffffffffffffffffffffffffffffffffffffff16815260200190815260200160002060008281526020019081526020016000206002015442101561051c576040517f08c379a000000000000000000000000000000000000000000000000000000000815260040161051390610f74565b60405180910390fd5b60011515600560003373ffffffffffffffffffffffffffffffffffffffff1673ffffffffffffffffffffffffffffffffffffffff168152602001908152602001600020600083815260200190815260200160002060030160009054906101000a900460ff161515146105c3576040517f08c379a00000000000000000000000000000000000000000000000000000000081526004016105ba90610f94565b60405180910390fd5b6000600560003373ffffffffffffffffffffffffffffffffffffffff1673ffffffffffffffffffffffffffffffffffffffff168152602001908152602001600020600083815260200190815260200160002060030160006101000a81548160ff0219169083151502179055506000600354600560003373ffffffffffffffffffffffffffffffffffffffff1673ffffffffffffffffffffffffffffffffffffffff16815260200190815260200160002060008481526020019081526020016000206001015461069291906110f7565b9050600160009054906101000a900473ffffffffffffffffffffffffffffffffffffffff1673ffffffffffffffffffffffffffffffffffffffff1663a9059cbb33836040518363ffffffff1660e01b81526004016106f1929190610f0e565b602060405180830381600087803b15801561070b57600080fd5b505af115801561071f573d6000803e3d6000fd5b505050506040513d601f19601f820116820180604052508101906107439190610da0565b505050565b6005602052816000526040600020602052806000526040600020600091509150508060000154908060010154908060020154908060030160009054906101000a900460ff16905084565b600160009054906101000a900473ffffffffffffffffffffffffffffffffffffffff1681565b600260009054906101000a900473ffffffffffffffffffffffffffffffffffffffff1681565b600260009054906101000a900473ffffffffffffffffffffffffffffffffffffffff1673ffffffffffffffffffffffffffffffffffffffff163373ffffffffffffffffffffffffffffffffffffffff161461086e576040517f08c379a000000000000000000000000000000000000000000000000000000000815260040161086590610fb4565b60405180910390fd5b60008210156108b2576040517f08c379a00000000000000000000000000000000000000000000000000000000081526004016108a990610fd4565b60405180910390fd5b600060646008846108c391906110f7565b6108cd91906110c6565b90506000603c426108de9190611070565b9050604051806080016040528084815260200183815260200182815260200160011515815250600560008773ffffffffffffffffffffffffffffffffffffffff1673ffffffffffffffffffffffffffffffffffffffff168152602001908152602001600020600085815260200190815260200160002060008201518160000155602082015181600101556040820151816002015560608201518160030160006101000a81548160ff02191690831515021790555090505082600460008773ffffffffffffffffffffffffffffffffffffffff1673ffffffffffffffffffffffffffffffffffffffff168152602001908152602001600020819055505050505050565b600080600190505b600460003373ffffffffffffffffffffffffffffffffffffffff1673ffffffffffffffffffffffffffffffffffffffff168152602001908152602001600020548111610bea57600560003373ffffffffffffffffffffffffffffffffffffffff1673ffffffffffffffffffffffffffffffffffffffff1681526020019081526020016000206000828152602001908152602001600020600201544210610bd75760011515600560003373ffffffffffffffffffffffffffffffffffffffff1673ffffffffffffffffffffffffffffffffffffffff168152602001908152602001600020600083815260200190815260200160002060030160009054906101000a900460ff1615151415610bd6576000600560003373ffffffffffffffffffffffffffffffffffffffff1673ffffffffffffffffffffffffffffffffffffffff168152602001908152602001600020600083815260200190815260200160002060030160006101000a81548160ff0219169083151502179055506000600354600560003373ffffffffffffffffffffffffffffffffffffffff1673ffffffffffffffffffffffffffffffffffffffff168152602001908152602001600020600084815260200190815260200160002060010154610bc491906110f7565b90508083610bd29190611070565b9250505b5b8080610be290611222565b9150506109e8565b506000811115610ca557600160009054906101000a900473ffffffffffffffffffffffffffffffffffffffff1673ffffffffffffffffffffffffffffffffffffffff1663a9059cbb33836040518363ffffffff1660e01b8152600401610c51929190610f0e565b602060405180830381600087803b158015610c6b57600080fd5b505af1158015610c7f573d6000803e3d6000fd5b505050506040513d601f19601f82011682018060405250810190610ca39190610da0565b505b50565b603c81565b600081359050610cbc816113ad565b92915050565b600081519050610cd1816113c4565b92915050565b600081359050610ce6816113db565b92915050565b600060208284031215610cfe57600080fd5b6000610d0c84828501610cad565b91505092915050565b60008060408385031215610d2857600080fd5b6000610d3685828601610cad565b9250506020610d4785828601610cd7565b9150509250929050565b600080600060608486031215610d6657600080fd5b6000610d7486828701610cad565b9350506020610d8586828701610cd7565b9250506040610d9686828701610cd7565b9150509250925092565b600060208284031215610db257600080fd5b6000610dc084828501610cc2565b91505092915050565b600060208284031215610ddb57600080fd5b6000610de984828501610cd7565b91505092915050565b610dfb81611151565b82525050565b610e0a81611163565b82525050565b610e1981611199565b82525050565b6000610e2a82611054565b610e34818561105f565b9350610e448185602086016111bd565b610e4d816112f8565b840191505092915050565b6000610e65600d8361105f565b9150610e7082611309565b602082019050919050565b6000610e8860108361105f565b9150610e9382611332565b602082019050919050565b6000610eab600a8361105f565b9150610eb68261135b565b602082019050919050565b6000610ece60128361105f565b9150610ed982611384565b602082019050919050565b610eed8161118f565b82525050565b6000602082019050610f086000830184610df2565b92915050565b6000604082019050610f236000830185610df2565b610f306020830184610ee4565b9392505050565b6000602082019050610f4c6000830184610e10565b92915050565b60006020820190508181036000830152610f6c8184610e1f565b905092915050565b60006020820190508181036000830152610f8d81610e58565b9050919050565b60006020820190508181036000830152610fad81610e7b565b9050919050565b60006020820190508181036000830152610fcd81610e9e565b9050919050565b60006020820190508181036000830152610fed81610ec1565b9050919050565b60006020820190506110096000830184610ee4565b92915050565b60006080820190506110246000830187610ee4565b6110316020830186610ee4565b61103e6040830185610ee4565b61104b6060830184610e01565b95945050505050565b600081519050919050565b600082825260208201905092915050565b600061107b8261118f565b91506110868361118f565b9250827fffffffffffffffffffffffffffffffffffffffffffffffffffffffffffffffff038211156110bb576110ba61126b565b5b828201905092915050565b60006110d18261118f565b91506110dc8361118f565b9250826110ec576110eb61129a565b5b828204905092915050565b60006111028261118f565b915061110d8361118f565b9250817fffffffffffffffffffffffffffffffffffffffffffffffffffffffffffffffff04831182151516156111465761114561126b565b5b828202905092915050565b600061115c8261116f565b9050919050565b60008115159050919050565b600073ffffffffffffffffffffffffffffffffffffffff82169050919050565b6000819050919050565b60006111a4826111ab565b9050919050565b60006111b68261116f565b9050919050565b60005b838110156111db5780820151818401526020810190506111c0565b838111156111ea576000848401525b50505050565b6000600282049050600182168061120857607f821691505b6020821081141561121c5761121b6112c9565b5b50919050565b600061122d8261118f565b91507fffffffffffffffffffffffffffffffffffffffffffffffffffffffffffffffff8214156112605761125f61126b565b5b600182019050919050565b7f4e487b7100000000000000000000000000000000000000000000000000000000600052601160045260246000fd5b7f4e487b7100000000000000000000000000000000000000000000000000000000600052601260045260246000fd5b7f4e487b7100000000000000000000000000000000000000000000000000000000600052602260045260246000fd5b6000601f19601f8301169050919050565b7f6c6f636b656420706572696f6400000000000000000000000000000000000000600082015250565b7f68617665206265656e2072656465656d00000000000000000000000000000000600082015250565b7f6f6e6c79206f776e657200000000000000000000000000000000000000000000600082015250565b7f616d6f756e74206c657373207468616e20300000000000000000000000000000600082015250565b6113b681611151565b81146113c157600080fd5b50565b6113cd81611163565b81146113d857600080fd5b50565b6113e48161118f565b81146113ef57600080fd5b5056fea264697066735822122070a41c63dea5900403c8891a193973350e8cfb0c56073feea791a060b2f6f66864736f6c63430008030033",
  "immutableReferences": {},
  "source": "// SPDX-License-Identifier: UNLICENSED\r\n\r\npragma solidity ^0.8.0;\r\n\r\nimport \"./PurseTokenMultiSigUpgradable.sol\";\r\n\r\ncontract PurseDistribution {\r\n    string public name = \"Purse Distribution\";\r\n    PurseTokenMultiSigUpgradable public purseToken;\r\n    address public owner;\r\n    uint256 public constant releaseDuration = 1 minutes;   //change this to month for production\r\n    uint256 internal tokenBurnRate = 2;                 // update token burn rate\r\n\r\n\r\n    mapping(address => uint256) public releaseIteration;\r\n    mapping(address => mapping (uint256 => holderInfo)) public holder;  //address->index   \r\n\r\n    struct holderInfo {\r\n        uint256 releaseIteration;\r\n        uint256 distributeAmount;\r\n        uint256 unlockTime;\r\n        bool isRedeem;\r\n    }\r\n\r\n    constructor(PurseTokenMultiSigUpgradable _purseToken) public {\r\n        purseToken = _purseToken;\r\n        owner = msg.sender;\r\n    }\r\n\r\n    function updateHolderInfoFirst(address _holder, uint256 _amount) public {\r\n        require(msg.sender == owner, 'only owner');\r\n        require(_amount >= 0, 'amount less than 0');\r\n\r\n        uint256 part1Amount = (_amount * 12) / 100;\r\n        uint256 unlockTimeStamp = block.timestamp + releaseDuration;\r\n        holder[_holder][1] = holderInfo(1, part1Amount, unlockTimeStamp, true);\r\n        releaseIteration[_holder] = 1;\r\n\r\n    }\r\n\r\n    function updateHolderInfoRemaining(address _holder, uint256 _amount, uint256 _iteration) public {\r\n        require(msg.sender == owner, 'only owner');\r\n        require(_amount >= 0, 'amount less than 0');\r\n\r\n        uint256 part2Amount = (_amount * 8) / 100;       \r\n\r\n        uint256 unlockTimeStamp = block.timestamp + releaseDuration;\r\n        holder[_holder][_iteration] = holderInfo(_iteration, part2Amount, unlockTimeStamp, true);\r\n        releaseIteration[_holder] = _iteration;\r\n    }\r\n\r\n    // notice Transfers tokens held by timelock to beneficiary.\r\n    function claim(uint256 _releaseIteration) public {\r\n        require(block.timestamp >= holder[msg.sender][_releaseIteration].unlockTime, 'locked period');\r\n        require(holder[msg.sender][_releaseIteration].isRedeem == true, 'have been redeem');\r\n\r\n        holder[msg.sender][_releaseIteration].isRedeem = false;\r\n        uint256 claimAmount = holder[msg.sender][_releaseIteration].distributeAmount * tokenBurnRate;\r\n        purseToken.transfer(msg.sender, claimAmount);\r\n    }\r\n\r\n    // notice Transfers tokens held by timelock to beneficiary.\r\n    function claimAll() public {\r\n        uint256 claimAmount = 0;\r\n        for (uint256 i = 1; i <= releaseIteration[msg.sender]; i++) {\r\n            if (block.timestamp >= holder[msg.sender][i].unlockTime) {\r\n                if (holder[msg.sender][i].isRedeem == true) {\r\n                    holder[msg.sender][i].isRedeem = false;\r\n                    uint256 holderAmount = holder[msg.sender][i].distributeAmount * tokenBurnRate;\r\n                    claimAmount += holderAmount;                    \r\n                }\r\n            }\r\n        }\r\n        if (claimAmount > 0) {\r\n            purseToken.transfer(msg.sender, claimAmount);\r\n        }        \r\n    }\r\n}\r\n",
  "sourcePath": "C:/Users/cheek/Desktop/Developer doc/Visual Studio Code/PundiX/PurseReward/YieldFarm_BridgeEthBsc/src/contracts/PurseDistribution.sol",
  "compiler": {
    "name": "solc",
    "version": "0.8.3+commit.8d00100c.Emscripten.clang"
  },
  "schemaVersion": "3.2.3",
  "updatedAt": "2021-08-27T03:06:13.004Z",
  "networkType": "ethereum",
  "devdoc": {
    "kind": "dev",
    "methods": {},
    "version": 1
  },
  "userdoc": {
    "kind": "user",
    "methods": {},
    "version": 1
  }
}