{
  "contractName": "PurseDistribution",
  "abi": [
    {
      "inputs": [
        {
          "internalType": "contract IERC20",
          "name": "_purseToken",
          "type": "address"
        }
      ],
      "stateMutability": "nonpayable",
      "type": "constructor"
    },
    {
      "anonymous": false,
      "inputs": [
        {
          "indexed": true,
          "internalType": "address",
          "name": "sender",
          "type": "address"
        },
        {
          "indexed": false,
          "internalType": "uint256",
          "name": "iteration",
          "type": "uint256"
        }
      ],
      "name": "addHolder",
      "type": "event"
    },
    {
      "anonymous": false,
      "inputs": [
        {
          "indexed": true,
          "internalType": "address",
          "name": "owner",
          "type": "address"
        },
        {
          "indexed": false,
          "internalType": "uint256",
          "name": "amount",
          "type": "uint256"
        },
        {
          "indexed": false,
          "internalType": "uint256",
          "name": "Iteration_End",
          "type": "uint256"
        }
      ],
      "name": "claimAllReward",
      "type": "event"
    },
    {
      "anonymous": false,
      "inputs": [
        {
          "indexed": true,
          "internalType": "address",
          "name": "owner",
          "type": "address"
        },
        {
          "indexed": false,
          "internalType": "uint256",
          "name": "amount",
          "type": "uint256"
        },
        {
          "indexed": true,
          "internalType": "uint256",
          "name": "Iteration",
          "type": "uint256"
        }
      ],
      "name": "claimReward",
      "type": "event"
    },
    {
      "anonymous": false,
      "inputs": [
        {
          "indexed": true,
          "internalType": "address",
          "name": "sender",
          "type": "address"
        },
        {
          "indexed": false,
          "internalType": "uint256",
          "name": "iteration",
          "type": "uint256"
        }
      ],
      "name": "updateHolder",
      "type": "event"
    },
    {
      "inputs": [],
      "name": "endDistribution",
      "outputs": [
        {
          "internalType": "uint256",
          "name": "",
          "type": "uint256"
        }
      ],
      "stateMutability": "view",
      "type": "function",
      "constant": true
    },
    {
      "inputs": [
        {
          "internalType": "address",
          "name": "",
          "type": "address"
        },
        {
          "internalType": "uint256",
          "name": "",
          "type": "uint256"
        }
      ],
      "name": "holder",
      "outputs": [
        {
          "internalType": "uint256",
          "name": "distributeAmount",
          "type": "uint256"
        },
        {
          "internalType": "bool",
          "name": "isRedeem",
          "type": "bool"
        }
      ],
      "stateMutability": "view",
      "type": "function",
      "constant": true
    },
    {
      "inputs": [],
      "name": "isClaimStart",
      "outputs": [
        {
          "internalType": "bool",
          "name": "",
          "type": "bool"
        }
      ],
      "stateMutability": "view",
      "type": "function",
      "constant": true
    },
    {
      "inputs": [],
      "name": "name",
      "outputs": [
        {
          "internalType": "string",
          "name": "",
          "type": "string"
        }
      ],
      "stateMutability": "view",
      "type": "function",
      "constant": true
    },
    {
      "inputs": [
        {
          "internalType": "uint256",
          "name": "",
          "type": "uint256"
        }
      ],
      "name": "numOfHolder",
      "outputs": [
        {
          "internalType": "uint256",
          "name": "",
          "type": "uint256"
        }
      ],
      "stateMutability": "view",
      "type": "function",
      "constant": true
    },
    {
      "inputs": [],
      "name": "owner",
      "outputs": [
        {
          "internalType": "address",
          "name": "",
          "type": "address"
        }
      ],
      "stateMutability": "view",
      "type": "function",
      "constant": true
    },
    {
      "inputs": [],
      "name": "purseToken",
      "outputs": [
        {
          "internalType": "contract IERC20",
          "name": "",
          "type": "address"
        }
      ],
      "stateMutability": "view",
      "type": "function",
      "constant": true
    },
    {
      "inputs": [],
      "name": "validDuration",
      "outputs": [
        {
          "internalType": "uint256",
          "name": "",
          "type": "uint256"
        }
      ],
      "stateMutability": "view",
      "type": "function",
      "constant": true
    },
    {
      "inputs": [
        {
          "internalType": "address[]",
          "name": "_holder",
          "type": "address[]"
        },
        {
          "internalType": "uint256[]",
          "name": "_amount",
          "type": "uint256[]"
        },
        {
          "internalType": "uint256",
          "name": "iteration",
          "type": "uint256"
        }
      ],
      "name": "addHolderInfo",
      "outputs": [],
      "stateMutability": "nonpayable",
      "type": "function"
    },
    {
      "inputs": [
        {
          "internalType": "address[]",
          "name": "_holder",
          "type": "address[]"
        },
        {
          "internalType": "uint256[]",
          "name": "_amount",
          "type": "uint256[]"
        },
        {
          "internalType": "uint256",
          "name": "iteration",
          "type": "uint256"
        }
      ],
      "name": "updateHolderInfo",
      "outputs": [],
      "stateMutability": "nonpayable",
      "type": "function"
    },
    {
      "inputs": [
        {
          "internalType": "bool",
          "name": "check",
          "type": "bool"
        },
        {
          "internalType": "uint256",
          "name": "_startClaim",
          "type": "uint256"
        }
      ],
      "name": "startClaim",
      "outputs": [],
      "stateMutability": "nonpayable",
      "type": "function"
    },
    {
      "inputs": [
        {
          "internalType": "uint256",
          "name": "_endDistribution",
          "type": "uint256"
        }
      ],
      "name": "updateEndDistribution",
      "outputs": [],
      "stateMutability": "nonpayable",
      "type": "function"
    },
    {
      "inputs": [
        {
          "internalType": "address[]",
          "name": "_holder",
          "type": "address[]"
        },
        {
          "internalType": "uint256[]",
          "name": "_amount",
          "type": "uint256[]"
        },
        {
          "internalType": "uint256",
          "name": "iteration",
          "type": "uint256"
        }
      ],
      "name": "checkData",
      "outputs": [
        {
          "internalType": "uint256",
          "name": "",
          "type": "uint256"
        },
        {
          "internalType": "bool",
          "name": "",
          "type": "bool"
        }
      ],
      "stateMutability": "view",
      "type": "function",
      "constant": true
    },
    {
      "inputs": [
        {
          "internalType": "uint256",
          "name": "iteration",
          "type": "uint256"
        }
      ],
      "name": "claim",
      "outputs": [],
      "stateMutability": "nonpayable",
      "type": "function"
    },
    {
      "inputs": [
        {
          "internalType": "uint256",
          "name": "iteration_end",
          "type": "uint256"
        }
      ],
      "name": "claimAll",
      "outputs": [],
      "stateMutability": "nonpayable",
      "type": "function"
    },
    {
      "inputs": [
        {
          "internalType": "address",
          "name": "_to",
          "type": "address"
        }
      ],
      "name": "returnPurseToken",
      "outputs": [],
      "stateMutability": "nonpayable",
      "type": "function"
    },
    {
      "inputs": [
        {
          "internalType": "address",
          "name": "token",
          "type": "address"
        },
        {
          "internalType": "uint256",
          "name": "amount",
          "type": "uint256"
        },
        {
          "internalType": "address",
          "name": "_to",
          "type": "address"
        }
      ],
      "name": "returnAnyToken",
      "outputs": [],
      "stateMutability": "nonpayable",
      "type": "function"
    },
    {
      "inputs": [
        {
          "internalType": "address",
          "name": "_owner",
          "type": "address"
        }
      ],
      "name": "updateOwner",
      "outputs": [],
      "stateMutability": "nonpayable",
      "type": "function"
    }
  ],
  "bytecode": "0x60c06040526012608081905271283ab939b2902234b9ba3934b13aba34b7b760711b60a090815262000035916000919062000095565b503480156200004357600080fd5b50604051620014753803806200147583398101604081905262000066916200013b565b600180546001600160a01b039092166001600160a01b03199283161790556002805490911633179055620001aa565b828054620000a3906200016d565b90600052602060002090601f016020900481019282620000c7576000855562000112565b82601f10620000e257805160ff191683800117855562000112565b8280016001018555821562000112579182015b8281111562000112578251825591602001919060010190620000f5565b506200012092915062000124565b5090565b5b8082111562000120576000815560010162000125565b6000602082840312156200014e57600080fd5b81516001600160a01b03811681146200016657600080fd5b9392505050565b600181811c908216806200018257607f821691505b60208210811415620001a457634e487b7160e01b600052602260045260246000fd5b50919050565b6112bb80620001ba6000396000f3fe608060405234801561001057600080fd5b50600436106101165760003560e01c806362da19d4116100a2578063880cdc3111610071578063880cdc31146102765780638da5cb5b14610289578063c237e3261461029c578063e650d293146102af578063f09de43f146102cc57600080fd5b806362da19d41461023457806364c76117146102475780636930fd2a146102505780636a0ca31f1461026357600080fd5b80632d6008e4116100e95780632d6008e414610179578063379607f5146101995780633f594c4f146101ac57806351bf16ef146101f6578063603d65a61461022157600080fd5b806306fdde031461011b578063080541bb1461013957806319953d681461014e5780632948ff4114610161575b600080fd5b6101236102df565b6040516101309190611162565b60405180910390f35b61014c610147366004611112565b61036d565b005b61014c61015c366004611081565b6103d5565b61016b6277f88081565b604051908152602001610130565b61016b610187366004611130565b60066020526000908152604090205481565b61014c6101a7366004611130565b6105d2565b6101e16101ba36600461101b565b60056020908152600092835260408084209091529082529020805460019091015460ff1682565b60408051928352901515602083015201610130565b600154610209906001600160a01b031681565b6040516001600160a01b039091168152602001610130565b61014c61022f366004611081565b610781565b6101e1610242366004611081565b61093e565b61016b60035481565b61014c61025e366004611130565b6109ea565b61014c610271366004611130565b610bf2565b61014c610284366004610ff9565b610c21565b600254610209906001600160a01b031681565b61014c6102aa366004611045565b610d0a565b6004546102bc9060ff1681565b6040519015158152602001610130565b61014c6102da366004610ff9565b610e0d565b600080546102ec906111f2565b80601f0160208091040260200160405190810160405280929190818152602001828054610318906111f2565b80156103655780601f1061033a57610100808354040283529160200191610365565b820191906000526020600020905b81548152906001019060200180831161034857829003601f168201915b505050505081565b6002546001600160a01b031633146103a05760405162461bcd60e51b8152600401610397906111b7565b60405180910390fd5b81156103c7576103b36277f880826111da565b6003556004805460ff191660011790555050565b6004805460ff191690555050565b6002546001600160a01b031633146103ff5760405162461bcd60e51b8152600401610397906111b7565b60008483146104445760405162461bcd60e51b81526020600482015260116024820152706c656e67746820646966666572656e636560781b6044820152606401610397565b848110156105945760008484838181106104605761046061125e565b905060200201351180156104c35750600560008787848181106104855761048561125e565b905060200201602081019061049a9190610ff9565b6001600160a01b0316815260208082019290925260409081016000908120858252909252902054155b156105825760405180604001604052808585848181106104e5576104e561125e565b905060200201358152602001600015158152506005600088888581811061050e5761050e61125e565b90506020020160208101906105239190610ff9565b6001600160a01b0316815260208082019290925260409081016000908120868252835281812084518155938301516001948501805460ff191691151591909117905560069092528120805490919061057c9084906111da565b90915550505b8061058c8161122d565b915050610444565b60405182815233907f61f152361c81724040ee7c9387deb92fa0eea588ae5d8bb4695a22fa113c208e906020015b60405180910390a2505050505050565b60045460ff1615156001146105e657600080fd5b60035442106106325760405162461bcd60e51b81526020600482015260186024820152772234b9ba3934b13aba34b7b7103bb4b73237bb9037bb32b960411b6044820152606401610397565b33600090815260056020908152604080832084845290915290206001015460ff16156106935760405162461bcd60e51b815260206004820152601060248201526f68617665206265656e2072656465656d60801b6044820152606401610397565b336000818152600560209081526040808320858452909152908190206001808201805460ff19168217905590549054915163a9059cbb60e01b8152600481019390935260248301819052916001600160a01b039091169063a9059cbb90604401602060405180830381600087803b15801561070d57600080fd5b505af1158015610721573d6000803e3d6000fd5b505050506040513d601f19601f8201168201806040525081019061074591906110f5565b50604051818152829033907f9d06fc9af1e0d81649eba41f3599f74e3dc8b0881aa0d622585d707fad3ac2a29060200160405180910390a35050565b6002546001600160a01b031633146107ab5760405162461bcd60e51b8152600401610397906111b7565b60008483146107f05760405162461bcd60e51b81526020600482015260116024820152706c656e67746820646966666572656e636560781b6044820152606401610397565b8481101561090c576005600087878481811061080e5761080e61125e565b90506020020160208101906108239190610ff9565b6001600160a01b0316815260208082019290925260409081016000908120858252909252902060019081015460ff161515141561085f576108fa565b604051806040016040528085858481811061087c5761087c61125e565b90506020020135815260200160001515815250600560008888858181106108a5576108a561125e565b90506020020160208101906108ba9190610ff9565b6001600160a01b0316815260208082019290925260409081016000908120868252835220825181559101516001909101805460ff19169115159190911790555b806109048161122d565b9150506107f0565b60405182815233907f9e2057e5eb47a9914f114cc7d4b9a13c5f1f81ede19b1abcfd2e4115b7b2fc83906020016105c2565b60008060005b868110156109d95785858281811061095e5761095e61125e565b90506020020135600560008a8a8581811061097b5761097b61125e565b90506020020160208101906109909190610ff9565b6001600160a01b0316815260208082019290925260409081016000908120888252909252902054146109c7579150600090506109e0565b806109d18161122d565b915050610944565b9150600190505b9550959350505050565b60045460ff1615156001146109fe57600080fd5b6003544210610a4a5760405162461bcd60e51b81526020600482015260186024820152772234b9ba3934b13aba34b7b7103bb4b73237bb9037bb32b960411b6044820152606401610397565b6000805b828111610b265733600090815260056020908152604080832084845290915290206001015460ff16610b145733600090815260056020908152604080832084845290915290206001015460ff1615610adb5760405162461bcd60e51b815260206004820152601060248201526f68617665206265656e2072656465656d60801b6044820152606401610397565b33600090815260056020908152604080832084845290915290206001808201805460ff1916909117905554610b1081846111da565b9250505b80610b1e8161122d565b915050610a4e565b508015610bb35760015460405163a9059cbb60e01b8152336004820152602481018390526001600160a01b039091169063a9059cbb90604401602060405180830381600087803b158015610b7957600080fd5b505af1158015610b8d573d6000803e3d6000fd5b505050506040513d601f19601f82011682018060405250810190610bb191906110f5565b505b604080518281526020810184905233917f984e2f0e1b5ed8ebd9ae70fdcdc7fcd417ee2dcff4f94b89330acd73c2e6a8d1910160405180910390a25050565b6002546001600160a01b03163314610c1c5760405162461bcd60e51b8152600401610397906111b7565b600355565b6002546001600160a01b03163314610c4b5760405162461bcd60e51b8152600401610397906111b7565b6001600160a01b038116610c955760405162461bcd60e51b81526020600482015260116024820152706e6f742076616c6964206164647265737360781b6044820152606401610397565b6002546001600160a01b0382811691161415610ce85760405162461bcd60e51b815260206004820152601260248201527173616d65206f776e6572206164647265737360701b6044820152606401610397565b600280546001600160a01b0319166001600160a01b0392909216919091179055565b6002546001600160a01b03163314610d345760405162461bcd60e51b8152600401610397906111b7565b6001600160a01b038116610d855760405162461bcd60e51b815260206004820152601860248201527773656e6420746f20746865207a65726f206164647265737360401b6044820152606401610397565b60405163a9059cbb60e01b81526001600160a01b0382811660048301526024820184905284169063a9059cbb90604401602060405180830381600087803b158015610dcf57600080fd5b505af1158015610de3573d6000803e3d6000fd5b505050506040513d601f19601f82011682018060405250810190610e0791906110f5565b50505050565b6002546001600160a01b03163314610e375760405162461bcd60e51b8152600401610397906111b7565b6001600160a01b038116610e885760405162461bcd60e51b815260206004820152601860248201527773656e6420746f20746865207a65726f206164647265737360401b6044820152606401610397565b6001546040516370a0823160e01b81523060048201526000916001600160a01b0316906370a082319060240160206040518083038186803b158015610ecc57600080fd5b505afa158015610ee0573d6000803e3d6000fd5b505050506040513d601f19601f82011682018060405250810190610f049190611149565b60015460405163a9059cbb60e01b81526001600160a01b0385811660048301526024820184905292935091169063a9059cbb90604401602060405180830381600087803b158015610f5457600080fd5b505af1158015610f68573d6000803e3d6000fd5b505050506040513d601f19601f82011682018060405250810190610f8c91906110f5565b505050565b80356001600160a01b0381168114610fa857600080fd5b919050565b60008083601f840112610fbf57600080fd5b50813567ffffffffffffffff811115610fd757600080fd5b6020830191508360208260051b8501011115610ff257600080fd5b9250929050565b60006020828403121561100b57600080fd5b61101482610f91565b9392505050565b6000806040838503121561102e57600080fd5b61103783610f91565b946020939093013593505050565b60008060006060848603121561105a57600080fd5b61106384610f91565b92506020840135915061107860408501610f91565b90509250925092565b60008060008060006060868803121561109957600080fd5b853567ffffffffffffffff808211156110b157600080fd5b6110bd89838a01610fad565b909750955060208801359150808211156110d657600080fd5b506110e388828901610fad565b96999598509660400135949350505050565b60006020828403121561110757600080fd5b815161101481611274565b6000806040838503121561112557600080fd5b823561103781611274565b60006020828403121561114257600080fd5b5035919050565b60006020828403121561115b57600080fd5b5051919050565b600060208083528351808285015260005b8181101561118f57858101830151858201604001528201611173565b818111156111a1576000604083870101525b50601f01601f1916929092016040019392505050565b6020808252600990820152683737ba1037bbb732b960b91b604082015260600190565b600082198211156111ed576111ed611248565b500190565b600181811c9082168061120657607f821691505b6020821081141561122757634e487b7160e01b600052602260045260246000fd5b50919050565b600060001982141561124157611241611248565b5060010190565b634e487b7160e01b600052601160045260246000fd5b634e487b7160e01b600052603260045260246000fd5b801515811461128257600080fd5b5056fea2646970667358221220dfc69face94dc0817ef7a17cd5ff04da7db75212ff8a576e35877ad5c7947a8d64736f6c63430008070033",
  "immutableReferences": {},
  "source": "// SPDX-License-Identifier: UNLICENSED\r\n\r\npragma solidity ^0.8.0;\r\n\r\n// import \"./PurseTokenUpgradable.sol\";\r\n\r\nimport \"@openzeppelin/contracts/token/ERC20/IERC20.sol\";\r\n\r\ncontract PurseDistribution {\r\n    event claimReward(address indexed owner, uint256 amount, uint256 indexed Iteration);\r\n    event claimAllReward(address indexed owner, uint256 amount, uint256 Iteration_End);\r\n    event addHolder(address indexed sender, uint256 iteration);\r\n    event updateHolder(address indexed sender, uint256 iteration);\r\n    \r\n    string public name = \"Purse Distribution\";\r\n    IERC20 public purseToken;\r\n    address public owner;\r\n    uint256 public constant validDuration = 91 days;\r\n    uint256 public endDistribution;\r\n    bool public isClaimStart;\r\n\r\n    mapping(address => mapping(uint256 => holderInfo)) public holder;   //address->index   \r\n    mapping(uint256 => uint256) public numOfHolder;\r\n\r\n    struct holderInfo {\r\n        uint256 distributeAmount;\r\n        bool isRedeem;\r\n    }\r\n    \r\n    modifier onlyOwner() {\r\n        require(msg.sender == owner, \"not owner\");\r\n        _;\r\n    }\r\n\r\n    constructor(IERC20 _purseToken) {\r\n        purseToken = _purseToken;\r\n        owner = msg.sender;\r\n    }\r\n\r\n    function addHolderInfo(address[] calldata _holder, uint256[] calldata _amount , uint256 iteration) public onlyOwner {\r\n        uint256 i = 0;\r\n        require(_holder.length == _amount.length, \"length difference\");\r\n        for (i; i < _holder.length; i++) {\r\n            if (_amount[i] > 0 && holder[_holder[i]][iteration].distributeAmount == 0) {\r\n                holder[_holder[i]][iteration] = holderInfo(_amount[i], false);\r\n                numOfHolder[iteration] += 1;\r\n            }\r\n        }\r\n        emit addHolder(msg.sender, iteration);\r\n    }\r\n\r\n    function updateHolderInfo(address[] calldata _holder, uint256[] calldata _amount , uint256 iteration) public onlyOwner {\r\n        uint256 i = 0;\r\n        require(_holder.length == _amount.length, \"length difference\");\r\n        for (i; i < _holder.length; i++) {\r\n            if (holder[_holder[i]][iteration].isRedeem == true) {\r\n                continue;\r\n            }\r\n            holder[_holder[i]][iteration] = holderInfo(_amount[i], false);\r\n        }\r\n        emit updateHolder(msg.sender, iteration);\r\n    }\r\n\r\n    function startClaim(bool check, uint256 _startClaim) public onlyOwner {\r\n        if (check) {\r\n            endDistribution = _startClaim + validDuration;\r\n            isClaimStart = true;\r\n        } else {\r\n            isClaimStart = false;\r\n        }\r\n    }\r\n\r\n    function updateEndDistribution(uint256 _endDistribution) public onlyOwner {\r\n        endDistribution = _endDistribution;\r\n    }\r\n\r\n    function checkData(address[] calldata _holder, uint256[] calldata _amount, uint256 iteration) public view returns (uint256, bool) {\r\n        uint256 i = 0;\r\n        for (i; i < _holder.length; i++) {\r\n            if (holder[_holder[i]][iteration].distributeAmount != _amount[i]) {\r\n                return (i, false);\r\n            }\r\n        }\r\n        return (i, true);        \r\n    }\r\n\r\n    // Notice Transfers tokens held by timelock to beneficiary.\r\n    function claim(uint256 iteration) public {\r\n        require (isClaimStart == true);\r\n        require(block.timestamp < endDistribution, \"Distribution window over\");\r\n        require(holder[msg.sender][iteration].isRedeem == false, 'have been redeem');\r\n\r\n        holder[msg.sender][iteration].isRedeem = true;\r\n        uint256 claimAmount = holder[msg.sender][iteration].distributeAmount;\r\n        purseToken.transfer(msg.sender, claimAmount);\r\n        emit claimReward(msg.sender, claimAmount, iteration);\r\n    }\r\n\r\n    function claimAll(uint256 iteration_end) public {\r\n        require (isClaimStart == true);\r\n        require(block.timestamp < endDistribution, \"Distribution window over\");\r\n        uint256 claimAmount = 0;\r\n        for (uint256 i = 0; i <= iteration_end; i++) {\r\n                if (holder[msg.sender][i].isRedeem == false) {\r\n                    require(holder[msg.sender][i].isRedeem == false, 'have been redeem');\r\n                    holder[msg.sender][i].isRedeem = true;\r\n                    uint256 holderAmount = holder[msg.sender][i].distributeAmount;\r\n                    claimAmount += holderAmount;                    \r\n                }\r\n        }\r\n        if (claimAmount > 0) {\r\n            purseToken.transfer(msg.sender, claimAmount);\r\n        }\r\n        emit claimAllReward(msg.sender, claimAmount, iteration_end);\r\n    }\r\n    \r\n    function returnPurseToken(address _to) public onlyOwner {\r\n        require(_to != address(0), \"send to the zero address\");\r\n        uint256 remainingAmount = purseToken.balanceOf(address(this));\r\n        purseToken.transfer(_to, remainingAmount);\r\n    }\r\n\r\n    function returnAnyToken(address token, uint256 amount, address _to) public onlyOwner{\r\n        require(_to != address(0), \"send to the zero address\");\r\n        IERC20(token).transfer(_to, amount);\r\n    } \r\n\r\n    function updateOwner(address _owner) public onlyOwner{\r\n        require(_owner != address(0), \"not valid address\");\r\n        require(_owner != owner, \"same owner address\");\r\n        owner = _owner;\r\n    } \r\n}\r\n",
  "sourcePath": "C:/Users/cheek/Desktop/Developer doc/Visual Studio Code/PundiX/purseRewardBSC/src/contracts/PurseDistribution.sol",
  "compiler": {
    "name": "solc",
    "version": "0.8.7+commit.e28d00a7.Emscripten.clang"
  },
  "schemaVersion": "3.2.3",
  "updatedAt": "2021-10-11T10:34:37.744Z",
  "networkType": "ethereum",
  "devdoc": {
    "kind": "dev",
    "methods": {},
    "version": 1
  },
  "userdoc": {
    "kind": "user",
    "methods": {},
    "version": 1
  }
}