{
  "contractName": "PurseTokenUpgradableV2",
  "abi": [
    {
      "anonymous": false,
      "inputs": [
        {
          "indexed": false,
          "internalType": "address",
          "name": "previousAdmin",
          "type": "address"
        },
        {
          "indexed": false,
          "internalType": "address",
          "name": "newAdmin",
          "type": "address"
        }
      ],
      "name": "AdminChanged",
      "type": "event"
    },
    {
      "anonymous": false,
      "inputs": [
        {
          "indexed": true,
          "internalType": "address",
          "name": "_owner",
          "type": "address"
        },
        {
          "indexed": true,
          "internalType": "address",
          "name": "_spender",
          "type": "address"
        },
        {
          "indexed": false,
          "internalType": "uint256",
          "name": "_value",
          "type": "uint256"
        }
      ],
      "name": "Approval",
      "type": "event"
    },
    {
      "anonymous": false,
      "inputs": [
        {
          "indexed": true,
          "internalType": "address",
          "name": "beacon",
          "type": "address"
        }
      ],
      "name": "BeaconUpgraded",
      "type": "event"
    },
    {
      "anonymous": false,
      "inputs": [
        {
          "indexed": true,
          "internalType": "address",
          "name": "_from",
          "type": "address"
        },
        {
          "indexed": false,
          "internalType": "uint256",
          "name": "_value",
          "type": "uint256"
        }
      ],
      "name": "Burn",
      "type": "event"
    },
    {
      "anonymous": false,
      "inputs": [
        {
          "indexed": true,
          "internalType": "address",
          "name": "_from",
          "type": "address"
        },
        {
          "indexed": true,
          "internalType": "address",
          "name": "_to",
          "type": "address"
        },
        {
          "indexed": false,
          "internalType": "uint256",
          "name": "_value",
          "type": "uint256"
        }
      ],
      "name": "Mint",
      "type": "event"
    },
    {
      "anonymous": false,
      "inputs": [
        {
          "indexed": true,
          "internalType": "address",
          "name": "previousOwner",
          "type": "address"
        },
        {
          "indexed": true,
          "internalType": "address",
          "name": "newOwner",
          "type": "address"
        }
      ],
      "name": "OwnershipTransferred",
      "type": "event"
    },
    {
      "anonymous": false,
      "inputs": [
        {
          "indexed": false,
          "internalType": "address",
          "name": "account",
          "type": "address"
        }
      ],
      "name": "Paused",
      "type": "event"
    },
    {
      "anonymous": false,
      "inputs": [
        {
          "indexed": true,
          "internalType": "address",
          "name": "_from",
          "type": "address"
        },
        {
          "indexed": true,
          "internalType": "address",
          "name": "_to",
          "type": "address"
        },
        {
          "indexed": false,
          "internalType": "uint256",
          "name": "_value",
          "type": "uint256"
        }
      ],
      "name": "Transfer",
      "type": "event"
    },
    {
      "anonymous": false,
      "inputs": [
        {
          "indexed": false,
          "internalType": "address",
          "name": "account",
          "type": "address"
        }
      ],
      "name": "Unpaused",
      "type": "event"
    },
    {
      "anonymous": false,
      "inputs": [
        {
          "indexed": false,
          "internalType": "uint256",
          "name": "_newMinimumSupply",
          "type": "uint256"
        }
      ],
      "name": "UpdateMinSupply",
      "type": "event"
    },
    {
      "anonymous": false,
      "inputs": [
        {
          "indexed": false,
          "internalType": "uint256",
          "name": "_newBurnPercent",
          "type": "uint256"
        },
        {
          "indexed": false,
          "internalType": "uint256",
          "name": "_newDisPercent",
          "type": "uint256"
        },
        {
          "indexed": false,
          "internalType": "uint256",
          "name": "_newLiqPercent",
          "type": "uint256"
        }
      ],
      "name": "UpdatePercent",
      "type": "event"
    },
    {
      "anonymous": false,
      "inputs": [
        {
          "indexed": true,
          "internalType": "address",
          "name": "implementation",
          "type": "address"
        }
      ],
      "name": "Upgraded",
      "type": "event"
    },
    {
      "inputs": [],
      "name": "_averageInterval",
      "outputs": [
        {
          "internalType": "uint256",
          "name": "",
          "type": "uint256"
        }
      ],
      "stateMutability": "view",
      "type": "function",
      "constant": true
    },
    {
      "inputs": [],
      "name": "_getRewardEndTime",
      "outputs": [
        {
          "internalType": "uint256",
          "name": "",
          "type": "uint256"
        }
      ],
      "stateMutability": "view",
      "type": "function",
      "constant": true
    },
    {
      "inputs": [],
      "name": "_getRewardStartTime",
      "outputs": [
        {
          "internalType": "uint256",
          "name": "",
          "type": "uint256"
        }
      ],
      "stateMutability": "view",
      "type": "function",
      "constant": true
    },
    {
      "inputs": [],
      "name": "_lastRewardStartTime",
      "outputs": [
        {
          "internalType": "uint256",
          "name": "",
          "type": "uint256"
        }
      ],
      "stateMutability": "view",
      "type": "function",
      "constant": true
    },
    {
      "inputs": [],
      "name": "_monthlyDistributePr",
      "outputs": [
        {
          "internalType": "uint256",
          "name": "",
          "type": "uint256"
        }
      ],
      "stateMutability": "view",
      "type": "function",
      "constant": true
    },
    {
      "inputs": [],
      "name": "_numOfDaysPerMth",
      "outputs": [
        {
          "internalType": "uint256",
          "name": "",
          "type": "uint256"
        }
      ],
      "stateMutability": "view",
      "type": "function",
      "constant": true
    },
    {
      "inputs": [],
      "name": "_percentageDistribute",
      "outputs": [
        {
          "internalType": "uint256",
          "name": "",
          "type": "uint256"
        }
      ],
      "stateMutability": "view",
      "type": "function",
      "constant": true
    },
    {
      "inputs": [],
      "name": "_totalSupply",
      "outputs": [
        {
          "internalType": "uint256",
          "name": "",
          "type": "uint256"
        }
      ],
      "stateMutability": "view",
      "type": "function",
      "constant": true
    },
    {
      "inputs": [
        {
          "internalType": "address",
          "name": "",
          "type": "address"
        }
      ],
      "name": "accAmount",
      "outputs": [
        {
          "internalType": "uint256",
          "name": "amount",
          "type": "uint256"
        },
        {
          "internalType": "uint256",
          "name": "accReward",
          "type": "uint256"
        },
        {
          "internalType": "uint256",
          "name": "lastUpdateTime",
          "type": "uint256"
        }
      ],
      "stateMutability": "view",
      "type": "function",
      "constant": true
    },
    {
      "inputs": [
        {
          "internalType": "uint256",
          "name": "",
          "type": "uint256"
        }
      ],
      "name": "admins",
      "outputs": [
        {
          "internalType": "address",
          "name": "",
          "type": "address"
        }
      ],
      "stateMutability": "view",
      "type": "function",
      "constant": true
    },
    {
      "inputs": [
        {
          "internalType": "address",
          "name": "",
          "type": "address"
        },
        {
          "internalType": "address",
          "name": "",
          "type": "address"
        }
      ],
      "name": "allowance",
      "outputs": [
        {
          "internalType": "uint256",
          "name": "",
          "type": "uint256"
        }
      ],
      "stateMutability": "view",
      "type": "function",
      "constant": true
    },
    {
      "inputs": [
        {
          "internalType": "address",
          "name": "",
          "type": "address"
        }
      ],
      "name": "balanceOf",
      "outputs": [
        {
          "internalType": "uint256",
          "name": "",
          "type": "uint256"
        }
      ],
      "stateMutability": "view",
      "type": "function",
      "constant": true
    },
    {
      "inputs": [],
      "name": "burnPercent",
      "outputs": [
        {
          "internalType": "uint256",
          "name": "",
          "type": "uint256"
        }
      ],
      "stateMutability": "view",
      "type": "function",
      "constant": true
    },
    {
      "inputs": [],
      "name": "decimals",
      "outputs": [
        {
          "internalType": "uint8",
          "name": "",
          "type": "uint8"
        }
      ],
      "stateMutability": "view",
      "type": "function",
      "constant": true
    },
    {
      "inputs": [],
      "name": "disPercent",
      "outputs": [
        {
          "internalType": "uint256",
          "name": "",
          "type": "uint256"
        }
      ],
      "stateMutability": "view",
      "type": "function",
      "constant": true
    },
    {
      "inputs": [],
      "name": "disPool",
      "outputs": [
        {
          "internalType": "address",
          "name": "",
          "type": "address"
        }
      ],
      "stateMutability": "view",
      "type": "function",
      "constant": true
    },
    {
      "inputs": [
        {
          "internalType": "address",
          "name": "",
          "type": "address"
        }
      ],
      "name": "isAdmin",
      "outputs": [
        {
          "internalType": "bool",
          "name": "",
          "type": "bool"
        }
      ],
      "stateMutability": "view",
      "type": "function",
      "constant": true
    },
    {
      "inputs": [
        {
          "internalType": "address",
          "name": "",
          "type": "address"
        }
      ],
      "name": "isWhitelistedFrom",
      "outputs": [
        {
          "internalType": "bool",
          "name": "",
          "type": "bool"
        }
      ],
      "stateMutability": "view",
      "type": "function",
      "constant": true
    },
    {
      "inputs": [
        {
          "internalType": "address",
          "name": "",
          "type": "address"
        }
      ],
      "name": "isWhitelistedTo",
      "outputs": [
        {
          "internalType": "bool",
          "name": "",
          "type": "bool"
        }
      ],
      "stateMutability": "view",
      "type": "function",
      "constant": true
    },
    {
      "inputs": [],
      "name": "liqPercent",
      "outputs": [
        {
          "internalType": "uint256",
          "name": "",
          "type": "uint256"
        }
      ],
      "stateMutability": "view",
      "type": "function",
      "constant": true
    },
    {
      "inputs": [],
      "name": "liqPool",
      "outputs": [
        {
          "internalType": "address",
          "name": "",
          "type": "address"
        }
      ],
      "stateMutability": "view",
      "type": "function",
      "constant": true
    },
    {
      "inputs": [],
      "name": "minimumSupply",
      "outputs": [
        {
          "internalType": "uint256",
          "name": "",
          "type": "uint256"
        }
      ],
      "stateMutability": "view",
      "type": "function",
      "constant": true
    },
    {
      "inputs": [],
      "name": "name",
      "outputs": [
        {
          "internalType": "string",
          "name": "",
          "type": "string"
        }
      ],
      "stateMutability": "view",
      "type": "function",
      "constant": true
    },
    {
      "inputs": [],
      "name": "owner",
      "outputs": [
        {
          "internalType": "address",
          "name": "",
          "type": "address"
        }
      ],
      "stateMutability": "view",
      "type": "function",
      "constant": true
    },
    {
      "inputs": [],
      "name": "paused",
      "outputs": [
        {
          "internalType": "bool",
          "name": "",
          "type": "bool"
        }
      ],
      "stateMutability": "view",
      "type": "function",
      "constant": true
    },
    {
      "inputs": [],
      "name": "renounceOwnership",
      "outputs": [],
      "stateMutability": "nonpayable",
      "type": "function"
    },
    {
      "inputs": [],
      "name": "symbol",
      "outputs": [
        {
          "internalType": "string",
          "name": "",
          "type": "string"
        }
      ],
      "stateMutability": "view",
      "type": "function",
      "constant": true
    },
    {
      "inputs": [],
      "name": "totalSupply",
      "outputs": [
        {
          "internalType": "uint256",
          "name": "",
          "type": "uint256"
        }
      ],
      "stateMutability": "view",
      "type": "function",
      "constant": true
    },
    {
      "inputs": [
        {
          "internalType": "address",
          "name": "newOwner",
          "type": "address"
        }
      ],
      "name": "transferOwnership",
      "outputs": [],
      "stateMutability": "nonpayable",
      "type": "function"
    },
    {
      "inputs": [
        {
          "internalType": "address",
          "name": "newImplementation",
          "type": "address"
        }
      ],
      "name": "upgradeTo",
      "outputs": [],
      "stateMutability": "nonpayable",
      "type": "function"
    },
    {
      "inputs": [
        {
          "internalType": "address",
          "name": "newImplementation",
          "type": "address"
        },
        {
          "internalType": "bytes",
          "name": "data",
          "type": "bytes"
        }
      ],
      "name": "upgradeToAndCall",
      "outputs": [],
      "stateMutability": "payable",
      "type": "function",
      "payable": true
    },
    {
      "inputs": [
        {
          "internalType": "address",
          "name": "_to",
          "type": "address"
        },
        {
          "internalType": "uint256",
          "name": "_value",
          "type": "uint256"
        }
      ],
      "name": "transfer",
      "outputs": [
        {
          "internalType": "bool",
          "name": "success",
          "type": "bool"
        }
      ],
      "stateMutability": "nonpayable",
      "type": "function"
    },
    {
      "inputs": [
        {
          "internalType": "address",
          "name": "_spender",
          "type": "address"
        },
        {
          "internalType": "uint256",
          "name": "_value",
          "type": "uint256"
        }
      ],
      "name": "approve",
      "outputs": [
        {
          "internalType": "bool",
          "name": "success",
          "type": "bool"
        }
      ],
      "stateMutability": "nonpayable",
      "type": "function"
    },
    {
      "inputs": [
        {
          "internalType": "address",
          "name": "_from",
          "type": "address"
        },
        {
          "internalType": "address",
          "name": "_to",
          "type": "address"
        },
        {
          "internalType": "uint256",
          "name": "_value",
          "type": "uint256"
        }
      ],
      "name": "transferFrom",
      "outputs": [
        {
          "internalType": "bool",
          "name": "success",
          "type": "bool"
        }
      ],
      "stateMutability": "nonpayable",
      "type": "function"
    },
    {
      "inputs": [
        {
          "internalType": "address",
          "name": "_account",
          "type": "address"
        },
        {
          "internalType": "uint256",
          "name": "_amount",
          "type": "uint256"
        }
      ],
      "name": "mint",
      "outputs": [],
      "stateMutability": "nonpayable",
      "type": "function"
    },
    {
      "inputs": [
        {
          "internalType": "uint256",
          "name": "_amount",
          "type": "uint256"
        }
      ],
      "name": "burn",
      "outputs": [],
      "stateMutability": "nonpayable",
      "type": "function"
    },
    {
      "inputs": [],
      "name": "claimDistributionPurse",
      "outputs": [
        {
          "internalType": "bool",
          "name": "success",
          "type": "bool"
        }
      ],
      "stateMutability": "nonpayable",
      "type": "function"
    },
    {
      "inputs": [
        {
          "internalType": "uint256",
          "name": "_rewardStartTime",
          "type": "uint256"
        },
        {
          "internalType": "uint256",
          "name": "_rewardEndTime",
          "type": "uint256"
        },
        {
          "internalType": "uint256",
          "name": "_monthlyDisPr",
          "type": "uint256"
        },
        {
          "internalType": "uint256",
          "name": "_numOfDays",
          "type": "uint256"
        },
        {
          "internalType": "uint256",
          "name": "_percentage",
          "type": "uint256"
        }
      ],
      "name": "activateClaimMonthly",
      "outputs": [],
      "stateMutability": "nonpayable",
      "type": "function"
    },
    {
      "inputs": [
        {
          "internalType": "address",
          "name": "_newLPool",
          "type": "address"
        }
      ],
      "name": "updateLPoolAdd",
      "outputs": [],
      "stateMutability": "nonpayable",
      "type": "function"
    },
    {
      "inputs": [
        {
          "internalType": "address",
          "name": "_newDPool",
          "type": "address"
        }
      ],
      "name": "updateDPoolAdd",
      "outputs": [],
      "stateMutability": "nonpayable",
      "type": "function"
    },
    {
      "inputs": [
        {
          "internalType": "uint256",
          "name": "_newDisPercent",
          "type": "uint256"
        },
        {
          "internalType": "uint256",
          "name": "_newLiqPercent",
          "type": "uint256"
        },
        {
          "internalType": "uint256",
          "name": "_newBurnPercent",
          "type": "uint256"
        }
      ],
      "name": "updatePercent",
      "outputs": [],
      "stateMutability": "nonpayable",
      "type": "function"
    },
    {
      "inputs": [
        {
          "internalType": "uint256",
          "name": "_minimumSupply",
          "type": "uint256"
        }
      ],
      "name": "updateMinimumSupply",
      "outputs": [],
      "stateMutability": "nonpayable",
      "type": "function"
    },
    {
      "inputs": [
        {
          "internalType": "address",
          "name": "newAdmin",
          "type": "address"
        }
      ],
      "name": "addAdmin",
      "outputs": [],
      "stateMutability": "nonpayable",
      "type": "function"
    },
    {
      "inputs": [
        {
          "internalType": "uint256",
          "name": "index",
          "type": "uint256"
        }
      ],
      "name": "removeAdmin",
      "outputs": [
        {
          "internalType": "address[]",
          "name": "",
          "type": "address[]"
        }
      ],
      "stateMutability": "nonpayable",
      "type": "function"
    },
    {
      "inputs": [
        {
          "internalType": "address",
          "name": "token",
          "type": "address"
        },
        {
          "internalType": "uint256",
          "name": "amount",
          "type": "uint256"
        },
        {
          "internalType": "address",
          "name": "_to",
          "type": "address"
        }
      ],
      "name": "transferERCToken",
      "outputs": [],
      "stateMutability": "nonpayable",
      "type": "function"
    },
    {
      "inputs": [],
      "name": "pause",
      "outputs": [],
      "stateMutability": "nonpayable",
      "type": "function"
    },
    {
      "inputs": [],
      "name": "unpause",
      "outputs": [],
      "stateMutability": "nonpayable",
      "type": "function"
    },
    {
      "inputs": [
        {
          "internalType": "address",
          "name": "newWhitelist",
          "type": "address"
        }
      ],
      "name": "setWhitelistedTo",
      "outputs": [],
      "stateMutability": "nonpayable",
      "type": "function"
    },
    {
      "inputs": [
        {
          "internalType": "address",
          "name": "newWhitelist",
          "type": "address"
        }
      ],
      "name": "removeWhitelistedTo",
      "outputs": [],
      "stateMutability": "nonpayable",
      "type": "function"
    },
    {
      "inputs": [
        {
          "internalType": "address",
          "name": "newWhitelist",
          "type": "address"
        }
      ],
      "name": "setWhitelistedFrom",
      "outputs": [],
      "stateMutability": "nonpayable",
      "type": "function"
    },
    {
      "inputs": [
        {
          "internalType": "address",
          "name": "newWhitelist",
          "type": "address"
        }
      ],
      "name": "removeWhitelistedFrom",
      "outputs": [],
      "stateMutability": "nonpayable",
      "type": "function"
    },
    {
      "inputs": [
        {
          "internalType": "address",
          "name": "_to",
          "type": "address"
        },
        {
          "internalType": "address",
          "name": "_lPool",
          "type": "address"
        },
        {
          "internalType": "uint256",
          "name": "_burnPercent",
          "type": "uint256"
        },
        {
          "internalType": "uint256",
          "name": "_liqPercent",
          "type": "uint256"
        },
        {
          "internalType": "uint256",
          "name": "_disPercent",
          "type": "uint256"
        }
      ],
      "name": "initialize",
      "outputs": [],
      "stateMutability": "nonpayable",
      "type": "function"
    }
  ],
  "bytecode": "0x608060405234801561001057600080fd5b50613bd5806100206000396000f3fe6080604052600436106102ff5760003560e01c80637048027511610190578063b7c74bd3116100dc578063d13f90b411610095578063dd62ed3e1161006f578063dd62ed3e14610912578063e2657da11461094b578063f2fde38b1461096b578063f75672441461098b57600080fd5b8063d13f90b4146108bb578063d5529204146108db578063d5b8ddf8146108f257600080fd5b8063b7c74bd3146107c4578063bab384401461081c578063bc8d571d1461083c578063c43c082f14610853578063c6ef924614610873578063ca04d2d81461088a57600080fd5b80638456cb591161014957806395d89b411161012357806395d89b411461074b57806395e96ff114610760578063a9059cbb14610777578063ad7bbc291461079757600080fd5b80638456cb59146106f85780638da5cb5b1461070d57806395b13db31461072b57600080fd5b8063704802751461064757806370a0823114610667578063715018a614610695578063740b91f4146106aa5780637888f7b2146106cb5780637ede036d146106e257600080fd5b806335e8b82e1161024f57806342966c68116102085780634f1ef286116101e25780634f1ef286146105d45780635422e495146105e75780635b014029146105fe5780635c975abb1461062f57600080fd5b806342966c6814610574578063434f9237146105945780634d28b4ba146105b457600080fd5b806335e8b82e146104c65780633659cfe6146104e85780633838d4e3146105085780633eaaf86b146105285780633f4ba83a1461053f57806340c10f191461055457600080fd5b806318160ddd116102bc57806324d7806c1161029657806324d7806c1461043157806327ba6e1114610462578063313ce56714610483578063347d34c6146104af57600080fd5b806318160ddd146103e457806320b1e78a146103fa57806323b872dd1461041157600080fd5b806303807ee51461030457806306fdde031461032e578063095ea7b3146103505780630f4307e21461038057806311a6c16c1461039757806314bfd6d0146103ac575b600080fd5b34801561031057600080fd5b5061031b6101035481565b6040519081526020015b60405180910390f35b34801561033a57600080fd5b506103436109ab565b60405161032591906138df565b34801561035c57600080fd5b5061037061036b36600461376e565b610a39565b6040519015158152602001610325565b34801561038c57600080fd5b5061031b61010a5481565b3480156103a357600080fd5b50610370610ad3565b3480156103b857600080fd5b506103cc6103c73660046137f6565b610c20565b6040516001600160a01b039091168152602001610325565b3480156103f057600080fd5b5061031b60fd5481565b34801561040657600080fd5b5061031b61010b5481565b34801561041d57600080fd5b5061037061042c366004613623565b610c4b565b34801561043d57600080fd5b5061037061044c3660046135d5565b6101106020526000908152604090205460ff1681565b34801561046e57600080fd5b50610102546103cc906001600160a01b031681565b34801561048f57600080fd5b5060fe5461049d9060ff1681565b60405160ff9091168152602001610325565b3480156104bb57600080fd5b5061031b6101065481565b3480156104d257600080fd5b506104e66104e13660046135d5565b610f37565b005b3480156104f457600080fd5b506104e66105033660046135d5565b610fe3565b34801561051457600080fd5b506104e66105233660046135d5565b61100a565b34801561053457600080fd5b5061031b61010d5481565b34801561054b57600080fd5b506104e66110b9565b34801561056057600080fd5b506104e661056f36600461376e565b611136565b34801561058057600080fd5b506104e661058f3660046137f6565b61122a565b3480156105a057600080fd5b506104e66105af36600461383b565b6112ec565b3480156105c057600080fd5b506104e66105cf3660046135d5565b6114f5565b6104e66105e23660046136ac565b6115a4565b3480156105f357600080fd5b5061031b6101045481565b34801561060a57600080fd5b506103706106193660046135d5565b6101116020526000908152604090205460ff1681565b34801561063b57600080fd5b5060975460ff16610370565b34801561065357600080fd5b506104e66106623660046135d5565b6115b9565b34801561067357600080fd5b5061031b6106823660046135d5565b61010e6020526000908152604090205481565b3480156106a157600080fd5b506104e66116a0565b3480156106b657600080fd5b50610101546103cc906001600160a01b031681565b3480156106d757600080fd5b5061031b61010c5481565b3480156106ee57600080fd5b5061031b60ff5481565b34801561070457600080fd5b506104e66116d4565b34801561071957600080fd5b5060c9546001600160a01b03166103cc565b34801561073757600080fd5b506104e66107463660046137f6565b611729565b34801561075757600080fd5b5061034361178e565b34801561076c57600080fd5b5061031b6101095481565b34801561078357600080fd5b5061037061079236600461376e565b61179b565b3480156107a357600080fd5b506107b76107b23660046137f6565b61196c565b6040516103259190613892565b3480156107d057600080fd5b506108016107df3660046135d5565b6101136020526000908152604090208054600182015460029092015490919083565b60408051938452602084019290925290820152606001610325565b34801561082857600080fd5b506104e66108373660046135d5565b611bbc565b34801561084857600080fd5b5061031b6101085481565b34801561085f57600080fd5b506104e661086e36600461380f565b611c68565b34801561087f57600080fd5b5061031b6101055481565b34801561089657600080fd5b506103706108a53660046135d5565b6101126020526000908152604090205460ff1681565b3480156108c757600080fd5b506104e66108d636600461365f565b611da2565b3480156108e757600080fd5b5061031b6101075481565b3480156108fe57600080fd5b506104e661090d366004613798565b611f58565b34801561091e57600080fd5b5061031b61092d3660046135f0565b61010f60209081526000928352604080842090915290825290205481565b34801561095757600080fd5b506104e66109663660046135d5565b611ffe565b34801561097757600080fd5b506104e66109863660046135d5565b6120ad565b34801561099757600080fd5b506104e66109a63660046135d5565b612145565b60fb80546109b890613aaa565b80601f01602080910402602001604051908101604052809291908181526020018280546109e490613aaa565b8015610a315780601f10610a0657610100808354040283529160200191610a31565b820191906000526020600020905b815481529060010190602001808311610a1457829003601f168201915b505050505081565b6000610a4760975460ff1690565b15610a6d5760405162461bcd60e51b8152600401610a649061393e565b60405180910390fd5b33600081815261010f602090815260408083206001600160a01b03881680855290835292819020869055518581529192917f8c5be1e5ebec7d5bd14f71427d1e84f3dd0314c0f7b2291e5b200ac8c7c3b925910160405180910390a35060015b92915050565b6000610ae160975460ff1690565b15610afe5760405162461bcd60e51b8152600401610a649061393e565b610108544211610b445760405162461bcd60e51b815260206004820152601160248201527010db185a5b481b9bdd081cdd185c9d1959607a1b6044820152606401610a64565b610107544210610b8a5760405162461bcd60e51b815260206004820152601160248201527021b630b4b6903832b934b7b21037bb32b960791b6044820152606401610a64565b610b93336121f4565b3360009081526101136020526040902060010154610be65760405162461bcd60e51b815260206004820152601060248201526f0557365722072657761726420697320360841b6044820152606401610a64565b336000818152610113602052604081206001018054919055610102549091610c18916001600160a01b03169083612771565b600191505090565b6101008181548110610c3157600080fd5b6000918252602090912001546001600160a01b0316905081565b6000610c5960975460ff1690565b15610c765760405162461bcd60e51b8152600401610a649061393e565b6001600160a01b038416600090815261010e6020526040902054821115610caf5760405162461bcd60e51b8152600401610a6490613912565b6001600160a01b038416600090815261010f60209081526040808320338452909152902054821115610d1a5760405162461bcd60e51b81526020600482015260146024820152734e6f7420656e6f75676820616c6c6f77616e636560601b6044820152606401610a64565b6001600160a01b0383166000908152610111602052604090205460ff1680610d525750336000908152610112602052604090205460ff165b15610e3c576001600160a01b038416600090815261010f6020908152604080832033845290915281208054849290610d8b908490613a67565b90915550610d9b905084846127c3565b6001600160a01b038416600090815261010e602052604081208054849290610dc4908490613a67565b90915550506001600160a01b038316600090815261010e602052604081208054849290610df2908490613a0e565b92505081905550826001600160a01b0316846001600160a01b0316600080516020613b8083398151915284604051610e2c91815260200190565b60405180910390a3506001610f30565b6001600160a01b038416600090815261010f6020908152604080832033845290915281208054849290610e70908490613a67565b90915550610e80905084846127c3565b6000610e8c83866127d5565b6001600160a01b038616600090815261010e6020526040812080549293508392909190610eba908490613a67565b90915550506001600160a01b038416600090815261010e602052604081208054839290610ee8908490613a0e565b92505081905550836001600160a01b0316856001600160a01b0316600080516020613b8083398151915283604051610f2291815260200190565b60405180910390a360019150505b9392505050565b60c9546001600160a01b03163314610f615760405162461bcd60e51b8152600401610a64906139d9565b610101546001600160a01b0382811691161415610fc05760405162461bcd60e51b815260206004820152601a60248201527f53616d6520776974682070726576696f757320616464726573730000000000006044820152606401610a64565b61010180546001600160a01b0319166001600160a01b0392909216919091179055565b610fec81612822565b6110078160405180602001604052806000815250600061284c565b50565b60c9546001600160a01b031633146110345760405162461bcd60e51b8152600401610a64906139d9565b6001600160a01b0381166000908152610112602052604090205460ff16156110945760405162461bcd60e51b815260206004820152601360248201527277686974656c6973746564204164647265737360681b6044820152606401610a64565b6001600160a01b0316600090815261011260205260409020805460ff19166001179055565b60975460ff166111025760405162461bcd60e51b815260206004820152601460248201527314185d5cd8589b194e881b9bdd081c185d5cd95960621b6044820152606401610a64565b60c9546001600160a01b0316331461112c5760405162461bcd60e51b8152600401610a64906139d9565b6111346129d4565b565b60975460ff16156111595760405162461bcd60e51b8152600401610a649061393e565b336000908152610110602052604090205460ff166111a55760405162461bcd60e51b81526020600482015260096024820152682737ba1020b236b4b760b91b6044820152606401610a64565b6001600160a01b0382166111cb5760405162461bcd60e51b8152600401610a6490613968565b6111d4826121f4565b6001600160a01b038216600090815261010e6020526040812080548392906111fd908490613a0e565b925050819055508060fd60008282546112169190613a0e565b9091555061122690508282612a67565b5050565b60975460ff161561124d5760405162461bcd60e51b8152600401610a649061393e565b8061126a5760405162461bcd60e51b8152600401610a6490613968565b33600090815261010e602052604090205481111561129a5760405162461bcd60e51b8152600401610a6490613912565b6112a3336121f4565b33600090815261010e6020526040812080548392906112c3908490613a67565b925050819055508060fd60008282546112dc9190613a67565b9091555061100790503382612adc565b336000908152610110602052604090205460ff166113385760405162461bcd60e51b81526020600482015260096024820152682737ba1020b236b4b760b91b6044820152606401610a64565b4285116113805760405162461bcd60e51b81526020600482015260166024820152754c657373207468616e2063757272656e742074696d6560501b6044820152606401610a64565b8484116113c65760405162461bcd60e51b81526020600482015260146024820152734c657373207468616e2073746172742074696d6560601b6044820152606401610a64565b600082116114045760405162461bcd60e51b815260206004820152600b60248201526a04c657373207468616e20360ac1b6044820152606401610a64565b600081118015611415575060648111155b6114615760405162461bcd60e51b815260206004820152601c60248201527f4c657373207468616e2030206f72204d6f7265207468616e20313030000000006044820152606401610a64565b30600090815261010e60205260409020548311156114ba5760405162461bcd60e51b81526020600482015260166024820152754d6f7265207468616e20706f6f6c2062616c616e636560501b6044820152606401610a64565b60fd5461010d5561010854156114d3576101085461010c555b61010991909155610108939093556101079190915561010b9190915561010a55565b60c9546001600160a01b0316331461151f5760405162461bcd60e51b8152600401610a64906139d9565b6001600160a01b0381166000908152610112602052604090205460ff166115825760405162461bcd60e51b81526020600482015260176024820152764e6f6e2077686974656c6973746564204164647265737360481b6044820152606401610a64565b6001600160a01b0316600090815261011260205260409020805460ff19169055565b6115ad82612822565b6112268282600161284c565b60c9546001600160a01b031633146115e35760405162461bcd60e51b8152600401610a64906139d9565b6001600160a01b0381166000908152610110602052604090205460ff16156116385760405162461bcd60e51b815260206004820152600860248201526724b99030b236b4b760c11b6044820152606401610a64565b6001600160a01b0316600081815261011060205260408120805460ff19166001908117909155610100805491820181559091527f45e010b9ae401e2eb71529478da8bd513a9bdc2d095a111e324f5b95c09ed87b0180546001600160a01b0319169091179055565b60c9546001600160a01b031633146116ca5760405162461bcd60e51b8152600401610a64906139d9565b6111346000612b4b565b60975460ff16156116f75760405162461bcd60e51b8152600401610a649061393e565b60c9546001600160a01b031633146117215760405162461bcd60e51b8152600401610a64906139d9565b611134612b9d565b60c9546001600160a01b031633146117535760405162461bcd60e51b8152600401610a64906139d9565b60ff8190556040518181527f94520f313b1b6f8d796c70aaba10ac238fc06ba46ee7d5bc53c3bbf02c204e089060200160405180910390a150565b60fc80546109b890613aaa565b60006117a960975460ff1690565b156117c65760405162461bcd60e51b8152600401610a649061393e565b33600090815261010e60205260409020548211156117f65760405162461bcd60e51b8152600401610a6490613912565b6001600160a01b0383166000908152610111602052604090205460ff168061182e5750336000908152610112602052604090205460ff165b156118c65761183d33846127c3565b33600090815261010e60205260408120805484929061185d908490613a67565b90915550506001600160a01b038316600090815261010e60205260408120805484929061188b908490613a0e565b90915550506040518281526001600160a01b038416903390600080516020613b808339815191529060200160405180910390a3506001610acd565b6118d033846127c3565b60006118dc83336127d5565b33600090815261010e6020526040812080549293508392909190611901908490613a67565b90915550506001600160a01b038416600090815261010e60205260408120805483929061192f908490613a0e565b90915550506040518181526001600160a01b038516903390600080516020613b808339815191529060200160405180910390a36001915050610acd565b60c9546060906001600160a01b031633146119995760405162461bcd60e51b8152600401610a64906139d9565b6101005482106119eb5760405162461bcd60e51b815260206004820152601860248201527f496e707574206f7665722061646d696e73206c656e67746800000000000000006044820152606401610a64565b60006101008381548110611a0157611a01613b2c565b60009182526020808320909101546001600160a01b031680835261011090915260409091205490915060ff16611a685760405162461bcd60e51b815260206004820152600c60248201526b2737ba1030b71030b236b4b760a11b6044820152606401610a64565b825b61010054611a7a90600190613a67565b811015611b0757610100611a8f826001613a0e565b81548110611a9f57611a9f613b2c565b60009182526020909120015461010080546001600160a01b039092169183908110611acc57611acc613b2c565b600091825260209091200180546001600160a01b0319166001600160a01b039290921691909117905580611aff81613ae5565b915050611a6a565b50610100805480611b1a57611b1a613b16565b60008281526020808220830160001990810180546001600160a01b03191690559092019092556001600160a01b03831682526101108152604091829020805460ff1916905561010080548351818402810184019094528084529091830182828015611bae57602002820191906000526020600020905b81546001600160a01b03168152600190910190602001808311611b90575b50505050509150505b919050565b60c9546001600160a01b03163314611be65760405162461bcd60e51b8152600401610a64906139d9565b610102546001600160a01b0382811691161415611c455760405162461bcd60e51b815260206004820152601a60248201527f53616d6520776974682070726576696f757320616464726573730000000000006044820152606401610a64565b61010280546001600160a01b0319166001600160a01b0392909216919091179055565b60c9546001600160a01b03163314611c925760405162461bcd60e51b8152600401610a64906139d9565b6127108311158015611ca657506127108211155b8015611cb457506127108111155b611cec5760405162461bcd60e51b8152602060048201526009602482015268025203e2031303030360bc1b6044820152606401610a64565b61271081611cfa8486613a0e565b611d049190613a0e565b1115611d4a5760405162461bcd60e51b81526020600482015260156024820152740546f74616c206d6f7265207468616e20313030303605c1b6044820152606401610a64565b61010583905561010482905561010381905560408051828152602081018590529081018390527ff88fee99c2fbfa2cae1a62d35f81de61f19e20939cd6bfbd2b3bbdb8091acbcf9060600160405180910390a1505050565b600054610100900460ff1680611dbb575060005460ff16155b611dd75760405162461bcd60e51b8152600401610a649061398b565b600054610100900460ff16158015611df9576000805461ffff19166101011790555b6001600160a01b038516611e1f5760405162461bcd60e51b8152600401610a6490613968565b60408051808201909152600b8082526a282aa929a2902a27a5a2a760a91b6020909201918252611e519160fb91613525565b5060408051808201909152600580825264505552534560d81b6020909201918252611e7e9160fc91613525565b506bcecb8f27f4200f3a0000000060fd5560fe805460ff191660121790556b295be96e640669720000000060ff5561010180546001600160a01b0387166001600160a01b031991821617909155610102805490911630179055610103849055610104839055610105829055603c610106554261010c55611efc612bf5565b611f04612c70565b611f0c612cd7565b60fd546001600160a01b038716600090815261010e6020526040902055611f32866121f4565b611f3e8660fd54612a67565b8015611f50576000805461ff00191690555b505050505050565b60975460ff1615611f7b5760405162461bcd60e51b8152600401610a649061393e565b60c9546001600160a01b03163314611fa55760405162461bcd60e51b8152600401610a64906139d9565b6001600160a01b038116611fcb5760405162461bcd60e51b8152600401610a6490613968565b6001600160a01b038316301415611fe557611fe5816121f4565b611ff96001600160a01b0384168284612771565b505050565b60c9546001600160a01b031633146120285760405162461bcd60e51b8152600401610a64906139d9565b6001600160a01b0381166000908152610111602052604090205460ff1661208b5760405162461bcd60e51b81526020600482015260176024820152764e6f6e2077686974656c6973746564204164647265737360481b6044820152606401610a64565b6001600160a01b0316600090815261011160205260409020805460ff19169055565b60c9546001600160a01b031633146120d75760405162461bcd60e51b8152600401610a64906139d9565b6001600160a01b03811661213c5760405162461bcd60e51b815260206004820152602660248201527f4f776e61626c653a206e6577206f776e657220697320746865207a65726f206160448201526564647265737360d01b6064820152608401610a64565b61100781612b4b565b60c9546001600160a01b0316331461216f5760405162461bcd60e51b8152600401610a64906139d9565b6001600160a01b0381166000908152610111602052604090205460ff16156121cf5760405162461bcd60e51b815260206004820152601360248201527277686974656c6973746564204164647265737360681b6044820152606401610a64565b6001600160a01b0316600090815261011160205260409020805460ff19166001179055565b6001600160a01b038116600090815261011360205260409020600201546122da576101085461227c5760006101065461010c54426122329190613a67565b61223c9190613a26565b9050610106548161224d9190613a48565b61010c5461225b9190613a0e565b6001600160a01b038316600090815261011360205260409020600201555050565b6101085442101561229c5760006101065461010c54426122329190613a67565b60006101065461010854426122b19190613a67565b6122bb9190613a26565b905061010654816122cc9190613a48565b6101085461225b9190613a0e565b610108544210156124865761010c546001600160a01b0382166000908152610113602052604090206002015410156123995760006101065461010c54426123219190613a67565b61232b9190613a26565b6001600160a01b038316600090815261010e602052604081205491925090612354908390613a48565b905061010654826123659190613a48565b61010c546123739190613a0e565b6001600160a01b0384166000908152610113602052604090206002810191909155555050565b610106546001600160a01b038216600090815261011360205260408120600201549091906123c79042613a67565b6123d19190613a26565b905060018110611226576001600160a01b038216600090815261010e6020526040812054612400908390613a48565b905061010654826124119190613a48565b6001600160a01b038416600090815261011360205260408120600201805490919061243d908490613a0e565b90915550506001600160a01b03831660009081526101136020526040902054612467908290613a0e565b6001600160a01b03841660009081526101136020526040902055505050565b6101085442106110075761010c546001600160a01b0382166000908152610113602052604090206002015410156125a45760006101065461010c54610108546124cf9190613a67565b6124d99190613a26565b6001600160a01b038316600090815261010e602052604081205491925090612502908390613a48565b6001600160a01b038416600090815261011360205260408120556101095461010d5461010b5461010a549394506127109361253d9086613a48565b6125479190613a48565b612552906064613a48565b61255c9190613a26565b6125669190613a26565b6125709190613a26565b6001600160a01b038416600090815261011360205260409020600181019190915561010854600290910155611ff9836121f4565b61010c546001600160a01b03821660009081526101136020526040902060020154108015906125f15750610108546001600160a01b03821660009081526101136020526040902060020154105b1561239957610106546001600160a01b03821660009081526101136020526040812060020154610108549192916126289190613a67565b6126329190613a26565b905060018110612732576001600160a01b038216600090815261010e6020526040812054612661908390613a48565b6001600160a01b038416600090815261011360205260408120549192509061268a908390613a0e565b6001600160a01b038516600090815261011360205260408120556101095461010d5461010b5461010a54939450612710936126c59086613a48565b6126cf9190613a48565b6126da906064613a48565b6126e49190613a26565b6126ee9190613a26565b6126f89190613a26565b6001600160a01b03851660009081526101136020526040902060018101919091556101085460029091015561272c846121f4565b50505050565b6001600160a01b03821660009081526101136020526040812080549190556101095461010d5461010b5461010a546127109392919061253d9086613a48565b604080516001600160a01b038416602482015260448082018490528251808303909101815260649091019091526020810180516001600160e01b031663a9059cbb60e01b179052611ff9908490612d3e565b6127cc826121f4565b611226816121f4565b6000808080806127e487612e10565b919450925090506127f786848484612eb2565b8082612803858a613a67565b61280d9190613a67565b6128179190613a67565b979650505050505050565b60c9546001600160a01b031633146110075760405162461bcd60e51b8152600401610a64906139d9565b600061287f7f360894a13ba1a3210667c828492db98dca3e2076cc3735a920a3ca505d382bbc546001600160a01b031690565b905061288a846130a8565b6000835111806128975750815b156128a8576128a6848461314d565b505b7f4910fdfa16fed3260ed0e7147f7cc6da11a60208b5b9406d12a635614ffd9143805460ff166129cd57805460ff191660011781556040516001600160a01b038316602482015261292790869060440160408051601f198184030181529190526020810180516001600160e01b0316631b2ce7f360e11b17905261314d565b50805460ff191681557f360894a13ba1a3210667c828492db98dca3e2076cc3735a920a3ca505d382bbc546001600160a01b038381169116146129c45760405162461bcd60e51b815260206004820152602f60248201527f45524331393637557067726164653a207570677261646520627265616b73206660448201526e75727468657220757067726164657360881b6064820152608401610a64565b6129cd85613238565b5050505050565b60975460ff16612a1d5760405162461bcd60e51b815260206004820152601460248201527314185d5cd8589b194e881b9bdd081c185d5cd95960621b6044820152606401610a64565b6097805460ff191690557f5db9ee0a495bf2e6ff9c91a7834c1ba4fdd244a5e8aa4e537bd38aeae4b073aa335b6040516001600160a01b03909116815260200160405180910390a1565b6040518181526001600160a01b038316906000907fab8530f87dc9b59234c4623bf917212bb2536d647574c8e7e5da92c2ede0c9f89060200160405180910390a36040518181526001600160a01b03831690600090600080516020613b80833981519152906020015b60405180910390a35050565b816001600160a01b03167fcc16f5dbb4873280815c1ee09dbd06736cffcc184412cf7a71a0fdb75d397ca582604051612b1791815260200190565b60405180910390a26040518181526000906001600160a01b03841690600080516020613b8083398151915290602001612ad0565b60c980546001600160a01b038381166001600160a01b0319831681179093556040519116919082907f8be0079c531659141344cd1fd0a4f28419497f9722a3daafe3b4186f6b6457e090600090a35050565b60975460ff1615612bc05760405162461bcd60e51b8152600401610a649061393e565b6097805460ff191660011790557f62e78cea01bee320cd4e420270b5ea74000d11b0c9f74754ebdbfc544b05a258612a4a3390565b600054610100900460ff1680612c0e575060005460ff16155b612c2a5760405162461bcd60e51b8152600401610a649061398b565b600054610100900460ff16158015612c4c576000805461ffff19166101011790555b612c54613278565b612c5c6132e2565b8015611007576000805461ff001916905550565b600054610100900460ff1680612c89575060005460ff16155b612ca55760405162461bcd60e51b8152600401610a649061398b565b600054610100900460ff16158015612cc7576000805461ffff19166101011790555b612ccf613278565b612c5c613357565b600054610100900460ff1680612cf0575060005460ff16155b612d0c5760405162461bcd60e51b8152600401610a649061398b565b600054610100900460ff16158015612d2e576000805461ffff19166101011790555b612d36613278565b612c5c613278565b6000612d93826040518060400160405280602081526020017f5361666545524332303a206c6f772d6c6576656c2063616c6c206661696c6564815250856001600160a01b03166133b79092919063ffffffff16565b805190915015611ff95780806020019051810190612db191906137d4565b611ff95760405162461bcd60e51b815260206004820152602a60248201527f5361666545524332303a204552433230206f7065726174696f6e20646964206e6044820152691bdd081cdd58d8d9595960b21b6064820152608401610a64565b6000806000806000905060008060ff5460fd541115612ea5576127106101035488612e3b9190613a48565b612e459190613a26565b92506127106101045488612e599190613a48565b612e639190613a26565b91506127106101055488612e779190613a48565b612e819190613a26565b9050600060ff5460fd54612e959190613a67565b905080841115612ea3578093505b505b9196909550909350915050565b6001600160a01b038416612ed85760405162461bcd60e51b8152600401610a6490613968565b6001600160a01b038416600090815261010e60205260408120549082612efe8587613a0e565b612f089190613a0e565b905080821015612f2a5760405162461bcd60e51b8152600401610a6490613912565b6001600160a01b038616600090815261010e602052604081208054879290612f53908490613a67565b90915550506001600160a01b038616600090815261010e602052604081208054869290612f81908490613a67565b90915550506001600160a01b038616600090815261010e602052604081208054859290612faf908490613a67565b925050819055508460fd6000828254612fc89190613a67565b9091555050610101546001600160a01b0316600090815261010e602052604081208054869290612ff9908490613a0e565b9091555050610102546001600160a01b0316600090815261010e60205260408120805485929061302a908490613a0e565b9091555061303a90508686612adc565b610101546040518581526001600160a01b03909116903390600080516020613b808339815191529060200160405180910390a3610102546040518481526001600160a01b03909116903390600080516020613b808339815191529060200160405180910390a3505050505050565b803b61310c5760405162461bcd60e51b815260206004820152602d60248201527f455243313936373a206e657720696d706c656d656e746174696f6e206973206e60448201526c1bdd08184818dbdb9d1c9858dd609a1b6064820152608401610a64565b7f360894a13ba1a3210667c828492db98dca3e2076cc3735a920a3ca505d382bbc80546001600160a01b0319166001600160a01b0392909216919091179055565b6060823b6131ac5760405162461bcd60e51b815260206004820152602660248201527f416464726573733a2064656c65676174652063616c6c20746f206e6f6e2d636f6044820152651b9d1c9858dd60d21b6064820152608401610a64565b600080846001600160a01b0316846040516131c79190613876565b600060405180830381855af49150503d8060008114613202576040519150601f19603f3d011682016040523d82523d6000602084013e613207565b606091505b509150915061322f8282604051806060016040528060278152602001613b59602791396133ce565b95945050505050565b613241816130a8565b6040516001600160a01b038216907fbc7cd75a20ee27fd9adebab32041f755214dbc6bffa90cc0225b39da2e5c2d3b90600090a250565b600054610100900460ff1680613291575060005460ff16155b6132ad5760405162461bcd60e51b8152600401610a649061398b565b600054610100900460ff16158015612c5c576000805461ffff19166101011790558015611007576000805461ff001916905550565b600054610100900460ff16806132fb575060005460ff16155b6133175760405162461bcd60e51b8152600401610a649061398b565b600054610100900460ff16158015613339576000805461ffff19166101011790555b6097805460ff191690558015611007576000805461ff001916905550565b600054610100900460ff1680613370575060005460ff16155b61338c5760405162461bcd60e51b8152600401610a649061398b565b600054610100900460ff161580156133ae576000805461ffff19166101011790555b612c5c33612b4b565b60606133c68484600085613407565b949350505050565b606083156133dd575081610f30565b8251156133ed5782518084602001fd5b8160405162461bcd60e51b8152600401610a6491906138df565b606030318311156134695760405162461bcd60e51b815260206004820152602660248201527f416464726573733a20696e73756666696369656e742062616c616e636520666f6044820152651c8818d85b1b60d21b6064820152608401610a64565b843b6134b75760405162461bcd60e51b815260206004820152601d60248201527f416464726573733a2063616c6c20746f206e6f6e2d636f6e74726163740000006044820152606401610a64565b600080866001600160a01b031685876040516134d39190613876565b60006040518083038185875af1925050503d8060008114613510576040519150601f19603f3d011682016040523d82523d6000602084013e613515565b606091505b50915091506128178282866133ce565b82805461353190613aaa565b90600052602060002090601f0160209004810192826135535760008555613599565b82601f1061356c57805160ff1916838001178555613599565b82800160010185558215613599579182015b8281111561359957825182559160200191906001019061357e565b506135a59291506135a9565b5090565b5b808211156135a557600081556001016135aa565b80356001600160a01b0381168114611bb757600080fd5b6000602082840312156135e757600080fd5b610f30826135be565b6000806040838503121561360357600080fd5b61360c836135be565b915061361a602084016135be565b90509250929050565b60008060006060848603121561363857600080fd5b613641846135be565b925061364f602085016135be565b9150604084013590509250925092565b600080600080600060a0868803121561367757600080fd5b613680866135be565b945061368e602087016135be565b94979496505050506040830135926060810135926080909101359150565b600080604083850312156136bf57600080fd5b6136c8836135be565b9150602083013567ffffffffffffffff808211156136e557600080fd5b818501915085601f8301126136f957600080fd5b81358181111561370b5761370b613b42565b604051601f8201601f19908116603f0116810190838211818310171561373357613733613b42565b8160405282815288602084870101111561374c57600080fd5b8260208601602083013760006020848301015280955050505050509250929050565b6000806040838503121561378157600080fd5b61378a836135be565b946020939093013593505050565b6000806000606084860312156137ad57600080fd5b6137b6846135be565b9250602084013591506137cb604085016135be565b90509250925092565b6000602082840312156137e657600080fd5b81518015158114610f3057600080fd5b60006020828403121561380857600080fd5b5035919050565b60008060006060848603121561382457600080fd5b505081359360208301359350604090920135919050565b600080600080600060a0868803121561385357600080fd5b505083359560208501359550604085013594606081013594506080013592509050565b60008251613888818460208701613a7e565b9190910192915050565b6020808252825182820181905260009190848201906040850190845b818110156138d35783516001600160a01b0316835292840192918401916001016138ae565b50909695505050505050565b60208152600082518060208401526138fe816040850160208701613a7e565b601f01601f19169190910160400192915050565b6020808252601290820152714e6f7420656e6f7567682062616c616e636560701b604082015260600190565b60208082526010908201526f14185d5cd8589b194e881c185d5cd95960821b604082015260600190565b60208082526009908201526830206164647265737360b81b604082015260600190565b6020808252602e908201527f496e697469616c697a61626c653a20636f6e747261637420697320616c72656160408201526d191e481a5b9a5d1a585b1a5e995960921b606082015260800190565b6020808252818101527f4f776e61626c653a2063616c6c6572206973206e6f7420746865206f776e6572604082015260600190565b60008219821115613a2157613a21613b00565b500190565b600082613a4357634e487b7160e01b600052601260045260246000fd5b500490565b6000816000190483118215151615613a6257613a62613b00565b500290565b600082821015613a7957613a79613b00565b500390565b60005b83811015613a99578181015183820152602001613a81565b8381111561272c5750506000910152565b600181811c90821680613abe57607f821691505b60208210811415613adf57634e487b7160e01b600052602260045260246000fd5b50919050565b6000600019821415613af957613af9613b00565b5060010190565b634e487b7160e01b600052601160045260246000fd5b634e487b7160e01b600052603160045260246000fd5b634e487b7160e01b600052603260045260246000fd5b634e487b7160e01b600052604160045260246000fdfe416464726573733a206c6f772d6c6576656c2064656c65676174652063616c6c206661696c6564ddf252ad1be2c89b69c2b068fc378daa952ba7f163c4a11628f55a4df523b3efa2646970667358221220bf2cb0a5f77499c0b5ad31888ef0fd6426df4192da2af9e68d64d796ae18724164736f6c63430008070033",
  "immutableReferences": {},
  "source": "// SPDX-License-Identifier: MIT\r\n\r\npragma solidity ^0.8.0;\r\n\r\nimport \"@openzeppelin/contracts-upgradeable/proxy/utils/Initializable.sol\";\r\nimport \"@openzeppelin/contracts-upgradeable/proxy/utils/UUPSUpgradeable.sol\";\r\nimport \"@openzeppelin/contracts-upgradeable/security/PausableUpgradeable.sol\";\r\nimport \"@openzeppelin/contracts-upgradeable/access/OwnableUpgradeable.sol\";\r\nimport \"@openzeppelin/contracts-upgradeable/token/ERC20/IERC20Upgradeable.sol\";\r\nimport \"@openzeppelin/contracts-upgradeable/token/ERC20/utils/SafeERC20Upgradeable.sol\";\r\n\r\n\r\ncontract PurseTokenUpgradableV2 is Initializable, UUPSUpgradeable, PausableUpgradeable, OwnableUpgradeable {\r\n\r\nusing SafeERC20Upgradeable for IERC20Upgradeable;\r\n\r\n    string public name;\r\n    string public symbol;\r\n    uint256 public totalSupply;\r\n    uint8 public decimals;\r\n    uint256 public minimumSupply;\r\n    address[] public admins;\r\n    address public liqPool;\r\n    address public disPool;\r\n    uint256 public burnPercent;\r\n    uint256 public liqPercent;\r\n    uint256 public disPercent;\r\n\r\n    uint256 public _averageInterval;\r\n    uint256 public _getRewardEndTime;\r\n    uint256 public _getRewardStartTime;\r\n    uint256 public _numOfDaysPerMth;\r\n    uint256 public _monthlyDistributePr;\r\n    uint256 public _percentageDistribute;\r\n    uint256 public _lastRewardStartTime;\r\n    uint256 public _totalSupply;\r\n\r\n    mapping(address => uint256) public balanceOf;\r\n    mapping(address => mapping(address => uint256)) public allowance;\r\n    mapping(address => bool) public isAdmin;\r\n    mapping(address => bool) public isWhitelistedTo;\r\n    mapping(address => bool) public isWhitelistedFrom;\r\n    mapping(address => AccAmount) public accAmount;\r\n\r\n    struct AccAmount {\r\n        uint256 amount;\r\n        uint256 accReward;\r\n        uint256 lastUpdateTime;\r\n    }\r\n\r\n    event Transfer(address indexed _from, address indexed _to, uint256 _value);\r\n    event Burn(address indexed _from, uint256 _value);\r\n    event Mint(address indexed _from, address indexed _to, uint256 _value);\r\n    event Approval(address indexed _owner, address indexed _spender, uint256 _value);\r\n    event UpdatePercent(uint256 _newBurnPercent, uint256 _newDisPercent,  uint256 _newLiqPercent);\r\n    event UpdateMinSupply(uint256 _newMinimumSupply);\r\n\r\n    modifier onlyAdmin() {\r\n        require(isAdmin[msg.sender], \"Not Admin\");\r\n        _;\r\n    }\r\n\r\n    function transfer(address _to, uint256 _value) external whenNotPaused returns (bool success)\r\n    {\r\n        require(balanceOf[msg.sender] >= _value, \"Not enough balance\");\r\n        if (isWhitelistedTo[_to] || isWhitelistedFrom[msg.sender]) {\r\n            updateAccumulateBalanceTransaction(msg.sender, _to);\r\n            balanceOf[msg.sender] -= _value;\r\n            balanceOf[_to] += _value;\r\n\r\n\r\n            emit Transfer(msg.sender, _to, _value);\r\n            return true;\r\n        } else {\r\n            updateAccumulateBalanceTransaction(msg.sender, _to);\r\n            uint256 transferValue = _partialBurn(_value, msg.sender);\r\n            balanceOf[msg.sender] -= transferValue;\r\n            balanceOf[_to] += transferValue;\r\n\r\n\r\n            emit Transfer(msg.sender, _to, transferValue);\r\n            return true;\r\n        }\r\n    }\r\n\r\n    function approve(address _spender, uint256 _value) external whenNotPaused returns (bool success)\r\n    {\r\n        allowance[msg.sender][_spender] = _value;\r\n        emit Approval(msg.sender, _spender, _value);\r\n        return true;\r\n    }\r\n\r\n    function transferFrom(address _from, address _to, uint256 _value) external whenNotPaused returns (bool success) {\r\n        require(_value <= balanceOf[_from], \"Not enough balance\");\r\n        require(_value <= allowance[_from][msg.sender], \"Not enough allowance\");\r\n        if (isWhitelistedTo[_to] || isWhitelistedFrom[msg.sender]) {\r\n            allowance[_from][msg.sender] -= _value;\r\n            updateAccumulateBalanceTransaction(_from, _to);\r\n            balanceOf[_from] -= _value;\r\n            balanceOf[_to] += _value;\r\n\r\n            emit Transfer(_from, _to, _value);\r\n            return true;\r\n        } else {\r\n            allowance[_from][msg.sender] -= _value;\r\n            updateAccumulateBalanceTransaction(_from, _to);\r\n            uint256 transferValue = _partialBurn(_value, _from);\r\n            balanceOf[_from] -= transferValue;\r\n            balanceOf[_to] += transferValue;\r\n\r\n            emit Transfer(_from, _to, transferValue);\r\n            return true;\r\n        }\r\n    }\r\n\r\n    function mint(address _account, uint256 _amount) external whenNotPaused onlyAdmin {\r\n        require(_account != address(0), \"0 address\");\r\n        updateAccumulateBalance(_account);\r\n        balanceOf[_account] += _amount;\r\n\r\n        totalSupply += _amount;\r\n\r\n        mintEvent(_account, _amount);\r\n    }\r\n\r\n    function burn(uint256 _amount) external whenNotPaused {\r\n        require(_amount != 0, \"0 address\");\r\n        require(balanceOf[msg.sender] >= _amount, \"Not enough balance\");\r\n        updateAccumulateBalance(msg.sender);\r\n        balanceOf[msg.sender] -= _amount;\r\n        totalSupply -= _amount;\r\n\r\n        burnEvent(msg.sender, _amount);\r\n    }\r\n\r\n    function updateAccumulateBalance(address _holder) private {\r\n        if (accAmount[_holder].lastUpdateTime == 0) {\r\n            if (_getRewardStartTime == 0) {\r\n                uint256 interval = (block.timestamp - _lastRewardStartTime) / _averageInterval;\r\n                accAmount[_holder].lastUpdateTime = _lastRewardStartTime + (interval * _averageInterval);\r\n            } else {\r\n                if (block.timestamp < _getRewardStartTime) {\r\n                    uint256 interval = (block.timestamp - _lastRewardStartTime) / _averageInterval;\r\n                    accAmount[_holder].lastUpdateTime = _lastRewardStartTime + (interval * _averageInterval);\r\n                } else {\r\n                    uint256 interval = (block.timestamp - _getRewardStartTime) / _averageInterval;\r\n                    accAmount[_holder].lastUpdateTime = _getRewardStartTime + (interval * _averageInterval);\r\n                }\r\n            }\r\n        }\r\n        else if (block.timestamp < _getRewardStartTime) {\r\n            if (accAmount[_holder].lastUpdateTime < _lastRewardStartTime) {\r\n                uint256 interval = (block.timestamp - _lastRewardStartTime) / _averageInterval;\r\n                uint256 accumulateAmount = balanceOf[_holder] * interval;\r\n                accAmount[_holder].lastUpdateTime = _lastRewardStartTime + (interval * _averageInterval);\r\n                accAmount[_holder].amount = accumulateAmount;\r\n            }\r\n            else {\r\n                uint256 interval = (block.timestamp - accAmount[_holder].lastUpdateTime) / _averageInterval;\r\n                if (interval >= 1) {\r\n                    uint256 accumulateAmount = balanceOf[_holder] * interval;\r\n                    accAmount[_holder].lastUpdateTime += (interval * _averageInterval);\r\n                    accAmount[_holder].amount = accAmount[_holder].amount + accumulateAmount;\r\n                }\r\n            }\r\n        }\r\n        else if (block.timestamp >= _getRewardStartTime) {\r\n            if (accAmount[_holder].lastUpdateTime < _lastRewardStartTime) {\r\n                uint256 interval = (_getRewardStartTime - _lastRewardStartTime) / _averageInterval;\r\n                uint256 lastmonthAccAmount = balanceOf[_holder] * interval;\r\n                accAmount[_holder].amount = 0;\r\n                accAmount[_holder].accReward = lastmonthAccAmount * _monthlyDistributePr * _percentageDistribute * 100 / _totalSupply / _numOfDaysPerMth / 10000;\r\n                accAmount[_holder].lastUpdateTime = _getRewardStartTime;\r\n                updateAccumulateBalance(_holder);\r\n            }\r\n            else if (accAmount[_holder].lastUpdateTime >= _lastRewardStartTime && accAmount[_holder].lastUpdateTime < _getRewardStartTime) {\r\n                uint256 interval = (_getRewardStartTime - accAmount[_holder].lastUpdateTime) / _averageInterval;\r\n                if (interval >= 1) {\r\n                    uint256 accumulateAmount = balanceOf[_holder] * interval;\r\n                    uint256 lastmonthAccAmount = accAmount[_holder].amount + accumulateAmount;\r\n                    accAmount[_holder].amount = 0;\r\n                    accAmount[_holder].accReward = lastmonthAccAmount * _monthlyDistributePr * _percentageDistribute * 100 / _totalSupply / _numOfDaysPerMth / 10000;\r\n                    accAmount[_holder].lastUpdateTime = _getRewardStartTime;\r\n                    updateAccumulateBalance(_holder);\r\n                }\r\n                else {\r\n                    uint256 lastmonthAccAmount = accAmount[_holder].amount;\r\n                    accAmount[_holder].amount = 0;\r\n                    accAmount[_holder].accReward = lastmonthAccAmount * _monthlyDistributePr * _percentageDistribute * 100 / _totalSupply / _numOfDaysPerMth / 10000;\r\n                    accAmount[_holder].lastUpdateTime = _getRewardStartTime;\r\n                    updateAccumulateBalance(_holder);\r\n                }\r\n            }\r\n            else {\r\n                uint256 interval = (block.timestamp - accAmount[_holder].lastUpdateTime) / _averageInterval;\r\n                if (interval >= 1) {\r\n                    uint256 accumulateAmount = balanceOf[_holder] * interval;\r\n                    accAmount[_holder].lastUpdateTime += (interval * _averageInterval);\r\n                    accAmount[_holder].amount = accAmount[_holder].amount + accumulateAmount;\r\n                }\r\n            }\r\n        }\r\n    }\r\n\r\n    function updateAccumulateBalanceTransaction(address _from, address _to) private {\r\n        updateAccumulateBalance(_from);\r\n        updateAccumulateBalance(_to);\r\n    }\r\n\r\n    function claimDistributionPurse() external whenNotPaused returns (bool success) {\r\n        require(block.timestamp > _getRewardStartTime, \"Claim not started\");\r\n        require(block.timestamp < _getRewardEndTime, \"Claim period over\");\r\n\r\n        updateAccumulateBalance(msg.sender);\r\n        require(accAmount[msg.sender].accReward > 0, \"User reward is 0\");\r\n        uint256 claimAmount = accAmount[msg.sender].accReward;\r\n        accAmount[msg.sender].accReward = 0;\r\n\r\n        IERC20Upgradeable(disPool).safeTransfer(msg.sender, claimAmount);\r\n        return true;\r\n    }\r\n\r\n    function activateClaimMonthly(uint256 _rewardStartTime, uint256 _rewardEndTime, uint256 _monthlyDisPr, uint256 _numOfDays, uint256 _percentage) external onlyAdmin {\r\n        require(_rewardStartTime > block.timestamp, \"Less than current time\");\r\n        require(_rewardEndTime > _rewardStartTime, \"Less than start time\");\r\n        require(_numOfDays > 0, \"Less than 0\");\r\n        require(_percentage > 0 && _percentage <= 100, \"Less than 0 or More than 100\");\r\n        require(_monthlyDisPr <= balanceOf[address(this)], \"More than pool balance\");\r\n\r\n        _totalSupply = totalSupply;\r\n        if (_getRewardStartTime != 0) {\r\n            _lastRewardStartTime = _getRewardStartTime;\r\n        }\r\n        _numOfDaysPerMth = _numOfDays;\r\n        _getRewardStartTime = _rewardStartTime;\r\n        _getRewardEndTime = _rewardEndTime;\r\n        _percentageDistribute = _percentage;\r\n        _monthlyDistributePr = _monthlyDisPr;\r\n    }\r\n\r\n    function _partialBurn(uint256 _amount, address _from) internal returns (uint256) {\r\n        uint256 transferAmount = 0;\r\n        uint256 burnAmount;\r\n        uint256 liqAmount;\r\n        uint256 disAmount;\r\n        (\r\n        burnAmount,\r\n        liqAmount,\r\n        disAmount\r\n        ) = _calculateDeductAmount(_amount);\r\n\r\n        burnPrivate(_from, burnAmount, liqAmount, disAmount);\r\n        \r\n        transferAmount = _amount - burnAmount - liqAmount - disAmount;\r\n\r\n        return transferAmount;\r\n    }\r\n\r\n    function _calculateDeductAmount(uint256 _amount) internal view returns (uint256, uint256, uint256) {\r\n        uint256 burnAmount = 0;\r\n        uint256 liqAmount = 0;\r\n        uint256 disAmount = 0;\r\n\r\n        if (totalSupply > minimumSupply) {\r\n            burnAmount = (_amount * burnPercent) / 10000;\r\n            liqAmount = (_amount * liqPercent) / 10000;\r\n            disAmount = (_amount * disPercent) / 10000;\r\n            uint256 availableBurn = totalSupply - minimumSupply;\r\n            if (burnAmount > availableBurn) {\r\n                burnAmount = availableBurn;\r\n            }\r\n        }\r\n        return (burnAmount, liqAmount, disAmount);\r\n    }\r\n\r\n    function burnPrivate(address _account, uint256 _burnAmount, uint256 _liqAmount, uint256 _disAmount) private {\r\n        require(_account != address(0), \"0 address\");\r\n        uint256 accountBalance = balanceOf[_account];\r\n        uint256 deductAmount = _burnAmount + _liqAmount + _disAmount;\r\n        require(accountBalance >= deductAmount, \"Not enough balance\");\r\n        balanceOf[_account] -= _burnAmount;\r\n        balanceOf[_account] -= _liqAmount;\r\n        balanceOf[_account] -= _disAmount;\r\n\r\n        totalSupply -= _burnAmount;\r\n        balanceOf[liqPool] += _liqAmount;\r\n        balanceOf[disPool] += _disAmount;\r\n\r\n        burnEvent(_account, _burnAmount);\r\n        emit Transfer(msg.sender, liqPool, _liqAmount);\r\n        emit Transfer(msg.sender, disPool, _disAmount);\r\n    }\r\n\r\n    function updateLPoolAdd(address _newLPool) external onlyOwner {\r\n        require(_newLPool != liqPool, \"Same with previous address\");\r\n\r\n        liqPool = _newLPool;\r\n    }\r\n\r\n    function updateDPoolAdd(address _newDPool) external onlyOwner {\r\n        require(_newDPool != disPool, \"Same with previous address\");\r\n\r\n        disPool = _newDPool;\r\n    }\r\n\r\n    function updatePercent(uint256 _newDisPercent, uint256 _newLiqPercent, uint256 _newBurnPercent) external onlyOwner {\r\n        require(_newDisPercent <= 10000 && _newLiqPercent <= 10000 && _newBurnPercent <= 10000, \"% > 10000\");\r\n        require(_newDisPercent + _newLiqPercent + _newBurnPercent <= 10000, \"Total more than 10000\");\r\n\r\n        disPercent = _newDisPercent;\r\n        liqPercent = _newLiqPercent;\r\n        burnPercent = _newBurnPercent;\r\n\r\n        emit UpdatePercent(burnPercent, disPercent,  liqPercent);\r\n    }\r\n\r\n    function updateMinimumSupply(uint256 _minimumSupply) external onlyOwner {\r\n        minimumSupply = _minimumSupply;\r\n\r\n        emit UpdateMinSupply(minimumSupply);\r\n    }\r\n\r\n    function addAdmin(address newAdmin) external onlyOwner {\r\n        require(!isAdmin[newAdmin], \"Is admin\");\r\n\r\n        isAdmin[newAdmin] = true;\r\n        admins.push(newAdmin);\r\n    }\r\n\r\n    function removeAdmin(uint index) external onlyOwner returns (address[] memory){\r\n        require(index < admins.length, \"Input over admins length\");\r\n        address removeOwner = admins[index];        \r\n        require(isAdmin[removeOwner], \"Not an admin\");\r\n\r\n        for (uint i = index; i < admins.length - 1; i++) {\r\n            admins[i] = admins[i + 1];\r\n        }\r\n        admins.pop();\r\n\r\n        isAdmin[removeOwner] = false;\r\n        return admins;\r\n    }\r\n\r\n    function transferERCToken(address token, uint256 amount, address _to) public whenNotPaused onlyOwner {\r\n        require(_to != address(0), \"0 address\");\r\n        if (token == address(this)) {\r\n            updateAccumulateBalance(_to);\r\n            IERC20Upgradeable(token).safeTransfer(_to, amount);\r\n        } else {\r\n            IERC20Upgradeable(token).safeTransfer(_to, amount);\r\n        }\r\n    }\r\n\r\n    function pause() external whenNotPaused onlyOwner {\r\n        _pause();\r\n    }\r\n\r\n    function unpause() external whenPaused onlyOwner {\r\n        _unpause();\r\n    }\r\n\r\n    function setWhitelistedTo(address newWhitelist) external onlyOwner {\r\n        require(!isWhitelistedTo[newWhitelist], \"whitelisted Address\");\r\n\r\n        isWhitelistedTo[newWhitelist] = true;\r\n    }\r\n\r\n    function removeWhitelistedTo(address newWhitelist) external onlyOwner {\r\n        require(isWhitelistedTo[newWhitelist], \"Non whitelisted Address\");\r\n\r\n        isWhitelistedTo[newWhitelist] = false;\r\n    }\r\n\r\n    function setWhitelistedFrom(address newWhitelist) external onlyOwner {\r\n        require(!isWhitelistedFrom[newWhitelist], \"whitelisted Address\");\r\n\r\n        isWhitelistedFrom[newWhitelist] = true;\r\n    }\r\n\r\n    function removeWhitelistedFrom(address newWhitelist) external onlyOwner {\r\n        require(isWhitelistedFrom[newWhitelist], \"Non whitelisted Address\");\r\n\r\n        isWhitelistedFrom[newWhitelist] = false;\r\n    }\r\n\r\n    function _authorizeUpgrade(address) internal override onlyOwner {}\r\n\r\n    function mintEvent(address to, uint256 amount) internal {\r\n        emit Mint(address(0), to, amount);\r\n        emit Transfer(address(0), to, amount);\r\n    }\r\n\r\n    function burnEvent(address from, uint256 amount) internal {\r\n        emit Burn(from, amount);\r\n        emit Transfer(from, address(0), amount);\r\n    }\r\n\r\n    function initialize(\r\n        address _to,\r\n        address _lPool,\r\n        uint256 _burnPercent,\r\n        uint256 _liqPercent,\r\n        uint256 _disPercent\r\n    ) public initializer {\r\n        require(_lPool != address(0), \"0 address\");\r\n\r\n        name = \"PURSE TOKEN\";\r\n        symbol = \"PURSE\";\r\n        totalSupply = 64_000_000_000 * (10 ** 18);\r\n        decimals = 18;\r\n        minimumSupply = 12_800_000_000 * (10 ** 18);\r\n\r\n        liqPool = _lPool;\r\n        disPool = address(this);\r\n        burnPercent = _burnPercent;\r\n        liqPercent = _liqPercent;\r\n        disPercent = _disPercent;\r\n        _averageInterval = 1 minutes;\r\n        _lastRewardStartTime = block.timestamp;\r\n        __Pausable_init();\r\n        __Ownable_init();\r\n        __UUPSUpgradeable_init();\r\n\r\n        balanceOf[_to] = totalSupply;\r\n        updateAccumulateBalance(_to);\r\n\r\n        mintEvent(_to, totalSupply);\r\n    }\r\n}",
  "sourcePath": "C:/Users/cheek/Desktop/Developer doc/Visual Studio Code/PundiX/purseRewardBSC/src/contracts/PurseTokenUpgradableV2.sol",
  "compiler": {
    "name": "solc",
    "version": "0.8.7+commit.e28d00a7.Emscripten.clang"
  },
  "schemaVersion": "3.2.3",
  "updatedAt": "2021-12-10T11:05:44.568Z",
  "networkType": "ethereum",
  "devdoc": {
    "kind": "dev",
    "methods": {
      "owner()": {
        "details": "Returns the address of the current owner."
      },
      "paused()": {
        "details": "Returns true if the contract is paused, and false otherwise."
      },
      "renounceOwnership()": {
        "details": "Leaves the contract without owner. It will not be possible to call `onlyOwner` functions anymore. Can only be called by the current owner. NOTE: Renouncing ownership will leave the contract without an owner, thereby removing any functionality that is only available to the owner."
      },
      "transferOwnership(address)": {
        "details": "Transfers ownership of the contract to a new account (`newOwner`). Can only be called by the current owner."
      },
      "upgradeTo(address)": {
        "details": "Upgrade the implementation of the proxy to `newImplementation`. Calls {_authorizeUpgrade}. Emits an {Upgraded} event."
      },
      "upgradeToAndCall(address,bytes)": {
        "details": "Upgrade the implementation of the proxy to `newImplementation`, and subsequently execute the function call encoded in `data`. Calls {_authorizeUpgrade}. Emits an {Upgraded} event."
      }
    },
    "version": 1
  },
  "userdoc": {
    "kind": "user",
    "methods": {},
    "version": 1
  }
}