{
  "contractName": "PurseDistribution",
  "abi": [
    {
      "inputs": [
        {
          "internalType": "contract IERC20",
          "name": "_purseToken",
          "type": "address"
        }
      ],
      "stateMutability": "nonpayable",
      "type": "constructor"
    },
    {
      "anonymous": false,
      "inputs": [
        {
          "indexed": true,
          "internalType": "address",
          "name": "sender",
          "type": "address"
        },
        {
          "indexed": false,
          "internalType": "uint256",
          "name": "iteration",
          "type": "uint256"
        }
      ],
      "name": "addHolder",
      "type": "event"
    },
    {
      "anonymous": false,
      "inputs": [
        {
          "indexed": true,
          "internalType": "address",
          "name": "owner",
          "type": "address"
        },
        {
          "indexed": false,
          "internalType": "uint256",
          "name": "amount",
          "type": "uint256"
        },
        {
          "indexed": false,
          "internalType": "uint256",
          "name": "Iteration_End",
          "type": "uint256"
        }
      ],
      "name": "claimAllReward",
      "type": "event"
    },
    {
      "anonymous": false,
      "inputs": [
        {
          "indexed": true,
          "internalType": "address",
          "name": "owner",
          "type": "address"
        },
        {
          "indexed": false,
          "internalType": "uint256",
          "name": "amount",
          "type": "uint256"
        },
        {
          "indexed": true,
          "internalType": "uint256",
          "name": "Iteration",
          "type": "uint256"
        }
      ],
      "name": "claimReward",
      "type": "event"
    },
    {
      "anonymous": false,
      "inputs": [
        {
          "indexed": true,
          "internalType": "address",
          "name": "sender",
          "type": "address"
        },
        {
          "indexed": false,
          "internalType": "uint256",
          "name": "iteration",
          "type": "uint256"
        }
      ],
      "name": "updateHolder",
      "type": "event"
    },
    {
      "inputs": [],
      "name": "endDistribution",
      "outputs": [
        {
          "internalType": "uint256",
          "name": "",
          "type": "uint256"
        }
      ],
      "stateMutability": "view",
      "type": "function"
    },
    {
      "inputs": [
        {
          "internalType": "address",
          "name": "",
          "type": "address"
        },
        {
          "internalType": "uint256",
          "name": "",
          "type": "uint256"
        }
      ],
      "name": "holder",
      "outputs": [
        {
          "internalType": "uint256",
          "name": "distributeAmount",
          "type": "uint256"
        },
        {
          "internalType": "bool",
          "name": "isRedeem",
          "type": "bool"
        }
      ],
      "stateMutability": "view",
      "type": "function"
    },
    {
      "inputs": [],
      "name": "isClaimStart",
      "outputs": [
        {
          "internalType": "bool",
          "name": "",
          "type": "bool"
        }
      ],
      "stateMutability": "view",
      "type": "function"
    },
    {
      "inputs": [],
      "name": "name",
      "outputs": [
        {
          "internalType": "string",
          "name": "",
          "type": "string"
        }
      ],
      "stateMutability": "view",
      "type": "function"
    },
    {
      "inputs": [
        {
          "internalType": "uint256",
          "name": "",
          "type": "uint256"
        }
      ],
      "name": "numOfHolder",
      "outputs": [
        {
          "internalType": "uint256",
          "name": "",
          "type": "uint256"
        }
      ],
      "stateMutability": "view",
      "type": "function"
    },
    {
      "inputs": [],
      "name": "owner",
      "outputs": [
        {
          "internalType": "address",
          "name": "",
          "type": "address"
        }
      ],
      "stateMutability": "view",
      "type": "function"
    },
    {
      "inputs": [],
      "name": "purseToken",
      "outputs": [
        {
          "internalType": "contract IERC20",
          "name": "",
          "type": "address"
        }
      ],
      "stateMutability": "view",
      "type": "function"
    },
    {
      "inputs": [],
      "name": "validDuration",
      "outputs": [
        {
          "internalType": "uint256",
          "name": "",
          "type": "uint256"
        }
      ],
      "stateMutability": "view",
      "type": "function"
    },
    {
      "inputs": [
        {
          "internalType": "address[]",
          "name": "_holder",
          "type": "address[]"
        },
        {
          "internalType": "uint256[]",
          "name": "_amount",
          "type": "uint256[]"
        },
        {
          "internalType": "uint256",
          "name": "iteration",
          "type": "uint256"
        }
      ],
      "name": "addHolderInfo",
      "outputs": [],
      "stateMutability": "nonpayable",
      "type": "function"
    },
    {
      "inputs": [
        {
          "internalType": "address[]",
          "name": "_holder",
          "type": "address[]"
        },
        {
          "internalType": "uint256[]",
          "name": "_amount",
          "type": "uint256[]"
        },
        {
          "internalType": "uint256",
          "name": "iteration",
          "type": "uint256"
        }
      ],
      "name": "updateHolderInfo",
      "outputs": [],
      "stateMutability": "nonpayable",
      "type": "function"
    },
    {
      "inputs": [
        {
          "internalType": "bool",
          "name": "check",
          "type": "bool"
        },
        {
          "internalType": "uint256",
          "name": "_startClaim",
          "type": "uint256"
        }
      ],
      "name": "startClaim",
      "outputs": [],
      "stateMutability": "nonpayable",
      "type": "function"
    },
    {
      "inputs": [
        {
          "internalType": "uint256",
          "name": "_endDistribution",
          "type": "uint256"
        }
      ],
      "name": "updateEndDistribution",
      "outputs": [],
      "stateMutability": "nonpayable",
      "type": "function"
    },
    {
      "inputs": [
        {
          "internalType": "address[]",
          "name": "_holder",
          "type": "address[]"
        },
        {
          "internalType": "uint256[]",
          "name": "_amount",
          "type": "uint256[]"
        },
        {
          "internalType": "uint256",
          "name": "iteration",
          "type": "uint256"
        }
      ],
      "name": "checkData",
      "outputs": [
        {
          "internalType": "uint256",
          "name": "",
          "type": "uint256"
        },
        {
          "internalType": "bool",
          "name": "",
          "type": "bool"
        }
      ],
      "stateMutability": "view",
      "type": "function"
    },
    {
      "inputs": [
        {
          "internalType": "uint256",
          "name": "iteration",
          "type": "uint256"
        }
      ],
      "name": "claim",
      "outputs": [],
      "stateMutability": "nonpayable",
      "type": "function"
    },
    {
      "inputs": [
        {
          "internalType": "uint256",
          "name": "iteration_end",
          "type": "uint256"
        }
      ],
      "name": "claimAll",
      "outputs": [],
      "stateMutability": "nonpayable",
      "type": "function"
    },
    {
      "inputs": [
        {
          "internalType": "address",
          "name": "_to",
          "type": "address"
        }
      ],
      "name": "returnPurseToken",
      "outputs": [],
      "stateMutability": "nonpayable",
      "type": "function"
    },
    {
      "inputs": [
        {
          "internalType": "address",
          "name": "token",
          "type": "address"
        },
        {
          "internalType": "uint256",
          "name": "amount",
          "type": "uint256"
        },
        {
          "internalType": "address",
          "name": "_to",
          "type": "address"
        }
      ],
      "name": "returnAnyToken",
      "outputs": [],
      "stateMutability": "nonpayable",
      "type": "function"
    },
    {
      "inputs": [
        {
          "internalType": "address",
          "name": "_owner",
          "type": "address"
        }
      ],
      "name": "updateOwner",
      "outputs": [],
      "stateMutability": "nonpayable",
      "type": "function"
    }
  ],
  "bytecode": "0x60c0604052601260808190527f507572736520446973747269627574696f6e000000000000000000000000000060a0908152620000409160009190620000a0565b503480156200004e57600080fd5b506040516200150138038062001501833981016040819052620000719162000146565b600180546001600160a01b039092166001600160a01b03199283161790556002805490911633179055620001ce565b828054620000ae9062000178565b90600052602060002090601f016020900481019282620000d257600085556200011d565b82601f10620000ed57805160ff19168380011785556200011d565b828001600101855582156200011d579182015b828111156200011d57825182559160200191906001019062000100565b506200012b9291506200012f565b5090565b5b808211156200012b576000815560010162000130565b6000602082840312156200015957600080fd5b81516001600160a01b03811681146200017157600080fd5b9392505050565b600181811c908216806200018d57607f821691505b60208210811415620001c8577f4e487b7100000000000000000000000000000000000000000000000000000000600052602260045260246000fd5b50919050565b61132380620001de6000396000f3fe608060405234801561001057600080fd5b50600436106101165760003560e01c806362da19d4116100a2578063880cdc3111610071578063880cdc31146102765780638da5cb5b14610289578063c237e3261461029c578063e650d293146102af578063f09de43f146102cc57600080fd5b806362da19d41461023457806364c76117146102475780636930fd2a146102505780636a0ca31f1461026357600080fd5b80632d6008e4116100e95780632d6008e414610179578063379607f5146101995780633f594c4f146101ac57806351bf16ef146101f6578063603d65a61461022157600080fd5b806306fdde031461011b578063080541bb1461013957806319953d681461014e5780632948ff4114610161575b600080fd5b6101236102df565b60405161013091906111ca565b60405180910390f35b61014c61014736600461117a565b61036d565b005b61014c61015c3660046110e9565b6103d5565b61016b6277f88081565b604051908152602001610130565b61016b610187366004611198565b60066020526000908152604090205481565b61014c6101a7366004611198565b6105d2565b6101e16101ba366004611083565b60056020908152600092835260408084209091529082529020805460019091015460ff1682565b60408051928352901515602083015201610130565b600154610209906001600160a01b031681565b6040516001600160a01b039091168152602001610130565b61014c61022f3660046110e9565b6107b5565b6101e16102423660046110e9565b610972565b61016b60035481565b61014c61025e366004611198565b610a1e565b61014c610271366004611198565b610c5a565b61014c610284366004611061565b610c89565b600254610209906001600160a01b031681565b61014c6102aa3660046110ad565b610d72565b6004546102bc9060ff1681565b6040519015158152602001610130565b61014c6102da366004611061565b610e75565b600080546102ec9061125a565b80601f01602080910402602001604051908101604052809291908181526020018280546103189061125a565b80156103655780601f1061033a57610100808354040283529160200191610365565b820191906000526020600020905b81548152906001019060200180831161034857829003601f168201915b505050505081565b6002546001600160a01b031633146103a05760405162461bcd60e51b81526004016103979061121f565b60405180910390fd5b81156103c7576103b36277f88082611242565b6003556004805460ff191660011790555050565b6004805460ff191690555050565b6002546001600160a01b031633146103ff5760405162461bcd60e51b81526004016103979061121f565b60008483146104445760405162461bcd60e51b81526020600482015260116024820152706c656e67746820646966666572656e636560781b6044820152606401610397565b84811015610594576000848483818110610460576104606112c6565b905060200201351180156104c3575060056000878784818110610485576104856112c6565b905060200201602081019061049a9190611061565b6001600160a01b0316815260208082019290925260409081016000908120858252909252902054155b156105825760405180604001604052808585848181106104e5576104e56112c6565b905060200201358152602001600015158152506005600088888581811061050e5761050e6112c6565b90506020020160208101906105239190611061565b6001600160a01b0316815260208082019290925260409081016000908120868252835281812084518155938301516001948501805460ff191691151591909117905560069092528120805490919061057c908490611242565b90915550505b8061058c81611295565b915050610444565b60405182815233907f61f152361c81724040ee7c9387deb92fa0eea588ae5d8bb4695a22fa113c208e906020015b60405180910390a2505050505050565b60045460ff16151560011461061a5760405162461bcd60e51b815260206004820152600e60248201526d436c61696d2069732066616c736560901b6044820152606401610397565b60035442106106665760405162461bcd60e51b81526020600482015260186024820152772234b9ba3934b13aba34b7b7103bb4b73237bb9037bb32b960411b6044820152606401610397565b33600090815260056020908152604080832084845290915290206001015460ff16156106c75760405162461bcd60e51b815260206004820152601060248201526f48617665206265656e2072656465656d60801b6044820152606401610397565b336000818152600560209081526040808320858452909152908190206001808201805460ff19168217905590549054915163a9059cbb60e01b8152600481019390935260248301819052916001600160a01b039091169063a9059cbb90604401602060405180830381600087803b15801561074157600080fd5b505af1158015610755573d6000803e3d6000fd5b505050506040513d601f19601f82011682018060405250810190610779919061115d565b50604051818152829033907f9d06fc9af1e0d81649eba41f3599f74e3dc8b0881aa0d622585d707fad3ac2a29060200160405180910390a35050565b6002546001600160a01b031633146107df5760405162461bcd60e51b81526004016103979061121f565b60008483146108245760405162461bcd60e51b81526020600482015260116024820152706c656e67746820646966666572656e636560781b6044820152606401610397565b848110156109405760056000878784818110610842576108426112c6565b90506020020160208101906108579190611061565b6001600160a01b0316815260208082019290925260409081016000908120858252909252902060019081015460ff16151514156108935761092e565b60405180604001604052808585848181106108b0576108b06112c6565b90506020020135815260200160001515815250600560008888858181106108d9576108d96112c6565b90506020020160208101906108ee9190611061565b6001600160a01b0316815260208082019290925260409081016000908120868252835220825181559101516001909101805460ff19169115159190911790555b8061093881611295565b915050610824565b60405182815233907f9e2057e5eb47a9914f114cc7d4b9a13c5f1f81ede19b1abcfd2e4115b7b2fc83906020016105c2565b60008060005b86811015610a0d57858582818110610992576109926112c6565b90506020020135600560008a8a858181106109af576109af6112c6565b90506020020160208101906109c49190611061565b6001600160a01b0316815260208082019290925260409081016000908120888252909252902054146109fb57915060009050610a14565b80610a0581611295565b915050610978565b9150600190505b9550959350505050565b60045460ff161515600114610a665760405162461bcd60e51b815260206004820152600e60248201526d436c61696d2069732066616c736560901b6044820152606401610397565b6003544210610ab25760405162461bcd60e51b81526020600482015260186024820152772234b9ba3934b13aba34b7b7103bb4b73237bb9037bb32b960411b6044820152606401610397565b6000805b828111610b8e5733600090815260056020908152604080832084845290915290206001015460ff16610b7c5733600090815260056020908152604080832084845290915290206001015460ff1615610b435760405162461bcd60e51b815260206004820152601060248201526f68617665206265656e2072656465656d60801b6044820152606401610397565b33600090815260056020908152604080832084845290915290206001808201805460ff1916909117905554610b788184611242565b9250505b80610b8681611295565b915050610ab6565b508015610c1b5760015460405163a9059cbb60e01b8152336004820152602481018390526001600160a01b039091169063a9059cbb90604401602060405180830381600087803b158015610be157600080fd5b505af1158015610bf5573d6000803e3d6000fd5b505050506040513d601f19601f82011682018060405250810190610c19919061115d565b505b604080518281526020810184905233917f984e2f0e1b5ed8ebd9ae70fdcdc7fcd417ee2dcff4f94b89330acd73c2e6a8d1910160405180910390a25050565b6002546001600160a01b03163314610c845760405162461bcd60e51b81526004016103979061121f565b600355565b6002546001600160a01b03163314610cb35760405162461bcd60e51b81526004016103979061121f565b6001600160a01b038116610cfd5760405162461bcd60e51b81526020600482015260116024820152706e6f742076616c6964206164647265737360781b6044820152606401610397565b6002546001600160a01b0382811691161415610d505760405162461bcd60e51b815260206004820152601260248201527173616d65206f776e6572206164647265737360701b6044820152606401610397565b600280546001600160a01b0319166001600160a01b0392909216919091179055565b6002546001600160a01b03163314610d9c5760405162461bcd60e51b81526004016103979061121f565b6001600160a01b038116610ded5760405162461bcd60e51b815260206004820152601860248201527773656e6420746f20746865207a65726f206164647265737360401b6044820152606401610397565b60405163a9059cbb60e01b81526001600160a01b0382811660048301526024820184905284169063a9059cbb90604401602060405180830381600087803b158015610e3757600080fd5b505af1158015610e4b573d6000803e3d6000fd5b505050506040513d601f19601f82011682018060405250810190610e6f919061115d565b50505050565b6002546001600160a01b03163314610e9f5760405162461bcd60e51b81526004016103979061121f565b6001600160a01b038116610ef05760405162461bcd60e51b815260206004820152601860248201527773656e6420746f20746865207a65726f206164647265737360401b6044820152606401610397565b6001546040516370a0823160e01b81523060048201526000916001600160a01b0316906370a082319060240160206040518083038186803b158015610f3457600080fd5b505afa158015610f48573d6000803e3d6000fd5b505050506040513d601f19601f82011682018060405250810190610f6c91906111b1565b60015460405163a9059cbb60e01b81526001600160a01b0385811660048301526024820184905292935091169063a9059cbb90604401602060405180830381600087803b158015610fbc57600080fd5b505af1158015610fd0573d6000803e3d6000fd5b505050506040513d601f19601f82011682018060405250810190610ff4919061115d565b505050565b80356001600160a01b038116811461101057600080fd5b919050565b60008083601f84011261102757600080fd5b50813567ffffffffffffffff81111561103f57600080fd5b6020830191508360208260051b850101111561105a57600080fd5b9250929050565b60006020828403121561107357600080fd5b61107c82610ff9565b9392505050565b6000806040838503121561109657600080fd5b61109f83610ff9565b946020939093013593505050565b6000806000606084860312156110c257600080fd5b6110cb84610ff9565b9250602084013591506110e060408501610ff9565b90509250925092565b60008060008060006060868803121561110157600080fd5b853567ffffffffffffffff8082111561111957600080fd5b61112589838a01611015565b9097509550602088013591508082111561113e57600080fd5b5061114b88828901611015565b96999598509660400135949350505050565b60006020828403121561116f57600080fd5b815161107c816112dc565b6000806040838503121561118d57600080fd5b823561109f816112dc565b6000602082840312156111aa57600080fd5b5035919050565b6000602082840312156111c357600080fd5b5051919050565b600060208083528351808285015260005b818110156111f7578581018301518582016040015282016111db565b81811115611209576000604083870101525b50601f01601f1916929092016040019392505050565b6020808252600990820152683737ba1037bbb732b960b91b604082015260600190565b60008219821115611255576112556112b0565b500190565b600181811c9082168061126e57607f821691505b6020821081141561128f57634e487b7160e01b600052602260045260246000fd5b50919050565b60006000198214156112a9576112a96112b0565b5060010190565b634e487b7160e01b600052601160045260246000fd5b634e487b7160e01b600052603260045260246000fd5b80151581146112ea57600080fd5b5056fea2646970667358221220067d2fabc5aa2adb3b2d946a65d0d5aaea920a13f2c1af9a61db430701cc331564736f6c63430008070033",
  "immutableReferences": {},
  "source": "// SPDX-License-Identifier: UNLICENSED\r\n\r\npragma solidity ^0.8.0;\r\n\r\nimport \"@openzeppelin/contracts/token/ERC20/IERC20.sol\";\r\n\r\ncontract PurseDistribution {\r\n    event claimReward(address indexed owner, uint256 amount, uint256 indexed Iteration);\r\n    event claimAllReward(address indexed owner, uint256 amount, uint256 Iteration_End);\r\n    event addHolder(address indexed sender, uint256 iteration);\r\n    event updateHolder(address indexed sender, uint256 iteration);\r\n    \r\n    string public name = \"Purse Distribution\";\r\n    IERC20 public purseToken;\r\n    address public owner;\r\n    uint256 public constant validDuration = 91 days;\r\n    uint256 public endDistribution;\r\n    bool public isClaimStart;\r\n\r\n    mapping(address => mapping(uint256 => holderInfo)) public holder;   //address->index   \r\n    mapping(uint256 => uint256) public numOfHolder;\r\n\r\n    struct holderInfo {\r\n        uint256 distributeAmount;\r\n        bool isRedeem;\r\n    }\r\n    \r\n    modifier onlyOwner() {\r\n        require(msg.sender == owner, \"not owner\");\r\n        _;\r\n    }\r\n\r\n    constructor(IERC20 _purseToken) {\r\n        purseToken = _purseToken;\r\n        owner = msg.sender;\r\n    }\r\n\r\n    function addHolderInfo(address[] calldata _holder, uint256[] calldata _amount , uint256 iteration) public onlyOwner {\r\n        uint256 i = 0;\r\n        require(_holder.length == _amount.length, \"length difference\");\r\n        for (i; i < _holder.length; i++) {\r\n            if (_amount[i] > 0 && holder[_holder[i]][iteration].distributeAmount == 0) {\r\n                holder[_holder[i]][iteration] = holderInfo(_amount[i], false);\r\n                numOfHolder[iteration] += 1;\r\n            }\r\n        }\r\n        emit addHolder(msg.sender, iteration);\r\n    }\r\n\r\n    function updateHolderInfo(address[] calldata _holder, uint256[] calldata _amount , uint256 iteration) public onlyOwner {\r\n        uint256 i = 0;\r\n        require(_holder.length == _amount.length, \"length difference\");\r\n        for (i; i < _holder.length; i++) {\r\n            if (holder[_holder[i]][iteration].isRedeem == true) {\r\n                continue;\r\n            }\r\n            holder[_holder[i]][iteration] = holderInfo(_amount[i], false);\r\n        }\r\n        emit updateHolder(msg.sender, iteration);\r\n    }\r\n\r\n    function startClaim(bool check, uint256 _startClaim) public onlyOwner {\r\n        if (check) {\r\n            endDistribution = _startClaim + validDuration;\r\n            isClaimStart = true;\r\n        } else {\r\n            isClaimStart = false;\r\n        }\r\n    }\r\n\r\n    function updateEndDistribution(uint256 _endDistribution) public onlyOwner {\r\n        endDistribution = _endDistribution;\r\n    }\r\n\r\n    function checkData(address[] calldata _holder, uint256[] calldata _amount, uint256 iteration) public view returns (uint256, bool) {\r\n        uint256 i = 0;\r\n        for (i; i < _holder.length; i++) {\r\n            if (holder[_holder[i]][iteration].distributeAmount != _amount[i]) {\r\n                return (i, false);\r\n            }\r\n        }\r\n        return (i, true);        \r\n    }\r\n\r\n    // Notice Transfers tokens held by timelock to beneficiary.\r\n    function claim(uint256 iteration) public {\r\n        require (isClaimStart == true, \"Claim is false\");\r\n        require(block.timestamp < endDistribution, \"Distribution window over\");\r\n        require(holder[msg.sender][iteration].isRedeem == false, 'Have been redeem');\r\n\r\n        holder[msg.sender][iteration].isRedeem = true;\r\n        uint256 claimAmount = holder[msg.sender][iteration].distributeAmount;\r\n        purseToken.transfer(msg.sender, claimAmount);\r\n        emit claimReward(msg.sender, claimAmount, iteration);\r\n    }\r\n\r\n    function claimAll(uint256 iteration_end) public {\r\n        require (isClaimStart == true, \"Claim is false\");\r\n        require(block.timestamp < endDistribution, \"Distribution window over\");\r\n        uint256 claimAmount = 0;\r\n        for (uint256 i = 0; i <= iteration_end; i++) {\r\n                if (holder[msg.sender][i].isRedeem == false) {\r\n                    require(holder[msg.sender][i].isRedeem == false, 'have been redeem');\r\n                    holder[msg.sender][i].isRedeem = true;\r\n                    uint256 holderAmount = holder[msg.sender][i].distributeAmount;\r\n                    claimAmount += holderAmount;                    \r\n                }\r\n        }\r\n        if (claimAmount > 0) {\r\n            purseToken.transfer(msg.sender, claimAmount);\r\n        }\r\n        emit claimAllReward(msg.sender, claimAmount, iteration_end);\r\n    }\r\n    \r\n    function returnPurseToken(address _to) public onlyOwner {\r\n        require(_to != address(0), \"send to the zero address\");\r\n        uint256 remainingAmount = purseToken.balanceOf(address(this));\r\n        purseToken.transfer(_to, remainingAmount);\r\n    }\r\n\r\n    function returnAnyToken(address token, uint256 amount, address _to) public onlyOwner{\r\n        require(_to != address(0), \"send to the zero address\");\r\n        IERC20(token).transfer(_to, amount);\r\n    } \r\n\r\n    function updateOwner(address _owner) public onlyOwner{\r\n        require(_owner != address(0), \"not valid address\");\r\n        require(_owner != owner, \"same owner address\");\r\n        owner = _owner;\r\n    } \r\n}\r\n",
  "sourcePath": "C:/Users/cheek/Desktop/Developer doc/Visual Studio Code/PundiX/purseRewardBSC/src/contracts/PurseDistribution.sol",
  "compiler": {
    "name": "solc",
    "version": "0.8.7+commit.e28d00a7.Emscripten.clang"
  },
  "schemaVersion": "3.2.3",
  "updatedAt": "2021-12-10T11:04:38.614Z",
  "devdoc": {
    "kind": "dev",
    "methods": {},
    "version": 1
  },
  "userdoc": {
    "kind": "user",
    "methods": {},
    "version": 1
  }
}