{
  "contractName": "PurseTokenUpgradableV2",
  "abi": [
    {
      "anonymous": false,
      "inputs": [
        {
          "indexed": false,
          "internalType": "address",
          "name": "previousAdmin",
          "type": "address"
        },
        {
          "indexed": false,
          "internalType": "address",
          "name": "newAdmin",
          "type": "address"
        }
      ],
      "name": "AdminChanged",
      "type": "event"
    },
    {
      "anonymous": false,
      "inputs": [
        {
          "indexed": true,
          "internalType": "address",
          "name": "_owner",
          "type": "address"
        },
        {
          "indexed": true,
          "internalType": "address",
          "name": "_spender",
          "type": "address"
        },
        {
          "indexed": false,
          "internalType": "uint256",
          "name": "_value",
          "type": "uint256"
        }
      ],
      "name": "Approval",
      "type": "event"
    },
    {
      "anonymous": false,
      "inputs": [
        {
          "indexed": true,
          "internalType": "address",
          "name": "beacon",
          "type": "address"
        }
      ],
      "name": "BeaconUpgraded",
      "type": "event"
    },
    {
      "anonymous": false,
      "inputs": [
        {
          "indexed": true,
          "internalType": "address",
          "name": "_from",
          "type": "address"
        },
        {
          "indexed": true,
          "internalType": "address",
          "name": "_to",
          "type": "address"
        },
        {
          "indexed": false,
          "internalType": "uint256",
          "name": "_value",
          "type": "uint256"
        }
      ],
      "name": "Burn",
      "type": "event"
    },
    {
      "anonymous": false,
      "inputs": [
        {
          "indexed": true,
          "internalType": "address",
          "name": "_from",
          "type": "address"
        },
        {
          "indexed": true,
          "internalType": "address",
          "name": "_to",
          "type": "address"
        },
        {
          "indexed": false,
          "internalType": "uint256",
          "name": "_value",
          "type": "uint256"
        }
      ],
      "name": "Mint",
      "type": "event"
    },
    {
      "anonymous": false,
      "inputs": [
        {
          "indexed": true,
          "internalType": "address",
          "name": "previousOwner",
          "type": "address"
        }
      ],
      "name": "OwnershipRenounced",
      "type": "event"
    },
    {
      "anonymous": false,
      "inputs": [
        {
          "indexed": true,
          "internalType": "address",
          "name": "previousOwner",
          "type": "address"
        },
        {
          "indexed": true,
          "internalType": "address",
          "name": "newOwner",
          "type": "address"
        }
      ],
      "name": "OwnershipTransferred",
      "type": "event"
    },
    {
      "anonymous": false,
      "inputs": [
        {
          "indexed": false,
          "internalType": "address",
          "name": "account",
          "type": "address"
        }
      ],
      "name": "Paused",
      "type": "event"
    },
    {
      "anonymous": false,
      "inputs": [
        {
          "indexed": true,
          "internalType": "address",
          "name": "_from",
          "type": "address"
        },
        {
          "indexed": true,
          "internalType": "address",
          "name": "_to",
          "type": "address"
        },
        {
          "indexed": false,
          "internalType": "uint256",
          "name": "_value",
          "type": "uint256"
        }
      ],
      "name": "Transfer",
      "type": "event"
    },
    {
      "anonymous": false,
      "inputs": [
        {
          "indexed": false,
          "internalType": "address",
          "name": "account",
          "type": "address"
        }
      ],
      "name": "Unpaused",
      "type": "event"
    },
    {
      "anonymous": false,
      "inputs": [
        {
          "indexed": true,
          "internalType": "address",
          "name": "implementation",
          "type": "address"
        }
      ],
      "name": "Upgraded",
      "type": "event"
    },
    {
      "inputs": [
        {
          "internalType": "uint256",
          "name": "",
          "type": "uint256"
        }
      ],
      "name": "admins",
      "outputs": [
        {
          "internalType": "address",
          "name": "",
          "type": "address"
        }
      ],
      "stateMutability": "view",
      "type": "function"
    },
    {
      "inputs": [
        {
          "internalType": "address",
          "name": "",
          "type": "address"
        },
        {
          "internalType": "address",
          "name": "",
          "type": "address"
        }
      ],
      "name": "allowance",
      "outputs": [
        {
          "internalType": "uint256",
          "name": "",
          "type": "uint256"
        }
      ],
      "stateMutability": "view",
      "type": "function"
    },
    {
      "inputs": [
        {
          "internalType": "address",
          "name": "",
          "type": "address"
        }
      ],
      "name": "balanceOf",
      "outputs": [
        {
          "internalType": "uint256",
          "name": "",
          "type": "uint256"
        }
      ],
      "stateMutability": "view",
      "type": "function"
    },
    {
      "inputs": [],
      "name": "burnPercent",
      "outputs": [
        {
          "internalType": "uint256",
          "name": "",
          "type": "uint256"
        }
      ],
      "stateMutability": "view",
      "type": "function"
    },
    {
      "inputs": [],
      "name": "decimals",
      "outputs": [
        {
          "internalType": "uint8",
          "name": "",
          "type": "uint8"
        }
      ],
      "stateMutability": "view",
      "type": "function"
    },
    {
      "inputs": [],
      "name": "disPercent",
      "outputs": [
        {
          "internalType": "uint256",
          "name": "",
          "type": "uint256"
        }
      ],
      "stateMutability": "view",
      "type": "function"
    },
    {
      "inputs": [],
      "name": "disPool",
      "outputs": [
        {
          "internalType": "address",
          "name": "",
          "type": "address"
        }
      ],
      "stateMutability": "view",
      "type": "function"
    },
    {
      "inputs": [
        {
          "internalType": "address",
          "name": "",
          "type": "address"
        }
      ],
      "name": "isAdmin",
      "outputs": [
        {
          "internalType": "bool",
          "name": "",
          "type": "bool"
        }
      ],
      "stateMutability": "view",
      "type": "function"
    },
    {
      "inputs": [
        {
          "internalType": "address",
          "name": "",
          "type": "address"
        }
      ],
      "name": "isWhitelistedFrom",
      "outputs": [
        {
          "internalType": "bool",
          "name": "",
          "type": "bool"
        }
      ],
      "stateMutability": "view",
      "type": "function"
    },
    {
      "inputs": [
        {
          "internalType": "address",
          "name": "",
          "type": "address"
        }
      ],
      "name": "isWhitelistedTo",
      "outputs": [
        {
          "internalType": "bool",
          "name": "",
          "type": "bool"
        }
      ],
      "stateMutability": "view",
      "type": "function"
    },
    {
      "inputs": [],
      "name": "liqPercent",
      "outputs": [
        {
          "internalType": "uint256",
          "name": "",
          "type": "uint256"
        }
      ],
      "stateMutability": "view",
      "type": "function"
    },
    {
      "inputs": [],
      "name": "liqPool",
      "outputs": [
        {
          "internalType": "address",
          "name": "",
          "type": "address"
        }
      ],
      "stateMutability": "view",
      "type": "function"
    },
    {
      "inputs": [],
      "name": "mintIndex",
      "outputs": [
        {
          "internalType": "uint256",
          "name": "",
          "type": "uint256"
        }
      ],
      "stateMutability": "view",
      "type": "function"
    },
    {
      "inputs": [],
      "name": "name",
      "outputs": [
        {
          "internalType": "string",
          "name": "",
          "type": "string"
        }
      ],
      "stateMutability": "view",
      "type": "function"
    },
    {
      "inputs": [],
      "name": "owner",
      "outputs": [
        {
          "internalType": "address",
          "name": "",
          "type": "address"
        }
      ],
      "stateMutability": "view",
      "type": "function"
    },
    {
      "inputs": [],
      "name": "paused",
      "outputs": [
        {
          "internalType": "bool",
          "name": "",
          "type": "bool"
        }
      ],
      "stateMutability": "view",
      "type": "function"
    },
    {
      "inputs": [],
      "name": "symbol",
      "outputs": [
        {
          "internalType": "string",
          "name": "",
          "type": "string"
        }
      ],
      "stateMutability": "view",
      "type": "function"
    },
    {
      "inputs": [],
      "name": "totalSupply",
      "outputs": [
        {
          "internalType": "uint256",
          "name": "",
          "type": "uint256"
        }
      ],
      "stateMutability": "view",
      "type": "function"
    },
    {
      "inputs": [
        {
          "internalType": "address",
          "name": "newImplementation",
          "type": "address"
        }
      ],
      "name": "upgradeTo",
      "outputs": [],
      "stateMutability": "nonpayable",
      "type": "function"
    },
    {
      "inputs": [
        {
          "internalType": "address",
          "name": "newImplementation",
          "type": "address"
        },
        {
          "internalType": "bytes",
          "name": "data",
          "type": "bytes"
        }
      ],
      "name": "upgradeToAndCall",
      "outputs": [],
      "stateMutability": "payable",
      "type": "function"
    },
    {
      "inputs": [
        {
          "internalType": "address",
          "name": "_owner",
          "type": "address"
        }
      ],
      "name": "transferOwnership",
      "outputs": [],
      "stateMutability": "nonpayable",
      "type": "function"
    },
    {
      "inputs": [],
      "name": "renounceOwnership",
      "outputs": [],
      "stateMutability": "nonpayable",
      "type": "function"
    },
    {
      "inputs": [
        {
          "internalType": "address",
          "name": "newWhitelist",
          "type": "address"
        }
      ],
      "name": "setWhitelistedTo",
      "outputs": [],
      "stateMutability": "nonpayable",
      "type": "function"
    },
    {
      "inputs": [
        {
          "internalType": "address",
          "name": "newWhitelist",
          "type": "address"
        }
      ],
      "name": "removeWhitelistedTo",
      "outputs": [],
      "stateMutability": "nonpayable",
      "type": "function"
    },
    {
      "inputs": [
        {
          "internalType": "address",
          "name": "newWhitelist",
          "type": "address"
        }
      ],
      "name": "setWhitelistedFrom",
      "outputs": [],
      "stateMutability": "nonpayable",
      "type": "function"
    },
    {
      "inputs": [
        {
          "internalType": "address",
          "name": "newWhitelist",
          "type": "address"
        }
      ],
      "name": "removeWhitelistedFrom",
      "outputs": [],
      "stateMutability": "nonpayable",
      "type": "function"
    },
    {
      "inputs": [
        {
          "internalType": "address",
          "name": "_to",
          "type": "address"
        },
        {
          "internalType": "uint256",
          "name": "_value",
          "type": "uint256"
        }
      ],
      "name": "transfer",
      "outputs": [
        {
          "internalType": "bool",
          "name": "success",
          "type": "bool"
        }
      ],
      "stateMutability": "nonpayable",
      "type": "function"
    },
    {
      "inputs": [
        {
          "internalType": "address",
          "name": "_spender",
          "type": "address"
        },
        {
          "internalType": "uint256",
          "name": "_value",
          "type": "uint256"
        }
      ],
      "name": "approve",
      "outputs": [
        {
          "internalType": "bool",
          "name": "success",
          "type": "bool"
        }
      ],
      "stateMutability": "nonpayable",
      "type": "function"
    },
    {
      "inputs": [
        {
          "internalType": "address",
          "name": "_from",
          "type": "address"
        },
        {
          "internalType": "address",
          "name": "_to",
          "type": "address"
        },
        {
          "internalType": "uint256",
          "name": "_value",
          "type": "uint256"
        }
      ],
      "name": "transferFrom",
      "outputs": [
        {
          "internalType": "bool",
          "name": "success",
          "type": "bool"
        }
      ],
      "stateMutability": "nonpayable",
      "type": "function"
    },
    {
      "inputs": [
        {
          "internalType": "address",
          "name": "_account",
          "type": "address"
        },
        {
          "internalType": "uint256",
          "name": "_amount",
          "type": "uint256"
        }
      ],
      "name": "mint",
      "outputs": [],
      "stateMutability": "nonpayable",
      "type": "function"
    },
    {
      "inputs": [
        {
          "internalType": "address",
          "name": "_account",
          "type": "address"
        },
        {
          "internalType": "uint256",
          "name": "_amount",
          "type": "uint256"
        }
      ],
      "name": "burn",
      "outputs": [],
      "stateMutability": "nonpayable",
      "type": "function"
    },
    {
      "inputs": [
        {
          "internalType": "address",
          "name": "_newLPool",
          "type": "address"
        }
      ],
      "name": "updateLPoolAdd",
      "outputs": [],
      "stateMutability": "nonpayable",
      "type": "function"
    },
    {
      "inputs": [
        {
          "internalType": "address",
          "name": "_newRPool",
          "type": "address"
        }
      ],
      "name": "updateRPoolAdd",
      "outputs": [],
      "stateMutability": "nonpayable",
      "type": "function"
    },
    {
      "inputs": [
        {
          "internalType": "uint256",
          "name": "_newBurnPercent",
          "type": "uint256"
        }
      ],
      "name": "updateBurnPercent",
      "outputs": [],
      "stateMutability": "nonpayable",
      "type": "function"
    },
    {
      "inputs": [
        {
          "internalType": "uint256",
          "name": "_newLiqPercent",
          "type": "uint256"
        }
      ],
      "name": "updateLiqPercent",
      "outputs": [],
      "stateMutability": "nonpayable",
      "type": "function"
    },
    {
      "inputs": [
        {
          "internalType": "uint256",
          "name": "_newDisPercent",
          "type": "uint256"
        }
      ],
      "name": "updateDisPercent",
      "outputs": [],
      "stateMutability": "nonpayable",
      "type": "function"
    },
    {
      "inputs": [
        {
          "internalType": "address",
          "name": "newAdmin",
          "type": "address"
        }
      ],
      "name": "addAdmin",
      "outputs": [],
      "stateMutability": "nonpayable",
      "type": "function"
    },
    {
      "inputs": [
        {
          "internalType": "uint256",
          "name": "index",
          "type": "uint256"
        }
      ],
      "name": "removeAdmin",
      "outputs": [
        {
          "internalType": "address[]",
          "name": "",
          "type": "address[]"
        }
      ],
      "stateMutability": "nonpayable",
      "type": "function"
    },
    {
      "inputs": [],
      "name": "getAdmins",
      "outputs": [
        {
          "internalType": "address[]",
          "name": "",
          "type": "address[]"
        }
      ],
      "stateMutability": "view",
      "type": "function"
    },
    {
      "inputs": [],
      "name": "getOwner",
      "outputs": [
        {
          "internalType": "address",
          "name": "",
          "type": "address"
        }
      ],
      "stateMutability": "view",
      "type": "function"
    },
    {
      "inputs": [
        {
          "internalType": "address",
          "name": "token",
          "type": "address"
        },
        {
          "internalType": "uint256",
          "name": "amount",
          "type": "uint256"
        },
        {
          "internalType": "address",
          "name": "_to",
          "type": "address"
        }
      ],
      "name": "returnAnyToken",
      "outputs": [],
      "stateMutability": "nonpayable",
      "type": "function"
    },
    {
      "inputs": [],
      "name": "pause",
      "outputs": [],
      "stateMutability": "nonpayable",
      "type": "function"
    },
    {
      "inputs": [],
      "name": "unpause",
      "outputs": [],
      "stateMutability": "nonpayable",
      "type": "function"
    },
    {
      "inputs": [
        {
          "internalType": "address",
          "name": "_to",
          "type": "address"
        },
        {
          "internalType": "address",
          "name": "_lPool",
          "type": "address"
        },
        {
          "internalType": "address",
          "name": "_rPool",
          "type": "address"
        },
        {
          "internalType": "uint256",
          "name": "_burnPercent",
          "type": "uint256"
        },
        {
          "internalType": "uint256",
          "name": "_liqPercent",
          "type": "uint256"
        },
        {
          "internalType": "uint256",
          "name": "_disPercent",
          "type": "uint256"
        }
      ],
      "name": "initialize",
      "outputs": [],
      "stateMutability": "nonpayable",
      "type": "function"
    }
  ],
  "bytecode": "0x608060405234801561001057600080fd5b5061594380620000216000396000f3fe6080604052600436106102675760003560e01c806370480275116101445780639dc29fac116100b6578063ca04d2d81161007a578063ca04d2d8146108f9578063dd62ed3e14610936578063e2657da114610973578063f2fde38b1461099c578063f74f9bfd146109c5578063f7567244146109f057610267565b80639dc29fac14610802578063a9059cbb1461082b578063ad7bbc2914610868578063c237e326146108a5578063c6ef9246146108ce57610267565b8063740b91f411610108578063740b91f4146107165780638456cb5914610741578063893d20e8146107585780638aa4ef2c146107835780638da5cb5b146107ac57806395d89b41146107d757610267565b8063704802751461064757806370a0823114610670578063715018a6146106ad578063726f0133146106c4578063728cdbca146106ed57610267565b80633659cfe6116101dd5780634d28b4ba116101a15780634d28b4ba146105465780634f1ef2861461056f5780635422e4951461058b5780635b014029146105b65780635c975abb146105f357806367e76d531461061e57610267565b80633659cfe61461048b5780633838d4e3146104b457806338999328146104dd5780633f4ba83a1461050657806340c10f191461051d57610267565b806323b872dd1161022f57806323b872dd1461036757806324d7806c146103a457806327ba6e11146103e1578063313ce5671461040c57806331ae450b1461043757806335e8b82e1461046257610267565b806303807ee51461026c57806306fdde0314610297578063095ea7b3146102c257806314bfd6d0146102ff57806318160ddd1461033c575b600080fd5b34801561027857600080fd5b50610281610a19565b60405161028e919061522a565b60405180910390f35b3480156102a357600080fd5b506102ac610a1f565b6040516102b991906150a8565b60405180910390f35b3480156102ce57600080fd5b506102e960048036038101906102e49190614c87565b610aad565b6040516102f6919061508d565b60405180910390f35b34801561030b57600080fd5b5061032660048036038101906103219190614d3b565b610be7565b6040516103339190615027565b60405180910390f35b34801561034857600080fd5b50610351610c26565b60405161035e919061522a565b60405180910390f35b34801561037357600080fd5b5061038e60048036038101906103899190614be4565b610c2c565b60405161039b919061508d565b60405180910390f35b3480156103b057600080fd5b506103cb60048036038101906103c69190614af6565b61116b565b6040516103d8919061508d565b60405180910390f35b3480156103ed57600080fd5b506103f661118b565b6040516104039190615027565b60405180910390f35b34801561041857600080fd5b506104216111b1565b60405161042e9190615245565b60405180910390f35b34801561044357600080fd5b5061044c6111c4565b604051610459919061506b565b60405180910390f35b34801561046e57600080fd5b5061048960048036038101906104849190614af6565b611252565b005b34801561049757600080fd5b506104b260048036038101906104ad9190614af6565b6113bb565b005b3480156104c057600080fd5b506104db60048036038101906104d69190614af6565b6113e2565b005b3480156104e957600080fd5b5061050460048036038101906104ff9190614d3b565b61155e565b005b34801561051257600080fd5b5061051b611622565b005b34801561052957600080fd5b50610544600480360381019061053f9190614c87565b611703565b005b34801561055257600080fd5b5061056d60048036038101906105689190614af6565b6118ea565b005b61058960048036038101906105849190614c33565b611a65565b005b34801561059757600080fd5b506105a0611a7e565b6040516105ad919061522a565b60405180910390f35b3480156105c257600080fd5b506105dd60048036038101906105d89190614af6565b611a84565b6040516105ea919061508d565b60405180910390f35b3480156105ff57600080fd5b50610608611aa4565b604051610615919061508d565b60405180910390f35b34801561062a57600080fd5b5061064560048036038101906106409190614af6565b611abb565b005b34801561065357600080fd5b5061066e60048036038101906106699190614af6565b611c24565b005b34801561067c57600080fd5b5061069760048036038101906106929190614af6565b611e03565b6040516106a4919061522a565b60405180910390f35b3480156106b957600080fd5b506106c2611e1b565b005b3480156106d057600080fd5b506106eb60048036038101906106e69190614d3b565b611f54565b005b3480156106f957600080fd5b50610714600480360381019061070f9190614b5b565b612018565b005b34801561072257600080fd5b5061072b61244f565b6040516107389190615027565b60405180910390f35b34801561074d57600080fd5b50610756612475565b005b34801561076457600080fd5b5061076d612557565b60405161077a9190615027565b60405180910390f35b34801561078f57600080fd5b506107aa60048036038101906107a59190614d3b565b612581565b005b3480156107b857600080fd5b506107c1612645565b6040516107ce9190615027565b60405180910390f35b3480156107e357600080fd5b506107ec61266b565b6040516107f991906150a8565b60405180910390f35b34801561080e57600080fd5b5061082960048036038101906108249190614c87565b6126f9565b005b34801561083757600080fd5b50610852600480360381019061084d9190614c87565b612932565b60405161085f919061508d565b60405180910390f35b34801561087457600080fd5b5061088f600480360381019061088a9190614d3b565b612cc1565b60405161089c919061506b565b60405180910390f35b3480156108b157600080fd5b506108cc60048036038101906108c79190614cc3565b6130d7565b005b3480156108da57600080fd5b506108e361326a565b6040516108f0919061522a565b60405180910390f35b34801561090557600080fd5b50610920600480360381019061091b9190614af6565b613270565b60405161092d919061508d565b60405180910390f35b34801561094257600080fd5b5061095d60048036038101906109589190614b1f565b613290565b60405161096a919061522a565b60405180910390f35b34801561097f57600080fd5b5061099a60048036038101906109959190614af6565b6132b5565b005b3480156109a857600080fd5b506109c360048036038101906109be9190614af6565b613430565b005b3480156109d157600080fd5b506109da613681565b6040516109e7919061522a565b60405180910390f35b3480156109fc57600080fd5b50610a176004803603810190610a129190614af6565b613687565b005b60d35481565b60c98054610a2c906154cd565b80601f0160208091040260200160405190810160405280929190818152602001828054610a58906154cd565b8015610aa55780601f10610a7a57610100808354040283529160200191610aa5565b820191906000526020600020905b815481529060010190602001808311610a8857829003601f168201915b505050505081565b6000610ab7611aa4565b15610af7576040517f08c379a0000000000000000000000000000000000000000000000000000000008152600401610aee9061512a565b60405180910390fd5b8160d760003373ffffffffffffffffffffffffffffffffffffffff1673ffffffffffffffffffffffffffffffffffffffff16815260200190815260200160002060008573ffffffffffffffffffffffffffffffffffffffff1673ffffffffffffffffffffffffffffffffffffffff168152602001908152602001600020819055508273ffffffffffffffffffffffffffffffffffffffff163373ffffffffffffffffffffffffffffffffffffffff167f8c5be1e5ebec7d5bd14f71427d1e84f3dd0314c0f7b2291e5b200ac8c7c3b92584604051610bd5919061522a565b60405180910390a36001905092915050565b60cf8181548110610bf757600080fd5b906000526020600020016000915054906101000a900473ffffffffffffffffffffffffffffffffffffffff1681565b60cb5481565b6000610c36611aa4565b15610c76576040517f08c379a0000000000000000000000000000000000000000000000000000000008152600401610c6d9061512a565b60405180910390fd5b6000821015610c8457600080fd5b60d660008573ffffffffffffffffffffffffffffffffffffffff1673ffffffffffffffffffffffffffffffffffffffff16815260200190815260200160002054821115610cd057600080fd5b60d760008573ffffffffffffffffffffffffffffffffffffffff1673ffffffffffffffffffffffffffffffffffffffff16815260200190815260200160002060003373ffffffffffffffffffffffffffffffffffffffff1673ffffffffffffffffffffffffffffffffffffffff16815260200190815260200160002054821115610d5957600080fd5b60d960008473ffffffffffffffffffffffffffffffffffffffff1673ffffffffffffffffffffffffffffffffffffffff16815260200190815260200160002060009054906101000a900460ff1680610dfa575060da60003373ffffffffffffffffffffffffffffffffffffffff1673ffffffffffffffffffffffffffffffffffffffff16815260200190815260200160002060009054906101000a900460ff165b15610fac578160d760008673ffffffffffffffffffffffffffffffffffffffff1673ffffffffffffffffffffffffffffffffffffffff16815260200190815260200160002060003373ffffffffffffffffffffffffffffffffffffffff1673ffffffffffffffffffffffffffffffffffffffff1681526020019081526020016000206000828254610e8b9190615402565b925050819055508160d660008673ffffffffffffffffffffffffffffffffffffffff1673ffffffffffffffffffffffffffffffffffffffff1681526020019081526020016000206000828254610ee19190615402565b925050819055508160d660008573ffffffffffffffffffffffffffffffffffffffff1673ffffffffffffffffffffffffffffffffffffffff1681526020019081526020016000206000828254610f379190615321565b925050819055508273ffffffffffffffffffffffffffffffffffffffff168473ffffffffffffffffffffffffffffffffffffffff167fddf252ad1be2c89b69c2b068fc378daa952ba7f163c4a11628f55a4df523b3ef84604051610f9b919061522a565b60405180910390a360019050611164565b8160d760008673ffffffffffffffffffffffffffffffffffffffff1673ffffffffffffffffffffffffffffffffffffffff16815260200190815260200160002060003373ffffffffffffffffffffffffffffffffffffffff1673ffffffffffffffffffffffffffffffffffffffff16815260200190815260200160002060008282546110389190615402565b92505081905550600061104b8386613803565b90508060d660008773ffffffffffffffffffffffffffffffffffffffff1673ffffffffffffffffffffffffffffffffffffffff168152602001908152602001600020600082825461109c9190615402565b925050819055508060d660008673ffffffffffffffffffffffffffffffffffffffff1673ffffffffffffffffffffffffffffffffffffffff16815260200190815260200160002060008282546110f29190615321565b925050819055508373ffffffffffffffffffffffffffffffffffffffff168573ffffffffffffffffffffffffffffffffffffffff167fddf252ad1be2c89b69c2b068fc378daa952ba7f163c4a11628f55a4df523b3ef83604051611156919061522a565b60405180910390a360019150505b9392505050565b60d86020528060005260406000206000915054906101000a900460ff1681565b60d160009054906101000a900473ffffffffffffffffffffffffffffffffffffffff1681565b60cc60009054906101000a900460ff1681565b606060cf80548060200260200160405190810160405280929190818152602001828054801561124857602002820191906000526020600020905b8160009054906101000a900473ffffffffffffffffffffffffffffffffffffffff1673ffffffffffffffffffffffffffffffffffffffff16815260200190600101908083116111fe575b5050505050905090565b60ce60009054906101000a900473ffffffffffffffffffffffffffffffffffffffff1673ffffffffffffffffffffffffffffffffffffffff163373ffffffffffffffffffffffffffffffffffffffff16146112e2576040517f08c379a00000000000000000000000000000000000000000000000000000000081526004016112d99061520a565b60405180910390fd5b600073ffffffffffffffffffffffffffffffffffffffff168173ffffffffffffffffffffffffffffffffffffffff16141561131c57600080fd5b60d060009054906101000a900473ffffffffffffffffffffffffffffffffffffffff1673ffffffffffffffffffffffffffffffffffffffff168173ffffffffffffffffffffffffffffffffffffffff16141561137757600080fd5b8060d060006101000a81548173ffffffffffffffffffffffffffffffffffffffff021916908373ffffffffffffffffffffffffffffffffffffffff16021790555050565b6113c481613884565b6113df81604051806020016040528060008152506000613917565b50565b60ce60009054906101000a900473ffffffffffffffffffffffffffffffffffffffff1673ffffffffffffffffffffffffffffffffffffffff163373ffffffffffffffffffffffffffffffffffffffff1614611472576040517f08c379a00000000000000000000000000000000000000000000000000000000081526004016114699061520a565b60405180910390fd5b600073ffffffffffffffffffffffffffffffffffffffff168173ffffffffffffffffffffffffffffffffffffffff1614156114ac57600080fd5b60da60008273ffffffffffffffffffffffffffffffffffffffff1673ffffffffffffffffffffffffffffffffffffffff16815260200190815260200160002060009054906101000a900460ff161561150357600080fd5b600160da60008373ffffffffffffffffffffffffffffffffffffffff1673ffffffffffffffffffffffffffffffffffffffff16815260200190815260200160002060006101000a81548160ff02191690831515021790555050565b60ce60009054906101000a900473ffffffffffffffffffffffffffffffffffffffff1673ffffffffffffffffffffffffffffffffffffffff163373ffffffffffffffffffffffffffffffffffffffff16146115ee576040517f08c379a00000000000000000000000000000000000000000000000000000000081526004016115e59061520a565b60405180910390fd5b60008110158015611600575060648111155b61160957600080fd5b60d35481141561161857600080fd5b8060d38190555050565b61162a611aa4565b611669576040517f08c379a0000000000000000000000000000000000000000000000000000000008152600401611660906150ca565b60405180910390fd5b60ce60009054906101000a900473ffffffffffffffffffffffffffffffffffffffff1673ffffffffffffffffffffffffffffffffffffffff163373ffffffffffffffffffffffffffffffffffffffff16146116f9576040517f08c379a00000000000000000000000000000000000000000000000000000000081526004016116f09061520a565b60405180910390fd5b611701613ae8565b565b61170b611aa4565b1561174b576040517f08c379a00000000000000000000000000000000000000000000000000000000081526004016117429061512a565b60405180910390fd5b60d860003373ffffffffffffffffffffffffffffffffffffffff1673ffffffffffffffffffffffffffffffffffffffff16815260200190815260200160002060009054906101000a900460ff166117d7576040517f08c379a00000000000000000000000000000000000000000000000000000000081526004016117ce906151ea565b60405180910390fd5b600073ffffffffffffffffffffffffffffffffffffffff168273ffffffffffffffffffffffffffffffffffffffff16141561181157600080fd5b8060d660008473ffffffffffffffffffffffffffffffffffffffff1673ffffffffffffffffffffffffffffffffffffffff16815260200190815260200160002060008282546118609190615321565b925050819055508060cb60008282546118799190615321565b925050819055508173ffffffffffffffffffffffffffffffffffffffff16600073ffffffffffffffffffffffffffffffffffffffff167fab8530f87dc9b59234c4623bf917212bb2536d647574c8e7e5da92c2ede0c9f8836040516118de919061522a565b60405180910390a35050565b60ce60009054906101000a900473ffffffffffffffffffffffffffffffffffffffff1673ffffffffffffffffffffffffffffffffffffffff163373ffffffffffffffffffffffffffffffffffffffff161461197a576040517f08c379a00000000000000000000000000000000000000000000000000000000081526004016119719061520a565b60405180910390fd5b600073ffffffffffffffffffffffffffffffffffffffff168173ffffffffffffffffffffffffffffffffffffffff1614156119b457600080fd5b60da60008273ffffffffffffffffffffffffffffffffffffffff1673ffffffffffffffffffffffffffffffffffffffff16815260200190815260200160002060009054906101000a900460ff16611a0a57600080fd5b600060da60008373ffffffffffffffffffffffffffffffffffffffff1673ffffffffffffffffffffffffffffffffffffffff16815260200190815260200160002060006101000a81548160ff02191690831515021790555050565b611a6e82613884565b611a7a82826001613917565b5050565b60d45481565b60d96020528060005260406000206000915054906101000a900460ff1681565b6000609760009054906101000a900460ff16905090565b60ce60009054906101000a900473ffffffffffffffffffffffffffffffffffffffff1673ffffffffffffffffffffffffffffffffffffffff163373ffffffffffffffffffffffffffffffffffffffff1614611b4b576040517f08c379a0000000000000000000000000000000000000000000000000000000008152600401611b429061520a565b60405180910390fd5b600073ffffffffffffffffffffffffffffffffffffffff168173ffffffffffffffffffffffffffffffffffffffff161415611b8557600080fd5b60d160009054906101000a900473ffffffffffffffffffffffffffffffffffffffff1673ffffffffffffffffffffffffffffffffffffffff168173ffffffffffffffffffffffffffffffffffffffff161415611be057600080fd5b8060d160006101000a81548173ffffffffffffffffffffffffffffffffffffffff021916908373ffffffffffffffffffffffffffffffffffffffff16021790555050565b60ce60009054906101000a900473ffffffffffffffffffffffffffffffffffffffff1673ffffffffffffffffffffffffffffffffffffffff163373ffffffffffffffffffffffffffffffffffffffff1614611cb4576040517f08c379a0000000000000000000000000000000000000000000000000000000008152600401611cab9061520a565b60405180910390fd5b600073ffffffffffffffffffffffffffffffffffffffff168173ffffffffffffffffffffffffffffffffffffffff161415611cee57600080fd5b60d860008273ffffffffffffffffffffffffffffffffffffffff1673ffffffffffffffffffffffffffffffffffffffff16815260200190815260200160002060009054906101000a900460ff1615611d4557600080fd5b600160d860008373ffffffffffffffffffffffffffffffffffffffff1673ffffffffffffffffffffffffffffffffffffffff16815260200190815260200160002060006101000a81548160ff02191690831515021790555060cf819080600181540180825580915050600190039060005260206000200160009091909190916101000a81548173ffffffffffffffffffffffffffffffffffffffff021916908373ffffffffffffffffffffffffffffffffffffffff16021790555050565b60d66020528060005260406000206000915090505481565b60ce60009054906101000a900473ffffffffffffffffffffffffffffffffffffffff1673ffffffffffffffffffffffffffffffffffffffff163373ffffffffffffffffffffffffffffffffffffffff1614611eab576040517f08c379a0000000000000000000000000000000000000000000000000000000008152600401611ea29061520a565b60405180910390fd5b60ce60009054906101000a900473ffffffffffffffffffffffffffffffffffffffff1673ffffffffffffffffffffffffffffffffffffffff167ff8df31144d9c2f0f6b59d69b8b98abd5459d07f2742c4df920b25aae33c6482060405160405180910390a2600060ce60006101000a81548173ffffffffffffffffffffffffffffffffffffffff021916908373ffffffffffffffffffffffffffffffffffffffff160217905550565b60ce60009054906101000a900473ffffffffffffffffffffffffffffffffffffffff1673ffffffffffffffffffffffffffffffffffffffff163373ffffffffffffffffffffffffffffffffffffffff1614611fe4576040517f08c379a0000000000000000000000000000000000000000000000000000000008152600401611fdb9061520a565b60405180910390fd5b60008110158015611ff6575060648111155b611fff57600080fd5b60d55481141561200e57600080fd5b8060d58190555050565b600060019054906101000a900460ff168061203e575060008054906101000a900460ff16155b61207d576040517f08c379a00000000000000000000000000000000000000000000000000000000081526004016120749061514a565b60405180910390fd5b60008060019054906101000a900460ff1615905080156120cd576001600060016101000a81548160ff02191690831515021790555060016000806101000a81548160ff0219169083151502179055505b600073ffffffffffffffffffffffffffffffffffffffff168673ffffffffffffffffffffffffffffffffffffffff16141561210757600080fd5b600073ffffffffffffffffffffffffffffffffffffffff168573ffffffffffffffffffffffffffffffffffffffff16141561214157600080fd5b600084101561214f57600080fd5b600083101561215d57600080fd5b600082101561216b57600080fd5b6040518060400160405280600b81526020017f505552534520546f6b656e00000000000000000000000000000000000000000081525060c990805190602001906121b6929190614922565b506040518060400160405280600281526020017f505200000000000000000000000000000000000000000000000000000000000081525060ca9080519060200190612202929190614922565b506bcecb8f27f4200f3a0000000060cb81905550601260cc60006101000a81548160ff021916908360ff16021790555069043c33c193756480000060cd819055508560d060006101000a81548173ffffffffffffffffffffffffffffffffffffffff021916908373ffffffffffffffffffffffffffffffffffffffff1602179055508460d160006101000a81548173ffffffffffffffffffffffffffffffffffffffff021916908373ffffffffffffffffffffffffffffffffffffffff1602179055508360d3819055508260d4819055508160d5819055503360ce60006101000a81548173ffffffffffffffffffffffffffffffffffffffff021916908373ffffffffffffffffffffffffffffffffffffffff16021790555060405180602001604052803373ffffffffffffffffffffffffffffffffffffffff1673ffffffffffffffffffffffffffffffffffffffff1681525060cf9060016123669291906149a8565b5060cb5460d660008973ffffffffffffffffffffffffffffffffffffffff1673ffffffffffffffffffffffffffffffffffffffff168152602001908152602001600020819055508673ffffffffffffffffffffffffffffffffffffffff16600073ffffffffffffffffffffffffffffffffffffffff167fab8530f87dc9b59234c4623bf917212bb2536d647574c8e7e5da92c2ede0c9f860cb5460405161240d919061522a565b60405180910390a361241d613b8a565b612425613c73565b80156124465760008060016101000a81548160ff0219169083151502179055505b50505050505050565b60d060009054906101000a900473ffffffffffffffffffffffffffffffffffffffff1681565b61247d611aa4565b156124bd576040517f08c379a00000000000000000000000000000000000000000000000000000000081526004016124b49061512a565b60405180910390fd5b60ce60009054906101000a900473ffffffffffffffffffffffffffffffffffffffff1673ffffffffffffffffffffffffffffffffffffffff163373ffffffffffffffffffffffffffffffffffffffff161461254d576040517f08c379a00000000000000000000000000000000000000000000000000000000081526004016125449061520a565b60405180910390fd5b612555613d5c565b565b600060ce60009054906101000a900473ffffffffffffffffffffffffffffffffffffffff16905090565b60ce60009054906101000a900473ffffffffffffffffffffffffffffffffffffffff1673ffffffffffffffffffffffffffffffffffffffff163373ffffffffffffffffffffffffffffffffffffffff1614612611576040517f08c379a00000000000000000000000000000000000000000000000000000000081526004016126089061520a565b60405180910390fd5b60008110158015612623575060648111155b61262c57600080fd5b60d45481141561263b57600080fd5b8060d48190555050565b60ce60009054906101000a900473ffffffffffffffffffffffffffffffffffffffff1681565b60ca8054612678906154cd565b80601f01602080910402602001604051908101604052809291908181526020018280546126a4906154cd565b80156126f15780601f106126c6576101008083540402835291602001916126f1565b820191906000526020600020905b8154815290600101906020018083116126d457829003601f168201915b505050505081565b612701611aa4565b15612741576040517f08c379a00000000000000000000000000000000000000000000000000000000081526004016127389061512a565b60405180910390fd5b60d860003373ffffffffffffffffffffffffffffffffffffffff1673ffffffffffffffffffffffffffffffffffffffff16815260200190815260200160002060009054906101000a900460ff166127cd576040517f08c379a00000000000000000000000000000000000000000000000000000000081526004016127c4906151ea565b60405180910390fd5b600073ffffffffffffffffffffffffffffffffffffffff168273ffffffffffffffffffffffffffffffffffffffff16141561280757600080fd5b600060d660008473ffffffffffffffffffffffffffffffffffffffff1673ffffffffffffffffffffffffffffffffffffffff1681526020019081526020016000205490508181101561285857600080fd5b8160d660008573ffffffffffffffffffffffffffffffffffffffff1673ffffffffffffffffffffffffffffffffffffffff16815260200190815260200160002060008282546128a79190615402565b925050819055508160cb60008282546128c09190615402565b92505081905550600073ffffffffffffffffffffffffffffffffffffffff168373ffffffffffffffffffffffffffffffffffffffff167fbac40739b0d4ca32fa2d82fc91630465ba3eddd1598da6fca393b26fb63b945384604051612925919061522a565b60405180910390a3505050565b600061293c611aa4565b1561297c576040517f08c379a00000000000000000000000000000000000000000000000000000000081526004016129739061512a565b60405180910390fd5b600082101561298a57600080fd5b8160d660003373ffffffffffffffffffffffffffffffffffffffff1673ffffffffffffffffffffffffffffffffffffffff1681526020019081526020016000205410156129d657600080fd5b60d960008473ffffffffffffffffffffffffffffffffffffffff1673ffffffffffffffffffffffffffffffffffffffff16815260200190815260200160002060009054906101000a900460ff1680612a77575060da60003373ffffffffffffffffffffffffffffffffffffffff1673ffffffffffffffffffffffffffffffffffffffff16815260200190815260200160002060009054906101000a900460ff165b15612b96578160d660003373ffffffffffffffffffffffffffffffffffffffff1673ffffffffffffffffffffffffffffffffffffffff1681526020019081526020016000206000828254612acb9190615402565b925050819055508160d660008573ffffffffffffffffffffffffffffffffffffffff1673ffffffffffffffffffffffffffffffffffffffff1681526020019081526020016000206000828254612b219190615321565b925050819055508273ffffffffffffffffffffffffffffffffffffffff163373ffffffffffffffffffffffffffffffffffffffff167fddf252ad1be2c89b69c2b068fc378daa952ba7f163c4a11628f55a4df523b3ef84604051612b85919061522a565b60405180910390a360019050612cbb565b6000612ba28333613803565b90508060d660003373ffffffffffffffffffffffffffffffffffffffff1673ffffffffffffffffffffffffffffffffffffffff1681526020019081526020016000206000828254612bf39190615402565b925050819055508060d660008673ffffffffffffffffffffffffffffffffffffffff1673ffffffffffffffffffffffffffffffffffffffff1681526020019081526020016000206000828254612c499190615321565b925050819055508373ffffffffffffffffffffffffffffffffffffffff163373ffffffffffffffffffffffffffffffffffffffff167fddf252ad1be2c89b69c2b068fc378daa952ba7f163c4a11628f55a4df523b3ef83604051612cad919061522a565b60405180910390a360019150505b92915050565b606060ce60009054906101000a900473ffffffffffffffffffffffffffffffffffffffff1673ffffffffffffffffffffffffffffffffffffffff163373ffffffffffffffffffffffffffffffffffffffff1614612d53576040517f08c379a0000000000000000000000000000000000000000000000000000000008152600401612d4a9061520a565b60405180910390fd5b600060cf8381548110612d8f577f4e487b7100000000000000000000000000000000000000000000000000000000600052603260045260246000fd5b9060005260206000200160009054906101000a900473ffffffffffffffffffffffffffffffffffffffff16905060cf805490508310612dcd57600080fd5b600073ffffffffffffffffffffffffffffffffffffffff168173ffffffffffffffffffffffffffffffffffffffff161415612e0757600080fd5b60d860008273ffffffffffffffffffffffffffffffffffffffff1673ffffffffffffffffffffffffffffffffffffffff16815260200190815260200160002060009054906101000a900460ff16612e5d57600080fd5b60008390505b600160cf80549050612e759190615402565b811015612f825760cf600182612e8b9190615321565b81548110612ec2577f4e487b7100000000000000000000000000000000000000000000000000000000600052603260045260246000fd5b9060005260206000200160009054906101000a900473ffffffffffffffffffffffffffffffffffffffff1660cf8281548110612f27577f4e487b7100000000000000000000000000000000000000000000000000000000600052603260045260246000fd5b9060005260206000200160006101000a81548173ffffffffffffffffffffffffffffffffffffffff021916908373ffffffffffffffffffffffffffffffffffffffff1602179055508080612f7a90615530565b915050612e63565b5060cf805480612fbb577f4e487b7100000000000000000000000000000000000000000000000000000000600052603160045260246000fd5b6001900381819060005260206000200160006101000a81549073ffffffffffffffffffffffffffffffffffffffff02191690559055600060d860008373ffffffffffffffffffffffffffffffffffffffff1673ffffffffffffffffffffffffffffffffffffffff16815260200190815260200160002060006101000a81548160ff02191690831515021790555060cf8054806020026020016040519081016040528092919081815260200182805480156130ca57602002820191906000526020600020905b8160009054906101000a900473ffffffffffffffffffffffffffffffffffffffff1673ffffffffffffffffffffffffffffffffffffffff1681526020019060010190808311613080575b5050505050915050919050565b60ce60009054906101000a900473ffffffffffffffffffffffffffffffffffffffff1673ffffffffffffffffffffffffffffffffffffffff163373ffffffffffffffffffffffffffffffffffffffff1614613167576040517f08c379a000000000000000000000000000000000000000000000000000000000815260040161315e9061520a565b60405180910390fd5b600073ffffffffffffffffffffffffffffffffffffffff168173ffffffffffffffffffffffffffffffffffffffff1614156131d7576040517f08c379a00000000000000000000000000000000000000000000000000000000081526004016131ce906151ca565b60405180910390fd5b8273ffffffffffffffffffffffffffffffffffffffff1663a9059cbb82846040518363ffffffff1660e01b8152600401613212929190615042565b602060405180830381600087803b15801561322c57600080fd5b505af1158015613240573d6000803e3d6000fd5b505050506040513d601f19601f820116820180604052508101906132649190614d12565b50505050565b60d55481565b60da6020528060005260406000206000915054906101000a900460ff1681565b60d7602052816000526040600020602052806000526040600020600091509150505481565b60ce60009054906101000a900473ffffffffffffffffffffffffffffffffffffffff1673ffffffffffffffffffffffffffffffffffffffff163373ffffffffffffffffffffffffffffffffffffffff1614613345576040517f08c379a000000000000000000000000000000000000000000000000000000000815260040161333c9061520a565b60405180910390fd5b600073ffffffffffffffffffffffffffffffffffffffff168173ffffffffffffffffffffffffffffffffffffffff16141561337f57600080fd5b60d960008273ffffffffffffffffffffffffffffffffffffffff1673ffffffffffffffffffffffffffffffffffffffff16815260200190815260200160002060009054906101000a900460ff166133d557600080fd5b600060d960008373ffffffffffffffffffffffffffffffffffffffff1673ffffffffffffffffffffffffffffffffffffffff16815260200190815260200160002060006101000a81548160ff02191690831515021790555050565b60ce60009054906101000a900473ffffffffffffffffffffffffffffffffffffffff1673ffffffffffffffffffffffffffffffffffffffff163373ffffffffffffffffffffffffffffffffffffffff16146134c0576040517f08c379a00000000000000000000000000000000000000000000000000000000081526004016134b79061520a565b60405180910390fd5b600073ffffffffffffffffffffffffffffffffffffffff168173ffffffffffffffffffffffffffffffffffffffff161415613530576040517f08c379a00000000000000000000000000000000000000000000000000000000081526004016135279061516a565b60405180910390fd5b60ce60009054906101000a900473ffffffffffffffffffffffffffffffffffffffff1673ffffffffffffffffffffffffffffffffffffffff168173ffffffffffffffffffffffffffffffffffffffff1614156135c1576040517f08c379a00000000000000000000000000000000000000000000000000000000081526004016135b89061510a565b60405180910390fd5b8073ffffffffffffffffffffffffffffffffffffffff1660ce60009054906101000a900473ffffffffffffffffffffffffffffffffffffffff1673ffffffffffffffffffffffffffffffffffffffff167f8be0079c531659141344cd1fd0a4f28419497f9722a3daafe3b4186f6b6457e060405160405180910390a38060ce60006101000a81548173ffffffffffffffffffffffffffffffffffffffff021916908373ffffffffffffffffffffffffffffffffffffffff16021790555050565b60d25481565b60ce60009054906101000a900473ffffffffffffffffffffffffffffffffffffffff1673ffffffffffffffffffffffffffffffffffffffff163373ffffffffffffffffffffffffffffffffffffffff1614613717576040517f08c379a000000000000000000000000000000000000000000000000000000000815260040161370e9061520a565b60405180910390fd5b600073ffffffffffffffffffffffffffffffffffffffff168173ffffffffffffffffffffffffffffffffffffffff16141561375157600080fd5b60d960008273ffffffffffffffffffffffffffffffffffffffff1673ffffffffffffffffffffffffffffffffffffffff16815260200190815260200160002060009054906101000a900460ff16156137a857600080fd5b600160d960008373ffffffffffffffffffffffffffffffffffffffff1673ffffffffffffffffffffffffffffffffffffffff16815260200190815260200160002060006101000a81548160ff02191690831515021790555050565b60008060009050600080600061381887613dff565b809350819450829550505050600083101580613835575060008210155b80613841575060008110155b156138535761385286848484613e9d565b5b808284896138619190615402565b61386b9190615402565b6138759190615402565b93508394505050505092915050565b60ce60009054906101000a900473ffffffffffffffffffffffffffffffffffffffff1673ffffffffffffffffffffffffffffffffffffffff163373ffffffffffffffffffffffffffffffffffffffff1614613914576040517f08c379a000000000000000000000000000000000000000000000000000000000815260040161390b9061520a565b60405180910390fd5b50565b60006139216142ca565b905061392c84614321565b6000835111806139395750815b1561394a5761394884846143da565b505b60006139787f4910fdfa16fed3260ed0e7147f7cc6da11a60208b5b9406d12a635614ffd914360001b6144be565b90508060000160009054906101000a900460ff16613ae15760018160000160006101000a81548160ff021916908315150217905550613a4485836040516024016139c29190615027565b6040516020818303038152906040527f3659cfe6000000000000000000000000000000000000000000000000000000007bffffffffffffffffffffffffffffffffffffffffffffffffffffffff19166020820180517bffffffffffffffffffffffffffffffffffffffffffffffffffffffff83818316178352505050506143da565b5060008160000160006101000a81548160ff021916908315150217905550613a6a6142ca565b73ffffffffffffffffffffffffffffffffffffffff168273ffffffffffffffffffffffffffffffffffffffff1614613ad7576040517f08c379a0000000000000000000000000000000000000000000000000000000008152600401613ace906150ea565b60405180910390fd5b613ae0856144c8565b5b5050505050565b613af0611aa4565b613b2f576040517f08c379a0000000000000000000000000000000000000000000000000000000008152600401613b26906150ca565b60405180910390fd5b6000609760006101000a81548160ff0219169083151502179055507f5db9ee0a495bf2e6ff9c91a7834c1ba4fdd244a5e8aa4e537bd38aeae4b073aa613b73614517565b604051613b809190615027565b60405180910390a1565b600060019054906101000a900460ff1680613bb0575060008054906101000a900460ff16155b613bef576040517f08c379a0000000000000000000000000000000000000000000000000000000008152600401613be69061514a565b60405180910390fd5b60008060019054906101000a900460ff161590508015613c3f576001600060016101000a81548160ff02191690831515021790555060016000806101000a81548160ff0219169083151502179055505b613c4761451f565b613c4f6145f8565b8015613c705760008060016101000a81548160ff0219169083151502179055505b50565b600060019054906101000a900460ff1680613c99575060008054906101000a900460ff16155b613cd8576040517f08c379a0000000000000000000000000000000000000000000000000000000008152600401613ccf9061514a565b60405180910390fd5b60008060019054906101000a900460ff161590508015613d28576001600060016101000a81548160ff02191690831515021790555060016000806101000a81548160ff0219169083151502179055505b613d306146ec565b613d386147c5565b8015613d595760008060016101000a81548160ff0219169083151502179055505b50565b613d64611aa4565b15613da4576040517f08c379a0000000000000000000000000000000000000000000000000000000008152600401613d9b9061512a565b60405180910390fd5b6001609760006101000a81548160ff0219169083151502179055507f62e78cea01bee320cd4e420270b5ea74000d11b0c9f74754ebdbfc544b05a258613de8614517565b604051613df59190615027565b60405180910390a1565b60008060008060008060cd5460cb541115613e8a57606460d35488613e2491906153a8565b613e2e9190615377565b9250606460d45488613e4091906153a8565b613e4a9190615377565b9150606460d55488613e5c91906153a8565b613e669190615377565b9050600060cd5460cb54613e7a9190615402565b905080841115613e88578093505b505b8282829550955095505050509193909250565b600073ffffffffffffffffffffffffffffffffffffffff168473ffffffffffffffffffffffffffffffffffffffff161415613ed757600080fd5b600060d660008673ffffffffffffffffffffffffffffffffffffffff1673ffffffffffffffffffffffffffffffffffffffff1681526020019081526020016000205490506000828486613f2a9190615321565b613f349190615321565b905080821015613f4357600080fd5b8460d660008873ffffffffffffffffffffffffffffffffffffffff1673ffffffffffffffffffffffffffffffffffffffff1681526020019081526020016000206000828254613f929190615402565b925050819055508360d660008873ffffffffffffffffffffffffffffffffffffffff1673ffffffffffffffffffffffffffffffffffffffff1681526020019081526020016000206000828254613fe89190615402565b925050819055508260d660008873ffffffffffffffffffffffffffffffffffffffff1673ffffffffffffffffffffffffffffffffffffffff168152602001908152602001600020600082825461403e9190615402565b925050819055508460cb60008282546140579190615402565b925050819055508360d6600060d060009054906101000a900473ffffffffffffffffffffffffffffffffffffffff1673ffffffffffffffffffffffffffffffffffffffff1673ffffffffffffffffffffffffffffffffffffffff16815260200190815260200160002060008282546140cf9190615321565b925050819055508260d6600060d160009054906101000a900473ffffffffffffffffffffffffffffffffffffffff1673ffffffffffffffffffffffffffffffffffffffff1673ffffffffffffffffffffffffffffffffffffffff16815260200190815260200160002060008282546141479190615321565b92505081905550600073ffffffffffffffffffffffffffffffffffffffff168673ffffffffffffffffffffffffffffffffffffffff167fbac40739b0d4ca32fa2d82fc91630465ba3eddd1598da6fca393b26fb63b9453876040516141ac919061522a565b60405180910390a360d060009054906101000a900473ffffffffffffffffffffffffffffffffffffffff1673ffffffffffffffffffffffffffffffffffffffff163373ffffffffffffffffffffffffffffffffffffffff167fddf252ad1be2c89b69c2b068fc378daa952ba7f163c4a11628f55a4df523b3ef86604051614233919061522a565b60405180910390a360d160009054906101000a900473ffffffffffffffffffffffffffffffffffffffff1673ffffffffffffffffffffffffffffffffffffffff163373ffffffffffffffffffffffffffffffffffffffff167fddf252ad1be2c89b69c2b068fc378daa952ba7f163c4a11628f55a4df523b3ef856040516142ba919061522a565b60405180910390a3505050505050565b60006142f87f360894a13ba1a3210667c828492db98dca3e2076cc3735a920a3ca505d382bbc60001b61489e565b60000160009054906101000a900473ffffffffffffffffffffffffffffffffffffffff16905090565b61432a816148a8565b614369576040517f08c379a00000000000000000000000000000000000000000000000000000000081526004016143609061518a565b60405180910390fd5b806143967f360894a13ba1a3210667c828492db98dca3e2076cc3735a920a3ca505d382bbc60001b61489e565b60000160006101000a81548173ffffffffffffffffffffffffffffffffffffffff021916908373ffffffffffffffffffffffffffffffffffffffff16021790555050565b60606143e5836148a8565b614424576040517f08c379a000000000000000000000000000000000000000000000000000000000815260040161441b906151aa565b60405180910390fd5b6000808473ffffffffffffffffffffffffffffffffffffffff168460405161444c9190615010565b600060405180830381855af49150503d8060008114614487576040519150601f19603f3d011682016040523d82523d6000602084013e61448c565b606091505b50915091506144b482826040518060600160405280602781526020016158e7602791396148bb565b9250505092915050565b6000819050919050565b6144d181614321565b8073ffffffffffffffffffffffffffffffffffffffff167fbc7cd75a20ee27fd9adebab32041f755214dbc6bffa90cc0225b39da2e5c2d3b60405160405180910390a250565b600033905090565b600060019054906101000a900460ff1680614545575060008054906101000a900460ff16155b614584576040517f08c379a000000000000000000000000000000000000000000000000000000000815260040161457b9061514a565b60405180910390fd5b60008060019054906101000a900460ff1615905080156145d4576001600060016101000a81548160ff02191690831515021790555060016000806101000a81548160ff0219169083151502179055505b80156145f55760008060016101000a81548160ff0219169083151502179055505b50565b600060019054906101000a900460ff168061461e575060008054906101000a900460ff16155b61465d576040517f08c379a00000000000000000000000000000000000000000000000000000000081526004016146549061514a565b60405180910390fd5b60008060019054906101000a900460ff1615905080156146ad576001600060016101000a81548160ff02191690831515021790555060016000806101000a81548160ff0219169083151502179055505b6000609760006101000a81548160ff02191690831515021790555080156146e95760008060016101000a81548160ff0219169083151502179055505b50565b600060019054906101000a900460ff1680614712575060008054906101000a900460ff16155b614751576040517f08c379a00000000000000000000000000000000000000000000000000000000081526004016147489061514a565b60405180910390fd5b60008060019054906101000a900460ff1615905080156147a1576001600060016101000a81548160ff02191690831515021790555060016000806101000a81548160ff0219169083151502179055505b80156147c25760008060016101000a81548160ff0219169083151502179055505b50565b600060019054906101000a900460ff16806147eb575060008054906101000a900460ff16155b61482a576040517f08c379a00000000000000000000000000000000000000000000000000000000081526004016148219061514a565b60405180910390fd5b60008060019054906101000a900460ff16159050801561487a576001600060016101000a81548160ff02191690831515021790555060016000806101000a81548160ff0219169083151502179055505b801561489b5760008060016101000a81548160ff0219169083151502179055505b50565b6000819050919050565b600080823b905060008111915050919050565b606083156148cb5782905061491b565b6000835111156148de5782518084602001fd5b816040517f08c379a000000000000000000000000000000000000000000000000000000000815260040161491291906150a8565b60405180910390fd5b9392505050565b82805461492e906154cd565b90600052602060002090601f0160209004810192826149505760008555614997565b82601f1061496957805160ff1916838001178555614997565b82800160010185558215614997579182015b8281111561499657825182559160200191906001019061497b565b5b5090506149a49190614a32565b5090565b828054828255906000526020600020908101928215614a21579160200282015b82811115614a205782518260006101000a81548173ffffffffffffffffffffffffffffffffffffffff021916908373ffffffffffffffffffffffffffffffffffffffff160217905550916020019190600101906149c8565b5b509050614a2e9190614a32565b5090565b5b80821115614a4b576000816000905550600101614a33565b5090565b6000614a62614a5d84615285565b615260565b905082815260208101848484011115614a7a57600080fd5b614a8584828561548b565b509392505050565b600081359050614a9c816158a1565b92915050565b600081519050614ab1816158b8565b92915050565b600082601f830112614ac857600080fd5b8135614ad8848260208601614a4f565b91505092915050565b600081359050614af0816158cf565b92915050565b600060208284031215614b0857600080fd5b6000614b1684828501614a8d565b91505092915050565b60008060408385031215614b3257600080fd5b6000614b4085828601614a8d565b9250506020614b5185828601614a8d565b9150509250929050565b60008060008060008060c08789031215614b7457600080fd5b6000614b8289828a01614a8d565b9650506020614b9389828a01614a8d565b9550506040614ba489828a01614a8d565b9450506060614bb589828a01614ae1565b9350506080614bc689828a01614ae1565b92505060a0614bd789828a01614ae1565b9150509295509295509295565b600080600060608486031215614bf957600080fd5b6000614c0786828701614a8d565b9350506020614c1886828701614a8d565b9250506040614c2986828701614ae1565b9150509250925092565b60008060408385031215614c4657600080fd5b6000614c5485828601614a8d565b925050602083013567ffffffffffffffff811115614c7157600080fd5b614c7d85828601614ab7565b9150509250929050565b60008060408385031215614c9a57600080fd5b6000614ca885828601614a8d565b9250506020614cb985828601614ae1565b9150509250929050565b600080600060608486031215614cd857600080fd5b6000614ce686828701614a8d565b9350506020614cf786828701614ae1565b9250506040614d0886828701614a8d565b9150509250925092565b600060208284031215614d2457600080fd5b6000614d3284828501614aa2565b91505092915050565b600060208284031215614d4d57600080fd5b6000614d5b84828501614ae1565b91505092915050565b6000614d708383614d7c565b60208301905092915050565b614d8581615436565b82525050565b614d9481615436565b82525050565b6000614da5826152c6565b614daf81856152f4565b9350614dba836152b6565b8060005b83811015614deb578151614dd28882614d64565b9750614ddd836152e7565b925050600181019050614dbe565b5085935050505092915050565b614e0181615448565b82525050565b6000614e12826152d1565b614e1c8185615305565b9350614e2c81856020860161549a565b80840191505092915050565b6000614e43826152dc565b614e4d8185615310565b9350614e5d81856020860161549a565b614e6681615635565b840191505092915050565b6000614e7e601483615310565b9150614e8982615646565b602082019050919050565b6000614ea1602f83615310565b9150614eac8261566f565b604082019050919050565b6000614ec4601283615310565b9150614ecf826156be565b602082019050919050565b6000614ee7601083615310565b9150614ef2826156e7565b602082019050919050565b6000614f0a602e83615310565b9150614f1582615710565b604082019050919050565b6000614f2d601183615310565b9150614f388261575f565b602082019050919050565b6000614f50602d83615310565b9150614f5b82615788565b604082019050919050565b6000614f73602683615310565b9150614f7e826157d7565b604082019050919050565b6000614f96601883615310565b9150614fa182615826565b602082019050919050565b6000614fb9600983615310565b9150614fc48261584f565b602082019050919050565b6000614fdc600983615310565b9150614fe782615878565b602082019050919050565b614ffb81615474565b82525050565b61500a8161547e565b82525050565b600061501c8284614e07565b915081905092915050565b600060208201905061503c6000830184614d8b565b92915050565b60006040820190506150576000830185614d8b565b6150646020830184614ff2565b9392505050565b600060208201905081810360008301526150858184614d9a565b905092915050565b60006020820190506150a26000830184614df8565b92915050565b600060208201905081810360008301526150c28184614e38565b905092915050565b600060208201905081810360008301526150e381614e71565b9050919050565b6000602082019050818103600083015261510381614e94565b9050919050565b6000602082019050818103600083015261512381614eb7565b9050919050565b6000602082019050818103600083015261514381614eda565b9050919050565b6000602082019050818103600083015261516381614efd565b9050919050565b6000602082019050818103600083015261518381614f20565b9050919050565b600060208201905081810360008301526151a381614f43565b9050919050565b600060208201905081810360008301526151c381614f66565b9050919050565b600060208201905081810360008301526151e381614f89565b9050919050565b6000602082019050818103600083015261520381614fac565b9050919050565b6000602082019050818103600083015261522381614fcf565b9050919050565b600060208201905061523f6000830184614ff2565b92915050565b600060208201905061525a6000830184615001565b92915050565b600061526a61527b565b905061527682826154ff565b919050565b6000604051905090565b600067ffffffffffffffff8211156152a05761529f615606565b5b6152a982615635565b9050602081019050919050565b6000819050602082019050919050565b600081519050919050565b600081519050919050565b600081519050919050565b6000602082019050919050565b600082825260208201905092915050565b600081905092915050565b600082825260208201905092915050565b600061532c82615474565b915061533783615474565b9250827fffffffffffffffffffffffffffffffffffffffffffffffffffffffffffffffff0382111561536c5761536b615579565b5b828201905092915050565b600061538282615474565b915061538d83615474565b92508261539d5761539c6155a8565b5b828204905092915050565b60006153b382615474565b91506153be83615474565b9250817fffffffffffffffffffffffffffffffffffffffffffffffffffffffffffffffff04831182151516156153f7576153f6615579565b5b828202905092915050565b600061540d82615474565b915061541883615474565b92508282101561542b5761542a615579565b5b828203905092915050565b600061544182615454565b9050919050565b60008115159050919050565b600073ffffffffffffffffffffffffffffffffffffffff82169050919050565b6000819050919050565b600060ff82169050919050565b82818337600083830152505050565b60005b838110156154b857808201518184015260208101905061549d565b838111156154c7576000848401525b50505050565b600060028204905060018216806154e557607f821691505b602082108114156154f9576154f86155d7565b5b50919050565b61550882615635565b810181811067ffffffffffffffff8211171561552757615526615606565b5b80604052505050565b600061553b82615474565b91507fffffffffffffffffffffffffffffffffffffffffffffffffffffffffffffffff82141561556e5761556d615579565b5b600182019050919050565b7f4e487b7100000000000000000000000000000000000000000000000000000000600052601160045260246000fd5b7f4e487b7100000000000000000000000000000000000000000000000000000000600052601260045260246000fd5b7f4e487b7100000000000000000000000000000000000000000000000000000000600052602260045260246000fd5b7f4e487b7100000000000000000000000000000000000000000000000000000000600052604160045260246000fd5b6000601f19601f8301169050919050565b7f5061757361626c653a206e6f7420706175736564000000000000000000000000600082015250565b7f45524331393637557067726164653a207570677261646520627265616b73206660008201527f7572746865722075706772616465730000000000000000000000000000000000602082015250565b7f73616d65206f776e657220616464726573730000000000000000000000000000600082015250565b7f5061757361626c653a2070617573656400000000000000000000000000000000600082015250565b7f496e697469616c697a61626c653a20636f6e747261637420697320616c72656160008201527f647920696e697469616c697a6564000000000000000000000000000000000000602082015250565b7f6e6f742076616c69642061646472657373000000000000000000000000000000600082015250565b7f455243313936373a206e657720696d706c656d656e746174696f6e206973206e60008201527f6f74206120636f6e747261637400000000000000000000000000000000000000602082015250565b7f416464726573733a2064656c65676174652063616c6c20746f206e6f6e2d636f60008201527f6e74726163740000000000000000000000000000000000000000000000000000602082015250565b7f73656e6420746f20746865207a65726f20616464726573730000000000000000600082015250565b7f6e6f742061646d696e0000000000000000000000000000000000000000000000600082015250565b7f6e6f74206f776e65720000000000000000000000000000000000000000000000600082015250565b6158aa81615436565b81146158b557600080fd5b50565b6158c181615448565b81146158cc57600080fd5b50565b6158d881615474565b81146158e357600080fd5b5056fe416464726573733a206c6f772d6c6576656c2064656c65676174652063616c6c206661696c6564a2646970667358221220ebdfc1da7369f5c519bf351fc42f174aac008a8dd208cbfbc79352592198fa4c64736f6c63430008030033",
  "immutableReferences": {},
  "source": "// SPDX-License-Identifier: UNLICENSED\r\n\r\npragma solidity ^0.8.0;\r\n\r\nimport \"@openzeppelin/contracts-upgradeable/proxy/utils/Initializable.sol\";\r\nimport \"@openzeppelin/contracts-upgradeable/proxy/utils/UUPSUpgradeable.sol\";\r\nimport \"@openzeppelin/contracts-upgradeable/security/PausableUpgradeable.sol\";\r\n\r\nabstract contract ERC20Interface {\r\n\r\n    function transfer(address to, uint tokens) public virtual returns (bool success);\r\n\r\n    function transferFrom(address from, address to, uint tokens) public virtual returns (bool success);\r\n\r\n}\r\n\r\ncontract PurseTokenUpgradableV2 is Initializable, UUPSUpgradeable, PausableUpgradeable {\r\n    string public name;\r\n    string public symbol;\r\n    uint256 public totalSupply;\r\n    uint8 public decimals;\r\n    uint256 private minimumSupply;\r\n    address public owner;\r\n    address[] public admins;\r\n    address public liqPool;\r\n    address public disPool;\r\n    uint256 public mintIndex;\r\n    uint256 public burnPercent;\r\n    uint256 public liqPercent;\r\n    uint256 public disPercent;\r\n\r\n    event Transfer(address indexed _from, address indexed _to, uint256 _value);\r\n    event Burn(address indexed _from, address indexed _to, uint256 _value);\r\n    event Mint(address indexed _from, address indexed _to, uint256 _value);\r\n    event Approval(address indexed _owner, address indexed _spender, uint256 _value);\r\n    event OwnershipRenounced(address indexed previousOwner);\r\n    event OwnershipTransferred(address indexed previousOwner, address indexed newOwner);\r\n\r\n    modifier onlyOwner() {\r\n        require(msg.sender == owner, \"not owner\");\r\n        _;\r\n    }\r\n\r\n    modifier onlyAdmin() {\r\n        require(isAdmin[msg.sender], \"not admin\");\r\n        _;\r\n    }\r\n\r\n    mapping(address => uint256) public balanceOf;\r\n    mapping(address => mapping(address => uint256)) public allowance;\r\n    mapping(address => bool) public isAdmin;\r\n    mapping(address => bool) public isWhitelistedTo;\r\n    mapping(address => bool) public isWhitelistedFrom;\r\n\r\n    function transferOwnership(address _owner) public onlyOwner{\r\n        require(_owner != address(0), \"not valid address\");\r\n        require(_owner != owner, \"same owner address\");\r\n        emit OwnershipTransferred(owner, _owner);\r\n        owner = _owner;\r\n    }\r\n      \r\n    function renounceOwnership() public onlyOwner {\r\n        emit OwnershipRenounced(owner);\r\n        owner = address(0);\r\n    }\r\n\r\n    function setWhitelistedTo(address newWhitelist) external onlyOwner {\r\n        require(newWhitelist != address(0));\r\n        require(!isWhitelistedTo[newWhitelist]);\r\n\r\n        isWhitelistedTo[newWhitelist] = true;\r\n    }\r\n\r\n    function removeWhitelistedTo(address newWhitelist) external onlyOwner {\r\n        require(newWhitelist != address(0));\r\n        require(isWhitelistedTo[newWhitelist]);\r\n\r\n        isWhitelistedTo[newWhitelist] = false;\r\n    }\r\n\r\n    function setWhitelistedFrom(address newWhitelist) external onlyOwner {\r\n        require(newWhitelist != address(0));\r\n        require(!isWhitelistedFrom[newWhitelist]);\r\n\r\n        isWhitelistedFrom[newWhitelist] = true;\r\n    }\r\n\r\n    function removeWhitelistedFrom(address newWhitelist) external onlyOwner {\r\n        require(newWhitelist != address(0));\r\n        require(isWhitelistedFrom[newWhitelist]);\r\n\r\n        isWhitelistedFrom[newWhitelist] = false;\r\n    }\r\n\r\n    function transfer(address _to, uint256 _value)\r\n        public\r\n        whenNotPaused \r\n        returns (bool success)\r\n    {\r\n        require(_value >= 0);\r\n        require(balanceOf[msg.sender] >= _value);\r\n        if (isWhitelistedTo[_to] || isWhitelistedFrom[msg.sender]) {\r\n            balanceOf[msg.sender] -= _value;\r\n            balanceOf[_to] += _value;\r\n\r\n            emit Transfer(msg.sender, _to, _value);\r\n            return true;\r\n        } else {\r\n            uint256 transferValue = _partialBurn(_value, msg.sender);\r\n            balanceOf[msg.sender] -= transferValue;\r\n            balanceOf[_to] += transferValue;\r\n\r\n            emit Transfer(msg.sender, _to, transferValue);\r\n            return true;\r\n        }\r\n    }\r\n\r\n    function approve(address _spender, uint256 _value)\r\n        public\r\n        whenNotPaused \r\n        returns (bool success)\r\n    {\r\n        allowance[msg.sender][_spender] = _value;\r\n        emit Approval(msg.sender, _spender, _value);\r\n        return true;\r\n    }\r\n\r\n    function transferFrom(\r\n        address _from,\r\n        address _to,\r\n        uint256 _value\r\n    ) public whenNotPaused returns (bool success) {\r\n        require(_value >= 0);\r\n        require(_value <= balanceOf[_from]);\r\n        require(_value <= allowance[_from][msg.sender]);\r\n        if (isWhitelistedTo[_to] || isWhitelistedFrom[msg.sender]) {\r\n            allowance[_from][msg.sender] -= _value;\r\n            balanceOf[_from] -= _value;\r\n            balanceOf[_to] += _value;\r\n            emit Transfer(_from, _to, _value);\r\n            return true;\r\n        } else {\r\n            allowance[_from][msg.sender] -= _value;\r\n            uint256 transferValue = _partialBurn(_value, _from);\r\n            balanceOf[_from] -= transferValue;\r\n            balanceOf[_to] += transferValue;\r\n            emit Transfer(_from, _to, transferValue);\r\n            return true;\r\n        }\r\n    }\r\n\r\n    function mint(address _account, uint256 _amount) public whenNotPaused onlyAdmin {\r\n        require(_account != address(0));\r\n\r\n        balanceOf[_account] += _amount;\r\n        totalSupply += _amount;\r\n        emit Mint(address(0), _account, _amount);\r\n    }\r\n\r\n\r\n    function burn(address _account, uint256 _amount) public whenNotPaused onlyAdmin {\r\n        require(_account != address(0));\r\n        uint256 accountBalance = balanceOf[_account];\r\n        require(accountBalance >= _amount);\r\n        balanceOf[_account] -= _amount;\r\n        totalSupply -= _amount;\r\n        emit Burn(_account, address(0), _amount);\r\n    }\r\n\r\n    function _partialBurn(uint256 _amount, address _from)\r\n        internal\r\n        returns (uint256)\r\n    {\r\n        uint256 transferAmount = 0;\r\n        uint256 burnAmount;\r\n        uint256 liqAmount;\r\n        uint256 disAmount;\r\n        (\r\n            burnAmount,\r\n            liqAmount,\r\n            disAmount\r\n        ) = _calculateDeductAmount(_amount);\r\n\r\n        if (burnAmount >= 0 || liqAmount >= 0 || disAmount >= 0) {\r\n            burnPrivate(_from, burnAmount, liqAmount, disAmount);\r\n        }\r\n        transferAmount = _amount - burnAmount - liqAmount - disAmount;\r\n\r\n        return transferAmount;\r\n    }\r\n\r\n    function _calculateDeductAmount(uint256 _amount)\r\n        internal\r\n        view\r\n        returns (\r\n            uint256,\r\n            uint256,\r\n            uint256\r\n        )\r\n    {\r\n        uint256 burnAmount;\r\n        uint256 liqAmount;\r\n        uint256 disAmount;\r\n\r\n        if (totalSupply > minimumSupply) {\r\n            burnAmount = (_amount * burnPercent) / 100;\r\n            liqAmount = (_amount * liqPercent) / 100;\r\n            disAmount = (_amount * disPercent) / 100;\r\n            uint256 availableBurn = totalSupply - minimumSupply;\r\n            if (burnAmount > availableBurn) {\r\n                burnAmount = availableBurn;\r\n            }\r\n        }\r\n        return (burnAmount, liqAmount, disAmount);\r\n    }\r\n\r\n    function burnPrivate(\r\n        address _account,\r\n        uint256 _burnAmount,\r\n        uint256 _liqAmount,\r\n        uint256 _disAmount\r\n    ) private {\r\n        require(_account != address(0));\r\n        uint256 accountBalance = balanceOf[_account];\r\n        uint256 deductAmount = _burnAmount + _liqAmount + _disAmount;\r\n        require(accountBalance >= deductAmount);\r\n        balanceOf[_account] -= _burnAmount;\r\n        balanceOf[_account] -= _liqAmount;\r\n        balanceOf[_account] -= _disAmount;\r\n\r\n        totalSupply -= _burnAmount;\r\n        balanceOf[liqPool] += _liqAmount;\r\n        balanceOf[disPool] += _disAmount;\r\n        emit Burn(_account, address(0), _burnAmount);\r\n        emit Transfer(msg.sender, liqPool, _liqAmount);\r\n        emit Transfer(msg.sender, disPool, _disAmount);\r\n    }\r\n\r\n\r\n    function updateLPoolAdd(address _newLPool) public onlyOwner {\r\n        require(_newLPool != address(0));\r\n        require(_newLPool != liqPool);\r\n\r\n        liqPool = _newLPool;\r\n    }\r\n\r\n    function updateRPoolAdd(address _newRPool) public onlyOwner {\r\n        require(_newRPool != address(0));\r\n        require(_newRPool != disPool);\r\n\r\n        disPool = _newRPool;\r\n    }\r\n\r\n    function updateBurnPercent(uint256 _newBurnPercent) public onlyOwner {\r\n        require(_newBurnPercent >= 0 && _newBurnPercent <= 100);\r\n        require(_newBurnPercent != burnPercent);\r\n\r\n        burnPercent = _newBurnPercent;\r\n    }\r\n\r\n    function updateLiqPercent(uint256 _newLiqPercent) public onlyOwner {\r\n        require(_newLiqPercent >= 0 && _newLiqPercent <= 100);\r\n        require(_newLiqPercent != liqPercent);\r\n\r\n        liqPercent = _newLiqPercent;\r\n    }\r\n\r\n    function updateDisPercent(uint256 _newDisPercent) public onlyOwner {\r\n        require(_newDisPercent >= 0 && _newDisPercent <= 100);\r\n        require(_newDisPercent != disPercent);\r\n\r\n        disPercent = _newDisPercent;\r\n    }\r\n\r\n    function addAdmin(address newAdmin) public onlyOwner{\r\n        require(newAdmin != address(0));\r\n        require(!isAdmin[newAdmin]);\r\n\r\n        isAdmin[newAdmin] = true;\r\n        admins.push(newAdmin);\r\n    }\r\n\r\n    function removeAdmin(uint index) public onlyOwner returns (address[] memory){\r\n        address removeOwner = admins[index];\r\n        require(index < admins.length);\r\n        require(removeOwner != address(0));\r\n        require(isAdmin[removeOwner]);\r\n        \r\n        for (uint i = index; i<admins.length-1; i++){\r\n            admins[i] = admins[i+1];\r\n        }\r\n        admins.pop();\r\n\r\n        isAdmin[removeOwner] = false;\r\n        return admins;\r\n    }\r\n\r\n    function getAdmins() public view returns (address[] memory) {\r\n        return admins;\r\n    }\r\n\r\n    function getOwner() public view returns (address) {\r\n        return owner;\r\n    }\r\n    \r\n    function returnAnyToken(address token, uint256 amount, address _to) public onlyOwner{\r\n        require(_to != address(0), \"send to the zero address\");\r\n        ERC20Interface(token).transfer(_to, amount);\r\n    } \r\n\r\n    function pause() public whenNotPaused onlyOwner {\r\n        _pause();\r\n    }\r\n\r\n    function unpause() public whenPaused onlyOwner {\r\n        _unpause();\r\n    }\r\n\r\n    function _authorizeUpgrade(address) internal override onlyOwner {}\r\n\r\n    function initialize(\r\n        address _to,\r\n        address _lPool,\r\n        address _rPool,\r\n        uint256 _burnPercent,\r\n        uint256 _liqPercent,\r\n        uint256 _disPercent\r\n    ) public initializer {\r\n        require(_lPool != address(0));\r\n        require(_rPool != address(0));\r\n        require(_burnPercent >= 0);\r\n        require(_liqPercent >= 0);\r\n        require(_disPercent >= 0);\r\n\r\n        name = \"PURSE Token\";\r\n        symbol = \"PR\";\r\n        totalSupply = 64000000000 * (10**18); // 64 billion tokens\r\n        decimals = 18;\r\n        minimumSupply = 20000 * (10**18);\r\n\r\n        liqPool = _lPool;\r\n        disPool = _rPool;\r\n        burnPercent = _burnPercent;\r\n        liqPercent = _liqPercent;\r\n        disPercent = _disPercent;\r\n        owner = msg.sender;\r\n        admins = [msg.sender];\r\n\r\n        balanceOf[_to] = totalSupply;\r\n        emit Mint(address(0), _to, totalSupply);\r\n\r\n        __Pausable_init();\r\n        __UUPSUpgradeable_init();\r\n    }\r\n}",
  "sourcePath": "C:/Users/cheek/Desktop/Developer doc/Visual Studio Code/PundiX/PurseRewardTokenFinal/src/contracts/PurseTokenUpgradableV2.sol",
  "compiler": {
    "name": "solc",
    "version": "0.8.3+commit.8d00100c.Emscripten.clang"
  },
  "schemaVersion": "3.2.3",
  "updatedAt": "2021-09-08T16:18:27.176Z",
  "networkType": "ethereum",
  "devdoc": {
    "kind": "dev",
    "methods": {
      "paused()": {
        "details": "Returns true if the contract is paused, and false otherwise."
      },
      "upgradeTo(address)": {
        "details": "Upgrade the implementation of the proxy to `newImplementation`. Calls {_authorizeUpgrade}. Emits an {Upgraded} event."
      },
      "upgradeToAndCall(address,bytes)": {
        "details": "Upgrade the implementation of the proxy to `newImplementation`, and subsequently execute the function call encoded in `data`. Calls {_authorizeUpgrade}. Emits an {Upgraded} event."
      }
    },
    "version": 1
  },
  "userdoc": {
    "kind": "user",
    "methods": {},
    "version": 1
  }
}