{
  "contractName": "PurseTokenUpgradable",
  "abi": [
    {
      "anonymous": false,
      "inputs": [
        {
          "indexed": false,
          "internalType": "address",
          "name": "previousAdmin",
          "type": "address"
        },
        {
          "indexed": false,
          "internalType": "address",
          "name": "newAdmin",
          "type": "address"
        }
      ],
      "name": "AdminChanged",
      "type": "event"
    },
    {
      "anonymous": false,
      "inputs": [
        {
          "indexed": true,
          "internalType": "address",
          "name": "_owner",
          "type": "address"
        },
        {
          "indexed": true,
          "internalType": "address",
          "name": "_spender",
          "type": "address"
        },
        {
          "indexed": false,
          "internalType": "uint256",
          "name": "_value",
          "type": "uint256"
        }
      ],
      "name": "Approval",
      "type": "event"
    },
    {
      "anonymous": false,
      "inputs": [
        {
          "indexed": true,
          "internalType": "address",
          "name": "beacon",
          "type": "address"
        }
      ],
      "name": "BeaconUpgraded",
      "type": "event"
    },
    {
      "anonymous": false,
      "inputs": [
        {
          "indexed": true,
          "internalType": "address",
          "name": "_from",
          "type": "address"
        },
        {
          "indexed": false,
          "internalType": "uint256",
          "name": "_value",
          "type": "uint256"
        }
      ],
      "name": "Burn",
      "type": "event"
    },
    {
      "anonymous": false,
      "inputs": [
        {
          "indexed": true,
          "internalType": "address",
          "name": "_from",
          "type": "address"
        },
        {
          "indexed": true,
          "internalType": "address",
          "name": "_to",
          "type": "address"
        },
        {
          "indexed": false,
          "internalType": "uint256",
          "name": "_value",
          "type": "uint256"
        }
      ],
      "name": "Mint",
      "type": "event"
    },
    {
      "anonymous": false,
      "inputs": [
        {
          "indexed": true,
          "internalType": "address",
          "name": "previousOwner",
          "type": "address"
        },
        {
          "indexed": true,
          "internalType": "address",
          "name": "newOwner",
          "type": "address"
        }
      ],
      "name": "OwnershipTransferred",
      "type": "event"
    },
    {
      "anonymous": false,
      "inputs": [
        {
          "indexed": false,
          "internalType": "address",
          "name": "account",
          "type": "address"
        }
      ],
      "name": "Paused",
      "type": "event"
    },
    {
      "anonymous": false,
      "inputs": [
        {
          "indexed": true,
          "internalType": "address",
          "name": "_from",
          "type": "address"
        },
        {
          "indexed": true,
          "internalType": "address",
          "name": "_to",
          "type": "address"
        },
        {
          "indexed": false,
          "internalType": "uint256",
          "name": "_value",
          "type": "uint256"
        }
      ],
      "name": "Transfer",
      "type": "event"
    },
    {
      "anonymous": false,
      "inputs": [
        {
          "indexed": false,
          "internalType": "address",
          "name": "account",
          "type": "address"
        }
      ],
      "name": "Unpaused",
      "type": "event"
    },
    {
      "anonymous": false,
      "inputs": [
        {
          "indexed": true,
          "internalType": "address",
          "name": "implementation",
          "type": "address"
        }
      ],
      "name": "Upgraded",
      "type": "event"
    },
    {
      "inputs": [],
      "name": "_averageInterval",
      "outputs": [
        {
          "internalType": "uint256",
          "name": "",
          "type": "uint256"
        }
      ],
      "stateMutability": "view",
      "type": "function",
      "constant": true
    },
    {
      "inputs": [],
      "name": "_getRewardEndTime",
      "outputs": [
        {
          "internalType": "uint256",
          "name": "",
          "type": "uint256"
        }
      ],
      "stateMutability": "view",
      "type": "function",
      "constant": true
    },
    {
      "inputs": [],
      "name": "_getRewardStartTime",
      "outputs": [
        {
          "internalType": "uint256",
          "name": "",
          "type": "uint256"
        }
      ],
      "stateMutability": "view",
      "type": "function",
      "constant": true
    },
    {
      "inputs": [],
      "name": "_lastRewardStartTime",
      "outputs": [
        {
          "internalType": "uint256",
          "name": "",
          "type": "uint256"
        }
      ],
      "stateMutability": "view",
      "type": "function",
      "constant": true
    },
    {
      "inputs": [],
      "name": "_monthlyDistributePr",
      "outputs": [
        {
          "internalType": "uint256",
          "name": "",
          "type": "uint256"
        }
      ],
      "stateMutability": "view",
      "type": "function",
      "constant": true
    },
    {
      "inputs": [],
      "name": "_numOfDaysPerMth",
      "outputs": [
        {
          "internalType": "uint256",
          "name": "",
          "type": "uint256"
        }
      ],
      "stateMutability": "view",
      "type": "function",
      "constant": true
    },
    {
      "inputs": [],
      "name": "_percentageDistribute",
      "outputs": [
        {
          "internalType": "uint256",
          "name": "",
          "type": "uint256"
        }
      ],
      "stateMutability": "view",
      "type": "function",
      "constant": true
    },
    {
      "inputs": [],
      "name": "_totalSupply",
      "outputs": [
        {
          "internalType": "uint256",
          "name": "",
          "type": "uint256"
        }
      ],
      "stateMutability": "view",
      "type": "function",
      "constant": true
    },
    {
      "inputs": [
        {
          "internalType": "address",
          "name": "",
          "type": "address"
        }
      ],
      "name": "accAmount",
      "outputs": [
        {
          "internalType": "uint256",
          "name": "amount",
          "type": "uint256"
        },
        {
          "internalType": "uint256",
          "name": "accReward",
          "type": "uint256"
        },
        {
          "internalType": "uint256",
          "name": "lastUpdateTime",
          "type": "uint256"
        }
      ],
      "stateMutability": "view",
      "type": "function",
      "constant": true
    },
    {
      "inputs": [
        {
          "internalType": "uint256",
          "name": "",
          "type": "uint256"
        }
      ],
      "name": "admins",
      "outputs": [
        {
          "internalType": "address",
          "name": "",
          "type": "address"
        }
      ],
      "stateMutability": "view",
      "type": "function",
      "constant": true
    },
    {
      "inputs": [
        {
          "internalType": "address",
          "name": "",
          "type": "address"
        },
        {
          "internalType": "address",
          "name": "",
          "type": "address"
        }
      ],
      "name": "allowance",
      "outputs": [
        {
          "internalType": "uint256",
          "name": "",
          "type": "uint256"
        }
      ],
      "stateMutability": "view",
      "type": "function",
      "constant": true
    },
    {
      "inputs": [
        {
          "internalType": "address",
          "name": "",
          "type": "address"
        }
      ],
      "name": "balanceOf",
      "outputs": [
        {
          "internalType": "uint256",
          "name": "",
          "type": "uint256"
        }
      ],
      "stateMutability": "view",
      "type": "function",
      "constant": true
    },
    {
      "inputs": [],
      "name": "burnPercent",
      "outputs": [
        {
          "internalType": "uint256",
          "name": "",
          "type": "uint256"
        }
      ],
      "stateMutability": "view",
      "type": "function",
      "constant": true
    },
    {
      "inputs": [],
      "name": "decimals",
      "outputs": [
        {
          "internalType": "uint8",
          "name": "",
          "type": "uint8"
        }
      ],
      "stateMutability": "view",
      "type": "function",
      "constant": true
    },
    {
      "inputs": [],
      "name": "disPercent",
      "outputs": [
        {
          "internalType": "uint256",
          "name": "",
          "type": "uint256"
        }
      ],
      "stateMutability": "view",
      "type": "function",
      "constant": true
    },
    {
      "inputs": [],
      "name": "disPool",
      "outputs": [
        {
          "internalType": "address",
          "name": "",
          "type": "address"
        }
      ],
      "stateMutability": "view",
      "type": "function",
      "constant": true
    },
    {
      "inputs": [
        {
          "internalType": "address",
          "name": "",
          "type": "address"
        }
      ],
      "name": "isAdmin",
      "outputs": [
        {
          "internalType": "bool",
          "name": "",
          "type": "bool"
        }
      ],
      "stateMutability": "view",
      "type": "function",
      "constant": true
    },
    {
      "inputs": [
        {
          "internalType": "address",
          "name": "",
          "type": "address"
        }
      ],
      "name": "isWhitelistedFrom",
      "outputs": [
        {
          "internalType": "bool",
          "name": "",
          "type": "bool"
        }
      ],
      "stateMutability": "view",
      "type": "function",
      "constant": true
    },
    {
      "inputs": [
        {
          "internalType": "address",
          "name": "",
          "type": "address"
        }
      ],
      "name": "isWhitelistedTo",
      "outputs": [
        {
          "internalType": "bool",
          "name": "",
          "type": "bool"
        }
      ],
      "stateMutability": "view",
      "type": "function",
      "constant": true
    },
    {
      "inputs": [],
      "name": "liqPercent",
      "outputs": [
        {
          "internalType": "uint256",
          "name": "",
          "type": "uint256"
        }
      ],
      "stateMutability": "view",
      "type": "function",
      "constant": true
    },
    {
      "inputs": [],
      "name": "liqPool",
      "outputs": [
        {
          "internalType": "address",
          "name": "",
          "type": "address"
        }
      ],
      "stateMutability": "view",
      "type": "function",
      "constant": true
    },
    {
      "inputs": [],
      "name": "name",
      "outputs": [
        {
          "internalType": "string",
          "name": "",
          "type": "string"
        }
      ],
      "stateMutability": "view",
      "type": "function",
      "constant": true
    },
    {
      "inputs": [],
      "name": "owner",
      "outputs": [
        {
          "internalType": "address",
          "name": "",
          "type": "address"
        }
      ],
      "stateMutability": "view",
      "type": "function",
      "constant": true
    },
    {
      "inputs": [],
      "name": "paused",
      "outputs": [
        {
          "internalType": "bool",
          "name": "",
          "type": "bool"
        }
      ],
      "stateMutability": "view",
      "type": "function",
      "constant": true
    },
    {
      "inputs": [],
      "name": "renounceOwnership",
      "outputs": [],
      "stateMutability": "nonpayable",
      "type": "function"
    },
    {
      "inputs": [],
      "name": "symbol",
      "outputs": [
        {
          "internalType": "string",
          "name": "",
          "type": "string"
        }
      ],
      "stateMutability": "view",
      "type": "function",
      "constant": true
    },
    {
      "inputs": [],
      "name": "totalSupply",
      "outputs": [
        {
          "internalType": "uint256",
          "name": "",
          "type": "uint256"
        }
      ],
      "stateMutability": "view",
      "type": "function",
      "constant": true
    },
    {
      "inputs": [
        {
          "internalType": "address",
          "name": "newOwner",
          "type": "address"
        }
      ],
      "name": "transferOwnership",
      "outputs": [],
      "stateMutability": "nonpayable",
      "type": "function"
    },
    {
      "inputs": [
        {
          "internalType": "address",
          "name": "newImplementation",
          "type": "address"
        }
      ],
      "name": "upgradeTo",
      "outputs": [],
      "stateMutability": "nonpayable",
      "type": "function"
    },
    {
      "inputs": [
        {
          "internalType": "address",
          "name": "newImplementation",
          "type": "address"
        },
        {
          "internalType": "bytes",
          "name": "data",
          "type": "bytes"
        }
      ],
      "name": "upgradeToAndCall",
      "outputs": [],
      "stateMutability": "payable",
      "type": "function",
      "payable": true
    },
    {
      "inputs": [
        {
          "internalType": "address",
          "name": "_to",
          "type": "address"
        },
        {
          "internalType": "uint256",
          "name": "_value",
          "type": "uint256"
        }
      ],
      "name": "transfer",
      "outputs": [
        {
          "internalType": "bool",
          "name": "success",
          "type": "bool"
        }
      ],
      "stateMutability": "nonpayable",
      "type": "function"
    },
    {
      "inputs": [
        {
          "internalType": "address",
          "name": "_spender",
          "type": "address"
        },
        {
          "internalType": "uint256",
          "name": "_value",
          "type": "uint256"
        }
      ],
      "name": "approve",
      "outputs": [
        {
          "internalType": "bool",
          "name": "success",
          "type": "bool"
        }
      ],
      "stateMutability": "nonpayable",
      "type": "function"
    },
    {
      "inputs": [
        {
          "internalType": "address",
          "name": "_from",
          "type": "address"
        },
        {
          "internalType": "address",
          "name": "_to",
          "type": "address"
        },
        {
          "internalType": "uint256",
          "name": "_value",
          "type": "uint256"
        }
      ],
      "name": "transferFrom",
      "outputs": [
        {
          "internalType": "bool",
          "name": "success",
          "type": "bool"
        }
      ],
      "stateMutability": "nonpayable",
      "type": "function"
    },
    {
      "inputs": [
        {
          "internalType": "address",
          "name": "_account",
          "type": "address"
        },
        {
          "internalType": "uint256",
          "name": "_amount",
          "type": "uint256"
        }
      ],
      "name": "mint",
      "outputs": [],
      "stateMutability": "nonpayable",
      "type": "function"
    },
    {
      "inputs": [
        {
          "internalType": "uint256",
          "name": "_amount",
          "type": "uint256"
        }
      ],
      "name": "burn",
      "outputs": [],
      "stateMutability": "nonpayable",
      "type": "function"
    },
    {
      "inputs": [],
      "name": "claimDistributionPurse",
      "outputs": [
        {
          "internalType": "bool",
          "name": "success",
          "type": "bool"
        }
      ],
      "stateMutability": "nonpayable",
      "type": "function"
    },
    {
      "inputs": [
        {
          "internalType": "uint256",
          "name": "_rewardStartTime",
          "type": "uint256"
        },
        {
          "internalType": "uint256",
          "name": "_rewardEndTime",
          "type": "uint256"
        },
        {
          "internalType": "uint256",
          "name": "_monthlyDisPr",
          "type": "uint256"
        },
        {
          "internalType": "uint256",
          "name": "_numOfDays",
          "type": "uint256"
        },
        {
          "internalType": "uint256",
          "name": "_percentage",
          "type": "uint256"
        }
      ],
      "name": "activateClaimMonthly",
      "outputs": [],
      "stateMutability": "nonpayable",
      "type": "function"
    },
    {
      "inputs": [
        {
          "internalType": "address",
          "name": "_newLPool",
          "type": "address"
        }
      ],
      "name": "updateLPoolAdd",
      "outputs": [],
      "stateMutability": "nonpayable",
      "type": "function"
    },
    {
      "inputs": [
        {
          "internalType": "address",
          "name": "_newDPool",
          "type": "address"
        }
      ],
      "name": "updateDPoolAdd",
      "outputs": [],
      "stateMutability": "nonpayable",
      "type": "function"
    },
    {
      "inputs": [
        {
          "internalType": "uint256",
          "name": "_newDisPercent",
          "type": "uint256"
        },
        {
          "internalType": "uint256",
          "name": "_newLiqPercent",
          "type": "uint256"
        },
        {
          "internalType": "uint256",
          "name": "_newBurnPercent",
          "type": "uint256"
        }
      ],
      "name": "updatePercent",
      "outputs": [],
      "stateMutability": "nonpayable",
      "type": "function"
    },
    {
      "inputs": [
        {
          "internalType": "address",
          "name": "newAdmin",
          "type": "address"
        }
      ],
      "name": "addAdmin",
      "outputs": [],
      "stateMutability": "nonpayable",
      "type": "function"
    },
    {
      "inputs": [
        {
          "internalType": "uint256",
          "name": "index",
          "type": "uint256"
        }
      ],
      "name": "removeAdmin",
      "outputs": [
        {
          "internalType": "address[]",
          "name": "",
          "type": "address[]"
        }
      ],
      "stateMutability": "nonpayable",
      "type": "function"
    },
    {
      "inputs": [
        {
          "internalType": "address",
          "name": "token",
          "type": "address"
        },
        {
          "internalType": "uint256",
          "name": "amount",
          "type": "uint256"
        },
        {
          "internalType": "address",
          "name": "_to",
          "type": "address"
        }
      ],
      "name": "transferERCToken",
      "outputs": [],
      "stateMutability": "nonpayable",
      "type": "function"
    },
    {
      "inputs": [],
      "name": "pause",
      "outputs": [],
      "stateMutability": "nonpayable",
      "type": "function"
    },
    {
      "inputs": [],
      "name": "unpause",
      "outputs": [],
      "stateMutability": "nonpayable",
      "type": "function"
    },
    {
      "inputs": [
        {
          "internalType": "address",
          "name": "newWhitelist",
          "type": "address"
        }
      ],
      "name": "setWhitelistedTo",
      "outputs": [],
      "stateMutability": "nonpayable",
      "type": "function"
    },
    {
      "inputs": [
        {
          "internalType": "address",
          "name": "newWhitelist",
          "type": "address"
        }
      ],
      "name": "removeWhitelistedTo",
      "outputs": [],
      "stateMutability": "nonpayable",
      "type": "function"
    },
    {
      "inputs": [
        {
          "internalType": "address",
          "name": "newWhitelist",
          "type": "address"
        }
      ],
      "name": "setWhitelistedFrom",
      "outputs": [],
      "stateMutability": "nonpayable",
      "type": "function"
    },
    {
      "inputs": [
        {
          "internalType": "address",
          "name": "newWhitelist",
          "type": "address"
        }
      ],
      "name": "removeWhitelistedFrom",
      "outputs": [],
      "stateMutability": "nonpayable",
      "type": "function"
    },
    {
      "inputs": [
        {
          "internalType": "address",
          "name": "_to",
          "type": "address"
        },
        {
          "internalType": "address",
          "name": "_lPool",
          "type": "address"
        },
        {
          "internalType": "uint256",
          "name": "_burnPercent",
          "type": "uint256"
        },
        {
          "internalType": "uint256",
          "name": "_liqPercent",
          "type": "uint256"
        },
        {
          "internalType": "uint256",
          "name": "_disPercent",
          "type": "uint256"
        }
      ],
      "name": "initialize",
      "outputs": [],
      "stateMutability": "nonpayable",
      "type": "function"
    }
  ],
  "bytecode": "0x608060405234801561001057600080fd5b5061335c806100206000396000f3fe6080604052600436106102c95760003560e01c80635c975abb11610175578063b7c74bd3116100dc578063d13f90b411610095578063dd62ed3e1161006f578063dd62ed3e146108a6578063e2657da1146108df578063f2fde38b146108ff578063f75672441461091f57600080fd5b8063d13f90b41461084f578063d55292041461086f578063d5b8ddf81461088657600080fd5b8063b7c74bd314610758578063bab38440146107b0578063bc8d571d146107d0578063c43c082f146107e7578063c6ef924614610807578063ca04d2d81461081e57600080fd5b80638456cb591161012e5780638456cb59146106ac5780638da5cb5b146106c157806395d89b41146106df57806395e96ff1146106f4578063a9059cbb1461070b578063ad7bbc291461072b57600080fd5b80635c975abb146105f9578063704802751461061157806370a0823114610631578063715018a61461065f578063740b91f4146106745780637888f7b21461069557600080fd5b8063347d34c61161023457806340c10f19116101ed5780634d28b4ba116101c75780634d28b4ba1461057e5780634f1ef2861461059e5780635422e495146105b15780635b014029146105c857600080fd5b806340c10f191461051e57806342966c681461053e578063434f92371461055e57600080fd5b8063347d34c61461047957806335e8b82e146104905780633659cfe6146104b25780633838d4e3146104d25780633eaaf86b146104f25780633f4ba83a1461050957600080fd5b806318160ddd1161028657806318160ddd146103ae57806320b1e78a146103c457806323b872dd146103db57806324d7806c146103fb57806327ba6e111461042c578063313ce5671461044d57600080fd5b806303807ee5146102ce57806306fdde03146102f8578063095ea7b31461031a5780630f4307e21461034a57806311a6c16c1461036157806314bfd6d014610376575b600080fd5b3480156102da57600080fd5b506102e56101035481565b6040519081526020015b60405180910390f35b34801561030457600080fd5b5061030d61093f565b6040516102ef91906130b5565b34801561032657600080fd5b5061033a610335366004612f44565b6109cd565b60405190151581526020016102ef565b34801561035657600080fd5b506102e561010a5481565b34801561036d57600080fd5b5061033a610a67565b34801561038257600080fd5b50610396610391366004612fcc565b610b70565b6040516001600160a01b0390911681526020016102ef565b3480156103ba57600080fd5b506102e560fd5481565b3480156103d057600080fd5b506102e561010b5481565b3480156103e757600080fd5b5061033a6103f6366004612df9565b610b9b565b34801561040757600080fd5b5061033a610416366004612dab565b6101106020526000908152604090205460ff1681565b34801561043857600080fd5b5061010254610396906001600160a01b031681565b34801561045957600080fd5b5060fe546104679060ff1681565b60405160ff90911681526020016102ef565b34801561048557600080fd5b506102e56101065481565b34801561049c57600080fd5b506104b06104ab366004612dab565b610e3a565b005b3480156104be57600080fd5b506104b06104cd366004612dab565b610ea3565b3480156104de57600080fd5b506104b06104ed366004612dab565b610eca565b3480156104fe57600080fd5b506102e561010d5481565b34801561051557600080fd5b506104b0610f40565b34801561052a57600080fd5b506104b0610539366004612f44565b610fbd565b34801561054a57600080fd5b506104b0610559366004612fcc565b6110a5565b34801561056a57600080fd5b506104b0610579366004613011565b61116e565b34801561058a57600080fd5b506104b0610599366004612dab565b611222565b6104b06105ac366004612e82565b611294565b3480156105bd57600080fd5b506102e56101045481565b3480156105d457600080fd5b5061033a6105e3366004612dab565b6101116020526000908152604090205460ff1681565b34801561060557600080fd5b5060975460ff1661033a565b34801561061d57600080fd5b506104b061062c366004612dab565b6112ad565b34801561063d57600080fd5b506102e561064c366004612dab565b61010e6020526000908152604090205481565b34801561066b57600080fd5b506104b0611366565b34801561068057600080fd5b5061010154610396906001600160a01b031681565b3480156106a157600080fd5b506102e561010c5481565b3480156106b857600080fd5b506104b061139a565b3480156106cd57600080fd5b5060c9546001600160a01b0316610396565b3480156106eb57600080fd5b5061030d6113ef565b34801561070057600080fd5b506102e56101095481565b34801561071757600080fd5b5061033a610726366004612f44565b6113fc565b34801561073757600080fd5b5061074b610746366004612fcc565b6115ba565b6040516102ef9190613068565b34801561076457600080fd5b50610795610773366004612dab565b6101136020526000908152604090208054600182015460029092015490919083565b604080519384526020840192909252908201526060016102ef565b3480156107bc57600080fd5b506104b06107cb366004612dab565b61179f565b3480156107dc57600080fd5b506102e56101085481565b3480156107f357600080fd5b506104b0610802366004612fe5565b611808565b34801561081357600080fd5b506102e56101055481565b34801561082a57600080fd5b5061033a610839366004612dab565b6101126020526000908152604090205460ff1681565b34801561085b57600080fd5b506104b061086a366004612e35565b6118a1565b34801561087b57600080fd5b506102e56101075481565b34801561089257600080fd5b506104b06108a1366004612f6e565b611a88565b3480156108b257600080fd5b506102e56108c1366004612dc6565b61010f60209081526000928352604080842090915290825290205481565b3480156108eb57600080fd5b506104b06108fa366004612dab565b611b8a565b34801561090b57600080fd5b506104b061091a366004612dab565b611bfc565b34801561092b57600080fd5b506104b061093a366004612dab565b611c94565b60fb805461094c90613231565b80601f016020809104026020016040519081016040528092919081815260200182805461097890613231565b80156109c55780601f1061099a576101008083540402835291602001916109c5565b820191906000526020600020905b8154815290600101906020018083116109a857829003601f168201915b505050505081565b60006109db60975460ff1690565b15610a015760405162461bcd60e51b81526004016109f8906130e8565b60405180910390fd5b33600081815261010f602090815260408083206001600160a01b03881680855290835292819020869055518581529192917f8c5be1e5ebec7d5bd14f71427d1e84f3dd0314c0f7b2291e5b200ac8c7c3b925910160405180910390a35060015b92915050565b6000610a7560975460ff1690565b15610a925760405162461bcd60e51b81526004016109f8906130e8565b610108544211610aa157600080fd5b610107544210610ab057600080fd5b610ab933611d0a565b3360009081526101136020526040902060010154610ad657600080fd5b336000818152610113602052604080822060010180549290555163a9059cbb60e01b815260048101929092526024820181905290309063a9059cbb90604401602060405180830381600087803b158015610b2f57600080fd5b505af1158015610b43573d6000803e3d6000fd5b505050506040513d601f19601f82011682018060405250810190610b679190612faa565b50600191505090565b6101008181548110610b8157600080fd5b6000918252602090912001546001600160a01b0316905081565b6000610ba960975460ff1690565b15610bc65760405162461bcd60e51b81526004016109f8906130e8565b6001600160a01b038416600090815261010e6020526040902054821115610bec57600080fd5b6001600160a01b038416600090815261010f60209081526040808320338452909152902054821115610c1d57600080fd5b6001600160a01b0383166000908152610111602052604090205460ff1680610c555750336000908152610112602052604090205460ff165b15610d3f576001600160a01b038416600090815261010f6020908152604080832033845290915281208054849290610c8e9084906131ee565b90915550610c9e9050848461227e565b6001600160a01b038416600090815261010e602052604081208054849290610cc79084906131ee565b90915550506001600160a01b038316600090815261010e602052604081208054849290610cf5908490613195565b92505081905550826001600160a01b0316846001600160a01b031660008051602061330783398151915284604051610d2f91815260200190565b60405180910390a3506001610e33565b6001600160a01b038416600090815261010f6020908152604080832033845290915281208054849290610d739084906131ee565b90915550610d839050848461227e565b6000610d8f8386612290565b6001600160a01b038616600090815261010e6020526040812080549293508392909190610dbd9084906131ee565b90915550506001600160a01b038416600090815261010e602052604081208054839290610deb908490613195565b92505081905550836001600160a01b0316856001600160a01b031660008051602061330783398151915283604051610e2591815260200190565b60405180910390a360019150505b9392505050565b60c9546001600160a01b03163314610e645760405162461bcd60e51b81526004016109f890613160565b610101546001600160a01b0382811691161415610e8057600080fd5b61010180546001600160a01b0319166001600160a01b0392909216919091179055565b610eac816122dd565b610ec781604051806020016040528060008152506000612307565b50565b60c9546001600160a01b03163314610ef45760405162461bcd60e51b81526004016109f890613160565b6001600160a01b0381166000908152610112602052604090205460ff1615610f1b57600080fd5b6001600160a01b0316600090815261011260205260409020805460ff19166001179055565b60975460ff16610f895760405162461bcd60e51b815260206004820152601460248201527314185d5cd8589b194e881b9bdd081c185d5cd95960621b60448201526064016109f8565b60c9546001600160a01b03163314610fb35760405162461bcd60e51b81526004016109f890613160565b610fbb61248f565b565b60975460ff1615610fe05760405162461bcd60e51b81526004016109f8906130e8565b336000908152610110602052604090205460ff16610ffd57600080fd5b6001600160a01b03821661101057600080fd5b61101982611d0a565b6001600160a01b038216600090815261010e602052604081208054839290611042908490613195565b925050819055508060fd600082825461105b9190613195565b90915550506040518181526001600160a01b038316906000907fab8530f87dc9b59234c4623bf917212bb2536d647574c8e7e5da92c2ede0c9f89060200160405180910390a35050565b60975460ff16156110c85760405162461bcd60e51b81526004016109f8906130e8565b806110d257600080fd5b33600090815261010e60205260409020548111156110ef57600080fd5b6110f833611d0a565b33600090815261010e6020526040812080548392906111189084906131ee565b925050819055508060fd600082825461113191906131ee565b909155505060405181815233907fcc16f5dbb4873280815c1ee09dbd06736cffcc184412cf7a71a0fdb75d397ca59060200160405180910390a250565b336000908152610110602052604090205460ff1661118b57600080fd5b42851161119757600080fd5b8484116111a357600080fd5b600082116111b057600080fd5b6000811180156111c1575060648111155b6111ca57600080fd5b30600090815261010e60205260409020548311156111e757600080fd5b60fd5461010d556101085415611200576101085461010c555b61010991909155610108939093556101079190915561010b9190915561010a55565b60c9546001600160a01b0316331461124c5760405162461bcd60e51b81526004016109f890613160565b6001600160a01b0381166000908152610112602052604090205460ff1661127257600080fd5b6001600160a01b0316600090815261011260205260409020805460ff19169055565b61129d826122dd565b6112a982826001612307565b5050565b60c9546001600160a01b031633146112d75760405162461bcd60e51b81526004016109f890613160565b6001600160a01b0381166000908152610110602052604090205460ff16156112fe57600080fd5b6001600160a01b0316600081815261011060205260408120805460ff19166001908117909155610100805491820181559091527f45e010b9ae401e2eb71529478da8bd513a9bdc2d095a111e324f5b95c09ed87b0180546001600160a01b0319169091179055565b60c9546001600160a01b031633146113905760405162461bcd60e51b81526004016109f890613160565b610fbb6000612522565b60975460ff16156113bd5760405162461bcd60e51b81526004016109f8906130e8565b60c9546001600160a01b031633146113e75760405162461bcd60e51b81526004016109f890613160565b610fbb612574565b60fc805461094c90613231565b600061140a60975460ff1690565b156114275760405162461bcd60e51b81526004016109f8906130e8565b33600090815261010e602052604090205482111561144457600080fd5b6001600160a01b0383166000908152610111602052604090205460ff168061147c5750336000908152610112602052604090205460ff165b156115145761148b338461227e565b33600090815261010e6020526040812080548492906114ab9084906131ee565b90915550506001600160a01b038316600090815261010e6020526040812080548492906114d9908490613195565b90915550506040518281526001600160a01b0384169033906000805160206133078339815191529060200160405180910390a3506001610a61565b61151e338461227e565b600061152a8333612290565b33600090815261010e602052604081208054929350839290919061154f9084906131ee565b90915550506001600160a01b038416600090815261010e60205260408120805483929061157d908490613195565b90915550506040518181526001600160a01b0385169033906000805160206133078339815191529060200160405180910390a36001915050610a61565b60c9546060906001600160a01b031633146115e75760405162461bcd60e51b81526004016109f890613160565b600061010083815481106115fd576115fd6132b3565b600091825260209091200154610100546001600160a01b039091169150831061162557600080fd5b6001600160a01b0381166000908152610110602052604090205460ff1661164b57600080fd5b825b6101005461165d906001906131ee565b8110156116ea57610100611672826001613195565b81548110611682576116826132b3565b60009182526020909120015461010080546001600160a01b0390921691839081106116af576116af6132b3565b600091825260209091200180546001600160a01b0319166001600160a01b0392909216919091179055806116e28161326c565b91505061164d565b506101008054806116fd576116fd61329d565b60008281526020808220830160001990810180546001600160a01b03191690559092019092556001600160a01b03831682526101108152604091829020805460ff191690556101008054835181840281018401909452808452909183018282801561179157602002820191906000526020600020905b81546001600160a01b03168152600190910190602001808311611773575b50505050509150505b919050565b60c9546001600160a01b031633146117c95760405162461bcd60e51b81526004016109f890613160565b610102546001600160a01b03828116911614156117e557600080fd5b61010280546001600160a01b0319166001600160a01b0392909216919091179055565b60c9546001600160a01b031633146118325760405162461bcd60e51b81526004016109f890613160565b60648311158015611841575060015b801561184e575060648211155b8015611858575060015b8015611865575060648111155b61186e57600080fd5b60648161187b8486613195565b6118859190613195565b111561189057600080fd5b610105929092556101045561010355565b600054610100900460ff16806118ba575060005460ff16155b6118d65760405162461bcd60e51b81526004016109f890613112565b600054610100900460ff161580156118f8576000805461ffff19166101011790555b6001600160a01b03851661190b57600080fd5b60408051808201909152600b8082526a282aa929a2902a37b5b2b760a91b602090920191825261193d9160fb91612cfb565b5060408051808201909152600580825264505552534560d81b602090920191825261196a9160fc91612cfb565b506bcecb8f27f4200f3a0000000060fd5560fe805460ff1916601217905569043c33c193756480000060ff5561010180546001600160a01b0387166001600160a01b03199182161790915561010280549091163017905561010384905561010483905561010582905562015180610106554261010c556119e86125cc565b6119f0612647565b6119f86126ae565b60fd546001600160a01b038716600090815261010e6020526040902055611a1e86611d0a565b856001600160a01b031660006001600160a01b03167fab8530f87dc9b59234c4623bf917212bb2536d647574c8e7e5da92c2ede0c9f860fd54604051611a6691815260200190565b60405180910390a38015611a80576000805461ff00191690555b505050505050565b60975460ff1615611aab5760405162461bcd60e51b81526004016109f8906130e8565b60c9546001600160a01b03163314611ad55760405162461bcd60e51b81526004016109f890613160565b6001600160a01b038116611ae857600080fd5b6001600160a01b038316301415611b0257611b0281611d0a565b60405163a9059cbb60e01b81526001600160a01b0382811660048301526024820184905284169063a9059cbb90604401602060405180830381600087803b158015611b4c57600080fd5b505af1158015611b60573d6000803e3d6000fd5b505050506040513d601f19601f82011682018060405250810190611b849190612faa565b50505050565b60c9546001600160a01b03163314611bb45760405162461bcd60e51b81526004016109f890613160565b6001600160a01b0381166000908152610111602052604090205460ff16611bda57600080fd5b6001600160a01b0316600090815261011160205260409020805460ff19169055565b60c9546001600160a01b03163314611c265760405162461bcd60e51b81526004016109f890613160565b6001600160a01b038116611c8b5760405162461bcd60e51b815260206004820152602660248201527f4f776e61626c653a206e6577206f776e657220697320746865207a65726f206160448201526564647265737360d01b60648201526084016109f8565b610ec781612522565b60c9546001600160a01b03163314611cbe5760405162461bcd60e51b81526004016109f890613160565b6001600160a01b0381166000908152610111602052604090205460ff1615611ce557600080fd5b6001600160a01b0316600090815261011160205260409020805460ff19166001179055565b6001600160a01b03811660009081526101136020526040902060020154611dec5761010854611d905760006101065461010c5442611d4891906131ee565b611d5291906131ad565b9050611d6181620151806131cf565b61010c54611d6f9190613195565b6001600160a01b038316600090815261011360205260409020600201555050565b61010854421015611db05760006101065461010c5442611d4891906131ee565b6000610106546101085442611dc591906131ee565b611dcf91906131ad565b9050611dde81620151806131cf565b61010854611d6f9190613195565b61010854421015611f945761010c546001600160a01b038216600090815261011360205260409020600201541015611ea95760006101065461010c5442611e3391906131ee565b611e3d91906131ad565b6001600160a01b038316600090815261010e602052604081205491925090611e669083906131cf565b9050611e7582620151806131cf565b61010c54611e839190613195565b6001600160a01b0384166000908152610113602052604090206002810191909155555050565b610106546001600160a01b03821660009081526101136020526040812060020154909190611ed790426131ee565b611ee191906131ad565b9050600181106112a9576001600160a01b038216600090815261010e6020526040812054611f109083906131cf565b9050611f1f82620151806131cf565b6001600160a01b0384166000908152610113602052604081206002018054909190611f4b908490613195565b90915550506001600160a01b03831660009081526101136020526040902054611f75908290613195565b6001600160a01b03841660009081526101136020526040902055505050565b610108544210610ec75761010c546001600160a01b0382166000908152610113602052604090206002015410156120b75760006101065461010c5461010854611fdd91906131ee565b611fe791906131ad565b6001600160a01b038316600090815261010e6020526040812054919250906120109083906131cf565b6001600160a01b038416600090815261011360205260408120556101095461010d5461010b5461010a549394506127109361204b90866131cf565b61205591906131cf565b6120609060646131cf565b61206a91906131ad565b61207491906131ad565b61207e91906131ad565b6001600160a01b0384166000908152610113602052604090206001810191909155610108546002909101556120b283611d0a565b505050565b61010c546001600160a01b03821660009081526101136020526040902060020154108015906121045750610108546001600160a01b03821660009081526101136020526040902060020154105b15611ea957610106546001600160a01b038216600090815261011360205260408120600201546101085491929161213b91906131ee565b61214591906131ad565b90506001811061223f576001600160a01b038216600090815261010e60205260408120546121749083906131cf565b6001600160a01b038416600090815261011360205260408120549192509061219d908390613195565b6001600160a01b038516600090815261011360205260408120556101095461010d5461010b5461010a54939450612710936121d890866131cf565b6121e291906131cf565b6121ed9060646131cf565b6121f791906131ad565b61220191906131ad565b61220b91906131ad565b6001600160a01b038516600090815261011360205260409020600181019190915561010854600290910155611b8484611d0a565b6001600160a01b03821660009081526101136020526040812080549190556101095461010d5461010b5461010a546127109392919061204b90866131cf565b61228782611d0a565b6112a981611d0a565b60008080808061229f87612715565b919450925090506122b2868484846127b0565b80826122be858a6131ee565b6122c891906131ee565b6122d291906131ee565b979650505050505050565b60c9546001600160a01b03163314610ec75760405162461bcd60e51b81526004016109f890613160565b600061233a7f360894a13ba1a3210667c828492db98dca3e2076cc3735a920a3ca505d382bbc546001600160a01b031690565b9050612345846129b3565b6000835111806123525750815b15612363576123618484612a58565b505b7f4910fdfa16fed3260ed0e7147f7cc6da11a60208b5b9406d12a635614ffd9143805460ff1661248857805460ff191660011781556040516001600160a01b03831660248201526123e290869060440160408051601f198184030181529190526020810180516001600160e01b0316631b2ce7f360e11b179052612a58565b50805460ff191681557f360894a13ba1a3210667c828492db98dca3e2076cc3735a920a3ca505d382bbc546001600160a01b0383811691161461247f5760405162461bcd60e51b815260206004820152602f60248201527f45524331393637557067726164653a207570677261646520627265616b73206660448201526e75727468657220757067726164657360881b60648201526084016109f8565b61248885612b43565b5050505050565b60975460ff166124d85760405162461bcd60e51b815260206004820152601460248201527314185d5cd8589b194e881b9bdd081c185d5cd95960621b60448201526064016109f8565b6097805460ff191690557f5db9ee0a495bf2e6ff9c91a7834c1ba4fdd244a5e8aa4e537bd38aeae4b073aa335b6040516001600160a01b03909116815260200160405180910390a1565b60c980546001600160a01b038381166001600160a01b0319831681179093556040519116919082907f8be0079c531659141344cd1fd0a4f28419497f9722a3daafe3b4186f6b6457e090600090a35050565b60975460ff16156125975760405162461bcd60e51b81526004016109f8906130e8565b6097805460ff191660011790557f62e78cea01bee320cd4e420270b5ea74000d11b0c9f74754ebdbfc544b05a2586125053390565b600054610100900460ff16806125e5575060005460ff16155b6126015760405162461bcd60e51b81526004016109f890613112565b600054610100900460ff16158015612623576000805461ffff19166101011790555b61262b612b83565b612633612bed565b8015610ec7576000805461ff001916905550565b600054610100900460ff1680612660575060005460ff16155b61267c5760405162461bcd60e51b81526004016109f890613112565b600054610100900460ff1615801561269e576000805461ffff19166101011790555b6126a6612b83565b612633612c62565b600054610100900460ff16806126c7575060005460ff16155b6126e35760405162461bcd60e51b81526004016109f890613112565b600054610100900460ff16158015612705576000805461ffff19166101011790555b61270d612b83565b612633612b83565b60008060008060008060ff5460fd5411156127a3576064610103548861273b91906131cf565b61274591906131ad565b92506064610104548861275891906131cf565b61276291906131ad565b91506064610105548861277591906131cf565b61277f91906131ad565b9050600060ff5460fd5461279391906131ee565b9050808411156127a1578093505b505b9196909550909350915050565b6001600160a01b0384166127c357600080fd5b6001600160a01b038416600090815261010e602052604081205490826127e98587613195565b6127f39190613195565b90508082101561280257600080fd5b6001600160a01b038616600090815261010e60205260408120805487929061282b9084906131ee565b90915550506001600160a01b038616600090815261010e6020526040812080548692906128599084906131ee565b90915550506001600160a01b038616600090815261010e6020526040812080548592906128879084906131ee565b925050819055508460fd60008282546128a091906131ee565b9091555050610101546001600160a01b0316600090815261010e6020526040812080548692906128d1908490613195565b9091555050610102546001600160a01b0316600090815261010e602052604081208054859290612902908490613195565b90915550506040518581526001600160a01b038716907fcc16f5dbb4873280815c1ee09dbd06736cffcc184412cf7a71a0fdb75d397ca59060200160405180910390a2610101546040518581526001600160a01b039091169033906000805160206133078339815191529060200160405180910390a3610102546040518481526001600160a01b039091169033906000805160206133078339815191529060200160405180910390a3505050505050565b803b612a175760405162461bcd60e51b815260206004820152602d60248201527f455243313936373a206e657720696d706c656d656e746174696f6e206973206e60448201526c1bdd08184818dbdb9d1c9858dd609a1b60648201526084016109f8565b7f360894a13ba1a3210667c828492db98dca3e2076cc3735a920a3ca505d382bbc80546001600160a01b0319166001600160a01b0392909216919091179055565b6060823b612ab75760405162461bcd60e51b815260206004820152602660248201527f416464726573733a2064656c65676174652063616c6c20746f206e6f6e2d636f6044820152651b9d1c9858dd60d21b60648201526084016109f8565b600080846001600160a01b031684604051612ad2919061304c565b600060405180830381855af49150503d8060008114612b0d576040519150601f19603f3d011682016040523d82523d6000602084013e612b12565b606091505b5091509150612b3a82826040518060600160405280602781526020016132e060279139612cc2565b95945050505050565b612b4c816129b3565b6040516001600160a01b038216907fbc7cd75a20ee27fd9adebab32041f755214dbc6bffa90cc0225b39da2e5c2d3b90600090a250565b600054610100900460ff1680612b9c575060005460ff16155b612bb85760405162461bcd60e51b81526004016109f890613112565b600054610100900460ff16158015612633576000805461ffff19166101011790558015610ec7576000805461ff001916905550565b600054610100900460ff1680612c06575060005460ff16155b612c225760405162461bcd60e51b81526004016109f890613112565b600054610100900460ff16158015612c44576000805461ffff19166101011790555b6097805460ff191690558015610ec7576000805461ff001916905550565b600054610100900460ff1680612c7b575060005460ff16155b612c975760405162461bcd60e51b81526004016109f890613112565b600054610100900460ff16158015612cb9576000805461ffff19166101011790555b61263333612522565b60608315612cd1575081610e33565b825115612ce15782518084602001fd5b8160405162461bcd60e51b81526004016109f891906130b5565b828054612d0790613231565b90600052602060002090601f016020900481019282612d295760008555612d6f565b82601f10612d4257805160ff1916838001178555612d6f565b82800160010185558215612d6f579182015b82811115612d6f578251825591602001919060010190612d54565b50612d7b929150612d7f565b5090565b5b80821115612d7b5760008155600101612d80565b80356001600160a01b038116811461179a57600080fd5b600060208284031215612dbd57600080fd5b610e3382612d94565b60008060408385031215612dd957600080fd5b612de283612d94565b9150612df060208401612d94565b90509250929050565b600080600060608486031215612e0e57600080fd5b612e1784612d94565b9250612e2560208501612d94565b9150604084013590509250925092565b600080600080600060a08688031215612e4d57600080fd5b612e5686612d94565b9450612e6460208701612d94565b94979496505050506040830135926060810135926080909101359150565b60008060408385031215612e9557600080fd5b612e9e83612d94565b9150602083013567ffffffffffffffff80821115612ebb57600080fd5b818501915085601f830112612ecf57600080fd5b813581811115612ee157612ee16132c9565b604051601f8201601f19908116603f01168101908382118183101715612f0957612f096132c9565b81604052828152886020848701011115612f2257600080fd5b8260208601602083013760006020848301015280955050505050509250929050565b60008060408385031215612f5757600080fd5b612f6083612d94565b946020939093013593505050565b600080600060608486031215612f8357600080fd5b612f8c84612d94565b925060208401359150612fa160408501612d94565b90509250925092565b600060208284031215612fbc57600080fd5b81518015158114610e3357600080fd5b600060208284031215612fde57600080fd5b5035919050565b600080600060608486031215612ffa57600080fd5b505081359360208301359350604090920135919050565b600080600080600060a0868803121561302957600080fd5b505083359560208501359550604085013594606081013594506080013592509050565b6000825161305e818460208701613205565b9190910192915050565b6020808252825182820181905260009190848201906040850190845b818110156130a95783516001600160a01b031683529284019291840191600101613084565b50909695505050505050565b60208152600082518060208401526130d4816040850160208701613205565b601f01601f19169190910160400192915050565b60208082526010908201526f14185d5cd8589b194e881c185d5cd95960821b604082015260600190565b6020808252602e908201527f496e697469616c697a61626c653a20636f6e747261637420697320616c72656160408201526d191e481a5b9a5d1a585b1a5e995960921b606082015260800190565b6020808252818101527f4f776e61626c653a2063616c6c6572206973206e6f7420746865206f776e6572604082015260600190565b600082198211156131a8576131a8613287565b500190565b6000826131ca57634e487b7160e01b600052601260045260246000fd5b500490565b60008160001904831182151516156131e9576131e9613287565b500290565b60008282101561320057613200613287565b500390565b60005b83811015613220578181015183820152602001613208565b83811115611b845750506000910152565b600181811c9082168061324557607f821691505b6020821081141561326657634e487b7160e01b600052602260045260246000fd5b50919050565b600060001982141561328057613280613287565b5060010190565b634e487b7160e01b600052601160045260246000fd5b634e487b7160e01b600052603160045260246000fd5b634e487b7160e01b600052603260045260246000fd5b634e487b7160e01b600052604160045260246000fdfe416464726573733a206c6f772d6c6576656c2064656c65676174652063616c6c206661696c6564ddf252ad1be2c89b69c2b068fc378daa952ba7f163c4a11628f55a4df523b3efa2646970667358221220c5555f57f7d8861186e58c9d123dbe68861711604c4139d06e533a84c915dc2064736f6c63430008070033",
  "immutableReferences": {},
  "source": "// SPDX-License-Identifier: UNLICENSED\r\n\r\npragma solidity ^0.8.0;\r\n\r\nimport \"@openzeppelin/contracts-upgradeable/proxy/utils/Initializable.sol\";\r\nimport \"@openzeppelin/contracts-upgradeable/proxy/utils/UUPSUpgradeable.sol\";\r\nimport \"@openzeppelin/contracts-upgradeable/security/PausableUpgradeable.sol\";\r\nimport \"@openzeppelin/contracts-upgradeable/access/OwnableUpgradeable.sol\";\r\n\r\nabstract contract ERC20Interface {\r\n\r\n    function transfer(address to, uint tokens) public virtual returns (bool success);\r\n\r\n    function transferFrom(address from, address to, uint tokens) public virtual returns (bool success);\r\n\r\n}\r\n\r\ncontract PurseTokenUpgradable is Initializable, UUPSUpgradeable, PausableUpgradeable, OwnableUpgradeable {\r\n\r\n    string public name;\r\n    string public symbol;\r\n    uint256 public totalSupply;\r\n    uint8 public decimals;\r\n    uint256 private minimumSupply;\r\n    address[] public admins;\r\n    address public liqPool;\r\n    address public disPool;\r\n    uint256 public burnPercent;\r\n    uint256 public liqPercent;\r\n    uint256 public disPercent;\r\n    \r\n    uint256 public _averageInterval;\r\n    uint256 public _getRewardEndTime;\r\n    uint256 public _getRewardStartTime;\r\n    uint256 public _numOfDaysPerMth;\r\n    uint256 public _monthlyDistributePr;\r\n    uint256 public _percentageDistribute;\r\n    uint256 public _lastRewardStartTime;\r\n    uint256 public _totalSupply;\r\n\r\n    mapping(address => uint256) public balanceOf;\r\n    mapping(address => mapping(address => uint256)) public allowance;\r\n    mapping(address => bool) public isAdmin;\r\n    mapping(address => bool) public isWhitelistedTo;\r\n    mapping(address => bool) public isWhitelistedFrom;\r\n    mapping(address => AccAmount) public accAmount;\r\n\r\n    struct AccAmount {\r\n        uint256 amount;\r\n        uint256 accReward;\r\n        uint256 lastUpdateTime;\r\n    }\r\n\r\n    event Transfer(address indexed _from, address indexed _to, uint256 _value);\r\n    event Burn(address indexed _from, uint256 _value);\r\n    event Mint(address indexed _from, address indexed _to, uint256 _value);\r\n    event Approval(address indexed _owner, address indexed _spender, uint256 _value);\r\n\r\n    modifier onlyAdmin() {\r\n        require(isAdmin[msg.sender]);\r\n        _;\r\n    }\r\n\r\n    function transfer(address _to, uint256 _value) public whenNotPaused returns (bool success)\r\n    {\r\n        require(balanceOf[msg.sender] >= _value);\r\n        if (isWhitelistedTo[_to] || isWhitelistedFrom[msg.sender]) {\r\n            updateAccumulateBalanceTransaction(msg.sender, _to); \r\n            balanceOf[msg.sender] -= _value;\r\n            balanceOf[_to] += _value;\r\n            \r\n           \r\n            emit Transfer(msg.sender, _to, _value);\r\n            return true;\r\n        } else {\r\n            updateAccumulateBalanceTransaction(msg.sender, _to);\r\n            uint256 transferValue = _partialBurn(_value, msg.sender);\r\n            balanceOf[msg.sender] -= transferValue;\r\n            balanceOf[_to] += transferValue;\r\n            \r\n\r\n            emit Transfer(msg.sender, _to, transferValue);\r\n            return true;\r\n        }\r\n    }\r\n    \r\n    function approve(address _spender, uint256 _value) public whenNotPaused returns (bool success)\r\n    {\r\n        allowance[msg.sender][_spender] = _value;\r\n        emit Approval(msg.sender, _spender, _value);\r\n        return true;\r\n    }\r\n\r\n    function transferFrom(address _from, address _to, uint256 _value) public whenNotPaused returns (bool success) {\r\n        require(_value <= balanceOf[_from]);\r\n        require(_value <= allowance[_from][msg.sender]);\r\n        if (isWhitelistedTo[_to] || isWhitelistedFrom[msg.sender]) {\r\n            allowance[_from][msg.sender] -= _value;\r\n            updateAccumulateBalanceTransaction(_from, _to);\r\n            balanceOf[_from] -= _value;\r\n            balanceOf[_to] += _value;\r\n            \r\n            emit Transfer(_from, _to, _value);\r\n            return true;\r\n        } else {\r\n            allowance[_from][msg.sender] -= _value;\r\n            updateAccumulateBalanceTransaction(_from, _to);\r\n            uint256 transferValue = _partialBurn(_value, _from);\r\n            balanceOf[_from] -= transferValue;\r\n            balanceOf[_to] += transferValue;\r\n\r\n            emit Transfer(_from, _to, transferValue);\r\n            return true;\r\n        }\r\n    }\r\n\r\n    function mint(address _account, uint256 _amount) public whenNotPaused onlyAdmin {\r\n        require(_account != address(0));\r\n        updateAccumulateBalance(_account); \r\n        balanceOf[_account] += _amount;\r\n\r\n        totalSupply += _amount;\r\n        emit Mint(address(0), _account, _amount);\r\n    }\r\n\r\n    function burn(uint256 _amount) public whenNotPaused {\r\n        require(_amount != 0);\r\n        require(balanceOf[msg.sender] >= _amount);\r\n        updateAccumulateBalance(msg.sender); \r\n        balanceOf[msg.sender] -= _amount;\r\n        totalSupply -= _amount;\r\n        emit Burn(msg.sender, _amount);\r\n    }\r\n    \r\n    function updateAccumulateBalance(address _holder) private {\r\n        if (accAmount[_holder].lastUpdateTime == 0) {\r\n            if (_getRewardStartTime == 0) {\r\n                uint256 interval = (block.timestamp - _lastRewardStartTime)/ _averageInterval;\r\n                accAmount[_holder].lastUpdateTime = _lastRewardStartTime + (interval * 86400);   //1 day = 86400 seconds\r\n            } else {\r\n                if (block.timestamp < _getRewardStartTime) {\r\n                    uint256 interval = (block.timestamp - _lastRewardStartTime)/ _averageInterval;\r\n                    accAmount[_holder].lastUpdateTime = _lastRewardStartTime + (interval * 86400);   //1 day = 86400 seconds\r\n                } else {\r\n                    uint256 interval = (block.timestamp - _getRewardStartTime)/ _averageInterval;\r\n                    accAmount[_holder].lastUpdateTime = _getRewardStartTime + (interval * 86400);\r\n                }\r\n            } \r\n        } \r\n        else if (block.timestamp < _getRewardStartTime) {\r\n            if (accAmount[_holder].lastUpdateTime < _lastRewardStartTime) {\r\n                uint256 interval = (block.timestamp - _lastRewardStartTime)/ _averageInterval;\r\n                uint256 accumulateAmount = balanceOf[_holder] * interval;\r\n                accAmount[_holder].lastUpdateTime = _lastRewardStartTime + (interval * 86400);   //1 day = 86400 seconds\r\n                accAmount[_holder].amount = accumulateAmount;     \r\n            } \r\n            else {\r\n            uint256 interval = (block.timestamp - accAmount[_holder].lastUpdateTime)/ _averageInterval;\r\n                if (interval >= 1) {\r\n                    uint256 accumulateAmount = balanceOf[_holder] * interval;\r\n                    accAmount[_holder].lastUpdateTime += (interval * 86400);\r\n                    accAmount[_holder].amount = accAmount[_holder].amount + accumulateAmount;                     \r\n                }\r\n            }\r\n        } \r\n        else if(block.timestamp >= _getRewardStartTime) {\r\n            if (accAmount[_holder].lastUpdateTime < _lastRewardStartTime) {\r\n                uint256 interval = (_getRewardStartTime - _lastRewardStartTime)/ _averageInterval;\r\n                uint256 lastmonthAccAmount = balanceOf[_holder] * interval;\r\n                accAmount[_holder].amount = 0;\r\n                accAmount[_holder].accReward = lastmonthAccAmount * _monthlyDistributePr * _percentageDistribute * 100 / _totalSupply / _numOfDaysPerMth / 10000;\r\n                accAmount[_holder].lastUpdateTime = _getRewardStartTime;\r\n                updateAccumulateBalance(_holder);\r\n            } \r\n            else if (accAmount[_holder].lastUpdateTime >= _lastRewardStartTime && accAmount[_holder].lastUpdateTime < _getRewardStartTime) {\r\n                uint256 interval = (_getRewardStartTime - accAmount[_holder].lastUpdateTime)/ _averageInterval;\r\n                if (interval >= 1) {\r\n                    uint256 accumulateAmount = balanceOf[_holder] * interval;\r\n                    uint256 lastmonthAccAmount = accAmount[_holder].amount + accumulateAmount; \r\n                    accAmount[_holder].amount = 0;\r\n                    accAmount[_holder].accReward = lastmonthAccAmount * _monthlyDistributePr * _percentageDistribute * 100 / _totalSupply / _numOfDaysPerMth / 10000;\r\n                    accAmount[_holder].lastUpdateTime = _getRewardStartTime;\r\n                    updateAccumulateBalance(_holder);\r\n                } \r\n                else {\r\n                    uint256 lastmonthAccAmount = accAmount[_holder].amount;\r\n                    accAmount[_holder].amount = 0;\r\n                    accAmount[_holder].accReward = lastmonthAccAmount * _monthlyDistributePr * _percentageDistribute * 100 / _totalSupply / _numOfDaysPerMth / 10000;\r\n                    accAmount[_holder].lastUpdateTime = _getRewardStartTime;\r\n                    updateAccumulateBalance(_holder);\r\n                }\r\n            } \r\n            else {\r\n                uint256 interval = (block.timestamp - accAmount[_holder].lastUpdateTime)/ _averageInterval;\r\n                if (interval >= 1) {\r\n                    uint256 accumulateAmount = balanceOf[_holder] * interval;\r\n                    accAmount[_holder].lastUpdateTime += (interval * 86400);\r\n                    accAmount[_holder].amount = accAmount[_holder].amount + accumulateAmount;                     \r\n                }\r\n            }\r\n        }\r\n    }\r\n    \r\n    \r\n    \r\n    function updateAccumulateBalanceTransaction(address _from, address _to) private {\r\n        updateAccumulateBalance(_from);\r\n        updateAccumulateBalance(_to);\r\n    }\r\n\r\n    function claimDistributionPurse() public whenNotPaused returns(bool success) {\r\n        require(block.timestamp > _getRewardStartTime);\r\n        require(block.timestamp < _getRewardEndTime); \r\n\r\n        updateAccumulateBalance(msg.sender);\r\n        require(accAmount[msg.sender].accReward > 0);\r\n        uint256 claimAmount = accAmount[msg.sender].accReward;\r\n        accAmount[msg.sender].accReward = 0;\r\n\r\n        ERC20Interface(address(this)).transfer(msg.sender, claimAmount);\r\n        return true;\r\n    }\r\n    \r\n    function activateClaimMonthly(uint256 _rewardStartTime, uint256 _rewardEndTime, uint256 _monthlyDisPr, uint256 _numOfDays, uint256 _percentage) public onlyAdmin {\r\n        require(_rewardStartTime > block.timestamp );\r\n        require(_rewardEndTime > _rewardStartTime);\r\n        require(_numOfDays > 0);\r\n        require(_percentage > 0 && _percentage <= 100);\r\n        require(_monthlyDisPr <= balanceOf[address(this)]);\r\n        \r\n        _totalSupply = totalSupply;\r\n        if (_getRewardStartTime != 0) {\r\n            _lastRewardStartTime = _getRewardStartTime;\r\n        }\r\n        // _lastRewardStartTime = _getRewardStartTime;\r\n        _numOfDaysPerMth = _numOfDays;\r\n        _getRewardStartTime = _rewardStartTime;\r\n        _getRewardEndTime = _rewardEndTime;\r\n        _percentageDistribute = _percentage;\r\n        _monthlyDistributePr = _monthlyDisPr;\r\n    }\r\n\r\n    function _partialBurn(uint256 _amount, address _from) internal returns (uint256) {\r\n        uint256 transferAmount = 0;\r\n        uint256 burnAmount;\r\n        uint256 liqAmount;\r\n        uint256 disAmount;\r\n        (\r\n            burnAmount,\r\n            liqAmount,\r\n            disAmount\r\n        ) = _calculateDeductAmount(_amount);\r\n\r\n        if (burnAmount >= 0 || liqAmount >= 0 || disAmount >= 0) {\r\n            burnPrivate(_from, burnAmount, liqAmount, disAmount);\r\n        }\r\n        transferAmount = _amount - burnAmount - liqAmount - disAmount;\r\n\r\n        return transferAmount;\r\n    }\r\n\r\n    function _calculateDeductAmount(uint256 _amount) internal view returns (uint256, uint256, uint256) {\r\n        uint256 burnAmount;\r\n        uint256 liqAmount;\r\n        uint256 disAmount;\r\n\r\n        if (totalSupply > minimumSupply) {\r\n            burnAmount = (_amount * burnPercent) / 100;\r\n            liqAmount = (_amount * liqPercent) / 100;\r\n            disAmount = (_amount * disPercent) / 100;\r\n            uint256 availableBurn = totalSupply - minimumSupply;\r\n            if (burnAmount > availableBurn) {\r\n                burnAmount = availableBurn;\r\n            }\r\n        }\r\n        return (burnAmount, liqAmount, disAmount);\r\n    }\r\n\r\n    function burnPrivate( address _account, uint256 _burnAmount, uint256 _liqAmount, uint256 _disAmount) private {\r\n        require(_account != address(0));\r\n        uint256 accountBalance = balanceOf[_account];\r\n        uint256 deductAmount = _burnAmount + _liqAmount + _disAmount;\r\n        require(accountBalance >= deductAmount);\r\n        balanceOf[_account] -= _burnAmount;\r\n        balanceOf[_account] -= _liqAmount;\r\n        balanceOf[_account] -= _disAmount;\r\n\r\n        totalSupply -= _burnAmount;\r\n        // updateAccumulateBalanceTransaction(disPool, liqPool); \r\n        balanceOf[liqPool] += _liqAmount;\r\n        balanceOf[disPool] += _disAmount;\r\n\r\n        emit Burn(_account, _burnAmount);\r\n        emit Transfer(msg.sender, liqPool, _liqAmount);\r\n        emit Transfer(msg.sender, disPool, _disAmount);\r\n    }\r\n    \r\n    function updateLPoolAdd(address _newLPool) public onlyOwner {\r\n        require(_newLPool != liqPool);\r\n\r\n        liqPool = _newLPool;\r\n    }\r\n\r\n    function updateDPoolAdd(address _newDPool) public onlyOwner {\r\n        require(_newDPool != disPool);\r\n\r\n        disPool = _newDPool;\r\n    }\r\n    \r\n    function updatePercent(uint256 _newDisPercent, uint256 _newLiqPercent, uint256 _newBurnPercent) public onlyOwner {\r\n        require(_newDisPercent >= 0 && _newDisPercent <= 100 && _newLiqPercent >= 0 && _newLiqPercent <= 100 && _newBurnPercent >= 0 && _newBurnPercent <= 100);\r\n        require(_newDisPercent + _newLiqPercent + _newBurnPercent <= 100);\r\n        \r\n        disPercent = _newDisPercent;\r\n        liqPercent = _newLiqPercent;\r\n        burnPercent = _newBurnPercent;\r\n    }\r\n\r\n    function addAdmin(address newAdmin) public onlyOwner{\r\n        require(!isAdmin[newAdmin]);\r\n\r\n        isAdmin[newAdmin] = true;\r\n        admins.push(newAdmin);\r\n    }\r\n\r\n    function removeAdmin(uint index) public onlyOwner returns (address[] memory){\r\n        address removeOwner = admins[index];\r\n        require(index < admins.length);\r\n        require(isAdmin[removeOwner]);\r\n        \r\n        for (uint i = index; i<admins.length-1; i++){\r\n            admins[i] = admins[i+1];\r\n        }\r\n        admins.pop();\r\n\r\n        isAdmin[removeOwner] = false;\r\n        return admins;\r\n    }\r\n    \r\n    function transferERCToken(address token, uint256 amount, address _to) public whenNotPaused onlyOwner{\r\n        require(_to != address(0));\r\n        if (token == address(this)) {\r\n            updateAccumulateBalance(_to);\r\n            ERC20Interface(token).transfer(_to, amount);\r\n        } else {\r\n            ERC20Interface(token).transfer(_to, amount);          \r\n        }\r\n    } \r\n\r\n    function pause() public whenNotPaused onlyOwner {\r\n        _pause();\r\n    }\r\n\r\n    function unpause() public whenPaused onlyOwner {\r\n        _unpause();\r\n    }\r\n    \r\n    function setWhitelistedTo(address newWhitelist) public onlyOwner {\r\n        require(!isWhitelistedTo[newWhitelist]);\r\n\r\n        isWhitelistedTo[newWhitelist] = true;\r\n    }\r\n\r\n    function removeWhitelistedTo(address newWhitelist) public onlyOwner {\r\n        require(isWhitelistedTo[newWhitelist]);\r\n\r\n        isWhitelistedTo[newWhitelist] = false;\r\n    }\r\n\r\n    function setWhitelistedFrom(address newWhitelist) public onlyOwner {\r\n        require(!isWhitelistedFrom[newWhitelist]);\r\n\r\n        isWhitelistedFrom[newWhitelist] = true;\r\n    }\r\n\r\n    function removeWhitelistedFrom(address newWhitelist) public onlyOwner {\r\n        require(isWhitelistedFrom[newWhitelist]);\r\n\r\n        isWhitelistedFrom[newWhitelist] = false;\r\n    }\r\n\r\n    function _authorizeUpgrade(address) internal override onlyOwner {}\r\n\r\n    function initialize(\r\n        address _to,\r\n        address _lPool,\r\n        uint256 _burnPercent,\r\n        uint256 _liqPercent,\r\n        uint256 _disPercent\r\n    ) public initializer {\r\n        require(_lPool != address(0));\r\n        require(_burnPercent >= 0);\r\n        require(_liqPercent >= 0);\r\n        require(_disPercent >= 0);\r\n\r\n        name = \"PURSE Token\";\r\n        symbol = \"PURSE\";\r\n        totalSupply = 64000000000 * (10**18); // 64 billion tokens\r\n        decimals = 18;\r\n        minimumSupply = 20000 * (10**18);\r\n\r\n        liqPool = _lPool;\r\n        disPool = address(this);\r\n        burnPercent = _burnPercent;\r\n        liqPercent = _liqPercent;\r\n        disPercent = _disPercent;\r\n        _averageInterval = 1 days;       // update to 1 days in mainnet(prod)\r\n        _lastRewardStartTime = block.timestamp;\r\n        __Pausable_init();\r\n        __Ownable_init();\r\n        __UUPSUpgradeable_init();\r\n        \r\n        balanceOf[_to] = totalSupply;\r\n        updateAccumulateBalance(_to); \r\n        emit Mint(address(0), _to, totalSupply);\r\n    }\r\n}",
  "sourcePath": "C:/Users/cheek/Desktop/Developer doc/Visual Studio Code/PundiX/purseRewardBSC/src/contracts/PurseTokenUpgradable.sol",
  "compiler": {
    "name": "solc",
    "version": "0.8.7+commit.e28d00a7.Emscripten.clang"
  },
  "schemaVersion": "3.2.3",
  "updatedAt": "2021-10-11T10:34:47.392Z",
  "networkType": "ethereum",
  "devdoc": {
    "kind": "dev",
    "methods": {
      "owner()": {
        "details": "Returns the address of the current owner."
      },
      "paused()": {
        "details": "Returns true if the contract is paused, and false otherwise."
      },
      "renounceOwnership()": {
        "details": "Leaves the contract without owner. It will not be possible to call `onlyOwner` functions anymore. Can only be called by the current owner. NOTE: Renouncing ownership will leave the contract without an owner, thereby removing any functionality that is only available to the owner."
      },
      "transferOwnership(address)": {
        "details": "Transfers ownership of the contract to a new account (`newOwner`). Can only be called by the current owner."
      },
      "upgradeTo(address)": {
        "details": "Upgrade the implementation of the proxy to `newImplementation`. Calls {_authorizeUpgrade}. Emits an {Upgraded} event."
      },
      "upgradeToAndCall(address,bytes)": {
        "details": "Upgrade the implementation of the proxy to `newImplementation`, and subsequently execute the function call encoded in `data`. Calls {_authorizeUpgrade}. Emits an {Upgraded} event."
      }
    },
    "version": 1
  },
  "userdoc": {
    "kind": "user",
    "methods": {},
    "version": 1
  }
}