{
  "contractName": "PurseTokenMultiSigUpgradable",
  "abi": [
    {
      "anonymous": false,
      "inputs": [
        {
          "indexed": false,
          "internalType": "address",
          "name": "previousAdmin",
          "type": "address"
        },
        {
          "indexed": false,
          "internalType": "address",
          "name": "newAdmin",
          "type": "address"
        }
      ],
      "name": "AdminChanged",
      "type": "event"
    },
    {
      "anonymous": false,
      "inputs": [
        {
          "indexed": true,
          "internalType": "address",
          "name": "_owner",
          "type": "address"
        },
        {
          "indexed": true,
          "internalType": "address",
          "name": "_spender",
          "type": "address"
        },
        {
          "indexed": false,
          "internalType": "uint256",
          "name": "_value",
          "type": "uint256"
        }
      ],
      "name": "Approval",
      "type": "event"
    },
    {
      "anonymous": false,
      "inputs": [
        {
          "indexed": true,
          "internalType": "address",
          "name": "beacon",
          "type": "address"
        }
      ],
      "name": "BeaconUpgraded",
      "type": "event"
    },
    {
      "anonymous": false,
      "inputs": [
        {
          "indexed": true,
          "internalType": "address",
          "name": "_from",
          "type": "address"
        },
        {
          "indexed": true,
          "internalType": "address",
          "name": "_to",
          "type": "address"
        },
        {
          "indexed": false,
          "internalType": "uint256",
          "name": "_value",
          "type": "uint256"
        }
      ],
      "name": "Burn",
      "type": "event"
    },
    {
      "anonymous": false,
      "inputs": [
        {
          "indexed": true,
          "internalType": "address",
          "name": "owner",
          "type": "address"
        },
        {
          "indexed": true,
          "internalType": "uint256",
          "name": "txIndex",
          "type": "uint256"
        }
      ],
      "name": "ConfirmMint",
      "type": "event"
    },
    {
      "anonymous": false,
      "inputs": [
        {
          "indexed": true,
          "internalType": "address",
          "name": "owner",
          "type": "address"
        },
        {
          "indexed": true,
          "internalType": "uint256",
          "name": "txIndex",
          "type": "uint256"
        }
      ],
      "name": "ExecuteMint",
      "type": "event"
    },
    {
      "anonymous": false,
      "inputs": [
        {
          "indexed": true,
          "internalType": "address",
          "name": "_from",
          "type": "address"
        },
        {
          "indexed": true,
          "internalType": "address",
          "name": "_to",
          "type": "address"
        },
        {
          "indexed": false,
          "internalType": "uint256",
          "name": "_value",
          "type": "uint256"
        }
      ],
      "name": "Mint",
      "type": "event"
    },
    {
      "anonymous": false,
      "inputs": [
        {
          "indexed": true,
          "internalType": "address",
          "name": "owner",
          "type": "address"
        },
        {
          "indexed": true,
          "internalType": "uint256",
          "name": "txIndex",
          "type": "uint256"
        }
      ],
      "name": "RevokeConfirmMint",
      "type": "event"
    },
    {
      "anonymous": false,
      "inputs": [
        {
          "indexed": true,
          "internalType": "address",
          "name": "owner",
          "type": "address"
        },
        {
          "indexed": true,
          "internalType": "uint256",
          "name": "txIndex",
          "type": "uint256"
        },
        {
          "indexed": true,
          "internalType": "address",
          "name": "to",
          "type": "address"
        },
        {
          "indexed": false,
          "internalType": "uint256",
          "name": "value",
          "type": "uint256"
        }
      ],
      "name": "SubmitMint",
      "type": "event"
    },
    {
      "anonymous": false,
      "inputs": [
        {
          "indexed": true,
          "internalType": "address",
          "name": "_from",
          "type": "address"
        },
        {
          "indexed": true,
          "internalType": "address",
          "name": "_to",
          "type": "address"
        },
        {
          "indexed": false,
          "internalType": "uint256",
          "name": "_value",
          "type": "uint256"
        }
      ],
      "name": "Transfer",
      "type": "event"
    },
    {
      "anonymous": false,
      "inputs": [
        {
          "indexed": true,
          "internalType": "address",
          "name": "implementation",
          "type": "address"
        }
      ],
      "name": "Upgraded",
      "type": "event"
    },
    {
      "inputs": [
        {
          "internalType": "address",
          "name": "",
          "type": "address"
        },
        {
          "internalType": "address",
          "name": "",
          "type": "address"
        }
      ],
      "name": "allowance",
      "outputs": [
        {
          "internalType": "uint256",
          "name": "",
          "type": "uint256"
        }
      ],
      "stateMutability": "view",
      "type": "function",
      "constant": true
    },
    {
      "inputs": [
        {
          "internalType": "address",
          "name": "",
          "type": "address"
        }
      ],
      "name": "balanceOf",
      "outputs": [
        {
          "internalType": "uint256",
          "name": "",
          "type": "uint256"
        }
      ],
      "stateMutability": "view",
      "type": "function",
      "constant": true
    },
    {
      "inputs": [],
      "name": "burnPercent",
      "outputs": [
        {
          "internalType": "uint256",
          "name": "",
          "type": "uint256"
        }
      ],
      "stateMutability": "view",
      "type": "function",
      "constant": true
    },
    {
      "inputs": [],
      "name": "decimals",
      "outputs": [
        {
          "internalType": "uint8",
          "name": "",
          "type": "uint8"
        }
      ],
      "stateMutability": "view",
      "type": "function",
      "constant": true
    },
    {
      "inputs": [
        {
          "internalType": "address",
          "name": "",
          "type": "address"
        }
      ],
      "name": "isOwner",
      "outputs": [
        {
          "internalType": "bool",
          "name": "",
          "type": "bool"
        }
      ],
      "stateMutability": "view",
      "type": "function",
      "constant": true
    },
    {
      "inputs": [
        {
          "internalType": "address",
          "name": "",
          "type": "address"
        }
      ],
      "name": "isWhitelistedFrom",
      "outputs": [
        {
          "internalType": "bool",
          "name": "",
          "type": "bool"
        }
      ],
      "stateMutability": "view",
      "type": "function",
      "constant": true
    },
    {
      "inputs": [
        {
          "internalType": "address",
          "name": "",
          "type": "address"
        }
      ],
      "name": "isWhitelistedTo",
      "outputs": [
        {
          "internalType": "bool",
          "name": "",
          "type": "bool"
        }
      ],
      "stateMutability": "view",
      "type": "function",
      "constant": true
    },
    {
      "inputs": [],
      "name": "liqPercent",
      "outputs": [
        {
          "internalType": "uint256",
          "name": "",
          "type": "uint256"
        }
      ],
      "stateMutability": "view",
      "type": "function",
      "constant": true
    },
    {
      "inputs": [],
      "name": "liqPool",
      "outputs": [
        {
          "internalType": "address",
          "name": "",
          "type": "address"
        }
      ],
      "stateMutability": "view",
      "type": "function",
      "constant": true
    },
    {
      "inputs": [
        {
          "internalType": "uint256",
          "name": "",
          "type": "uint256"
        }
      ],
      "name": "mintExist",
      "outputs": [
        {
          "internalType": "bool",
          "name": "",
          "type": "bool"
        }
      ],
      "stateMutability": "view",
      "type": "function",
      "constant": true
    },
    {
      "inputs": [],
      "name": "mintIndex",
      "outputs": [
        {
          "internalType": "uint256",
          "name": "",
          "type": "uint256"
        }
      ],
      "stateMutability": "view",
      "type": "function",
      "constant": true
    },
    {
      "inputs": [
        {
          "internalType": "uint256",
          "name": "",
          "type": "uint256"
        },
        {
          "internalType": "address",
          "name": "",
          "type": "address"
        }
      ],
      "name": "mintIsConfirmed",
      "outputs": [
        {
          "internalType": "bool",
          "name": "",
          "type": "bool"
        }
      ],
      "stateMutability": "view",
      "type": "function",
      "constant": true
    },
    {
      "inputs": [
        {
          "internalType": "uint256",
          "name": "",
          "type": "uint256"
        }
      ],
      "name": "mints",
      "outputs": [
        {
          "internalType": "address",
          "name": "to",
          "type": "address"
        },
        {
          "internalType": "uint256",
          "name": "value",
          "type": "uint256"
        },
        {
          "internalType": "bool",
          "name": "executed",
          "type": "bool"
        },
        {
          "internalType": "uint256",
          "name": "numConfirmations",
          "type": "uint256"
        }
      ],
      "stateMutability": "view",
      "type": "function",
      "constant": true
    },
    {
      "inputs": [],
      "name": "name",
      "outputs": [
        {
          "internalType": "string",
          "name": "",
          "type": "string"
        }
      ],
      "stateMutability": "view",
      "type": "function",
      "constant": true
    },
    {
      "inputs": [],
      "name": "numConfirmationsRequired",
      "outputs": [
        {
          "internalType": "uint8",
          "name": "",
          "type": "uint8"
        }
      ],
      "stateMutability": "view",
      "type": "function",
      "constant": true
    },
    {
      "inputs": [
        {
          "internalType": "uint256",
          "name": "",
          "type": "uint256"
        }
      ],
      "name": "owners",
      "outputs": [
        {
          "internalType": "address",
          "name": "",
          "type": "address"
        }
      ],
      "stateMutability": "view",
      "type": "function",
      "constant": true
    },
    {
      "inputs": [],
      "name": "redPercent",
      "outputs": [
        {
          "internalType": "uint256",
          "name": "",
          "type": "uint256"
        }
      ],
      "stateMutability": "view",
      "type": "function",
      "constant": true
    },
    {
      "inputs": [],
      "name": "redPool",
      "outputs": [
        {
          "internalType": "address",
          "name": "",
          "type": "address"
        }
      ],
      "stateMutability": "view",
      "type": "function",
      "constant": true
    },
    {
      "inputs": [],
      "name": "symbol",
      "outputs": [
        {
          "internalType": "string",
          "name": "",
          "type": "string"
        }
      ],
      "stateMutability": "view",
      "type": "function",
      "constant": true
    },
    {
      "inputs": [],
      "name": "totalSupply",
      "outputs": [
        {
          "internalType": "uint256",
          "name": "",
          "type": "uint256"
        }
      ],
      "stateMutability": "view",
      "type": "function",
      "constant": true
    },
    {
      "inputs": [
        {
          "internalType": "address",
          "name": "newImplementation",
          "type": "address"
        }
      ],
      "name": "upgradeTo",
      "outputs": [],
      "stateMutability": "nonpayable",
      "type": "function"
    },
    {
      "inputs": [
        {
          "internalType": "address",
          "name": "newImplementation",
          "type": "address"
        },
        {
          "internalType": "bytes",
          "name": "data",
          "type": "bytes"
        }
      ],
      "name": "upgradeToAndCall",
      "outputs": [],
      "stateMutability": "payable",
      "type": "function",
      "payable": true
    },
    {
      "inputs": [
        {
          "internalType": "address",
          "name": "newOwner",
          "type": "address"
        }
      ],
      "name": "addOwner",
      "outputs": [],
      "stateMutability": "nonpayable",
      "type": "function"
    },
    {
      "inputs": [
        {
          "internalType": "address",
          "name": "newWhitelist",
          "type": "address"
        }
      ],
      "name": "setWhitelistedTo",
      "outputs": [],
      "stateMutability": "nonpayable",
      "type": "function"
    },
    {
      "inputs": [
        {
          "internalType": "address",
          "name": "newWhitelist",
          "type": "address"
        }
      ],
      "name": "removeWhitelistedTo",
      "outputs": [],
      "stateMutability": "nonpayable",
      "type": "function"
    },
    {
      "inputs": [
        {
          "internalType": "address",
          "name": "newWhitelist",
          "type": "address"
        }
      ],
      "name": "setWhitelistedFrom",
      "outputs": [],
      "stateMutability": "nonpayable",
      "type": "function"
    },
    {
      "inputs": [
        {
          "internalType": "address",
          "name": "newWhitelist",
          "type": "address"
        }
      ],
      "name": "removeWhitelistedFrom",
      "outputs": [],
      "stateMutability": "nonpayable",
      "type": "function"
    },
    {
      "inputs": [
        {
          "internalType": "address",
          "name": "_to",
          "type": "address"
        },
        {
          "internalType": "uint256",
          "name": "_value",
          "type": "uint256"
        }
      ],
      "name": "transfer",
      "outputs": [
        {
          "internalType": "bool",
          "name": "success",
          "type": "bool"
        }
      ],
      "stateMutability": "nonpayable",
      "type": "function"
    },
    {
      "inputs": [
        {
          "internalType": "address",
          "name": "_spender",
          "type": "address"
        },
        {
          "internalType": "uint256",
          "name": "_value",
          "type": "uint256"
        }
      ],
      "name": "approve",
      "outputs": [
        {
          "internalType": "bool",
          "name": "success",
          "type": "bool"
        }
      ],
      "stateMutability": "nonpayable",
      "type": "function"
    },
    {
      "inputs": [
        {
          "internalType": "address",
          "name": "_from",
          "type": "address"
        },
        {
          "internalType": "address",
          "name": "_to",
          "type": "address"
        },
        {
          "internalType": "uint256",
          "name": "_value",
          "type": "uint256"
        }
      ],
      "name": "transferFrom",
      "outputs": [
        {
          "internalType": "bool",
          "name": "success",
          "type": "bool"
        }
      ],
      "stateMutability": "nonpayable",
      "type": "function"
    },
    {
      "inputs": [
        {
          "internalType": "address",
          "name": "_to",
          "type": "address"
        },
        {
          "internalType": "uint256",
          "name": "_value",
          "type": "uint256"
        }
      ],
      "name": "submitMint",
      "outputs": [],
      "stateMutability": "nonpayable",
      "type": "function"
    },
    {
      "inputs": [
        {
          "internalType": "uint256",
          "name": "_mintIndex",
          "type": "uint256"
        }
      ],
      "name": "confirmMint",
      "outputs": [],
      "stateMutability": "nonpayable",
      "type": "function"
    },
    {
      "inputs": [
        {
          "internalType": "uint256",
          "name": "_mintIndex",
          "type": "uint256"
        }
      ],
      "name": "executeMint",
      "outputs": [],
      "stateMutability": "nonpayable",
      "type": "function"
    },
    {
      "inputs": [
        {
          "internalType": "uint256",
          "name": "_mintIndex",
          "type": "uint256"
        }
      ],
      "name": "revokeMintConfirmation",
      "outputs": [],
      "stateMutability": "nonpayable",
      "type": "function"
    },
    {
      "inputs": [
        {
          "internalType": "address",
          "name": "_account",
          "type": "address"
        },
        {
          "internalType": "uint256",
          "name": "_amount",
          "type": "uint256"
        }
      ],
      "name": "burn",
      "outputs": [],
      "stateMutability": "nonpayable",
      "type": "function"
    },
    {
      "inputs": [],
      "name": "getOwners",
      "outputs": [
        {
          "internalType": "address[]",
          "name": "",
          "type": "address[]"
        }
      ],
      "stateMutability": "view",
      "type": "function",
      "constant": true
    },
    {
      "inputs": [
        {
          "internalType": "address",
          "name": "_newLPool",
          "type": "address"
        }
      ],
      "name": "updateLPoolAdd",
      "outputs": [],
      "stateMutability": "nonpayable",
      "type": "function"
    },
    {
      "inputs": [
        {
          "internalType": "address",
          "name": "_newRPool",
          "type": "address"
        }
      ],
      "name": "updateRPoolAdd",
      "outputs": [],
      "stateMutability": "nonpayable",
      "type": "function"
    },
    {
      "inputs": [
        {
          "internalType": "uint256",
          "name": "_newBurnPercent",
          "type": "uint256"
        }
      ],
      "name": "updateBurnPercent",
      "outputs": [],
      "stateMutability": "nonpayable",
      "type": "function"
    },
    {
      "inputs": [
        {
          "internalType": "uint256",
          "name": "_newLiqPercent",
          "type": "uint256"
        }
      ],
      "name": "updateLiqPercent",
      "outputs": [],
      "stateMutability": "nonpayable",
      "type": "function"
    },
    {
      "inputs": [
        {
          "internalType": "uint256",
          "name": "_newRedPercent",
          "type": "uint256"
        }
      ],
      "name": "updateRedPercent",
      "outputs": [],
      "stateMutability": "nonpayable",
      "type": "function"
    },
    {
      "inputs": [
        {
          "internalType": "address",
          "name": "_to",
          "type": "address"
        },
        {
          "internalType": "address[]",
          "name": "_owners",
          "type": "address[]"
        },
        {
          "internalType": "uint8",
          "name": "_numConfirmationsRequired",
          "type": "uint8"
        },
        {
          "internalType": "address",
          "name": "_lPool",
          "type": "address"
        },
        {
          "internalType": "address",
          "name": "_rPool",
          "type": "address"
        },
        {
          "internalType": "uint256",
          "name": "_burnPercent",
          "type": "uint256"
        },
        {
          "internalType": "uint256",
          "name": "_liqPercent",
          "type": "uint256"
        },
        {
          "internalType": "uint256",
          "name": "_redPercent",
          "type": "uint256"
        }
      ],
      "name": "initialize",
      "outputs": [],
      "stateMutability": "nonpayable",
      "type": "function"
    }
  ],
  "bytecode": "0x608060405234801561001057600080fd5b506150a9806100206000396000f3fe6080604052600436106102515760003560e01c806367e76d5311610139578063ca04d2d8116100b6578063e2657da11161007a578063e2657da114610916578063e78fd9a81461093f578063e7a486fb14610968578063e8a4c2eb14610991578063f74f9bfd146109ba578063f7567244146109e557610251565b8063ca04d2d814610809578063ce437b9414610846578063d0549b8514610883578063d873c30d146108ae578063dd62ed3e146108d957610251565b80638aa4ef2c116100fd5780638aa4ef2c1461072457806395d89b411461074d5780639dc29fac14610778578063a0e67e2b146107a1578063a9059cbb146107cc57610251565b806367e76d5314610641578063689bac9d1461066a5780637065cb481461069357806370a08231146106bc578063740b91f4146106f957610251565b80633659cfe6116101d25780634f1ef286116101965780634f1ef286146105175780635422e495146105335780635a56e3591461055e5780635b0140291461059b5780636350b2c2146105d8578063656f447b1461061857610251565b80633659cfe61461044a5780633838d4e314610473578063389993281461049c5780633fcfb5f6146104c55780634d28b4ba146104ee57610251565b806318160ddd1161021957806318160ddd1461035157806323b872dd1461037c5780632f54bf6e146103b9578063313ce567146103f657806335e8b82e1461042157610251565b8063025e7c271461025657806303807ee51461029357806305f1ad9e146102be57806306fdde03146102e9578063095ea7b314610314575b600080fd5b34801561026257600080fd5b5061027d60048036038101906102789190614561565b610a0e565b60405161028a9190614820565b60405180910390f35b34801561029f57600080fd5b506102a8610a4d565b6040516102b591906149df565b60405180910390f35b3480156102ca57600080fd5b506102d3610a53565b6040516102e09190614820565b60405180910390f35b3480156102f557600080fd5b506102fe610a79565b60405161030b91906148bd565b60405180910390f35b34801561032057600080fd5b5061033b60048036038101906103369190614525565b610b07565b60405161034891906148a2565b60405180910390f35b34801561035d57600080fd5b50610366610bf9565b60405161037391906149df565b60405180910390f35b34801561038857600080fd5b506103a3600480360381019061039e91906143b8565b610bff565b6040516103b091906148a2565b60405180910390f35b3480156103c557600080fd5b506103e060048036038101906103db9190614353565b6110f5565b6040516103ed91906148a2565b60405180910390f35b34801561040257600080fd5b5061040b611115565b60405161041891906149fa565b60405180910390f35b34801561042d57600080fd5b5061044860048036038101906104439190614353565b611128565b005b34801561045657600080fd5b50610471600480360381019061046c9190614353565b61128d565b005b34801561047f57600080fd5b5061049a60048036038101906104959190614353565b6112b4565b005b3480156104a857600080fd5b506104c360048036038101906104be9190614561565b61142c565b005b3480156104d157600080fd5b506104ec60048036038101906104e79190614561565b6114ec565b005b3480156104fa57600080fd5b5061051560048036038101906105109190614353565b611785565b005b610531600480360381019061052c91906144d1565b6118fc565b005b34801561053f57600080fd5b50610548611915565b60405161055591906149df565b60405180910390f35b34801561056a57600080fd5b5061058560048036038101906105809190614561565b61191b565b60405161059291906148a2565b60405180910390f35b3480156105a757600080fd5b506105c260048036038101906105bd9190614353565b61193b565b6040516105cf91906148a2565b60405180910390f35b3480156105e457600080fd5b506105ff60048036038101906105fa9190614561565b61195b565b60405161060f949392919061483b565b60405180910390f35b34801561062457600080fd5b5061063f600480360381019061063a9190614407565b6119b8565b005b34801561064d57600080fd5b5061066860048036038101906106639190614353565b611f4f565b005b34801561067657600080fd5b50610691600480360381019061068c9190614561565b6120b4565b005b34801561069f57600080fd5b506106ba60048036038101906106b59190614353565b612386565b005b3480156106c857600080fd5b506106e360048036038101906106de9190614353565b612561565b6040516106f091906149df565b60405180910390f35b34801561070557600080fd5b5061070e612579565b60405161071b9190614820565b60405180910390f35b34801561073057600080fd5b5061074b60048036038101906107469190614561565b61259f565b005b34801561075957600080fd5b5061076261265f565b60405161076f91906148bd565b60405180910390f35b34801561078457600080fd5b5061079f600480360381019061079a9190614525565b6126ed565b005b3480156107ad57600080fd5b506107b66128de565b6040516107c39190614880565b60405180910390f35b3480156107d857600080fd5b506107f360048036038101906107ee9190614525565b61296c565b60405161080091906148a2565b60405180910390f35b34801561081557600080fd5b50610830600480360381019061082b9190614353565b612cb2565b60405161083d91906148a2565b60405180910390f35b34801561085257600080fd5b5061086d6004803603810190610868919061458a565b612cd2565b60405161087a91906148a2565b60405180910390f35b34801561088f57600080fd5b50610898612d01565b6040516108a591906149fa565b60405180910390f35b3480156108ba57600080fd5b506108c3612d14565b6040516108d091906149df565b60405180910390f35b3480156108e557600080fd5b5061090060048036038101906108fb919061437c565b612d1a565b60405161090d91906149df565b60405180910390f35b34801561092257600080fd5b5061093d60048036038101906109389190614353565b612d3f565b005b34801561094b57600080fd5b5061096660048036038101906109619190614525565b612eb6565b005b34801561097457600080fd5b5061098f600480360381019061098a9190614561565b6130c4565b005b34801561099d57600080fd5b506109b860048036038101906109b39190614561565b613319565b005b3480156109c657600080fd5b506109cf6133d9565b6040516109dc91906149df565b60405180910390f35b3480156109f157600080fd5b50610a0c6004803603810190610a079190614353565b6133df565b005b606a8181548110610a1e57600080fd5b906000526020600020016000915054906101000a900473ffffffffffffffffffffffffffffffffffffffff1681565b606e5481565b606c60009054906101000a900473ffffffffffffffffffffffffffffffffffffffff1681565b60658054610a8690614cae565b80601f0160208091040260200160405190810160405280929190818152602001828054610ab290614cae565b8015610aff5780601f10610ad457610100808354040283529160200191610aff565b820191906000526020600020905b815481529060010190602001808311610ae257829003601f168201915b505050505081565b600081607260003373ffffffffffffffffffffffffffffffffffffffff1673ffffffffffffffffffffffffffffffffffffffff16815260200190815260200160002060008573ffffffffffffffffffffffffffffffffffffffff1673ffffffffffffffffffffffffffffffffffffffff168152602001908152602001600020819055508273ffffffffffffffffffffffffffffffffffffffff163373ffffffffffffffffffffffffffffffffffffffff167f8c5be1e5ebec7d5bd14f71427d1e84f3dd0314c0f7b2291e5b200ac8c7c3b92584604051610be791906149df565b60405180910390a36001905092915050565b60675481565b600080821015610c0e57600080fd5b607160008573ffffffffffffffffffffffffffffffffffffffff1673ffffffffffffffffffffffffffffffffffffffff16815260200190815260200160002054821115610c5a57600080fd5b607260008573ffffffffffffffffffffffffffffffffffffffff1673ffffffffffffffffffffffffffffffffffffffff16815260200190815260200160002060003373ffffffffffffffffffffffffffffffffffffffff1673ffffffffffffffffffffffffffffffffffffffff16815260200190815260200160002054821115610ce357600080fd5b607760008473ffffffffffffffffffffffffffffffffffffffff1673ffffffffffffffffffffffffffffffffffffffff16815260200190815260200160002060009054906101000a900460ff1680610d845750607860003373ffffffffffffffffffffffffffffffffffffffff1673ffffffffffffffffffffffffffffffffffffffff16815260200190815260200160002060009054906101000a900460ff165b15610f365781607260008673ffffffffffffffffffffffffffffffffffffffff1673ffffffffffffffffffffffffffffffffffffffff16815260200190815260200160002060003373ffffffffffffffffffffffffffffffffffffffff1673ffffffffffffffffffffffffffffffffffffffff1681526020019081526020016000206000828254610e159190614be3565b9250508190555081607160008673ffffffffffffffffffffffffffffffffffffffff1673ffffffffffffffffffffffffffffffffffffffff1681526020019081526020016000206000828254610e6b9190614be3565b9250508190555081607160008573ffffffffffffffffffffffffffffffffffffffff1673ffffffffffffffffffffffffffffffffffffffff1681526020019081526020016000206000828254610ec19190614b02565b925050819055508273ffffffffffffffffffffffffffffffffffffffff168473ffffffffffffffffffffffffffffffffffffffff167fddf252ad1be2c89b69c2b068fc378daa952ba7f163c4a11628f55a4df523b3ef84604051610f2591906149df565b60405180910390a3600190506110ee565b81607260008673ffffffffffffffffffffffffffffffffffffffff1673ffffffffffffffffffffffffffffffffffffffff16815260200190815260200160002060003373ffffffffffffffffffffffffffffffffffffffff1673ffffffffffffffffffffffffffffffffffffffff1681526020019081526020016000206000828254610fc29190614be3565b925050819055506000610fd58386613557565b905080607160008773ffffffffffffffffffffffffffffffffffffffff1673ffffffffffffffffffffffffffffffffffffffff16815260200190815260200160002060008282546110269190614be3565b9250508190555080607160008673ffffffffffffffffffffffffffffffffffffffff1673ffffffffffffffffffffffffffffffffffffffff168152602001908152602001600020600082825461107c9190614b02565b925050819055508373ffffffffffffffffffffffffffffffffffffffff168573ffffffffffffffffffffffffffffffffffffffff167fddf252ad1be2c89b69c2b068fc378daa952ba7f163c4a11628f55a4df523b3ef836040516110e091906149df565b60405180910390a360019150505b9392505050565b60736020528060005260406000206000915054906101000a900460ff1681565b606860009054906101000a900460ff1681565b607360003373ffffffffffffffffffffffffffffffffffffffff1673ffffffffffffffffffffffffffffffffffffffff16815260200190815260200160002060009054906101000a900460ff166111b4576040517f08c379a00000000000000000000000000000000000000000000000000000000081526004016111ab906149bf565b60405180910390fd5b600073ffffffffffffffffffffffffffffffffffffffff168173ffffffffffffffffffffffffffffffffffffffff1614156111ee57600080fd5b606b60009054906101000a900473ffffffffffffffffffffffffffffffffffffffff1673ffffffffffffffffffffffffffffffffffffffff168173ffffffffffffffffffffffffffffffffffffffff16141561124957600080fd5b80606b60006101000a81548173ffffffffffffffffffffffffffffffffffffffff021916908373ffffffffffffffffffffffffffffffffffffffff16021790555050565b611296816135d8565b6112b181604051806020016040528060008152506000613667565b50565b607360003373ffffffffffffffffffffffffffffffffffffffff1673ffffffffffffffffffffffffffffffffffffffff16815260200190815260200160002060009054906101000a900460ff16611340576040517f08c379a0000000000000000000000000000000000000000000000000000000008152600401611337906149bf565b60405180910390fd5b600073ffffffffffffffffffffffffffffffffffffffff168173ffffffffffffffffffffffffffffffffffffffff16141561137a57600080fd5b607860008273ffffffffffffffffffffffffffffffffffffffff1673ffffffffffffffffffffffffffffffffffffffff16815260200190815260200160002060009054906101000a900460ff16156113d157600080fd5b6001607860008373ffffffffffffffffffffffffffffffffffffffff1673ffffffffffffffffffffffffffffffffffffffff16815260200190815260200160002060006101000a81548160ff02191690831515021790555050565b607360003373ffffffffffffffffffffffffffffffffffffffff1673ffffffffffffffffffffffffffffffffffffffff16815260200190815260200160002060009054906101000a900460ff166114b8576040517f08c379a00000000000000000000000000000000000000000000000000000000081526004016114af906149bf565b60405180910390fd5b600081101580156114ca575060648111155b6114d357600080fd5b606e548114156114e257600080fd5b80606e8190555050565b607360003373ffffffffffffffffffffffffffffffffffffffff1673ffffffffffffffffffffffffffffffffffffffff16815260200190815260200160002060009054906101000a900460ff16611578576040517f08c379a000000000000000000000000000000000000000000000000000000000815260040161156f906149bf565b60405180910390fd5b806075600082815260200190815260200160002060009054906101000a900460ff166115d9576040517f08c379a00000000000000000000000000000000000000000000000000000000081526004016115d09061495f565b60405180910390fd5b816076600082815260200190815260200160002060020160009054906101000a900460ff161561163e576040517f08c379a00000000000000000000000000000000000000000000000000000000081526004016116359061499f565b60405180910390fd5b6074600084815260200190815260200160002060003373ffffffffffffffffffffffffffffffffffffffff1673ffffffffffffffffffffffffffffffffffffffff16815260200190815260200160002060009054906101000a900460ff166116a557600080fd5b60016076600085815260200190815260200160002060030160008282546116cc9190614be3565b9250508190555060006074600085815260200190815260200160002060003373ffffffffffffffffffffffffffffffffffffffff1673ffffffffffffffffffffffffffffffffffffffff16815260200190815260200160002060006101000a81548160ff021916908315150217905550823373ffffffffffffffffffffffffffffffffffffffff167f52d89939a6a55066c70d2dbb96275ed346cf0cd1623875ef509038f4850ebf6f60405160405180910390a3505050565b607360003373ffffffffffffffffffffffffffffffffffffffff1673ffffffffffffffffffffffffffffffffffffffff16815260200190815260200160002060009054906101000a900460ff16611811576040517f08c379a0000000000000000000000000000000000000000000000000000000008152600401611808906149bf565b60405180910390fd5b600073ffffffffffffffffffffffffffffffffffffffff168173ffffffffffffffffffffffffffffffffffffffff16141561184b57600080fd5b607860008273ffffffffffffffffffffffffffffffffffffffff1673ffffffffffffffffffffffffffffffffffffffff16815260200190815260200160002060009054906101000a900460ff166118a157600080fd5b6000607860008373ffffffffffffffffffffffffffffffffffffffff1673ffffffffffffffffffffffffffffffffffffffff16815260200190815260200160002060006101000a81548160ff02191690831515021790555050565b611905826135d8565b61191182826001613667565b5050565b606f5481565b60756020528060005260406000206000915054906101000a900460ff1681565b60776020528060005260406000206000915054906101000a900460ff1681565b60766020528060005260406000206000915090508060000160009054906101000a900473ffffffffffffffffffffffffffffffffffffffff16908060010154908060020160009054906101000a900460ff16908060030154905084565b600060019054906101000a900460ff16806119de575060008054906101000a900460ff16155b611a1d576040517f08c379a0000000000000000000000000000000000000000000000000000000008152600401611a14906148ff565b60405180910390fd5b60008060019054906101000a900460ff161590508015611a6d576001600060016101000a81548160ff02191690831515021790555060016000806101000a81548160ff0219169083151502179055505b6040518060400160405280600581526020017f505552534500000000000000000000000000000000000000000000000000000081525060659080519060200190611ab8929190614173565b506040518060400160405280600281526020017f505200000000000000000000000000000000000000000000000000000000000081525060669080519060200190611b04929190614173565b506bcecb8f27f4200f3a000000006067819055506012606860006101000a81548160ff021916908360ff16021790555069043c33c19375648000006069819055506000885111611b5357600080fd5b600073ffffffffffffffffffffffffffffffffffffffff168673ffffffffffffffffffffffffffffffffffffffff161415611b8d57600080fd5b600073ffffffffffffffffffffffffffffffffffffffff168573ffffffffffffffffffffffffffffffffffffffff161415611bc757600080fd5b6000841015611bd557600080fd5b6000831015611be357600080fd5b6000821015611bf157600080fd5b60008760ff16118015611c08575087518760ff1611155b611c1157600080fd5b60005b8851811015611dc2576000898281518110611c58577f4e487b7100000000000000000000000000000000000000000000000000000000600052603260045260246000fd5b60200260200101519050600073ffffffffffffffffffffffffffffffffffffffff168173ffffffffffffffffffffffffffffffffffffffff161415611c9c57600080fd5b607360008273ffffffffffffffffffffffffffffffffffffffff1673ffffffffffffffffffffffffffffffffffffffff16815260200190815260200160002060009054906101000a900460ff1615611cf357600080fd5b6001607360008373ffffffffffffffffffffffffffffffffffffffff1673ffffffffffffffffffffffffffffffffffffffff16815260200190815260200160002060006101000a81548160ff021916908315150217905550606a819080600181540180825580915050600190039060005260206000200160009091909190916101000a81548173ffffffffffffffffffffffffffffffffffffffff021916908373ffffffffffffffffffffffffffffffffffffffff160217905550508080611dba90614d11565b915050611c14565b5086606860016101000a81548160ff021916908360ff16021790555085606b60006101000a81548173ffffffffffffffffffffffffffffffffffffffff021916908373ffffffffffffffffffffffffffffffffffffffff16021790555084606c60006101000a81548173ffffffffffffffffffffffffffffffffffffffff021916908373ffffffffffffffffffffffffffffffffffffffff16021790555083606e8190555082606f8190555081607081905550606754607160008b73ffffffffffffffffffffffffffffffffffffffff1673ffffffffffffffffffffffffffffffffffffffff168152602001908152602001600020819055508873ffffffffffffffffffffffffffffffffffffffff16600073ffffffffffffffffffffffffffffffffffffffff167fab8530f87dc9b59234c4623bf917212bb2536d647574c8e7e5da92c2ede0c9f8606754604051611f1b91906149df565b60405180910390a38015611f445760008060016101000a81548160ff0219169083151502179055505b505050505050505050565b607360003373ffffffffffffffffffffffffffffffffffffffff1673ffffffffffffffffffffffffffffffffffffffff16815260200190815260200160002060009054906101000a900460ff16611fdb576040517f08c379a0000000000000000000000000000000000000000000000000000000008152600401611fd2906149bf565b60405180910390fd5b600073ffffffffffffffffffffffffffffffffffffffff168173ffffffffffffffffffffffffffffffffffffffff16141561201557600080fd5b606c60009054906101000a900473ffffffffffffffffffffffffffffffffffffffff1673ffffffffffffffffffffffffffffffffffffffff168173ffffffffffffffffffffffffffffffffffffffff16141561207057600080fd5b80606c60006101000a81548173ffffffffffffffffffffffffffffffffffffffff021916908373ffffffffffffffffffffffffffffffffffffffff16021790555050565b607360003373ffffffffffffffffffffffffffffffffffffffff1673ffffffffffffffffffffffffffffffffffffffff16815260200190815260200160002060009054906101000a900460ff16612140576040517f08c379a0000000000000000000000000000000000000000000000000000000008152600401612137906149bf565b60405180910390fd5b806075600082815260200190815260200160002060009054906101000a900460ff166121a1576040517f08c379a00000000000000000000000000000000000000000000000000000000081526004016121989061495f565b60405180910390fd5b816076600082815260200190815260200160002060020160009054906101000a900460ff1615612206576040517f08c379a00000000000000000000000000000000000000000000000000000000081526004016121fd9061499f565b60405180910390fd5b826074600082815260200190815260200160002060003373ffffffffffffffffffffffffffffffffffffffff1673ffffffffffffffffffffffffffffffffffffffff16815260200190815260200160002060009054906101000a900460ff16156122a5576040517f08c379a000000000000000000000000000000000000000000000000000000000815260040161229c9061491f565b60405180910390fd5b60016076600086815260200190815260200160002060030160008282546122cc9190614b02565b9250508190555060016074600086815260200190815260200160002060003373ffffffffffffffffffffffffffffffffffffffff1673ffffffffffffffffffffffffffffffffffffffff16815260200190815260200160002060006101000a81548160ff021916908315150217905550833373ffffffffffffffffffffffffffffffffffffffff167f28d2574f2cdddb0ef07218c31a006e99809ab778fba32bc02388a6209c82857e60405160405180910390a350505050565b607360003373ffffffffffffffffffffffffffffffffffffffff1673ffffffffffffffffffffffffffffffffffffffff16815260200190815260200160002060009054906101000a900460ff16612412576040517f08c379a0000000000000000000000000000000000000000000000000000000008152600401612409906149bf565b60405180910390fd5b600073ffffffffffffffffffffffffffffffffffffffff168173ffffffffffffffffffffffffffffffffffffffff16141561244c57600080fd5b607360008273ffffffffffffffffffffffffffffffffffffffff1673ffffffffffffffffffffffffffffffffffffffff16815260200190815260200160002060009054906101000a900460ff16156124a357600080fd5b6001607360008373ffffffffffffffffffffffffffffffffffffffff1673ffffffffffffffffffffffffffffffffffffffff16815260200190815260200160002060006101000a81548160ff021916908315150217905550606a819080600181540180825580915050600190039060005260206000200160009091909190916101000a81548173ffffffffffffffffffffffffffffffffffffffff021916908373ffffffffffffffffffffffffffffffffffffffff16021790555050565b60716020528060005260406000206000915090505481565b606b60009054906101000a900473ffffffffffffffffffffffffffffffffffffffff1681565b607360003373ffffffffffffffffffffffffffffffffffffffff1673ffffffffffffffffffffffffffffffffffffffff16815260200190815260200160002060009054906101000a900460ff1661262b576040517f08c379a0000000000000000000000000000000000000000000000000000000008152600401612622906149bf565b60405180910390fd5b6000811015801561263d575060648111155b61264657600080fd5b606f5481141561265557600080fd5b80606f8190555050565b6066805461266c90614cae565b80601f016020809104026020016040519081016040528092919081815260200182805461269890614cae565b80156126e55780601f106126ba576101008083540402835291602001916126e5565b820191906000526020600020905b8154815290600101906020018083116126c857829003601f168201915b505050505081565b607360003373ffffffffffffffffffffffffffffffffffffffff1673ffffffffffffffffffffffffffffffffffffffff16815260200190815260200160002060009054906101000a900460ff16612779576040517f08c379a0000000000000000000000000000000000000000000000000000000008152600401612770906149bf565b60405180910390fd5b600073ffffffffffffffffffffffffffffffffffffffff168273ffffffffffffffffffffffffffffffffffffffff1614156127b357600080fd5b6000607160008473ffffffffffffffffffffffffffffffffffffffff1673ffffffffffffffffffffffffffffffffffffffff1681526020019081526020016000205490508181101561280457600080fd5b81607160008573ffffffffffffffffffffffffffffffffffffffff1673ffffffffffffffffffffffffffffffffffffffff16815260200190815260200160002060008282546128539190614be3565b92505081905550816067600082825461286c9190614be3565b92505081905550600073ffffffffffffffffffffffffffffffffffffffff168373ffffffffffffffffffffffffffffffffffffffff167fbac40739b0d4ca32fa2d82fc91630465ba3eddd1598da6fca393b26fb63b9453846040516128d191906149df565b60405180910390a3505050565b6060606a80548060200260200160405190810160405280929190818152602001828054801561296257602002820191906000526020600020905b8160009054906101000a900473ffffffffffffffffffffffffffffffffffffffff1673ffffffffffffffffffffffffffffffffffffffff1681526020019060010190808311612918575b5050505050905090565b60008082101561297b57600080fd5b81607160003373ffffffffffffffffffffffffffffffffffffffff1673ffffffffffffffffffffffffffffffffffffffff1681526020019081526020016000205410156129c757600080fd5b607760008473ffffffffffffffffffffffffffffffffffffffff1673ffffffffffffffffffffffffffffffffffffffff16815260200190815260200160002060009054906101000a900460ff1680612a685750607860003373ffffffffffffffffffffffffffffffffffffffff1673ffffffffffffffffffffffffffffffffffffffff16815260200190815260200160002060009054906101000a900460ff165b15612b875781607160003373ffffffffffffffffffffffffffffffffffffffff1673ffffffffffffffffffffffffffffffffffffffff1681526020019081526020016000206000828254612abc9190614be3565b9250508190555081607160008573ffffffffffffffffffffffffffffffffffffffff1673ffffffffffffffffffffffffffffffffffffffff1681526020019081526020016000206000828254612b129190614b02565b925050819055508273ffffffffffffffffffffffffffffffffffffffff163373ffffffffffffffffffffffffffffffffffffffff167fddf252ad1be2c89b69c2b068fc378daa952ba7f163c4a11628f55a4df523b3ef84604051612b7691906149df565b60405180910390a360019050612cac565b6000612b938333613557565b905080607160003373ffffffffffffffffffffffffffffffffffffffff1673ffffffffffffffffffffffffffffffffffffffff1681526020019081526020016000206000828254612be49190614be3565b9250508190555080607160008673ffffffffffffffffffffffffffffffffffffffff1673ffffffffffffffffffffffffffffffffffffffff1681526020019081526020016000206000828254612c3a9190614b02565b925050819055508373ffffffffffffffffffffffffffffffffffffffff163373ffffffffffffffffffffffffffffffffffffffff167fddf252ad1be2c89b69c2b068fc378daa952ba7f163c4a11628f55a4df523b3ef83604051612c9e91906149df565b60405180910390a360019150505b92915050565b60786020528060005260406000206000915054906101000a900460ff1681565b60746020528160005260406000206020528060005260406000206000915091509054906101000a900460ff1681565b606860019054906101000a900460ff1681565b60705481565b6072602052816000526040600020602052806000526040600020600091509150505481565b607360003373ffffffffffffffffffffffffffffffffffffffff1673ffffffffffffffffffffffffffffffffffffffff16815260200190815260200160002060009054906101000a900460ff16612dcb576040517f08c379a0000000000000000000000000000000000000000000000000000000008152600401612dc2906149bf565b60405180910390fd5b600073ffffffffffffffffffffffffffffffffffffffff168173ffffffffffffffffffffffffffffffffffffffff161415612e0557600080fd5b607760008273ffffffffffffffffffffffffffffffffffffffff1673ffffffffffffffffffffffffffffffffffffffff16815260200190815260200160002060009054906101000a900460ff16612e5b57600080fd5b6000607760008373ffffffffffffffffffffffffffffffffffffffff1673ffffffffffffffffffffffffffffffffffffffff16815260200190815260200160002060006101000a81548160ff02191690831515021790555050565b607360003373ffffffffffffffffffffffffffffffffffffffff1673ffffffffffffffffffffffffffffffffffffffff16815260200190815260200160002060009054906101000a900460ff16612f42576040517f08c379a0000000000000000000000000000000000000000000000000000000008152600401612f39906149bf565b60405180910390fd5b60405180608001604052808373ffffffffffffffffffffffffffffffffffffffff168152602001828152602001600015158152602001600081525060766000606d54815260200190815260200160002060008201518160000160006101000a81548173ffffffffffffffffffffffffffffffffffffffff021916908373ffffffffffffffffffffffffffffffffffffffff1602179055506020820151816001015560408201518160020160006101000a81548160ff02191690831515021790555060608201518160030155905050600160756000606d54815260200190815260200160002060006101000a81548160ff0219169083151502179055508173ffffffffffffffffffffffffffffffffffffffff16606d543373ffffffffffffffffffffffffffffffffffffffff167f607576e28789836289a7d4ffb36f015c09821144e1bd861595a3a2b1907762718460405161309e91906149df565b60405180910390a46001606d60008282546130b99190614b02565b925050819055505050565b607360003373ffffffffffffffffffffffffffffffffffffffff1673ffffffffffffffffffffffffffffffffffffffff16815260200190815260200160002060009054906101000a900460ff16613150576040517f08c379a0000000000000000000000000000000000000000000000000000000008152600401613147906149bf565b60405180910390fd5b806075600082815260200190815260200160002060009054906101000a900460ff166131b1576040517f08c379a00000000000000000000000000000000000000000000000000000000081526004016131a89061495f565b60405180910390fd5b816076600082815260200190815260200160002060020160009054906101000a900460ff1615613216576040517f08c379a000000000000000000000000000000000000000000000000000000000815260040161320d9061499f565b60405180910390fd5b606860019054906101000a900460ff1660ff166076600085815260200190815260200160002060030154101561324b57600080fd5b60016076600085815260200190815260200160002060020160006101000a81548160ff0219169083151502179055506132d06076600085815260200190815260200160002060000160009054906101000a900473ffffffffffffffffffffffffffffffffffffffff166076600086815260200190815260200160002060010154613838565b823373ffffffffffffffffffffffffffffffffffffffff167fd922735475fb08eaa1cb8b220e31a16349b32c129b237923fe659b56b84e668b60405160405180910390a3505050565b607360003373ffffffffffffffffffffffffffffffffffffffff1673ffffffffffffffffffffffffffffffffffffffff16815260200190815260200160002060009054906101000a900460ff166133a5576040517f08c379a000000000000000000000000000000000000000000000000000000000815260040161339c906149bf565b60405180910390fd5b600081101580156133b7575060648111155b6133c057600080fd5b6070548114156133cf57600080fd5b8060708190555050565b606d5481565b607360003373ffffffffffffffffffffffffffffffffffffffff1673ffffffffffffffffffffffffffffffffffffffff16815260200190815260200160002060009054906101000a900460ff1661346b576040517f08c379a0000000000000000000000000000000000000000000000000000000008152600401613462906149bf565b60405180910390fd5b600073ffffffffffffffffffffffffffffffffffffffff168173ffffffffffffffffffffffffffffffffffffffff1614156134a557600080fd5b607760008273ffffffffffffffffffffffffffffffffffffffff1673ffffffffffffffffffffffffffffffffffffffff16815260200190815260200160002060009054906101000a900460ff16156134fc57600080fd5b6001607760008373ffffffffffffffffffffffffffffffffffffffff1673ffffffffffffffffffffffffffffffffffffffff16815260200190815260200160002060006101000a81548160ff02191690831515021790555050565b60008060009050600080600061356c876139d7565b809350819450829550505050600083101580613589575060008210155b80613595575060008110155b156135a7576135a686848484613a75565b5b808284896135b59190614be3565b6135bf9190614be3565b6135c99190614be3565b93508394505050505092915050565b607360003373ffffffffffffffffffffffffffffffffffffffff1673ffffffffffffffffffffffffffffffffffffffff16815260200190815260200160002060009054906101000a900460ff16613664576040517f08c379a000000000000000000000000000000000000000000000000000000000815260040161365b906149bf565b60405180910390fd5b50565b6000613671613ea2565b905061367c84613ef9565b6000835111806136895750815b1561369a576136988484613fb2565b505b60006136c87f4910fdfa16fed3260ed0e7147f7cc6da11a60208b5b9406d12a635614ffd914360001b614096565b90508060000160009054906101000a900460ff166138315760018160000160006101000a81548160ff02191690831515021790555061379485836040516024016137129190614820565b6040516020818303038152906040527f3659cfe6000000000000000000000000000000000000000000000000000000007bffffffffffffffffffffffffffffffffffffffffffffffffffffffff19166020820180517bffffffffffffffffffffffffffffffffffffffffffffffffffffffff8381831617835250505050613fb2565b5060008160000160006101000a81548160ff0219169083151502179055506137ba613ea2565b73ffffffffffffffffffffffffffffffffffffffff168273ffffffffffffffffffffffffffffffffffffffff1614613827576040517f08c379a000000000000000000000000000000000000000000000000000000000815260040161381e906148df565b60405180910390fd5b613830856140a0565b5b5050505050565b607360003373ffffffffffffffffffffffffffffffffffffffff1673ffffffffffffffffffffffffffffffffffffffff16815260200190815260200160002060009054906101000a900460ff166138c4576040517f08c379a00000000000000000000000000000000000000000000000000000000081526004016138bb906149bf565b60405180910390fd5b600073ffffffffffffffffffffffffffffffffffffffff168273ffffffffffffffffffffffffffffffffffffffff1614156138fe57600080fd5b80607160008473ffffffffffffffffffffffffffffffffffffffff1673ffffffffffffffffffffffffffffffffffffffff168152602001908152602001600020600082825461394d9190614b02565b9250508190555080606760008282546139669190614b02565b925050819055508173ffffffffffffffffffffffffffffffffffffffff16600073ffffffffffffffffffffffffffffffffffffffff167fab8530f87dc9b59234c4623bf917212bb2536d647574c8e7e5da92c2ede0c9f8836040516139cb91906149df565b60405180910390a35050565b6000806000806000806069546067541115613a62576064606e54886139fc9190614b89565b613a069190614b58565b92506064606f5488613a189190614b89565b613a229190614b58565b9150606460705488613a349190614b89565b613a3e9190614b58565b90506000606954606754613a529190614be3565b905080841115613a60578093505b505b8282829550955095505050509193909250565b600073ffffffffffffffffffffffffffffffffffffffff168473ffffffffffffffffffffffffffffffffffffffff161415613aaf57600080fd5b6000607160008673ffffffffffffffffffffffffffffffffffffffff1673ffffffffffffffffffffffffffffffffffffffff1681526020019081526020016000205490506000828486613b029190614b02565b613b0c9190614b02565b905080821015613b1b57600080fd5b84607160008873ffffffffffffffffffffffffffffffffffffffff1673ffffffffffffffffffffffffffffffffffffffff1681526020019081526020016000206000828254613b6a9190614be3565b9250508190555083607160008873ffffffffffffffffffffffffffffffffffffffff1673ffffffffffffffffffffffffffffffffffffffff1681526020019081526020016000206000828254613bc09190614be3565b9250508190555082607160008873ffffffffffffffffffffffffffffffffffffffff1673ffffffffffffffffffffffffffffffffffffffff1681526020019081526020016000206000828254613c169190614be3565b925050819055508460676000828254613c2f9190614be3565b925050819055508360716000606b60009054906101000a900473ffffffffffffffffffffffffffffffffffffffff1673ffffffffffffffffffffffffffffffffffffffff1673ffffffffffffffffffffffffffffffffffffffff1681526020019081526020016000206000828254613ca79190614b02565b925050819055508260716000606c60009054906101000a900473ffffffffffffffffffffffffffffffffffffffff1673ffffffffffffffffffffffffffffffffffffffff1673ffffffffffffffffffffffffffffffffffffffff1681526020019081526020016000206000828254613d1f9190614b02565b92505081905550600073ffffffffffffffffffffffffffffffffffffffff168673ffffffffffffffffffffffffffffffffffffffff167fbac40739b0d4ca32fa2d82fc91630465ba3eddd1598da6fca393b26fb63b945387604051613d8491906149df565b60405180910390a3606b60009054906101000a900473ffffffffffffffffffffffffffffffffffffffff1673ffffffffffffffffffffffffffffffffffffffff163373ffffffffffffffffffffffffffffffffffffffff167fddf252ad1be2c89b69c2b068fc378daa952ba7f163c4a11628f55a4df523b3ef86604051613e0b91906149df565b60405180910390a3606c60009054906101000a900473ffffffffffffffffffffffffffffffffffffffff1673ffffffffffffffffffffffffffffffffffffffff163373ffffffffffffffffffffffffffffffffffffffff167fddf252ad1be2c89b69c2b068fc378daa952ba7f163c4a11628f55a4df523b3ef85604051613e9291906149df565b60405180910390a3505050505050565b6000613ed07f360894a13ba1a3210667c828492db98dca3e2076cc3735a920a3ca505d382bbc60001b6140ef565b60000160009054906101000a900473ffffffffffffffffffffffffffffffffffffffff16905090565b613f02816140f9565b613f41576040517f08c379a0000000000000000000000000000000000000000000000000000000008152600401613f389061493f565b60405180910390fd5b80613f6e7f360894a13ba1a3210667c828492db98dca3e2076cc3735a920a3ca505d382bbc60001b6140ef565b60000160006101000a81548173ffffffffffffffffffffffffffffffffffffffff021916908373ffffffffffffffffffffffffffffffffffffffff16021790555050565b6060613fbd836140f9565b613ffc576040517f08c379a0000000000000000000000000000000000000000000000000000000008152600401613ff39061497f565b60405180910390fd5b6000808473ffffffffffffffffffffffffffffffffffffffff16846040516140249190614809565b600060405180830381855af49150503d806000811461405f576040519150601f19603f3d011682016040523d82523d6000602084013e614064565b606091505b509150915061408c828260405180606001604052806027815260200161504d6027913961410c565b9250505092915050565b6000819050919050565b6140a981613ef9565b8073ffffffffffffffffffffffffffffffffffffffff167fbc7cd75a20ee27fd9adebab32041f755214dbc6bffa90cc0225b39da2e5c2d3b60405160405180910390a250565b6000819050919050565b600080823b905060008111915050919050565b6060831561411c5782905061416c565b60008351111561412f5782518084602001fd5b816040517f08c379a000000000000000000000000000000000000000000000000000000000815260040161416391906148bd565b60405180910390fd5b9392505050565b82805461417f90614cae565b90600052602060002090601f0160209004810192826141a157600085556141e8565b82601f106141ba57805160ff19168380011785556141e8565b828001600101855582156141e8579182015b828111156141e75782518255916020019190600101906141cc565b5b5090506141f591906141f9565b5090565b5b808211156142125760008160009055506001016141fa565b5090565b600061422961422484614a3a565b614a15565b9050808382526020820190508285602086028201111561424857600080fd5b60005b85811015614278578161425e88826142c0565b84526020840193506020830192505060018101905061424b565b5050509392505050565b600061429561429084614a66565b614a15565b9050828152602081018484840111156142ad57600080fd5b6142b8848285614c6c565b509392505050565b6000813590506142cf81615007565b92915050565b600082601f8301126142e657600080fd5b81356142f6848260208601614216565b91505092915050565b600082601f83011261431057600080fd5b8135614320848260208601614282565b91505092915050565b6000813590506143388161501e565b92915050565b60008135905061434d81615035565b92915050565b60006020828403121561436557600080fd5b6000614373848285016142c0565b91505092915050565b6000806040838503121561438f57600080fd5b600061439d858286016142c0565b92505060206143ae858286016142c0565b9150509250929050565b6000806000606084860312156143cd57600080fd5b60006143db868287016142c0565b93505060206143ec868287016142c0565b92505060406143fd86828701614329565b9150509250925092565b600080600080600080600080610100898b03121561442457600080fd5b60006144328b828c016142c0565b985050602089013567ffffffffffffffff81111561444f57600080fd5b61445b8b828c016142d5565b975050604061446c8b828c0161433e565b965050606061447d8b828c016142c0565b955050608061448e8b828c016142c0565b94505060a061449f8b828c01614329565b93505060c06144b08b828c01614329565b92505060e06144c18b828c01614329565b9150509295985092959890939650565b600080604083850312156144e457600080fd5b60006144f2858286016142c0565b925050602083013567ffffffffffffffff81111561450f57600080fd5b61451b858286016142ff565b9150509250929050565b6000806040838503121561453857600080fd5b6000614546858286016142c0565b925050602061455785828601614329565b9150509250929050565b60006020828403121561457357600080fd5b600061458184828501614329565b91505092915050565b6000806040838503121561459d57600080fd5b60006145ab85828601614329565b92505060206145bc858286016142c0565b9150509250929050565b60006145d283836145de565b60208301905092915050565b6145e781614c17565b82525050565b6145f681614c17565b82525050565b600061460782614aa7565b6146118185614ad5565b935061461c83614a97565b8060005b8381101561464d57815161463488826145c6565b975061463f83614ac8565b925050600181019050614620565b5085935050505092915050565b61466381614c29565b82525050565b600061467482614ab2565b61467e8185614ae6565b935061468e818560208601614c7b565b80840191505092915050565b60006146a582614abd565b6146af8185614af1565b93506146bf818560208601614c7b565b6146c881614e16565b840191505092915050565b60006146e0602f83614af1565b91506146eb82614e27565b604082019050919050565b6000614703602e83614af1565b915061470e82614e76565b604082019050919050565b6000614726601483614af1565b915061473182614ec5565b602082019050919050565b6000614749602d83614af1565b915061475482614eee565b604082019050919050565b600061476c601383614af1565b915061477782614f3d565b602082019050919050565b600061478f602683614af1565b915061479a82614f66565b604082019050919050565b60006147b2601383614af1565b91506147bd82614fb5565b602082019050919050565b60006147d5600983614af1565b91506147e082614fde565b602082019050919050565b6147f481614c55565b82525050565b61480381614c5f565b82525050565b60006148158284614669565b915081905092915050565b600060208201905061483560008301846145ed565b92915050565b600060808201905061485060008301876145ed565b61485d60208301866147eb565b61486a604083018561465a565b61487760608301846147eb565b95945050505050565b6000602082019050818103600083015261489a81846145fc565b905092915050565b60006020820190506148b7600083018461465a565b92915050565b600060208201905081810360008301526148d7818461469a565b905092915050565b600060208201905081810360008301526148f8816146d3565b9050919050565b60006020820190508181036000830152614918816146f6565b9050919050565b6000602082019050818103600083015261493881614719565b9050919050565b600060208201905081810360008301526149588161473c565b9050919050565b600060208201905081810360008301526149788161475f565b9050919050565b6000602082019050818103600083015261499881614782565b9050919050565b600060208201905081810360008301526149b8816147a5565b9050919050565b600060208201905081810360008301526149d8816147c8565b9050919050565b60006020820190506149f460008301846147eb565b92915050565b6000602082019050614a0f60008301846147fa565b92915050565b6000614a1f614a30565b9050614a2b8282614ce0565b919050565b6000604051905090565b600067ffffffffffffffff821115614a5557614a54614de7565b5b602082029050602081019050919050565b600067ffffffffffffffff821115614a8157614a80614de7565b5b614a8a82614e16565b9050602081019050919050565b6000819050602082019050919050565b600081519050919050565b600081519050919050565b600081519050919050565b6000602082019050919050565b600082825260208201905092915050565b600081905092915050565b600082825260208201905092915050565b6000614b0d82614c55565b9150614b1883614c55565b9250827fffffffffffffffffffffffffffffffffffffffffffffffffffffffffffffffff03821115614b4d57614b4c614d5a565b5b828201905092915050565b6000614b6382614c55565b9150614b6e83614c55565b925082614b7e57614b7d614d89565b5b828204905092915050565b6000614b9482614c55565b9150614b9f83614c55565b9250817fffffffffffffffffffffffffffffffffffffffffffffffffffffffffffffffff0483118215151615614bd857614bd7614d5a565b5b828202905092915050565b6000614bee82614c55565b9150614bf983614c55565b925082821015614c0c57614c0b614d5a565b5b828203905092915050565b6000614c2282614c35565b9050919050565b60008115159050919050565b600073ffffffffffffffffffffffffffffffffffffffff82169050919050565b6000819050919050565b600060ff82169050919050565b82818337600083830152505050565b60005b83811015614c99578082015181840152602081019050614c7e565b83811115614ca8576000848401525b50505050565b60006002820490506001821680614cc657607f821691505b60208210811415614cda57614cd9614db8565b5b50919050565b614ce982614e16565b810181811067ffffffffffffffff82111715614d0857614d07614de7565b5b80604052505050565b6000614d1c82614c55565b91507fffffffffffffffffffffffffffffffffffffffffffffffffffffffffffffffff821415614d4f57614d4e614d5a565b5b600182019050919050565b7f4e487b7100000000000000000000000000000000000000000000000000000000600052601160045260246000fd5b7f4e487b7100000000000000000000000000000000000000000000000000000000600052601260045260246000fd5b7f4e487b7100000000000000000000000000000000000000000000000000000000600052602260045260246000fd5b7f4e487b7100000000000000000000000000000000000000000000000000000000600052604160045260246000fd5b6000601f19601f8301169050919050565b7f45524331393637557067726164653a207570677261646520627265616b73206660008201527f7572746865722075706772616465730000000000000000000000000000000000602082015250565b7f496e697469616c697a61626c653a20636f6e747261637420697320616c72656160008201527f647920696e697469616c697a6564000000000000000000000000000000000000602082015250565b7f747820616c726561647920636f6e6669726d6564000000000000000000000000600082015250565b7f455243313936373a206e657720696d706c656d656e746174696f6e206973206e60008201527f6f74206120636f6e747261637400000000000000000000000000000000000000602082015250565b7f6d696e7420646f6573206e6f7420657869737400000000000000000000000000600082015250565b7f416464726573733a2064656c65676174652063616c6c20746f206e6f6e2d636f60008201527f6e74726163740000000000000000000000000000000000000000000000000000602082015250565b7f747820616c726561647920657865637574656400000000000000000000000000600082015250565b7f6e6f74206f776e65720000000000000000000000000000000000000000000000600082015250565b61501081614c17565b811461501b57600080fd5b50565b61502781614c55565b811461503257600080fd5b50565b61503e81614c5f565b811461504957600080fd5b5056fe416464726573733a206c6f772d6c6576656c2064656c65676174652063616c6c206661696c6564a264697066735822122044c344164e4c318fbd5e2caf210ae3d401645ceabf0afc412fc06b547baabd4f64736f6c63430008030033",
  "immutableReferences": {},
  "source": "pragma solidity ^0.8.0;\r\n\r\nimport \"@openzeppelin/contracts-upgradeable/proxy/utils/Initializable.sol\";\r\nimport \"@openzeppelin/contracts-upgradeable/proxy/utils/UUPSUpgradeable.sol\";\r\n\r\ncontract PurseTokenMultiSigUpgradable is Initializable, UUPSUpgradeable {\r\n    string public name;\r\n    string public symbol;\r\n    uint256 public totalSupply;\r\n    uint8 public decimals;\r\n    uint8 public numConfirmationsRequired;\r\n    uint256 private minimumSupply;\r\n    address[] public owners;\r\n    address public liqPool;\r\n    address public redPool;\r\n    uint256 public mintIndex;\r\n    uint256 public burnPercent;\r\n    uint256 public liqPercent;\r\n    uint256 public redPercent;\r\n\r\n    event Transfer(address indexed _from, address indexed _to, uint256 _value);\r\n    event Burn(address indexed _from, address indexed _to, uint256 _value);\r\n    event Mint(address indexed _from, address indexed _to, uint256 _value);\r\n    event Approval(address indexed _owner, address indexed _spender, uint256 _value);\r\n    event SubmitMint(address indexed owner, uint256 indexed txIndex, address indexed to, uint256 value);\r\n    event ConfirmMint(address indexed owner, uint256 indexed txIndex);\r\n    event RevokeConfirmMint(address indexed owner, uint256 indexed txIndex);\r\n    event ExecuteMint(address indexed owner, uint256 indexed txIndex);\r\n\r\n    modifier onlyOwner() {\r\n        require(isOwner[msg.sender], \"not owner\");\r\n        _;\r\n    }\r\n\r\n    modifier mintExists(uint256 _mintIndex) {\r\n        require(mintExist[_mintIndex], \"mint does not exist\");\r\n        _;\r\n    }\r\n\r\n    modifier mintNotExecuted(uint256 _txIndex) {\r\n        require(!mints[_txIndex].executed, \"tx already executed\");\r\n        _;\r\n    }\r\n\r\n    modifier mintNotConfirmed(uint256 _txIndex) {\r\n        require(!mintIsConfirmed[_txIndex][msg.sender], \"tx already confirmed\");\r\n        _;\r\n    }\r\n\r\n    mapping(address => uint256) public balanceOf;\r\n    mapping(address => mapping(address => uint256)) public allowance;\r\n    mapping(address => bool) public isOwner;\r\n    // mapping for Mint from mint index => owner => bool\r\n    mapping(uint256 => mapping(address => bool)) public mintIsConfirmed;\r\n    mapping(uint256 => bool) public mintExist;\r\n    mapping(uint256 => MintInfo) public mints;\r\n    mapping(address => bool) public isWhitelistedTo;\r\n    mapping(address => bool) public isWhitelistedFrom;\r\n\r\n    struct MintInfo {\r\n        address to;\r\n        uint256 value;\r\n        bool executed;\r\n        uint256 numConfirmations;\r\n    }\r\n\r\n    function addOwner(address newOwner) external onlyOwner {\r\n        require(newOwner != address(0));\r\n        require(!isOwner[newOwner]);\r\n\r\n        isOwner[newOwner] = true;\r\n        owners.push(newOwner);\r\n    }\r\n\r\n    function setWhitelistedTo(address newWhitelist) external onlyOwner {\r\n        require(newWhitelist != address(0));\r\n        require(!isWhitelistedTo[newWhitelist]);\r\n\r\n        isWhitelistedTo[newWhitelist] = true;\r\n    }\r\n\r\n    function removeWhitelistedTo(address newWhitelist) external onlyOwner {\r\n        require(newWhitelist != address(0));\r\n        require(isWhitelistedTo[newWhitelist]);\r\n\r\n        isWhitelistedTo[newWhitelist] = false;\r\n    }\r\n\r\n    function setWhitelistedFrom(address newWhitelist) external onlyOwner {\r\n        require(newWhitelist != address(0));\r\n        require(!isWhitelistedFrom[newWhitelist]);\r\n\r\n        isWhitelistedFrom[newWhitelist] = true;\r\n    }\r\n\r\n    function removeWhitelistedFrom(address newWhitelist) external onlyOwner {\r\n        require(newWhitelist != address(0));\r\n        require(isWhitelistedFrom[newWhitelist]);\r\n\r\n        isWhitelistedFrom[newWhitelist] = false;\r\n    }\r\n\r\n    function transfer(address _to, uint256 _value)\r\n        public\r\n        returns (bool success)\r\n    {\r\n        require(_value >= 0);\r\n        require(balanceOf[msg.sender] >= _value);\r\n        if (isWhitelistedTo[_to] || isWhitelistedFrom[msg.sender]) {\r\n            balanceOf[msg.sender] -= _value;\r\n            balanceOf[_to] += _value;\r\n\r\n            emit Transfer(msg.sender, _to, _value);\r\n            return true;\r\n        } else {\r\n            uint256 transferValue = _partialBurn(_value, msg.sender);\r\n            balanceOf[msg.sender] -= transferValue;\r\n            balanceOf[_to] += transferValue;\r\n\r\n            emit Transfer(msg.sender, _to, transferValue);\r\n            return true;\r\n        }\r\n    }\r\n\r\n    function approve(address _spender, uint256 _value)\r\n        public\r\n        returns (bool success)\r\n    {\r\n        allowance[msg.sender][_spender] = _value;\r\n        emit Approval(msg.sender, _spender, _value);\r\n        return true;\r\n    }\r\n\r\n    function transferFrom(\r\n        address _from,\r\n        address _to,\r\n        uint256 _value\r\n    ) public returns (bool success) {\r\n        require(_value >= 0);\r\n        require(_value <= balanceOf[_from]);\r\n        require(_value <= allowance[_from][msg.sender]);\r\n        if (isWhitelistedTo[_to] || isWhitelistedFrom[msg.sender]) {\r\n            allowance[_from][msg.sender] -= _value;\r\n            balanceOf[_from] -= _value;\r\n            balanceOf[_to] += _value;\r\n            emit Transfer(_from, _to, _value);\r\n            return true;\r\n        } else {\r\n            allowance[_from][msg.sender] -= _value;\r\n            uint256 transferValue = _partialBurn(_value, _from);\r\n            balanceOf[_from] -= transferValue;\r\n            balanceOf[_to] += transferValue;\r\n            emit Transfer(_from, _to, transferValue);\r\n            return true;\r\n        }\r\n    }\r\n\r\n    function mint(address _account, uint256 _amount) internal onlyOwner {\r\n        require(_account != address(0));\r\n\r\n        balanceOf[_account] += _amount;\r\n        totalSupply += _amount;\r\n        emit Mint(address(0), _account, _amount);\r\n    }\r\n\r\n    function submitMint(address _to, uint256 _value) public onlyOwner {\r\n        mints[mintIndex] = MintInfo(_to, _value, false, 0);\r\n        mintExist[mintIndex] = true;\r\n        emit SubmitMint(msg.sender, mintIndex, _to, _value);\r\n        mintIndex += 1;\r\n    }\r\n\r\n    function confirmMint(uint256 _mintIndex)\r\n        public\r\n        onlyOwner\r\n        mintExists(_mintIndex)\r\n        mintNotExecuted(_mintIndex)\r\n        mintNotConfirmed(_mintIndex)\r\n    {\r\n        mints[_mintIndex].numConfirmations += 1;\r\n        mintIsConfirmed[_mintIndex][msg.sender] = true;\r\n\r\n        emit ConfirmMint(msg.sender, _mintIndex);\r\n    }\r\n\r\n    function executeMint(uint256 _mintIndex)\r\n        public\r\n        onlyOwner\r\n        mintExists(_mintIndex)\r\n        mintNotExecuted(_mintIndex)\r\n    {\r\n        require(mints[_mintIndex].numConfirmations >= numConfirmationsRequired);\r\n        mints[_mintIndex].executed = true;\r\n        mint(mints[_mintIndex].to, mints[_mintIndex].value);\r\n\r\n        emit ExecuteMint(msg.sender, _mintIndex);\r\n    }\r\n\r\n    function revokeMintConfirmation(uint256 _mintIndex)\r\n        public\r\n        onlyOwner\r\n        mintExists(_mintIndex)\r\n        mintNotExecuted(_mintIndex)\r\n    {\r\n        require(mintIsConfirmed[_mintIndex][msg.sender]);\r\n\r\n        mints[_mintIndex].numConfirmations -= 1;\r\n        mintIsConfirmed[_mintIndex][msg.sender] = false;\r\n\r\n        emit RevokeConfirmMint(msg.sender, _mintIndex);\r\n    }\r\n\r\n    function burn(address _account, uint256 _amount) public onlyOwner {\r\n        require(_account != address(0));\r\n        uint256 accountBalance = balanceOf[_account];\r\n        require(accountBalance >= _amount);\r\n        balanceOf[_account] -= _amount;\r\n        totalSupply -= _amount;\r\n        emit Burn(_account, address(0), _amount);\r\n    }\r\n\r\n    function _partialBurn(uint256 _amount, address _from)\r\n        internal\r\n        returns (uint256)\r\n    {\r\n        uint256 transferAmount = 0;\r\n        uint256 burnAmount;\r\n        uint256 liqAmount;\r\n        uint256 redAmount;\r\n        (\r\n            burnAmount,\r\n            liqAmount,\r\n            redAmount\r\n        ) = _calculateDeductAmount(_amount);\r\n\r\n        if (burnAmount >= 0 || liqAmount >= 0 || redAmount >= 0) {\r\n            burnPrivate(_from, burnAmount, liqAmount, redAmount);\r\n        }\r\n        transferAmount = _amount - burnAmount - liqAmount - redAmount;\r\n\r\n        return transferAmount;\r\n    }\r\n\r\n    function _calculateDeductAmount(uint256 _amount)\r\n        internal\r\n        view\r\n        returns (\r\n            uint256,\r\n            uint256,\r\n            uint256\r\n        )\r\n    {\r\n        uint256 burnAmount;\r\n        uint256 liqAmount;\r\n        uint256 redAmount;\r\n\r\n        if (totalSupply > minimumSupply) {\r\n            burnAmount = (_amount * burnPercent) / 100;\r\n            liqAmount = (_amount * liqPercent) / 100;\r\n            redAmount = (_amount * redPercent) / 100;\r\n            uint256 availableBurn = totalSupply - minimumSupply;\r\n            if (burnAmount > availableBurn) {\r\n                burnAmount = availableBurn;\r\n            }\r\n        }\r\n        return (burnAmount, liqAmount, redAmount);\r\n    }\r\n\r\n    function burnPrivate(\r\n        address _account,\r\n        uint256 _burnAmount,\r\n        uint256 _liqAmount,\r\n        uint256 _redAmount\r\n    ) private {\r\n        require(_account != address(0));\r\n        uint256 accountBalance = balanceOf[_account];\r\n        uint256 deductAmount = _burnAmount + _liqAmount + _redAmount;\r\n        require(accountBalance >= deductAmount);\r\n        balanceOf[_account] -= _burnAmount;\r\n        balanceOf[_account] -= _liqAmount;\r\n        balanceOf[_account] -= _redAmount;\r\n\r\n        totalSupply -= _burnAmount;\r\n        balanceOf[liqPool] += _liqAmount;\r\n        balanceOf[redPool] += _redAmount;\r\n        emit Burn(_account, address(0), _burnAmount);\r\n        emit Transfer(msg.sender, liqPool, _liqAmount);\r\n        emit Transfer(msg.sender, redPool, _redAmount);\r\n    }\r\n\r\n    function getOwners() public view returns (address[] memory) {\r\n        return owners;\r\n    }\r\n\r\n    function updateLPoolAdd(address _newLPool) public onlyOwner {\r\n        require(_newLPool != address(0));\r\n        require(_newLPool != liqPool);\r\n\r\n        liqPool = _newLPool;\r\n    }\r\n\r\n    function updateRPoolAdd(address _newRPool) public onlyOwner {\r\n        require(_newRPool != address(0));\r\n        require(_newRPool != redPool);\r\n\r\n        redPool = _newRPool;\r\n    }\r\n\r\n    function updateBurnPercent(uint256 _newBurnPercent) public onlyOwner {\r\n        require(_newBurnPercent >= 0 && _newBurnPercent <= 100);\r\n        require(_newBurnPercent != burnPercent);\r\n\r\n        burnPercent = _newBurnPercent;\r\n    }\r\n\r\n    function updateLiqPercent(uint256 _newLiqPercent) public onlyOwner {\r\n        require(_newLiqPercent >= 0 && _newLiqPercent <= 100);\r\n        require(_newLiqPercent != liqPercent);\r\n\r\n        liqPercent = _newLiqPercent;\r\n    }\r\n\r\n    function updateRedPercent(uint256 _newRedPercent) public onlyOwner {\r\n        require(_newRedPercent >= 0 && _newRedPercent <= 100);\r\n        require(_newRedPercent != redPercent);\r\n\r\n        redPercent = _newRedPercent;\r\n    }\r\n\r\n    function _authorizeUpgrade(address) internal override onlyOwner {}\r\n\r\n    function initialize(\r\n        address _to,\r\n        address[] memory _owners,\r\n        uint8 _numConfirmationsRequired,\r\n        address _lPool,\r\n        address _rPool,\r\n        uint256 _burnPercent,\r\n        uint256 _liqPercent,\r\n        uint256 _redPercent\r\n    ) public initializer {\r\n        name = \"PURSE\";\r\n        symbol = \"PR\";\r\n        totalSupply = 64000000000 * (10**18); // 64 billion tokens\r\n        decimals = 18;\r\n        minimumSupply = 20000 * (10**18);\r\n\r\n        require(_owners.length > 0);\r\n        require(_lPool != address(0));\r\n        require(_rPool != address(0));\r\n        require(_burnPercent >= 0);\r\n        require(_liqPercent >= 0);\r\n        require(_redPercent >= 0);\r\n        require(_numConfirmationsRequired > 0 && _numConfirmationsRequired <= _owners.length);\r\n\r\n        for (uint256 i = 0; i < _owners.length; i++) {\r\n            address owner = _owners[i];\r\n\r\n            require(owner != address(0));\r\n            require(!isOwner[owner]);\r\n\r\n            isOwner[owner] = true;\r\n            owners.push(owner);\r\n        }\r\n        \r\n        numConfirmationsRequired = _numConfirmationsRequired;\r\n        liqPool = _lPool;\r\n        redPool = _rPool;\r\n        burnPercent = _burnPercent;\r\n        liqPercent = _liqPercent;\r\n        redPercent = _redPercent;\r\n\r\n        balanceOf[_to] = totalSupply;\r\n        emit Mint(address(0), _to, totalSupply);\r\n    }\r\n}\r\n",
  "sourcePath": "C:\\Users\\cheek\\Desktop\\Developer doc\\Visual Studio Code\\PundiX\\PurseReward\\YieldFarm_BridgeEthBsc\\src\\contracts\\PurseTokenMultiSigUpgradable.sol",
  "compiler": {
    "name": "solc",
    "version": "0.8.3+commit.8d00100c.Emscripten.clang"
  },
  "schemaVersion": "3.2.3",
  "updatedAt": "2021-08-31T07:51:38.281Z",
  "networkType": "ethereum",
  "devdoc": {
    "kind": "dev",
    "methods": {
      "upgradeTo(address)": {
        "details": "Upgrade the implementation of the proxy to `newImplementation`. Calls {_authorizeUpgrade}. Emits an {Upgraded} event."
      },
      "upgradeToAndCall(address,bytes)": {
        "details": "Upgrade the implementation of the proxy to `newImplementation`, and subsequently execute the function call encoded in `data`. Calls {_authorizeUpgrade}. Emits an {Upgraded} event."
      }
    },
    "version": 1
  },
  "userdoc": {
    "kind": "user",
    "methods": {},
    "version": 1
  }
}