{
  "contractName": "PurseTokenMultiSigUpgradable",
  "abi": [
    {
      "anonymous": false,
      "inputs": [
        {
          "indexed": false,
          "internalType": "address",
          "name": "previousAdmin",
          "type": "address"
        },
        {
          "indexed": false,
          "internalType": "address",
          "name": "newAdmin",
          "type": "address"
        }
      ],
      "name": "AdminChanged",
      "type": "event"
    },
    {
      "anonymous": false,
      "inputs": [
        {
          "indexed": true,
          "internalType": "address",
          "name": "_owner",
          "type": "address"
        },
        {
          "indexed": true,
          "internalType": "address",
          "name": "_spender",
          "type": "address"
        },
        {
          "indexed": false,
          "internalType": "uint256",
          "name": "_value",
          "type": "uint256"
        }
      ],
      "name": "Approval",
      "type": "event"
    },
    {
      "anonymous": false,
      "inputs": [
        {
          "indexed": true,
          "internalType": "address",
          "name": "beacon",
          "type": "address"
        }
      ],
      "name": "BeaconUpgraded",
      "type": "event"
    },
    {
      "anonymous": false,
      "inputs": [
        {
          "indexed": true,
          "internalType": "address",
          "name": "_from",
          "type": "address"
        },
        {
          "indexed": true,
          "internalType": "address",
          "name": "_to",
          "type": "address"
        },
        {
          "indexed": false,
          "internalType": "uint256",
          "name": "_value",
          "type": "uint256"
        }
      ],
      "name": "Burn",
      "type": "event"
    },
    {
      "anonymous": false,
      "inputs": [
        {
          "indexed": true,
          "internalType": "address",
          "name": "owner",
          "type": "address"
        },
        {
          "indexed": true,
          "internalType": "uint256",
          "name": "txIndex",
          "type": "uint256"
        }
      ],
      "name": "ConfirmMint",
      "type": "event"
    },
    {
      "anonymous": false,
      "inputs": [
        {
          "indexed": true,
          "internalType": "address",
          "name": "owner",
          "type": "address"
        },
        {
          "indexed": true,
          "internalType": "uint256",
          "name": "txIndex",
          "type": "uint256"
        }
      ],
      "name": "ExecuteMint",
      "type": "event"
    },
    {
      "anonymous": false,
      "inputs": [
        {
          "indexed": true,
          "internalType": "address",
          "name": "_from",
          "type": "address"
        },
        {
          "indexed": true,
          "internalType": "address",
          "name": "_to",
          "type": "address"
        },
        {
          "indexed": false,
          "internalType": "uint256",
          "name": "_value",
          "type": "uint256"
        }
      ],
      "name": "Mint",
      "type": "event"
    },
    {
      "anonymous": false,
      "inputs": [
        {
          "indexed": true,
          "internalType": "address",
          "name": "owner",
          "type": "address"
        },
        {
          "indexed": true,
          "internalType": "uint256",
          "name": "txIndex",
          "type": "uint256"
        }
      ],
      "name": "RevokeConfirmMint",
      "type": "event"
    },
    {
      "anonymous": false,
      "inputs": [
        {
          "indexed": true,
          "internalType": "address",
          "name": "owner",
          "type": "address"
        },
        {
          "indexed": true,
          "internalType": "uint256",
          "name": "txIndex",
          "type": "uint256"
        },
        {
          "indexed": true,
          "internalType": "address",
          "name": "to",
          "type": "address"
        },
        {
          "indexed": false,
          "internalType": "uint256",
          "name": "value",
          "type": "uint256"
        }
      ],
      "name": "SubmitMint",
      "type": "event"
    },
    {
      "anonymous": false,
      "inputs": [
        {
          "indexed": true,
          "internalType": "address",
          "name": "_from",
          "type": "address"
        },
        {
          "indexed": true,
          "internalType": "address",
          "name": "_to",
          "type": "address"
        },
        {
          "indexed": false,
          "internalType": "uint256",
          "name": "_value",
          "type": "uint256"
        }
      ],
      "name": "Transfer",
      "type": "event"
    },
    {
      "anonymous": false,
      "inputs": [
        {
          "indexed": true,
          "internalType": "address",
          "name": "implementation",
          "type": "address"
        }
      ],
      "name": "Upgraded",
      "type": "event"
    },
    {
      "inputs": [
        {
          "internalType": "address",
          "name": "",
          "type": "address"
        },
        {
          "internalType": "address",
          "name": "",
          "type": "address"
        }
      ],
      "name": "allowance",
      "outputs": [
        {
          "internalType": "uint256",
          "name": "",
          "type": "uint256"
        }
      ],
      "stateMutability": "view",
      "type": "function",
      "constant": true
    },
    {
      "inputs": [
        {
          "internalType": "address",
          "name": "",
          "type": "address"
        }
      ],
      "name": "balanceOf",
      "outputs": [
        {
          "internalType": "uint256",
          "name": "",
          "type": "uint256"
        }
      ],
      "stateMutability": "view",
      "type": "function",
      "constant": true
    },
    {
      "inputs": [],
      "name": "burnPercent",
      "outputs": [
        {
          "internalType": "uint256",
          "name": "",
          "type": "uint256"
        }
      ],
      "stateMutability": "view",
      "type": "function",
      "constant": true
    },
    {
      "inputs": [],
      "name": "decimals",
      "outputs": [
        {
          "internalType": "uint8",
          "name": "",
          "type": "uint8"
        }
      ],
      "stateMutability": "view",
      "type": "function",
      "constant": true
    },
    {
      "inputs": [],
      "name": "deductPercent",
      "outputs": [
        {
          "internalType": "uint256",
          "name": "",
          "type": "uint256"
        }
      ],
      "stateMutability": "view",
      "type": "function",
      "constant": true
    },
    {
      "inputs": [
        {
          "internalType": "address",
          "name": "",
          "type": "address"
        }
      ],
      "name": "isOwner",
      "outputs": [
        {
          "internalType": "bool",
          "name": "",
          "type": "bool"
        }
      ],
      "stateMutability": "view",
      "type": "function",
      "constant": true
    },
    {
      "inputs": [
        {
          "internalType": "address",
          "name": "",
          "type": "address"
        }
      ],
      "name": "isWhitelisted",
      "outputs": [
        {
          "internalType": "bool",
          "name": "",
          "type": "bool"
        }
      ],
      "stateMutability": "view",
      "type": "function",
      "constant": true
    },
    {
      "inputs": [],
      "name": "liqPercent",
      "outputs": [
        {
          "internalType": "uint256",
          "name": "",
          "type": "uint256"
        }
      ],
      "stateMutability": "view",
      "type": "function",
      "constant": true
    },
    {
      "inputs": [],
      "name": "liqPool",
      "outputs": [
        {
          "internalType": "address",
          "name": "",
          "type": "address"
        }
      ],
      "stateMutability": "view",
      "type": "function",
      "constant": true
    },
    {
      "inputs": [
        {
          "internalType": "uint256",
          "name": "",
          "type": "uint256"
        }
      ],
      "name": "mintExist",
      "outputs": [
        {
          "internalType": "bool",
          "name": "",
          "type": "bool"
        }
      ],
      "stateMutability": "view",
      "type": "function",
      "constant": true
    },
    {
      "inputs": [],
      "name": "mintIndex",
      "outputs": [
        {
          "internalType": "uint256",
          "name": "",
          "type": "uint256"
        }
      ],
      "stateMutability": "view",
      "type": "function",
      "constant": true
    },
    {
      "inputs": [
        {
          "internalType": "uint256",
          "name": "",
          "type": "uint256"
        },
        {
          "internalType": "address",
          "name": "",
          "type": "address"
        }
      ],
      "name": "mintIsConfirmed",
      "outputs": [
        {
          "internalType": "bool",
          "name": "",
          "type": "bool"
        }
      ],
      "stateMutability": "view",
      "type": "function",
      "constant": true
    },
    {
      "inputs": [
        {
          "internalType": "uint256",
          "name": "",
          "type": "uint256"
        }
      ],
      "name": "mints",
      "outputs": [
        {
          "internalType": "address",
          "name": "to",
          "type": "address"
        },
        {
          "internalType": "uint256",
          "name": "value",
          "type": "uint256"
        },
        {
          "internalType": "bool",
          "name": "executed",
          "type": "bool"
        },
        {
          "internalType": "uint256",
          "name": "numConfirmations",
          "type": "uint256"
        }
      ],
      "stateMutability": "view",
      "type": "function",
      "constant": true
    },
    {
      "inputs": [],
      "name": "name",
      "outputs": [
        {
          "internalType": "string",
          "name": "",
          "type": "string"
        }
      ],
      "stateMutability": "view",
      "type": "function",
      "constant": true
    },
    {
      "inputs": [],
      "name": "numConfirmationsRequired",
      "outputs": [
        {
          "internalType": "uint8",
          "name": "",
          "type": "uint8"
        }
      ],
      "stateMutability": "view",
      "type": "function",
      "constant": true
    },
    {
      "inputs": [
        {
          "internalType": "uint256",
          "name": "",
          "type": "uint256"
        }
      ],
      "name": "owners",
      "outputs": [
        {
          "internalType": "address",
          "name": "",
          "type": "address"
        }
      ],
      "stateMutability": "view",
      "type": "function",
      "constant": true
    },
    {
      "inputs": [],
      "name": "redPercent",
      "outputs": [
        {
          "internalType": "uint256",
          "name": "",
          "type": "uint256"
        }
      ],
      "stateMutability": "view",
      "type": "function",
      "constant": true
    },
    {
      "inputs": [],
      "name": "redPool",
      "outputs": [
        {
          "internalType": "address",
          "name": "",
          "type": "address"
        }
      ],
      "stateMutability": "view",
      "type": "function",
      "constant": true
    },
    {
      "inputs": [],
      "name": "symbol",
      "outputs": [
        {
          "internalType": "string",
          "name": "",
          "type": "string"
        }
      ],
      "stateMutability": "view",
      "type": "function",
      "constant": true
    },
    {
      "inputs": [],
      "name": "totalSupply",
      "outputs": [
        {
          "internalType": "uint256",
          "name": "",
          "type": "uint256"
        }
      ],
      "stateMutability": "view",
      "type": "function",
      "constant": true
    },
    {
      "inputs": [
        {
          "internalType": "address",
          "name": "newImplementation",
          "type": "address"
        }
      ],
      "name": "upgradeTo",
      "outputs": [],
      "stateMutability": "nonpayable",
      "type": "function"
    },
    {
      "inputs": [
        {
          "internalType": "address",
          "name": "newImplementation",
          "type": "address"
        },
        {
          "internalType": "bytes",
          "name": "data",
          "type": "bytes"
        }
      ],
      "name": "upgradeToAndCall",
      "outputs": [],
      "stateMutability": "payable",
      "type": "function",
      "payable": true
    },
    {
      "inputs": [
        {
          "internalType": "address",
          "name": "newOwner",
          "type": "address"
        }
      ],
      "name": "addOwner",
      "outputs": [],
      "stateMutability": "nonpayable",
      "type": "function"
    },
    {
      "inputs": [
        {
          "internalType": "address",
          "name": "newWhitelist",
          "type": "address"
        }
      ],
      "name": "setWhitelisted",
      "outputs": [],
      "stateMutability": "nonpayable",
      "type": "function"
    },
    {
      "inputs": [
        {
          "internalType": "address",
          "name": "newWhitelist",
          "type": "address"
        }
      ],
      "name": "removeWhitelisted",
      "outputs": [],
      "stateMutability": "nonpayable",
      "type": "function"
    },
    {
      "inputs": [
        {
          "internalType": "address",
          "name": "_to",
          "type": "address"
        },
        {
          "internalType": "uint256",
          "name": "_value",
          "type": "uint256"
        }
      ],
      "name": "transfer",
      "outputs": [
        {
          "internalType": "bool",
          "name": "success",
          "type": "bool"
        }
      ],
      "stateMutability": "nonpayable",
      "type": "function"
    },
    {
      "inputs": [
        {
          "internalType": "address",
          "name": "_spender",
          "type": "address"
        },
        {
          "internalType": "uint256",
          "name": "_value",
          "type": "uint256"
        }
      ],
      "name": "approve",
      "outputs": [
        {
          "internalType": "bool",
          "name": "success",
          "type": "bool"
        }
      ],
      "stateMutability": "nonpayable",
      "type": "function"
    },
    {
      "inputs": [
        {
          "internalType": "address",
          "name": "_from",
          "type": "address"
        },
        {
          "internalType": "address",
          "name": "_to",
          "type": "address"
        },
        {
          "internalType": "uint256",
          "name": "_value",
          "type": "uint256"
        }
      ],
      "name": "transferFrom",
      "outputs": [
        {
          "internalType": "bool",
          "name": "success",
          "type": "bool"
        }
      ],
      "stateMutability": "nonpayable",
      "type": "function"
    },
    {
      "inputs": [
        {
          "internalType": "address",
          "name": "_to",
          "type": "address"
        },
        {
          "internalType": "uint256",
          "name": "_value",
          "type": "uint256"
        }
      ],
      "name": "submitMint",
      "outputs": [],
      "stateMutability": "nonpayable",
      "type": "function"
    },
    {
      "inputs": [
        {
          "internalType": "uint256",
          "name": "_mintIndex",
          "type": "uint256"
        }
      ],
      "name": "confirmMint",
      "outputs": [],
      "stateMutability": "nonpayable",
      "type": "function"
    },
    {
      "inputs": [
        {
          "internalType": "uint256",
          "name": "_mintIndex",
          "type": "uint256"
        }
      ],
      "name": "executeMint",
      "outputs": [],
      "stateMutability": "nonpayable",
      "type": "function"
    },
    {
      "inputs": [
        {
          "internalType": "uint256",
          "name": "_mintIndex",
          "type": "uint256"
        }
      ],
      "name": "revokeMintConfirmation",
      "outputs": [],
      "stateMutability": "nonpayable",
      "type": "function"
    },
    {
      "inputs": [
        {
          "internalType": "address",
          "name": "_account",
          "type": "address"
        },
        {
          "internalType": "uint256",
          "name": "_amount",
          "type": "uint256"
        }
      ],
      "name": "burn",
      "outputs": [],
      "stateMutability": "nonpayable",
      "type": "function"
    },
    {
      "inputs": [],
      "name": "getOwners",
      "outputs": [
        {
          "internalType": "address[]",
          "name": "",
          "type": "address[]"
        }
      ],
      "stateMutability": "view",
      "type": "function",
      "constant": true
    },
    {
      "inputs": [
        {
          "internalType": "address",
          "name": "_newLPool",
          "type": "address"
        }
      ],
      "name": "updateLPoolAdd",
      "outputs": [],
      "stateMutability": "nonpayable",
      "type": "function"
    },
    {
      "inputs": [
        {
          "internalType": "address",
          "name": "_newRPool",
          "type": "address"
        }
      ],
      "name": "updateRPoolAdd",
      "outputs": [],
      "stateMutability": "nonpayable",
      "type": "function"
    },
    {
      "inputs": [
        {
          "internalType": "uint256",
          "name": "_newDeductPercent",
          "type": "uint256"
        }
      ],
      "name": "updateDeductPercent",
      "outputs": [],
      "stateMutability": "nonpayable",
      "type": "function"
    },
    {
      "inputs": [
        {
          "internalType": "uint256",
          "name": "_newBurnPercent",
          "type": "uint256"
        }
      ],
      "name": "updateBurnPercent",
      "outputs": [],
      "stateMutability": "nonpayable",
      "type": "function"
    },
    {
      "inputs": [
        {
          "internalType": "uint256",
          "name": "_newLiqPercent",
          "type": "uint256"
        }
      ],
      "name": "updateLiqPercent",
      "outputs": [],
      "stateMutability": "nonpayable",
      "type": "function"
    },
    {
      "inputs": [
        {
          "internalType": "uint256",
          "name": "_newRedPercent",
          "type": "uint256"
        }
      ],
      "name": "updateRedPercent",
      "outputs": [],
      "stateMutability": "nonpayable",
      "type": "function"
    },
    {
      "inputs": [
        {
          "internalType": "address",
          "name": "_to",
          "type": "address"
        },
        {
          "internalType": "address[]",
          "name": "_owners",
          "type": "address[]"
        },
        {
          "internalType": "uint8",
          "name": "_numConfirmationsRequired",
          "type": "uint8"
        },
        {
          "internalType": "address",
          "name": "_lPool",
          "type": "address"
        },
        {
          "internalType": "address",
          "name": "_rPool",
          "type": "address"
        },
        {
          "internalType": "uint256",
          "name": "_deductPercent",
          "type": "uint256"
        },
        {
          "internalType": "uint256",
          "name": "_burnPercent",
          "type": "uint256"
        },
        {
          "internalType": "uint256",
          "name": "_liqPercent",
          "type": "uint256"
        },
        {
          "internalType": "uint256",
          "name": "_redPercent",
          "type": "uint256"
        }
      ],
      "name": "initialize",
      "outputs": [],
      "stateMutability": "nonpayable",
      "type": "function"
    }
  ],
  "bytecode": "0x608060405234801561001057600080fd5b50615dad80620000216000396000f3fe6080604052600436106102455760003560e01c80636350b2c2116101395780639dc29fac116100b6578063d873c30d1161007a578063d873c30d146108b9578063dd62ed3e146108e4578063e78fd9a814610921578063e7a486fb1461094a578063e8a4c2eb14610973578063f74f9bfd1461099c57610245565b80639dc29fac146107c0578063a0e67e2b146107e9578063a9059cbb14610814578063ce437b9414610851578063d0549b851461088e57610245565b8063740b91f4116100fd578063740b91f4146106ef5780638aa4ef2c1461071a5780638d7c12c114610743578063929d0dfc1461076c57806395d89b411461079557610245565b80636350b2c2146105f757806367e76d5314610637578063689bac9d146106605780637065cb481461068957806370a08231146106b257610245565b8063313ce567116101c75780633af32abf1161018b5780633af32abf1461050d5780633fcfb5f61461054a5780634f1ef286146105735780635422e4951461058f5780635a56e359146105ba57610245565b8063313ce5671461043e57806335e8b82e146104695780633659cfe61461049257806338999328146104bb5780633a2f3557146104e457610245565b8063095ea7b31161020e578063095ea7b31461033357806318160ddd1461037057806323b872dd1461039b578063291d9549146103d85780632f54bf6e1461040157610245565b8062bd8d4e1461024a578063025e7c271461027557806303807ee5146102b257806305f1ad9e146102dd57806306fdde0314610308575b600080fd5b34801561025657600080fd5b5061025f6109c7565b60405161026c9190615317565b60405180910390f35b34801561028157600080fd5b5061029c6004803603810190610297919061495d565b6109cd565b6040516102a99190614ed8565b60405180910390f35b3480156102be57600080fd5b506102c7610a0c565b6040516102d49190615317565b60405180910390f35b3480156102e957600080fd5b506102f2610a12565b6040516102ff9190614ed8565b60405180910390f35b34801561031457600080fd5b5061031d610a38565b60405161032a9190614f75565b60405180910390f35b34801561033f57600080fd5b5061035a60048036038101906103559190614921565b610ac6565b6040516103679190614f5a565b60405180910390f35b34801561037c57600080fd5b50610385610bb8565b6040516103929190615317565b60405180910390f35b3480156103a757600080fd5b506103c260048036038101906103bd91906147a0565b610bbe565b6040516103cf9190614f5a565b60405180910390f35b3480156103e457600080fd5b506103ff60048036038101906103fa919061473b565b611053565b005b34801561040d57600080fd5b506104286004803603810190610423919061473b565b611236565b6040516104359190614f5a565b60405180910390f35b34801561044a57600080fd5b50610453611256565b6040516104609190615332565b60405180910390f35b34801561047557600080fd5b50610490600480360381019061048b919061473b565b611269565b005b34801561049e57600080fd5b506104b960048036038101906104b4919061473b565b61143a565b005b3480156104c757600080fd5b506104e260048036038101906104dd919061495d565b611461565b005b3480156104f057600080fd5b5061050b6004803603810190610506919061473b565b611580565b005b34801561051957600080fd5b50610534600480360381019061052f919061473b565b611764565b6040516105419190614f5a565b60405180910390f35b34801561055657600080fd5b50610571600480360381019061056c919061495d565b611784565b005b61058d600480360381019061058891906148cd565b611a53565b005b34801561059b57600080fd5b506105a4611a6c565b6040516105b19190615317565b60405180910390f35b3480156105c657600080fd5b506105e160048036038101906105dc919061495d565b611a72565b6040516105ee9190614f5a565b60405180910390f35b34801561060357600080fd5b5061061e6004803603810190610619919061495d565b611a92565b60405161062e9493929190614ef3565b60405180910390f35b34801561064357600080fd5b5061065e6004803603810190610659919061473b565b611aef565b005b34801561066c57600080fd5b506106876004803603810190610682919061495d565b611cc0565b005b34801561069557600080fd5b506106b060048036038101906106ab919061473b565b611f92565b005b3480156106be57600080fd5b506106d960048036038101906106d4919061473b565b6121d9565b6040516106e69190615317565b60405180910390f35b3480156106fb57600080fd5b506107046121f1565b6040516107119190614ed8565b60405180910390f35b34801561072657600080fd5b50610741600480360381019061073c919061495d565b612217565b005b34801561074f57600080fd5b5061076a600480360381019061076591906147ef565b612336565b005b34801561077857600080fd5b50610793600480360381019061078e919061495d565b612aff565b005b3480156107a157600080fd5b506107aa612c1e565b6040516107b79190614f75565b60405180910390f35b3480156107cc57600080fd5b506107e760048036038101906107e29190614921565b612cac565b005b3480156107f557600080fd5b506107fe612f09565b60405161080b9190614f38565b60405180910390f35b34801561082057600080fd5b5061083b60048036038101906108369190614921565b612f97565b6040516108489190614f5a565b60405180910390f35b34801561085d57600080fd5b5061087860048036038101906108739190614986565b61327c565b6040516108859190614f5a565b60405180910390f35b34801561089a57600080fd5b506108a36132ab565b6040516108b09190615332565b60405180910390f35b3480156108c557600080fd5b506108ce6132be565b6040516108db9190615317565b60405180910390f35b3480156108f057600080fd5b5061090b60048036038101906109069190614764565b6132c4565b6040516109189190615317565b60405180910390f35b34801561092d57600080fd5b5061094860048036038101906109439190614921565b6132e9565b005b34801561095657600080fd5b50610971600480360381019061096c919061495d565b6134f7565b005b34801561097f57600080fd5b5061099a6004803603810190610995919061495d565b613782565b005b3480156109a857600080fd5b506109b16138a1565b6040516109be9190615317565b60405180910390f35b606e5481565b606a81815481106109dd57600080fd5b906000526020600020016000915054906101000a900473ffffffffffffffffffffffffffffffffffffffff1681565b606f5481565b606c60009054906101000a900473ffffffffffffffffffffffffffffffffffffffff1681565b60658054610a45906155e6565b80601f0160208091040260200160405190810160405280929190818152602001828054610a71906155e6565b8015610abe5780601f10610a9357610100808354040283529160200191610abe565b820191906000526020600020905b815481529060010190602001808311610aa157829003601f168201915b505050505081565b600081607360003373ffffffffffffffffffffffffffffffffffffffff1673ffffffffffffffffffffffffffffffffffffffff16815260200190815260200160002060008573ffffffffffffffffffffffffffffffffffffffff1673ffffffffffffffffffffffffffffffffffffffff168152602001908152602001600020819055508273ffffffffffffffffffffffffffffffffffffffff163373ffffffffffffffffffffffffffffffffffffffff167f8c5be1e5ebec7d5bd14f71427d1e84f3dd0314c0f7b2291e5b200ac8c7c3b92584604051610ba69190615317565b60405180910390a36001905092915050565b60675481565b6000607260008573ffffffffffffffffffffffffffffffffffffffff1673ffffffffffffffffffffffffffffffffffffffff16815260200190815260200160002054821115610c0c57600080fd5b607360008573ffffffffffffffffffffffffffffffffffffffff1673ffffffffffffffffffffffffffffffffffffffff16815260200190815260200160002060003373ffffffffffffffffffffffffffffffffffffffff1673ffffffffffffffffffffffffffffffffffffffff16815260200190815260200160002054821115610c9557600080fd5b607860008473ffffffffffffffffffffffffffffffffffffffff1673ffffffffffffffffffffffffffffffffffffffff16815260200190815260200160002060009054906101000a900460ff1615610e945781607360008673ffffffffffffffffffffffffffffffffffffffff1673ffffffffffffffffffffffffffffffffffffffff16815260200190815260200160002060003373ffffffffffffffffffffffffffffffffffffffff1673ffffffffffffffffffffffffffffffffffffffff1681526020019081526020016000206000828254610d73919061551b565b9250508190555081607260008673ffffffffffffffffffffffffffffffffffffffff1673ffffffffffffffffffffffffffffffffffffffff1681526020019081526020016000206000828254610dc9919061551b565b9250508190555081607260008573ffffffffffffffffffffffffffffffffffffffff1673ffffffffffffffffffffffffffffffffffffffff1681526020019081526020016000206000828254610e1f919061543a565b925050819055508273ffffffffffffffffffffffffffffffffffffffff168473ffffffffffffffffffffffffffffffffffffffff167fddf252ad1be2c89b69c2b068fc378daa952ba7f163c4a11628f55a4df523b3ef84604051610e839190615317565b60405180910390a36001905061104c565b81607360008673ffffffffffffffffffffffffffffffffffffffff1673ffffffffffffffffffffffffffffffffffffffff16815260200190815260200160002060003373ffffffffffffffffffffffffffffffffffffffff1673ffffffffffffffffffffffffffffffffffffffff1681526020019081526020016000206000828254610f20919061551b565b925050819055506000610f3383866138a7565b905080607260008773ffffffffffffffffffffffffffffffffffffffff1673ffffffffffffffffffffffffffffffffffffffff1681526020019081526020016000206000828254610f84919061551b565b9250508190555080607260008673ffffffffffffffffffffffffffffffffffffffff1673ffffffffffffffffffffffffffffffffffffffff1681526020019081526020016000206000828254610fda919061543a565b925050819055508373ffffffffffffffffffffffffffffffffffffffff168573ffffffffffffffffffffffffffffffffffffffff167fddf252ad1be2c89b69c2b068fc378daa952ba7f163c4a11628f55a4df523b3ef8360405161103e9190615317565b60405180910390a360019150505b9392505050565b607460003373ffffffffffffffffffffffffffffffffffffffff1673ffffffffffffffffffffffffffffffffffffffff16815260200190815260200160002060009054906101000a900460ff166110df576040517f08c379a00000000000000000000000000000000000000000000000000000000081526004016110d690615297565b60405180910390fd5b600073ffffffffffffffffffffffffffffffffffffffff168173ffffffffffffffffffffffffffffffffffffffff16141561114f576040517f08c379a000000000000000000000000000000000000000000000000000000000815260040161114690615137565b60405180910390fd5b607860008273ffffffffffffffffffffffffffffffffffffffff1673ffffffffffffffffffffffffffffffffffffffff16815260200190815260200160002060009054906101000a900460ff166111db576040517f08c379a00000000000000000000000000000000000000000000000000000000081526004016111d2906150d7565b60405180910390fd5b6000607860008373ffffffffffffffffffffffffffffffffffffffff1673ffffffffffffffffffffffffffffffffffffffff16815260200190815260200160002060006101000a81548160ff02191690831515021790555050565b60746020528060005260406000206000915054906101000a900460ff1681565b606860009054906101000a900460ff1681565b607460003373ffffffffffffffffffffffffffffffffffffffff1673ffffffffffffffffffffffffffffffffffffffff16815260200190815260200160002060009054906101000a900460ff166112f5576040517f08c379a00000000000000000000000000000000000000000000000000000000081526004016112ec90615297565b60405180910390fd5b600073ffffffffffffffffffffffffffffffffffffffff168173ffffffffffffffffffffffffffffffffffffffff161415611365576040517f08c379a000000000000000000000000000000000000000000000000000000000815260040161135c90615077565b60405180910390fd5b606b60009054906101000a900473ffffffffffffffffffffffffffffffffffffffff1673ffffffffffffffffffffffffffffffffffffffff168173ffffffffffffffffffffffffffffffffffffffff1614156113f6576040517f08c379a00000000000000000000000000000000000000000000000000000000081526004016113ed90614fb7565b60405180910390fd5b80606b60006101000a81548173ffffffffffffffffffffffffffffffffffffffff021916908373ffffffffffffffffffffffffffffffffffffffff16021790555050565b61144381613916565b61145e816040518060200160405280600081525060006139a5565b50565b607460003373ffffffffffffffffffffffffffffffffffffffff1673ffffffffffffffffffffffffffffffffffffffff16815260200190815260200160002060009054906101000a900460ff166114ed576040517f08c379a00000000000000000000000000000000000000000000000000000000081526004016114e490615297565b60405180910390fd5b6000811015611531576040517f08c379a000000000000000000000000000000000000000000000000000000000815260040161152890615257565b60405180910390fd5b606f54811415611576576040517f08c379a000000000000000000000000000000000000000000000000000000000815260040161156d90614ff7565b60405180910390fd5b80606f8190555050565b607460003373ffffffffffffffffffffffffffffffffffffffff1673ffffffffffffffffffffffffffffffffffffffff16815260200190815260200160002060009054906101000a900460ff1661160c576040517f08c379a000000000000000000000000000000000000000000000000000000000815260040161160390615297565b60405180910390fd5b600073ffffffffffffffffffffffffffffffffffffffff168173ffffffffffffffffffffffffffffffffffffffff16141561167c576040517f08c379a000000000000000000000000000000000000000000000000000000000815260040161167390615137565b60405180910390fd5b607860008273ffffffffffffffffffffffffffffffffffffffff1673ffffffffffffffffffffffffffffffffffffffff16815260200190815260200160002060009054906101000a900460ff1615611709576040517f08c379a0000000000000000000000000000000000000000000000000000000008152600401611700906150d7565b60405180910390fd5b6001607860008373ffffffffffffffffffffffffffffffffffffffff1673ffffffffffffffffffffffffffffffffffffffff16815260200190815260200160002060006101000a81548160ff02191690831515021790555050565b60786020528060005260406000206000915054906101000a900460ff1681565b607460003373ffffffffffffffffffffffffffffffffffffffff1673ffffffffffffffffffffffffffffffffffffffff16815260200190815260200160002060009054906101000a900460ff16611810576040517f08c379a000000000000000000000000000000000000000000000000000000000815260040161180790615297565b60405180910390fd5b806076600082815260200190815260200160002060009054906101000a900460ff16611871576040517f08c379a000000000000000000000000000000000000000000000000000000000815260040161186890615117565b60405180910390fd5b816077600082815260200190815260200160002060020160009054906101000a900460ff16156118d6576040517f08c379a00000000000000000000000000000000000000000000000000000000081526004016118cd90615217565b60405180910390fd5b6075600084815260200190815260200160002060003373ffffffffffffffffffffffffffffffffffffffff1673ffffffffffffffffffffffffffffffffffffffff16815260200190815260200160002060009054906101000a900460ff16611973576040517f08c379a000000000000000000000000000000000000000000000000000000000815260040161196a90615237565b60405180910390fd5b600160776000858152602001908152602001600020600301600082825461199a919061551b565b9250508190555060006075600085815260200190815260200160002060003373ffffffffffffffffffffffffffffffffffffffff1673ffffffffffffffffffffffffffffffffffffffff16815260200190815260200160002060006101000a81548160ff021916908315150217905550823373ffffffffffffffffffffffffffffffffffffffff167f52d89939a6a55066c70d2dbb96275ed346cf0cd1623875ef509038f4850ebf6f60405160405180910390a3505050565b611a5c82613916565b611a68828260016139a5565b5050565b60705481565b60766020528060005260406000206000915054906101000a900460ff1681565b60776020528060005260406000206000915090508060000160009054906101000a900473ffffffffffffffffffffffffffffffffffffffff16908060010154908060020160009054906101000a900460ff16908060030154905084565b607460003373ffffffffffffffffffffffffffffffffffffffff1673ffffffffffffffffffffffffffffffffffffffff16815260200190815260200160002060009054906101000a900460ff16611b7b576040517f08c379a0000000000000000000000000000000000000000000000000000000008152600401611b7290615297565b60405180910390fd5b600073ffffffffffffffffffffffffffffffffffffffff168173ffffffffffffffffffffffffffffffffffffffff161415611beb576040517f08c379a0000000000000000000000000000000000000000000000000000000008152600401611be290615077565b60405180910390fd5b606c60009054906101000a900473ffffffffffffffffffffffffffffffffffffffff1673ffffffffffffffffffffffffffffffffffffffff168173ffffffffffffffffffffffffffffffffffffffff161415611c7c576040517f08c379a0000000000000000000000000000000000000000000000000000000008152600401611c7390614fb7565b60405180910390fd5b80606c60006101000a81548173ffffffffffffffffffffffffffffffffffffffff021916908373ffffffffffffffffffffffffffffffffffffffff16021790555050565b607460003373ffffffffffffffffffffffffffffffffffffffff1673ffffffffffffffffffffffffffffffffffffffff16815260200190815260200160002060009054906101000a900460ff16611d4c576040517f08c379a0000000000000000000000000000000000000000000000000000000008152600401611d4390615297565b60405180910390fd5b806076600082815260200190815260200160002060009054906101000a900460ff16611dad576040517f08c379a0000000000000000000000000000000000000000000000000000000008152600401611da490615117565b60405180910390fd5b816077600082815260200190815260200160002060020160009054906101000a900460ff1615611e12576040517f08c379a0000000000000000000000000000000000000000000000000000000008152600401611e0990615217565b60405180910390fd5b826075600082815260200190815260200160002060003373ffffffffffffffffffffffffffffffffffffffff1673ffffffffffffffffffffffffffffffffffffffff16815260200190815260200160002060009054906101000a900460ff1615611eb1576040517f08c379a0000000000000000000000000000000000000000000000000000000008152600401611ea8906150b7565b60405180910390fd5b6001607760008681526020019081526020016000206003016000828254611ed8919061543a565b9250508190555060016075600086815260200190815260200160002060003373ffffffffffffffffffffffffffffffffffffffff1673ffffffffffffffffffffffffffffffffffffffff16815260200190815260200160002060006101000a81548160ff021916908315150217905550833373ffffffffffffffffffffffffffffffffffffffff167f28d2574f2cdddb0ef07218c31a006e99809ab778fba32bc02388a6209c82857e60405160405180910390a350505050565b607460003373ffffffffffffffffffffffffffffffffffffffff1673ffffffffffffffffffffffffffffffffffffffff16815260200190815260200160002060009054906101000a900460ff1661201e576040517f08c379a000000000000000000000000000000000000000000000000000000000815260040161201590615297565b60405180910390fd5b600073ffffffffffffffffffffffffffffffffffffffff168173ffffffffffffffffffffffffffffffffffffffff16141561208e576040517f08c379a000000000000000000000000000000000000000000000000000000000815260040161208590615077565b60405180910390fd5b607460008273ffffffffffffffffffffffffffffffffffffffff1673ffffffffffffffffffffffffffffffffffffffff16815260200190815260200160002060009054906101000a900460ff161561211b576040517f08c379a000000000000000000000000000000000000000000000000000000000815260040161211290614fb7565b60405180910390fd5b6001607460008373ffffffffffffffffffffffffffffffffffffffff1673ffffffffffffffffffffffffffffffffffffffff16815260200190815260200160002060006101000a81548160ff021916908315150217905550606a819080600181540180825580915050600190039060005260206000200160009091909190916101000a81548173ffffffffffffffffffffffffffffffffffffffff021916908373ffffffffffffffffffffffffffffffffffffffff16021790555050565b60726020528060005260406000206000915090505481565b606b60009054906101000a900473ffffffffffffffffffffffffffffffffffffffff1681565b607460003373ffffffffffffffffffffffffffffffffffffffff1673ffffffffffffffffffffffffffffffffffffffff16815260200190815260200160002060009054906101000a900460ff166122a3576040517f08c379a000000000000000000000000000000000000000000000000000000000815260040161229a90615297565b60405180910390fd5b60008110156122e7576040517f08c379a00000000000000000000000000000000000000000000000000000000081526004016122de90615257565b60405180910390fd5b60705481141561232c576040517f08c379a000000000000000000000000000000000000000000000000000000000815260040161232390614ff7565b60405180910390fd5b8060708190555050565b600060019054906101000a900460ff168061235c575060008054906101000a900460ff16155b61239b576040517f08c379a000000000000000000000000000000000000000000000000000000000815260040161239290615097565b60405180910390fd5b60008060019054906101000a900460ff1615905080156123eb576001600060016101000a81548160ff02191690831515021790555060016000806101000a81548160ff0219169083151502179055505b6040518060400160405280600581526020017f50555253450000000000000000000000000000000000000000000000000000008152506065908051906020019061243692919061455b565b506040518060400160405280600281526020017f50520000000000000000000000000000000000000000000000000000000000008152506066908051906020019061248292919061455b565b506bcecb8f27f4200f3a000000006067819055506012606860006101000a81548160ff021916908360ff16021790555069043c33c19375648000006069819055506000895111612507576040517f08c379a00000000000000000000000000000000000000000000000000000000081526004016124fe90615037565b60405180910390fd5b600073ffffffffffffffffffffffffffffffffffffffff168773ffffffffffffffffffffffffffffffffffffffff161415612577576040517f08c379a000000000000000000000000000000000000000000000000000000000815260040161256e90615157565b60405180910390fd5b600073ffffffffffffffffffffffffffffffffffffffff168673ffffffffffffffffffffffffffffffffffffffff1614156125e7576040517f08c379a00000000000000000000000000000000000000000000000000000000081526004016125de90615057565b60405180910390fd5b600085101561262b576040517f08c379a0000000000000000000000000000000000000000000000000000000008152600401612622906151d7565b60405180910390fd5b600084101561266f576040517f08c379a0000000000000000000000000000000000000000000000000000000008152600401612666906152b7565b60405180910390fd5b60008310156126b3576040517f08c379a00000000000000000000000000000000000000000000000000000000081526004016126aa90615177565b60405180910390fd5b60008210156126f7576040517f08c379a00000000000000000000000000000000000000000000000000000000081526004016126ee90614f97565b60405180910390fd5b60008860ff1611801561270e575088518860ff1611155b61274d576040517f08c379a0000000000000000000000000000000000000000000000000000000008152600401612744906151f7565b60405180910390fd5b60005b895181101561296a5760008a8281518110612794577f4e487b7100000000000000000000000000000000000000000000000000000000600052603260045260246000fd5b60200260200101519050600073ffffffffffffffffffffffffffffffffffffffff168173ffffffffffffffffffffffffffffffffffffffff16141561280e576040517f08c379a000000000000000000000000000000000000000000000000000000000815260040161280590615077565b60405180910390fd5b607460008273ffffffffffffffffffffffffffffffffffffffff1673ffffffffffffffffffffffffffffffffffffffff16815260200190815260200160002060009054906101000a900460ff161561289b576040517f08c379a000000000000000000000000000000000000000000000000000000000815260040161289290614fb7565b60405180910390fd5b6001607460008373ffffffffffffffffffffffffffffffffffffffff1673ffffffffffffffffffffffffffffffffffffffff16815260200190815260200160002060006101000a81548160ff021916908315150217905550606a819080600181540180825580915050600190039060005260206000200160009091909190916101000a81548173ffffffffffffffffffffffffffffffffffffffff021916908373ffffffffffffffffffffffffffffffffffffffff16021790555050808061296290615649565b915050612750565b5087606860016101000a81548160ff021916908360ff16021790555086606b60006101000a81548173ffffffffffffffffffffffffffffffffffffffff021916908373ffffffffffffffffffffffffffffffffffffffff16021790555085606c60006101000a81548173ffffffffffffffffffffffffffffffffffffffff021916908373ffffffffffffffffffffffffffffffffffffffff16021790555084606e8190555083606f819055508260708190555081607181905550606754607260008c73ffffffffffffffffffffffffffffffffffffffff1673ffffffffffffffffffffffffffffffffffffffff168152602001908152602001600020819055508973ffffffffffffffffffffffffffffffffffffffff16600073ffffffffffffffffffffffffffffffffffffffff167fab8530f87dc9b59234c4623bf917212bb2536d647574c8e7e5da92c2ede0c9f8606754604051612aca9190615317565b60405180910390a38015612af35760008060016101000a81548160ff0219169083151502179055505b50505050505050505050565b607460003373ffffffffffffffffffffffffffffffffffffffff1673ffffffffffffffffffffffffffffffffffffffff16815260200190815260200160002060009054906101000a900460ff16612b8b576040517f08c379a0000000000000000000000000000000000000000000000000000000008152600401612b8290615297565b60405180910390fd5b6000811015612bcf576040517f08c379a0000000000000000000000000000000000000000000000000000000008152600401612bc690615257565b60405180910390fd5b606e54811415612c14576040517f08c379a0000000000000000000000000000000000000000000000000000000008152600401612c0b90614ff7565b60405180910390fd5b80606e8190555050565b60668054612c2b906155e6565b80601f0160208091040260200160405190810160405280929190818152602001828054612c57906155e6565b8015612ca45780601f10612c7957610100808354040283529160200191612ca4565b820191906000526020600020905b815481529060010190602001808311612c8757829003601f168201915b505050505081565b607460003373ffffffffffffffffffffffffffffffffffffffff1673ffffffffffffffffffffffffffffffffffffffff16815260200190815260200160002060009054906101000a900460ff16612d38576040517f08c379a0000000000000000000000000000000000000000000000000000000008152600401612d2f90615297565b60405180910390fd5b600073ffffffffffffffffffffffffffffffffffffffff168273ffffffffffffffffffffffffffffffffffffffff161415612da8576040517f08c379a0000000000000000000000000000000000000000000000000000000008152600401612d9f90615197565b60405180910390fd5b6000607260008473ffffffffffffffffffffffffffffffffffffffff1673ffffffffffffffffffffffffffffffffffffffff16815260200190815260200160002054905081811015612e2f576040517f08c379a0000000000000000000000000000000000000000000000000000000008152600401612e2690614fd7565b60405180910390fd5b81607260008573ffffffffffffffffffffffffffffffffffffffff1673ffffffffffffffffffffffffffffffffffffffff1681526020019081526020016000206000828254612e7e919061551b565b925050819055508160676000828254612e97919061551b565b92505081905550600073ffffffffffffffffffffffffffffffffffffffff168373ffffffffffffffffffffffffffffffffffffffff167fbac40739b0d4ca32fa2d82fc91630465ba3eddd1598da6fca393b26fb63b945384604051612efc9190615317565b60405180910390a3505050565b6060606a805480602002602001604051908101604052809291908181526020018280548015612f8d57602002820191906000526020600020905b8160009054906101000a900473ffffffffffffffffffffffffffffffffffffffff1673ffffffffffffffffffffffffffffffffffffffff1681526020019060010190808311612f43575b5050505050905090565b600081607260003373ffffffffffffffffffffffffffffffffffffffff1673ffffffffffffffffffffffffffffffffffffffff168152602001908152602001600020541015612fe557600080fd5b607860008473ffffffffffffffffffffffffffffffffffffffff1673ffffffffffffffffffffffffffffffffffffffff16815260200190815260200160002060009054906101000a900460ff16156131515781607260003373ffffffffffffffffffffffffffffffffffffffff1673ffffffffffffffffffffffffffffffffffffffff1681526020019081526020016000206000828254613086919061551b565b9250508190555081607260008573ffffffffffffffffffffffffffffffffffffffff1673ffffffffffffffffffffffffffffffffffffffff16815260200190815260200160002060008282546130dc919061543a565b925050819055508273ffffffffffffffffffffffffffffffffffffffff163373ffffffffffffffffffffffffffffffffffffffff167fddf252ad1be2c89b69c2b068fc378daa952ba7f163c4a11628f55a4df523b3ef846040516131409190615317565b60405180910390a360019050613276565b600061315d83336138a7565b905080607260003373ffffffffffffffffffffffffffffffffffffffff1673ffffffffffffffffffffffffffffffffffffffff16815260200190815260200160002060008282546131ae919061551b565b9250508190555080607260008673ffffffffffffffffffffffffffffffffffffffff1673ffffffffffffffffffffffffffffffffffffffff1681526020019081526020016000206000828254613204919061543a565b925050819055508373ffffffffffffffffffffffffffffffffffffffff163373ffffffffffffffffffffffffffffffffffffffff167fddf252ad1be2c89b69c2b068fc378daa952ba7f163c4a11628f55a4df523b3ef836040516132689190615317565b60405180910390a360019150505b92915050565b60756020528160005260406000206020528060005260406000206000915091509054906101000a900460ff1681565b606860019054906101000a900460ff1681565b60715481565b6073602052816000526040600020602052806000526040600020600091509150505481565b607460003373ffffffffffffffffffffffffffffffffffffffff1673ffffffffffffffffffffffffffffffffffffffff16815260200190815260200160002060009054906101000a900460ff16613375576040517f08c379a000000000000000000000000000000000000000000000000000000000815260040161336c90615297565b60405180910390fd5b60405180608001604052808373ffffffffffffffffffffffffffffffffffffffff168152602001828152602001600015158152602001600081525060776000606d54815260200190815260200160002060008201518160000160006101000a81548173ffffffffffffffffffffffffffffffffffffffff021916908373ffffffffffffffffffffffffffffffffffffffff1602179055506020820151816001015560408201518160020160006101000a81548160ff02191690831515021790555060608201518160030155905050600160766000606d54815260200190815260200160002060006101000a81548160ff0219169083151502179055508173ffffffffffffffffffffffffffffffffffffffff16606d543373ffffffffffffffffffffffffffffffffffffffff167f607576e28789836289a7d4ffb36f015c09821144e1bd861595a3a2b190776271846040516134d19190615317565b60405180910390a46001606d60008282546134ec919061543a565b925050819055505050565b607460003373ffffffffffffffffffffffffffffffffffffffff1673ffffffffffffffffffffffffffffffffffffffff16815260200190815260200160002060009054906101000a900460ff16613583576040517f08c379a000000000000000000000000000000000000000000000000000000000815260040161357a90615297565b60405180910390fd5b806076600082815260200190815260200160002060009054906101000a900460ff166135e4576040517f08c379a00000000000000000000000000000000000000000000000000000000081526004016135db90615117565b60405180910390fd5b816077600082815260200190815260200160002060020160009054906101000a900460ff1615613649576040517f08c379a000000000000000000000000000000000000000000000000000000000815260040161364090615217565b60405180910390fd5b606860019054906101000a900460ff1660ff16607760008581526020019081526020016000206003015410156136b4576040517f08c379a00000000000000000000000000000000000000000000000000000000081526004016136ab90615277565b60405180910390fd5b60016077600085815260200190815260200160002060020160006101000a81548160ff0219169083151502179055506137396077600085815260200190815260200160002060000160009054906101000a900473ffffffffffffffffffffffffffffffffffffffff166077600086815260200190815260200160002060010154613b76565b823373ffffffffffffffffffffffffffffffffffffffff167fd922735475fb08eaa1cb8b220e31a16349b32c129b237923fe659b56b84e668b60405160405180910390a3505050565b607460003373ffffffffffffffffffffffffffffffffffffffff1673ffffffffffffffffffffffffffffffffffffffff16815260200190815260200160002060009054906101000a900460ff1661380e576040517f08c379a000000000000000000000000000000000000000000000000000000000815260040161380590615297565b60405180910390fd5b6000811015613852576040517f08c379a000000000000000000000000000000000000000000000000000000000815260040161384990615257565b60405180910390fd5b607154811415613897576040517f08c379a000000000000000000000000000000000000000000000000000000000815260040161388e90614ff7565b60405180910390fd5b8060718190555050565b606d5481565b600080600090506000806000806138bd88613d4b565b8094508195508296508397505050505060008411156138e4576138e38785858585613e0c565b5b8082848a6138f2919061551b565b6138fc919061551b565b613906919061551b565b9450849550505050505092915050565b607460003373ffffffffffffffffffffffffffffffffffffffff1673ffffffffffffffffffffffffffffffffffffffff16815260200190815260200160002060009054906101000a900460ff166139a2576040517f08c379a000000000000000000000000000000000000000000000000000000000815260040161399990615297565b60405180910390fd5b50565b60006139af61428a565b90506139ba846142e1565b6000835111806139c75750815b156139d8576139d6848461439a565b505b6000613a067f4910fdfa16fed3260ed0e7147f7cc6da11a60208b5b9406d12a635614ffd914360001b61447e565b90508060000160009054906101000a900460ff16613b6f5760018160000160006101000a81548160ff021916908315150217905550613ad28583604051602401613a509190614ed8565b6040516020818303038152906040527f3659cfe6000000000000000000000000000000000000000000000000000000007bffffffffffffffffffffffffffffffffffffffffffffffffffffffff19166020820180517bffffffffffffffffffffffffffffffffffffffffffffffffffffffff838183161783525050505061439a565b5060008160000160006101000a81548160ff021916908315150217905550613af861428a565b73ffffffffffffffffffffffffffffffffffffffff168273ffffffffffffffffffffffffffffffffffffffff1614613b65576040517f08c379a0000000000000000000000000000000000000000000000000000000008152600401613b5c90615017565b60405180910390fd5b613b6e85614488565b5b5050505050565b607460003373ffffffffffffffffffffffffffffffffffffffff1673ffffffffffffffffffffffffffffffffffffffff16815260200190815260200160002060009054906101000a900460ff16613c02576040517f08c379a0000000000000000000000000000000000000000000000000000000008152600401613bf990615297565b60405180910390fd5b600073ffffffffffffffffffffffffffffffffffffffff168273ffffffffffffffffffffffffffffffffffffffff161415613c72576040517f08c379a0000000000000000000000000000000000000000000000000000000008152600401613c69906152f7565b60405180910390fd5b80607260008473ffffffffffffffffffffffffffffffffffffffff1673ffffffffffffffffffffffffffffffffffffffff1681526020019081526020016000206000828254613cc1919061543a565b925050819055508060676000828254613cda919061543a565b925050819055508173ffffffffffffffffffffffffffffffffffffffff16600073ffffffffffffffffffffffffffffffffffffffff167fab8530f87dc9b59234c4623bf917212bb2536d647574c8e7e5da92c2ede0c9f883604051613d3f9190615317565b60405180910390a35050565b6000806000806000806000806069546067541115613df5576064606e548a613d7391906154c1565b613d7d9190615490565b93506064606f548a613d8f91906154c1565b613d999190615490565b925060646070548a613dab91906154c1565b613db59190615490565b915060646071548a613dc791906154c1565b613dd19190615490565b90506000606954606754613de5919061551b565b905080841115613df3578093505b505b838383839750975097509750505050509193509193565b600073ffffffffffffffffffffffffffffffffffffffff168573ffffffffffffffffffffffffffffffffffffffff161415613e7c576040517f08c379a0000000000000000000000000000000000000000000000000000000008152600401613e7390615197565b60405180910390fd5b6000607260008773ffffffffffffffffffffffffffffffffffffffff1673ffffffffffffffffffffffffffffffffffffffff16815260200190815260200160002054905084811015613f03576040517f08c379a0000000000000000000000000000000000000000000000000000000008152600401613efa906152d7565b60405180910390fd5b83607260008873ffffffffffffffffffffffffffffffffffffffff1673ffffffffffffffffffffffffffffffffffffffff1681526020019081526020016000206000828254613f52919061551b565b9250508190555082607260008873ffffffffffffffffffffffffffffffffffffffff1673ffffffffffffffffffffffffffffffffffffffff1681526020019081526020016000206000828254613fa8919061551b565b9250508190555081607260008873ffffffffffffffffffffffffffffffffffffffff1673ffffffffffffffffffffffffffffffffffffffff1681526020019081526020016000206000828254613ffe919061551b565b925050819055508360676000828254614017919061551b565b925050819055508260726000606b60009054906101000a900473ffffffffffffffffffffffffffffffffffffffff1673ffffffffffffffffffffffffffffffffffffffff1673ffffffffffffffffffffffffffffffffffffffff168152602001908152602001600020600082825461408f919061543a565b925050819055508160726000606c60009054906101000a900473ffffffffffffffffffffffffffffffffffffffff1673ffffffffffffffffffffffffffffffffffffffff1673ffffffffffffffffffffffffffffffffffffffff1681526020019081526020016000206000828254614107919061543a565b92505081905550600073ffffffffffffffffffffffffffffffffffffffff168673ffffffffffffffffffffffffffffffffffffffff167fbac40739b0d4ca32fa2d82fc91630465ba3eddd1598da6fca393b26fb63b94538660405161416c9190615317565b60405180910390a3606b60009054906101000a900473ffffffffffffffffffffffffffffffffffffffff1673ffffffffffffffffffffffffffffffffffffffff163373ffffffffffffffffffffffffffffffffffffffff167fddf252ad1be2c89b69c2b068fc378daa952ba7f163c4a11628f55a4df523b3ef856040516141f39190615317565b60405180910390a3606c60009054906101000a900473ffffffffffffffffffffffffffffffffffffffff1673ffffffffffffffffffffffffffffffffffffffff163373ffffffffffffffffffffffffffffffffffffffff167fddf252ad1be2c89b69c2b068fc378daa952ba7f163c4a11628f55a4df523b3ef8460405161427a9190615317565b60405180910390a3505050505050565b60006142b87f360894a13ba1a3210667c828492db98dca3e2076cc3735a920a3ca505d382bbc60001b6144d7565b60000160009054906101000a900473ffffffffffffffffffffffffffffffffffffffff16905090565b6142ea816144e1565b614329576040517f08c379a0000000000000000000000000000000000000000000000000000000008152600401614320906150f7565b60405180910390fd5b806143567f360894a13ba1a3210667c828492db98dca3e2076cc3735a920a3ca505d382bbc60001b6144d7565b60000160006101000a81548173ffffffffffffffffffffffffffffffffffffffff021916908373ffffffffffffffffffffffffffffffffffffffff16021790555050565b60606143a5836144e1565b6143e4576040517f08c379a00000000000000000000000000000000000000000000000000000000081526004016143db906151b7565b60405180910390fd5b6000808473ffffffffffffffffffffffffffffffffffffffff168460405161440c9190614ec1565b600060405180830381855af49150503d8060008114614447576040519150601f19603f3d011682016040523d82523d6000602084013e61444c565b606091505b50915091506144748282604051806060016040528060278152602001615d51602791396144f4565b9250505092915050565b6000819050919050565b614491816142e1565b8073ffffffffffffffffffffffffffffffffffffffff167fbc7cd75a20ee27fd9adebab32041f755214dbc6bffa90cc0225b39da2e5c2d3b60405160405180910390a250565b6000819050919050565b600080823b905060008111915050919050565b6060831561450457829050614554565b6000835111156145175782518084602001fd5b816040517f08c379a000000000000000000000000000000000000000000000000000000000815260040161454b9190614f75565b60405180910390fd5b9392505050565b828054614567906155e6565b90600052602060002090601f01602090048101928261458957600085556145d0565b82601f106145a257805160ff19168380011785556145d0565b828001600101855582156145d0579182015b828111156145cf5782518255916020019190600101906145b4565b5b5090506145dd91906145e1565b5090565b5b808211156145fa5760008160009055506001016145e2565b5090565b600061461161460c84615372565b61534d565b9050808382526020820190508285602086028201111561463057600080fd5b60005b85811015614660578161464688826146a8565b845260208401935060208301925050600181019050614633565b5050509392505050565b600061467d6146788461539e565b61534d565b90508281526020810184848401111561469557600080fd5b6146a08482856155a4565b509392505050565b6000813590506146b781615d0b565b92915050565b600082601f8301126146ce57600080fd5b81356146de8482602086016145fe565b91505092915050565b600082601f8301126146f857600080fd5b813561470884826020860161466a565b91505092915050565b60008135905061472081615d22565b92915050565b60008135905061473581615d39565b92915050565b60006020828403121561474d57600080fd5b600061475b848285016146a8565b91505092915050565b6000806040838503121561477757600080fd5b6000614785858286016146a8565b9250506020614796858286016146a8565b9150509250929050565b6000806000606084860312156147b557600080fd5b60006147c3868287016146a8565b93505060206147d4868287016146a8565b92505060406147e586828701614711565b9150509250925092565b60008060008060008060008060006101208a8c03121561480e57600080fd5b600061481c8c828d016146a8565b99505060208a013567ffffffffffffffff81111561483957600080fd5b6148458c828d016146bd565b98505060406148568c828d01614726565b97505060606148678c828d016146a8565b96505060806148788c828d016146a8565b95505060a06148898c828d01614711565b94505060c061489a8c828d01614711565b93505060e06148ab8c828d01614711565b9250506101006148bd8c828d01614711565b9150509295985092959850929598565b600080604083850312156148e057600080fd5b60006148ee858286016146a8565b925050602083013567ffffffffffffffff81111561490b57600080fd5b614917858286016146e7565b9150509250929050565b6000806040838503121561493457600080fd5b6000614942858286016146a8565b925050602061495385828601614711565b9150509250929050565b60006020828403121561496f57600080fd5b600061497d84828501614711565b91505092915050565b6000806040838503121561499957600080fd5b60006149a785828601614711565b92505060206149b8858286016146a8565b9150509250929050565b60006149ce83836149da565b60208301905092915050565b6149e38161554f565b82525050565b6149f28161554f565b82525050565b6000614a03826153df565b614a0d818561540d565b9350614a18836153cf565b8060005b83811015614a49578151614a3088826149c2565b9750614a3b83615400565b925050600181019050614a1c565b5085935050505092915050565b614a5f81615561565b82525050565b6000614a70826153ea565b614a7a818561541e565b9350614a8a8185602086016155b3565b80840191505092915050565b6000614aa1826153f5565b614aab8185615429565b9350614abb8185602086016155b3565b614ac48161574e565b840191505092915050565b6000614adc601a83615429565b9150614ae78261575f565b602082019050919050565b6000614aff601083615429565b9150614b0a82615788565b602082019050919050565b6000614b22602283615429565b9150614b2d826157b1565b604082019050919050565b6000614b45601583615429565b9150614b5082615800565b602082019050919050565b6000614b68602f83615429565b9150614b7382615829565b604082019050919050565b6000614b8b600f83615429565b9150614b9682615878565b602082019050919050565b6000614bae601783615429565b9150614bb9826158a1565b602082019050919050565b6000614bd1600d83615429565b9150614bdc826158ca565b602082019050919050565b6000614bf4602e83615429565b9150614bff826158f3565b604082019050919050565b6000614c17601483615429565b9150614c2282615942565b602082019050919050565b6000614c3a601483615429565b9150614c458261596b565b602082019050919050565b6000614c5d602d83615429565b9150614c6882615994565b604082019050919050565b6000614c80601383615429565b9150614c8b826159e3565b602082019050919050565b6000614ca3601183615429565b9150614cae82615a0c565b602082019050919050565b6000614cc6601783615429565b9150614cd182615a35565b602082019050919050565b6000614ce9601a83615429565b9150614cf482615a5e565b602082019050919050565b6000614d0c602183615429565b9150614d1782615a87565b604082019050919050565b6000614d2f602683615429565b9150614d3a82615ad6565b604082019050919050565b6000614d52601d83615429565b9150614d5d82615b25565b602082019050919050565b6000614d75602883615429565b9150614d8082615b4e565b604082019050919050565b6000614d98601383615429565b9150614da382615b9d565b602082019050919050565b6000614dbb601083615429565b9150614dc682615bc6565b602082019050919050565b6000614dde601283615429565b9150614de982615bef565b602082019050919050565b6000614e01601183615429565b9150614e0c82615c18565b602082019050919050565b6000614e24600983615429565b9150614e2f82615c41565b602082019050919050565b6000614e47601b83615429565b9150614e5282615c6a565b602082019050919050565b6000614e6a602483615429565b9150614e7582615c93565b604082019050919050565b6000614e8d601f83615429565b9150614e9882615ce2565b602082019050919050565b614eac8161558d565b82525050565b614ebb81615597565b82525050565b6000614ecd8284614a65565b915081905092915050565b6000602082019050614eed60008301846149e9565b92915050565b6000608082019050614f0860008301876149e9565b614f156020830186614ea3565b614f226040830185614a56565b614f2f6060830184614ea3565b95945050505050565b60006020820190508181036000830152614f5281846149f8565b905092915050565b6000602082019050614f6f6000830184614a56565b92915050565b60006020820190508181036000830152614f8f8184614a96565b905092915050565b60006020820190508181036000830152614fb081614acf565b9050919050565b60006020820190508181036000830152614fd081614af2565b9050919050565b60006020820190508181036000830152614ff081614b15565b9050919050565b6000602082019050818103600083015261501081614b38565b9050919050565b6000602082019050818103600083015261503081614b5b565b9050919050565b6000602082019050818103600083015261505081614b7e565b9050919050565b6000602082019050818103600083015261507081614ba1565b9050919050565b6000602082019050818103600083015261509081614bc4565b9050919050565b600060208201905081810360008301526150b081614be7565b9050919050565b600060208201905081810360008301526150d081614c0a565b9050919050565b600060208201905081810360008301526150f081614c2d565b9050919050565b6000602082019050818103600083015261511081614c50565b9050919050565b6000602082019050818103600083015261513081614c73565b9050919050565b6000602082019050818103600083015261515081614c96565b9050919050565b6000602082019050818103600083015261517081614cb9565b9050919050565b6000602082019050818103600083015261519081614cdc565b9050919050565b600060208201905081810360008301526151b081614cff565b9050919050565b600060208201905081810360008301526151d081614d22565b9050919050565b600060208201905081810360008301526151f081614d45565b9050919050565b6000602082019050818103600083015261521081614d68565b9050919050565b6000602082019050818103600083015261523081614d8b565b9050919050565b6000602082019050818103600083015261525081614dae565b9050919050565b6000602082019050818103600083015261527081614dd1565b9050919050565b6000602082019050818103600083015261529081614df4565b9050919050565b600060208201905081810360008301526152b081614e17565b9050919050565b600060208201905081810360008301526152d081614e3a565b9050919050565b600060208201905081810360008301526152f081614e5d565b9050919050565b6000602082019050818103600083015261531081614e80565b9050919050565b600060208201905061532c6000830184614ea3565b92915050565b60006020820190506153476000830184614eb2565b92915050565b6000615357615368565b90506153638282615618565b919050565b6000604051905090565b600067ffffffffffffffff82111561538d5761538c61571f565b5b602082029050602081019050919050565b600067ffffffffffffffff8211156153b9576153b861571f565b5b6153c28261574e565b9050602081019050919050565b6000819050602082019050919050565b600081519050919050565b600081519050919050565b600081519050919050565b6000602082019050919050565b600082825260208201905092915050565b600081905092915050565b600082825260208201905092915050565b60006154458261558d565b91506154508361558d565b9250827fffffffffffffffffffffffffffffffffffffffffffffffffffffffffffffffff0382111561548557615484615692565b5b828201905092915050565b600061549b8261558d565b91506154a68361558d565b9250826154b6576154b56156c1565b5b828204905092915050565b60006154cc8261558d565b91506154d78361558d565b9250817fffffffffffffffffffffffffffffffffffffffffffffffffffffffffffffffff04831182151516156155105761550f615692565b5b828202905092915050565b60006155268261558d565b91506155318361558d565b92508282101561554457615543615692565b5b828203905092915050565b600061555a8261556d565b9050919050565b60008115159050919050565b600073ffffffffffffffffffffffffffffffffffffffff82169050919050565b6000819050919050565b600060ff82169050919050565b82818337600083830152505050565b60005b838110156155d15780820151818401526020810190506155b6565b838111156155e0576000848401525b50505050565b600060028204905060018216806155fe57607f821691505b60208210811415615612576156116156f0565b5b50919050565b6156218261574e565b810181811067ffffffffffffffff821117156156405761563f61571f565b5b80604052505050565b60006156548261558d565b91507fffffffffffffffffffffffffffffffffffffffffffffffffffffffffffffffff82141561568757615686615692565b5b600182019050919050565b7f4e487b7100000000000000000000000000000000000000000000000000000000600052601160045260246000fd5b7f4e487b7100000000000000000000000000000000000000000000000000000000600052601260045260246000fd5b7f4e487b7100000000000000000000000000000000000000000000000000000000600052602260045260246000fd5b7f4e487b7100000000000000000000000000000000000000000000000000000000600052604160045260246000fd5b6000601f19601f8301169050919050565b7f7265642070657263656e74616765206c657373207468616e2030000000000000600082015250565b7f6f776e6572206e6f7420756e6971756500000000000000000000000000000000600082015250565b7f45524332303a206275726e20616d6f756e7420657863656564732062616c616e60008201527f6365000000000000000000000000000000000000000000000000000000000000602082015250565b7f70657263656e74616765206e6f7420756e697175650000000000000000000000600082015250565b7f45524331393637557067726164653a207570677261646520627265616b73206660008201527f7572746865722075706772616465730000000000000000000000000000000000602082015250565b7f6f776e6572732072657175697265640000000000000000000000000000000000600082015250565b7f696e76616c696420726564506f6f6c2061646472657373000000000000000000600082015250565b7f696e76616c6964206f776e657200000000000000000000000000000000000000600082015250565b7f496e697469616c697a61626c653a20636f6e747261637420697320616c72656160008201527f647920696e697469616c697a6564000000000000000000000000000000000000602082015250565b7f747820616c726561647920636f6e6669726d6564000000000000000000000000600082015250565b7f77686974656c697374206e6f7420756e69717565000000000000000000000000600082015250565b7f455243313936373a206e657720696d706c656d656e746174696f6e206973206e60008201527f6f74206120636f6e747261637400000000000000000000000000000000000000602082015250565b7f6d696e7420646f6573206e6f7420657869737400000000000000000000000000600082015250565b7f696e76616c69642077686974656c697374000000000000000000000000000000600082015250565b7f696e76616c6964206c6971506f6f6c2061646472657373000000000000000000600082015250565b7f6c69712070657263656e74616765206c657373207468616e2030000000000000600082015250565b7f45524332303a206275726e2066726f6d20746865207a65726f2061646472657360008201527f7300000000000000000000000000000000000000000000000000000000000000602082015250565b7f416464726573733a2064656c65676174652063616c6c20746f206e6f6e2d636f60008201527f6e74726163740000000000000000000000000000000000000000000000000000602082015250565b7f6465647563742070657263656e74616765206c657373207468616e2030000000600082015250565b7f696e76616c6964206e756d626572206f6620726571756972656420636f6e666960008201527f726d6174696f6e73000000000000000000000000000000000000000000000000602082015250565b7f747820616c726561647920657865637574656400000000000000000000000000600082015250565b7f7478206e6f7420636f6e6669726d656400000000000000000000000000000000600082015250565b7f736d616c6c6c6572207468616e207a65726f0000000000000000000000000000600082015250565b7f63616e6e6f742065786563757465207478000000000000000000000000000000600082015250565b7f6e6f74206f776e65720000000000000000000000000000000000000000000000600082015250565b7f6275726e2070657263656e74616765206c657373207468616e20300000000000600082015250565b7f45524332303a2064656475637420616d6f756e7420657863656564732062616c60008201527f616e636500000000000000000000000000000000000000000000000000000000602082015250565b7f45524332303a206d696e7420746f20746865207a65726f206164647265737300600082015250565b615d148161554f565b8114615d1f57600080fd5b50565b615d2b8161558d565b8114615d3657600080fd5b50565b615d4281615597565b8114615d4d57600080fd5b5056fe416464726573733a206c6f772d6c6576656c2064656c65676174652063616c6c206661696c6564a2646970667358221220c40defa4a63471fe04e0187c0c9bd0bd8d2d609db1266843bffb38ecd473a8a564736f6c63430008030033",
  "immutableReferences": {},
  "source": "pragma solidity ^0.8.0;\r\n\r\nimport \"@openzeppelin/contracts-upgradeable/proxy/utils/Initializable.sol\";\r\nimport \"@openzeppelin/contracts-upgradeable/proxy/utils/UUPSUpgradeable.sol\";\r\n\r\ncontract PurseTokenMultiSigUpgradable is Initializable, UUPSUpgradeable {\r\n    string public name;\r\n    string public symbol;\r\n    uint256 public totalSupply;\r\n    uint8 public decimals;\r\n    uint8 public numConfirmationsRequired;\r\n    uint256 private minimumSupply;\r\n    address[] public owners;\r\n    address public liqPool;\r\n    address public redPool;\r\n    uint256 public mintIndex;\r\n    uint256 public deductPercent;\r\n    uint256 public burnPercent;\r\n    uint256 public liqPercent;\r\n    uint256 public redPercent;\r\n\r\n    event Transfer(address indexed _from, address indexed _to, uint256 _value);\r\n    event Burn(address indexed _from, address indexed _to, uint256 _value);\r\n    event Mint(address indexed _from, address indexed _to, uint256 _value);\r\n    event Approval(address indexed _owner, address indexed _spender, uint256 _value);\r\n    event SubmitMint(address indexed owner, uint256 indexed txIndex, address indexed to, uint256 value);\r\n    event ConfirmMint(address indexed owner, uint256 indexed txIndex);\r\n    event RevokeConfirmMint(address indexed owner, uint256 indexed txIndex);\r\n    event ExecuteMint(address indexed owner, uint256 indexed txIndex);\r\n\r\n    modifier onlyOwner() {\r\n        require(isOwner[msg.sender], \"not owner\");\r\n        _;\r\n    }\r\n\r\n    modifier mintExists(uint256 _mintIndex) {\r\n        require(mintExist[_mintIndex], \"mint does not exist\");\r\n        _;\r\n    }\r\n\r\n    modifier mintNotExecuted(uint256 _txIndex) {\r\n        require(!mints[_txIndex].executed, \"tx already executed\");\r\n        _;\r\n    }\r\n\r\n    modifier mintNotConfirmed(uint256 _txIndex) {\r\n        require(!mintIsConfirmed[_txIndex][msg.sender], \"tx already confirmed\");\r\n        _;\r\n    }\r\n\r\n    mapping(address => uint256) public balanceOf;\r\n    mapping(address => mapping(address => uint256)) public allowance;\r\n    mapping(address => bool) public isOwner;\r\n    // mapping for Mint from mint index => owner => bool\r\n    mapping(uint256 => mapping(address => bool)) public mintIsConfirmed;\r\n    mapping(uint256 => bool) public mintExist;\r\n    mapping(uint256 => MintInfo) public mints;\r\n    mapping(address => bool) public isWhitelisted;\r\n\r\n    struct MintInfo {\r\n        address to;\r\n        uint256 value;\r\n        bool executed;\r\n        uint256 numConfirmations;\r\n    }\r\n\r\n    function addOwner(address newOwner) external onlyOwner {\r\n        require(newOwner != address(0), \"invalid owner\");\r\n        require(!isOwner[newOwner], \"owner not unique\");\r\n\r\n        isOwner[newOwner] = true;\r\n        owners.push(newOwner);\r\n    }\r\n\r\n    function setWhitelisted(address newWhitelist) external onlyOwner {\r\n        require(newWhitelist != address(0), \"invalid whitelist\");\r\n        require(!isWhitelisted[newWhitelist], \"whitelist not unique\");\r\n\r\n        isWhitelisted[newWhitelist] = true;\r\n    }\r\n\r\n    function removeWhitelisted(address newWhitelist) external onlyOwner {\r\n        require(newWhitelist != address(0), \"invalid whitelist\");\r\n        require(isWhitelisted[newWhitelist], \"whitelist not unique\");\r\n\r\n        isWhitelisted[newWhitelist] = false;\r\n    }\r\n\r\n    function transfer(address _to, uint256 _value)\r\n        public\r\n        returns (bool success)\r\n    {\r\n        require(balanceOf[msg.sender] >= _value);\r\n        if (isWhitelisted[_to]) {\r\n            balanceOf[msg.sender] -= _value;\r\n            balanceOf[_to] += _value;\r\n\r\n            emit Transfer(msg.sender, _to, _value);\r\n            return true;\r\n        } else {\r\n            uint256 transferValue = _partialBurn(_value, msg.sender);\r\n            balanceOf[msg.sender] -= transferValue;\r\n            balanceOf[_to] += transferValue;\r\n\r\n            emit Transfer(msg.sender, _to, transferValue);\r\n            return true;\r\n        }\r\n    }\r\n\r\n    function approve(address _spender, uint256 _value)\r\n        public\r\n        returns (bool success)\r\n    {\r\n        allowance[msg.sender][_spender] = _value;\r\n        emit Approval(msg.sender, _spender, _value);\r\n        return true;\r\n    }\r\n\r\n    function transferFrom(\r\n        address _from,\r\n        address _to,\r\n        uint256 _value\r\n    ) public returns (bool success) {\r\n\r\n        require(_value <= balanceOf[_from]);\r\n        require(_value <= allowance[_from][msg.sender]);\r\n        if (isWhitelisted[_to]) {\r\n            allowance[_from][msg.sender] -= _value;\r\n            balanceOf[_from] -= _value;\r\n            balanceOf[_to] += _value;\r\n            emit Transfer(_from, _to, _value);\r\n            return true;\r\n        }else {\r\n            allowance[_from][msg.sender] -= _value;\r\n            uint256 transferValue = _partialBurn(_value, _from);\r\n            balanceOf[_from] -= transferValue;\r\n            balanceOf[_to] += transferValue;\r\n            emit Transfer(_from, _to, transferValue);\r\n            return true;\r\n        }\r\n    }\r\n\r\n    function mint(address _account, uint256 _amount) internal onlyOwner {\r\n        require(_account != address(0), \"ERC20: mint to the zero address\");\r\n\r\n        balanceOf[_account] += _amount;\r\n        totalSupply += _amount;\r\n        emit Mint(address(0), _account, _amount);\r\n    }\r\n\r\n    function submitMint(address _to, uint256 _value) public onlyOwner {\r\n        mints[mintIndex] = MintInfo(_to, _value, false, 0);\r\n        mintExist[mintIndex] = true;\r\n        emit SubmitMint(msg.sender, mintIndex, _to, _value);\r\n        mintIndex += 1;\r\n    }\r\n\r\n    function confirmMint(uint256 _mintIndex)\r\n        public\r\n        onlyOwner\r\n        mintExists(_mintIndex)\r\n        mintNotExecuted(_mintIndex)\r\n        mintNotConfirmed(_mintIndex)\r\n    {\r\n        mints[_mintIndex].numConfirmations += 1;\r\n        mintIsConfirmed[_mintIndex][msg.sender] = true;\r\n\r\n        emit ConfirmMint(msg.sender, _mintIndex);\r\n    }\r\n\r\n    function executeMint(uint256 _mintIndex)\r\n        public\r\n        onlyOwner\r\n        mintExists(_mintIndex)\r\n        mintNotExecuted(_mintIndex)\r\n    {\r\n        require(\r\n            mints[_mintIndex].numConfirmations >= numConfirmationsRequired,\r\n            \"cannot execute tx\"\r\n        );\r\n        mints[_mintIndex].executed = true;\r\n        mint(mints[_mintIndex].to, mints[_mintIndex].value);\r\n\r\n        emit ExecuteMint(msg.sender, _mintIndex);\r\n    }\r\n\r\n    function revokeMintConfirmation(uint256 _mintIndex)\r\n        public\r\n        onlyOwner\r\n        mintExists(_mintIndex)\r\n        mintNotExecuted(_mintIndex)\r\n    {\r\n        require(mintIsConfirmed[_mintIndex][msg.sender], \"tx not confirmed\");\r\n\r\n        mints[_mintIndex].numConfirmations -= 1;\r\n        mintIsConfirmed[_mintIndex][msg.sender] = false;\r\n\r\n        emit RevokeConfirmMint(msg.sender, _mintIndex);\r\n    }\r\n\r\n    function burn(address _account, uint256 _amount) public onlyOwner {\r\n        require(_account != address(0), \"ERC20: burn from the zero address\");\r\n        uint256 accountBalance = balanceOf[_account];\r\n        require(\r\n            accountBalance >= _amount,\r\n            \"ERC20: burn amount exceeds balance\"\r\n        );\r\n        balanceOf[_account] -= _amount;\r\n        totalSupply -= _amount;\r\n        emit Burn(_account, address(0), _amount);\r\n    }\r\n\r\n    function _partialBurn(uint256 _amount, address _from)\r\n        internal\r\n        returns (uint256)\r\n    {\r\n        uint256 transferAmount = 0;\r\n        uint256 deductAmount;\r\n        uint256 burnAmount;\r\n        uint256 liqAmount;\r\n        uint256 redAmount;\r\n        (\r\n            deductAmount,\r\n            burnAmount,\r\n            liqAmount,\r\n            redAmount\r\n        ) = _calculateDeductAmount(_amount);\r\n\r\n        if (deductAmount > 0) {\r\n            burnPrivate(_from, deductAmount, burnAmount, liqAmount, redAmount);\r\n        }\r\n        transferAmount = _amount - burnAmount - liqAmount - redAmount;\r\n\r\n        return transferAmount;\r\n    }\r\n\r\n    function _calculateDeductAmount(uint256 _amount)\r\n        internal\r\n        view\r\n        returns (\r\n            uint256,\r\n            uint256,\r\n            uint256,\r\n            uint256\r\n        )\r\n    {\r\n        uint256 deductAmount;\r\n        uint256 burnAmount;\r\n        uint256 liqAmount;\r\n        uint256 redAmount;\r\n        // burn amount calculations\r\n        if (totalSupply > minimumSupply) {\r\n            deductAmount = (_amount * deductPercent) / 100;\r\n            burnAmount = (_amount * burnPercent) / 100;\r\n            liqAmount = (_amount * liqPercent) / 100;\r\n            redAmount = (_amount * redPercent) / 100;\r\n            uint256 availableBurn = totalSupply - minimumSupply;\r\n            if (burnAmount > availableBurn) {\r\n                burnAmount = availableBurn;\r\n            }\r\n        }\r\n        return (deductAmount, burnAmount, liqAmount, redAmount);\r\n    }\r\n\r\n    function burnPrivate(\r\n        address _account,\r\n        uint256 _deductAmount,\r\n        uint256 _burnAmount,\r\n        uint256 _liqAmount,\r\n        uint256 _redAmount\r\n    ) private {\r\n        require(_account != address(0), \"ERC20: burn from the zero address\");\r\n        uint256 accountBalance = balanceOf[_account];\r\n        require(\r\n            accountBalance >= _deductAmount,\r\n            \"ERC20: deduct amount exceeds balance\"\r\n        );\r\n        balanceOf[_account] -= _burnAmount;\r\n        balanceOf[_account] -= _liqAmount;\r\n        balanceOf[_account] -= _redAmount;\r\n\r\n        totalSupply -= _burnAmount;\r\n        balanceOf[liqPool] += _liqAmount;\r\n        balanceOf[redPool] += _redAmount;\r\n        emit Burn(_account, address(0), _burnAmount);\r\n        emit Transfer(msg.sender, liqPool, _liqAmount);\r\n        emit Transfer(msg.sender, redPool, _redAmount);\r\n    }\r\n\r\n    function getOwners() public view returns (address[] memory) {\r\n        return owners;\r\n    }\r\n\r\n    function updateLPoolAdd(address _newLPool) public onlyOwner {\r\n        require(_newLPool != address(0), \"invalid owner\");\r\n        require(_newLPool != liqPool, \"owner not unique\");\r\n\r\n        liqPool = _newLPool;\r\n    }\r\n\r\n    function updateRPoolAdd(address _newRPool) public onlyOwner {\r\n        require(_newRPool != address(0), \"invalid owner\");\r\n        require(_newRPool != redPool, \"owner not unique\");\r\n\r\n        redPool = _newRPool;\r\n    }\r\n\r\n    function updateDeductPercent(uint256 _newDeductPercent) public onlyOwner {\r\n        require(_newDeductPercent >= 0, \"smalller than zero\");\r\n        require(_newDeductPercent != deductPercent, \"percentage not unique\");\r\n\r\n        deductPercent = _newDeductPercent;\r\n    }\r\n\r\n    function updateBurnPercent(uint256 _newBurnPercent) public onlyOwner {\r\n        require(_newBurnPercent >= 0, \"smalller than zero\");\r\n        require(_newBurnPercent != burnPercent, \"percentage not unique\");\r\n\r\n        burnPercent = _newBurnPercent;\r\n    }\r\n\r\n    function updateLiqPercent(uint256 _newLiqPercent) public onlyOwner {\r\n        require(_newLiqPercent >= 0, \"smalller than zero\");\r\n        require(_newLiqPercent != liqPercent, \"percentage not unique\");\r\n\r\n        liqPercent = _newLiqPercent;\r\n    }\r\n\r\n    function updateRedPercent(uint256 _newRedPercent) public onlyOwner {\r\n        require(_newRedPercent >= 0, \"smalller than zero\");\r\n        require(_newRedPercent != redPercent, \"percentage not unique\");\r\n\r\n        redPercent = _newRedPercent;\r\n    }\r\n\r\n    function _authorizeUpgrade(address) internal override onlyOwner {}\r\n\r\n    function initialize(\r\n        address _to,\r\n        address[] memory _owners,\r\n        uint8 _numConfirmationsRequired,\r\n        address _lPool,\r\n        address _rPool,\r\n        uint256 _deductPercent,\r\n        uint256 _burnPercent,\r\n        uint256 _liqPercent,\r\n        uint256 _redPercent\r\n    ) public initializer {\r\n        name = \"PURSE\";\r\n        symbol = \"PR\";\r\n        totalSupply = 64000000000 * (10**18); // 64 billion tokens\r\n        decimals = 18;\r\n        minimumSupply = 20000 * (10**18);\r\n\r\n        require(_owners.length > 0, \"owners required\");\r\n        require(_lPool != address(0), \"invalid liqPool address\");\r\n        require(_rPool != address(0), \"invalid redPool address\");\r\n        require(_deductPercent >= 0, \"deduct percentage less than 0\");\r\n        require(_burnPercent >= 0, \"burn percentage less than 0\");\r\n        require(_liqPercent >= 0, \"liq percentage less than 0\");\r\n        require(_redPercent >= 0, \"red percentage less than 0\");\r\n        require(\r\n            _numConfirmationsRequired > 0 &&\r\n                _numConfirmationsRequired <= _owners.length,\r\n            \"invalid number of required confirmations\"\r\n        );\r\n\r\n        for (uint256 i = 0; i < _owners.length; i++) {\r\n            address owner = _owners[i];\r\n\r\n            require(owner != address(0), \"invalid owner\");\r\n            require(!isOwner[owner], \"owner not unique\");\r\n\r\n            isOwner[owner] = true;\r\n            owners.push(owner);\r\n        }\r\n        \r\n        numConfirmationsRequired = _numConfirmationsRequired;\r\n        liqPool = _lPool;\r\n        redPool = _rPool;\r\n        deductPercent = _deductPercent;\r\n        burnPercent = _burnPercent;\r\n        liqPercent = _liqPercent;\r\n        redPercent = _redPercent;\r\n\r\n        balanceOf[_to] = totalSupply;\r\n        emit Mint(address(0), _to, totalSupply);\r\n    }\r\n}\r\n",
  "sourcePath": "C:\\Users\\cheek\\Desktop\\Developer doc\\Visual Studio Code\\PundiX\\PurseReward\\YieldFarm_BridgeEthBsc\\src\\contracts\\PurseTokenMultiSigUpgradable.sol",
  "compiler": {
    "name": "solc",
    "version": "0.8.3+commit.8d00100c.Emscripten.clang"
  },
  "schemaVersion": "3.2.3",
  "updatedAt": "2021-08-27T08:19:36.633Z",
  "networkType": "ethereum",
  "devdoc": {
    "kind": "dev",
    "methods": {
      "upgradeTo(address)": {
        "details": "Upgrade the implementation of the proxy to `newImplementation`. Calls {_authorizeUpgrade}. Emits an {Upgraded} event."
      },
      "upgradeToAndCall(address,bytes)": {
        "details": "Upgrade the implementation of the proxy to `newImplementation`, and subsequently execute the function call encoded in `data`. Calls {_authorizeUpgrade}. Emits an {Upgraded} event."
      }
    },
    "version": 1
  },
  "userdoc": {
    "kind": "user",
    "methods": {},
    "version": 1
  }
}