{
  "contractName": "PurseDistribution",
  "abi": [
    {
      "inputs": [
        {
          "internalType": "contract PurseTokenMultiSigUpgradable",
          "name": "_purseToken",
          "type": "address"
        }
      ],
      "stateMutability": "nonpayable",
      "type": "constructor"
    },
    {
      "anonymous": false,
      "inputs": [
        {
          "indexed": true,
          "internalType": "address",
          "name": "sender",
          "type": "address"
        },
        {
          "indexed": false,
          "internalType": "uint32",
          "name": "iteration",
          "type": "uint32"
        }
      ],
      "name": "addHolder",
      "type": "event"
    },
    {
      "anonymous": false,
      "inputs": [
        {
          "indexed": true,
          "internalType": "address",
          "name": "owner",
          "type": "address"
        },
        {
          "indexed": false,
          "internalType": "uint256",
          "name": "amount",
          "type": "uint256"
        },
        {
          "indexed": false,
          "internalType": "uint32",
          "name": "Iteration_End",
          "type": "uint32"
        }
      ],
      "name": "claimAllReward",
      "type": "event"
    },
    {
      "anonymous": false,
      "inputs": [
        {
          "indexed": true,
          "internalType": "address",
          "name": "owner",
          "type": "address"
        },
        {
          "indexed": false,
          "internalType": "uint256",
          "name": "amount",
          "type": "uint256"
        },
        {
          "indexed": true,
          "internalType": "uint32",
          "name": "Iteration",
          "type": "uint32"
        }
      ],
      "name": "claimReward",
      "type": "event"
    },
    {
      "anonymous": false,
      "inputs": [
        {
          "indexed": true,
          "internalType": "address",
          "name": "sender",
          "type": "address"
        },
        {
          "indexed": false,
          "internalType": "uint32",
          "name": "iteration",
          "type": "uint32"
        }
      ],
      "name": "updateHolder",
      "type": "event"
    },
    {
      "inputs": [
        {
          "internalType": "address",
          "name": "",
          "type": "address"
        },
        {
          "internalType": "uint32",
          "name": "",
          "type": "uint32"
        }
      ],
      "name": "holder",
      "outputs": [
        {
          "internalType": "uint256",
          "name": "distributeAmount",
          "type": "uint256"
        },
        {
          "internalType": "bool",
          "name": "isRedeem",
          "type": "bool"
        }
      ],
      "stateMutability": "view",
      "type": "function",
      "constant": true
    },
    {
      "inputs": [
        {
          "internalType": "address",
          "name": "",
          "type": "address"
        }
      ],
      "name": "isOwner",
      "outputs": [
        {
          "internalType": "bool",
          "name": "",
          "type": "bool"
        }
      ],
      "stateMutability": "view",
      "type": "function",
      "constant": true
    },
    {
      "inputs": [],
      "name": "name",
      "outputs": [
        {
          "internalType": "string",
          "name": "",
          "type": "string"
        }
      ],
      "stateMutability": "view",
      "type": "function",
      "constant": true
    },
    {
      "inputs": [
        {
          "internalType": "uint32",
          "name": "",
          "type": "uint32"
        }
      ],
      "name": "numOfHolder",
      "outputs": [
        {
          "internalType": "uint256",
          "name": "",
          "type": "uint256"
        }
      ],
      "stateMutability": "view",
      "type": "function",
      "constant": true
    },
    {
      "inputs": [],
      "name": "owner",
      "outputs": [
        {
          "internalType": "address",
          "name": "",
          "type": "address"
        }
      ],
      "stateMutability": "view",
      "type": "function",
      "constant": true
    },
    {
      "inputs": [],
      "name": "purseToken",
      "outputs": [
        {
          "internalType": "contract PurseTokenMultiSigUpgradable",
          "name": "",
          "type": "address"
        }
      ],
      "stateMutability": "view",
      "type": "function",
      "constant": true
    },
    {
      "inputs": [],
      "name": "validDuration",
      "outputs": [
        {
          "internalType": "uint256",
          "name": "",
          "type": "uint256"
        }
      ],
      "stateMutability": "view",
      "type": "function",
      "constant": true
    },
    {
      "inputs": [
        {
          "internalType": "address[]",
          "name": "_holder",
          "type": "address[]"
        },
        {
          "internalType": "uint256[]",
          "name": "_amount",
          "type": "uint256[]"
        },
        {
          "internalType": "uint32",
          "name": "iteration",
          "type": "uint32"
        }
      ],
      "name": "addHolderInfo",
      "outputs": [],
      "stateMutability": "nonpayable",
      "type": "function"
    },
    {
      "inputs": [
        {
          "internalType": "address[]",
          "name": "_holder",
          "type": "address[]"
        },
        {
          "internalType": "uint256[]",
          "name": "_amount",
          "type": "uint256[]"
        },
        {
          "internalType": "uint32",
          "name": "iteration",
          "type": "uint32"
        }
      ],
      "name": "updateHolderInfo",
      "outputs": [],
      "stateMutability": "nonpayable",
      "type": "function"
    },
    {
      "inputs": [
        {
          "internalType": "uint32",
          "name": "iteration",
          "type": "uint32"
        }
      ],
      "name": "claim",
      "outputs": [],
      "stateMutability": "nonpayable",
      "type": "function"
    },
    {
      "inputs": [
        {
          "internalType": "uint32",
          "name": "iteration_end",
          "type": "uint32"
        }
      ],
      "name": "claimAll",
      "outputs": [],
      "stateMutability": "nonpayable",
      "type": "function"
    },
    {
      "inputs": [
        {
          "internalType": "address",
          "name": "_to",
          "type": "address"
        }
      ],
      "name": "returnPurseToken",
      "outputs": [],
      "stateMutability": "nonpayable",
      "type": "function"
    },
    {
      "inputs": [
        {
          "internalType": "address",
          "name": "token",
          "type": "address"
        },
        {
          "internalType": "uint256",
          "name": "amount",
          "type": "uint256"
        },
        {
          "internalType": "address",
          "name": "_to",
          "type": "address"
        }
      ],
      "name": "returnAnyToken",
      "outputs": [],
      "stateMutability": "nonpayable",
      "type": "function"
    },
    {
      "inputs": [
        {
          "internalType": "address",
          "name": "_owner",
          "type": "address"
        }
      ],
      "name": "updateOwner",
      "outputs": [],
      "stateMutability": "nonpayable",
      "type": "function"
    }
  ],
  "bytecode": "0x60806040526040518060400160405280601281526020017f507572736520446973747269627574696f6e000000000000000000000000000081525060009080519060200190620000519291906200016d565b503480156200005f57600080fd5b50604051620023f2380380620023f2833981810160405281019062000085919062000234565b80600160006101000a81548173ffffffffffffffffffffffffffffffffffffffff021916908373ffffffffffffffffffffffffffffffffffffffff1602179055506001600460003373ffffffffffffffffffffffffffffffffffffffff1673ffffffffffffffffffffffffffffffffffffffff16815260200190815260200160002060006101000a81548160ff02191690831515021790555033600260006101000a81548173ffffffffffffffffffffffffffffffffffffffff021916908373ffffffffffffffffffffffffffffffffffffffff160217905550426003819055505062000327565b8280546200017b90620002a8565b90600052602060002090601f0160209004810192826200019f5760008555620001eb565b82601f10620001ba57805160ff1916838001178555620001eb565b82800160010185558215620001eb579182015b82811115620001ea578251825591602001919060010190620001cd565b5b509050620001fa9190620001fe565b5090565b5b8082111562000219576000816000905550600101620001ff565b5090565b6000815190506200022e816200030d565b92915050565b6000602082840312156200024757600080fd5b600062000257848285016200021d565b91505092915050565b60006200026d8262000288565b9050919050565b6000620002818262000260565b9050919050565b600073ffffffffffffffffffffffffffffffffffffffff82169050919050565b60006002820490506001821680620002c157607f821691505b60208210811415620002d857620002d7620002de565b5b50919050565b7f4e487b7100000000000000000000000000000000000000000000000000000000600052602260045260246000fd5b620003188162000274565b81146200032457600080fd5b50565b6120bb80620003376000396000f3fe608060405234801561001057600080fd5b50600436106100ea5760003560e01c80638da5cb5b1161008c578063c24f2eaa11610066578063c24f2eaa14610223578063f09de43f14610253578063fa2da2441461026f578063ff0e009e1461028b576100ea565b80638da5cb5b146101cd57806393ad9ed2146101eb578063c237e32614610207576100ea565b80632f54bf6e116100c85780632f54bf6e1461014757806351bf16ef1461017757806372da5bcb14610195578063880cdc31146101b1576100ea565b806304951891146100ef57806306fdde031461010b5780632948ff4114610129575b600080fd5b6101096004803603810190610104919061192c565b6102bc565b005b6101136105ad565b6040516101209190611b48565b60405180910390f35b61013161063b565b60405161013e9190611c4a565b60405180910390f35b610161600480360381019061015c919061179d565b610642565b60405161016e9190611b12565b60405180910390f35b61017f610662565b60405161018c9190611b2d565b60405180910390f35b6101af60048036038101906101aa919061192c565b610688565b005b6101cb60048036038101906101c6919061179d565b610a32565b005b6101d5610c5b565b6040516101e29190611ace565b60405180910390f35b61020560048036038101906102009190611851565b610c81565b005b610221600480360381019061021c91906117c6565b610f52565b005b61023d6004803603810190610238919061192c565b6110e1565b60405161024a9190611c4a565b60405180910390f35b61026d6004803603810190610268919061179d565b6110f9565b005b61028960048036038101906102849190611851565b611358565b005b6102a560048036038101906102a09190611815565b611662565b6040516102b3929190611c65565b60405180910390f35b60006277f8806003546102cf9190611cee565b905080421115610314576040517f08c379a000000000000000000000000000000000000000000000000000000000815260040161030b90611bca565b60405180910390fd5b60011515600560003373ffffffffffffffffffffffffffffffffffffffff1673ffffffffffffffffffffffffffffffffffffffff16815260200190815260200160002060008463ffffffff1663ffffffff16815260200190815260200160002060010160009054906101000a900460ff161515146103c7576040517f08c379a00000000000000000000000000000000000000000000000000000000081526004016103be90611bea565b60405180910390fd5b6000600560003373ffffffffffffffffffffffffffffffffffffffff1673ffffffffffffffffffffffffffffffffffffffff16815260200190815260200160002060008463ffffffff1663ffffffff16815260200190815260200160002060010160006101000a81548160ff0219169083151502179055506000600560003373ffffffffffffffffffffffffffffffffffffffff1673ffffffffffffffffffffffffffffffffffffffff16815260200190815260200160002060008463ffffffff1663ffffffff168152602001908152602001600020600001549050600160009054906101000a900473ffffffffffffffffffffffffffffffffffffffff1673ffffffffffffffffffffffffffffffffffffffff1663a9059cbb33836040518363ffffffff1660e01b8152600401610500929190611ae9565b602060405180830381600087803b15801561051a57600080fd5b505af115801561052e573d6000803e3d6000fd5b505050506040513d601f19601f8201168201806040525081019061055291906118da565b508263ffffffff163373ffffffffffffffffffffffffffffffffffffffff167f46f359e8b618e8dcf8db2845dc89ec1e82a4e3eb8a0dfaa3081351701f8296a5836040516105a09190611c4a565b60405180910390a3505050565b600080546105ba90611df3565b80601f01602080910402602001604051908101604052809291908181526020018280546105e690611df3565b80156106335780601f1061060857610100808354040283529160200191610633565b820191906000526020600020905b81548152906001019060200180831161061657829003601f168201915b505050505081565b6277f88081565b60046020528060005260406000206000915054906101000a900460ff1681565b600160009054906101000a900473ffffffffffffffffffffffffffffffffffffffff1681565b60006277f88060035461069b9190611cee565b9050804211156106e0576040517f08c379a00000000000000000000000000000000000000000000000000000000081526004016106d790611bca565b60405180910390fd5b6000805b8363ffffffff168163ffffffff16116109225760011515600560003373ffffffffffffffffffffffffffffffffffffffff1673ffffffffffffffffffffffffffffffffffffffff16815260200190815260200160002060008363ffffffff1663ffffffff16815260200190815260200160002060010160009054906101000a900460ff161515141561090f5760011515600560003373ffffffffffffffffffffffffffffffffffffffff1673ffffffffffffffffffffffffffffffffffffffff16815260200190815260200160002060008363ffffffff1663ffffffff16815260200190815260200160002060010160009054906101000a900460ff16151514610823576040517f08c379a000000000000000000000000000000000000000000000000000000000815260040161081a90611bea565b60405180910390fd5b6000600560003373ffffffffffffffffffffffffffffffffffffffff1673ffffffffffffffffffffffffffffffffffffffff16815260200190815260200160002060008363ffffffff1663ffffffff16815260200190815260200160002060010160006101000a81548160ff0219169083151502179055506000600560003373ffffffffffffffffffffffffffffffffffffffff1673ffffffffffffffffffffffffffffffffffffffff16815260200190815260200160002060008363ffffffff1663ffffffff168152602001908152602001600020600001549050808361090b9190611cee565b9250505b808061091a90611e6e565b9150506106e4565b5060008111156109dd57600160009054906101000a900473ffffffffffffffffffffffffffffffffffffffff1673ffffffffffffffffffffffffffffffffffffffff1663a9059cbb33836040518363ffffffff1660e01b8152600401610989929190611ae9565b602060405180830381600087803b1580156109a357600080fd5b505af11580156109b7573d6000803e3d6000fd5b505050506040513d601f19601f820116820180604052508101906109db91906118da565b505b3373ffffffffffffffffffffffffffffffffffffffff167f0cb481c25d2f9182101c224b90fd59b10c3256e430e20bcb065bebd30b91a9f28285604051610a25929190611c8e565b60405180910390a2505050565b600460003373ffffffffffffffffffffffffffffffffffffffff1673ffffffffffffffffffffffffffffffffffffffff16815260200190815260200160002060009054906101000a900460ff16610abe576040517f08c379a0000000000000000000000000000000000000000000000000000000008152600401610ab590611c2a565b60405180910390fd5b600073ffffffffffffffffffffffffffffffffffffffff168173ffffffffffffffffffffffffffffffffffffffff161415610b2e576040517f08c379a0000000000000000000000000000000000000000000000000000000008152600401610b2590611baa565b60405180910390fd5b600260009054906101000a900473ffffffffffffffffffffffffffffffffffffffff1673ffffffffffffffffffffffffffffffffffffffff168173ffffffffffffffffffffffffffffffffffffffff161415610bbf576040517f08c379a0000000000000000000000000000000000000000000000000000000008152600401610bb690611b8a565b60405180910390fd5b6001600460008373ffffffffffffffffffffffffffffffffffffffff1673ffffffffffffffffffffffffffffffffffffffff16815260200190815260200160002060006101000a81548160ff02191690831515021790555080600260006101000a81548173ffffffffffffffffffffffffffffffffffffffff021916908373ffffffffffffffffffffffffffffffffffffffff16021790555050565b600260009054906101000a900473ffffffffffffffffffffffffffffffffffffffff1681565b600460003373ffffffffffffffffffffffffffffffffffffffff1673ffffffffffffffffffffffffffffffffffffffff16815260200190815260200160002060009054906101000a900460ff16610d0d576040517f08c379a0000000000000000000000000000000000000000000000000000000008152600401610d0490611c2a565b60405180910390fd5b60006277f880600354610d209190611cee565b905080421115610d65576040517f08c379a0000000000000000000000000000000000000000000000000000000008152600401610d5c90611bca565b60405180910390fd5b6000848490508787905014610daf576040517f08c379a0000000000000000000000000000000000000000000000000000000008152600401610da690611b6a565b60405180910390fd5b5b86869050811015610efb576040518060400160405280868684818110610dff577f4e487b7100000000000000000000000000000000000000000000000000000000600052603260045260246000fd5b9050602002013581526020016001151581525060056000898985818110610e4f577f4e487b7100000000000000000000000000000000000000000000000000000000600052603260045260246000fd5b9050602002016020810190610e64919061179d565b73ffffffffffffffffffffffffffffffffffffffff1673ffffffffffffffffffffffffffffffffffffffff16815260200190815260200160002060008563ffffffff1663ffffffff1681526020019081526020016000206000820151816000015560208201518160010160006101000a81548160ff0219169083151502179055509050508080610ef390611e25565b915050610db0565b3373ffffffffffffffffffffffffffffffffffffffff167fe0de873476573fa673d69e0904f053222c29891dd0be532bde8fdac2a596161184604051610f419190611cb7565b60405180910390a250505050505050565b600460003373ffffffffffffffffffffffffffffffffffffffff1673ffffffffffffffffffffffffffffffffffffffff16815260200190815260200160002060009054906101000a900460ff16610fde576040517f08c379a0000000000000000000000000000000000000000000000000000000008152600401610fd590611c2a565b60405180910390fd5b600073ffffffffffffffffffffffffffffffffffffffff168173ffffffffffffffffffffffffffffffffffffffff16141561104e576040517f08c379a000000000000000000000000000000000000000000000000000000000815260040161104590611c0a565b60405180910390fd5b8273ffffffffffffffffffffffffffffffffffffffff1663a9059cbb82846040518363ffffffff1660e01b8152600401611089929190611ae9565b602060405180830381600087803b1580156110a357600080fd5b505af11580156110b7573d6000803e3d6000fd5b505050506040513d601f19601f820116820180604052508101906110db91906118da565b50505050565b60066020528060005260406000206000915090505481565b600460003373ffffffffffffffffffffffffffffffffffffffff1673ffffffffffffffffffffffffffffffffffffffff16815260200190815260200160002060009054906101000a900460ff16611185576040517f08c379a000000000000000000000000000000000000000000000000000000000815260040161117c90611c2a565b60405180910390fd5b600073ffffffffffffffffffffffffffffffffffffffff168173ffffffffffffffffffffffffffffffffffffffff1614156111f5576040517f08c379a00000000000000000000000000000000000000000000000000000000081526004016111ec90611c0a565b60405180910390fd5b6000600160009054906101000a900473ffffffffffffffffffffffffffffffffffffffff1673ffffffffffffffffffffffffffffffffffffffff166370a08231306040518263ffffffff1660e01b81526004016112529190611ace565b60206040518083038186803b15801561126a57600080fd5b505afa15801561127e573d6000803e3d6000fd5b505050506040513d601f19601f820116820180604052508101906112a29190611903565b9050600160009054906101000a900473ffffffffffffffffffffffffffffffffffffffff1673ffffffffffffffffffffffffffffffffffffffff1663a9059cbb83836040518363ffffffff1660e01b8152600401611301929190611ae9565b602060405180830381600087803b15801561131b57600080fd5b505af115801561132f573d6000803e3d6000fd5b505050506040513d601f19601f8201168201806040525081019061135391906118da565b505050565b600460003373ffffffffffffffffffffffffffffffffffffffff1673ffffffffffffffffffffffffffffffffffffffff16815260200190815260200160002060009054906101000a900460ff166113e4576040517f08c379a00000000000000000000000000000000000000000000000000000000081526004016113db90611c2a565b60405180910390fd5b60006277f8806003546113f79190611cee565b90508042111561143c576040517f08c379a000000000000000000000000000000000000000000000000000000000815260040161143390611bca565b60405180910390fd5b6000848490508787905014611486576040517f08c379a000000000000000000000000000000000000000000000000000000000815260040161147d90611b6a565b60405180910390fd5b5b868690508110156115d25760405180604001604052808686848181106114d6577f4e487b7100000000000000000000000000000000000000000000000000000000600052603260045260246000fd5b9050602002013581526020016001151581525060056000898985818110611526577f4e487b7100000000000000000000000000000000000000000000000000000000600052603260045260246000fd5b905060200201602081019061153b919061179d565b73ffffffffffffffffffffffffffffffffffffffff1673ffffffffffffffffffffffffffffffffffffffff16815260200190815260200160002060008563ffffffff1663ffffffff1681526020019081526020016000206000820151816000015560208201518160010160006101000a81548160ff02191690831515021790555090505080806115ca90611e25565b915050611487565b86869050600660008563ffffffff1663ffffffff16815260200190815260200160002060008282546116049190611cee565b925050819055503373ffffffffffffffffffffffffffffffffffffffff167f21baddd1b7c1e670d8f5c8189b8fad82e3aa5098e7e054bf8e66bd5e28f09643846040516116519190611cb7565b60405180910390a250505050505050565b6005602052816000526040600020602052806000526040600020600091509150508060000154908060010160009054906101000a900460ff16905082565b6000813590506116af81612029565b92915050565b60008083601f8401126116c757600080fd5b8235905067ffffffffffffffff8111156116e057600080fd5b6020830191508360208202830111156116f857600080fd5b9250929050565b60008083601f84011261171157600080fd5b8235905067ffffffffffffffff81111561172a57600080fd5b60208301915083602082028301111561174257600080fd5b9250929050565b60008151905061175881612040565b92915050565b60008135905061176d81612057565b92915050565b60008151905061178281612057565b92915050565b6000813590506117978161206e565b92915050565b6000602082840312156117af57600080fd5b60006117bd848285016116a0565b91505092915050565b6000806000606084860312156117db57600080fd5b60006117e9868287016116a0565b93505060206117fa8682870161175e565b925050604061180b868287016116a0565b9150509250925092565b6000806040838503121561182857600080fd5b6000611836858286016116a0565b925050602061184785828601611788565b9150509250929050565b60008060008060006060868803121561186957600080fd5b600086013567ffffffffffffffff81111561188357600080fd5b61188f888289016116b5565b9550955050602086013567ffffffffffffffff8111156118ae57600080fd5b6118ba888289016116ff565b935093505060406118cd88828901611788565b9150509295509295909350565b6000602082840312156118ec57600080fd5b60006118fa84828501611749565b91505092915050565b60006020828403121561191557600080fd5b600061192384828501611773565b91505092915050565b60006020828403121561193e57600080fd5b600061194c84828501611788565b91505092915050565b61195e81611d44565b82525050565b61196d81611d56565b82525050565b61197c81611d9c565b82525050565b600061198d82611cd2565b6119978185611cdd565b93506119a7818560208601611dc0565b6119b081611ef9565b840191505092915050565b60006119c8601183611cdd565b91506119d382611f0a565b602082019050919050565b60006119eb601283611cdd565b91506119f682611f33565b602082019050919050565b6000611a0e601183611cdd565b9150611a1982611f5c565b602082019050919050565b6000611a31601883611cdd565b9150611a3c82611f85565b602082019050919050565b6000611a54601083611cdd565b9150611a5f82611fae565b602082019050919050565b6000611a77601883611cdd565b9150611a8282611fd7565b602082019050919050565b6000611a9a600983611cdd565b9150611aa582612000565b602082019050919050565b611ab981611d82565b82525050565b611ac881611d8c565b82525050565b6000602082019050611ae36000830184611955565b92915050565b6000604082019050611afe6000830185611955565b611b0b6020830184611ab0565b9392505050565b6000602082019050611b276000830184611964565b92915050565b6000602082019050611b426000830184611973565b92915050565b60006020820190508181036000830152611b628184611982565b905092915050565b60006020820190508181036000830152611b83816119bb565b9050919050565b60006020820190508181036000830152611ba3816119de565b9050919050565b60006020820190508181036000830152611bc381611a01565b9050919050565b60006020820190508181036000830152611be381611a24565b9050919050565b60006020820190508181036000830152611c0381611a47565b9050919050565b60006020820190508181036000830152611c2381611a6a565b9050919050565b60006020820190508181036000830152611c4381611a8d565b9050919050565b6000602082019050611c5f6000830184611ab0565b92915050565b6000604082019050611c7a6000830185611ab0565b611c876020830184611964565b9392505050565b6000604082019050611ca36000830185611ab0565b611cb06020830184611abf565b9392505050565b6000602082019050611ccc6000830184611abf565b92915050565b600081519050919050565b600082825260208201905092915050565b6000611cf982611d82565b9150611d0483611d82565b9250827fffffffffffffffffffffffffffffffffffffffffffffffffffffffffffffffff03821115611d3957611d38611e9b565b5b828201905092915050565b6000611d4f82611d62565b9050919050565b60008115159050919050565b600073ffffffffffffffffffffffffffffffffffffffff82169050919050565b6000819050919050565b600063ffffffff82169050919050565b6000611da782611dae565b9050919050565b6000611db982611d62565b9050919050565b60005b83811015611dde578082015181840152602081019050611dc3565b83811115611ded576000848401525b50505050565b60006002820490506001821680611e0b57607f821691505b60208210811415611e1f57611e1e611eca565b5b50919050565b6000611e3082611d82565b91507fffffffffffffffffffffffffffffffffffffffffffffffffffffffffffffffff821415611e6357611e62611e9b565b5b600182019050919050565b6000611e7982611d8c565b915063ffffffff821415611e9057611e8f611e9b565b5b600182019050919050565b7f4e487b7100000000000000000000000000000000000000000000000000000000600052601160045260246000fd5b7f4e487b7100000000000000000000000000000000000000000000000000000000600052602260045260246000fd5b6000601f19601f8301169050919050565b7f6c656e67746820646966666572656e6365000000000000000000000000000000600082015250565b7f73616d65206f776e657220616464726573730000000000000000000000000000600082015250565b7f6e6f742076616c69642061646472657373000000000000000000000000000000600082015250565b7f446973747269627574696f6e2077696e646f77206f7665720000000000000000600082015250565b7f68617665206265656e2072656465656d00000000000000000000000000000000600082015250565b7f73656e6420746f20746865207a65726f20616464726573730000000000000000600082015250565b7f6e6f74206f776e65720000000000000000000000000000000000000000000000600082015250565b61203281611d44565b811461203d57600080fd5b50565b61204981611d56565b811461205457600080fd5b50565b61206081611d82565b811461206b57600080fd5b50565b61207781611d8c565b811461208257600080fd5b5056fea2646970667358221220f9f5e82341dd36d42543210b151c39d87b43100a3c24c86d75f2a094c425d60364736f6c63430008030033",
  "immutableReferences": {},
  "source": "// SPDX-License-Identifier: UNLICENSED\r\n\r\npragma solidity ^0.8.0;\r\n\r\nimport \"./PurseTokenMultiSigUpgradable.sol\";\r\n\r\ncontract PurseDistribution {\r\n    event claimReward(address indexed owner, uint256 amount, uint32 indexed Iteration);\r\n    event claimAllReward(address indexed owner, uint256 amount, uint32 Iteration_End);\r\n    event addHolder(address indexed sender, uint32 iteration);\r\n    event updateHolder(address indexed sender, uint32 iteration);\r\n    \r\n    string public name = \"Purse Distribution\";\r\n    PurseTokenMultiSigUpgradable public purseToken;\r\n    address public owner;\r\n    uint256 public constant validDuration = 91 days;\r\n    uint256 internal distributionStart;\r\n    mapping(address => bool) public isOwner;\r\n    mapping(address => mapping(uint32 => holderInfo)) public holder;   //address->index   \r\n    mapping(uint32 => uint256) public numOfHolder;\r\n\r\n\r\n    struct holderInfo {\r\n        uint256 distributeAmount;\r\n        bool isRedeem;\r\n    }\r\n    \r\n    modifier onlyOwner() {\r\n        require(isOwner[msg.sender], \"not owner\");\r\n        _;\r\n    }\r\n\r\n    constructor(PurseTokenMultiSigUpgradable _purseToken) {\r\n        purseToken = _purseToken;\r\n        isOwner[msg.sender] = true;\r\n        owner = msg.sender;\r\n        distributionStart = block.timestamp;\r\n    }\r\n\r\n    function addHolderInfo(address[] calldata _holder, uint256[] calldata _amount , uint32 iteration) public onlyOwner {\r\n        uint256 end = distributionStart + validDuration;\r\n        require(block.timestamp <= end, \"Distribution window over\");\r\n        uint256 i = 0;\r\n        require(_holder.length == _amount.length, \"length difference\");\r\n        for (i; i < _holder.length; i++) {\r\n            holder[_holder[i]][iteration] = holderInfo(_amount[i], true);\r\n        }\r\n        numOfHolder[iteration] += _holder.length;\r\n        emit addHolder(msg.sender, iteration);\r\n    }\r\n\r\n    function updateHolderInfo(address[] calldata _holder, uint256[] calldata _amount , uint32 iteration) public onlyOwner {\r\n        uint256 end = distributionStart + validDuration;\r\n        require(block.timestamp <= end, \"Distribution window over\");\r\n        uint256 i = 0;\r\n        require(_holder.length == _amount.length, \"length difference\");\r\n        for (i; i < _holder.length; i++) {\r\n            holder[_holder[i]][iteration] = holderInfo(_amount[i], true);\r\n        }\r\n        emit updateHolder(msg.sender, iteration);\r\n    }\r\n\r\n    // Notice Transfers tokens held by timelock to beneficiary.\r\n    function claim(uint32 iteration) public {\r\n        uint256 end = distributionStart + validDuration;\r\n        require(block.timestamp <= end, \"Distribution window over\");\r\n        require(holder[msg.sender][iteration].isRedeem == true, 'have been redeem');\r\n\r\n        holder[msg.sender][iteration].isRedeem = false;\r\n        uint256 claimAmount = holder[msg.sender][iteration].distributeAmount;\r\n        purseToken.transfer(msg.sender, claimAmount);\r\n        emit claimReward(msg.sender, claimAmount, iteration);\r\n    }\r\n\r\n    function claimAll(uint32 iteration_end) public {\r\n        uint256 end = distributionStart + validDuration;\r\n        require(block.timestamp <= end, \"Distribution window over\");\r\n        uint256 claimAmount = 0;\r\n        for (uint32 i = 0; i <= iteration_end; i++) {\r\n                if (holder[msg.sender][i].isRedeem == true) {\r\n                    require(holder[msg.sender][i].isRedeem == true, 'have been redeem');\r\n                    holder[msg.sender][i].isRedeem = false;\r\n                    uint256 holderAmount = holder[msg.sender][i].distributeAmount;\r\n                    claimAmount += holderAmount;                    \r\n                }\r\n        }\r\n        if (claimAmount > 0) {\r\n            purseToken.transfer(msg.sender, claimAmount);\r\n        }\r\n        emit claimAllReward(msg.sender, claimAmount, iteration_end);\r\n    }\r\n    \r\n    function returnPurseToken(address _to) public onlyOwner {\r\n        require(_to != address(0), \"send to the zero address\");\r\n        uint256 remainingAmount = purseToken.balanceOf(address(this));\r\n        purseToken.transfer(_to, remainingAmount);\r\n    }\r\n\r\n    function returnAnyToken(address token, uint256 amount, address _to) public onlyOwner{\r\n        require(_to != address(0), \"send to the zero address\");\r\n        ERC20Interface(token).transfer(_to, amount);\r\n    } \r\n\r\n    function updateOwner(address _owner) public onlyOwner{\r\n        require(_owner != address(0), \"not valid address\");\r\n        require(_owner != owner, \"same owner address\");\r\n        isOwner[_owner] = true;\r\n        owner = _owner;\r\n    } \r\n}\r\n",
  "sourcePath": "C:/Users/cheek/Desktop/Developer doc/Visual Studio Code/PundiX/PurseRewardTokenFinal/src/contracts/PurseDistribution.sol",
  "compiler": {
    "name": "solc",
    "version": "0.8.3+commit.8d00100c.Emscripten.clang"
  },
  "schemaVersion": "3.2.3",
  "updatedAt": "2021-09-07T09:51:55.394Z",
  "networkType": "ethereum",
  "devdoc": {
    "kind": "dev",
    "methods": {},
    "version": 1
  },
  "userdoc": {
    "kind": "user",
    "methods": {},
    "version": 1
  }
}