{
  "contractName": "PurseTokenUpgradableV3",
  "abi": [
    {
      "anonymous": false,
      "inputs": [
        {
          "indexed": false,
          "internalType": "address",
          "name": "previousAdmin",
          "type": "address"
        },
        {
          "indexed": false,
          "internalType": "address",
          "name": "newAdmin",
          "type": "address"
        }
      ],
      "name": "AdminChanged",
      "type": "event"
    },
    {
      "anonymous": false,
      "inputs": [
        {
          "indexed": true,
          "internalType": "address",
          "name": "_owner",
          "type": "address"
        },
        {
          "indexed": true,
          "internalType": "address",
          "name": "_spender",
          "type": "address"
        },
        {
          "indexed": false,
          "internalType": "uint256",
          "name": "_value",
          "type": "uint256"
        }
      ],
      "name": "Approval",
      "type": "event"
    },
    {
      "anonymous": false,
      "inputs": [
        {
          "indexed": true,
          "internalType": "address",
          "name": "beacon",
          "type": "address"
        }
      ],
      "name": "BeaconUpgraded",
      "type": "event"
    },
    {
      "anonymous": false,
      "inputs": [
        {
          "indexed": true,
          "internalType": "address",
          "name": "_from",
          "type": "address"
        },
        {
          "indexed": false,
          "internalType": "uint256",
          "name": "_value",
          "type": "uint256"
        }
      ],
      "name": "Burn",
      "type": "event"
    },
    {
      "anonymous": false,
      "inputs": [
        {
          "indexed": true,
          "internalType": "address",
          "name": "_from",
          "type": "address"
        },
        {
          "indexed": true,
          "internalType": "address",
          "name": "_to",
          "type": "address"
        },
        {
          "indexed": false,
          "internalType": "uint256",
          "name": "_value",
          "type": "uint256"
        }
      ],
      "name": "Mint",
      "type": "event"
    },
    {
      "anonymous": false,
      "inputs": [
        {
          "indexed": true,
          "internalType": "address",
          "name": "previousOwner",
          "type": "address"
        },
        {
          "indexed": true,
          "internalType": "address",
          "name": "newOwner",
          "type": "address"
        }
      ],
      "name": "OwnershipTransferred",
      "type": "event"
    },
    {
      "anonymous": false,
      "inputs": [
        {
          "indexed": false,
          "internalType": "address",
          "name": "account",
          "type": "address"
        }
      ],
      "name": "Paused",
      "type": "event"
    },
    {
      "anonymous": false,
      "inputs": [
        {
          "indexed": true,
          "internalType": "address",
          "name": "_from",
          "type": "address"
        },
        {
          "indexed": true,
          "internalType": "address",
          "name": "_to",
          "type": "address"
        },
        {
          "indexed": false,
          "internalType": "uint256",
          "name": "_value",
          "type": "uint256"
        }
      ],
      "name": "Transfer",
      "type": "event"
    },
    {
      "anonymous": false,
      "inputs": [
        {
          "indexed": false,
          "internalType": "address",
          "name": "account",
          "type": "address"
        }
      ],
      "name": "Unpaused",
      "type": "event"
    },
    {
      "anonymous": false,
      "inputs": [
        {
          "indexed": true,
          "internalType": "address",
          "name": "implementation",
          "type": "address"
        }
      ],
      "name": "Upgraded",
      "type": "event"
    },
    {
      "inputs": [],
      "name": "_averageInterval",
      "outputs": [
        {
          "internalType": "uint256",
          "name": "",
          "type": "uint256"
        }
      ],
      "stateMutability": "view",
      "type": "function"
    },
    {
      "inputs": [],
      "name": "_getRewardEndTime",
      "outputs": [
        {
          "internalType": "uint256",
          "name": "",
          "type": "uint256"
        }
      ],
      "stateMutability": "view",
      "type": "function"
    },
    {
      "inputs": [],
      "name": "_getRewardStartTime",
      "outputs": [
        {
          "internalType": "uint256",
          "name": "",
          "type": "uint256"
        }
      ],
      "stateMutability": "view",
      "type": "function"
    },
    {
      "inputs": [],
      "name": "_lastRewardStartTime",
      "outputs": [
        {
          "internalType": "uint256",
          "name": "",
          "type": "uint256"
        }
      ],
      "stateMutability": "view",
      "type": "function"
    },
    {
      "inputs": [],
      "name": "_monthlyDistributePr",
      "outputs": [
        {
          "internalType": "uint256",
          "name": "",
          "type": "uint256"
        }
      ],
      "stateMutability": "view",
      "type": "function"
    },
    {
      "inputs": [],
      "name": "_numOfDaysPerMth",
      "outputs": [
        {
          "internalType": "uint256",
          "name": "",
          "type": "uint256"
        }
      ],
      "stateMutability": "view",
      "type": "function"
    },
    {
      "inputs": [],
      "name": "_percentageDistribute",
      "outputs": [
        {
          "internalType": "uint256",
          "name": "",
          "type": "uint256"
        }
      ],
      "stateMutability": "view",
      "type": "function"
    },
    {
      "inputs": [],
      "name": "_totalSupply",
      "outputs": [
        {
          "internalType": "uint256",
          "name": "",
          "type": "uint256"
        }
      ],
      "stateMutability": "view",
      "type": "function"
    },
    {
      "inputs": [
        {
          "internalType": "address",
          "name": "",
          "type": "address"
        }
      ],
      "name": "accAmount",
      "outputs": [
        {
          "internalType": "uint256",
          "name": "amount",
          "type": "uint256"
        },
        {
          "internalType": "uint256",
          "name": "accReward",
          "type": "uint256"
        },
        {
          "internalType": "uint256",
          "name": "lastUpdateTime",
          "type": "uint256"
        }
      ],
      "stateMutability": "view",
      "type": "function"
    },
    {
      "inputs": [
        {
          "internalType": "uint256",
          "name": "",
          "type": "uint256"
        }
      ],
      "name": "admins",
      "outputs": [
        {
          "internalType": "address",
          "name": "",
          "type": "address"
        }
      ],
      "stateMutability": "view",
      "type": "function"
    },
    {
      "inputs": [
        {
          "internalType": "address",
          "name": "",
          "type": "address"
        },
        {
          "internalType": "address",
          "name": "",
          "type": "address"
        }
      ],
      "name": "allowance",
      "outputs": [
        {
          "internalType": "uint256",
          "name": "",
          "type": "uint256"
        }
      ],
      "stateMutability": "view",
      "type": "function"
    },
    {
      "inputs": [
        {
          "internalType": "address",
          "name": "",
          "type": "address"
        }
      ],
      "name": "balanceOf",
      "outputs": [
        {
          "internalType": "uint256",
          "name": "",
          "type": "uint256"
        }
      ],
      "stateMutability": "view",
      "type": "function"
    },
    {
      "inputs": [],
      "name": "burnPercent",
      "outputs": [
        {
          "internalType": "uint256",
          "name": "",
          "type": "uint256"
        }
      ],
      "stateMutability": "view",
      "type": "function"
    },
    {
      "inputs": [],
      "name": "decimals",
      "outputs": [
        {
          "internalType": "uint8",
          "name": "",
          "type": "uint8"
        }
      ],
      "stateMutability": "view",
      "type": "function"
    },
    {
      "inputs": [],
      "name": "disPercent",
      "outputs": [
        {
          "internalType": "uint256",
          "name": "",
          "type": "uint256"
        }
      ],
      "stateMutability": "view",
      "type": "function"
    },
    {
      "inputs": [],
      "name": "disPool",
      "outputs": [
        {
          "internalType": "address",
          "name": "",
          "type": "address"
        }
      ],
      "stateMutability": "view",
      "type": "function"
    },
    {
      "inputs": [
        {
          "internalType": "address",
          "name": "",
          "type": "address"
        }
      ],
      "name": "isAdmin",
      "outputs": [
        {
          "internalType": "bool",
          "name": "",
          "type": "bool"
        }
      ],
      "stateMutability": "view",
      "type": "function"
    },
    {
      "inputs": [
        {
          "internalType": "address",
          "name": "",
          "type": "address"
        }
      ],
      "name": "isWhitelistedFrom",
      "outputs": [
        {
          "internalType": "bool",
          "name": "",
          "type": "bool"
        }
      ],
      "stateMutability": "view",
      "type": "function"
    },
    {
      "inputs": [
        {
          "internalType": "address",
          "name": "",
          "type": "address"
        }
      ],
      "name": "isWhitelistedTo",
      "outputs": [
        {
          "internalType": "bool",
          "name": "",
          "type": "bool"
        }
      ],
      "stateMutability": "view",
      "type": "function"
    },
    {
      "inputs": [],
      "name": "liqPercent",
      "outputs": [
        {
          "internalType": "uint256",
          "name": "",
          "type": "uint256"
        }
      ],
      "stateMutability": "view",
      "type": "function"
    },
    {
      "inputs": [],
      "name": "liqPool",
      "outputs": [
        {
          "internalType": "address",
          "name": "",
          "type": "address"
        }
      ],
      "stateMutability": "view",
      "type": "function"
    },
    {
      "inputs": [],
      "name": "minimumSupply",
      "outputs": [
        {
          "internalType": "uint256",
          "name": "",
          "type": "uint256"
        }
      ],
      "stateMutability": "view",
      "type": "function"
    },
    {
      "inputs": [],
      "name": "name",
      "outputs": [
        {
          "internalType": "string",
          "name": "",
          "type": "string"
        }
      ],
      "stateMutability": "view",
      "type": "function"
    },
    {
      "inputs": [],
      "name": "owner",
      "outputs": [
        {
          "internalType": "address",
          "name": "",
          "type": "address"
        }
      ],
      "stateMutability": "view",
      "type": "function"
    },
    {
      "inputs": [],
      "name": "paused",
      "outputs": [
        {
          "internalType": "bool",
          "name": "",
          "type": "bool"
        }
      ],
      "stateMutability": "view",
      "type": "function"
    },
    {
      "inputs": [],
      "name": "renounceOwnership",
      "outputs": [],
      "stateMutability": "nonpayable",
      "type": "function"
    },
    {
      "inputs": [],
      "name": "symbol",
      "outputs": [
        {
          "internalType": "string",
          "name": "",
          "type": "string"
        }
      ],
      "stateMutability": "view",
      "type": "function"
    },
    {
      "inputs": [],
      "name": "totalSupply",
      "outputs": [
        {
          "internalType": "uint256",
          "name": "",
          "type": "uint256"
        }
      ],
      "stateMutability": "view",
      "type": "function"
    },
    {
      "inputs": [
        {
          "internalType": "address",
          "name": "newOwner",
          "type": "address"
        }
      ],
      "name": "transferOwnership",
      "outputs": [],
      "stateMutability": "nonpayable",
      "type": "function"
    },
    {
      "inputs": [
        {
          "internalType": "address",
          "name": "newImplementation",
          "type": "address"
        }
      ],
      "name": "upgradeTo",
      "outputs": [],
      "stateMutability": "nonpayable",
      "type": "function"
    },
    {
      "inputs": [
        {
          "internalType": "address",
          "name": "newImplementation",
          "type": "address"
        },
        {
          "internalType": "bytes",
          "name": "data",
          "type": "bytes"
        }
      ],
      "name": "upgradeToAndCall",
      "outputs": [],
      "stateMutability": "payable",
      "type": "function"
    },
    {
      "inputs": [
        {
          "internalType": "address",
          "name": "_to",
          "type": "address"
        },
        {
          "internalType": "uint256",
          "name": "_value",
          "type": "uint256"
        }
      ],
      "name": "transfer",
      "outputs": [
        {
          "internalType": "bool",
          "name": "success",
          "type": "bool"
        }
      ],
      "stateMutability": "nonpayable",
      "type": "function"
    },
    {
      "inputs": [
        {
          "internalType": "address",
          "name": "_spender",
          "type": "address"
        },
        {
          "internalType": "uint256",
          "name": "_value",
          "type": "uint256"
        }
      ],
      "name": "approve",
      "outputs": [
        {
          "internalType": "bool",
          "name": "success",
          "type": "bool"
        }
      ],
      "stateMutability": "nonpayable",
      "type": "function"
    },
    {
      "inputs": [
        {
          "internalType": "address",
          "name": "_from",
          "type": "address"
        },
        {
          "internalType": "address",
          "name": "_to",
          "type": "address"
        },
        {
          "internalType": "uint256",
          "name": "_value",
          "type": "uint256"
        }
      ],
      "name": "transferFrom",
      "outputs": [
        {
          "internalType": "bool",
          "name": "success",
          "type": "bool"
        }
      ],
      "stateMutability": "nonpayable",
      "type": "function"
    },
    {
      "inputs": [
        {
          "internalType": "address",
          "name": "_account",
          "type": "address"
        },
        {
          "internalType": "uint256",
          "name": "_amount",
          "type": "uint256"
        }
      ],
      "name": "mint",
      "outputs": [],
      "stateMutability": "nonpayable",
      "type": "function"
    },
    {
      "inputs": [
        {
          "internalType": "uint256",
          "name": "_amount",
          "type": "uint256"
        }
      ],
      "name": "burn",
      "outputs": [],
      "stateMutability": "nonpayable",
      "type": "function"
    },
    {
      "inputs": [],
      "name": "claimDistributionPurse",
      "outputs": [
        {
          "internalType": "bool",
          "name": "success",
          "type": "bool"
        }
      ],
      "stateMutability": "nonpayable",
      "type": "function"
    },
    {
      "inputs": [
        {
          "internalType": "uint256",
          "name": "_rewardStartTime",
          "type": "uint256"
        },
        {
          "internalType": "uint256",
          "name": "_rewardEndTime",
          "type": "uint256"
        },
        {
          "internalType": "uint256",
          "name": "_monthlyDisPr",
          "type": "uint256"
        },
        {
          "internalType": "uint256",
          "name": "_numOfDays",
          "type": "uint256"
        },
        {
          "internalType": "uint256",
          "name": "_percentage",
          "type": "uint256"
        }
      ],
      "name": "activateClaimMonthly",
      "outputs": [],
      "stateMutability": "nonpayable",
      "type": "function"
    },
    {
      "inputs": [
        {
          "internalType": "address",
          "name": "_newLPool",
          "type": "address"
        }
      ],
      "name": "updateLPoolAdd",
      "outputs": [],
      "stateMutability": "nonpayable",
      "type": "function"
    },
    {
      "inputs": [
        {
          "internalType": "address",
          "name": "_newDPool",
          "type": "address"
        }
      ],
      "name": "updateDPoolAdd",
      "outputs": [],
      "stateMutability": "nonpayable",
      "type": "function"
    },
    {
      "inputs": [
        {
          "internalType": "uint256",
          "name": "_newDisPercent",
          "type": "uint256"
        },
        {
          "internalType": "uint256",
          "name": "_newLiqPercent",
          "type": "uint256"
        },
        {
          "internalType": "uint256",
          "name": "_newBurnPercent",
          "type": "uint256"
        }
      ],
      "name": "updatePercent",
      "outputs": [],
      "stateMutability": "nonpayable",
      "type": "function"
    },
    {
      "inputs": [
        {
          "internalType": "uint256",
          "name": "_minimumSupply",
          "type": "uint256"
        }
      ],
      "name": "updateMinimumSupply",
      "outputs": [],
      "stateMutability": "nonpayable",
      "type": "function"
    },
    {
      "inputs": [
        {
          "internalType": "address",
          "name": "newAdmin",
          "type": "address"
        }
      ],
      "name": "addAdmin",
      "outputs": [],
      "stateMutability": "nonpayable",
      "type": "function"
    },
    {
      "inputs": [
        {
          "internalType": "uint256",
          "name": "index",
          "type": "uint256"
        }
      ],
      "name": "removeAdmin",
      "outputs": [
        {
          "internalType": "address[]",
          "name": "",
          "type": "address[]"
        }
      ],
      "stateMutability": "nonpayable",
      "type": "function"
    },
    {
      "inputs": [
        {
          "internalType": "address",
          "name": "token",
          "type": "address"
        },
        {
          "internalType": "uint256",
          "name": "amount",
          "type": "uint256"
        },
        {
          "internalType": "address",
          "name": "_to",
          "type": "address"
        }
      ],
      "name": "transferERCToken",
      "outputs": [],
      "stateMutability": "nonpayable",
      "type": "function"
    },
    {
      "inputs": [],
      "name": "pause",
      "outputs": [],
      "stateMutability": "nonpayable",
      "type": "function"
    },
    {
      "inputs": [],
      "name": "unpause",
      "outputs": [],
      "stateMutability": "nonpayable",
      "type": "function"
    },
    {
      "inputs": [
        {
          "internalType": "address",
          "name": "newWhitelist",
          "type": "address"
        }
      ],
      "name": "setWhitelistedTo",
      "outputs": [],
      "stateMutability": "nonpayable",
      "type": "function"
    },
    {
      "inputs": [
        {
          "internalType": "address",
          "name": "newWhitelist",
          "type": "address"
        }
      ],
      "name": "removeWhitelistedTo",
      "outputs": [],
      "stateMutability": "nonpayable",
      "type": "function"
    },
    {
      "inputs": [
        {
          "internalType": "address",
          "name": "newWhitelist",
          "type": "address"
        }
      ],
      "name": "setWhitelistedFrom",
      "outputs": [],
      "stateMutability": "nonpayable",
      "type": "function"
    },
    {
      "inputs": [
        {
          "internalType": "address",
          "name": "newWhitelist",
          "type": "address"
        }
      ],
      "name": "removeWhitelistedFrom",
      "outputs": [],
      "stateMutability": "nonpayable",
      "type": "function"
    },
    {
      "inputs": [
        {
          "internalType": "address",
          "name": "_to",
          "type": "address"
        },
        {
          "internalType": "address",
          "name": "_lPool",
          "type": "address"
        },
        {
          "internalType": "uint256",
          "name": "_burnPercent",
          "type": "uint256"
        },
        {
          "internalType": "uint256",
          "name": "_liqPercent",
          "type": "uint256"
        },
        {
          "internalType": "uint256",
          "name": "_disPercent",
          "type": "uint256"
        }
      ],
      "name": "initialize",
      "outputs": [],
      "stateMutability": "nonpayable",
      "type": "function"
    }
  ],
  "bytecode": "0x608060405234801561001057600080fd5b506139dd806100206000396000f3fe6080604052600436106102ff5760003560e01c80637048027511610190578063b7c74bd3116100dc578063d13f90b411610095578063dd62ed3e1161006f578063dd62ed3e14610912578063e2657da11461094b578063f2fde38b1461096b578063f75672441461098b57600080fd5b8063d13f90b4146108bb578063d5529204146108db578063d5b8ddf8146108f257600080fd5b8063b7c74bd3146107c4578063bab384401461081c578063bc8d571d1461083c578063c43c082f14610853578063c6ef924614610873578063ca04d2d81461088a57600080fd5b80638456cb591161014957806395d89b411161012357806395d89b411461074b57806395e96ff114610760578063a9059cbb14610777578063ad7bbc291461079757600080fd5b80638456cb59146106f85780638da5cb5b1461070d57806395b13db31461072b57600080fd5b8063704802751461064757806370a0823114610667578063715018a614610695578063740b91f4146106aa5780637888f7b2146106cb5780637ede036d146106e257600080fd5b806335e8b82e1161024f57806342966c68116102085780634f1ef286116101e25780634f1ef286146105d45780635422e495146105e75780635b014029146105fe5780635c975abb1461062f57600080fd5b806342966c6814610574578063434f9237146105945780634d28b4ba146105b457600080fd5b806335e8b82e146104c65780633659cfe6146104e85780633838d4e3146105085780633eaaf86b146105285780633f4ba83a1461053f57806340c10f191461055457600080fd5b806318160ddd116102bc57806324d7806c1161029657806324d7806c1461043157806327ba6e1114610462578063313ce56714610483578063347d34c6146104af57600080fd5b806318160ddd146103e457806320b1e78a146103fa57806323b872dd1461041157600080fd5b806303807ee51461030457806306fdde031461032e578063095ea7b3146103505780630f4307e21461038057806311a6c16c1461039757806314bfd6d0146103ac575b600080fd5b34801561031057600080fd5b5061031b6101035481565b6040519081526020015b60405180910390f35b34801561033a57600080fd5b506103436109ab565b60405161032591906136e7565b34801561035c57600080fd5b5061037061036b366004613576565b610a39565b6040519015158152602001610325565b34801561038c57600080fd5b5061031b61010a5481565b3480156103a357600080fd5b50610370610ad3565b3480156103b857600080fd5b506103cc6103c73660046135fe565b610c80565b6040516001600160a01b039091168152602001610325565b3480156103f057600080fd5b5061031b60fd5481565b34801561040657600080fd5b5061031b61010b5481565b34801561041d57600080fd5b5061037061042c36600461342b565b610cab565b34801561043d57600080fd5b5061037061044c3660046133dd565b6101106020526000908152604090205460ff1681565b34801561046e57600080fd5b50610102546103cc906001600160a01b031681565b34801561048f57600080fd5b5060fe5461049d9060ff1681565b60405160ff9091168152602001610325565b3480156104bb57600080fd5b5061031b6101065481565b3480156104d257600080fd5b506104e66104e13660046133dd565b610f97565b005b3480156104f457600080fd5b506104e66105033660046133dd565b611043565b34801561051457600080fd5b506104e66105233660046133dd565b61106a565b34801561053457600080fd5b5061031b61010d5481565b34801561054b57600080fd5b506104e6611117565b34801561056057600080fd5b506104e661056f366004613576565b611194565b34801561058057600080fd5b506104e661058f3660046135fe565b611288565b3480156105a057600080fd5b506104e66105af366004613643565b61134a565b3480156105c057600080fd5b506104e66105cf3660046133dd565b611553565b6104e66105e23660046134b4565b611600565b3480156105f357600080fd5b5061031b6101045481565b34801561060a57600080fd5b506103706106193660046133dd565b6101116020526000908152604090205460ff1681565b34801561063b57600080fd5b5060975460ff16610370565b34801561065357600080fd5b506104e66106623660046133dd565b611615565b34801561067357600080fd5b5061031b6106823660046133dd565b61010e6020526000908152604090205481565b3480156106a157600080fd5b506104e66116fc565b3480156106b657600080fd5b50610101546103cc906001600160a01b031681565b3480156106d757600080fd5b5061031b61010c5481565b3480156106ee57600080fd5b5061031b60ff5481565b34801561070457600080fd5b506104e6611730565b34801561071957600080fd5b5060c9546001600160a01b03166103cc565b34801561073757600080fd5b506104e66107463660046135fe565b611785565b34801561075757600080fd5b506103436117b4565b34801561076c57600080fd5b5061031b6101095481565b34801561078357600080fd5b50610370610792366004613576565b6117c1565b3480156107a357600080fd5b506107b76107b23660046135fe565b611992565b604051610325919061369a565b3480156107d057600080fd5b506108016107df3660046133dd565b6101136020526000908152604090208054600182015460029092015490919083565b60408051938452602084019290925290820152606001610325565b34801561082857600080fd5b506104e66108373660046133dd565b611bec565b34801561084857600080fd5b5061031b6101085481565b34801561085f57600080fd5b506104e661086e366004613617565b611c98565b34801561087f57600080fd5b5061031b6101055481565b34801561089657600080fd5b506103706108a53660046133dd565b6101126020526000908152604090205460ff1681565b3480156108c757600080fd5b506104e66108d6366004613467565b611d9e565b3480156108e757600080fd5b5061031b6101075481565b3480156108fe57600080fd5b506104e661090d3660046135a0565b611f56565b34801561091e57600080fd5b5061031b61092d3660046133f8565b61010f60209081526000928352604080842090915290825290205481565b34801561095757600080fd5b506104e66109663660046133dd565b61206b565b34801561097757600080fd5b506104e66109863660046133dd565b612118565b34801561099757600080fd5b506104e66109a63660046133dd565b6121b0565b60fb80546109b8906138b2565b80601f01602080910402602001604051908101604052809291908181526020018280546109e4906138b2565b8015610a315780601f10610a0657610100808354040283529160200191610a31565b820191906000526020600020905b815481529060010190602001808311610a1457829003601f168201915b505050505081565b6000610a4760975460ff1690565b15610a6d5760405162461bcd60e51b8152600401610a6490613746565b60405180910390fd5b33600081815261010f602090815260408083206001600160a01b03881680855290835292819020869055518581529192917f8c5be1e5ebec7d5bd14f71427d1e84f3dd0314c0f7b2291e5b200ac8c7c3b925910160405180910390a35060015b92915050565b6000610ae160975460ff1690565b15610afe5760405162461bcd60e51b8152600401610a6490613746565b610108544211610b445760405162461bcd60e51b815260206004820152601160248201527010db185a5b481b9bdd081cdd185c9d1959607a1b6044820152606401610a64565b610107544210610b8a5760405162461bcd60e51b815260206004820152601160248201527021b630b4b6903832b934b7b21037bb32b960791b6044820152606401610a64565b610b933361225d565b3360009081526101136020526040902060010154610be65760405162461bcd60e51b815260206004820152601060248201526f0557365722072657761726420697320360841b6044820152606401610a64565b336000818152610113602052604080822060010180549290555163a9059cbb60e01b815260048101929092526024820181905290309063a9059cbb90604401602060405180830381600087803b158015610c3f57600080fd5b505af1158015610c53573d6000803e3d6000fd5b505050506040513d601f19601f82011682018060405250810190610c7791906135dc565b50600191505090565b6101008181548110610c9157600080fd5b6000918252602090912001546001600160a01b0316905081565b6000610cb960975460ff1690565b15610cd65760405162461bcd60e51b8152600401610a6490613746565b6001600160a01b038416600090815261010e6020526040902054821115610d0f5760405162461bcd60e51b8152600401610a649061371a565b6001600160a01b038416600090815261010f60209081526040808320338452909152902054821115610d7a5760405162461bcd60e51b81526020600482015260146024820152734e6f7420656e6f75676820616c6c6f77616e636560601b6044820152606401610a64565b6001600160a01b0383166000908152610111602052604090205460ff1680610db25750336000908152610112602052604090205460ff165b15610e9c576001600160a01b038416600090815261010f6020908152604080832033845290915281208054849290610deb90849061386f565b90915550610dfb905084846127d9565b6001600160a01b038416600090815261010e602052604081208054849290610e2490849061386f565b90915550506001600160a01b038316600090815261010e602052604081208054849290610e52908490613816565b92505081905550826001600160a01b0316846001600160a01b031660008051602061398883398151915284604051610e8c91815260200190565b60405180910390a3506001610f90565b6001600160a01b038416600090815261010f6020908152604080832033845290915281208054849290610ed090849061386f565b90915550610ee0905084846127d9565b6000610eec83866127eb565b6001600160a01b038616600090815261010e6020526040812080549293508392909190610f1a90849061386f565b90915550506001600160a01b038416600090815261010e602052604081208054839290610f48908490613816565b92505081905550836001600160a01b0316856001600160a01b031660008051602061398883398151915283604051610f8291815260200190565b60405180910390a360019150505b9392505050565b60c9546001600160a01b03163314610fc15760405162461bcd60e51b8152600401610a64906137e1565b610101546001600160a01b03828116911614156110205760405162461bcd60e51b815260206004820152601a60248201527f53616d6520776974682070726576696f757320616464726573730000000000006044820152606401610a64565b61010180546001600160a01b0319166001600160a01b0392909216919091179055565b61104c81612838565b61106781604051806020016040528060008152506000612862565b50565b60c9546001600160a01b031633146110945760405162461bcd60e51b8152600401610a64906137e1565b6001600160a01b0381166000908152610112602052604090205460ff16156110f25760405162461bcd60e51b81526020600482015260116024820152705768696c6973746564204164647265737360781b6044820152606401610a64565b6001600160a01b0316600090815261011260205260409020805460ff19166001179055565b60975460ff166111605760405162461bcd60e51b815260206004820152601460248201527314185d5cd8589b194e881b9bdd081c185d5cd95960621b6044820152606401610a64565b60c9546001600160a01b0316331461118a5760405162461bcd60e51b8152600401610a64906137e1565b6111926129ea565b565b60975460ff16156111b75760405162461bcd60e51b8152600401610a6490613746565b336000908152610110602052604090205460ff166112035760405162461bcd60e51b81526020600482015260096024820152682737ba1020b236b4b760b91b6044820152606401610a64565b6001600160a01b0382166112295760405162461bcd60e51b8152600401610a6490613770565b6112328261225d565b6001600160a01b038216600090815261010e60205260408120805483929061125b908490613816565b925050819055508060fd60008282546112749190613816565b9091555061128490508282612a7d565b5050565b60975460ff16156112ab5760405162461bcd60e51b8152600401610a6490613746565b806112c85760405162461bcd60e51b8152600401610a6490613770565b33600090815261010e60205260409020548111156112f85760405162461bcd60e51b8152600401610a649061371a565b6113013361225d565b33600090815261010e60205260408120805483929061132190849061386f565b925050819055508060fd600082825461133a919061386f565b9091555061106790503382612af2565b336000908152610110602052604090205460ff166113965760405162461bcd60e51b81526020600482015260096024820152682737ba1020b236b4b760b91b6044820152606401610a64565b4285116113de5760405162461bcd60e51b81526020600482015260166024820152754c657373207468616e2063757272656e742074696d6560501b6044820152606401610a64565b8484116114245760405162461bcd60e51b81526020600482015260146024820152734c657373207468616e2073746172742074696d6560601b6044820152606401610a64565b600082116114625760405162461bcd60e51b815260206004820152600b60248201526a04c657373207468616e20360ac1b6044820152606401610a64565b600081118015611473575060648111155b6114bf5760405162461bcd60e51b815260206004820152601c60248201527f4c657373207468616e2030206f72204d6f7265207468616e20313030000000006044820152606401610a64565b30600090815261010e60205260409020548311156115185760405162461bcd60e51b81526020600482015260166024820152754d6f7265207468616e20706f6f6c2062616c616e636560501b6044820152606401610a64565b60fd5461010d556101085415611531576101085461010c555b61010991909155610108939093556101079190915561010b9190915561010a55565b60c9546001600160a01b0316331461157d5760405162461bcd60e51b8152600401610a64906137e1565b6001600160a01b0381166000908152610112602052604090205460ff166115de5760405162461bcd60e51b81526020600482015260156024820152744e6f6e207768696c6973746564204164647265737360581b6044820152606401610a64565b6001600160a01b0316600090815261011260205260409020805460ff19169055565b61160982612838565b61128482826001612862565b60c9546001600160a01b0316331461163f5760405162461bcd60e51b8152600401610a64906137e1565b6001600160a01b0381166000908152610110602052604090205460ff16156116945760405162461bcd60e51b815260206004820152600860248201526724b99030b236b4b760c11b6044820152606401610a64565b6001600160a01b0316600081815261011060205260408120805460ff19166001908117909155610100805491820181559091527f45e010b9ae401e2eb71529478da8bd513a9bdc2d095a111e324f5b95c09ed87b0180546001600160a01b0319169091179055565b60c9546001600160a01b031633146117265760405162461bcd60e51b8152600401610a64906137e1565b6111926000612b61565b60975460ff16156117535760405162461bcd60e51b8152600401610a6490613746565b60c9546001600160a01b0316331461177d5760405162461bcd60e51b8152600401610a64906137e1565b611192612bb3565b60c9546001600160a01b031633146117af5760405162461bcd60e51b8152600401610a64906137e1565b60ff55565b60fc80546109b8906138b2565b60006117cf60975460ff1690565b156117ec5760405162461bcd60e51b8152600401610a6490613746565b33600090815261010e602052604090205482111561181c5760405162461bcd60e51b8152600401610a649061371a565b6001600160a01b0383166000908152610111602052604090205460ff16806118545750336000908152610112602052604090205460ff165b156118ec5761186333846127d9565b33600090815261010e60205260408120805484929061188390849061386f565b90915550506001600160a01b038316600090815261010e6020526040812080548492906118b1908490613816565b90915550506040518281526001600160a01b0384169033906000805160206139888339815191529060200160405180910390a3506001610acd565b6118f633846127d9565b600061190283336127eb565b33600090815261010e602052604081208054929350839290919061192790849061386f565b90915550506001600160a01b038416600090815261010e602052604081208054839290611955908490613816565b90915550506040518181526001600160a01b0385169033906000805160206139888339815191529060200160405180910390a36001915050610acd565b60c9546060906001600160a01b031633146119bf5760405162461bcd60e51b8152600401610a64906137e1565b600061010083815481106119d5576119d5613934565b600091825260209091200154610100546001600160a01b0390911691508310611a405760405162461bcd60e51b815260206004820152601860248201527f496e707574206f7665722061646d696e73206c656e67746800000000000000006044820152606401610a64565b6001600160a01b0381166000908152610110602052604090205460ff16611a985760405162461bcd60e51b815260206004820152600c60248201526b2737ba1030b71030b236b4b760a11b6044820152606401610a64565b825b61010054611aaa9060019061386f565b811015611b3757610100611abf826001613816565b81548110611acf57611acf613934565b60009182526020909120015461010080546001600160a01b039092169183908110611afc57611afc613934565b600091825260209091200180546001600160a01b0319166001600160a01b039290921691909117905580611b2f816138ed565b915050611a9a565b50610100805480611b4a57611b4a61391e565b60008281526020808220830160001990810180546001600160a01b03191690559092019092556001600160a01b03831682526101108152604091829020805460ff1916905561010080548351818402810184019094528084529091830182828015611bde57602002820191906000526020600020905b81546001600160a01b03168152600190910190602001808311611bc0575b50505050509150505b919050565b60c9546001600160a01b03163314611c165760405162461bcd60e51b8152600401610a64906137e1565b610102546001600160a01b0382811691161415611c755760405162461bcd60e51b815260206004820152601a60248201527f53616d6520776974682070726576696f757320616464726573730000000000006044820152606401610a64565b61010280546001600160a01b0319166001600160a01b0392909216919091179055565b60c9546001600160a01b03163314611cc25760405162461bcd60e51b8152600401610a64906137e1565b60648311158015611cd1575060015b8015611cde575060648211155b8015611ce8575060015b8015611cf5575060648111155b611d325760405162461bcd60e51b815260206004820152600e60248201526d025203c2030206f72203e203130360941b6044820152606401610a64565b606481611d3f8486613816565b611d499190613816565b1115611d8d5760405162461bcd60e51b81526020600482015260136024820152720546f74616c206d6f7265207468616e2031303606c1b6044820152606401610a64565b610105929092556101045561010355565b600054610100900460ff1680611db7575060005460ff16155b611dd35760405162461bcd60e51b8152600401610a6490613793565b600054610100900460ff16158015611df5576000805461ffff19166101011790555b6001600160a01b038516611e1b5760405162461bcd60e51b8152600401610a6490613770565b60408051808201909152600b8082526a282aa929a2902a27a5a2a760a91b6020909201918252611e4d9160fb9161332d565b5060408051808201909152600580825264505552534560d81b6020909201918252611e7a9160fc9161332d565b506bcecb8f27f4200f3a0000000060fd5560fe805460ff191660121790556b295be96e640669720000000060ff5561010180546001600160a01b0387166001600160a01b03199182161790915561010280549091163017905561010384905561010483905561010582905562015180610106554261010c55611efa612c0b565b611f02612c86565b611f0a612ced565b60fd546001600160a01b038716600090815261010e6020526040902055611f308661225d565b611f3c8660fd54612a7d565b8015611f4e576000805461ff00191690555b505050505050565b60975460ff1615611f795760405162461bcd60e51b8152600401610a6490613746565b60c9546001600160a01b03163314611fa35760405162461bcd60e51b8152600401610a64906137e1565b6001600160a01b038116611fc95760405162461bcd60e51b8152600401610a6490613770565b6001600160a01b038316301415611fe357611fe38161225d565b60405163a9059cbb60e01b81526001600160a01b0382811660048301526024820184905284169063a9059cbb90604401602060405180830381600087803b15801561202d57600080fd5b505af1158015612041573d6000803e3d6000fd5b505050506040513d601f19601f8201168201806040525081019061206591906135dc565b50505050565b60c9546001600160a01b031633146120955760405162461bcd60e51b8152600401610a64906137e1565b6001600160a01b0381166000908152610111602052604090205460ff166120f65760405162461bcd60e51b81526020600482015260156024820152744e6f6e207768696c6973746564204164647265737360581b6044820152606401610a64565b6001600160a01b0316600090815261011160205260409020805460ff19169055565b60c9546001600160a01b031633146121425760405162461bcd60e51b8152600401610a64906137e1565b6001600160a01b0381166121a75760405162461bcd60e51b815260206004820152602660248201527f4f776e61626c653a206e6577206f776e657220697320746865207a65726f206160448201526564647265737360d01b6064820152608401610a64565b61106781612b61565b60c9546001600160a01b031633146121da5760405162461bcd60e51b8152600401610a64906137e1565b6001600160a01b0381166000908152610111602052604090205460ff16156122385760405162461bcd60e51b81526020600482015260116024820152705768696c6973746564204164647265737360781b6044820152606401610a64565b6001600160a01b0316600090815261011160205260409020805460ff19166001179055565b6001600160a01b0381166000908152610113602052604090206002015461234357610108546122e55760006101065461010c544261229b919061386f565b6122a5919061382e565b905061010654816122b69190613850565b61010c546122c49190613816565b6001600160a01b038316600090815261011360205260409020600201555050565b610108544210156123055760006101065461010c544261229b919061386f565b600061010654610108544261231a919061386f565b612324919061382e565b905061010654816123359190613850565b610108546122c49190613816565b610108544210156124ef5761010c546001600160a01b0382166000908152610113602052604090206002015410156124025760006101065461010c544261238a919061386f565b612394919061382e565b6001600160a01b038316600090815261010e6020526040812054919250906123bd908390613850565b905061010654826123ce9190613850565b61010c546123dc9190613816565b6001600160a01b0384166000908152610113602052604090206002810191909155555050565b610106546001600160a01b03821660009081526101136020526040812060020154909190612430904261386f565b61243a919061382e565b905060018110611284576001600160a01b038216600090815261010e6020526040812054612469908390613850565b9050610106548261247a9190613850565b6001600160a01b03841660009081526101136020526040812060020180549091906124a6908490613816565b90915550506001600160a01b038316600090815261011360205260409020546124d0908290613816565b6001600160a01b03841660009081526101136020526040902055505050565b6101085442106110675761010c546001600160a01b0382166000908152610113602052604090206002015410156126125760006101065461010c5461010854612538919061386f565b612542919061382e565b6001600160a01b038316600090815261010e60205260408120549192509061256b908390613850565b6001600160a01b038416600090815261011360205260408120556101095461010d5461010b5461010a54939450612710936125a69086613850565b6125b09190613850565b6125bb906064613850565b6125c5919061382e565b6125cf919061382e565b6125d9919061382e565b6001600160a01b03841660009081526101136020526040902060018101919091556101085460029091015561260d8361225d565b505050565b61010c546001600160a01b038216600090815261011360205260409020600201541080159061265f5750610108546001600160a01b03821660009081526101136020526040902060020154105b1561240257610106546001600160a01b0382166000908152610113602052604081206002015461010854919291612696919061386f565b6126a0919061382e565b90506001811061279a576001600160a01b038216600090815261010e60205260408120546126cf908390613850565b6001600160a01b03841660009081526101136020526040812054919250906126f8908390613816565b6001600160a01b038516600090815261011360205260408120556101095461010d5461010b5461010a54939450612710936127339086613850565b61273d9190613850565b612748906064613850565b612752919061382e565b61275c919061382e565b612766919061382e565b6001600160a01b0385166000908152610113602052604090206001810191909155610108546002909101556120658461225d565b6001600160a01b03821660009081526101136020526040812080549190556101095461010d5461010b5461010a54612710939291906125a69086613850565b6127e28261225d565b6112848161225d565b6000808080806127fa87612d54565b9194509250905061280d86848484612def565b8082612819858a61386f565b612823919061386f565b61282d919061386f565b979650505050505050565b60c9546001600160a01b031633146110675760405162461bcd60e51b8152600401610a64906137e1565b60006128957f360894a13ba1a3210667c828492db98dca3e2076cc3735a920a3ca505d382bbc546001600160a01b031690565b90506128a084612fe5565b6000835111806128ad5750815b156128be576128bc848461308a565b505b7f4910fdfa16fed3260ed0e7147f7cc6da11a60208b5b9406d12a635614ffd9143805460ff166129e357805460ff191660011781556040516001600160a01b038316602482015261293d90869060440160408051601f198184030181529190526020810180516001600160e01b0316631b2ce7f360e11b17905261308a565b50805460ff191681557f360894a13ba1a3210667c828492db98dca3e2076cc3735a920a3ca505d382bbc546001600160a01b038381169116146129da5760405162461bcd60e51b815260206004820152602f60248201527f45524331393637557067726164653a207570677261646520627265616b73206660448201526e75727468657220757067726164657360881b6064820152608401610a64565b6129e385613175565b5050505050565b60975460ff16612a335760405162461bcd60e51b815260206004820152601460248201527314185d5cd8589b194e881b9bdd081c185d5cd95960621b6044820152606401610a64565b6097805460ff191690557f5db9ee0a495bf2e6ff9c91a7834c1ba4fdd244a5e8aa4e537bd38aeae4b073aa335b6040516001600160a01b03909116815260200160405180910390a1565b6040518181526001600160a01b038316906000907fab8530f87dc9b59234c4623bf917212bb2536d647574c8e7e5da92c2ede0c9f89060200160405180910390a36040518181526001600160a01b03831690600090600080516020613988833981519152906020015b60405180910390a35050565b816001600160a01b03167fcc16f5dbb4873280815c1ee09dbd06736cffcc184412cf7a71a0fdb75d397ca582604051612b2d91815260200190565b60405180910390a26040518181526000906001600160a01b0384169060008051602061398883398151915290602001612ae6565b60c980546001600160a01b038381166001600160a01b0319831681179093556040519116919082907f8be0079c531659141344cd1fd0a4f28419497f9722a3daafe3b4186f6b6457e090600090a35050565b60975460ff1615612bd65760405162461bcd60e51b8152600401610a6490613746565b6097805460ff191660011790557f62e78cea01bee320cd4e420270b5ea74000d11b0c9f74754ebdbfc544b05a258612a603390565b600054610100900460ff1680612c24575060005460ff16155b612c405760405162461bcd60e51b8152600401610a6490613793565b600054610100900460ff16158015612c62576000805461ffff19166101011790555b612c6a6131b5565b612c7261321f565b8015611067576000805461ff001916905550565b600054610100900460ff1680612c9f575060005460ff16155b612cbb5760405162461bcd60e51b8152600401610a6490613793565b600054610100900460ff16158015612cdd576000805461ffff19166101011790555b612ce56131b5565b612c72613294565b600054610100900460ff1680612d06575060005460ff16155b612d225760405162461bcd60e51b8152600401610a6490613793565b600054610100900460ff16158015612d44576000805461ffff19166101011790555b612d4c6131b5565b612c726131b5565b60008060008060008060ff5460fd541115612de25760646101035488612d7a9190613850565b612d84919061382e565b925060646101045488612d979190613850565b612da1919061382e565b915060646101055488612db49190613850565b612dbe919061382e565b9050600060ff5460fd54612dd2919061386f565b905080841115612de0578093505b505b9196909550909350915050565b6001600160a01b038416612e155760405162461bcd60e51b8152600401610a6490613770565b6001600160a01b038416600090815261010e60205260408120549082612e3b8587613816565b612e459190613816565b905080821015612e675760405162461bcd60e51b8152600401610a649061371a565b6001600160a01b038616600090815261010e602052604081208054879290612e9090849061386f565b90915550506001600160a01b038616600090815261010e602052604081208054869290612ebe90849061386f565b90915550506001600160a01b038616600090815261010e602052604081208054859290612eec90849061386f565b925050819055508460fd6000828254612f05919061386f565b9091555050610101546001600160a01b0316600090815261010e602052604081208054869290612f36908490613816565b9091555050610102546001600160a01b0316600090815261010e602052604081208054859290612f67908490613816565b90915550612f7790508686612af2565b610101546040518581526001600160a01b039091169033906000805160206139888339815191529060200160405180910390a3610102546040518481526001600160a01b039091169033906000805160206139888339815191529060200160405180910390a3505050505050565b803b6130495760405162461bcd60e51b815260206004820152602d60248201527f455243313936373a206e657720696d706c656d656e746174696f6e206973206e60448201526c1bdd08184818dbdb9d1c9858dd609a1b6064820152608401610a64565b7f360894a13ba1a3210667c828492db98dca3e2076cc3735a920a3ca505d382bbc80546001600160a01b0319166001600160a01b0392909216919091179055565b6060823b6130e95760405162461bcd60e51b815260206004820152602660248201527f416464726573733a2064656c65676174652063616c6c20746f206e6f6e2d636f6044820152651b9d1c9858dd60d21b6064820152608401610a64565b600080846001600160a01b031684604051613104919061367e565b600060405180830381855af49150503d806000811461313f576040519150601f19603f3d011682016040523d82523d6000602084013e613144565b606091505b509150915061316c8282604051806060016040528060278152602001613961602791396132f4565b95945050505050565b61317e81612fe5565b6040516001600160a01b038216907fbc7cd75a20ee27fd9adebab32041f755214dbc6bffa90cc0225b39da2e5c2d3b90600090a250565b600054610100900460ff16806131ce575060005460ff16155b6131ea5760405162461bcd60e51b8152600401610a6490613793565b600054610100900460ff16158015612c72576000805461ffff19166101011790558015611067576000805461ff001916905550565b600054610100900460ff1680613238575060005460ff16155b6132545760405162461bcd60e51b8152600401610a6490613793565b600054610100900460ff16158015613276576000805461ffff19166101011790555b6097805460ff191690558015611067576000805461ff001916905550565b600054610100900460ff16806132ad575060005460ff16155b6132c95760405162461bcd60e51b8152600401610a6490613793565b600054610100900460ff161580156132eb576000805461ffff19166101011790555b612c7233612b61565b60608315613303575081610f90565b8251156133135782518084602001fd5b8160405162461bcd60e51b8152600401610a6491906136e7565b828054613339906138b2565b90600052602060002090601f01602090048101928261335b57600085556133a1565b82601f1061337457805160ff19168380011785556133a1565b828001600101855582156133a1579182015b828111156133a1578251825591602001919060010190613386565b506133ad9291506133b1565b5090565b5b808211156133ad57600081556001016133b2565b80356001600160a01b0381168114611be757600080fd5b6000602082840312156133ef57600080fd5b610f90826133c6565b6000806040838503121561340b57600080fd5b613414836133c6565b9150613422602084016133c6565b90509250929050565b60008060006060848603121561344057600080fd5b613449846133c6565b9250613457602085016133c6565b9150604084013590509250925092565b600080600080600060a0868803121561347f57600080fd5b613488866133c6565b9450613496602087016133c6565b94979496505050506040830135926060810135926080909101359150565b600080604083850312156134c757600080fd5b6134d0836133c6565b9150602083013567ffffffffffffffff808211156134ed57600080fd5b818501915085601f83011261350157600080fd5b8135818111156135135761351361394a565b604051601f8201601f19908116603f0116810190838211818310171561353b5761353b61394a565b8160405282815288602084870101111561355457600080fd5b8260208601602083013760006020848301015280955050505050509250929050565b6000806040838503121561358957600080fd5b613592836133c6565b946020939093013593505050565b6000806000606084860312156135b557600080fd5b6135be846133c6565b9250602084013591506135d3604085016133c6565b90509250925092565b6000602082840312156135ee57600080fd5b81518015158114610f9057600080fd5b60006020828403121561361057600080fd5b5035919050565b60008060006060848603121561362c57600080fd5b505081359360208301359350604090920135919050565b600080600080600060a0868803121561365b57600080fd5b505083359560208501359550604085013594606081013594506080013592509050565b60008251613690818460208701613886565b9190910192915050565b6020808252825182820181905260009190848201906040850190845b818110156136db5783516001600160a01b0316835292840192918401916001016136b6565b50909695505050505050565b6020815260008251806020840152613706816040850160208701613886565b601f01601f19169190910160400192915050565b6020808252601290820152714e6f7420656e6f7567682062616c616e636560701b604082015260600190565b60208082526010908201526f14185d5cd8589b194e881c185d5cd95960821b604082015260600190565b60208082526009908201526830206164647265737360b81b604082015260600190565b6020808252602e908201527f496e697469616c697a61626c653a20636f6e747261637420697320616c72656160408201526d191e481a5b9a5d1a585b1a5e995960921b606082015260800190565b6020808252818101527f4f776e61626c653a2063616c6c6572206973206e6f7420746865206f776e6572604082015260600190565b6000821982111561382957613829613908565b500190565b60008261384b57634e487b7160e01b600052601260045260246000fd5b500490565b600081600019048311821515161561386a5761386a613908565b500290565b60008282101561388157613881613908565b500390565b60005b838110156138a1578181015183820152602001613889565b838111156120655750506000910152565b600181811c908216806138c657607f821691505b602082108114156138e757634e487b7160e01b600052602260045260246000fd5b50919050565b600060001982141561390157613901613908565b5060010190565b634e487b7160e01b600052601160045260246000fd5b634e487b7160e01b600052603160045260246000fd5b634e487b7160e01b600052603260045260246000fd5b634e487b7160e01b600052604160045260246000fdfe416464726573733a206c6f772d6c6576656c2064656c65676174652063616c6c206661696c6564ddf252ad1be2c89b69c2b068fc378daa952ba7f163c4a11628f55a4df523b3efa264697066735822122014d3b747c8d9c34975d88dcb119661a79120321428f64ce11e4ee55518ec978a64736f6c63430008070033",
  "immutableReferences": {},
  "source": "// SPDX-License-Identifier: MIT\r\n\r\npragma solidity ^0.8.0;\r\n\r\nimport \"@openzeppelin/contracts-upgradeable/proxy/utils/Initializable.sol\";\r\nimport \"@openzeppelin/contracts-upgradeable/proxy/utils/UUPSUpgradeable.sol\";\r\nimport \"@openzeppelin/contracts-upgradeable/security/PausableUpgradeable.sol\";\r\nimport \"@openzeppelin/contracts-upgradeable/access/OwnableUpgradeable.sol\";\r\n\r\nabstract contract ERC20Interface {\r\n\r\n    function transfer(address to, uint tokens) public virtual returns (bool success);\r\n\r\n    function transferFrom(address from, address to, uint tokens) public virtual returns (bool success);\r\n\r\n}\r\n\r\ncontract PurseTokenUpgradableV3 is Initializable, UUPSUpgradeable, PausableUpgradeable, OwnableUpgradeable {\r\n\r\n    string public name;\r\n    string public symbol;\r\n    uint256 public totalSupply;\r\n    uint8 public decimals;\r\n    uint256 public minimumSupply;\r\n    address[] public admins;\r\n    address public liqPool;\r\n    address public disPool;\r\n    uint256 public burnPercent;\r\n    uint256 public liqPercent;\r\n    uint256 public disPercent;\r\n\r\n    uint256 public _averageInterval;\r\n    uint256 public _getRewardEndTime;\r\n    uint256 public _getRewardStartTime;\r\n    uint256 public _numOfDaysPerMth;\r\n    uint256 public _monthlyDistributePr;\r\n    uint256 public _percentageDistribute;\r\n    uint256 public _lastRewardStartTime;\r\n    uint256 public _totalSupply;\r\n\r\n    mapping(address => uint256) public balanceOf;\r\n    mapping(address => mapping(address => uint256)) public allowance;\r\n    mapping(address => bool) public isAdmin;\r\n    mapping(address => bool) public isWhitelistedTo;\r\n    mapping(address => bool) public isWhitelistedFrom;\r\n    mapping(address => AccAmount) public accAmount;\r\n\r\n    struct AccAmount {\r\n        uint256 amount;\r\n        uint256 accReward;\r\n        uint256 lastUpdateTime;\r\n    }\r\n\r\n    event Transfer(address indexed _from, address indexed _to, uint256 _value);\r\n    event Burn(address indexed _from, uint256 _value);\r\n    event Mint(address indexed _from, address indexed _to, uint256 _value);\r\n    event Approval(address indexed _owner, address indexed _spender, uint256 _value);\r\n\r\n    modifier onlyAdmin() {\r\n        require(isAdmin[msg.sender], \"Not Admin\");\r\n        _;\r\n    }\r\n\r\n    function transfer(address _to, uint256 _value) public whenNotPaused returns (bool success)\r\n    {\r\n        require(balanceOf[msg.sender] >= _value, \"Not enough balance\");\r\n        if (isWhitelistedTo[_to] || isWhitelistedFrom[msg.sender]) {\r\n            updateAccumulateBalanceTransaction(msg.sender, _to);\r\n            balanceOf[msg.sender] -= _value;\r\n            balanceOf[_to] += _value;\r\n\r\n\r\n            emit Transfer(msg.sender, _to, _value);\r\n            return true;\r\n        } else {\r\n            updateAccumulateBalanceTransaction(msg.sender, _to);\r\n            uint256 transferValue = _partialBurn(_value, msg.sender);\r\n            balanceOf[msg.sender] -= transferValue;\r\n            balanceOf[_to] += transferValue;\r\n\r\n\r\n            emit Transfer(msg.sender, _to, transferValue);\r\n            return true;\r\n        }\r\n    }\r\n\r\n    function approve(address _spender, uint256 _value) public whenNotPaused returns (bool success)\r\n    {\r\n        allowance[msg.sender][_spender] = _value;\r\n        emit Approval(msg.sender, _spender, _value);\r\n        return true;\r\n    }\r\n\r\n    function transferFrom(address _from, address _to, uint256 _value) public whenNotPaused returns (bool success) {\r\n        require(_value <= balanceOf[_from], \"Not enough balance\");\r\n        require(_value <= allowance[_from][msg.sender], \"Not enough allowance\");\r\n        if (isWhitelistedTo[_to] || isWhitelistedFrom[msg.sender]) {\r\n            allowance[_from][msg.sender] -= _value;\r\n            updateAccumulateBalanceTransaction(_from, _to);\r\n            balanceOf[_from] -= _value;\r\n            balanceOf[_to] += _value;\r\n\r\n            emit Transfer(_from, _to, _value);\r\n            return true;\r\n        } else {\r\n            allowance[_from][msg.sender] -= _value;\r\n            updateAccumulateBalanceTransaction(_from, _to);\r\n            uint256 transferValue = _partialBurn(_value, _from);\r\n            balanceOf[_from] -= transferValue;\r\n            balanceOf[_to] += transferValue;\r\n\r\n            emit Transfer(_from, _to, transferValue);\r\n            return true;\r\n        }\r\n    }\r\n\r\n    function mint(address _account, uint256 _amount) public whenNotPaused onlyAdmin {\r\n        require(_account != address(0), \"0 address\");\r\n        updateAccumulateBalance(_account);\r\n        balanceOf[_account] += _amount;\r\n\r\n        totalSupply += _amount;\r\n\r\n        mintEvent(_account, _amount);\r\n    }\r\n\r\n    function burn(uint256 _amount) public whenNotPaused {\r\n        require(_amount != 0, \"0 address\");\r\n        require(balanceOf[msg.sender] >= _amount, \"Not enough balance\");\r\n        updateAccumulateBalance(msg.sender);\r\n        balanceOf[msg.sender] -= _amount;\r\n        totalSupply -= _amount;\r\n\r\n        burnEvent(msg.sender, _amount);\r\n    }\r\n\r\n    function updateAccumulateBalance(address _holder) private {\r\n        if (accAmount[_holder].lastUpdateTime == 0) {\r\n            if (_getRewardStartTime == 0) {\r\n                uint256 interval = (block.timestamp - _lastRewardStartTime) / _averageInterval;\r\n                accAmount[_holder].lastUpdateTime = _lastRewardStartTime + (interval * _averageInterval);\r\n            } else {\r\n                if (block.timestamp < _getRewardStartTime) {\r\n                    uint256 interval = (block.timestamp - _lastRewardStartTime) / _averageInterval;\r\n                    accAmount[_holder].lastUpdateTime = _lastRewardStartTime + (interval * _averageInterval);\r\n                } else {\r\n                    uint256 interval = (block.timestamp - _getRewardStartTime) / _averageInterval;\r\n                    accAmount[_holder].lastUpdateTime = _getRewardStartTime + (interval * _averageInterval);\r\n                }\r\n            }\r\n        }\r\n        else if (block.timestamp < _getRewardStartTime) {\r\n            if (accAmount[_holder].lastUpdateTime < _lastRewardStartTime) {\r\n                uint256 interval = (block.timestamp - _lastRewardStartTime) / _averageInterval;\r\n                uint256 accumulateAmount = balanceOf[_holder] * interval;\r\n                accAmount[_holder].lastUpdateTime = _lastRewardStartTime + (interval * _averageInterval);\r\n                accAmount[_holder].amount = accumulateAmount;\r\n            }\r\n            else {\r\n                uint256 interval = (block.timestamp - accAmount[_holder].lastUpdateTime) / _averageInterval;\r\n                if (interval >= 1) {\r\n                    uint256 accumulateAmount = balanceOf[_holder] * interval;\r\n                    accAmount[_holder].lastUpdateTime += (interval * _averageInterval);\r\n                    accAmount[_holder].amount = accAmount[_holder].amount + accumulateAmount;\r\n                }\r\n            }\r\n        }\r\n        else if (block.timestamp >= _getRewardStartTime) {\r\n            if (accAmount[_holder].lastUpdateTime < _lastRewardStartTime) {\r\n                uint256 interval = (_getRewardStartTime - _lastRewardStartTime) / _averageInterval;\r\n                uint256 lastmonthAccAmount = balanceOf[_holder] * interval;\r\n                accAmount[_holder].amount = 0;\r\n                accAmount[_holder].accReward = lastmonthAccAmount * _monthlyDistributePr * _percentageDistribute * 100 / _totalSupply / _numOfDaysPerMth / 10000;\r\n                accAmount[_holder].lastUpdateTime = _getRewardStartTime;\r\n                updateAccumulateBalance(_holder);\r\n            }\r\n            else if (accAmount[_holder].lastUpdateTime >= _lastRewardStartTime && accAmount[_holder].lastUpdateTime < _getRewardStartTime) {\r\n                uint256 interval = (_getRewardStartTime - accAmount[_holder].lastUpdateTime) / _averageInterval;\r\n                if (interval >= 1) {\r\n                    uint256 accumulateAmount = balanceOf[_holder] * interval;\r\n                    uint256 lastmonthAccAmount = accAmount[_holder].amount + accumulateAmount;\r\n                    accAmount[_holder].amount = 0;\r\n                    accAmount[_holder].accReward = lastmonthAccAmount * _monthlyDistributePr * _percentageDistribute * 100 / _totalSupply / _numOfDaysPerMth / 10000;\r\n                    accAmount[_holder].lastUpdateTime = _getRewardStartTime;\r\n                    updateAccumulateBalance(_holder);\r\n                }\r\n                else {\r\n                    uint256 lastmonthAccAmount = accAmount[_holder].amount;\r\n                    accAmount[_holder].amount = 0;\r\n                    accAmount[_holder].accReward = lastmonthAccAmount * _monthlyDistributePr * _percentageDistribute * 100 / _totalSupply / _numOfDaysPerMth / 10000;\r\n                    accAmount[_holder].lastUpdateTime = _getRewardStartTime;\r\n                    updateAccumulateBalance(_holder);\r\n                }\r\n            }\r\n            else {\r\n                uint256 interval = (block.timestamp - accAmount[_holder].lastUpdateTime) / _averageInterval;\r\n                if (interval >= 1) {\r\n                    uint256 accumulateAmount = balanceOf[_holder] * interval;\r\n                    accAmount[_holder].lastUpdateTime += (interval * _averageInterval);\r\n                    accAmount[_holder].amount = accAmount[_holder].amount + accumulateAmount;\r\n                }\r\n            }\r\n        }\r\n    }\r\n\r\n\r\n    function updateAccumulateBalanceTransaction(address _from, address _to) private {\r\n        updateAccumulateBalance(_from);\r\n        updateAccumulateBalance(_to);\r\n    }\r\n\r\n    function claimDistributionPurse() public whenNotPaused returns (bool success) {\r\n        require(block.timestamp > _getRewardStartTime, \"Claim not started\");\r\n        require(block.timestamp < _getRewardEndTime, \"Claim period over\");\r\n\r\n        updateAccumulateBalance(msg.sender);\r\n        require(accAmount[msg.sender].accReward > 0, \"User reward is 0\");\r\n        uint256 claimAmount = accAmount[msg.sender].accReward;\r\n        accAmount[msg.sender].accReward = 0;\r\n\r\n        ERC20Interface(address(this)).transfer(msg.sender, claimAmount);\r\n        return true;\r\n    }\r\n\r\n    function activateClaimMonthly(uint256 _rewardStartTime, uint256 _rewardEndTime, uint256 _monthlyDisPr, uint256 _numOfDays, uint256 _percentage) public onlyAdmin {\r\n        require(_rewardStartTime > block.timestamp, \"Less than current time\");\r\n        require(_rewardEndTime > _rewardStartTime, \"Less than start time\");\r\n        require(_numOfDays > 0, \"Less than 0\");\r\n        require(_percentage > 0 && _percentage <= 100, \"Less than 0 or More than 100\");\r\n        require(_monthlyDisPr <= balanceOf[address(this)], \"More than pool balance\");\r\n\r\n        _totalSupply = totalSupply;\r\n        if (_getRewardStartTime != 0) {\r\n            _lastRewardStartTime = _getRewardStartTime;\r\n        }\r\n        _numOfDaysPerMth = _numOfDays;\r\n        _getRewardStartTime = _rewardStartTime;\r\n        _getRewardEndTime = _rewardEndTime;\r\n        _percentageDistribute = _percentage;\r\n        _monthlyDistributePr = _monthlyDisPr;\r\n    }\r\n\r\n    function _partialBurn(uint256 _amount, address _from) internal returns (uint256) {\r\n        uint256 transferAmount = 0;\r\n        uint256 burnAmount;\r\n        uint256 liqAmount;\r\n        uint256 disAmount;\r\n        (\r\n        burnAmount,\r\n        liqAmount,\r\n        disAmount\r\n        ) = _calculateDeductAmount(_amount);\r\n\r\n        if (burnAmount >= 0 || liqAmount >= 0 || disAmount >= 0) {\r\n            burnPrivate(_from, burnAmount, liqAmount, disAmount);\r\n        }\r\n        transferAmount = _amount - burnAmount - liqAmount - disAmount;\r\n\r\n        return transferAmount;\r\n    }\r\n\r\n    function _calculateDeductAmount(uint256 _amount) internal view returns (uint256, uint256, uint256) {\r\n        uint256 burnAmount;\r\n        uint256 liqAmount;\r\n        uint256 disAmount;\r\n\r\n        if (totalSupply > minimumSupply) {\r\n            burnAmount = (_amount * burnPercent) / 100;\r\n            liqAmount = (_amount * liqPercent) / 100;\r\n            disAmount = (_amount * disPercent) / 100;\r\n            uint256 availableBurn = totalSupply - minimumSupply;\r\n            if (burnAmount > availableBurn) {\r\n                burnAmount = availableBurn;\r\n            }\r\n        }\r\n        return (burnAmount, liqAmount, disAmount);\r\n    }\r\n\r\n    function burnPrivate(address _account, uint256 _burnAmount, uint256 _liqAmount, uint256 _disAmount) private {\r\n        require(_account != address(0), \"0 address\");\r\n        uint256 accountBalance = balanceOf[_account];\r\n        uint256 deductAmount = _burnAmount + _liqAmount + _disAmount;\r\n        require(accountBalance >= deductAmount, \"Not enough balance\");\r\n        balanceOf[_account] -= _burnAmount;\r\n        balanceOf[_account] -= _liqAmount;\r\n        balanceOf[_account] -= _disAmount;\r\n\r\n        totalSupply -= _burnAmount;\r\n        balanceOf[liqPool] += _liqAmount;\r\n        balanceOf[disPool] += _disAmount;\r\n\r\n        burnEvent(_account, _burnAmount);\r\n        emit Transfer(msg.sender, liqPool, _liqAmount);\r\n        emit Transfer(msg.sender, disPool, _disAmount);\r\n    }\r\n\r\n    function updateLPoolAdd(address _newLPool) public onlyOwner {\r\n        require(_newLPool != liqPool, \"Same with previous address\");\r\n\r\n        liqPool = _newLPool;\r\n    }\r\n\r\n    function updateDPoolAdd(address _newDPool) public onlyOwner {\r\n        require(_newDPool != disPool, \"Same with previous address\");\r\n\r\n        disPool = _newDPool;\r\n    }\r\n\r\n    function updatePercent(uint256 _newDisPercent, uint256 _newLiqPercent, uint256 _newBurnPercent) public onlyOwner {\r\n        require(_newDisPercent >= 0 && _newDisPercent <= 100 && _newLiqPercent >= 0 && _newLiqPercent <= 100 && _newBurnPercent >= 0 && _newBurnPercent <= 100, \"% < 0 or > 100\");\r\n        require(_newDisPercent + _newLiqPercent + _newBurnPercent <= 100, \"Total more than 100\");\r\n\r\n        disPercent = _newDisPercent;\r\n        liqPercent = _newLiqPercent;\r\n        burnPercent = _newBurnPercent;\r\n    }\r\n\r\n    function updateMinimumSupply(uint256 _minimumSupply) public onlyOwner {\r\n        minimumSupply = _minimumSupply;\r\n    }\r\n\r\n    function addAdmin(address newAdmin) public onlyOwner {\r\n        require(!isAdmin[newAdmin], \"Is admin\");\r\n\r\n        isAdmin[newAdmin] = true;\r\n        admins.push(newAdmin);\r\n    }\r\n\r\n    function removeAdmin(uint index) public onlyOwner returns (address[] memory){\r\n        address removeOwner = admins[index];\r\n        require(index < admins.length, \"Input over admins length\");\r\n        require(isAdmin[removeOwner], \"Not an admin\");\r\n\r\n        for (uint i = index; i < admins.length - 1; i++) {\r\n            admins[i] = admins[i + 1];\r\n        }\r\n        admins.pop();\r\n\r\n        isAdmin[removeOwner] = false;\r\n        return admins;\r\n    }\r\n\r\n    function transferERCToken(address token, uint256 amount, address _to) public whenNotPaused onlyOwner {\r\n        require(_to != address(0), \"0 address\");\r\n        if (token == address(this)) {\r\n            updateAccumulateBalance(_to);\r\n            ERC20Interface(token).transfer(_to, amount);\r\n        } else {\r\n            ERC20Interface(token).transfer(_to, amount);\r\n        }\r\n    }\r\n\r\n    function pause() public whenNotPaused onlyOwner {\r\n        _pause();\r\n    }\r\n\r\n    function unpause() public whenPaused onlyOwner {\r\n        _unpause();\r\n    }\r\n\r\n    function setWhitelistedTo(address newWhitelist) public onlyOwner {\r\n        require(!isWhitelistedTo[newWhitelist], \"Whilisted Address\");\r\n\r\n        isWhitelistedTo[newWhitelist] = true;\r\n    }\r\n\r\n    function removeWhitelistedTo(address newWhitelist) public onlyOwner {\r\n        require(isWhitelistedTo[newWhitelist], \"Non whilisted Address\");\r\n\r\n        isWhitelistedTo[newWhitelist] = false;\r\n    }\r\n\r\n    function setWhitelistedFrom(address newWhitelist) public onlyOwner {\r\n        require(!isWhitelistedFrom[newWhitelist], \"Whilisted Address\");\r\n\r\n        isWhitelistedFrom[newWhitelist] = true;\r\n    }\r\n\r\n    function removeWhitelistedFrom(address newWhitelist) public onlyOwner {\r\n        require(isWhitelistedFrom[newWhitelist], \"Non whilisted Address\");\r\n\r\n        isWhitelistedFrom[newWhitelist] = false;\r\n    }\r\n\r\n    function _authorizeUpgrade(address) internal override onlyOwner {}\r\n\r\n    function mintEvent(address to, uint256 amount) internal {\r\n        emit Mint(address(0), to, amount);\r\n        emit Transfer(address(0), to, amount);\r\n    }\r\n\r\n    function burnEvent(address from, uint256 amount) internal {\r\n        emit Burn(from, amount);\r\n        emit Transfer(from, address(0), amount);\r\n    }\r\n\r\n    function initialize(\r\n        address _to,\r\n        address _lPool,\r\n        uint256 _burnPercent,\r\n        uint256 _liqPercent,\r\n        uint256 _disPercent\r\n    ) public initializer {\r\n        require(_lPool != address(0), \"0 address\");\r\n        require(_burnPercent >= 0, \"Percentage is 0\");\r\n        require(_liqPercent >= 0, \"Percentage is 0\");\r\n        require(_disPercent >= 0, \"Percentage is 0\");\r\n\r\n        name = \"PURSE TOKEN\";\r\n        symbol = \"PURSE\";\r\n        totalSupply = 64000000000 * (10 ** 18);\r\n        decimals = 18;\r\n        minimumSupply = 12800000000 * (10 ** 18);\r\n\r\n        liqPool = _lPool;\r\n        disPool = address(this);\r\n        burnPercent = _burnPercent;\r\n        liqPercent = _liqPercent;\r\n        disPercent = _disPercent;\r\n        _averageInterval = 1 days;\r\n        _lastRewardStartTime = block.timestamp;\r\n        __Pausable_init();\r\n        __Ownable_init();\r\n        __UUPSUpgradeable_init();\r\n\r\n        balanceOf[_to] = totalSupply;\r\n        updateAccumulateBalance(_to);\r\n\r\n        mintEvent(_to, totalSupply);\r\n    }\r\n}",
  "sourcePath": "C:/Users/cheek/Desktop/Developer doc/Visual Studio Code/PundiX/purseRewardBSC/src/contracts/PurseTokenUpgradableV3.sol",
  "compiler": {
    "name": "solc",
    "version": "0.8.7+commit.e28d00a7.Emscripten.clang"
  },
  "schemaVersion": "3.2.3",
  "updatedAt": "2021-12-01T04:12:06.584Z",
  "devdoc": {
    "kind": "dev",
    "methods": {
      "owner()": {
        "details": "Returns the address of the current owner."
      },
      "paused()": {
        "details": "Returns true if the contract is paused, and false otherwise."
      },
      "renounceOwnership()": {
        "details": "Leaves the contract without owner. It will not be possible to call `onlyOwner` functions anymore. Can only be called by the current owner. NOTE: Renouncing ownership will leave the contract without an owner, thereby removing any functionality that is only available to the owner."
      },
      "transferOwnership(address)": {
        "details": "Transfers ownership of the contract to a new account (`newOwner`). Can only be called by the current owner."
      },
      "upgradeTo(address)": {
        "details": "Upgrade the implementation of the proxy to `newImplementation`. Calls {_authorizeUpgrade}. Emits an {Upgraded} event."
      },
      "upgradeToAndCall(address,bytes)": {
        "details": "Upgrade the implementation of the proxy to `newImplementation`, and subsequently execute the function call encoded in `data`. Calls {_authorizeUpgrade}. Emits an {Upgraded} event."
      }
    },
    "version": 1
  },
  "userdoc": {
    "kind": "user",
    "methods": {},
    "version": 1
  }
}