{
  "contractName": "PurseDistribution",
  "abi": [
    {
      "inputs": [
        {
          "internalType": "contract PurseTokenMultiSigUpgradable",
          "name": "_purseToken",
          "type": "address"
        }
      ],
      "stateMutability": "nonpayable",
      "type": "constructor"
    },
    {
      "inputs": [
        {
          "internalType": "address",
          "name": "",
          "type": "address"
        }
      ],
      "name": "holder",
      "outputs": [
        {
          "internalType": "uint256",
          "name": "distributeAmount",
          "type": "uint256"
        },
        {
          "internalType": "bool",
          "name": "isRedeem",
          "type": "bool"
        }
      ],
      "stateMutability": "view",
      "type": "function",
      "constant": true
    },
    {
      "inputs": [],
      "name": "name",
      "outputs": [
        {
          "internalType": "string",
          "name": "",
          "type": "string"
        }
      ],
      "stateMutability": "view",
      "type": "function",
      "constant": true
    },
    {
      "inputs": [],
      "name": "owner",
      "outputs": [
        {
          "internalType": "address",
          "name": "",
          "type": "address"
        }
      ],
      "stateMutability": "view",
      "type": "function",
      "constant": true
    },
    {
      "inputs": [],
      "name": "purseToken",
      "outputs": [
        {
          "internalType": "contract PurseTokenMultiSigUpgradable",
          "name": "",
          "type": "address"
        }
      ],
      "stateMutability": "view",
      "type": "function",
      "constant": true
    },
    {
      "inputs": [
        {
          "internalType": "address",
          "name": "_holder",
          "type": "address"
        },
        {
          "internalType": "uint256",
          "name": "_amount",
          "type": "uint256"
        }
      ],
      "name": "updateHolderInfoFirst",
      "outputs": [],
      "stateMutability": "nonpayable",
      "type": "function"
    },
    {
      "inputs": [],
      "name": "claim",
      "outputs": [],
      "stateMutability": "nonpayable",
      "type": "function"
    }
  ],
  "bytecode": "0x60806040526040518060400160405280601281526020017f507572736520446973747269627574696f6e000000000000000000000000000081525060009080519060200190620000519291906200010e565b503480156200005f57600080fd5b5060405162000d1a38038062000d1a8339818101604052810190620000859190620001d5565b80600160006101000a81548173ffffffffffffffffffffffffffffffffffffffff021916908373ffffffffffffffffffffffffffffffffffffffff16021790555033600260006101000a81548173ffffffffffffffffffffffffffffffffffffffff021916908373ffffffffffffffffffffffffffffffffffffffff16021790555050620002c8565b8280546200011c9062000249565b90600052602060002090601f0160209004810192826200014057600085556200018c565b82601f106200015b57805160ff19168380011785556200018c565b828001600101855582156200018c579182015b828111156200018b5782518255916020019190600101906200016e565b5b5090506200019b91906200019f565b5090565b5b80821115620001ba576000816000905550600101620001a0565b5090565b600081519050620001cf81620002ae565b92915050565b600060208284031215620001e857600080fd5b6000620001f884828501620001be565b91505092915050565b60006200020e8262000229565b9050919050565b6000620002228262000201565b9050919050565b600073ffffffffffffffffffffffffffffffffffffffff82169050919050565b600060028204905060018216806200026257607f821691505b602082108114156200027957620002786200027f565b5b50919050565b7f4e487b7100000000000000000000000000000000000000000000000000000000600052602260045260246000fd5b620002b98162000215565b8114620002c557600080fd5b50565b610a4280620002d86000396000f3fe608060405234801561001057600080fd5b50600436106100625760003560e01c806306fdde03146100675780631eb7caba1461008557806325b0da02146100b65780634e71d92d146100d257806351bf16ef146100dc5780638da5cb5b146100fa575b600080fd5b61006f610118565b60405161007c9190610774565b60405180910390f35b61009f600480360381019061009a91906105a9565b6101a6565b6040516100ad9291906107f6565b60405180910390f35b6100d060048036038101906100cb91906105d2565b6101d7565b005b6100da610333565b005b6100e461051e565b6040516100f19190610759565b60405180910390f35b610102610544565b60405161010f9190610715565b60405180910390f35b60008054610125906108da565b80601f0160208091040260200160405190810160405280929190818152602001828054610151906108da565b801561019e5780601f106101735761010080835404028352916020019161019e565b820191906000526020600020905b81548152906001019060200180831161018157829003601f168201915b505050505081565b60036020528060005260406000206000915090508060000154908060010160009054906101000a900460ff16905082565b600260009054906101000a900473ffffffffffffffffffffffffffffffffffffffff1673ffffffffffffffffffffffffffffffffffffffff163373ffffffffffffffffffffffffffffffffffffffff1614610267576040517f08c379a000000000000000000000000000000000000000000000000000000000815260040161025e906107b6565b60405180910390fd5b60008110156102ab576040517f08c379a00000000000000000000000000000000000000000000000000000000081526004016102a2906107d6565b60405180910390fd5b604051806040016040528082815260200160011515815250600360008473ffffffffffffffffffffffffffffffffffffffff1673ffffffffffffffffffffffffffffffffffffffff1681526020019081526020016000206000820151816000015560208201518160010160006101000a81548160ff0219169083151502179055509050505050565b60011515600360003373ffffffffffffffffffffffffffffffffffffffff1673ffffffffffffffffffffffffffffffffffffffff16815260200190815260200160002060010160009054906101000a900460ff161515146103c9576040517f08c379a00000000000000000000000000000000000000000000000000000000081526004016103c090610796565b60405180910390fd5b6000600360003373ffffffffffffffffffffffffffffffffffffffff1673ffffffffffffffffffffffffffffffffffffffff16815260200190815260200160002060010160006101000a81548160ff0219169083151502179055506000600360003373ffffffffffffffffffffffffffffffffffffffff1673ffffffffffffffffffffffffffffffffffffffff168152602001908152602001600020600001549050600160009054906101000a900473ffffffffffffffffffffffffffffffffffffffff1673ffffffffffffffffffffffffffffffffffffffff1663a9059cbb33836040518363ffffffff1660e01b81526004016104c8929190610730565b602060405180830381600087803b1580156104e257600080fd5b505af11580156104f6573d6000803e3d6000fd5b505050506040513d601f19601f8201168201806040525081019061051a919061060e565b5050565b600160009054906101000a900473ffffffffffffffffffffffffffffffffffffffff1681565b600260009054906101000a900473ffffffffffffffffffffffffffffffffffffffff1681565b600081359050610579816109c7565b92915050565b60008151905061058e816109de565b92915050565b6000813590506105a3816109f5565b92915050565b6000602082840312156105bb57600080fd5b60006105c98482850161056a565b91505092915050565b600080604083850312156105e557600080fd5b60006105f38582860161056a565b925050602061060485828601610594565b9150509250929050565b60006020828403121561062057600080fd5b600061062e8482850161057f565b91505092915050565b6106408161083b565b82525050565b61064f8161084d565b82525050565b61065e81610883565b82525050565b600061066f8261081f565b610679818561082a565b93506106898185602086016108a7565b6106928161093b565b840191505092915050565b60006106aa60108361082a565b91506106b58261094c565b602082019050919050565b60006106cd600a8361082a565b91506106d882610975565b602082019050919050565b60006106f060128361082a565b91506106fb8261099e565b602082019050919050565b61070f81610879565b82525050565b600060208201905061072a6000830184610637565b92915050565b60006040820190506107456000830185610637565b6107526020830184610706565b9392505050565b600060208201905061076e6000830184610655565b92915050565b6000602082019050818103600083015261078e8184610664565b905092915050565b600060208201905081810360008301526107af8161069d565b9050919050565b600060208201905081810360008301526107cf816106c0565b9050919050565b600060208201905081810360008301526107ef816106e3565b9050919050565b600060408201905061080b6000830185610706565b6108186020830184610646565b9392505050565b600081519050919050565b600082825260208201905092915050565b600061084682610859565b9050919050565b60008115159050919050565b600073ffffffffffffffffffffffffffffffffffffffff82169050919050565b6000819050919050565b600061088e82610895565b9050919050565b60006108a082610859565b9050919050565b60005b838110156108c55780820151818401526020810190506108aa565b838111156108d4576000848401525b50505050565b600060028204905060018216806108f257607f821691505b602082108114156109065761090561090c565b5b50919050565b7f4e487b7100000000000000000000000000000000000000000000000000000000600052602260045260246000fd5b6000601f19601f8301169050919050565b7f68617665206265656e2072656465656d00000000000000000000000000000000600082015250565b7f6f6e6c79206f776e657200000000000000000000000000000000000000000000600082015250565b7f616d6f756e74206c657373207468616e20300000000000000000000000000000600082015250565b6109d08161083b565b81146109db57600080fd5b50565b6109e78161084d565b81146109f257600080fd5b50565b6109fe81610879565b8114610a0957600080fd5b5056fea26469706673582212206bc8a783c1bb0edf0a93f2f61669f04f1d0115856999acc2f426666544af0e8e64736f6c63430008030033",
  "immutableReferences": {},
  "source": "// SPDX-License-Identifier: UNLICENSED\r\n\r\npragma solidity ^0.8.0;\r\n\r\nimport \"./PurseTokenMultiSigUpgradable.sol\";\r\n\r\ncontract PurseDistribution {\r\n    string public name = \"Purse Distribution\";\r\n    PurseTokenMultiSigUpgradable public purseToken;\r\n    address public owner;\r\n\r\n    // mapping(address => uint256) public releaseIteration;\r\n    mapping(address => holderInfo) public holder;  //address->index   \r\n\r\n    struct holderInfo {\r\n        uint256 distributeAmount;\r\n        bool isRedeem;\r\n    }\r\n\r\n    constructor(PurseTokenMultiSigUpgradable _purseToken) public {\r\n        purseToken = _purseToken;\r\n        owner = msg.sender;\r\n    }\r\n\r\n    function updateHolderInfoFirst(address _holder, uint256 _amount) public {\r\n        require(msg.sender == owner, 'only owner');\r\n        require(_amount >= 0, 'amount less than 0');\r\n        holder[_holder] = holderInfo( _amount, true);\r\n        // releaseIteration[_holder] = 1;\r\n        // uint256 i = 0;\r\n        // for (i; i < _holder.length; i++) {\r\n        //     holder[_holder[i]][1] = holderInfo(1, _amount[i], true);\r\n        //     releaseIteration[_holder[i]] = 1;     \r\n        // }\r\n    }\r\n\r\n    // Notice Transfers tokens held by timelock to beneficiary.\r\n    function claim() public {\r\n        require(holder[msg.sender].isRedeem == true, 'have been redeem');\r\n\r\n        holder[msg.sender].isRedeem = false;\r\n        uint256 claimAmount = holder[msg.sender].distributeAmount;\r\n        purseToken.transfer(msg.sender, claimAmount);\r\n    }\r\n\r\n    // notice Transfers tokens held by timelock to beneficiary.\r\n    // function claimAll() public {\r\n    //     uint256 claimAmount = 0;\r\n    //     for (uint256 i = 1; i <= releaseIteration[msg.sender]; i++) {\r\n    //             if (holder[msg.sender][i].isRedeem == true) {\r\n    //                 holder[msg.sender][i].isRedeem = false;\r\n    //                 uint256 holderAmount = holder[msg.sender][i].distributeAmount;\r\n    //                 claimAmount += holderAmount;                    \r\n    //             }\r\n    //     }\r\n    //     if (claimAmount > 0) {\r\n    //         purseToken.transfer(msg.sender, claimAmount);\r\n    //     }        \r\n    // }\r\n}\r\n",
  "sourcePath": "C:/Users/cheek/Desktop/Developer doc/Visual Studio Code/PundiX/PurseReward/YieldFarm_BridgeEthBsc/src/contracts/PurseDistribution.sol",
  "compiler": {
    "name": "solc",
    "version": "0.8.3+commit.8d00100c.Emscripten.clang"
  },
  "schemaVersion": "3.2.3",
  "updatedAt": "2021-08-31T09:33:12.086Z",
  "networkType": "ethereum",
  "devdoc": {
    "kind": "dev",
    "methods": {},
    "version": 1
  },
  "userdoc": {
    "kind": "user",
    "methods": {},
    "version": 1
  }
}