{
  "contractName": "PurseTokenMultiSigUpgradable",
  "abi": [
    {
      "anonymous": false,
      "inputs": [
        {
          "indexed": false,
          "internalType": "address",
          "name": "previousAdmin",
          "type": "address"
        },
        {
          "indexed": false,
          "internalType": "address",
          "name": "newAdmin",
          "type": "address"
        }
      ],
      "name": "AdminChanged",
      "type": "event"
    },
    {
      "anonymous": false,
      "inputs": [
        {
          "indexed": true,
          "internalType": "address",
          "name": "_owner",
          "type": "address"
        },
        {
          "indexed": true,
          "internalType": "address",
          "name": "_spender",
          "type": "address"
        },
        {
          "indexed": false,
          "internalType": "uint256",
          "name": "_value",
          "type": "uint256"
        }
      ],
      "name": "Approval",
      "type": "event"
    },
    {
      "anonymous": false,
      "inputs": [
        {
          "indexed": true,
          "internalType": "address",
          "name": "beacon",
          "type": "address"
        }
      ],
      "name": "BeaconUpgraded",
      "type": "event"
    },
    {
      "anonymous": false,
      "inputs": [
        {
          "indexed": true,
          "internalType": "address",
          "name": "_from",
          "type": "address"
        },
        {
          "indexed": true,
          "internalType": "address",
          "name": "_to",
          "type": "address"
        },
        {
          "indexed": false,
          "internalType": "uint256",
          "name": "_value",
          "type": "uint256"
        }
      ],
      "name": "Burn",
      "type": "event"
    },
    {
      "anonymous": false,
      "inputs": [
        {
          "indexed": true,
          "internalType": "address",
          "name": "_from",
          "type": "address"
        },
        {
          "indexed": true,
          "internalType": "address",
          "name": "_to",
          "type": "address"
        },
        {
          "indexed": false,
          "internalType": "uint256",
          "name": "_value",
          "type": "uint256"
        }
      ],
      "name": "Mint",
      "type": "event"
    },
    {
      "anonymous": false,
      "inputs": [
        {
          "indexed": true,
          "internalType": "address",
          "name": "_from",
          "type": "address"
        },
        {
          "indexed": true,
          "internalType": "address",
          "name": "_to",
          "type": "address"
        },
        {
          "indexed": false,
          "internalType": "uint256",
          "name": "_value",
          "type": "uint256"
        }
      ],
      "name": "Transfer",
      "type": "event"
    },
    {
      "anonymous": false,
      "inputs": [
        {
          "indexed": true,
          "internalType": "address",
          "name": "implementation",
          "type": "address"
        }
      ],
      "name": "Upgraded",
      "type": "event"
    },
    {
      "inputs": [
        {
          "internalType": "address",
          "name": "",
          "type": "address"
        },
        {
          "internalType": "address",
          "name": "",
          "type": "address"
        }
      ],
      "name": "allowance",
      "outputs": [
        {
          "internalType": "uint256",
          "name": "",
          "type": "uint256"
        }
      ],
      "stateMutability": "view",
      "type": "function",
      "constant": true
    },
    {
      "inputs": [
        {
          "internalType": "address",
          "name": "",
          "type": "address"
        }
      ],
      "name": "balanceOf",
      "outputs": [
        {
          "internalType": "uint256",
          "name": "",
          "type": "uint256"
        }
      ],
      "stateMutability": "view",
      "type": "function",
      "constant": true
    },
    {
      "inputs": [],
      "name": "burnPercent",
      "outputs": [
        {
          "internalType": "uint256",
          "name": "",
          "type": "uint256"
        }
      ],
      "stateMutability": "view",
      "type": "function",
      "constant": true
    },
    {
      "inputs": [],
      "name": "decimals",
      "outputs": [
        {
          "internalType": "uint8",
          "name": "",
          "type": "uint8"
        }
      ],
      "stateMutability": "view",
      "type": "function",
      "constant": true
    },
    {
      "inputs": [
        {
          "internalType": "address",
          "name": "",
          "type": "address"
        }
      ],
      "name": "isOwner",
      "outputs": [
        {
          "internalType": "bool",
          "name": "",
          "type": "bool"
        }
      ],
      "stateMutability": "view",
      "type": "function",
      "constant": true
    },
    {
      "inputs": [
        {
          "internalType": "address",
          "name": "",
          "type": "address"
        }
      ],
      "name": "isWhitelistedFrom",
      "outputs": [
        {
          "internalType": "bool",
          "name": "",
          "type": "bool"
        }
      ],
      "stateMutability": "view",
      "type": "function",
      "constant": true
    },
    {
      "inputs": [
        {
          "internalType": "address",
          "name": "",
          "type": "address"
        }
      ],
      "name": "isWhitelistedTo",
      "outputs": [
        {
          "internalType": "bool",
          "name": "",
          "type": "bool"
        }
      ],
      "stateMutability": "view",
      "type": "function",
      "constant": true
    },
    {
      "inputs": [],
      "name": "liqPercent",
      "outputs": [
        {
          "internalType": "uint256",
          "name": "",
          "type": "uint256"
        }
      ],
      "stateMutability": "view",
      "type": "function",
      "constant": true
    },
    {
      "inputs": [],
      "name": "liqPool",
      "outputs": [
        {
          "internalType": "address",
          "name": "",
          "type": "address"
        }
      ],
      "stateMutability": "view",
      "type": "function",
      "constant": true
    },
    {
      "inputs": [],
      "name": "mintIndex",
      "outputs": [
        {
          "internalType": "uint256",
          "name": "",
          "type": "uint256"
        }
      ],
      "stateMutability": "view",
      "type": "function",
      "constant": true
    },
    {
      "inputs": [],
      "name": "name",
      "outputs": [
        {
          "internalType": "string",
          "name": "",
          "type": "string"
        }
      ],
      "stateMutability": "view",
      "type": "function",
      "constant": true
    },
    {
      "inputs": [],
      "name": "owner",
      "outputs": [
        {
          "internalType": "address",
          "name": "",
          "type": "address"
        }
      ],
      "stateMutability": "view",
      "type": "function",
      "constant": true
    },
    {
      "inputs": [],
      "name": "redPercent",
      "outputs": [
        {
          "internalType": "uint256",
          "name": "",
          "type": "uint256"
        }
      ],
      "stateMutability": "view",
      "type": "function",
      "constant": true
    },
    {
      "inputs": [],
      "name": "redPool",
      "outputs": [
        {
          "internalType": "address",
          "name": "",
          "type": "address"
        }
      ],
      "stateMutability": "view",
      "type": "function",
      "constant": true
    },
    {
      "inputs": [],
      "name": "symbol",
      "outputs": [
        {
          "internalType": "string",
          "name": "",
          "type": "string"
        }
      ],
      "stateMutability": "view",
      "type": "function",
      "constant": true
    },
    {
      "inputs": [],
      "name": "totalSupply",
      "outputs": [
        {
          "internalType": "uint256",
          "name": "",
          "type": "uint256"
        }
      ],
      "stateMutability": "view",
      "type": "function",
      "constant": true
    },
    {
      "inputs": [
        {
          "internalType": "address",
          "name": "newImplementation",
          "type": "address"
        }
      ],
      "name": "upgradeTo",
      "outputs": [],
      "stateMutability": "nonpayable",
      "type": "function"
    },
    {
      "inputs": [
        {
          "internalType": "address",
          "name": "newImplementation",
          "type": "address"
        },
        {
          "internalType": "bytes",
          "name": "data",
          "type": "bytes"
        }
      ],
      "name": "upgradeToAndCall",
      "outputs": [],
      "stateMutability": "payable",
      "type": "function",
      "payable": true
    },
    {
      "inputs": [
        {
          "internalType": "address",
          "name": "_owner",
          "type": "address"
        }
      ],
      "name": "updateOwner",
      "outputs": [],
      "stateMutability": "nonpayable",
      "type": "function"
    },
    {
      "inputs": [
        {
          "internalType": "address",
          "name": "newWhitelist",
          "type": "address"
        }
      ],
      "name": "setWhitelistedTo",
      "outputs": [],
      "stateMutability": "nonpayable",
      "type": "function"
    },
    {
      "inputs": [
        {
          "internalType": "address",
          "name": "newWhitelist",
          "type": "address"
        }
      ],
      "name": "removeWhitelistedTo",
      "outputs": [],
      "stateMutability": "nonpayable",
      "type": "function"
    },
    {
      "inputs": [
        {
          "internalType": "address",
          "name": "newWhitelist",
          "type": "address"
        }
      ],
      "name": "setWhitelistedFrom",
      "outputs": [],
      "stateMutability": "nonpayable",
      "type": "function"
    },
    {
      "inputs": [
        {
          "internalType": "address",
          "name": "newWhitelist",
          "type": "address"
        }
      ],
      "name": "removeWhitelistedFrom",
      "outputs": [],
      "stateMutability": "nonpayable",
      "type": "function"
    },
    {
      "inputs": [
        {
          "internalType": "address",
          "name": "_to",
          "type": "address"
        },
        {
          "internalType": "uint256",
          "name": "_value",
          "type": "uint256"
        }
      ],
      "name": "transfer",
      "outputs": [
        {
          "internalType": "bool",
          "name": "success",
          "type": "bool"
        }
      ],
      "stateMutability": "nonpayable",
      "type": "function"
    },
    {
      "inputs": [
        {
          "internalType": "address",
          "name": "_spender",
          "type": "address"
        },
        {
          "internalType": "uint256",
          "name": "_value",
          "type": "uint256"
        }
      ],
      "name": "approve",
      "outputs": [
        {
          "internalType": "bool",
          "name": "success",
          "type": "bool"
        }
      ],
      "stateMutability": "nonpayable",
      "type": "function"
    },
    {
      "inputs": [
        {
          "internalType": "address",
          "name": "_from",
          "type": "address"
        },
        {
          "internalType": "address",
          "name": "_to",
          "type": "address"
        },
        {
          "internalType": "uint256",
          "name": "_value",
          "type": "uint256"
        }
      ],
      "name": "transferFrom",
      "outputs": [
        {
          "internalType": "bool",
          "name": "success",
          "type": "bool"
        }
      ],
      "stateMutability": "nonpayable",
      "type": "function"
    },
    {
      "inputs": [
        {
          "internalType": "address",
          "name": "_account",
          "type": "address"
        },
        {
          "internalType": "uint256",
          "name": "_amount",
          "type": "uint256"
        }
      ],
      "name": "mint",
      "outputs": [],
      "stateMutability": "nonpayable",
      "type": "function"
    },
    {
      "inputs": [
        {
          "internalType": "address",
          "name": "_account",
          "type": "address"
        },
        {
          "internalType": "uint256",
          "name": "_amount",
          "type": "uint256"
        }
      ],
      "name": "burn",
      "outputs": [],
      "stateMutability": "nonpayable",
      "type": "function"
    },
    {
      "inputs": [
        {
          "internalType": "address",
          "name": "_newLPool",
          "type": "address"
        }
      ],
      "name": "updateLPoolAdd",
      "outputs": [],
      "stateMutability": "nonpayable",
      "type": "function"
    },
    {
      "inputs": [
        {
          "internalType": "address",
          "name": "_newRPool",
          "type": "address"
        }
      ],
      "name": "updateRPoolAdd",
      "outputs": [],
      "stateMutability": "nonpayable",
      "type": "function"
    },
    {
      "inputs": [
        {
          "internalType": "uint256",
          "name": "_newBurnPercent",
          "type": "uint256"
        }
      ],
      "name": "updateBurnPercent",
      "outputs": [],
      "stateMutability": "nonpayable",
      "type": "function"
    },
    {
      "inputs": [
        {
          "internalType": "uint256",
          "name": "_newLiqPercent",
          "type": "uint256"
        }
      ],
      "name": "updateLiqPercent",
      "outputs": [],
      "stateMutability": "nonpayable",
      "type": "function"
    },
    {
      "inputs": [
        {
          "internalType": "uint256",
          "name": "_newRedPercent",
          "type": "uint256"
        }
      ],
      "name": "updateRedPercent",
      "outputs": [],
      "stateMutability": "nonpayable",
      "type": "function"
    },
    {
      "inputs": [
        {
          "internalType": "address",
          "name": "token",
          "type": "address"
        },
        {
          "internalType": "uint256",
          "name": "amount",
          "type": "uint256"
        },
        {
          "internalType": "address",
          "name": "_to",
          "type": "address"
        }
      ],
      "name": "returnAnyToken",
      "outputs": [],
      "stateMutability": "nonpayable",
      "type": "function"
    },
    {
      "inputs": [
        {
          "internalType": "address",
          "name": "_to",
          "type": "address"
        },
        {
          "internalType": "address",
          "name": "_lPool",
          "type": "address"
        },
        {
          "internalType": "address",
          "name": "_rPool",
          "type": "address"
        },
        {
          "internalType": "uint256",
          "name": "_burnPercent",
          "type": "uint256"
        },
        {
          "internalType": "uint256",
          "name": "_liqPercent",
          "type": "uint256"
        },
        {
          "internalType": "uint256",
          "name": "_redPercent",
          "type": "uint256"
        }
      ],
      "name": "initialize",
      "outputs": [],
      "stateMutability": "nonpayable",
      "type": "function"
    }
  ],
  "bytecode": "0x608060405234801561001057600080fd5b50614221806100206000396000f3fe6080604052600436106102045760003560e01c806367e76d5311610118578063a9059cbb116100a0578063dd62ed3e1161006f578063dd62ed3e1461076a578063e2657da1146107a7578063e8a4c2eb146107d0578063f74f9bfd146107f9578063f75672441461082457610204565b8063a9059cbb1461069c578063c237e326146106d9578063ca04d2d814610702578063d873c30d1461073f57610204565b8063880cdc31116100e7578063880cdc31146105cb5780638aa4ef2c146105f45780638da5cb5b1461061d57806395d89b41146106485780639dc29fac1461067357610204565b806367e76d531461051157806370a082311461053a578063728cdbca14610577578063740b91f4146105a057610204565b806335e8b82e1161019b57806340c10f191161016a57806340c10f191461043b5780634d28b4ba146104645780634f1ef2861461048d5780635422e495146104a95780635b014029146104d457610204565b806335e8b82e146103975780633659cfe6146103c05780633838d4e3146103e9578063389993281461041257610204565b806318160ddd116101d757806318160ddd146102c757806323b872dd146102f25780632f54bf6e1461032f578063313ce5671461036c57610204565b806303807ee51461020957806305f1ad9e1461023457806306fdde031461025f578063095ea7b31461028a575b600080fd5b34801561021557600080fd5b5061021e61084d565b60405161022b9190613c05565b60405180910390f35b34801561024057600080fd5b50610249610853565b6040516102569190613a84565b60405180910390f35b34801561026b57600080fd5b50610274610879565b6040516102819190613ae3565b60405180910390f35b34801561029657600080fd5b506102b160048036038101906102ac91906137d2565b610907565b6040516102be9190613ac8565b60405180910390f35b3480156102d357600080fd5b506102dc6109f9565b6040516102e99190613c05565b60405180910390f35b3480156102fe57600080fd5b506103196004803603810190610314919061372f565b6109ff565b6040516103269190613ac8565b60405180910390f35b34801561033b57600080fd5b5061035660048036038101906103519190613641565b610ef5565b6040516103639190613ac8565b60405180910390f35b34801561037857600080fd5b50610381610f15565b60405161038e9190613c20565b60405180910390f35b3480156103a357600080fd5b506103be60048036038101906103b99190613641565b610f28565b005b3480156103cc57600080fd5b506103e760048036038101906103e29190613641565b61108d565b005b3480156103f557600080fd5b50610410600480360381019061040b9190613641565b6110b4565b005b34801561041e57600080fd5b5061043960048036038101906104349190613886565b61122c565b005b34801561044757600080fd5b50610462600480360381019061045d91906137d2565b6112ec565b005b34801561047057600080fd5b5061048b60048036038101906104869190613641565b61148b565b005b6104a760048036038101906104a2919061377e565b611602565b005b3480156104b557600080fd5b506104be61161b565b6040516104cb9190613c05565b60405180910390f35b3480156104e057600080fd5b506104fb60048036038101906104f69190613641565b611621565b6040516105089190613ac8565b60405180910390f35b34801561051d57600080fd5b5061053860048036038101906105339190613641565b611641565b005b34801561054657600080fd5b50610561600480360381019061055c9190613641565b6117a6565b60405161056e9190613c05565b60405180910390f35b34801561058357600080fd5b5061059e600480360381019061059991906136a6565b6117be565b005b3480156105ac57600080fd5b506105b5611bf1565b6040516105c29190613a84565b60405180910390f35b3480156105d757600080fd5b506105f260048036038101906105ed9190613641565b611c17565b005b34801561060057600080fd5b5061061b60048036038101906106169190613886565b611e40565b005b34801561062957600080fd5b50610632611f00565b60405161063f9190613a84565b60405180910390f35b34801561065457600080fd5b5061065d611f26565b60405161066a9190613ae3565b60405180910390f35b34801561067f57600080fd5b5061069a600480360381019061069591906137d2565b611fb4565b005b3480156106a857600080fd5b506106c360048036038101906106be91906137d2565b6121a5565b6040516106d09190613ac8565b60405180910390f35b3480156106e557600080fd5b5061070060048036038101906106fb919061380e565b6124eb565b005b34801561070e57600080fd5b5061072960048036038101906107249190613641565b61267a565b6040516107369190613ac8565b60405180910390f35b34801561074b57600080fd5b5061075461269a565b6040516107619190613c05565b60405180910390f35b34801561077657600080fd5b50610791600480360381019061078c919061366a565b6126a0565b60405161079e9190613c05565b60405180910390f35b3480156107b357600080fd5b506107ce60048036038101906107c99190613641565b6126c5565b005b3480156107dc57600080fd5b506107f760048036038101906107f29190613886565b61283c565b005b34801561080557600080fd5b5061080e6128fc565b60405161081b9190613c05565b60405180910390f35b34801561083057600080fd5b5061084b60048036038101906108469190613641565b612902565b005b606e5481565b606c60009054906101000a900473ffffffffffffffffffffffffffffffffffffffff1681565b6065805461088690613e6f565b80601f01602080910402602001604051908101604052809291908181526020018280546108b290613e6f565b80156108ff5780601f106108d4576101008083540402835291602001916108ff565b820191906000526020600020905b8154815290600101906020018083116108e257829003601f168201915b505050505081565b600081607260003373ffffffffffffffffffffffffffffffffffffffff1673ffffffffffffffffffffffffffffffffffffffff16815260200190815260200160002060008573ffffffffffffffffffffffffffffffffffffffff1673ffffffffffffffffffffffffffffffffffffffff168152602001908152602001600020819055508273ffffffffffffffffffffffffffffffffffffffff163373ffffffffffffffffffffffffffffffffffffffff167f8c5be1e5ebec7d5bd14f71427d1e84f3dd0314c0f7b2291e5b200ac8c7c3b925846040516109e79190613c05565b60405180910390a36001905092915050565b60675481565b600080821015610a0e57600080fd5b607160008573ffffffffffffffffffffffffffffffffffffffff1673ffffffffffffffffffffffffffffffffffffffff16815260200190815260200160002054821115610a5a57600080fd5b607260008573ffffffffffffffffffffffffffffffffffffffff1673ffffffffffffffffffffffffffffffffffffffff16815260200190815260200160002060003373ffffffffffffffffffffffffffffffffffffffff1673ffffffffffffffffffffffffffffffffffffffff16815260200190815260200160002054821115610ae357600080fd5b607460008473ffffffffffffffffffffffffffffffffffffffff1673ffffffffffffffffffffffffffffffffffffffff16815260200190815260200160002060009054906101000a900460ff1680610b845750607560003373ffffffffffffffffffffffffffffffffffffffff1673ffffffffffffffffffffffffffffffffffffffff16815260200190815260200160002060009054906101000a900460ff165b15610d365781607260008673ffffffffffffffffffffffffffffffffffffffff1673ffffffffffffffffffffffffffffffffffffffff16815260200190815260200160002060003373ffffffffffffffffffffffffffffffffffffffff1673ffffffffffffffffffffffffffffffffffffffff1681526020019081526020016000206000828254610c159190613da4565b9250508190555081607160008673ffffffffffffffffffffffffffffffffffffffff1673ffffffffffffffffffffffffffffffffffffffff1681526020019081526020016000206000828254610c6b9190613da4565b9250508190555081607160008573ffffffffffffffffffffffffffffffffffffffff1673ffffffffffffffffffffffffffffffffffffffff1681526020019081526020016000206000828254610cc19190613cc3565b925050819055508273ffffffffffffffffffffffffffffffffffffffff168473ffffffffffffffffffffffffffffffffffffffff167fddf252ad1be2c89b69c2b068fc378daa952ba7f163c4a11628f55a4df523b3ef84604051610d259190613c05565b60405180910390a360019050610eee565b81607260008673ffffffffffffffffffffffffffffffffffffffff1673ffffffffffffffffffffffffffffffffffffffff16815260200190815260200160002060003373ffffffffffffffffffffffffffffffffffffffff1673ffffffffffffffffffffffffffffffffffffffff1681526020019081526020016000206000828254610dc29190613da4565b925050819055506000610dd58386612a7a565b905080607160008773ffffffffffffffffffffffffffffffffffffffff1673ffffffffffffffffffffffffffffffffffffffff1681526020019081526020016000206000828254610e269190613da4565b9250508190555080607160008673ffffffffffffffffffffffffffffffffffffffff1673ffffffffffffffffffffffffffffffffffffffff1681526020019081526020016000206000828254610e7c9190613cc3565b925050819055508373ffffffffffffffffffffffffffffffffffffffff168573ffffffffffffffffffffffffffffffffffffffff167fddf252ad1be2c89b69c2b068fc378daa952ba7f163c4a11628f55a4df523b3ef83604051610ee09190613c05565b60405180910390a360019150505b9392505050565b60736020528060005260406000206000915054906101000a900460ff1681565b606860009054906101000a900460ff1681565b607360003373ffffffffffffffffffffffffffffffffffffffff1673ffffffffffffffffffffffffffffffffffffffff16815260200190815260200160002060009054906101000a900460ff16610fb4576040517f08c379a0000000000000000000000000000000000000000000000000000000008152600401610fab90613be5565b60405180910390fd5b600073ffffffffffffffffffffffffffffffffffffffff168173ffffffffffffffffffffffffffffffffffffffff161415610fee57600080fd5b606b60009054906101000a900473ffffffffffffffffffffffffffffffffffffffff1673ffffffffffffffffffffffffffffffffffffffff168173ffffffffffffffffffffffffffffffffffffffff16141561104957600080fd5b80606b60006101000a81548173ffffffffffffffffffffffffffffffffffffffff021916908373ffffffffffffffffffffffffffffffffffffffff16021790555050565b61109681612afb565b6110b181604051806020016040528060008152506000612b8a565b50565b607360003373ffffffffffffffffffffffffffffffffffffffff1673ffffffffffffffffffffffffffffffffffffffff16815260200190815260200160002060009054906101000a900460ff16611140576040517f08c379a000000000000000000000000000000000000000000000000000000000815260040161113790613be5565b60405180910390fd5b600073ffffffffffffffffffffffffffffffffffffffff168173ffffffffffffffffffffffffffffffffffffffff16141561117a57600080fd5b607560008273ffffffffffffffffffffffffffffffffffffffff1673ffffffffffffffffffffffffffffffffffffffff16815260200190815260200160002060009054906101000a900460ff16156111d157600080fd5b6001607560008373ffffffffffffffffffffffffffffffffffffffff1673ffffffffffffffffffffffffffffffffffffffff16815260200190815260200160002060006101000a81548160ff02191690831515021790555050565b607360003373ffffffffffffffffffffffffffffffffffffffff1673ffffffffffffffffffffffffffffffffffffffff16815260200190815260200160002060009054906101000a900460ff166112b8576040517f08c379a00000000000000000000000000000000000000000000000000000000081526004016112af90613be5565b60405180910390fd5b600081101580156112ca575060648111155b6112d357600080fd5b606e548114156112e257600080fd5b80606e8190555050565b607360003373ffffffffffffffffffffffffffffffffffffffff1673ffffffffffffffffffffffffffffffffffffffff16815260200190815260200160002060009054906101000a900460ff16611378576040517f08c379a000000000000000000000000000000000000000000000000000000000815260040161136f90613be5565b60405180910390fd5b600073ffffffffffffffffffffffffffffffffffffffff168273ffffffffffffffffffffffffffffffffffffffff1614156113b257600080fd5b80607160008473ffffffffffffffffffffffffffffffffffffffff1673ffffffffffffffffffffffffffffffffffffffff16815260200190815260200160002060008282546114019190613cc3565b92505081905550806067600082825461141a9190613cc3565b925050819055508173ffffffffffffffffffffffffffffffffffffffff16600073ffffffffffffffffffffffffffffffffffffffff167fab8530f87dc9b59234c4623bf917212bb2536d647574c8e7e5da92c2ede0c9f88360405161147f9190613c05565b60405180910390a35050565b607360003373ffffffffffffffffffffffffffffffffffffffff1673ffffffffffffffffffffffffffffffffffffffff16815260200190815260200160002060009054906101000a900460ff16611517576040517f08c379a000000000000000000000000000000000000000000000000000000000815260040161150e90613be5565b60405180910390fd5b600073ffffffffffffffffffffffffffffffffffffffff168173ffffffffffffffffffffffffffffffffffffffff16141561155157600080fd5b607560008273ffffffffffffffffffffffffffffffffffffffff1673ffffffffffffffffffffffffffffffffffffffff16815260200190815260200160002060009054906101000a900460ff166115a757600080fd5b6000607560008373ffffffffffffffffffffffffffffffffffffffff1673ffffffffffffffffffffffffffffffffffffffff16815260200190815260200160002060006101000a81548160ff02191690831515021790555050565b61160b82612afb565b61161782826001612b8a565b5050565b606f5481565b60746020528060005260406000206000915054906101000a900460ff1681565b607360003373ffffffffffffffffffffffffffffffffffffffff1673ffffffffffffffffffffffffffffffffffffffff16815260200190815260200160002060009054906101000a900460ff166116cd576040517f08c379a00000000000000000000000000000000000000000000000000000000081526004016116c490613be5565b60405180910390fd5b600073ffffffffffffffffffffffffffffffffffffffff168173ffffffffffffffffffffffffffffffffffffffff16141561170757600080fd5b606c60009054906101000a900473ffffffffffffffffffffffffffffffffffffffff1673ffffffffffffffffffffffffffffffffffffffff168173ffffffffffffffffffffffffffffffffffffffff16141561176257600080fd5b80606c60006101000a81548173ffffffffffffffffffffffffffffffffffffffff021916908373ffffffffffffffffffffffffffffffffffffffff16021790555050565b60716020528060005260406000206000915090505481565b600060019054906101000a900460ff16806117e4575060008054906101000a900460ff16155b611823576040517f08c379a000000000000000000000000000000000000000000000000000000000815260040161181a90613b45565b60405180910390fd5b60008060019054906101000a900460ff161590508015611873576001600060016101000a81548160ff02191690831515021790555060016000806101000a81548160ff0219169083151502179055505b6040518060400160405280600b81526020017f505552534520546f6b656e000000000000000000000000000000000000000000815250606590805190602001906118be9291906134f7565b506040518060400160405280600281526020017f50520000000000000000000000000000000000000000000000000000000000008152506066908051906020019061190a9291906134f7565b506bcecb8f27f4200f3a000000006067819055506012606860006101000a81548160ff021916908360ff16021790555069043c33c1937564800000606981905550600073ffffffffffffffffffffffffffffffffffffffff168673ffffffffffffffffffffffffffffffffffffffff16141561198557600080fd5b600073ffffffffffffffffffffffffffffffffffffffff168573ffffffffffffffffffffffffffffffffffffffff1614156119bf57600080fd5b60008410156119cd57600080fd5b60008310156119db57600080fd5b60008210156119e957600080fd5b85606b60006101000a81548173ffffffffffffffffffffffffffffffffffffffff021916908373ffffffffffffffffffffffffffffffffffffffff16021790555084606c60006101000a81548173ffffffffffffffffffffffffffffffffffffffff021916908373ffffffffffffffffffffffffffffffffffffffff16021790555083606e8190555082606f81905550816070819055506001607360003373ffffffffffffffffffffffffffffffffffffffff1673ffffffffffffffffffffffffffffffffffffffff16815260200190815260200160002060006101000a81548160ff02191690831515021790555033606a60006101000a81548173ffffffffffffffffffffffffffffffffffffffff021916908373ffffffffffffffffffffffffffffffffffffffff160217905550606754607160008973ffffffffffffffffffffffffffffffffffffffff1673ffffffffffffffffffffffffffffffffffffffff168152602001908152602001600020819055508673ffffffffffffffffffffffffffffffffffffffff16600073ffffffffffffffffffffffffffffffffffffffff167fab8530f87dc9b59234c4623bf917212bb2536d647574c8e7e5da92c2ede0c9f8606754604051611bbf9190613c05565b60405180910390a38015611be85760008060016101000a81548160ff0219169083151502179055505b50505050505050565b606b60009054906101000a900473ffffffffffffffffffffffffffffffffffffffff1681565b607360003373ffffffffffffffffffffffffffffffffffffffff1673ffffffffffffffffffffffffffffffffffffffff16815260200190815260200160002060009054906101000a900460ff16611ca3576040517f08c379a0000000000000000000000000000000000000000000000000000000008152600401611c9a90613be5565b60405180910390fd5b600073ffffffffffffffffffffffffffffffffffffffff168173ffffffffffffffffffffffffffffffffffffffff161415611d13576040517f08c379a0000000000000000000000000000000000000000000000000000000008152600401611d0a90613b65565b60405180910390fd5b606a60009054906101000a900473ffffffffffffffffffffffffffffffffffffffff1673ffffffffffffffffffffffffffffffffffffffff168173ffffffffffffffffffffffffffffffffffffffff161415611da4576040517f08c379a0000000000000000000000000000000000000000000000000000000008152600401611d9b90613b25565b60405180910390fd5b6001607360008373ffffffffffffffffffffffffffffffffffffffff1673ffffffffffffffffffffffffffffffffffffffff16815260200190815260200160002060006101000a81548160ff02191690831515021790555080606a60006101000a81548173ffffffffffffffffffffffffffffffffffffffff021916908373ffffffffffffffffffffffffffffffffffffffff16021790555050565b607360003373ffffffffffffffffffffffffffffffffffffffff1673ffffffffffffffffffffffffffffffffffffffff16815260200190815260200160002060009054906101000a900460ff16611ecc576040517f08c379a0000000000000000000000000000000000000000000000000000000008152600401611ec390613be5565b60405180910390fd5b60008110158015611ede575060648111155b611ee757600080fd5b606f54811415611ef657600080fd5b80606f8190555050565b606a60009054906101000a900473ffffffffffffffffffffffffffffffffffffffff1681565b60668054611f3390613e6f565b80601f0160208091040260200160405190810160405280929190818152602001828054611f5f90613e6f565b8015611fac5780601f10611f8157610100808354040283529160200191611fac565b820191906000526020600020905b815481529060010190602001808311611f8f57829003601f168201915b505050505081565b607360003373ffffffffffffffffffffffffffffffffffffffff1673ffffffffffffffffffffffffffffffffffffffff16815260200190815260200160002060009054906101000a900460ff16612040576040517f08c379a000000000000000000000000000000000000000000000000000000000815260040161203790613be5565b60405180910390fd5b600073ffffffffffffffffffffffffffffffffffffffff168273ffffffffffffffffffffffffffffffffffffffff16141561207a57600080fd5b6000607160008473ffffffffffffffffffffffffffffffffffffffff1673ffffffffffffffffffffffffffffffffffffffff168152602001908152602001600020549050818110156120cb57600080fd5b81607160008573ffffffffffffffffffffffffffffffffffffffff1673ffffffffffffffffffffffffffffffffffffffff168152602001908152602001600020600082825461211a9190613da4565b9250508190555081606760008282546121339190613da4565b92505081905550600073ffffffffffffffffffffffffffffffffffffffff168373ffffffffffffffffffffffffffffffffffffffff167fbac40739b0d4ca32fa2d82fc91630465ba3eddd1598da6fca393b26fb63b9453846040516121989190613c05565b60405180910390a3505050565b6000808210156121b457600080fd5b81607160003373ffffffffffffffffffffffffffffffffffffffff1673ffffffffffffffffffffffffffffffffffffffff16815260200190815260200160002054101561220057600080fd5b607460008473ffffffffffffffffffffffffffffffffffffffff1673ffffffffffffffffffffffffffffffffffffffff16815260200190815260200160002060009054906101000a900460ff16806122a15750607560003373ffffffffffffffffffffffffffffffffffffffff1673ffffffffffffffffffffffffffffffffffffffff16815260200190815260200160002060009054906101000a900460ff165b156123c05781607160003373ffffffffffffffffffffffffffffffffffffffff1673ffffffffffffffffffffffffffffffffffffffff16815260200190815260200160002060008282546122f59190613da4565b9250508190555081607160008573ffffffffffffffffffffffffffffffffffffffff1673ffffffffffffffffffffffffffffffffffffffff168152602001908152602001600020600082825461234b9190613cc3565b925050819055508273ffffffffffffffffffffffffffffffffffffffff163373ffffffffffffffffffffffffffffffffffffffff167fddf252ad1be2c89b69c2b068fc378daa952ba7f163c4a11628f55a4df523b3ef846040516123af9190613c05565b60405180910390a3600190506124e5565b60006123cc8333612a7a565b905080607160003373ffffffffffffffffffffffffffffffffffffffff1673ffffffffffffffffffffffffffffffffffffffff168152602001908152602001600020600082825461241d9190613da4565b9250508190555080607160008673ffffffffffffffffffffffffffffffffffffffff1673ffffffffffffffffffffffffffffffffffffffff16815260200190815260200160002060008282546124739190613cc3565b925050819055508373ffffffffffffffffffffffffffffffffffffffff163373ffffffffffffffffffffffffffffffffffffffff167fddf252ad1be2c89b69c2b068fc378daa952ba7f163c4a11628f55a4df523b3ef836040516124d79190613c05565b60405180910390a360019150505b92915050565b607360003373ffffffffffffffffffffffffffffffffffffffff1673ffffffffffffffffffffffffffffffffffffffff16815260200190815260200160002060009054906101000a900460ff16612577576040517f08c379a000000000000000000000000000000000000000000000000000000000815260040161256e90613be5565b60405180910390fd5b600073ffffffffffffffffffffffffffffffffffffffff168173ffffffffffffffffffffffffffffffffffffffff1614156125e7576040517f08c379a00000000000000000000000000000000000000000000000000000000081526004016125de90613bc5565b60405180910390fd5b8273ffffffffffffffffffffffffffffffffffffffff1663a9059cbb82846040518363ffffffff1660e01b8152600401612622929190613a9f565b602060405180830381600087803b15801561263c57600080fd5b505af1158015612650573d6000803e3d6000fd5b505050506040513d601f19601f82011682018060405250810190612674919061385d565b50505050565b60756020528060005260406000206000915054906101000a900460ff1681565b60705481565b6072602052816000526040600020602052806000526040600020600091509150505481565b607360003373ffffffffffffffffffffffffffffffffffffffff1673ffffffffffffffffffffffffffffffffffffffff16815260200190815260200160002060009054906101000a900460ff16612751576040517f08c379a000000000000000000000000000000000000000000000000000000000815260040161274890613be5565b60405180910390fd5b600073ffffffffffffffffffffffffffffffffffffffff168173ffffffffffffffffffffffffffffffffffffffff16141561278b57600080fd5b607460008273ffffffffffffffffffffffffffffffffffffffff1673ffffffffffffffffffffffffffffffffffffffff16815260200190815260200160002060009054906101000a900460ff166127e157600080fd5b6000607460008373ffffffffffffffffffffffffffffffffffffffff1673ffffffffffffffffffffffffffffffffffffffff16815260200190815260200160002060006101000a81548160ff02191690831515021790555050565b607360003373ffffffffffffffffffffffffffffffffffffffff1673ffffffffffffffffffffffffffffffffffffffff16815260200190815260200160002060009054906101000a900460ff166128c8576040517f08c379a00000000000000000000000000000000000000000000000000000000081526004016128bf90613be5565b60405180910390fd5b600081101580156128da575060648111155b6128e357600080fd5b6070548114156128f257600080fd5b8060708190555050565b606d5481565b607360003373ffffffffffffffffffffffffffffffffffffffff1673ffffffffffffffffffffffffffffffffffffffff16815260200190815260200160002060009054906101000a900460ff1661298e576040517f08c379a000000000000000000000000000000000000000000000000000000000815260040161298590613be5565b60405180910390fd5b600073ffffffffffffffffffffffffffffffffffffffff168173ffffffffffffffffffffffffffffffffffffffff1614156129c857600080fd5b607460008273ffffffffffffffffffffffffffffffffffffffff1673ffffffffffffffffffffffffffffffffffffffff16815260200190815260200160002060009054906101000a900460ff1615612a1f57600080fd5b6001607460008373ffffffffffffffffffffffffffffffffffffffff1673ffffffffffffffffffffffffffffffffffffffff16815260200190815260200160002060006101000a81548160ff02191690831515021790555050565b600080600090506000806000612a8f87612d5b565b809350819450829550505050600083101580612aac575060008210155b80612ab8575060008110155b15612aca57612ac986848484612df9565b5b80828489612ad89190613da4565b612ae29190613da4565b612aec9190613da4565b93508394505050505092915050565b607360003373ffffffffffffffffffffffffffffffffffffffff1673ffffffffffffffffffffffffffffffffffffffff16815260200190815260200160002060009054906101000a900460ff16612b87576040517f08c379a0000000000000000000000000000000000000000000000000000000008152600401612b7e90613be5565b60405180910390fd5b50565b6000612b94613226565b9050612b9f8461327d565b600083511180612bac5750815b15612bbd57612bbb8484613336565b505b6000612beb7f4910fdfa16fed3260ed0e7147f7cc6da11a60208b5b9406d12a635614ffd914360001b61341a565b90508060000160009054906101000a900460ff16612d545760018160000160006101000a81548160ff021916908315150217905550612cb78583604051602401612c359190613a84565b6040516020818303038152906040527f3659cfe6000000000000000000000000000000000000000000000000000000007bffffffffffffffffffffffffffffffffffffffffffffffffffffffff19166020820180517bffffffffffffffffffffffffffffffffffffffffffffffffffffffff8381831617835250505050613336565b5060008160000160006101000a81548160ff021916908315150217905550612cdd613226565b73ffffffffffffffffffffffffffffffffffffffff168273ffffffffffffffffffffffffffffffffffffffff1614612d4a576040517f08c379a0000000000000000000000000000000000000000000000000000000008152600401612d4190613b05565b60405180910390fd5b612d5385613424565b5b5050505050565b6000806000806000806069546067541115612de6576064606e5488612d809190613d4a565b612d8a9190613d19565b92506064606f5488612d9c9190613d4a565b612da69190613d19565b9150606460705488612db89190613d4a565b612dc29190613d19565b90506000606954606754612dd69190613da4565b905080841115612de4578093505b505b8282829550955095505050509193909250565b600073ffffffffffffffffffffffffffffffffffffffff168473ffffffffffffffffffffffffffffffffffffffff161415612e3357600080fd5b6000607160008673ffffffffffffffffffffffffffffffffffffffff1673ffffffffffffffffffffffffffffffffffffffff1681526020019081526020016000205490506000828486612e869190613cc3565b612e909190613cc3565b905080821015612e9f57600080fd5b84607160008873ffffffffffffffffffffffffffffffffffffffff1673ffffffffffffffffffffffffffffffffffffffff1681526020019081526020016000206000828254612eee9190613da4565b9250508190555083607160008873ffffffffffffffffffffffffffffffffffffffff1673ffffffffffffffffffffffffffffffffffffffff1681526020019081526020016000206000828254612f449190613da4565b9250508190555082607160008873ffffffffffffffffffffffffffffffffffffffff1673ffffffffffffffffffffffffffffffffffffffff1681526020019081526020016000206000828254612f9a9190613da4565b925050819055508460676000828254612fb39190613da4565b925050819055508360716000606b60009054906101000a900473ffffffffffffffffffffffffffffffffffffffff1673ffffffffffffffffffffffffffffffffffffffff1673ffffffffffffffffffffffffffffffffffffffff168152602001908152602001600020600082825461302b9190613cc3565b925050819055508260716000606c60009054906101000a900473ffffffffffffffffffffffffffffffffffffffff1673ffffffffffffffffffffffffffffffffffffffff1673ffffffffffffffffffffffffffffffffffffffff16815260200190815260200160002060008282546130a39190613cc3565b92505081905550600073ffffffffffffffffffffffffffffffffffffffff168673ffffffffffffffffffffffffffffffffffffffff167fbac40739b0d4ca32fa2d82fc91630465ba3eddd1598da6fca393b26fb63b9453876040516131089190613c05565b60405180910390a3606b60009054906101000a900473ffffffffffffffffffffffffffffffffffffffff1673ffffffffffffffffffffffffffffffffffffffff163373ffffffffffffffffffffffffffffffffffffffff167fddf252ad1be2c89b69c2b068fc378daa952ba7f163c4a11628f55a4df523b3ef8660405161318f9190613c05565b60405180910390a3606c60009054906101000a900473ffffffffffffffffffffffffffffffffffffffff1673ffffffffffffffffffffffffffffffffffffffff163373ffffffffffffffffffffffffffffffffffffffff167fddf252ad1be2c89b69c2b068fc378daa952ba7f163c4a11628f55a4df523b3ef856040516132169190613c05565b60405180910390a3505050505050565b60006132547f360894a13ba1a3210667c828492db98dca3e2076cc3735a920a3ca505d382bbc60001b613473565b60000160009054906101000a900473ffffffffffffffffffffffffffffffffffffffff16905090565b6132868161347d565b6132c5576040517f08c379a00000000000000000000000000000000000000000000000000000000081526004016132bc90613b85565b60405180910390fd5b806132f27f360894a13ba1a3210667c828492db98dca3e2076cc3735a920a3ca505d382bbc60001b613473565b60000160006101000a81548173ffffffffffffffffffffffffffffffffffffffff021916908373ffffffffffffffffffffffffffffffffffffffff16021790555050565b60606133418361347d565b613380576040517f08c379a000000000000000000000000000000000000000000000000000000000815260040161337790613ba5565b60405180910390fd5b6000808473ffffffffffffffffffffffffffffffffffffffff16846040516133a89190613a6d565b600060405180830381855af49150503d80600081146133e3576040519150601f19603f3d011682016040523d82523d6000602084013e6133e8565b606091505b509150915061341082826040518060600160405280602781526020016141c560279139613490565b9250505092915050565b6000819050919050565b61342d8161327d565b8073ffffffffffffffffffffffffffffffffffffffff167fbc7cd75a20ee27fd9adebab32041f755214dbc6bffa90cc0225b39da2e5c2d3b60405160405180910390a250565b6000819050919050565b600080823b905060008111915050919050565b606083156134a0578290506134f0565b6000835111156134b35782518084602001fd5b816040517f08c379a00000000000000000000000000000000000000000000000000000000081526004016134e79190613ae3565b60405180910390fd5b9392505050565b82805461350390613e6f565b90600052602060002090601f016020900481019282613525576000855561356c565b82601f1061353e57805160ff191683800117855561356c565b8280016001018555821561356c579182015b8281111561356b578251825591602001919060010190613550565b5b509050613579919061357d565b5090565b5b8082111561359657600081600090555060010161357e565b5090565b60006135ad6135a884613c60565b613c3b565b9050828152602081018484840111156135c557600080fd5b6135d0848285613e2d565b509392505050565b6000813590506135e78161417f565b92915050565b6000815190506135fc81614196565b92915050565b600082601f83011261361357600080fd5b813561362384826020860161359a565b91505092915050565b60008135905061363b816141ad565b92915050565b60006020828403121561365357600080fd5b6000613661848285016135d8565b91505092915050565b6000806040838503121561367d57600080fd5b600061368b858286016135d8565b925050602061369c858286016135d8565b9150509250929050565b60008060008060008060c087890312156136bf57600080fd5b60006136cd89828a016135d8565b96505060206136de89828a016135d8565b95505060406136ef89828a016135d8565b945050606061370089828a0161362c565b935050608061371189828a0161362c565b92505060a061372289828a0161362c565b9150509295509295509295565b60008060006060848603121561374457600080fd5b6000613752868287016135d8565b9350506020613763868287016135d8565b92505060406137748682870161362c565b9150509250925092565b6000806040838503121561379157600080fd5b600061379f858286016135d8565b925050602083013567ffffffffffffffff8111156137bc57600080fd5b6137c885828601613602565b9150509250929050565b600080604083850312156137e557600080fd5b60006137f3858286016135d8565b92505060206138048582860161362c565b9150509250929050565b60008060006060848603121561382357600080fd5b6000613831868287016135d8565b93505060206138428682870161362c565b9250506040613853868287016135d8565b9150509250925092565b60006020828403121561386f57600080fd5b600061387d848285016135ed565b91505092915050565b60006020828403121561389857600080fd5b60006138a68482850161362c565b91505092915050565b6138b881613dd8565b82525050565b6138c781613dea565b82525050565b60006138d882613c91565b6138e28185613ca7565b93506138f2818560208601613e3c565b80840191505092915050565b600061390982613c9c565b6139138185613cb2565b9350613923818560208601613e3c565b61392c81613f8e565b840191505092915050565b6000613944602f83613cb2565b915061394f82613f9f565b604082019050919050565b6000613967601283613cb2565b915061397282613fee565b602082019050919050565b600061398a602e83613cb2565b915061399582614017565b604082019050919050565b60006139ad601183613cb2565b91506139b882614066565b602082019050919050565b60006139d0602d83613cb2565b91506139db8261408f565b604082019050919050565b60006139f3602683613cb2565b91506139fe826140de565b604082019050919050565b6000613a16601883613cb2565b9150613a218261412d565b602082019050919050565b6000613a39600983613cb2565b9150613a4482614156565b602082019050919050565b613a5881613e16565b82525050565b613a6781613e20565b82525050565b6000613a7982846138cd565b915081905092915050565b6000602082019050613a9960008301846138af565b92915050565b6000604082019050613ab460008301856138af565b613ac16020830184613a4f565b9392505050565b6000602082019050613add60008301846138be565b92915050565b60006020820190508181036000830152613afd81846138fe565b905092915050565b60006020820190508181036000830152613b1e81613937565b9050919050565b60006020820190508181036000830152613b3e8161395a565b9050919050565b60006020820190508181036000830152613b5e8161397d565b9050919050565b60006020820190508181036000830152613b7e816139a0565b9050919050565b60006020820190508181036000830152613b9e816139c3565b9050919050565b60006020820190508181036000830152613bbe816139e6565b9050919050565b60006020820190508181036000830152613bde81613a09565b9050919050565b60006020820190508181036000830152613bfe81613a2c565b9050919050565b6000602082019050613c1a6000830184613a4f565b92915050565b6000602082019050613c356000830184613a5e565b92915050565b6000613c45613c56565b9050613c518282613ea1565b919050565b6000604051905090565b600067ffffffffffffffff821115613c7b57613c7a613f5f565b5b613c8482613f8e565b9050602081019050919050565b600081519050919050565b600081519050919050565b600081905092915050565b600082825260208201905092915050565b6000613cce82613e16565b9150613cd983613e16565b9250827fffffffffffffffffffffffffffffffffffffffffffffffffffffffffffffffff03821115613d0e57613d0d613ed2565b5b828201905092915050565b6000613d2482613e16565b9150613d2f83613e16565b925082613d3f57613d3e613f01565b5b828204905092915050565b6000613d5582613e16565b9150613d6083613e16565b9250817fffffffffffffffffffffffffffffffffffffffffffffffffffffffffffffffff0483118215151615613d9957613d98613ed2565b5b828202905092915050565b6000613daf82613e16565b9150613dba83613e16565b925082821015613dcd57613dcc613ed2565b5b828203905092915050565b6000613de382613df6565b9050919050565b60008115159050919050565b600073ffffffffffffffffffffffffffffffffffffffff82169050919050565b6000819050919050565b600060ff82169050919050565b82818337600083830152505050565b60005b83811015613e5a578082015181840152602081019050613e3f565b83811115613e69576000848401525b50505050565b60006002820490506001821680613e8757607f821691505b60208210811415613e9b57613e9a613f30565b5b50919050565b613eaa82613f8e565b810181811067ffffffffffffffff82111715613ec957613ec8613f5f565b5b80604052505050565b7f4e487b7100000000000000000000000000000000000000000000000000000000600052601160045260246000fd5b7f4e487b7100000000000000000000000000000000000000000000000000000000600052601260045260246000fd5b7f4e487b7100000000000000000000000000000000000000000000000000000000600052602260045260246000fd5b7f4e487b7100000000000000000000000000000000000000000000000000000000600052604160045260246000fd5b6000601f19601f8301169050919050565b7f45524331393637557067726164653a207570677261646520627265616b73206660008201527f7572746865722075706772616465730000000000000000000000000000000000602082015250565b7f73616d65206f776e657220616464726573730000000000000000000000000000600082015250565b7f496e697469616c697a61626c653a20636f6e747261637420697320616c72656160008201527f647920696e697469616c697a6564000000000000000000000000000000000000602082015250565b7f6e6f742076616c69642061646472657373000000000000000000000000000000600082015250565b7f455243313936373a206e657720696d706c656d656e746174696f6e206973206e60008201527f6f74206120636f6e747261637400000000000000000000000000000000000000602082015250565b7f416464726573733a2064656c65676174652063616c6c20746f206e6f6e2d636f60008201527f6e74726163740000000000000000000000000000000000000000000000000000602082015250565b7f73656e6420746f20746865207a65726f20616464726573730000000000000000600082015250565b7f6e6f74206f776e65720000000000000000000000000000000000000000000000600082015250565b61418881613dd8565b811461419357600080fd5b50565b61419f81613dea565b81146141aa57600080fd5b50565b6141b681613e16565b81146141c157600080fd5b5056fe416464726573733a206c6f772d6c6576656c2064656c65676174652063616c6c206661696c6564a26469706673582212203930e053b3226d5bda8b69862cd78b7bad468972fc65bb128d1c538c9e94ec0364736f6c63430008030033",
  "immutableReferences": {},
  "source": "pragma solidity ^0.8.0;\r\n\r\nimport \"@openzeppelin/contracts-upgradeable/proxy/utils/Initializable.sol\";\r\nimport \"@openzeppelin/contracts-upgradeable/proxy/utils/UUPSUpgradeable.sol\";\r\n\r\nabstract contract ERC20Interface {\r\n\r\n    function transfer(address to, uint tokens) public virtual returns (bool success);\r\n\r\n    function transferFrom(address from, address to, uint tokens) public virtual returns (bool success);\r\n\r\n}\r\n\r\ncontract PurseTokenMultiSigUpgradable is Initializable, UUPSUpgradeable {\r\n    string public name;\r\n    string public symbol;\r\n    uint256 public totalSupply;\r\n    uint8 public decimals;\r\n    uint256 private minimumSupply;\r\n    address public owner;\r\n    address public liqPool;\r\n    address public redPool;\r\n    uint256 public mintIndex;\r\n    uint256 public burnPercent;\r\n    uint256 public liqPercent;\r\n    uint256 public redPercent;\r\n\r\n    event Transfer(address indexed _from, address indexed _to, uint256 _value);\r\n    event Burn(address indexed _from, address indexed _to, uint256 _value);\r\n    event Mint(address indexed _from, address indexed _to, uint256 _value);\r\n    event Approval(address indexed _owner, address indexed _spender, uint256 _value);\r\n\r\n    modifier onlyOwner() {\r\n        require(isOwner[msg.sender], \"not owner\");\r\n        _;\r\n    }\r\n\r\n    mapping(address => uint256) public balanceOf;\r\n    mapping(address => mapping(address => uint256)) public allowance;\r\n    mapping(address => bool) public isOwner;\r\n    mapping(address => bool) public isWhitelistedTo;\r\n    mapping(address => bool) public isWhitelistedFrom;\r\n\r\n    function updateOwner(address _owner) public onlyOwner{\r\n        require(_owner != address(0), \"not valid address\");\r\n        require(_owner != owner, \"same owner address\");\r\n        isOwner[_owner] = true;\r\n        owner = _owner;\r\n    } \r\n\r\n    function setWhitelistedTo(address newWhitelist) external onlyOwner {\r\n        require(newWhitelist != address(0));\r\n        require(!isWhitelistedTo[newWhitelist]);\r\n\r\n        isWhitelistedTo[newWhitelist] = true;\r\n    }\r\n\r\n    function removeWhitelistedTo(address newWhitelist) external onlyOwner {\r\n        require(newWhitelist != address(0));\r\n        require(isWhitelistedTo[newWhitelist]);\r\n\r\n        isWhitelistedTo[newWhitelist] = false;\r\n    }\r\n\r\n    function setWhitelistedFrom(address newWhitelist) external onlyOwner {\r\n        require(newWhitelist != address(0));\r\n        require(!isWhitelistedFrom[newWhitelist]);\r\n\r\n        isWhitelistedFrom[newWhitelist] = true;\r\n    }\r\n\r\n    function removeWhitelistedFrom(address newWhitelist) external onlyOwner {\r\n        require(newWhitelist != address(0));\r\n        require(isWhitelistedFrom[newWhitelist]);\r\n\r\n        isWhitelistedFrom[newWhitelist] = false;\r\n    }\r\n\r\n    function transfer(address _to, uint256 _value)\r\n        public\r\n        returns (bool success)\r\n    {\r\n        require(_value >= 0);\r\n        require(balanceOf[msg.sender] >= _value);\r\n        if (isWhitelistedTo[_to] || isWhitelistedFrom[msg.sender]) {\r\n            balanceOf[msg.sender] -= _value;\r\n            balanceOf[_to] += _value;\r\n\r\n            emit Transfer(msg.sender, _to, _value);\r\n            return true;\r\n        } else {\r\n            uint256 transferValue = _partialBurn(_value, msg.sender);\r\n            balanceOf[msg.sender] -= transferValue;\r\n            balanceOf[_to] += transferValue;\r\n\r\n            emit Transfer(msg.sender, _to, transferValue);\r\n            return true;\r\n        }\r\n    }\r\n\r\n    function approve(address _spender, uint256 _value)\r\n        public\r\n        returns (bool success)\r\n    {\r\n        allowance[msg.sender][_spender] = _value;\r\n        emit Approval(msg.sender, _spender, _value);\r\n        return true;\r\n    }\r\n\r\n    function transferFrom(\r\n        address _from,\r\n        address _to,\r\n        uint256 _value\r\n    ) public returns (bool success) {\r\n        require(_value >= 0);\r\n        require(_value <= balanceOf[_from]);\r\n        require(_value <= allowance[_from][msg.sender]);\r\n        if (isWhitelistedTo[_to] || isWhitelistedFrom[msg.sender]) {\r\n            allowance[_from][msg.sender] -= _value;\r\n            balanceOf[_from] -= _value;\r\n            balanceOf[_to] += _value;\r\n            emit Transfer(_from, _to, _value);\r\n            return true;\r\n        } else {\r\n            allowance[_from][msg.sender] -= _value;\r\n            uint256 transferValue = _partialBurn(_value, _from);\r\n            balanceOf[_from] -= transferValue;\r\n            balanceOf[_to] += transferValue;\r\n            emit Transfer(_from, _to, transferValue);\r\n            return true;\r\n        }\r\n    }\r\n\r\n    function mint(address _account, uint256 _amount) public onlyOwner {\r\n        require(_account != address(0));\r\n\r\n        balanceOf[_account] += _amount;\r\n        totalSupply += _amount;\r\n        emit Mint(address(0), _account, _amount);\r\n    }\r\n\r\n\r\n    function burn(address _account, uint256 _amount) public onlyOwner {\r\n        require(_account != address(0));\r\n        uint256 accountBalance = balanceOf[_account];\r\n        require(accountBalance >= _amount);\r\n        balanceOf[_account] -= _amount;\r\n        totalSupply -= _amount;\r\n        emit Burn(_account, address(0), _amount);\r\n    }\r\n\r\n    function _partialBurn(uint256 _amount, address _from)\r\n        internal\r\n        returns (uint256)\r\n    {\r\n        uint256 transferAmount = 0;\r\n        uint256 burnAmount;\r\n        uint256 liqAmount;\r\n        uint256 redAmount;\r\n        (\r\n            burnAmount,\r\n            liqAmount,\r\n            redAmount\r\n        ) = _calculateDeductAmount(_amount);\r\n\r\n        if (burnAmount >= 0 || liqAmount >= 0 || redAmount >= 0) {\r\n            burnPrivate(_from, burnAmount, liqAmount, redAmount);\r\n        }\r\n        transferAmount = _amount - burnAmount - liqAmount - redAmount;\r\n\r\n        return transferAmount;\r\n    }\r\n\r\n    function _calculateDeductAmount(uint256 _amount)\r\n        internal\r\n        view\r\n        returns (\r\n            uint256,\r\n            uint256,\r\n            uint256\r\n        )\r\n    {\r\n        uint256 burnAmount;\r\n        uint256 liqAmount;\r\n        uint256 redAmount;\r\n\r\n        if (totalSupply > minimumSupply) {\r\n            burnAmount = (_amount * burnPercent) / 100;\r\n            liqAmount = (_amount * liqPercent) / 100;\r\n            redAmount = (_amount * redPercent) / 100;\r\n            uint256 availableBurn = totalSupply - minimumSupply;\r\n            if (burnAmount > availableBurn) {\r\n                burnAmount = availableBurn;\r\n            }\r\n        }\r\n        return (burnAmount, liqAmount, redAmount);\r\n    }\r\n\r\n    function burnPrivate(\r\n        address _account,\r\n        uint256 _burnAmount,\r\n        uint256 _liqAmount,\r\n        uint256 _redAmount\r\n    ) private {\r\n        require(_account != address(0));\r\n        uint256 accountBalance = balanceOf[_account];\r\n        uint256 deductAmount = _burnAmount + _liqAmount + _redAmount;\r\n        require(accountBalance >= deductAmount);\r\n        balanceOf[_account] -= _burnAmount;\r\n        balanceOf[_account] -= _liqAmount;\r\n        balanceOf[_account] -= _redAmount;\r\n\r\n        totalSupply -= _burnAmount;\r\n        balanceOf[liqPool] += _liqAmount;\r\n        balanceOf[redPool] += _redAmount;\r\n        emit Burn(_account, address(0), _burnAmount);\r\n        emit Transfer(msg.sender, liqPool, _liqAmount);\r\n        emit Transfer(msg.sender, redPool, _redAmount);\r\n    }\r\n\r\n\r\n    function updateLPoolAdd(address _newLPool) public onlyOwner {\r\n        require(_newLPool != address(0));\r\n        require(_newLPool != liqPool);\r\n\r\n        liqPool = _newLPool;\r\n    }\r\n\r\n    function updateRPoolAdd(address _newRPool) public onlyOwner {\r\n        require(_newRPool != address(0));\r\n        require(_newRPool != redPool);\r\n\r\n        redPool = _newRPool;\r\n    }\r\n\r\n    function updateBurnPercent(uint256 _newBurnPercent) public onlyOwner {\r\n        require(_newBurnPercent >= 0 && _newBurnPercent <= 100);\r\n        require(_newBurnPercent != burnPercent);\r\n\r\n        burnPercent = _newBurnPercent;\r\n    }\r\n\r\n    function updateLiqPercent(uint256 _newLiqPercent) public onlyOwner {\r\n        require(_newLiqPercent >= 0 && _newLiqPercent <= 100);\r\n        require(_newLiqPercent != liqPercent);\r\n\r\n        liqPercent = _newLiqPercent;\r\n    }\r\n\r\n    function updateRedPercent(uint256 _newRedPercent) public onlyOwner {\r\n        require(_newRedPercent >= 0 && _newRedPercent <= 100);\r\n        require(_newRedPercent != redPercent);\r\n\r\n        redPercent = _newRedPercent;\r\n    }\r\n    \r\n    function returnAnyToken(address token, uint256 amount, address _to) public onlyOwner{\r\n        require(_to != address(0), \"send to the zero address\");\r\n        ERC20Interface(token).transfer(_to, amount);\r\n    } \r\n\r\n    function _authorizeUpgrade(address) internal override onlyOwner {}\r\n\r\n    function initialize(\r\n        address _to,\r\n        address _lPool,\r\n        address _rPool,\r\n        uint256 _burnPercent,\r\n        uint256 _liqPercent,\r\n        uint256 _redPercent\r\n    ) public initializer {\r\n        name = \"PURSE Token\";\r\n        symbol = \"PR\";\r\n        totalSupply = 64000000000 * (10**18); // 64 billion tokens\r\n        decimals = 18;\r\n        minimumSupply = 20000 * (10**18);\r\n\r\n        require(_lPool != address(0));\r\n        require(_rPool != address(0));\r\n        require(_burnPercent >= 0);\r\n        require(_liqPercent >= 0);\r\n        require(_redPercent >= 0);\r\n\r\n        liqPool = _lPool;\r\n        redPool = _rPool;\r\n        burnPercent = _burnPercent;\r\n        liqPercent = _liqPercent;\r\n        redPercent = _redPercent;\r\n        isOwner[msg.sender] = true;\r\n        owner = msg.sender;\r\n\r\n        balanceOf[_to] = totalSupply;\r\n        emit Mint(address(0), _to, totalSupply);\r\n    }\r\n}\r\n",
  "sourcePath": "C:\\Users\\cheek\\Desktop\\Developer doc\\Visual Studio Code\\PundiX\\PurseRewardTokenFinal\\src\\contracts\\PurseTokenMultiSigUpgradable.sol",
  "compiler": {
    "name": "solc",
    "version": "0.8.3+commit.8d00100c.Emscripten.clang"
  },
  "schemaVersion": "3.2.3",
  "updatedAt": "2021-09-06T02:22:24.225Z",
  "networkType": "ethereum",
  "devdoc": {
    "kind": "dev",
    "methods": {
      "upgradeTo(address)": {
        "details": "Upgrade the implementation of the proxy to `newImplementation`. Calls {_authorizeUpgrade}. Emits an {Upgraded} event."
      },
      "upgradeToAndCall(address,bytes)": {
        "details": "Upgrade the implementation of the proxy to `newImplementation`, and subsequently execute the function call encoded in `data`. Calls {_authorizeUpgrade}. Emits an {Upgraded} event."
      }
    },
    "version": 1
  },
  "userdoc": {
    "kind": "user",
    "methods": {},
    "version": 1
  }
}