{
  "contractName": "PurseTokenUpgradableV2",
  "abi": [
    {
      "anonymous": false,
      "inputs": [
        {
          "indexed": true,
          "internalType": "address",
          "name": "_from",
          "type": "address"
        },
        {
          "indexed": false,
          "internalType": "uint256",
          "name": "_rewardStartTime",
          "type": "uint256"
        },
        {
          "indexed": false,
          "internalType": "uint256",
          "name": "_rewardEndTime",
          "type": "uint256"
        },
        {
          "indexed": false,
          "internalType": "uint256",
          "name": "_monthlyDisPr",
          "type": "uint256"
        },
        {
          "indexed": false,
          "internalType": "uint256",
          "name": "_numOfDays",
          "type": "uint256"
        },
        {
          "indexed": false,
          "internalType": "uint256",
          "name": "_percentage",
          "type": "uint256"
        }
      ],
      "name": "ActivateClaimMonthly",
      "type": "event"
    },
    {
      "anonymous": false,
      "inputs": [
        {
          "indexed": true,
          "internalType": "address",
          "name": "_owner",
          "type": "address"
        },
        {
          "indexed": true,
          "internalType": "address",
          "name": "_admin",
          "type": "address"
        }
      ],
      "name": "AddAdmin",
      "type": "event"
    },
    {
      "anonymous": false,
      "inputs": [
        {
          "indexed": true,
          "internalType": "address",
          "name": "_admin",
          "type": "address"
        },
        {
          "indexed": true,
          "internalType": "address",
          "name": "_whitelistedFrom",
          "type": "address"
        }
      ],
      "name": "AddWhitelistedFrom",
      "type": "event"
    },
    {
      "anonymous": false,
      "inputs": [
        {
          "indexed": true,
          "internalType": "address",
          "name": "_admin",
          "type": "address"
        },
        {
          "indexed": true,
          "internalType": "address",
          "name": "_whitelistedTo",
          "type": "address"
        }
      ],
      "name": "AddWhitelistedTo",
      "type": "event"
    },
    {
      "anonymous": false,
      "inputs": [
        {
          "indexed": false,
          "internalType": "address",
          "name": "previousAdmin",
          "type": "address"
        },
        {
          "indexed": false,
          "internalType": "address",
          "name": "newAdmin",
          "type": "address"
        }
      ],
      "name": "AdminChanged",
      "type": "event"
    },
    {
      "anonymous": false,
      "inputs": [
        {
          "indexed": true,
          "internalType": "address",
          "name": "_owner",
          "type": "address"
        },
        {
          "indexed": true,
          "internalType": "address",
          "name": "_spender",
          "type": "address"
        },
        {
          "indexed": false,
          "internalType": "uint256",
          "name": "_value",
          "type": "uint256"
        }
      ],
      "name": "Approval",
      "type": "event"
    },
    {
      "anonymous": false,
      "inputs": [
        {
          "indexed": true,
          "internalType": "address",
          "name": "beacon",
          "type": "address"
        }
      ],
      "name": "BeaconUpgraded",
      "type": "event"
    },
    {
      "anonymous": false,
      "inputs": [
        {
          "indexed": true,
          "internalType": "address",
          "name": "_from",
          "type": "address"
        },
        {
          "indexed": false,
          "internalType": "uint256",
          "name": "_value",
          "type": "uint256"
        }
      ],
      "name": "Burn",
      "type": "event"
    },
    {
      "anonymous": false,
      "inputs": [
        {
          "indexed": true,
          "internalType": "address",
          "name": "_from",
          "type": "address"
        },
        {
          "indexed": false,
          "internalType": "uint256",
          "name": "_value",
          "type": "uint256"
        }
      ],
      "name": "ClaimDistributionPurse",
      "type": "event"
    },
    {
      "anonymous": false,
      "inputs": [
        {
          "indexed": true,
          "internalType": "address",
          "name": "_from",
          "type": "address"
        },
        {
          "indexed": true,
          "internalType": "address",
          "name": "_to",
          "type": "address"
        },
        {
          "indexed": false,
          "internalType": "uint256",
          "name": "_value",
          "type": "uint256"
        }
      ],
      "name": "Mint",
      "type": "event"
    },
    {
      "anonymous": false,
      "inputs": [
        {
          "indexed": true,
          "internalType": "address",
          "name": "previousOwner",
          "type": "address"
        },
        {
          "indexed": true,
          "internalType": "address",
          "name": "newOwner",
          "type": "address"
        }
      ],
      "name": "OwnershipTransferred",
      "type": "event"
    },
    {
      "anonymous": false,
      "inputs": [
        {
          "indexed": false,
          "internalType": "address",
          "name": "account",
          "type": "address"
        }
      ],
      "name": "Paused",
      "type": "event"
    },
    {
      "anonymous": false,
      "inputs": [
        {
          "indexed": true,
          "internalType": "address",
          "name": "_owner",
          "type": "address"
        },
        {
          "indexed": true,
          "internalType": "address",
          "name": "_admin",
          "type": "address"
        }
      ],
      "name": "RemoveAdmin",
      "type": "event"
    },
    {
      "anonymous": false,
      "inputs": [
        {
          "indexed": true,
          "internalType": "address",
          "name": "_admin",
          "type": "address"
        },
        {
          "indexed": true,
          "internalType": "address",
          "name": "_whitelistedFrom",
          "type": "address"
        }
      ],
      "name": "RemoveWhitelistedFrom",
      "type": "event"
    },
    {
      "anonymous": false,
      "inputs": [
        {
          "indexed": true,
          "internalType": "address",
          "name": "_admin",
          "type": "address"
        },
        {
          "indexed": true,
          "internalType": "address",
          "name": "_whitelistedFrom",
          "type": "address"
        }
      ],
      "name": "RemoveWhitelistedTo",
      "type": "event"
    },
    {
      "anonymous": false,
      "inputs": [
        {
          "indexed": true,
          "internalType": "address",
          "name": "_from",
          "type": "address"
        },
        {
          "indexed": true,
          "internalType": "address",
          "name": "_to",
          "type": "address"
        },
        {
          "indexed": false,
          "internalType": "uint256",
          "name": "_value",
          "type": "uint256"
        }
      ],
      "name": "Transfer",
      "type": "event"
    },
    {
      "anonymous": false,
      "inputs": [
        {
          "indexed": true,
          "internalType": "address",
          "name": "_from",
          "type": "address"
        },
        {
          "indexed": true,
          "internalType": "address",
          "name": "_to",
          "type": "address"
        },
        {
          "indexed": false,
          "internalType": "uint256",
          "name": "_value",
          "type": "uint256"
        }
      ],
      "name": "TransferERCToken",
      "type": "event"
    },
    {
      "anonymous": false,
      "inputs": [
        {
          "indexed": false,
          "internalType": "address",
          "name": "account",
          "type": "address"
        }
      ],
      "name": "Unpaused",
      "type": "event"
    },
    {
      "anonymous": false,
      "inputs": [
        {
          "indexed": true,
          "internalType": "address",
          "name": "_from",
          "type": "address"
        },
        {
          "indexed": false,
          "internalType": "uint256",
          "name": "_newDisPercent",
          "type": "uint256"
        },
        {
          "indexed": false,
          "internalType": "uint256",
          "name": "_newLiqPercent",
          "type": "uint256"
        },
        {
          "indexed": false,
          "internalType": "uint256",
          "name": "_newBurnPercent",
          "type": "uint256"
        }
      ],
      "name": "UpdateBDLPercent",
      "type": "event"
    },
    {
      "anonymous": false,
      "inputs": [
        {
          "indexed": true,
          "internalType": "address",
          "name": "_from",
          "type": "address"
        },
        {
          "indexed": true,
          "internalType": "address",
          "name": "_newDisPool",
          "type": "address"
        }
      ],
      "name": "UpdateDisPool",
      "type": "event"
    },
    {
      "anonymous": false,
      "inputs": [
        {
          "indexed": true,
          "internalType": "address",
          "name": "_from",
          "type": "address"
        },
        {
          "indexed": true,
          "internalType": "address",
          "name": "_newLiqPool",
          "type": "address"
        }
      ],
      "name": "UpdateLiqPool",
      "type": "event"
    },
    {
      "anonymous": false,
      "inputs": [
        {
          "indexed": true,
          "internalType": "address",
          "name": "implementation",
          "type": "address"
        }
      ],
      "name": "Upgraded",
      "type": "event"
    },
    {
      "inputs": [],
      "name": "_averageInterval",
      "outputs": [
        {
          "internalType": "uint256",
          "name": "",
          "type": "uint256"
        }
      ],
      "stateMutability": "view",
      "type": "function",
      "constant": true
    },
    {
      "inputs": [],
      "name": "_getRewardEndTime",
      "outputs": [
        {
          "internalType": "uint256",
          "name": "",
          "type": "uint256"
        }
      ],
      "stateMutability": "view",
      "type": "function",
      "constant": true
    },
    {
      "inputs": [],
      "name": "_getRewardStartTime",
      "outputs": [
        {
          "internalType": "uint256",
          "name": "",
          "type": "uint256"
        }
      ],
      "stateMutability": "view",
      "type": "function",
      "constant": true
    },
    {
      "inputs": [],
      "name": "_lastRewardStartTime",
      "outputs": [
        {
          "internalType": "uint256",
          "name": "",
          "type": "uint256"
        }
      ],
      "stateMutability": "view",
      "type": "function",
      "constant": true
    },
    {
      "inputs": [],
      "name": "_monthlyDistributePr",
      "outputs": [
        {
          "internalType": "uint256",
          "name": "",
          "type": "uint256"
        }
      ],
      "stateMutability": "view",
      "type": "function",
      "constant": true
    },
    {
      "inputs": [],
      "name": "_numOfDaysPerMth",
      "outputs": [
        {
          "internalType": "uint256",
          "name": "",
          "type": "uint256"
        }
      ],
      "stateMutability": "view",
      "type": "function",
      "constant": true
    },
    {
      "inputs": [],
      "name": "_percentageDistribute",
      "outputs": [
        {
          "internalType": "uint256",
          "name": "",
          "type": "uint256"
        }
      ],
      "stateMutability": "view",
      "type": "function",
      "constant": true
    },
    {
      "inputs": [],
      "name": "_totalSupply",
      "outputs": [
        {
          "internalType": "uint256",
          "name": "",
          "type": "uint256"
        }
      ],
      "stateMutability": "view",
      "type": "function",
      "constant": true
    },
    {
      "inputs": [
        {
          "internalType": "address",
          "name": "",
          "type": "address"
        }
      ],
      "name": "accAmount",
      "outputs": [
        {
          "internalType": "uint256",
          "name": "amount",
          "type": "uint256"
        },
        {
          "internalType": "uint256",
          "name": "accReward",
          "type": "uint256"
        },
        {
          "internalType": "uint256",
          "name": "lastUpdateTime",
          "type": "uint256"
        }
      ],
      "stateMutability": "view",
      "type": "function",
      "constant": true
    },
    {
      "inputs": [
        {
          "internalType": "uint256",
          "name": "",
          "type": "uint256"
        }
      ],
      "name": "admins",
      "outputs": [
        {
          "internalType": "address",
          "name": "",
          "type": "address"
        }
      ],
      "stateMutability": "view",
      "type": "function",
      "constant": true
    },
    {
      "inputs": [
        {
          "internalType": "address",
          "name": "",
          "type": "address"
        },
        {
          "internalType": "address",
          "name": "",
          "type": "address"
        }
      ],
      "name": "allowance",
      "outputs": [
        {
          "internalType": "uint256",
          "name": "",
          "type": "uint256"
        }
      ],
      "stateMutability": "view",
      "type": "function",
      "constant": true
    },
    {
      "inputs": [
        {
          "internalType": "address",
          "name": "",
          "type": "address"
        }
      ],
      "name": "balanceOf",
      "outputs": [
        {
          "internalType": "uint256",
          "name": "",
          "type": "uint256"
        }
      ],
      "stateMutability": "view",
      "type": "function",
      "constant": true
    },
    {
      "inputs": [],
      "name": "burnPercent",
      "outputs": [
        {
          "internalType": "uint256",
          "name": "",
          "type": "uint256"
        }
      ],
      "stateMutability": "view",
      "type": "function",
      "constant": true
    },
    {
      "inputs": [],
      "name": "decimals",
      "outputs": [
        {
          "internalType": "uint8",
          "name": "",
          "type": "uint8"
        }
      ],
      "stateMutability": "view",
      "type": "function",
      "constant": true
    },
    {
      "inputs": [],
      "name": "disPercent",
      "outputs": [
        {
          "internalType": "uint256",
          "name": "",
          "type": "uint256"
        }
      ],
      "stateMutability": "view",
      "type": "function",
      "constant": true
    },
    {
      "inputs": [],
      "name": "disPool",
      "outputs": [
        {
          "internalType": "address",
          "name": "",
          "type": "address"
        }
      ],
      "stateMutability": "view",
      "type": "function",
      "constant": true
    },
    {
      "inputs": [
        {
          "internalType": "address",
          "name": "",
          "type": "address"
        }
      ],
      "name": "isAdmin",
      "outputs": [
        {
          "internalType": "bool",
          "name": "",
          "type": "bool"
        }
      ],
      "stateMutability": "view",
      "type": "function",
      "constant": true
    },
    {
      "inputs": [
        {
          "internalType": "address",
          "name": "",
          "type": "address"
        }
      ],
      "name": "isWhitelistedFrom",
      "outputs": [
        {
          "internalType": "bool",
          "name": "",
          "type": "bool"
        }
      ],
      "stateMutability": "view",
      "type": "function",
      "constant": true
    },
    {
      "inputs": [
        {
          "internalType": "address",
          "name": "",
          "type": "address"
        }
      ],
      "name": "isWhitelistedTo",
      "outputs": [
        {
          "internalType": "bool",
          "name": "",
          "type": "bool"
        }
      ],
      "stateMutability": "view",
      "type": "function",
      "constant": true
    },
    {
      "inputs": [],
      "name": "liqPercent",
      "outputs": [
        {
          "internalType": "uint256",
          "name": "",
          "type": "uint256"
        }
      ],
      "stateMutability": "view",
      "type": "function",
      "constant": true
    },
    {
      "inputs": [],
      "name": "liqPool",
      "outputs": [
        {
          "internalType": "address",
          "name": "",
          "type": "address"
        }
      ],
      "stateMutability": "view",
      "type": "function",
      "constant": true
    },
    {
      "inputs": [],
      "name": "name",
      "outputs": [
        {
          "internalType": "string",
          "name": "",
          "type": "string"
        }
      ],
      "stateMutability": "view",
      "type": "function",
      "constant": true
    },
    {
      "inputs": [],
      "name": "owner",
      "outputs": [
        {
          "internalType": "address",
          "name": "",
          "type": "address"
        }
      ],
      "stateMutability": "view",
      "type": "function",
      "constant": true
    },
    {
      "inputs": [],
      "name": "paused",
      "outputs": [
        {
          "internalType": "bool",
          "name": "",
          "type": "bool"
        }
      ],
      "stateMutability": "view",
      "type": "function",
      "constant": true
    },
    {
      "inputs": [],
      "name": "renounceOwnership",
      "outputs": [],
      "stateMutability": "nonpayable",
      "type": "function"
    },
    {
      "inputs": [],
      "name": "symbol",
      "outputs": [
        {
          "internalType": "string",
          "name": "",
          "type": "string"
        }
      ],
      "stateMutability": "view",
      "type": "function",
      "constant": true
    },
    {
      "inputs": [],
      "name": "totalSupply",
      "outputs": [
        {
          "internalType": "uint256",
          "name": "",
          "type": "uint256"
        }
      ],
      "stateMutability": "view",
      "type": "function",
      "constant": true
    },
    {
      "inputs": [
        {
          "internalType": "address",
          "name": "newOwner",
          "type": "address"
        }
      ],
      "name": "transferOwnership",
      "outputs": [],
      "stateMutability": "nonpayable",
      "type": "function"
    },
    {
      "inputs": [
        {
          "internalType": "address",
          "name": "newImplementation",
          "type": "address"
        }
      ],
      "name": "upgradeTo",
      "outputs": [],
      "stateMutability": "nonpayable",
      "type": "function"
    },
    {
      "inputs": [
        {
          "internalType": "address",
          "name": "newImplementation",
          "type": "address"
        },
        {
          "internalType": "bytes",
          "name": "data",
          "type": "bytes"
        }
      ],
      "name": "upgradeToAndCall",
      "outputs": [],
      "stateMutability": "payable",
      "type": "function",
      "payable": true
    },
    {
      "inputs": [
        {
          "internalType": "address",
          "name": "_to",
          "type": "address"
        },
        {
          "internalType": "uint256",
          "name": "_value",
          "type": "uint256"
        }
      ],
      "name": "transfer",
      "outputs": [
        {
          "internalType": "bool",
          "name": "success",
          "type": "bool"
        }
      ],
      "stateMutability": "nonpayable",
      "type": "function"
    },
    {
      "inputs": [
        {
          "internalType": "address",
          "name": "_spender",
          "type": "address"
        },
        {
          "internalType": "uint256",
          "name": "_value",
          "type": "uint256"
        }
      ],
      "name": "approve",
      "outputs": [
        {
          "internalType": "bool",
          "name": "success",
          "type": "bool"
        }
      ],
      "stateMutability": "nonpayable",
      "type": "function"
    },
    {
      "inputs": [
        {
          "internalType": "address",
          "name": "_from",
          "type": "address"
        },
        {
          "internalType": "address",
          "name": "_to",
          "type": "address"
        },
        {
          "internalType": "uint256",
          "name": "_value",
          "type": "uint256"
        }
      ],
      "name": "transferFrom",
      "outputs": [
        {
          "internalType": "bool",
          "name": "success",
          "type": "bool"
        }
      ],
      "stateMutability": "nonpayable",
      "type": "function"
    },
    {
      "inputs": [
        {
          "internalType": "address",
          "name": "_account",
          "type": "address"
        },
        {
          "internalType": "uint256",
          "name": "_amount",
          "type": "uint256"
        }
      ],
      "name": "mint",
      "outputs": [],
      "stateMutability": "nonpayable",
      "type": "function"
    },
    {
      "inputs": [
        {
          "internalType": "uint256",
          "name": "_amount",
          "type": "uint256"
        }
      ],
      "name": "burn",
      "outputs": [],
      "stateMutability": "nonpayable",
      "type": "function"
    },
    {
      "inputs": [],
      "name": "claimDistributionPurse",
      "outputs": [
        {
          "internalType": "bool",
          "name": "success",
          "type": "bool"
        }
      ],
      "stateMutability": "nonpayable",
      "type": "function"
    },
    {
      "inputs": [
        {
          "internalType": "uint256",
          "name": "_rewardStartTime",
          "type": "uint256"
        },
        {
          "internalType": "uint256",
          "name": "_rewardEndTime",
          "type": "uint256"
        },
        {
          "internalType": "uint256",
          "name": "_monthlyDisPr",
          "type": "uint256"
        },
        {
          "internalType": "uint256",
          "name": "_numOfDays",
          "type": "uint256"
        },
        {
          "internalType": "uint256",
          "name": "_percentage",
          "type": "uint256"
        }
      ],
      "name": "activateClaimMonthly",
      "outputs": [],
      "stateMutability": "nonpayable",
      "type": "function"
    },
    {
      "inputs": [
        {
          "internalType": "address",
          "name": "_newLPool",
          "type": "address"
        }
      ],
      "name": "updateLPoolAdd",
      "outputs": [],
      "stateMutability": "nonpayable",
      "type": "function"
    },
    {
      "inputs": [
        {
          "internalType": "address",
          "name": "_newDPool",
          "type": "address"
        }
      ],
      "name": "updateDPoolAdd",
      "outputs": [],
      "stateMutability": "nonpayable",
      "type": "function"
    },
    {
      "inputs": [
        {
          "internalType": "uint256",
          "name": "_newDisPercent",
          "type": "uint256"
        },
        {
          "internalType": "uint256",
          "name": "_newLiqPercent",
          "type": "uint256"
        },
        {
          "internalType": "uint256",
          "name": "_newBurnPercent",
          "type": "uint256"
        }
      ],
      "name": "updatePercent",
      "outputs": [],
      "stateMutability": "nonpayable",
      "type": "function"
    },
    {
      "inputs": [
        {
          "internalType": "address",
          "name": "newAdmin",
          "type": "address"
        }
      ],
      "name": "addAdmin",
      "outputs": [],
      "stateMutability": "nonpayable",
      "type": "function"
    },
    {
      "inputs": [
        {
          "internalType": "uint256",
          "name": "index",
          "type": "uint256"
        }
      ],
      "name": "removeAdmin",
      "outputs": [
        {
          "internalType": "address[]",
          "name": "",
          "type": "address[]"
        }
      ],
      "stateMutability": "nonpayable",
      "type": "function"
    },
    {
      "inputs": [
        {
          "internalType": "address",
          "name": "token",
          "type": "address"
        },
        {
          "internalType": "uint256",
          "name": "amount",
          "type": "uint256"
        },
        {
          "internalType": "address",
          "name": "_to",
          "type": "address"
        }
      ],
      "name": "transferERCToken",
      "outputs": [],
      "stateMutability": "nonpayable",
      "type": "function"
    },
    {
      "inputs": [],
      "name": "pause",
      "outputs": [],
      "stateMutability": "nonpayable",
      "type": "function"
    },
    {
      "inputs": [],
      "name": "unpause",
      "outputs": [],
      "stateMutability": "nonpayable",
      "type": "function"
    },
    {
      "inputs": [
        {
          "internalType": "address",
          "name": "newWhitelist",
          "type": "address"
        }
      ],
      "name": "setWhitelistedTo",
      "outputs": [],
      "stateMutability": "nonpayable",
      "type": "function"
    },
    {
      "inputs": [
        {
          "internalType": "address",
          "name": "newWhitelist",
          "type": "address"
        }
      ],
      "name": "removeWhitelistedTo",
      "outputs": [],
      "stateMutability": "nonpayable",
      "type": "function"
    },
    {
      "inputs": [
        {
          "internalType": "address",
          "name": "newWhitelist",
          "type": "address"
        }
      ],
      "name": "setWhitelistedFrom",
      "outputs": [],
      "stateMutability": "nonpayable",
      "type": "function"
    },
    {
      "inputs": [
        {
          "internalType": "address",
          "name": "newWhitelist",
          "type": "address"
        }
      ],
      "name": "removeWhitelistedFrom",
      "outputs": [],
      "stateMutability": "nonpayable",
      "type": "function"
    },
    {
      "inputs": [
        {
          "internalType": "address",
          "name": "_to",
          "type": "address"
        },
        {
          "internalType": "address",
          "name": "_lPool",
          "type": "address"
        },
        {
          "internalType": "uint256",
          "name": "_burnPercent",
          "type": "uint256"
        },
        {
          "internalType": "uint256",
          "name": "_liqPercent",
          "type": "uint256"
        },
        {
          "internalType": "uint256",
          "name": "_disPercent",
          "type": "uint256"
        }
      ],
      "name": "initialize",
      "outputs": [],
      "stateMutability": "nonpayable",
      "type": "function"
    }
  ],
  "bytecode": "0x608060405234801561001057600080fd5b50613c4a806100206000396000f3fe6080604052600436106102c95760003560e01c80635c975abb11610175578063b7c74bd3116100dc578063d13f90b411610095578063dd62ed3e1161006f578063dd62ed3e146108a6578063e2657da1146108df578063f2fde38b146108ff578063f75672441461091f57600080fd5b8063d13f90b41461084f578063d55292041461086f578063d5b8ddf81461088657600080fd5b8063b7c74bd314610758578063bab38440146107b0578063bc8d571d146107d0578063c43c082f146107e7578063c6ef924614610807578063ca04d2d81461081e57600080fd5b80638456cb591161012e5780638456cb59146106ac5780638da5cb5b146106c157806395d89b41146106df57806395e96ff1146106f4578063a9059cbb1461070b578063ad7bbc291461072b57600080fd5b80635c975abb146105f9578063704802751461061157806370a0823114610631578063715018a61461065f578063740b91f4146106745780637888f7b21461069557600080fd5b8063347d34c61161023457806340c10f19116101ed5780634d28b4ba116101c75780634d28b4ba1461057e5780634f1ef2861461059e5780635422e495146105b15780635b014029146105c857600080fd5b806340c10f191461051e57806342966c681461053e578063434f92371461055e57600080fd5b8063347d34c61461047957806335e8b82e146104905780633659cfe6146104b25780633838d4e3146104d25780633eaaf86b146104f25780633f4ba83a1461050957600080fd5b806318160ddd1161028657806318160ddd146103ae57806320b1e78a146103c457806323b872dd146103db57806324d7806c146103fb57806327ba6e111461042c578063313ce5671461044d57600080fd5b806303807ee5146102ce57806306fdde03146102f8578063095ea7b31461031a5780630f4307e21461034a57806311a6c16c1461036157806314bfd6d014610376575b600080fd5b3480156102da57600080fd5b506102e56101035481565b6040519081526020015b60405180910390f35b34801561030457600080fd5b5061030d61093f565b6040516102ef9190613954565b34801561032657600080fd5b5061033a6103353660046137e3565b6109cd565b60405190151581526020016102ef565b34801561035657600080fd5b506102e561010a5481565b34801561036d57600080fd5b5061033a610a67565b34801561038257600080fd5b5061039661039136600461386b565b610c49565b6040516001600160a01b0390911681526020016102ef565b3480156103ba57600080fd5b506102e560fd5481565b3480156103d057600080fd5b506102e561010b5481565b3480156103e757600080fd5b5061033a6103f6366004613698565b610c74565b34801561040757600080fd5b5061033a61041636600461364a565b6101106020526000908152604090205460ff1681565b34801561043857600080fd5b5061010254610396906001600160a01b031681565b34801561045957600080fd5b5060fe546104679060ff1681565b60405160ff90911681526020016102ef565b34801561048557600080fd5b506102e56101065481565b34801561049c57600080fd5b506104b06104ab36600461364a565b610f60565b005b3480156104be57600080fd5b506104b06104cd36600461364a565b611036565b3480156104de57600080fd5b506104b06104ed36600461364a565b61105d565b3480156104fe57600080fd5b506102e561010d5481565b34801561051557600080fd5b506104b0611133565b34801561052a57600080fd5b506104b06105393660046137e3565b6111b0565b34801561054a57600080fd5b506104b061055936600461386b565b6112da565b34801561056a57600080fd5b506104b06105793660046138b0565b6113c9565b34801561058a57600080fd5b506104b061059936600461364a565b611626565b6104b06105ac366004613721565b6116fc565b3480156105bd57600080fd5b506102e56101045481565b3480156105d457600080fd5b5061033a6105e336600461364a565b6101116020526000908152604090205460ff1681565b34801561060557600080fd5b5060975460ff1661033a565b34801561061d57600080fd5b506104b061062c36600461364a565b611715565b34801561063d57600080fd5b506102e561064c36600461364a565b61010e6020526000908152604090205481565b34801561066b57600080fd5b506104b0611823565b34801561068057600080fd5b5061010154610396906001600160a01b031681565b3480156106a157600080fd5b506102e561010c5481565b3480156106b857600080fd5b506104b0611857565b3480156106cd57600080fd5b5060c9546001600160a01b0316610396565b3480156106eb57600080fd5b5061030d6118ac565b34801561070057600080fd5b506102e56101095481565b34801561071757600080fd5b5061033a6107263660046137e3565b6118b9565b34801561073757600080fd5b5061074b61074636600461386b565b611a8a565b6040516102ef9190613907565b34801561076457600080fd5b5061079561077336600461364a565b6101136020526000908152604090208054600182015460029092015490919083565b604080519384526020840192909252908201526060016102ef565b3480156107bc57600080fd5b506104b06107cb36600461364a565b611d16565b3480156107dc57600080fd5b506102e56101085481565b3480156107f357600080fd5b506104b0610802366004613884565b611dec565b34801561081357600080fd5b506102e56101055481565b34801561082a57600080fd5b5061033a61083936600461364a565b6101126020526000908152604090205460ff1681565b34801561085b57600080fd5b506104b061086a3660046136d4565b611f3b565b34801561087b57600080fd5b506102e56101075481565b34801561089257600080fd5b506104b06108a136600461380d565b612135565b3480156108b257600080fd5b506102e56108c1366004613665565b61010f60209081526000928352604080842090915290825290205481565b3480156108eb57600080fd5b506104b06108fa36600461364a565b612339565b34801561090b57600080fd5b506104b061091a36600461364a565b61240f565b34801561092b57600080fd5b506104b061093a36600461364a565b6124a7565b60fb805461094c90613b1f565b80601f016020809104026020016040519081016040528092919081815260200182805461097890613b1f565b80156109c55780601f1061099a576101008083540402835291602001916109c5565b820191906000526020600020905b8154815290600101906020018083116109a857829003601f168201915b505050505081565b60006109db60975460ff1690565b15610a015760405162461bcd60e51b81526004016109f8906139b3565b60405180910390fd5b33600081815261010f602090815260408083206001600160a01b03881680855290835292819020869055518581529192917f8c5be1e5ebec7d5bd14f71427d1e84f3dd0314c0f7b2291e5b200ac8c7c3b925910160405180910390a35060015b92915050565b6000610a7560975460ff1690565b15610a925760405162461bcd60e51b81526004016109f8906139b3565b610108544211610ad85760405162461bcd60e51b815260206004820152601160248201527010db185a5b481b9bdd081cdd185c9d1959607a1b60448201526064016109f8565b610107544210610b1e5760405162461bcd60e51b815260206004820152601160248201527021b630b4b6903832b934b7b21037bb32b960791b60448201526064016109f8565b610b273361257d565b3360009081526101136020526040902060010154610b7a5760405162461bcd60e51b815260206004820152601060248201526f0557365722072657761726420697320360841b60448201526064016109f8565b336000818152610113602052604080822060010180549290555163a9059cbb60e01b815260048101929092526024820181905290309063a9059cbb90604401602060405180830381600087803b158015610bd357600080fd5b505af1158015610be7573d6000803e3d6000fd5b505050506040513d601f19601f82011682018060405250810190610c0b9190613849565b5060405181815233907f56adf859dcf2b45f9cd18feafd37e5b36e503398305135482aa70f7dc9ba8fcf9060200160405180910390a2600191505090565b6101008181548110610c5a57600080fd5b6000918252602090912001546001600160a01b0316905081565b6000610c8260975460ff1690565b15610c9f5760405162461bcd60e51b81526004016109f8906139b3565b6001600160a01b038416600090815261010e6020526040902054821115610cd85760405162461bcd60e51b81526004016109f890613987565b6001600160a01b038416600090815261010f60209081526040808320338452909152902054821115610d435760405162461bcd60e51b81526020600482015260146024820152734e6f7420656e6f75676820616c6c6f77616e636560601b60448201526064016109f8565b6001600160a01b0383166000908152610111602052604090205460ff1680610d7b5750336000908152610112602052604090205460ff165b15610e65576001600160a01b038416600090815261010f6020908152604080832033845290915281208054849290610db4908490613adc565b90915550610dc490508484612af7565b6001600160a01b038416600090815261010e602052604081208054849290610ded908490613adc565b90915550506001600160a01b038316600090815261010e602052604081208054849290610e1b908490613a83565b92505081905550826001600160a01b0316846001600160a01b0316600080516020613bf583398151915284604051610e5591815260200190565b60405180910390a3506001610f59565b6001600160a01b038416600090815261010f6020908152604080832033845290915281208054849290610e99908490613adc565b90915550610ea990508484612af7565b6000610eb58386612b09565b6001600160a01b038616600090815261010e6020526040812080549293508392909190610ee3908490613adc565b90915550506001600160a01b038416600090815261010e602052604081208054839290610f11908490613a83565b92505081905550836001600160a01b0316856001600160a01b0316600080516020613bf583398151915283604051610f4b91815260200190565b60405180910390a360019150505b9392505050565b60c9546001600160a01b03163314610f8a5760405162461bcd60e51b81526004016109f890613a4e565b610101546001600160a01b0382811691161415610fe95760405162461bcd60e51b815260206004820152601a60248201527f53616d6520776974682070726576696f7573206164647265737300000000000060448201526064016109f8565b61010180546001600160a01b0319166001600160a01b03831690811790915560405133907f7c9290d19e18a78dc75a691655194b76ea701e226d7c3fe063b462b137565f2390600090a350565b61103f81612b56565b61105a81604051806020016040528060008152506000612b80565b50565b60c9546001600160a01b031633146110875760405162461bcd60e51b81526004016109f890613a4e565b6001600160a01b0381166000908152610112602052604090205460ff16156110e55760405162461bcd60e51b81526020600482015260116024820152705768696c6973746564204164647265737360781b60448201526064016109f8565b6001600160a01b03811660008181526101126020526040808220805460ff191660011790555133917f6ff72cae3d7680a7241a12a80a1090a417c1a74e16a0628541b2db23c726426c91a350565b60975460ff1661117c5760405162461bcd60e51b815260206004820152601460248201527314185d5cd8589b194e881b9bdd081c185d5cd95960621b60448201526064016109f8565b60c9546001600160a01b031633146111a65760405162461bcd60e51b81526004016109f890613a4e565b6111ae612d08565b565b60975460ff16156111d35760405162461bcd60e51b81526004016109f8906139b3565b336000908152610110602052604090205460ff1661121f5760405162461bcd60e51b81526020600482015260096024820152682737ba1020b236b4b760b91b60448201526064016109f8565b6001600160a01b0382166112455760405162461bcd60e51b81526004016109f8906139dd565b61124e8261257d565b6001600160a01b038216600090815261010e602052604081208054839290611277908490613a83565b925050819055508060fd60008282546112909190613a83565b90915550506040518181526001600160a01b038316906000907fab8530f87dc9b59234c4623bf917212bb2536d647574c8e7e5da92c2ede0c9f89060200160405180910390a35050565b60975460ff16156112fd5760405162461bcd60e51b81526004016109f8906139b3565b8061131a5760405162461bcd60e51b81526004016109f8906139dd565b33600090815261010e602052604090205481111561134a5760405162461bcd60e51b81526004016109f890613987565b6113533361257d565b33600090815261010e602052604081208054839290611373908490613adc565b925050819055508060fd600082825461138c9190613adc565b909155505060405181815233907fcc16f5dbb4873280815c1ee09dbd06736cffcc184412cf7a71a0fdb75d397ca59060200160405180910390a250565b336000908152610110602052604090205460ff166114155760405162461bcd60e51b81526020600482015260096024820152682737ba1020b236b4b760b91b60448201526064016109f8565b42851161145d5760405162461bcd60e51b81526020600482015260166024820152754c657373207468616e2063757272656e742074696d6560501b60448201526064016109f8565b8484116114a35760405162461bcd60e51b81526020600482015260146024820152734c657373207468616e2073746172742074696d6560601b60448201526064016109f8565b600082116114e15760405162461bcd60e51b815260206004820152600b60248201526a04c657373207468616e20360ac1b60448201526064016109f8565b6000811180156114f2575060648111155b61153e5760405162461bcd60e51b815260206004820152601c60248201527f4c657373207468616e2030206f72204d6f7265207468616e203130300000000060448201526064016109f8565b30600090815261010e60205260409020548311156115975760405162461bcd60e51b81526020600482015260166024820152754d6f7265207468616e20706f6f6c2062616c616e636560501b60448201526064016109f8565b60fd5461010d5561010854156115b0576101085461010c555b61010982905561010885905561010784905561010b81905561010a8390556040805186815260208101869052908101849052606081018390526080810182905233907f73b16665c375c69a3d3e8373747037446413b9e76cb3a1ca7b85be572017b5169060a00160405180910390a25050505050565b60c9546001600160a01b031633146116505760405162461bcd60e51b81526004016109f890613a4e565b6001600160a01b0381166000908152610112602052604090205460ff166116b15760405162461bcd60e51b81526020600482015260156024820152744e6f6e207768696c6973746564204164647265737360581b60448201526064016109f8565b6001600160a01b03811660008181526101126020526040808220805460ff191690555133917f6ff72cae3d7680a7241a12a80a1090a417c1a74e16a0628541b2db23c726426c91a350565b61170582612b56565b61171182826001612b80565b5050565b60c9546001600160a01b0316331461173f5760405162461bcd60e51b81526004016109f890613a4e565b6001600160a01b0381166000908152610110602052604090205460ff16156117945760405162461bcd60e51b815260206004820152600860248201526724b99030b236b4b760c11b60448201526064016109f8565b6001600160a01b03811660008181526101106020526040808220805460ff191660019081179091556101008054918201815583527f45e010b9ae401e2eb71529478da8bd513a9bdc2d095a111e324f5b95c09ed87b0180546001600160a01b031916841790555133917f99ad91c72e4fcc0a37d0481b982aec5c0c78491d30d39e65338bec15fa9cc4b791a350565b60c9546001600160a01b0316331461184d5760405162461bcd60e51b81526004016109f890613a4e565b6111ae6000612d9b565b60975460ff161561187a5760405162461bcd60e51b81526004016109f8906139b3565b60c9546001600160a01b031633146118a45760405162461bcd60e51b81526004016109f890613a4e565b6111ae612ded565b60fc805461094c90613b1f565b60006118c760975460ff1690565b156118e45760405162461bcd60e51b81526004016109f8906139b3565b33600090815261010e60205260409020548211156119145760405162461bcd60e51b81526004016109f890613987565b6001600160a01b0383166000908152610111602052604090205460ff168061194c5750336000908152610112602052604090205460ff165b156119e45761195b3384612af7565b33600090815261010e60205260408120805484929061197b908490613adc565b90915550506001600160a01b038316600090815261010e6020526040812080548492906119a9908490613a83565b90915550506040518281526001600160a01b038416903390600080516020613bf58339815191529060200160405180910390a3506001610a61565b6119ee3384612af7565b60006119fa8333612b09565b33600090815261010e6020526040812080549293508392909190611a1f908490613adc565b90915550506001600160a01b038416600090815261010e602052604081208054839290611a4d908490613a83565b90915550506040518181526001600160a01b038516903390600080516020613bf58339815191529060200160405180910390a36001915050610a61565b60c9546060906001600160a01b03163314611ab75760405162461bcd60e51b81526004016109f890613a4e565b60006101008381548110611acd57611acd613ba1565b600091825260209091200154610100546001600160a01b0390911691508310611b385760405162461bcd60e51b815260206004820152601860248201527f496e707574206f7665722061646d696e73206c656e677468000000000000000060448201526064016109f8565b6001600160a01b0381166000908152610110602052604090205460ff16611b905760405162461bcd60e51b815260206004820152600c60248201526b2737ba1030b71030b236b4b760a11b60448201526064016109f8565b825b61010054611ba290600190613adc565b811015611c2f57610100611bb7826001613a83565b81548110611bc757611bc7613ba1565b60009182526020909120015461010080546001600160a01b039092169183908110611bf457611bf4613ba1565b600091825260209091200180546001600160a01b0319166001600160a01b039290921691909117905580611c2781613b5a565b915050611b92565b50610100805480611c4257611c42613b8b565b60008281526020808220830160001990810180546001600160a01b03191690559092019092556001600160a01b0383168083526101109091526040808320805460ff1916905551909133917f148da362aaafc6bbf0e0b77d62428bcd324bcf9785839aa07881d6c78d295df19190a3610100805480602002602001604051908101604052809291908181526020018280548015611d0857602002820191906000526020600020905b81546001600160a01b03168152600190910190602001808311611cea575b50505050509150505b919050565b60c9546001600160a01b03163314611d405760405162461bcd60e51b81526004016109f890613a4e565b610102546001600160a01b0382811691161415611d9f5760405162461bcd60e51b815260206004820152601a60248201527f53616d6520776974682070726576696f7573206164647265737300000000000060448201526064016109f8565b61010280546001600160a01b0319166001600160a01b03831690811790915560405133907f1ac7c8e49932077385366b61ac6e5736dcfd0cd02c4db128bf343609b32ebc7390600090a350565b60c9546001600160a01b03163314611e165760405162461bcd60e51b81526004016109f890613a4e565b60648311158015611e25575060015b8015611e32575060648211155b8015611e3c575060015b8015611e49575060648111155b611e865760405162461bcd60e51b815260206004820152600e60248201526d025203c2030206f72203e203130360941b60448201526064016109f8565b606481611e938486613a83565b611e9d9190613a83565b1115611ee15760405162461bcd60e51b81526020600482015260136024820152720546f74616c206d6f7265207468616e2031303606c1b60448201526064016109f8565b610105839055610104829055610103819055604080518481526020810184905290810182905233907ffe26ce6d5123c72af6211eee54d229334db2b10be89b3a0bfe0e2b912bc09a0d9060600160405180910390a2505050565b600054610100900460ff1680611f54575060005460ff16155b611f705760405162461bcd60e51b81526004016109f890613a00565b600054610100900460ff16158015611f92576000805461ffff19166101011790555b6001600160a01b038516611fb85760405162461bcd60e51b81526004016109f8906139dd565b60408051808201909152600b8082526a282aa929a2902a37b5b2b760a91b6020909201918252611fea9160fb9161359a565b5060408051808201909152600580825264505552534560d81b60209092019182526120179160fc9161359a565b506bcecb8f27f4200f3a0000000060fd5560fe805460ff1916601217905569043c33c193756480000060ff5561010180546001600160a01b0387166001600160a01b03199182161790915561010280549091163017905561010384905561010483905561010582905562015180610106554261010c55612095612e45565b61209d612ec0565b6120a5612f27565b60fd546001600160a01b038716600090815261010e60205260409020556120cb8661257d565b856001600160a01b031660006001600160a01b03167fab8530f87dc9b59234c4623bf917212bb2536d647574c8e7e5da92c2ede0c9f860fd5460405161211391815260200190565b60405180910390a3801561212d576000805461ff00191690555b505050505050565b60975460ff16156121585760405162461bcd60e51b81526004016109f8906139b3565b60c9546001600160a01b031633146121825760405162461bcd60e51b81526004016109f890613a4e565b6001600160a01b0381166121a85760405162461bcd60e51b81526004016109f8906139dd565b6001600160a01b038316301415612279576121c28161257d565b60405163a9059cbb60e01b81526001600160a01b0382811660048301526024820184905284169063a9059cbb90604401602060405180830381600087803b15801561220c57600080fd5b505af1158015612220573d6000803e3d6000fd5b505050506040513d601f19601f820116820180604052508101906122449190613849565b506040518281526001600160a01b038216903090600080516020613bf5833981519152906020015b60405180910390a3505050565b60405163a9059cbb60e01b81526001600160a01b0382811660048301526024820184905284169063a9059cbb90604401602060405180830381600087803b1580156122c357600080fd5b505af11580156122d7573d6000803e3d6000fd5b505050506040513d601f19601f820116820180604052508101906122fb9190613849565b506040518281526001600160a01b0382169030907fd4424d61b7020aa766020803aa4632fcc89bc2c7bd80676fac6f3ce81c3f60839060200161226c565b60c9546001600160a01b031633146123635760405162461bcd60e51b81526004016109f890613a4e565b6001600160a01b0381166000908152610111602052604090205460ff166123c45760405162461bcd60e51b81526020600482015260156024820152744e6f6e207768696c6973746564204164647265737360581b60448201526064016109f8565b6001600160a01b03811660008181526101116020526040808220805460ff191690555133917faf31460d59509f1e0881dbc957e5b58953399e26d164607bed60e9a3b425542b91a350565b60c9546001600160a01b031633146124395760405162461bcd60e51b81526004016109f890613a4e565b6001600160a01b03811661249e5760405162461bcd60e51b815260206004820152602660248201527f4f776e61626c653a206e6577206f776e657220697320746865207a65726f206160448201526564647265737360d01b60648201526084016109f8565b61105a81612d9b565b60c9546001600160a01b031633146124d15760405162461bcd60e51b81526004016109f890613a4e565b6001600160a01b0381166000908152610111602052604090205460ff161561252f5760405162461bcd60e51b81526020600482015260116024820152705768696c6973746564204164647265737360781b60448201526064016109f8565b6001600160a01b03811660008181526101116020526040808220805460ff191660011790555133917fba0d3e2369d59f5bf99994d778bbec11ee5e57416e1baa56f4a804273697a8bf91a350565b6001600160a01b0381166000908152610113602052604090206002015461265f57610108546126035760006101065461010c54426125bb9190613adc565b6125c59190613a9b565b90506125d48162015180613abd565b61010c546125e29190613a83565b6001600160a01b038316600090815261011360205260409020600201555050565b610108544210156126235760006101065461010c54426125bb9190613adc565b60006101065461010854426126389190613adc565b6126429190613a9b565b90506126518162015180613abd565b610108546125e29190613a83565b610108544210156128075761010c546001600160a01b03821660009081526101136020526040902060020154101561271c5760006101065461010c54426126a69190613adc565b6126b09190613a9b565b6001600160a01b038316600090815261010e6020526040812054919250906126d9908390613abd565b90506126e88262015180613abd565b61010c546126f69190613a83565b6001600160a01b0384166000908152610113602052604090206002810191909155555050565b610106546001600160a01b0382166000908152610113602052604081206002015490919061274a9042613adc565b6127549190613a9b565b905060018110611711576001600160a01b038216600090815261010e6020526040812054612783908390613abd565b90506127928262015180613abd565b6001600160a01b03841660009081526101136020526040812060020180549091906127be908490613a83565b90915550506001600160a01b038316600090815261011360205260409020546127e8908290613a83565b6001600160a01b03841660009081526101136020526040902055505050565b61010854421061105a5761010c546001600160a01b03821660009081526101136020526040902060020154101561292a5760006101065461010c54610108546128509190613adc565b61285a9190613a9b565b6001600160a01b038316600090815261010e602052604081205491925090612883908390613abd565b6001600160a01b038416600090815261011360205260408120556101095461010d5461010b5461010a54939450612710936128be9086613abd565b6128c89190613abd565b6128d3906064613abd565b6128dd9190613a9b565b6128e79190613a9b565b6128f19190613a9b565b6001600160a01b0384166000908152610113602052604090206001810191909155610108546002909101556129258361257d565b505050565b61010c546001600160a01b03821660009081526101136020526040902060020154108015906129775750610108546001600160a01b03821660009081526101136020526040902060020154105b1561271c57610106546001600160a01b03821660009081526101136020526040812060020154610108549192916129ae9190613adc565b6129b89190613a9b565b905060018110612ab8576001600160a01b038216600090815261010e60205260408120546129e7908390613abd565b6001600160a01b0384166000908152610113602052604081205491925090612a10908390613a83565b6001600160a01b038516600090815261011360205260408120556101095461010d5461010b5461010a5493945061271093612a4b9086613abd565b612a559190613abd565b612a60906064613abd565b612a6a9190613a9b565b612a749190613a9b565b612a7e9190613a9b565b6001600160a01b038516600090815261011360205260409020600181019190915561010854600290910155612ab28461257d565b50505050565b6001600160a01b03821660009081526101136020526040812080549190556101095461010d5461010b5461010a54612710939291906128be9086613abd565b612b008261257d565b6117118161257d565b600080808080612b1887612f8e565b91945092509050612b2b86848484613029565b8082612b37858a613adc565b612b419190613adc565b612b4b9190613adc565b979650505050505050565b60c9546001600160a01b0316331461105a5760405162461bcd60e51b81526004016109f890613a4e565b6000612bb37f360894a13ba1a3210667c828492db98dca3e2076cc3735a920a3ca505d382bbc546001600160a01b031690565b9050612bbe84613252565b600083511180612bcb5750815b15612bdc57612bda84846132f7565b505b7f4910fdfa16fed3260ed0e7147f7cc6da11a60208b5b9406d12a635614ffd9143805460ff16612d0157805460ff191660011781556040516001600160a01b0383166024820152612c5b90869060440160408051601f198184030181529190526020810180516001600160e01b0316631b2ce7f360e11b1790526132f7565b50805460ff191681557f360894a13ba1a3210667c828492db98dca3e2076cc3735a920a3ca505d382bbc546001600160a01b03838116911614612cf85760405162461bcd60e51b815260206004820152602f60248201527f45524331393637557067726164653a207570677261646520627265616b73206660448201526e75727468657220757067726164657360881b60648201526084016109f8565b612d01856133e2565b5050505050565b60975460ff16612d515760405162461bcd60e51b815260206004820152601460248201527314185d5cd8589b194e881b9bdd081c185d5cd95960621b60448201526064016109f8565b6097805460ff191690557f5db9ee0a495bf2e6ff9c91a7834c1ba4fdd244a5e8aa4e537bd38aeae4b073aa335b6040516001600160a01b03909116815260200160405180910390a1565b60c980546001600160a01b038381166001600160a01b0319831681179093556040519116919082907f8be0079c531659141344cd1fd0a4f28419497f9722a3daafe3b4186f6b6457e090600090a35050565b60975460ff1615612e105760405162461bcd60e51b81526004016109f8906139b3565b6097805460ff191660011790557f62e78cea01bee320cd4e420270b5ea74000d11b0c9f74754ebdbfc544b05a258612d7e3390565b600054610100900460ff1680612e5e575060005460ff16155b612e7a5760405162461bcd60e51b81526004016109f890613a00565b600054610100900460ff16158015612e9c576000805461ffff19166101011790555b612ea4613422565b612eac61348c565b801561105a576000805461ff001916905550565b600054610100900460ff1680612ed9575060005460ff16155b612ef55760405162461bcd60e51b81526004016109f890613a00565b600054610100900460ff16158015612f17576000805461ffff19166101011790555b612f1f613422565b612eac613501565b600054610100900460ff1680612f40575060005460ff16155b612f5c5760405162461bcd60e51b81526004016109f890613a00565b600054610100900460ff16158015612f7e576000805461ffff19166101011790555b612f86613422565b612eac613422565b60008060008060008060ff5460fd54111561301c5760646101035488612fb49190613abd565b612fbe9190613a9b565b925060646101045488612fd19190613abd565b612fdb9190613a9b565b915060646101055488612fee9190613abd565b612ff89190613a9b565b9050600060ff5460fd5461300c9190613adc565b90508084111561301a578093505b505b9196909550909350915050565b6001600160a01b03841661304f5760405162461bcd60e51b81526004016109f8906139dd565b6001600160a01b038416600090815261010e602052604081205490826130758587613a83565b61307f9190613a83565b9050808210156130a15760405162461bcd60e51b81526004016109f890613987565b6001600160a01b038616600090815261010e6020526040812080548792906130ca908490613adc565b90915550506001600160a01b038616600090815261010e6020526040812080548692906130f8908490613adc565b90915550506001600160a01b038616600090815261010e602052604081208054859290613126908490613adc565b925050819055508460fd600082825461313f9190613adc565b9091555050610101546001600160a01b0316600090815261010e602052604081208054869290613170908490613a83565b9091555050610102546001600160a01b0316600090815261010e6020526040812080548592906131a1908490613a83565b90915550506040518581526001600160a01b038716907fcc16f5dbb4873280815c1ee09dbd06736cffcc184412cf7a71a0fdb75d397ca59060200160405180910390a2610101546040518581526001600160a01b03909116903390600080516020613bf58339815191529060200160405180910390a3610102546040518481526001600160a01b03909116903390600080516020613bf58339815191529060200160405180910390a3505050505050565b803b6132b65760405162461bcd60e51b815260206004820152602d60248201527f455243313936373a206e657720696d706c656d656e746174696f6e206973206e60448201526c1bdd08184818dbdb9d1c9858dd609a1b60648201526084016109f8565b7f360894a13ba1a3210667c828492db98dca3e2076cc3735a920a3ca505d382bbc80546001600160a01b0319166001600160a01b0392909216919091179055565b6060823b6133565760405162461bcd60e51b815260206004820152602660248201527f416464726573733a2064656c65676174652063616c6c20746f206e6f6e2d636f6044820152651b9d1c9858dd60d21b60648201526084016109f8565b600080846001600160a01b03168460405161337191906138eb565b600060405180830381855af49150503d80600081146133ac576040519150601f19603f3d011682016040523d82523d6000602084013e6133b1565b606091505b50915091506133d98282604051806060016040528060278152602001613bce60279139613561565b95945050505050565b6133eb81613252565b6040516001600160a01b038216907fbc7cd75a20ee27fd9adebab32041f755214dbc6bffa90cc0225b39da2e5c2d3b90600090a250565b600054610100900460ff168061343b575060005460ff16155b6134575760405162461bcd60e51b81526004016109f890613a00565b600054610100900460ff16158015612eac576000805461ffff1916610101179055801561105a576000805461ff001916905550565b600054610100900460ff16806134a5575060005460ff16155b6134c15760405162461bcd60e51b81526004016109f890613a00565b600054610100900460ff161580156134e3576000805461ffff19166101011790555b6097805460ff19169055801561105a576000805461ff001916905550565b600054610100900460ff168061351a575060005460ff16155b6135365760405162461bcd60e51b81526004016109f890613a00565b600054610100900460ff16158015613558576000805461ffff19166101011790555b612eac33612d9b565b60608315613570575081610f59565b8251156135805782518084602001fd5b8160405162461bcd60e51b81526004016109f89190613954565b8280546135a690613b1f565b90600052602060002090601f0160209004810192826135c8576000855561360e565b82601f106135e157805160ff191683800117855561360e565b8280016001018555821561360e579182015b8281111561360e5782518255916020019190600101906135f3565b5061361a92915061361e565b5090565b5b8082111561361a576000815560010161361f565b80356001600160a01b0381168114611d1157600080fd5b60006020828403121561365c57600080fd5b610f5982613633565b6000806040838503121561367857600080fd5b61368183613633565b915061368f60208401613633565b90509250929050565b6000806000606084860312156136ad57600080fd5b6136b684613633565b92506136c460208501613633565b9150604084013590509250925092565b600080600080600060a086880312156136ec57600080fd5b6136f586613633565b945061370360208701613633565b94979496505050506040830135926060810135926080909101359150565b6000806040838503121561373457600080fd5b61373d83613633565b9150602083013567ffffffffffffffff8082111561375a57600080fd5b818501915085601f83011261376e57600080fd5b81358181111561378057613780613bb7565b604051601f8201601f19908116603f011681019083821181831017156137a8576137a8613bb7565b816040528281528860208487010111156137c157600080fd5b8260208601602083013760006020848301015280955050505050509250929050565b600080604083850312156137f657600080fd5b6137ff83613633565b946020939093013593505050565b60008060006060848603121561382257600080fd5b61382b84613633565b92506020840135915061384060408501613633565b90509250925092565b60006020828403121561385b57600080fd5b81518015158114610f5957600080fd5b60006020828403121561387d57600080fd5b5035919050565b60008060006060848603121561389957600080fd5b505081359360208301359350604090920135919050565b600080600080600060a086880312156138c857600080fd5b505083359560208501359550604085013594606081013594506080013592509050565b600082516138fd818460208701613af3565b9190910192915050565b6020808252825182820181905260009190848201906040850190845b818110156139485783516001600160a01b031683529284019291840191600101613923565b50909695505050505050565b6020815260008251806020840152613973816040850160208701613af3565b601f01601f19169190910160400192915050565b6020808252601290820152714e6f7420656e6f7567682062616c616e636560701b604082015260600190565b60208082526010908201526f14185d5cd8589b194e881c185d5cd95960821b604082015260600190565b60208082526009908201526830206164647265737360b81b604082015260600190565b6020808252602e908201527f496e697469616c697a61626c653a20636f6e747261637420697320616c72656160408201526d191e481a5b9a5d1a585b1a5e995960921b606082015260800190565b6020808252818101527f4f776e61626c653a2063616c6c6572206973206e6f7420746865206f776e6572604082015260600190565b60008219821115613a9657613a96613b75565b500190565b600082613ab857634e487b7160e01b600052601260045260246000fd5b500490565b6000816000190483118215151615613ad757613ad7613b75565b500290565b600082821015613aee57613aee613b75565b500390565b60005b83811015613b0e578181015183820152602001613af6565b83811115612ab25750506000910152565b600181811c90821680613b3357607f821691505b60208210811415613b5457634e487b7160e01b600052602260045260246000fd5b50919050565b6000600019821415613b6e57613b6e613b75565b5060010190565b634e487b7160e01b600052601160045260246000fd5b634e487b7160e01b600052603160045260246000fd5b634e487b7160e01b600052603260045260246000fd5b634e487b7160e01b600052604160045260246000fdfe416464726573733a206c6f772d6c6576656c2064656c65676174652063616c6c206661696c6564ddf252ad1be2c89b69c2b068fc378daa952ba7f163c4a11628f55a4df523b3efa26469706673582212209f298ee3b56f9a1b5e495968a4f59969cf11757a31005a3f64e4f721cdfbd3ab64736f6c63430008070033",
  "immutableReferences": {},
  "source": "// SPDX-License-Identifier: UNLICENSED\r\n\r\npragma solidity ^0.8.0;\r\n\r\nimport \"@openzeppelin/contracts-upgradeable/proxy/utils/Initializable.sol\";\r\nimport \"@openzeppelin/contracts-upgradeable/proxy/utils/UUPSUpgradeable.sol\";\r\nimport \"@openzeppelin/contracts-upgradeable/security/PausableUpgradeable.sol\";\r\nimport \"@openzeppelin/contracts-upgradeable/access/OwnableUpgradeable.sol\";\r\nimport \"@openzeppelin/contracts/token/ERC20/IERC20.sol\";\r\n\r\nabstract contract ERC20Interface {\r\n\r\n    function transfer(address to, uint tokens) public virtual returns (bool success);\r\n\r\n    function transferFrom(address from, address to, uint tokens) public virtual returns (bool success);\r\n\r\n}\r\n\r\ncontract PurseTokenUpgradableV2 is Initializable, UUPSUpgradeable, PausableUpgradeable, OwnableUpgradeable {\r\n\r\n    string public name;\r\n    string public symbol;\r\n    uint256 public totalSupply;\r\n    uint8 public decimals;\r\n    uint256 private minimumSupply;\r\n    address[] public admins;\r\n    address public liqPool;\r\n    address public disPool;\r\n    uint256 public burnPercent;\r\n    uint256 public liqPercent;\r\n    uint256 public disPercent;\r\n    \r\n    uint256 public _averageInterval;\r\n    uint256 public _getRewardEndTime;\r\n    uint256 public _getRewardStartTime;\r\n    uint256 public _numOfDaysPerMth;\r\n    uint256 public _monthlyDistributePr;\r\n    uint256 public _percentageDistribute;\r\n    uint256 public _lastRewardStartTime;\r\n    uint256 public _totalSupply;\r\n\r\n    mapping(address => uint256) public balanceOf;\r\n    mapping(address => mapping(address => uint256)) public allowance;\r\n    mapping(address => bool) public isAdmin;\r\n    mapping(address => bool) public isWhitelistedTo;\r\n    mapping(address => bool) public isWhitelistedFrom;\r\n    mapping(address => AccAmount) public accAmount;\r\n\r\n    struct AccAmount {\r\n        uint256 amount;\r\n        uint256 accReward;\r\n        uint256 lastUpdateTime;\r\n    }\r\n\r\n    event Transfer(address indexed _from, address indexed _to, uint256 _value);\r\n    event Burn(address indexed _from, uint256 _value);\r\n    event Mint(address indexed _from, address indexed _to, uint256 _value);\r\n    event Approval(address indexed _owner, address indexed _spender, uint256 _value);\r\n    event AddAdmin(address indexed _owner, address indexed _admin);\r\n    event RemoveAdmin(address indexed _owner, address indexed _admin);\r\n    event AddWhitelistedTo(address indexed _admin, address indexed _whitelistedTo);\r\n    event AddWhitelistedFrom(address indexed _admin, address indexed _whitelistedFrom);\r\n    event RemoveWhitelistedTo(address indexed _admin, address indexed _whitelistedFrom);\r\n    event RemoveWhitelistedFrom(address indexed _admin, address indexed _whitelistedFrom);\r\n    event TransferERCToken(address indexed _from, address indexed _to, uint256 _value);\r\n    event UpdateBDLPercent(address indexed _from, uint256 _newDisPercent, uint256 _newLiqPercent, uint256 _newBurnPercent);\r\n    event UpdateLiqPool(address indexed _from, address indexed _newLiqPool);\r\n    event UpdateDisPool(address indexed _from, address indexed _newDisPool);\r\n    event ActivateClaimMonthly(address indexed _from, uint256 _rewardStartTime, uint256 _rewardEndTime, uint256  _monthlyDisPr, uint256 _numOfDays, uint256 _percentage);\r\n    event ClaimDistributionPurse(address indexed _from,  uint256 _value);\r\n\r\n    modifier onlyAdmin() {\r\n        require(isAdmin[msg.sender], \"Not Admin\");\r\n        _;\r\n    }\r\n\r\n    function transfer(address _to, uint256 _value) public whenNotPaused returns (bool success)\r\n    {\r\n        require(balanceOf[msg.sender] >= _value, \"Not enough balance\");\r\n        if (isWhitelistedTo[_to] || isWhitelistedFrom[msg.sender]) {\r\n            updateAccumulateBalanceTransaction(msg.sender, _to); \r\n            balanceOf[msg.sender] -= _value;\r\n            balanceOf[_to] += _value;\r\n            \r\n           \r\n            emit Transfer(msg.sender, _to, _value);\r\n            return true;\r\n        } else {\r\n            updateAccumulateBalanceTransaction(msg.sender, _to);\r\n            uint256 transferValue = _partialBurn(_value, msg.sender);\r\n            balanceOf[msg.sender] -= transferValue;\r\n            balanceOf[_to] += transferValue;\r\n            \r\n\r\n            emit Transfer(msg.sender, _to, transferValue);\r\n            return true;\r\n        }\r\n    }\r\n    \r\n    function approve(address _spender, uint256 _value) public whenNotPaused returns (bool success)\r\n    {\r\n        allowance[msg.sender][_spender] = _value;\r\n        emit Approval(msg.sender, _spender, _value);\r\n        return true;\r\n    }\r\n\r\n    function transferFrom(address _from, address _to, uint256 _value) public whenNotPaused returns (bool success) {\r\n        require(_value <= balanceOf[_from], \"Not enough balance\");\r\n        require(_value <= allowance[_from][msg.sender], \"Not enough allowance\");\r\n        if (isWhitelistedTo[_to] || isWhitelistedFrom[msg.sender]) {\r\n            allowance[_from][msg.sender] -= _value;\r\n            updateAccumulateBalanceTransaction(_from, _to);\r\n            balanceOf[_from] -= _value;\r\n            balanceOf[_to] += _value;\r\n            \r\n            emit Transfer(_from, _to, _value);\r\n            return true;\r\n        } else {\r\n            allowance[_from][msg.sender] -= _value;\r\n            updateAccumulateBalanceTransaction(_from, _to);\r\n            uint256 transferValue = _partialBurn(_value, _from);\r\n            balanceOf[_from] -= transferValue;\r\n            balanceOf[_to] += transferValue;\r\n\r\n            emit Transfer(_from, _to, transferValue);\r\n            return true;\r\n        }\r\n    }\r\n\r\n    function mint(address _account, uint256 _amount) public whenNotPaused onlyAdmin {\r\n        require(_account != address(0), \"0 address\");\r\n        updateAccumulateBalance(_account); \r\n        balanceOf[_account] += _amount;\r\n\r\n        totalSupply += _amount;\r\n        emit Mint(address(0), _account, _amount);\r\n    }\r\n\r\n    function burn(uint256 _amount) public whenNotPaused {\r\n        require(_amount != 0, \"0 address\");\r\n        require(balanceOf[msg.sender] >= _amount, \"Not enough balance\");\r\n        updateAccumulateBalance(msg.sender); \r\n        balanceOf[msg.sender] -= _amount;\r\n        totalSupply -= _amount;\r\n        emit Burn(msg.sender, _amount);\r\n    }\r\n    \r\n    function updateAccumulateBalance(address _holder) private {\r\n        if (accAmount[_holder].lastUpdateTime == 0) {\r\n            if (_getRewardStartTime == 0) {\r\n                uint256 interval = (block.timestamp - _lastRewardStartTime)/ _averageInterval;\r\n                accAmount[_holder].lastUpdateTime = _lastRewardStartTime + (interval * 86400);   //1 day = 86400 seconds\r\n            } else {\r\n                if (block.timestamp < _getRewardStartTime) {\r\n                    uint256 interval = (block.timestamp - _lastRewardStartTime)/ _averageInterval;\r\n                    accAmount[_holder].lastUpdateTime = _lastRewardStartTime + (interval * 86400);   //1 day = 86400 seconds\r\n                } else {\r\n                    uint256 interval = (block.timestamp - _getRewardStartTime)/ _averageInterval;\r\n                    accAmount[_holder].lastUpdateTime = _getRewardStartTime + (interval * 86400);\r\n                }\r\n            } \r\n        } \r\n        else if (block.timestamp < _getRewardStartTime) {\r\n            if (accAmount[_holder].lastUpdateTime < _lastRewardStartTime) {\r\n                uint256 interval = (block.timestamp - _lastRewardStartTime)/ _averageInterval;\r\n                uint256 accumulateAmount = balanceOf[_holder] * interval;\r\n                accAmount[_holder].lastUpdateTime = _lastRewardStartTime + (interval * 86400);   //1 day = 86400 seconds\r\n                accAmount[_holder].amount = accumulateAmount;     \r\n            } \r\n            else {\r\n            uint256 interval = (block.timestamp - accAmount[_holder].lastUpdateTime)/ _averageInterval;\r\n                if (interval >= 1) {\r\n                    uint256 accumulateAmount = balanceOf[_holder] * interval;\r\n                    accAmount[_holder].lastUpdateTime += (interval * 86400);\r\n                    accAmount[_holder].amount = accAmount[_holder].amount + accumulateAmount;                     \r\n                }\r\n            }\r\n        } \r\n        else if(block.timestamp >= _getRewardStartTime) {\r\n            if (accAmount[_holder].lastUpdateTime < _lastRewardStartTime) {\r\n                uint256 interval = (_getRewardStartTime - _lastRewardStartTime)/ _averageInterval;\r\n                uint256 lastmonthAccAmount = balanceOf[_holder] * interval;\r\n                accAmount[_holder].amount = 0;\r\n                accAmount[_holder].accReward = lastmonthAccAmount * _monthlyDistributePr * _percentageDistribute * 100 / _totalSupply / _numOfDaysPerMth / 10000;\r\n                accAmount[_holder].lastUpdateTime = _getRewardStartTime;\r\n                updateAccumulateBalance(_holder);\r\n            } \r\n            else if (accAmount[_holder].lastUpdateTime >= _lastRewardStartTime && accAmount[_holder].lastUpdateTime < _getRewardStartTime) {\r\n                uint256 interval = (_getRewardStartTime - accAmount[_holder].lastUpdateTime)/ _averageInterval;\r\n                if (interval >= 1) {\r\n                    uint256 accumulateAmount = balanceOf[_holder] * interval;\r\n                    uint256 lastmonthAccAmount = accAmount[_holder].amount + accumulateAmount; \r\n                    accAmount[_holder].amount = 0;\r\n                    accAmount[_holder].accReward = lastmonthAccAmount * _monthlyDistributePr * _percentageDistribute * 100 / _totalSupply / _numOfDaysPerMth / 10000;\r\n                    accAmount[_holder].lastUpdateTime = _getRewardStartTime;\r\n                    updateAccumulateBalance(_holder);\r\n                } \r\n                else {\r\n                    uint256 lastmonthAccAmount = accAmount[_holder].amount;\r\n                    accAmount[_holder].amount = 0;\r\n                    accAmount[_holder].accReward = lastmonthAccAmount * _monthlyDistributePr * _percentageDistribute * 100 / _totalSupply / _numOfDaysPerMth / 10000;\r\n                    accAmount[_holder].lastUpdateTime = _getRewardStartTime;\r\n                    updateAccumulateBalance(_holder);\r\n                }\r\n            } \r\n            else {\r\n                uint256 interval = (block.timestamp - accAmount[_holder].lastUpdateTime)/ _averageInterval;\r\n                if (interval >= 1) {\r\n                    uint256 accumulateAmount = balanceOf[_holder] * interval;\r\n                    accAmount[_holder].lastUpdateTime += (interval * 86400);\r\n                    accAmount[_holder].amount = accAmount[_holder].amount + accumulateAmount;                     \r\n                }\r\n            }\r\n        }\r\n    }\r\n    \r\n    \r\n    \r\n    function updateAccumulateBalanceTransaction(address _from, address _to) private {\r\n        updateAccumulateBalance(_from);\r\n        updateAccumulateBalance(_to);\r\n    }\r\n\r\n    function claimDistributionPurse() public whenNotPaused returns(bool success) {\r\n        require(block.timestamp > _getRewardStartTime, \"Claim not started\");\r\n        require(block.timestamp < _getRewardEndTime, \"Claim period over\"); \r\n\r\n        updateAccumulateBalance(msg.sender);\r\n        require(accAmount[msg.sender].accReward > 0, \"User reward is 0\");\r\n        uint256 claimAmount = accAmount[msg.sender].accReward;\r\n        accAmount[msg.sender].accReward = 0;\r\n\r\n        ERC20Interface(address(this)).transfer(msg.sender, claimAmount);\r\n        emit ClaimDistributionPurse(msg.sender, claimAmount);\r\n        return true;\r\n    }\r\n    \r\n    function activateClaimMonthly(uint256 _rewardStartTime, uint256 _rewardEndTime, uint256 _monthlyDisPr, uint256 _numOfDays, uint256 _percentage) public onlyAdmin {\r\n        require(_rewardStartTime > block.timestamp, \"Less than current time\");\r\n        require(_rewardEndTime > _rewardStartTime, \"Less than start time\");\r\n        require(_numOfDays > 0, \"Less than 0\");\r\n        require(_percentage > 0 && _percentage <= 100, \"Less than 0 or More than 100\");\r\n        require(_monthlyDisPr <= balanceOf[address(this)], \"More than pool balance\");\r\n        \r\n        _totalSupply = totalSupply;\r\n        if (_getRewardStartTime != 0) {\r\n            _lastRewardStartTime = _getRewardStartTime;\r\n        }\r\n        // _lastRewardStartTime = _getRewardStartTime;\r\n        _numOfDaysPerMth = _numOfDays;\r\n        _getRewardStartTime = _rewardStartTime;\r\n        _getRewardEndTime = _rewardEndTime;\r\n        _percentageDistribute = _percentage;\r\n        _monthlyDistributePr = _monthlyDisPr;\r\n        emit ActivateClaimMonthly(msg.sender, _rewardStartTime, _rewardEndTime, _monthlyDisPr, _numOfDays, _percentage);\r\n    }\r\n\r\n    function _partialBurn(uint256 _amount, address _from) internal returns (uint256) {\r\n        uint256 transferAmount = 0;\r\n        uint256 burnAmount;\r\n        uint256 liqAmount;\r\n        uint256 disAmount;\r\n        (\r\n            burnAmount,\r\n            liqAmount,\r\n            disAmount\r\n        ) = _calculateDeductAmount(_amount);\r\n\r\n        if (burnAmount >= 0 || liqAmount >= 0 || disAmount >= 0) {\r\n            burnPrivate(_from, burnAmount, liqAmount, disAmount);\r\n        }\r\n        transferAmount = _amount - burnAmount - liqAmount - disAmount;\r\n\r\n        return transferAmount;\r\n    }\r\n\r\n    function _calculateDeductAmount(uint256 _amount) internal view returns (uint256, uint256, uint256) {\r\n        uint256 burnAmount;\r\n        uint256 liqAmount;\r\n        uint256 disAmount;\r\n\r\n        if (totalSupply > minimumSupply) {\r\n            burnAmount = (_amount * burnPercent) / 100;\r\n            liqAmount = (_amount * liqPercent) / 100;\r\n            disAmount = (_amount * disPercent) / 100;\r\n            uint256 availableBurn = totalSupply - minimumSupply;\r\n            if (burnAmount > availableBurn) {\r\n                burnAmount = availableBurn;\r\n            }\r\n        }\r\n        return (burnAmount, liqAmount, disAmount);\r\n    }\r\n\r\n    function burnPrivate( address _account, uint256 _burnAmount, uint256 _liqAmount, uint256 _disAmount) private {\r\n        require(_account != address(0), \"0 address\");\r\n        uint256 accountBalance = balanceOf[_account];\r\n        uint256 deductAmount = _burnAmount + _liqAmount + _disAmount;\r\n        require(accountBalance >= deductAmount, \"Not enough balance\");\r\n        balanceOf[_account] -= _burnAmount;\r\n        balanceOf[_account] -= _liqAmount;\r\n        balanceOf[_account] -= _disAmount;\r\n\r\n        totalSupply -= _burnAmount;\r\n        // updateAccumulateBalanceTransaction(disPool, liqPool); \r\n        balanceOf[liqPool] += _liqAmount;\r\n        balanceOf[disPool] += _disAmount;\r\n\r\n        emit Burn(_account, _burnAmount);\r\n        emit Transfer(msg.sender, liqPool, _liqAmount);\r\n        emit Transfer(msg.sender, disPool, _disAmount);\r\n    }\r\n    \r\n    function updateLPoolAdd(address _newLPool) public onlyOwner {\r\n        require(_newLPool != liqPool, \"Same with previous address\");\r\n\r\n        liqPool = _newLPool;\r\n        emit UpdateLiqPool(msg.sender, _newLPool);\r\n    }\r\n\r\n    function updateDPoolAdd(address _newDPool) public onlyOwner {\r\n        require(_newDPool != disPool, \"Same with previous address\");\r\n\r\n        disPool = _newDPool;\r\n        emit UpdateDisPool(msg.sender, _newDPool);\r\n    }\r\n    \r\n    function updatePercent(uint256 _newDisPercent, uint256 _newLiqPercent, uint256 _newBurnPercent) public onlyOwner {\r\n        require(_newDisPercent >= 0 && _newDisPercent <= 100 && _newLiqPercent >= 0 && _newLiqPercent <= 100 && _newBurnPercent >= 0 && _newBurnPercent <= 100, \"% < 0 or > 100\");\r\n        require(_newDisPercent + _newLiqPercent + _newBurnPercent <= 100, \"Total more than 100\");\r\n        \r\n        disPercent = _newDisPercent;\r\n        liqPercent = _newLiqPercent;\r\n        burnPercent = _newBurnPercent;\r\n        emit UpdateBDLPercent(msg.sender, _newDisPercent, _newLiqPercent, _newBurnPercent);\r\n    }\r\n\r\n    function addAdmin(address newAdmin) public onlyOwner{\r\n        require(!isAdmin[newAdmin], \"Is admin\");\r\n\r\n        isAdmin[newAdmin] = true;\r\n        admins.push(newAdmin);\r\n        emit AddAdmin(msg.sender, newAdmin);\r\n    }\r\n\r\n    function removeAdmin(uint index) public onlyOwner returns (address[] memory){\r\n        address removeOwner = admins[index];\r\n        require(index < admins.length, \"Input over admins length\");\r\n        require(isAdmin[removeOwner], \"Not an admin\");\r\n        \r\n        for (uint i = index; i<admins.length-1; i++){\r\n            admins[i] = admins[i+1];\r\n        }\r\n        admins.pop();\r\n\r\n        isAdmin[removeOwner] = false;\r\n        emit RemoveAdmin(msg.sender, removeOwner);\r\n        return admins;\r\n    }\r\n    \r\n    function transferERCToken(address token, uint256 amount, address _to) public whenNotPaused onlyOwner{\r\n        require(_to != address(0), \"0 address\");\r\n        if (token == address(this)) {\r\n            updateAccumulateBalance(_to);\r\n            ERC20Interface(token).transfer(_to, amount);\r\n            emit Transfer(address(this), _to, amount);\r\n        } else {\r\n            ERC20Interface(token).transfer(_to, amount);\r\n            emit TransferERCToken(address(this), _to, amount);          \r\n        }\r\n    } \r\n\r\n    function pause() public whenNotPaused onlyOwner {\r\n        _pause();\r\n    }\r\n\r\n    function unpause() public whenPaused onlyOwner {\r\n        _unpause();\r\n    }\r\n    \r\n    function setWhitelistedTo(address newWhitelist) public onlyOwner {\r\n        require(!isWhitelistedTo[newWhitelist], \"Whilisted Address\");\r\n\r\n        isWhitelistedTo[newWhitelist] = true;\r\n        emit AddWhitelistedTo(msg.sender, newWhitelist);\r\n    }\r\n\r\n    function removeWhitelistedTo(address newWhitelist) public onlyOwner {\r\n        require(isWhitelistedTo[newWhitelist], \"Non whilisted Address\");\r\n\r\n        isWhitelistedTo[newWhitelist] = false;\r\n        emit RemoveWhitelistedTo(msg.sender, newWhitelist);\r\n    }\r\n\r\n    function setWhitelistedFrom(address newWhitelist) public onlyOwner {\r\n        require(!isWhitelistedFrom[newWhitelist], \"Whilisted Address\");\r\n\r\n        isWhitelistedFrom[newWhitelist] = true;\r\n        emit RemoveWhitelistedFrom(msg.sender, newWhitelist);\r\n    }\r\n\r\n    function removeWhitelistedFrom(address newWhitelist) public onlyOwner {\r\n        require(isWhitelistedFrom[newWhitelist], \"Non whilisted Address\");\r\n\r\n        isWhitelistedFrom[newWhitelist] = false;\r\n        emit RemoveWhitelistedFrom(msg.sender, newWhitelist);\r\n    }\r\n\r\n    function _authorizeUpgrade(address) internal override onlyOwner {}\r\n\r\n    function initialize(\r\n        address _to,\r\n        address _lPool,\r\n        uint256 _burnPercent,\r\n        uint256 _liqPercent,\r\n        uint256 _disPercent\r\n    ) public initializer {\r\n        require(_lPool != address(0), \"0 address\");\r\n        require(_burnPercent >= 0, \"Percentage is 0\");\r\n        require(_liqPercent >= 0, \"Percentage is 0\");\r\n        require(_disPercent >= 0, \"Percentage is 0\");\r\n\r\n        name = \"PURSE Token\";\r\n        symbol = \"PURSE\";\r\n        totalSupply = 64000000000 * (10**18); // 64 billion tokens\r\n        decimals = 18;\r\n        minimumSupply = 20000 * (10**18);\r\n\r\n        liqPool = _lPool;\r\n        disPool = address(this);\r\n        burnPercent = _burnPercent;\r\n        liqPercent = _liqPercent;\r\n        disPercent = _disPercent;\r\n        _averageInterval = 1 days;       // update to 1 days in mainnet(prod)\r\n        _lastRewardStartTime = block.timestamp;\r\n        __Pausable_init();\r\n        __Ownable_init();\r\n        __UUPSUpgradeable_init();\r\n        \r\n        balanceOf[_to] = totalSupply;\r\n        updateAccumulateBalance(_to); \r\n        emit Mint(address(0), _to, totalSupply);\r\n    }\r\n}",
  "sourcePath": "C:/Users/cheek/Desktop/Developer doc/Visual Studio Code/PundiX/purseRewardBSC/src/contracts/PurseTokenUpgradableV2.sol",
  "compiler": {
    "name": "solc",
    "version": "0.8.7+commit.e28d00a7.Emscripten.clang"
  },
  "schemaVersion": "3.2.3",
  "updatedAt": "2021-10-25T03:21:18.387Z",
  "networkType": "ethereum",
  "devdoc": {
    "kind": "dev",
    "methods": {
      "owner()": {
        "details": "Returns the address of the current owner."
      },
      "paused()": {
        "details": "Returns true if the contract is paused, and false otherwise."
      },
      "renounceOwnership()": {
        "details": "Leaves the contract without owner. It will not be possible to call `onlyOwner` functions anymore. Can only be called by the current owner. NOTE: Renouncing ownership will leave the contract without an owner, thereby removing any functionality that is only available to the owner."
      },
      "transferOwnership(address)": {
        "details": "Transfers ownership of the contract to a new account (`newOwner`). Can only be called by the current owner."
      },
      "upgradeTo(address)": {
        "details": "Upgrade the implementation of the proxy to `newImplementation`. Calls {_authorizeUpgrade}. Emits an {Upgraded} event."
      },
      "upgradeToAndCall(address,bytes)": {
        "details": "Upgrade the implementation of the proxy to `newImplementation`, and subsequently execute the function call encoded in `data`. Calls {_authorizeUpgrade}. Emits an {Upgraded} event."
      }
    },
    "version": 1
  },
  "userdoc": {
    "kind": "user",
    "methods": {},
    "version": 1
  }
}