{
  "contractName": "PurseDistribution",
  "abi": [
    {
      "inputs": [
        {
          "internalType": "contract PurseToken",
          "name": "_purseToken",
          "type": "address"
        }
      ],
      "stateMutability": "nonpayable",
      "type": "constructor"
    },
    {
      "inputs": [
        {
          "internalType": "address",
          "name": "",
          "type": "address"
        },
        {
          "internalType": "uint256",
          "name": "",
          "type": "uint256"
        }
      ],
      "name": "holder",
      "outputs": [
        {
          "internalType": "uint256",
          "name": "releaseIteration",
          "type": "uint256"
        },
        {
          "internalType": "uint256",
          "name": "distributeAmount",
          "type": "uint256"
        },
        {
          "internalType": "uint256",
          "name": "unlockTime",
          "type": "uint256"
        },
        {
          "internalType": "bool",
          "name": "isRedeem",
          "type": "bool"
        }
      ],
      "stateMutability": "view",
      "type": "function",
      "constant": true
    },
    {
      "inputs": [],
      "name": "name",
      "outputs": [
        {
          "internalType": "string",
          "name": "",
          "type": "string"
        }
      ],
      "stateMutability": "view",
      "type": "function",
      "constant": true
    },
    {
      "inputs": [],
      "name": "owner",
      "outputs": [
        {
          "internalType": "address",
          "name": "",
          "type": "address"
        }
      ],
      "stateMutability": "view",
      "type": "function",
      "constant": true
    },
    {
      "inputs": [],
      "name": "purseToken",
      "outputs": [
        {
          "internalType": "contract PurseToken",
          "name": "",
          "type": "address"
        }
      ],
      "stateMutability": "view",
      "type": "function",
      "constant": true
    },
    {
      "inputs": [],
      "name": "releaseDuration",
      "outputs": [
        {
          "internalType": "uint256",
          "name": "",
          "type": "uint256"
        }
      ],
      "stateMutability": "view",
      "type": "function",
      "constant": true
    },
    {
      "inputs": [
        {
          "internalType": "address",
          "name": "",
          "type": "address"
        }
      ],
      "name": "releaseIteration",
      "outputs": [
        {
          "internalType": "uint256",
          "name": "",
          "type": "uint256"
        }
      ],
      "stateMutability": "view",
      "type": "function",
      "constant": true
    },
    {
      "inputs": [
        {
          "internalType": "address",
          "name": "_holder",
          "type": "address"
        },
        {
          "internalType": "uint256",
          "name": "_amount",
          "type": "uint256"
        }
      ],
      "name": "updateHolderInfo",
      "outputs": [],
      "stateMutability": "nonpayable",
      "type": "function"
    },
    {
      "inputs": [
        {
          "internalType": "uint256",
          "name": "_releaseIteration",
          "type": "uint256"
        }
      ],
      "name": "claim",
      "outputs": [],
      "stateMutability": "nonpayable",
      "type": "function"
    },
    {
      "inputs": [],
      "name": "claimAll",
      "outputs": [],
      "stateMutability": "nonpayable",
      "type": "function"
    }
  ],
  "bytecode": "0x60806040526040518060400160405280601281526020017f507572736520446973747269627574696f6e0000000000000000000000000000815250600090805190602001906200005192919062000113565b5060026003553480156200006457600080fd5b50604051620015303803806200153083398181016040528101906200008a9190620001da565b80600160006101000a81548173ffffffffffffffffffffffffffffffffffffffff021916908373ffffffffffffffffffffffffffffffffffffffff16021790555033600260006101000a81548173ffffffffffffffffffffffffffffffffffffffff021916908373ffffffffffffffffffffffffffffffffffffffff16021790555050620002cd565b82805462000121906200024e565b90600052602060002090601f01602090048101928262000145576000855562000191565b82601f106200016057805160ff191683800117855562000191565b8280016001018555821562000191579182015b828111156200019057825182559160200191906001019062000173565b5b509050620001a09190620001a4565b5090565b5b80821115620001bf576000816000905550600101620001a5565b5090565b600081519050620001d481620002b3565b92915050565b600060208284031215620001ed57600080fd5b6000620001fd84828501620001c3565b91505092915050565b600062000213826200022e565b9050919050565b6000620002278262000206565b9050919050565b600073ffffffffffffffffffffffffffffffffffffffff82169050919050565b600060028204905060018216806200026757607f821691505b602082108114156200027e576200027d62000284565b5b50919050565b7f4e487b7100000000000000000000000000000000000000000000000000000000600052602260045260246000fd5b620002be816200021a565b8114620002ca57600080fd5b50565b61125380620002dd6000396000f3fe608060405234801561001057600080fd5b50600436106100935760003560e01c806351bf16ef1161006657806351bf16ef146101355780638da5cb5b14610153578063b7efeb5614610171578063d1058e591461018d578063f9b418911461019757610093565b806306fdde031461009857806329a512fd146100b6578063379607f5146100e65780633f594c4f14610102575b600080fd5b6100a06101b5565b6040516100ad9190610e21565b60405180910390f35b6100d060048036038101906100cb9190610b96565b610243565b6040516100dd9190610ec3565b60405180910390f35b61010060048036038101906100fb9190610c24565b61025b565b005b61011c60048036038101906101179190610bbf565b61051d565b60405161012c9493929190610ede565b60405180910390f35b61013d610567565b60405161014a9190610e06565b60405180910390f35b61015b61058d565b6040516101689190610dc2565b60405180910390f35b61018b60048036038101906101869190610bbf565b6105b3565b005b6101956108c7565b005b61019f610b52565b6040516101ac9190610ec3565b60405180910390f35b600080546101c2906110bf565b80601f01602080910402602001604051908101604052809291908181526020018280546101ee906110bf565b801561023b5780601f106102105761010080835404028352916020019161023b565b820191906000526020600020905b81548152906001019060200180831161021e57829003601f168201915b505050505081565b60046020528060005260406000206000915090505481565b600560003373ffffffffffffffffffffffffffffffffffffffff1673ffffffffffffffffffffffffffffffffffffffff1681526020019081526020016000206000828152602001908152602001600020600201544210156102f1576040517f08c379a00000000000000000000000000000000000000000000000000000000081526004016102e890610e43565b60405180910390fd5b60011515600560003373ffffffffffffffffffffffffffffffffffffffff1673ffffffffffffffffffffffffffffffffffffffff168152602001908152602001600020600083815260200190815260200160002060030160009054906101000a900460ff16151514610398576040517f08c379a000000000000000000000000000000000000000000000000000000000815260040161038f90610e63565b60405180910390fd5b6000600560003373ffffffffffffffffffffffffffffffffffffffff1673ffffffffffffffffffffffffffffffffffffffff168152602001908152602001600020600083815260200190815260200160002060030160006101000a81548160ff0219169083151502179055506000600354600560003373ffffffffffffffffffffffffffffffffffffffff1673ffffffffffffffffffffffffffffffffffffffff1681526020019081526020016000206000848152602001908152602001600020600101546104679190610fc6565b9050600160009054906101000a900473ffffffffffffffffffffffffffffffffffffffff1673ffffffffffffffffffffffffffffffffffffffff1663a9059cbb33836040518363ffffffff1660e01b81526004016104c6929190610ddd565b602060405180830381600087803b1580156104e057600080fd5b505af11580156104f4573d6000803e3d6000fd5b505050506040513d601f19601f820116820180604052508101906105189190610bfb565b505050565b6005602052816000526040600020602052806000526040600020600091509150508060000154908060010154908060020154908060030160009054906101000a900460ff16905084565b600160009054906101000a900473ffffffffffffffffffffffffffffffffffffffff1681565b600260009054906101000a900473ffffffffffffffffffffffffffffffffffffffff1681565b600260009054906101000a900473ffffffffffffffffffffffffffffffffffffffff1673ffffffffffffffffffffffffffffffffffffffff163373ffffffffffffffffffffffffffffffffffffffff1614610643576040517f08c379a000000000000000000000000000000000000000000000000000000000815260040161063a90610e83565b60405180910390fd5b6000811015610687576040517f08c379a000000000000000000000000000000000000000000000000000000000815260040161067e90610ea3565b60405180910390fd5b600c600460008473ffffffffffffffffffffffffffffffffffffffff1673ffffffffffffffffffffffffffffffffffffffff1681526020019081526020016000208190555060006064600c836106dd9190610fc6565b6106e79190610f95565b9050600060646008846106fa9190610fc6565b6107049190610f95565b90506000600190505b600d8110156108c057600081603c6107259190610fc6565b426107309190610f3f565b905060018214156107f657604051806080016040528083815260200185815260200182815260200160011515815250600560008873ffffffffffffffffffffffffffffffffffffffff1673ffffffffffffffffffffffffffffffffffffffff16815260200190815260200160002060006001815260200190815260200160002060008201518160000155602082015181600101556040820151816002015560608201518160030160006101000a81548160ff0219169083151502179055509050506108ac565b604051806080016040528083815260200184815260200182815260200160011515815250600560008873ffffffffffffffffffffffffffffffffffffffff1673ffffffffffffffffffffffffffffffffffffffff168152602001908152602001600020600084815260200190815260200160002060008201518160000155602082015181600101556040820151816002015560608201518160030160006101000a81548160ff0219169083151502179055509050505b5080806108b8906110f1565b91505061070d565b5050505050565b600080600190505b600d811015610a9457600560003373ffffffffffffffffffffffffffffffffffffffff1673ffffffffffffffffffffffffffffffffffffffff1681526020019081526020016000206000828152602001908152602001600020600201544210610a815760011515600560003373ffffffffffffffffffffffffffffffffffffffff1673ffffffffffffffffffffffffffffffffffffffff168152602001908152602001600020600083815260200190815260200160002060030160009054906101000a900460ff1615151415610a80576000600560003373ffffffffffffffffffffffffffffffffffffffff1673ffffffffffffffffffffffffffffffffffffffff168152602001908152602001600020600083815260200190815260200160002060030160006101000a81548160ff0219169083151502179055506000600354600560003373ffffffffffffffffffffffffffffffffffffffff1673ffffffffffffffffffffffffffffffffffffffff168152602001908152602001600020600084815260200190815260200160002060010154610a6e9190610fc6565b90508083610a7c9190610f3f565b9250505b5b8080610a8c906110f1565b9150506108cf565b506000811115610b4f57600160009054906101000a900473ffffffffffffffffffffffffffffffffffffffff1673ffffffffffffffffffffffffffffffffffffffff1663a9059cbb33836040518363ffffffff1660e01b8152600401610afb929190610ddd565b602060405180830381600087803b158015610b1557600080fd5b505af1158015610b29573d6000803e3d6000fd5b505050506040513d601f19601f82011682018060405250810190610b4d9190610bfb565b505b50565b603c81565b600081359050610b66816111d8565b92915050565b600081519050610b7b816111ef565b92915050565b600081359050610b9081611206565b92915050565b600060208284031215610ba857600080fd5b6000610bb684828501610b57565b91505092915050565b60008060408385031215610bd257600080fd5b6000610be085828601610b57565b9250506020610bf185828601610b81565b9150509250929050565b600060208284031215610c0d57600080fd5b6000610c1b84828501610b6c565b91505092915050565b600060208284031215610c3657600080fd5b6000610c4484828501610b81565b91505092915050565b610c5681611020565b82525050565b610c6581611032565b82525050565b610c7481611068565b82525050565b6000610c8582610f23565b610c8f8185610f2e565b9350610c9f81856020860161108c565b610ca8816111c7565b840191505092915050565b6000610cc0600d83610f2e565b91507f6c6f636b656420706572696f64000000000000000000000000000000000000006000830152602082019050919050565b6000610d00601083610f2e565b91507f68617665206265656e2072656465656d000000000000000000000000000000006000830152602082019050919050565b6000610d40600a83610f2e565b91507f6f6e6c79206f776e6572000000000000000000000000000000000000000000006000830152602082019050919050565b6000610d80601283610f2e565b91507f616d6f756e74206c657373207468616e203000000000000000000000000000006000830152602082019050919050565b610dbc8161105e565b82525050565b6000602082019050610dd76000830184610c4d565b92915050565b6000604082019050610df26000830185610c4d565b610dff6020830184610db3565b9392505050565b6000602082019050610e1b6000830184610c6b565b92915050565b60006020820190508181036000830152610e3b8184610c7a565b905092915050565b60006020820190508181036000830152610e5c81610cb3565b9050919050565b60006020820190508181036000830152610e7c81610cf3565b9050919050565b60006020820190508181036000830152610e9c81610d33565b9050919050565b60006020820190508181036000830152610ebc81610d73565b9050919050565b6000602082019050610ed86000830184610db3565b92915050565b6000608082019050610ef36000830187610db3565b610f006020830186610db3565b610f0d6040830185610db3565b610f1a6060830184610c5c565b95945050505050565b600081519050919050565b600082825260208201905092915050565b6000610f4a8261105e565b9150610f558361105e565b9250827fffffffffffffffffffffffffffffffffffffffffffffffffffffffffffffffff03821115610f8a57610f8961113a565b5b828201905092915050565b6000610fa08261105e565b9150610fab8361105e565b925082610fbb57610fba611169565b5b828204905092915050565b6000610fd18261105e565b9150610fdc8361105e565b9250817fffffffffffffffffffffffffffffffffffffffffffffffffffffffffffffffff04831182151516156110155761101461113a565b5b828202905092915050565b600061102b8261103e565b9050919050565b60008115159050919050565b600073ffffffffffffffffffffffffffffffffffffffff82169050919050565b6000819050919050565b60006110738261107a565b9050919050565b60006110858261103e565b9050919050565b60005b838110156110aa57808201518184015260208101905061108f565b838111156110b9576000848401525b50505050565b600060028204905060018216806110d757607f821691505b602082108114156110eb576110ea611198565b5b50919050565b60006110fc8261105e565b91507fffffffffffffffffffffffffffffffffffffffffffffffffffffffffffffffff82141561112f5761112e61113a565b5b600182019050919050565b7f4e487b7100000000000000000000000000000000000000000000000000000000600052601160045260246000fd5b7f4e487b7100000000000000000000000000000000000000000000000000000000600052601260045260246000fd5b7f4e487b7100000000000000000000000000000000000000000000000000000000600052602260045260246000fd5b6000601f19601f8301169050919050565b6111e181611020565b81146111ec57600080fd5b50565b6111f881611032565b811461120357600080fd5b50565b61120f8161105e565b811461121a57600080fd5b5056fea26469706673582212204be8096c1c7666c05a7b0b540c13e04ed4dd6f7b273748acec88c7218615106064736f6c63430008000033",
  "immutableReferences": {},
  "source": "pragma solidity ^0.8.0;\r\n\r\nimport \"./PurseToken.sol\";\r\n\r\ncontract PurseDistribution {\r\n    string public name = \"Purse Distribution\";\r\n    PurseToken public purseToken;\r\n    address public owner;\r\n    uint256 public constant releaseDuration = 1 minutes;\r\n    uint256 internal tokenBurnRate = 2;\r\n\r\n\r\n    mapping(address => uint256) public releaseIteration;\r\n    mapping(address => mapping (uint256 => holderInfo)) public holder;  //address->index   \r\n\r\n    struct holderInfo {\r\n        uint256 releaseIteration;\r\n        uint256 distributeAmount;\r\n        uint256 unlockTime;\r\n        bool isRedeem;\r\n    }\r\n\r\n    constructor(PurseToken _purseToken) public {\r\n        purseToken = _purseToken;\r\n        owner = msg.sender;\r\n    }\r\n\r\n    function updateHolderInfo(address _holder, uint256 _amount) public {\r\n        require(msg.sender == owner, 'only owner');\r\n        require(_amount >= 0, 'amount less than 0');\r\n\r\n        releaseIteration[_holder] = 12;\r\n        uint256 part1Amount = (_amount * 12) / 100;\r\n        uint256 part2Amount = (_amount * 8) / 100;       \r\n\r\n        for (uint256 i = 1; i < 13; i++) {\r\n            uint256 unlockTimeStamp = block.timestamp + (releaseDuration*i);\r\n            if (i == 1) {\r\n                holder[_holder][1] = holderInfo(i, part1Amount, unlockTimeStamp, true);\r\n            } else {\r\n                holder[_holder][i] = holderInfo(i, part2Amount, unlockTimeStamp, true);\r\n            }\r\n        }\r\n    }\r\n\r\n    // notice Transfers tokens held by timelock to beneficiary.\r\n    function claim(uint256 _releaseIteration) public {\r\n        require(block.timestamp >= holder[msg.sender][_releaseIteration].unlockTime, 'locked period');\r\n        require(holder[msg.sender][_releaseIteration].isRedeem == true, 'have been redeem');\r\n\r\n        holder[msg.sender][_releaseIteration].isRedeem = false;\r\n        uint256 claimAmount = holder[msg.sender][_releaseIteration].distributeAmount * tokenBurnRate;\r\n        purseToken.transfer(msg.sender, claimAmount);\r\n    }\r\n\r\n    // notice Transfers tokens held by timelock to beneficiary.\r\n    function claimAll() public {\r\n        uint256 claimAmount = 0;\r\n        for (uint256 i = 1; i < 13; i++) {\r\n            if (block.timestamp >= holder[msg.sender][i].unlockTime) {\r\n                if (holder[msg.sender][i].isRedeem == true) {\r\n                    holder[msg.sender][i].isRedeem = false;\r\n                    uint256 holderAmount = holder[msg.sender][i].distributeAmount * tokenBurnRate;\r\n                    claimAmount += holderAmount;                    \r\n                }\r\n            }\r\n        }\r\n        if (claimAmount > 0) {\r\n            purseToken.transfer(msg.sender, claimAmount);\r\n        }        \r\n    }\r\n}\r\n",
  "sourcePath": "C:/Users/cheek/Desktop/Developer doc/Visual Studio Code/PundiX/PurseReward/YieldFarm_BridgeEthBsc/src/contracts/PurseDistribution.sol",
  "compiler": {
    "name": "solc",
    "version": "0.8.0+commit.c7dfd78e.Emscripten.clang"
  },
  "schemaVersion": "3.3.4",
  "updatedAt": "2021-08-11T04:19:20.610Z",
  "networkType": "ethereum",
  "devdoc": {
    "kind": "dev",
    "methods": {},
    "version": 1
  },
  "userdoc": {
    "kind": "user",
    "methods": {},
    "version": 1
  }
}