{
  "contractName": "PurseDistribution",
  "abi": [
    {
      "inputs": [
        {
          "internalType": "contract PurseTokenMultiSigUpgradable",
          "name": "_purseToken",
          "type": "address"
        }
      ],
      "stateMutability": "nonpayable",
      "type": "constructor"
    },
    {
      "inputs": [
        {
          "internalType": "address",
          "name": "",
          "type": "address"
        },
        {
          "internalType": "uint256",
          "name": "",
          "type": "uint256"
        }
      ],
      "name": "holder",
      "outputs": [
        {
          "internalType": "uint256",
          "name": "releaseIteration",
          "type": "uint256"
        },
        {
          "internalType": "uint256",
          "name": "distributeAmount",
          "type": "uint256"
        },
        {
          "internalType": "uint256",
          "name": "unlockTime",
          "type": "uint256"
        },
        {
          "internalType": "bool",
          "name": "isRedeem",
          "type": "bool"
        }
      ],
      "stateMutability": "view",
      "type": "function",
      "constant": true
    },
    {
      "inputs": [],
      "name": "name",
      "outputs": [
        {
          "internalType": "string",
          "name": "",
          "type": "string"
        }
      ],
      "stateMutability": "view",
      "type": "function",
      "constant": true
    },
    {
      "inputs": [],
      "name": "owner",
      "outputs": [
        {
          "internalType": "address",
          "name": "",
          "type": "address"
        }
      ],
      "stateMutability": "view",
      "type": "function",
      "constant": true
    },
    {
      "inputs": [],
      "name": "purseToken",
      "outputs": [
        {
          "internalType": "contract PurseTokenMultiSigUpgradable",
          "name": "",
          "type": "address"
        }
      ],
      "stateMutability": "view",
      "type": "function",
      "constant": true
    },
    {
      "inputs": [],
      "name": "releaseDuration",
      "outputs": [
        {
          "internalType": "uint256",
          "name": "",
          "type": "uint256"
        }
      ],
      "stateMutability": "view",
      "type": "function",
      "constant": true
    },
    {
      "inputs": [
        {
          "internalType": "address",
          "name": "",
          "type": "address"
        }
      ],
      "name": "releaseIteration",
      "outputs": [
        {
          "internalType": "uint256",
          "name": "",
          "type": "uint256"
        }
      ],
      "stateMutability": "view",
      "type": "function",
      "constant": true
    },
    {
      "inputs": [
        {
          "internalType": "address",
          "name": "_holder",
          "type": "address"
        },
        {
          "internalType": "uint256",
          "name": "_amount",
          "type": "uint256"
        }
      ],
      "name": "updateHolderInfoFirst",
      "outputs": [],
      "stateMutability": "nonpayable",
      "type": "function"
    },
    {
      "inputs": [
        {
          "internalType": "address",
          "name": "_holder",
          "type": "address"
        },
        {
          "internalType": "uint256",
          "name": "_amount",
          "type": "uint256"
        },
        {
          "internalType": "uint256",
          "name": "_iteration",
          "type": "uint256"
        }
      ],
      "name": "updateHolderInfoRemaining",
      "outputs": [],
      "stateMutability": "nonpayable",
      "type": "function"
    },
    {
      "inputs": [
        {
          "internalType": "uint256",
          "name": "_releaseIteration",
          "type": "uint256"
        }
      ],
      "name": "claim",
      "outputs": [],
      "stateMutability": "nonpayable",
      "type": "function"
    },
    {
      "inputs": [],
      "name": "claimAll",
      "outputs": [],
      "stateMutability": "nonpayable",
      "type": "function"
    }
  ],
  "bytecode": "0x60806040526040518060400160405280601281526020017f507572736520446973747269627574696f6e000000000000000000000000000081525060009080519060200190620000519291906200010e565b503480156200005f57600080fd5b50604051620016e6380380620016e68339818101604052810190620000859190620001d5565b80600160006101000a81548173ffffffffffffffffffffffffffffffffffffffff021916908373ffffffffffffffffffffffffffffffffffffffff16021790555033600260006101000a81548173ffffffffffffffffffffffffffffffffffffffff021916908373ffffffffffffffffffffffffffffffffffffffff16021790555050620002c8565b8280546200011c9062000249565b90600052602060002090601f0160209004810192826200014057600085556200018c565b82601f106200015b57805160ff19168380011785556200018c565b828001600101855582156200018c579182015b828111156200018b5782518255916020019190600101906200016e565b5b5090506200019b91906200019f565b5090565b5b80821115620001ba576000816000905550600101620001a0565b5090565b600081519050620001cf81620002ae565b92915050565b600060208284031215620001e857600080fd5b6000620001f884828501620001be565b91505092915050565b60006200020e8262000229565b9050919050565b6000620002228262000201565b9050919050565b600073ffffffffffffffffffffffffffffffffffffffff82169050919050565b600060028204905060018216806200026257607f821691505b602082108114156200027957620002786200027f565b5b50919050565b7f4e487b7100000000000000000000000000000000000000000000000000000000600052602260045260246000fd5b620002b98162000215565b8114620002c557600080fd5b50565b61140e80620002d86000396000f3fe608060405234801561001057600080fd5b506004361061009e5760003560e01c806351bf16ef1161006657806351bf16ef1461015c5780638da5cb5b1461017a578063a8c23a9814610198578063d1058e59146101b4578063f9b41891146101be5761009e565b806306fdde03146100a357806325b0da02146100c157806329a512fd146100dd578063379607f51461010d5780633f594c4f14610129575b600080fd5b6100ab6101dc565b6040516100b89190610f38565b60405180910390f35b6100db60048036038101906100d69190610cfb565b61026a565b005b6100f760048036038101906100f29190610cd2565b61046e565b6040516101049190610fda565b60405180910390f35b61012760048036038101906101229190610daf565b610486565b005b610143600480360381019061013e9190610cfb565b61073b565b6040516101539493929190610ff5565b60405180910390f35b610164610785565b6040516101719190610f1d565b60405180910390f35b6101826107ab565b60405161018f9190610ed9565b60405180910390f35b6101b260048036038101906101ad9190610d37565b6107d1565b005b6101bc6109d3565b005b6101c6610c8e565b6040516101d39190610fda565b60405180910390f35b600080546101e9906111d6565b80601f0160208091040260200160405190810160405280929190818152602001828054610215906111d6565b80156102625780601f1061023757610100808354040283529160200191610262565b820191906000526020600020905b81548152906001019060200180831161024557829003601f168201915b505050505081565b600260009054906101000a900473ffffffffffffffffffffffffffffffffffffffff1673ffffffffffffffffffffffffffffffffffffffff163373ffffffffffffffffffffffffffffffffffffffff16146102fa576040517f08c379a00000000000000000000000000000000000000000000000000000000081526004016102f190610f9a565b60405180910390fd5b600081101561033e576040517f08c379a000000000000000000000000000000000000000000000000000000000815260040161033590610fba565b60405180910390fd5b60006064600c8361034f91906110dd565b61035991906110ac565b90506000603c4261036a9190611056565b905060405180608001604052806001815260200183815260200182815260200160011515815250600460008673ffffffffffffffffffffffffffffffffffffffff1673ffffffffffffffffffffffffffffffffffffffff16815260200190815260200160002060006001815260200190815260200160002060008201518160000155602082015181600101556040820151816002015560608201518160030160006101000a81548160ff0219169083151502179055509050506001600360008673ffffffffffffffffffffffffffffffffffffffff1673ffffffffffffffffffffffffffffffffffffffff1681526020019081526020016000208190555050505050565b60036020528060005260406000206000915090505481565b600460003373ffffffffffffffffffffffffffffffffffffffff1673ffffffffffffffffffffffffffffffffffffffff16815260200190815260200160002060008281526020019081526020016000206002015442101561051c576040517f08c379a000000000000000000000000000000000000000000000000000000000815260040161051390610f5a565b60405180910390fd5b60011515600460003373ffffffffffffffffffffffffffffffffffffffff1673ffffffffffffffffffffffffffffffffffffffff168152602001908152602001600020600083815260200190815260200160002060030160009054906101000a900460ff161515146105c3576040517f08c379a00000000000000000000000000000000000000000000000000000000081526004016105ba90610f7a565b60405180910390fd5b6000600460003373ffffffffffffffffffffffffffffffffffffffff1673ffffffffffffffffffffffffffffffffffffffff168152602001908152602001600020600083815260200190815260200160002060030160006101000a81548160ff0219169083151502179055506000600460003373ffffffffffffffffffffffffffffffffffffffff1673ffffffffffffffffffffffffffffffffffffffff1681526020019081526020016000206000838152602001908152602001600020600101549050600160009054906101000a900473ffffffffffffffffffffffffffffffffffffffff1673ffffffffffffffffffffffffffffffffffffffff1663a9059cbb33836040518363ffffffff1660e01b81526004016106e4929190610ef4565b602060405180830381600087803b1580156106fe57600080fd5b505af1158015610712573d6000803e3d6000fd5b505050506040513d601f19601f820116820180604052508101906107369190610d86565b505050565b6004602052816000526040600020602052806000526040600020600091509150508060000154908060010154908060020154908060030160009054906101000a900460ff16905084565b600160009054906101000a900473ffffffffffffffffffffffffffffffffffffffff1681565b600260009054906101000a900473ffffffffffffffffffffffffffffffffffffffff1681565b600260009054906101000a900473ffffffffffffffffffffffffffffffffffffffff1673ffffffffffffffffffffffffffffffffffffffff163373ffffffffffffffffffffffffffffffffffffffff1614610861576040517f08c379a000000000000000000000000000000000000000000000000000000000815260040161085890610f9a565b60405180910390fd5b60008210156108a5576040517f08c379a000000000000000000000000000000000000000000000000000000000815260040161089c90610fba565b60405180910390fd5b600060646008846108b691906110dd565b6108c091906110ac565b90506000603c426108d19190611056565b9050604051806080016040528084815260200183815260200182815260200160011515815250600460008773ffffffffffffffffffffffffffffffffffffffff1673ffffffffffffffffffffffffffffffffffffffff168152602001908152602001600020600085815260200190815260200160002060008201518160000155602082015181600101556040820151816002015560608201518160030160006101000a81548160ff02191690831515021790555090505082600360008773ffffffffffffffffffffffffffffffffffffffff1673ffffffffffffffffffffffffffffffffffffffff168152602001908152602001600020819055505050505050565b600080600190505b600360003373ffffffffffffffffffffffffffffffffffffffff1673ffffffffffffffffffffffffffffffffffffffff168152602001908152602001600020548111610bd057600460003373ffffffffffffffffffffffffffffffffffffffff1673ffffffffffffffffffffffffffffffffffffffff1681526020019081526020016000206000828152602001908152602001600020600201544210610bbd5760011515600460003373ffffffffffffffffffffffffffffffffffffffff1673ffffffffffffffffffffffffffffffffffffffff168152602001908152602001600020600083815260200190815260200160002060030160009054906101000a900460ff1615151415610bbc576000600460003373ffffffffffffffffffffffffffffffffffffffff1673ffffffffffffffffffffffffffffffffffffffff168152602001908152602001600020600083815260200190815260200160002060030160006101000a81548160ff0219169083151502179055506000600460003373ffffffffffffffffffffffffffffffffffffffff1673ffffffffffffffffffffffffffffffffffffffff16815260200190815260200160002060008381526020019081526020016000206001015490508083610bb89190611056565b9250505b5b8080610bc890611208565b9150506109db565b506000811115610c8b57600160009054906101000a900473ffffffffffffffffffffffffffffffffffffffff1673ffffffffffffffffffffffffffffffffffffffff1663a9059cbb33836040518363ffffffff1660e01b8152600401610c37929190610ef4565b602060405180830381600087803b158015610c5157600080fd5b505af1158015610c65573d6000803e3d6000fd5b505050506040513d601f19601f82011682018060405250810190610c899190610d86565b505b50565b603c81565b600081359050610ca281611393565b92915050565b600081519050610cb7816113aa565b92915050565b600081359050610ccc816113c1565b92915050565b600060208284031215610ce457600080fd5b6000610cf284828501610c93565b91505092915050565b60008060408385031215610d0e57600080fd5b6000610d1c85828601610c93565b9250506020610d2d85828601610cbd565b9150509250929050565b600080600060608486031215610d4c57600080fd5b6000610d5a86828701610c93565b9350506020610d6b86828701610cbd565b9250506040610d7c86828701610cbd565b9150509250925092565b600060208284031215610d9857600080fd5b6000610da684828501610ca8565b91505092915050565b600060208284031215610dc157600080fd5b6000610dcf84828501610cbd565b91505092915050565b610de181611137565b82525050565b610df081611149565b82525050565b610dff8161117f565b82525050565b6000610e108261103a565b610e1a8185611045565b9350610e2a8185602086016111a3565b610e33816112de565b840191505092915050565b6000610e4b600d83611045565b9150610e56826112ef565b602082019050919050565b6000610e6e601083611045565b9150610e7982611318565b602082019050919050565b6000610e91600a83611045565b9150610e9c82611341565b602082019050919050565b6000610eb4601283611045565b9150610ebf8261136a565b602082019050919050565b610ed381611175565b82525050565b6000602082019050610eee6000830184610dd8565b92915050565b6000604082019050610f096000830185610dd8565b610f166020830184610eca565b9392505050565b6000602082019050610f326000830184610df6565b92915050565b60006020820190508181036000830152610f528184610e05565b905092915050565b60006020820190508181036000830152610f7381610e3e565b9050919050565b60006020820190508181036000830152610f9381610e61565b9050919050565b60006020820190508181036000830152610fb381610e84565b9050919050565b60006020820190508181036000830152610fd381610ea7565b9050919050565b6000602082019050610fef6000830184610eca565b92915050565b600060808201905061100a6000830187610eca565b6110176020830186610eca565b6110246040830185610eca565b6110316060830184610de7565b95945050505050565b600081519050919050565b600082825260208201905092915050565b600061106182611175565b915061106c83611175565b9250827fffffffffffffffffffffffffffffffffffffffffffffffffffffffffffffffff038211156110a1576110a0611251565b5b828201905092915050565b60006110b782611175565b91506110c283611175565b9250826110d2576110d1611280565b5b828204905092915050565b60006110e882611175565b91506110f383611175565b9250817fffffffffffffffffffffffffffffffffffffffffffffffffffffffffffffffff048311821515161561112c5761112b611251565b5b828202905092915050565b600061114282611155565b9050919050565b60008115159050919050565b600073ffffffffffffffffffffffffffffffffffffffff82169050919050565b6000819050919050565b600061118a82611191565b9050919050565b600061119c82611155565b9050919050565b60005b838110156111c15780820151818401526020810190506111a6565b838111156111d0576000848401525b50505050565b600060028204905060018216806111ee57607f821691505b60208210811415611202576112016112af565b5b50919050565b600061121382611175565b91507fffffffffffffffffffffffffffffffffffffffffffffffffffffffffffffffff82141561124657611245611251565b5b600182019050919050565b7f4e487b7100000000000000000000000000000000000000000000000000000000600052601160045260246000fd5b7f4e487b7100000000000000000000000000000000000000000000000000000000600052601260045260246000fd5b7f4e487b7100000000000000000000000000000000000000000000000000000000600052602260045260246000fd5b6000601f19601f8301169050919050565b7f6c6f636b656420706572696f6400000000000000000000000000000000000000600082015250565b7f68617665206265656e2072656465656d00000000000000000000000000000000600082015250565b7f6f6e6c79206f776e657200000000000000000000000000000000000000000000600082015250565b7f616d6f756e74206c657373207468616e20300000000000000000000000000000600082015250565b61139c81611137565b81146113a757600080fd5b50565b6113b381611149565b81146113be57600080fd5b50565b6113ca81611175565b81146113d557600080fd5b5056fea2646970667358221220503001504536f7e4b923db2349febd4ae31f145f2073bb943bee5fde5d7e92cb64736f6c63430008030033",
  "immutableReferences": {},
  "source": "// SPDX-License-Identifier: UNLICENSED\r\n\r\npragma solidity ^0.8.0;\r\n\r\nimport \"./PurseTokenMultiSigUpgradable.sol\";\r\n\r\ncontract PurseDistribution {\r\n    string public name = \"Purse Distribution\";\r\n    PurseTokenMultiSigUpgradable public purseToken;\r\n    address public owner;\r\n    uint256 public constant releaseDuration = 1 minutes;   //change this to month for production\r\n\r\n\r\n\r\n    mapping(address => uint256) public releaseIteration;\r\n    mapping(address => mapping (uint256 => holderInfo)) public holder;  //address->index   \r\n\r\n    struct holderInfo {\r\n        uint256 releaseIteration;\r\n        uint256 distributeAmount;\r\n        uint256 unlockTime;\r\n        bool isRedeem;\r\n    }\r\n\r\n    constructor(PurseTokenMultiSigUpgradable _purseToken) public {\r\n        purseToken = _purseToken;\r\n        owner = msg.sender;\r\n    }\r\n\r\n    function updateHolderInfoFirst(address _holder, uint256 _amount) public {\r\n        require(msg.sender == owner, 'only owner');\r\n        require(_amount >= 0, 'amount less than 0');\r\n\r\n        uint256 part1Amount = (_amount * 12) / 100;\r\n        uint256 unlockTimeStamp = block.timestamp + releaseDuration;\r\n        holder[_holder][1] = holderInfo(1, part1Amount, unlockTimeStamp, true);\r\n        releaseIteration[_holder] = 1;\r\n\r\n    }\r\n\r\n    function updateHolderInfoRemaining(address _holder, uint256 _amount, uint256 _iteration) public {\r\n        require(msg.sender == owner, 'only owner');\r\n        require(_amount >= 0, 'amount less than 0');\r\n\r\n        uint256 part2Amount = (_amount * 8) / 100;       \r\n\r\n        uint256 unlockTimeStamp = block.timestamp + releaseDuration;\r\n        holder[_holder][_iteration] = holderInfo(_iteration, part2Amount, unlockTimeStamp, true);\r\n        releaseIteration[_holder] = _iteration;\r\n    }\r\n\r\n    // notice Transfers tokens held by timelock to beneficiary.\r\n    function claim(uint256 _releaseIteration) public {\r\n        require(block.timestamp >= holder[msg.sender][_releaseIteration].unlockTime, 'locked period');\r\n        require(holder[msg.sender][_releaseIteration].isRedeem == true, 'have been redeem');\r\n\r\n        holder[msg.sender][_releaseIteration].isRedeem = false;\r\n        uint256 claimAmount = holder[msg.sender][_releaseIteration].distributeAmount;\r\n        purseToken.transfer(msg.sender, claimAmount);\r\n    }\r\n\r\n    // notice Transfers tokens held by timelock to beneficiary.\r\n    function claimAll() public {\r\n        uint256 claimAmount = 0;\r\n        for (uint256 i = 1; i <= releaseIteration[msg.sender]; i++) {\r\n            if (block.timestamp >= holder[msg.sender][i].unlockTime) {\r\n                if (holder[msg.sender][i].isRedeem == true) {\r\n                    holder[msg.sender][i].isRedeem = false;\r\n                    uint256 holderAmount = holder[msg.sender][i].distributeAmount;\r\n                    claimAmount += holderAmount;                    \r\n                }\r\n            }\r\n        }\r\n        if (claimAmount > 0) {\r\n            purseToken.transfer(msg.sender, claimAmount);\r\n        }        \r\n    }\r\n}\r\n",
  "sourcePath": "C:/Users/cheek/Desktop/Developer doc/Visual Studio Code/PundiX/PurseReward/YieldFarm_BridgeEthBsc/src/contracts/PurseDistribution.sol",
  "compiler": {
    "name": "solc",
    "version": "0.8.3+commit.8d00100c.Emscripten.clang"
  },
  "schemaVersion": "3.2.3",
  "updatedAt": "2021-08-27T07:15:10.859Z",
  "networkType": "ethereum",
  "devdoc": {
    "kind": "dev",
    "methods": {},
    "version": 1
  },
  "userdoc": {
    "kind": "user",
    "methods": {},
    "version": 1
  }
}