{
  "contractName": "PurseDistribution",
  "abi": [
    {
      "inputs": [
        {
          "internalType": "contract PurseTokenMultiSigUpgradable",
          "name": "_purseToken",
          "type": "address"
        }
      ],
      "stateMutability": "nonpayable",
      "type": "constructor"
    },
    {
      "inputs": [
        {
          "internalType": "address",
          "name": "",
          "type": "address"
        },
        {
          "internalType": "uint256",
          "name": "",
          "type": "uint256"
        }
      ],
      "name": "holder",
      "outputs": [
        {
          "internalType": "uint256",
          "name": "releaseIteration",
          "type": "uint256"
        },
        {
          "internalType": "uint256",
          "name": "distributeAmount",
          "type": "uint256"
        },
        {
          "internalType": "bool",
          "name": "isRedeem",
          "type": "bool"
        }
      ],
      "stateMutability": "view",
      "type": "function",
      "constant": true
    },
    {
      "inputs": [],
      "name": "name",
      "outputs": [
        {
          "internalType": "string",
          "name": "",
          "type": "string"
        }
      ],
      "stateMutability": "view",
      "type": "function",
      "constant": true
    },
    {
      "inputs": [],
      "name": "owner",
      "outputs": [
        {
          "internalType": "address",
          "name": "",
          "type": "address"
        }
      ],
      "stateMutability": "view",
      "type": "function",
      "constant": true
    },
    {
      "inputs": [],
      "name": "purseToken",
      "outputs": [
        {
          "internalType": "contract PurseTokenMultiSigUpgradable",
          "name": "",
          "type": "address"
        }
      ],
      "stateMutability": "view",
      "type": "function",
      "constant": true
    },
    {
      "inputs": [
        {
          "internalType": "address",
          "name": "",
          "type": "address"
        }
      ],
      "name": "releaseIteration",
      "outputs": [
        {
          "internalType": "uint256",
          "name": "",
          "type": "uint256"
        }
      ],
      "stateMutability": "view",
      "type": "function",
      "constant": true
    },
    {
      "inputs": [
        {
          "internalType": "address",
          "name": "_holder",
          "type": "address"
        },
        {
          "internalType": "uint256",
          "name": "_amount",
          "type": "uint256"
        }
      ],
      "name": "updateHolderInfoFirst",
      "outputs": [],
      "stateMutability": "nonpayable",
      "type": "function"
    },
    {
      "inputs": [
        {
          "internalType": "address",
          "name": "_holder",
          "type": "address"
        },
        {
          "internalType": "uint256",
          "name": "_amount",
          "type": "uint256"
        },
        {
          "internalType": "uint256",
          "name": "_iteration",
          "type": "uint256"
        }
      ],
      "name": "updateHolderInfoRemaining",
      "outputs": [],
      "stateMutability": "nonpayable",
      "type": "function"
    },
    {
      "inputs": [
        {
          "internalType": "uint256",
          "name": "_releaseIteration",
          "type": "uint256"
        }
      ],
      "name": "claim",
      "outputs": [],
      "stateMutability": "nonpayable",
      "type": "function"
    },
    {
      "inputs": [],
      "name": "claimAll",
      "outputs": [],
      "stateMutability": "nonpayable",
      "type": "function"
    }
  ],
  "bytecode": "0x60806040526040518060400160405280601281526020017f507572736520446973747269627574696f6e000000000000000000000000000081525060009080519060200190620000519291906200010e565b503480156200005f57600080fd5b506040516200140c3803806200140c8339818101604052810190620000859190620001d5565b80600160006101000a81548173ffffffffffffffffffffffffffffffffffffffff021916908373ffffffffffffffffffffffffffffffffffffffff16021790555033600260006101000a81548173ffffffffffffffffffffffffffffffffffffffff021916908373ffffffffffffffffffffffffffffffffffffffff16021790555050620002c8565b8280546200011c9062000249565b90600052602060002090601f0160209004810192826200014057600085556200018c565b82601f106200015b57805160ff19168380011785556200018c565b828001600101855582156200018c579182015b828111156200018b5782518255916020019190600101906200016e565b5b5090506200019b91906200019f565b5090565b5b80821115620001ba576000816000905550600101620001a0565b5090565b600081519050620001cf81620002ae565b92915050565b600060208284031215620001e857600080fd5b6000620001f884828501620001be565b91505092915050565b60006200020e8262000229565b9050919050565b6000620002228262000201565b9050919050565b600073ffffffffffffffffffffffffffffffffffffffff82169050919050565b600060028204905060018216806200026257607f821691505b602082108114156200027957620002786200027f565b5b50919050565b7f4e487b7100000000000000000000000000000000000000000000000000000000600052602260045260246000fd5b620002b98162000215565b8114620002c557600080fd5b50565b61113480620002d86000396000f3fe608060405234801561001057600080fd5b50600436106100935760003560e01c80633f594c4f116100665780633f594c4f1461011e57806351bf16ef146101505780638da5cb5b1461016e578063a8c23a981461018c578063d1058e59146101a857610093565b806306fdde031461009857806325b0da02146100b657806329a512fd146100d2578063379607f514610102575b600080fd5b6100a06101b2565b6040516100ad9190610d6f565b60405180910390f35b6100d060048036038101906100cb9190610b55565b610240565b005b6100ec60048036038101906100e79190610b2c565b610404565b6040516100f99190610df1565b60405180910390f35b61011c60048036038101906101179190610c09565b61041c565b005b61013860048036038101906101339190610b55565b61063b565b60405161014793929190610e0c565b60405180910390f35b61015861067f565b6040516101659190610d54565b60405180910390f35b6101766106a5565b6040516101839190610d10565b60405180910390f35b6101a660048036038101906101a19190610b91565b6106cb565b005b6101b061088d565b005b600080546101bf90610f54565b80601f01602080910402602001604051908101604052809291908181526020018280546101eb90610f54565b80156102385780601f1061020d57610100808354040283529160200191610238565b820191906000526020600020905b81548152906001019060200180831161021b57829003601f168201915b505050505081565b600260009054906101000a900473ffffffffffffffffffffffffffffffffffffffff1673ffffffffffffffffffffffffffffffffffffffff163373ffffffffffffffffffffffffffffffffffffffff16146102d0576040517f08c379a00000000000000000000000000000000000000000000000000000000081526004016102c790610db1565b60405180910390fd5b6000811015610314576040517f08c379a000000000000000000000000000000000000000000000000000000000815260040161030b90610dd1565b60405180910390fd5b60405180606001604052806001815260200182815260200160011515815250600460008473ffffffffffffffffffffffffffffffffffffffff1673ffffffffffffffffffffffffffffffffffffffff168152602001908152602001600020600060018152602001908152602001600020600082015181600001556020820151816001015560408201518160020160006101000a81548160ff0219169083151502179055509050506001600360008473ffffffffffffffffffffffffffffffffffffffff1673ffffffffffffffffffffffffffffffffffffffff168152602001908152602001600020819055505050565b60036020528060005260406000206000915090505481565b60011515600460003373ffffffffffffffffffffffffffffffffffffffff1673ffffffffffffffffffffffffffffffffffffffff168152602001908152602001600020600083815260200190815260200160002060020160009054906101000a900460ff161515146104c3576040517f08c379a00000000000000000000000000000000000000000000000000000000081526004016104ba90610d91565b60405180910390fd5b6000600460003373ffffffffffffffffffffffffffffffffffffffff1673ffffffffffffffffffffffffffffffffffffffff168152602001908152602001600020600083815260200190815260200160002060020160006101000a81548160ff0219169083151502179055506000600460003373ffffffffffffffffffffffffffffffffffffffff1673ffffffffffffffffffffffffffffffffffffffff1681526020019081526020016000206000838152602001908152602001600020600101549050600160009054906101000a900473ffffffffffffffffffffffffffffffffffffffff1673ffffffffffffffffffffffffffffffffffffffff1663a9059cbb33836040518363ffffffff1660e01b81526004016105e4929190610d2b565b602060405180830381600087803b1580156105fe57600080fd5b505af1158015610612573d6000803e3d6000fd5b505050506040513d601f19601f820116820180604052508101906106369190610be0565b505050565b6004602052816000526040600020602052806000526040600020600091509150508060000154908060010154908060020160009054906101000a900460ff16905083565b600160009054906101000a900473ffffffffffffffffffffffffffffffffffffffff1681565b600260009054906101000a900473ffffffffffffffffffffffffffffffffffffffff1681565b600260009054906101000a900473ffffffffffffffffffffffffffffffffffffffff1673ffffffffffffffffffffffffffffffffffffffff163373ffffffffffffffffffffffffffffffffffffffff161461075b576040517f08c379a000000000000000000000000000000000000000000000000000000000815260040161075290610db1565b60405180910390fd5b600082101561079f576040517f08c379a000000000000000000000000000000000000000000000000000000000815260040161079690610dd1565b60405180910390fd5b604051806060016040528082815260200183815260200160011515815250600460008573ffffffffffffffffffffffffffffffffffffffff1673ffffffffffffffffffffffffffffffffffffffff1681526020019081526020016000206000838152602001908152602001600020600082015181600001556020820151816001015560408201518160020160006101000a81548160ff02191690831515021790555090505080600360008573ffffffffffffffffffffffffffffffffffffffff1673ffffffffffffffffffffffffffffffffffffffff16815260200190815260200160002081905550505050565b600080600190505b600360003373ffffffffffffffffffffffffffffffffffffffff1673ffffffffffffffffffffffffffffffffffffffff168152602001908152602001600020548111610a2f5760011515600460003373ffffffffffffffffffffffffffffffffffffffff1673ffffffffffffffffffffffffffffffffffffffff168152602001908152602001600020600083815260200190815260200160002060020160009054906101000a900460ff1615151415610a1c576000600460003373ffffffffffffffffffffffffffffffffffffffff1673ffffffffffffffffffffffffffffffffffffffff168152602001908152602001600020600083815260200190815260200160002060020160006101000a81548160ff0219169083151502179055506000600460003373ffffffffffffffffffffffffffffffffffffffff1673ffffffffffffffffffffffffffffffffffffffff16815260200190815260200160002060008381526020019081526020016000206001015490508083610a189190610e5f565b9250505b8080610a2790610f86565b915050610895565b506000811115610aea57600160009054906101000a900473ffffffffffffffffffffffffffffffffffffffff1673ffffffffffffffffffffffffffffffffffffffff1663a9059cbb33836040518363ffffffff1660e01b8152600401610a96929190610d2b565b602060405180830381600087803b158015610ab057600080fd5b505af1158015610ac4573d6000803e3d6000fd5b505050506040513d601f19601f82011682018060405250810190610ae89190610be0565b505b50565b600081359050610afc816110b9565b92915050565b600081519050610b11816110d0565b92915050565b600081359050610b26816110e7565b92915050565b600060208284031215610b3e57600080fd5b6000610b4c84828501610aed565b91505092915050565b60008060408385031215610b6857600080fd5b6000610b7685828601610aed565b9250506020610b8785828601610b17565b9150509250929050565b600080600060608486031215610ba657600080fd5b6000610bb486828701610aed565b9350506020610bc586828701610b17565b9250506040610bd686828701610b17565b9150509250925092565b600060208284031215610bf257600080fd5b6000610c0084828501610b02565b91505092915050565b600060208284031215610c1b57600080fd5b6000610c2984828501610b17565b91505092915050565b610c3b81610eb5565b82525050565b610c4a81610ec7565b82525050565b610c5981610efd565b82525050565b6000610c6a82610e43565b610c748185610e4e565b9350610c84818560208601610f21565b610c8d8161102d565b840191505092915050565b6000610ca5601083610e4e565b9150610cb08261103e565b602082019050919050565b6000610cc8600a83610e4e565b9150610cd382611067565b602082019050919050565b6000610ceb601283610e4e565b9150610cf682611090565b602082019050919050565b610d0a81610ef3565b82525050565b6000602082019050610d256000830184610c32565b92915050565b6000604082019050610d406000830185610c32565b610d4d6020830184610d01565b9392505050565b6000602082019050610d696000830184610c50565b92915050565b60006020820190508181036000830152610d898184610c5f565b905092915050565b60006020820190508181036000830152610daa81610c98565b9050919050565b60006020820190508181036000830152610dca81610cbb565b9050919050565b60006020820190508181036000830152610dea81610cde565b9050919050565b6000602082019050610e066000830184610d01565b92915050565b6000606082019050610e216000830186610d01565b610e2e6020830185610d01565b610e3b6040830184610c41565b949350505050565b600081519050919050565b600082825260208201905092915050565b6000610e6a82610ef3565b9150610e7583610ef3565b9250827fffffffffffffffffffffffffffffffffffffffffffffffffffffffffffffffff03821115610eaa57610ea9610fcf565b5b828201905092915050565b6000610ec082610ed3565b9050919050565b60008115159050919050565b600073ffffffffffffffffffffffffffffffffffffffff82169050919050565b6000819050919050565b6000610f0882610f0f565b9050919050565b6000610f1a82610ed3565b9050919050565b60005b83811015610f3f578082015181840152602081019050610f24565b83811115610f4e576000848401525b50505050565b60006002820490506001821680610f6c57607f821691505b60208210811415610f8057610f7f610ffe565b5b50919050565b6000610f9182610ef3565b91507fffffffffffffffffffffffffffffffffffffffffffffffffffffffffffffffff821415610fc457610fc3610fcf565b5b600182019050919050565b7f4e487b7100000000000000000000000000000000000000000000000000000000600052601160045260246000fd5b7f4e487b7100000000000000000000000000000000000000000000000000000000600052602260045260246000fd5b6000601f19601f8301169050919050565b7f68617665206265656e2072656465656d00000000000000000000000000000000600082015250565b7f6f6e6c79206f776e657200000000000000000000000000000000000000000000600082015250565b7f616d6f756e74206c657373207468616e20300000000000000000000000000000600082015250565b6110c281610eb5565b81146110cd57600080fd5b50565b6110d981610ec7565b81146110e457600080fd5b50565b6110f081610ef3565b81146110fb57600080fd5b5056fea26469706673582212203e77bf749da1a1e6d69a02da05ae189a7c8c0614f60670d232043c978eeaa8c964736f6c63430008030033",
  "immutableReferences": {},
  "source": "// SPDX-License-Identifier: UNLICENSED\r\n\r\npragma solidity ^0.8.0;\r\n\r\nimport \"./PurseTokenMultiSigUpgradable.sol\";\r\n\r\ncontract PurseDistribution {\r\n    string public name = \"Purse Distribution\";\r\n    PurseTokenMultiSigUpgradable public purseToken;\r\n    address public owner;\r\n\r\n    mapping(address => uint256) public releaseIteration;\r\n    mapping(address => mapping (uint256 => holderInfo)) public holder;  //address->index   \r\n\r\n    struct holderInfo {\r\n        uint256 releaseIteration;\r\n        uint256 distributeAmount;\r\n        bool isRedeem;\r\n    }\r\n\r\n    constructor(PurseTokenMultiSigUpgradable _purseToken) public {\r\n        purseToken = _purseToken;\r\n        owner = msg.sender;\r\n    }\r\n\r\n    function updateHolderInfoFirst(address _holder, uint256 _amount) public {\r\n        require(msg.sender == owner, 'only owner');\r\n        require(_amount >= 0, 'amount less than 0');\r\n        holder[_holder][1] = holderInfo(1, _amount, true);\r\n        releaseIteration[_holder] = 1;\r\n        // uint256 i = 0;\r\n        // for (i; i < _holder.length; i++) {\r\n        //     holder[_holder[i]][1] = holderInfo(1, _amount[i], true);\r\n        //     releaseIteration[_holder[i]] = 1;     \r\n        // }\r\n    }\r\n\r\n    function updateHolderInfoRemaining(address _holder, uint256 _amount, uint256 _iteration) public {\r\n        require(msg.sender == owner, 'only owner');\r\n        require(_amount >= 0, 'amount less than 0');\r\n\r\n        holder[_holder][_iteration] = holderInfo(_iteration, _amount, true);\r\n        releaseIteration[_holder] = _iteration;\r\n    }\r\n\r\n    // notice Transfers tokens held by timelock to beneficiary.\r\n    function claim(uint256 _releaseIteration) public {\r\n        require(holder[msg.sender][_releaseIteration].isRedeem == true, 'have been redeem');\r\n\r\n        holder[msg.sender][_releaseIteration].isRedeem = false;\r\n        uint256 claimAmount = holder[msg.sender][_releaseIteration].distributeAmount;\r\n        purseToken.transfer(msg.sender, claimAmount);\r\n    }\r\n\r\n    // notice Transfers tokens held by timelock to beneficiary.\r\n    function claimAll() public {\r\n        uint256 claimAmount = 0;\r\n        for (uint256 i = 1; i <= releaseIteration[msg.sender]; i++) {\r\n                if (holder[msg.sender][i].isRedeem == true) {\r\n                    holder[msg.sender][i].isRedeem = false;\r\n                    uint256 holderAmount = holder[msg.sender][i].distributeAmount;\r\n                    claimAmount += holderAmount;                    \r\n                }\r\n        }\r\n        if (claimAmount > 0) {\r\n            purseToken.transfer(msg.sender, claimAmount);\r\n        }        \r\n    }\r\n}\r\n",
  "sourcePath": "C:/Users/cheek/Desktop/Developer doc/Visual Studio Code/PundiX/PurseReward/YieldFarm_BridgeEthBsc/src/contracts/PurseDistribution.sol",
  "compiler": {
    "name": "solc",
    "version": "0.8.3+commit.8d00100c.Emscripten.clang"
  },
  "schemaVersion": "3.2.3",
  "updatedAt": "2021-08-31T07:51:38.304Z",
  "networkType": "ethereum",
  "devdoc": {
    "kind": "dev",
    "methods": {},
    "version": 1
  },
  "userdoc": {
    "kind": "user",
    "methods": {},
    "version": 1
  }
}