{
  "contractName": "PurseDistribution",
  "abi": [
    {
      "inputs": [
        {
          "internalType": "contract PurseTokenMultiSigUpgradable",
          "name": "_purseToken",
          "type": "address"
        }
      ],
      "stateMutability": "nonpayable",
      "type": "constructor"
    },
    {
      "anonymous": false,
      "inputs": [
        {
          "indexed": true,
          "internalType": "address",
          "name": "sender",
          "type": "address"
        },
        {
          "indexed": false,
          "internalType": "uint32",
          "name": "iteration",
          "type": "uint32"
        }
      ],
      "name": "addHolder",
      "type": "event"
    },
    {
      "anonymous": false,
      "inputs": [
        {
          "indexed": true,
          "internalType": "address",
          "name": "owner",
          "type": "address"
        },
        {
          "indexed": false,
          "internalType": "uint256",
          "name": "amount",
          "type": "uint256"
        },
        {
          "indexed": false,
          "internalType": "uint32",
          "name": "Iteration_End",
          "type": "uint32"
        }
      ],
      "name": "claimAllReward",
      "type": "event"
    },
    {
      "anonymous": false,
      "inputs": [
        {
          "indexed": true,
          "internalType": "address",
          "name": "owner",
          "type": "address"
        },
        {
          "indexed": false,
          "internalType": "uint256",
          "name": "amount",
          "type": "uint256"
        },
        {
          "indexed": true,
          "internalType": "uint32",
          "name": "Iteration",
          "type": "uint32"
        }
      ],
      "name": "claimReward",
      "type": "event"
    },
    {
      "anonymous": false,
      "inputs": [
        {
          "indexed": true,
          "internalType": "address",
          "name": "sender",
          "type": "address"
        },
        {
          "indexed": false,
          "internalType": "uint32",
          "name": "iteration",
          "type": "uint32"
        }
      ],
      "name": "updateHolder",
      "type": "event"
    },
    {
      "inputs": [
        {
          "internalType": "address",
          "name": "",
          "type": "address"
        },
        {
          "internalType": "uint32",
          "name": "",
          "type": "uint32"
        }
      ],
      "name": "holder",
      "outputs": [
        {
          "internalType": "uint256",
          "name": "distributeAmount",
          "type": "uint256"
        },
        {
          "internalType": "bool",
          "name": "isRedeem",
          "type": "bool"
        }
      ],
      "stateMutability": "view",
      "type": "function",
      "constant": true
    },
    {
      "inputs": [
        {
          "internalType": "address",
          "name": "",
          "type": "address"
        }
      ],
      "name": "isOwner",
      "outputs": [
        {
          "internalType": "bool",
          "name": "",
          "type": "bool"
        }
      ],
      "stateMutability": "view",
      "type": "function",
      "constant": true
    },
    {
      "inputs": [],
      "name": "name",
      "outputs": [
        {
          "internalType": "string",
          "name": "",
          "type": "string"
        }
      ],
      "stateMutability": "view",
      "type": "function",
      "constant": true
    },
    {
      "inputs": [
        {
          "internalType": "uint32",
          "name": "",
          "type": "uint32"
        }
      ],
      "name": "numOfHolder",
      "outputs": [
        {
          "internalType": "uint256",
          "name": "",
          "type": "uint256"
        }
      ],
      "stateMutability": "view",
      "type": "function",
      "constant": true
    },
    {
      "inputs": [],
      "name": "owner",
      "outputs": [
        {
          "internalType": "address",
          "name": "",
          "type": "address"
        }
      ],
      "stateMutability": "view",
      "type": "function",
      "constant": true
    },
    {
      "inputs": [],
      "name": "purseToken",
      "outputs": [
        {
          "internalType": "contract PurseTokenMultiSigUpgradable",
          "name": "",
          "type": "address"
        }
      ],
      "stateMutability": "view",
      "type": "function",
      "constant": true
    },
    {
      "inputs": [
        {
          "internalType": "address[]",
          "name": "_holder",
          "type": "address[]"
        },
        {
          "internalType": "uint256[]",
          "name": "_amount",
          "type": "uint256[]"
        },
        {
          "internalType": "uint32",
          "name": "iteration",
          "type": "uint32"
        }
      ],
      "name": "addHolderInfo",
      "outputs": [],
      "stateMutability": "nonpayable",
      "type": "function"
    },
    {
      "inputs": [
        {
          "internalType": "address[]",
          "name": "_holder",
          "type": "address[]"
        },
        {
          "internalType": "uint256[]",
          "name": "_amount",
          "type": "uint256[]"
        },
        {
          "internalType": "uint32",
          "name": "iteration",
          "type": "uint32"
        }
      ],
      "name": "updateHolderInfo",
      "outputs": [],
      "stateMutability": "nonpayable",
      "type": "function"
    },
    {
      "inputs": [
        {
          "internalType": "uint32",
          "name": "iteration",
          "type": "uint32"
        }
      ],
      "name": "claim",
      "outputs": [],
      "stateMutability": "nonpayable",
      "type": "function"
    },
    {
      "inputs": [
        {
          "internalType": "uint32",
          "name": "iteration_end",
          "type": "uint32"
        }
      ],
      "name": "claimAll",
      "outputs": [],
      "stateMutability": "nonpayable",
      "type": "function"
    },
    {
      "inputs": [
        {
          "internalType": "address",
          "name": "_to",
          "type": "address"
        }
      ],
      "name": "returnPurseToken",
      "outputs": [],
      "stateMutability": "nonpayable",
      "type": "function"
    },
    {
      "inputs": [
        {
          "internalType": "address",
          "name": "token",
          "type": "address"
        },
        {
          "internalType": "uint256",
          "name": "amount",
          "type": "uint256"
        },
        {
          "internalType": "address",
          "name": "_to",
          "type": "address"
        }
      ],
      "name": "returnAnyToken",
      "outputs": [],
      "stateMutability": "nonpayable",
      "type": "function"
    },
    {
      "inputs": [
        {
          "internalType": "address",
          "name": "_owner",
          "type": "address"
        }
      ],
      "name": "updateOwner",
      "outputs": [],
      "stateMutability": "nonpayable",
      "type": "function"
    }
  ],
  "bytecode": "0x60806040526040518060400160405280601281526020017f507572736520446973747269627574696f6e0000000000000000000000000000815250600090805190602001906200005192919062000166565b503480156200005f57600080fd5b50604051620021db380380620021db83398181016040528101906200008591906200022d565b80600160006101000a81548173ffffffffffffffffffffffffffffffffffffffff021916908373ffffffffffffffffffffffffffffffffffffffff1602179055506001600360003373ffffffffffffffffffffffffffffffffffffffff1673ffffffffffffffffffffffffffffffffffffffff16815260200190815260200160002060006101000a81548160ff02191690831515021790555033600260006101000a81548173ffffffffffffffffffffffffffffffffffffffff021916908373ffffffffffffffffffffffffffffffffffffffff1602179055505062000320565b8280546200017490620002a1565b90600052602060002090601f016020900481019282620001985760008555620001e4565b82601f10620001b357805160ff1916838001178555620001e4565b82800160010185558215620001e4579182015b82811115620001e3578251825591602001919060010190620001c6565b5b509050620001f39190620001f7565b5090565b5b8082111562000212576000816000905550600101620001f8565b5090565b600081519050620002278162000306565b92915050565b6000602082840312156200024057600080fd5b6000620002508482850162000216565b91505092915050565b6000620002668262000281565b9050919050565b60006200027a8262000259565b9050919050565b600073ffffffffffffffffffffffffffffffffffffffff82169050919050565b60006002820490506001821680620002ba57607f821691505b60208210811415620002d157620002d0620002d7565b5b50919050565b7f4e487b7100000000000000000000000000000000000000000000000000000000600052602260045260246000fd5b62000311816200026d565b81146200031d57600080fd5b50565b611eab80620003306000396000f3fe608060405234801561001057600080fd5b50600436106100cf5760003560e01c80638da5cb5b1161008c578063c24f2eaa11610066578063c24f2eaa146101ea578063f09de43f1461021a578063fa2da24414610236578063ff0e009e14610252576100cf565b80638da5cb5b1461019457806393ad9ed2146101b2578063c237e326146101ce576100cf565b806304951891146100d457806306fdde03146100f05780632f54bf6e1461010e57806351bf16ef1461013e57806372da5bcb1461015c578063880cdc3114610178575b600080fd5b6100ee60048036038101906100e99190611788565b610283565b005b6100f861051b565b6040516101059190611981565b60405180910390f35b610128600480360381019061012391906115f9565b6105a9565b604051610135919061194b565b60405180910390f35b6101466105c9565b6040516101539190611966565b60405180910390f35b61017660048036038101906101719190611788565b6105ef565b005b610192600480360381019061018d91906115f9565b610940565b005b61019c610b69565b6040516101a99190611907565b60405180910390f35b6101cc60048036038101906101c791906116ad565b610b8f565b005b6101e860048036038101906101e39190611622565b610e07565b005b61020460048036038101906101ff9190611788565b610f96565b6040516102119190611a63565b60405180910390f35b610234600480360381019061022f91906115f9565b610fae565b005b610250600480360381019061024b91906116ad565b61120d565b005b61026c60048036038101906102679190611671565b6114be565b60405161027a929190611a7e565b60405180910390f35b60011515600460003373ffffffffffffffffffffffffffffffffffffffff1673ffffffffffffffffffffffffffffffffffffffff16815260200190815260200160002060008363ffffffff1663ffffffff16815260200190815260200160002060010160009054906101000a900460ff16151514610336576040517f08c379a000000000000000000000000000000000000000000000000000000000815260040161032d90611a03565b60405180910390fd5b6000600460003373ffffffffffffffffffffffffffffffffffffffff1673ffffffffffffffffffffffffffffffffffffffff16815260200190815260200160002060008363ffffffff1663ffffffff16815260200190815260200160002060010160006101000a81548160ff0219169083151502179055506000600460003373ffffffffffffffffffffffffffffffffffffffff1673ffffffffffffffffffffffffffffffffffffffff16815260200190815260200160002060008363ffffffff1663ffffffff168152602001908152602001600020600001549050600160009054906101000a900473ffffffffffffffffffffffffffffffffffffffff1673ffffffffffffffffffffffffffffffffffffffff1663a9059cbb33836040518363ffffffff1660e01b815260040161046f929190611922565b602060405180830381600087803b15801561048957600080fd5b505af115801561049d573d6000803e3d6000fd5b505050506040513d601f19601f820116820180604052508101906104c19190611736565b508163ffffffff163373ffffffffffffffffffffffffffffffffffffffff167f46f359e8b618e8dcf8db2845dc89ec1e82a4e3eb8a0dfaa3081351701f8296a58360405161050f9190611a63565b60405180910390a35050565b6000805461052890611c0c565b80601f016020809104026020016040519081016040528092919081815260200182805461055490611c0c565b80156105a15780601f10610576576101008083540402835291602001916105a1565b820191906000526020600020905b81548152906001019060200180831161058457829003601f168201915b505050505081565b60036020528060005260406000206000915054906101000a900460ff1681565b600160009054906101000a900473ffffffffffffffffffffffffffffffffffffffff1681565b6000805b8263ffffffff168163ffffffff16116108315760011515600460003373ffffffffffffffffffffffffffffffffffffffff1673ffffffffffffffffffffffffffffffffffffffff16815260200190815260200160002060008363ffffffff1663ffffffff16815260200190815260200160002060010160009054906101000a900460ff161515141561081e5760011515600460003373ffffffffffffffffffffffffffffffffffffffff1673ffffffffffffffffffffffffffffffffffffffff16815260200190815260200160002060008363ffffffff1663ffffffff16815260200190815260200160002060010160009054906101000a900460ff16151514610732576040517f08c379a000000000000000000000000000000000000000000000000000000000815260040161072990611a03565b60405180910390fd5b6000600460003373ffffffffffffffffffffffffffffffffffffffff1673ffffffffffffffffffffffffffffffffffffffff16815260200190815260200160002060008363ffffffff1663ffffffff16815260200190815260200160002060010160006101000a81548160ff0219169083151502179055506000600460003373ffffffffffffffffffffffffffffffffffffffff1673ffffffffffffffffffffffffffffffffffffffff16815260200190815260200160002060008363ffffffff1663ffffffff168152602001908152602001600020600001549050808361081a9190611b07565b9250505b808061082990611c87565b9150506105f3565b5060008111156108ec57600160009054906101000a900473ffffffffffffffffffffffffffffffffffffffff1673ffffffffffffffffffffffffffffffffffffffff1663a9059cbb33836040518363ffffffff1660e01b8152600401610898929190611922565b602060405180830381600087803b1580156108b257600080fd5b505af11580156108c6573d6000803e3d6000fd5b505050506040513d601f19601f820116820180604052508101906108ea9190611736565b505b3373ffffffffffffffffffffffffffffffffffffffff167f0cb481c25d2f9182101c224b90fd59b10c3256e430e20bcb065bebd30b91a9f28284604051610934929190611aa7565b60405180910390a25050565b600360003373ffffffffffffffffffffffffffffffffffffffff1673ffffffffffffffffffffffffffffffffffffffff16815260200190815260200160002060009054906101000a900460ff166109cc576040517f08c379a00000000000000000000000000000000000000000000000000000000081526004016109c390611a43565b60405180910390fd5b600073ffffffffffffffffffffffffffffffffffffffff168173ffffffffffffffffffffffffffffffffffffffff161415610a3c576040517f08c379a0000000000000000000000000000000000000000000000000000000008152600401610a33906119e3565b60405180910390fd5b600260009054906101000a900473ffffffffffffffffffffffffffffffffffffffff1673ffffffffffffffffffffffffffffffffffffffff168173ffffffffffffffffffffffffffffffffffffffff161415610acd576040517f08c379a0000000000000000000000000000000000000000000000000000000008152600401610ac4906119c3565b60405180910390fd5b6001600360008373ffffffffffffffffffffffffffffffffffffffff1673ffffffffffffffffffffffffffffffffffffffff16815260200190815260200160002060006101000a81548160ff02191690831515021790555080600260006101000a81548173ffffffffffffffffffffffffffffffffffffffff021916908373ffffffffffffffffffffffffffffffffffffffff16021790555050565b600260009054906101000a900473ffffffffffffffffffffffffffffffffffffffff1681565b600360003373ffffffffffffffffffffffffffffffffffffffff1673ffffffffffffffffffffffffffffffffffffffff16815260200190815260200160002060009054906101000a900460ff16610c1b576040517f08c379a0000000000000000000000000000000000000000000000000000000008152600401610c1290611a43565b60405180910390fd5b6000838390508686905014610c65576040517f08c379a0000000000000000000000000000000000000000000000000000000008152600401610c5c906119a3565b60405180910390fd5b5b85859050811015610db1576040518060400160405280858584818110610cb5577f4e487b7100000000000000000000000000000000000000000000000000000000600052603260045260246000fd5b9050602002013581526020016001151581525060046000888885818110610d05577f4e487b7100000000000000000000000000000000000000000000000000000000600052603260045260246000fd5b9050602002016020810190610d1a91906115f9565b73ffffffffffffffffffffffffffffffffffffffff1673ffffffffffffffffffffffffffffffffffffffff16815260200190815260200160002060008463ffffffff1663ffffffff1681526020019081526020016000206000820151816000015560208201518160010160006101000a81548160ff0219169083151502179055509050508080610da990611c3e565b915050610c66565b3373ffffffffffffffffffffffffffffffffffffffff167fe0de873476573fa673d69e0904f053222c29891dd0be532bde8fdac2a596161183604051610df79190611ad0565b60405180910390a2505050505050565b600360003373ffffffffffffffffffffffffffffffffffffffff1673ffffffffffffffffffffffffffffffffffffffff16815260200190815260200160002060009054906101000a900460ff16610e93576040517f08c379a0000000000000000000000000000000000000000000000000000000008152600401610e8a90611a43565b60405180910390fd5b600073ffffffffffffffffffffffffffffffffffffffff168173ffffffffffffffffffffffffffffffffffffffff161415610f03576040517f08c379a0000000000000000000000000000000000000000000000000000000008152600401610efa90611a23565b60405180910390fd5b8273ffffffffffffffffffffffffffffffffffffffff1663a9059cbb82846040518363ffffffff1660e01b8152600401610f3e929190611922565b602060405180830381600087803b158015610f5857600080fd5b505af1158015610f6c573d6000803e3d6000fd5b505050506040513d601f19601f82011682018060405250810190610f909190611736565b50505050565b60056020528060005260406000206000915090505481565b600360003373ffffffffffffffffffffffffffffffffffffffff1673ffffffffffffffffffffffffffffffffffffffff16815260200190815260200160002060009054906101000a900460ff1661103a576040517f08c379a000000000000000000000000000000000000000000000000000000000815260040161103190611a43565b60405180910390fd5b600073ffffffffffffffffffffffffffffffffffffffff168173ffffffffffffffffffffffffffffffffffffffff1614156110aa576040517f08c379a00000000000000000000000000000000000000000000000000000000081526004016110a190611a23565b60405180910390fd5b6000600160009054906101000a900473ffffffffffffffffffffffffffffffffffffffff1673ffffffffffffffffffffffffffffffffffffffff166370a08231306040518263ffffffff1660e01b81526004016111079190611907565b60206040518083038186803b15801561111f57600080fd5b505afa158015611133573d6000803e3d6000fd5b505050506040513d601f19601f82011682018060405250810190611157919061175f565b9050600160009054906101000a900473ffffffffffffffffffffffffffffffffffffffff1673ffffffffffffffffffffffffffffffffffffffff1663a9059cbb83836040518363ffffffff1660e01b81526004016111b6929190611922565b602060405180830381600087803b1580156111d057600080fd5b505af11580156111e4573d6000803e3d6000fd5b505050506040513d601f19601f820116820180604052508101906112089190611736565b505050565b600360003373ffffffffffffffffffffffffffffffffffffffff1673ffffffffffffffffffffffffffffffffffffffff16815260200190815260200160002060009054906101000a900460ff16611299576040517f08c379a000000000000000000000000000000000000000000000000000000000815260040161129090611a43565b60405180910390fd5b60008383905086869050146112e3576040517f08c379a00000000000000000000000000000000000000000000000000000000081526004016112da906119a3565b60405180910390fd5b5b8585905081101561142f576040518060400160405280858584818110611333577f4e487b7100000000000000000000000000000000000000000000000000000000600052603260045260246000fd5b9050602002013581526020016001151581525060046000888885818110611383577f4e487b7100000000000000000000000000000000000000000000000000000000600052603260045260246000fd5b905060200201602081019061139891906115f9565b73ffffffffffffffffffffffffffffffffffffffff1673ffffffffffffffffffffffffffffffffffffffff16815260200190815260200160002060008463ffffffff1663ffffffff1681526020019081526020016000206000820151816000015560208201518160010160006101000a81548160ff021916908315150217905550905050808061142790611c3e565b9150506112e4565b85859050600560008463ffffffff1663ffffffff16815260200190815260200160002060008282546114619190611b07565b925050819055503373ffffffffffffffffffffffffffffffffffffffff167f21baddd1b7c1e670d8f5c8189b8fad82e3aa5098e7e054bf8e66bd5e28f09643836040516114ae9190611ad0565b60405180910390a2505050505050565b6004602052816000526040600020602052806000526040600020600091509150508060000154908060010160009054906101000a900460ff16905082565b60008135905061150b81611e19565b92915050565b60008083601f84011261152357600080fd5b8235905067ffffffffffffffff81111561153c57600080fd5b60208301915083602082028301111561155457600080fd5b9250929050565b60008083601f84011261156d57600080fd5b8235905067ffffffffffffffff81111561158657600080fd5b60208301915083602082028301111561159e57600080fd5b9250929050565b6000815190506115b481611e30565b92915050565b6000813590506115c981611e47565b92915050565b6000815190506115de81611e47565b92915050565b6000813590506115f381611e5e565b92915050565b60006020828403121561160b57600080fd5b6000611619848285016114fc565b91505092915050565b60008060006060848603121561163757600080fd5b6000611645868287016114fc565b9350506020611656868287016115ba565b9250506040611667868287016114fc565b9150509250925092565b6000806040838503121561168457600080fd5b6000611692858286016114fc565b92505060206116a3858286016115e4565b9150509250929050565b6000806000806000606086880312156116c557600080fd5b600086013567ffffffffffffffff8111156116df57600080fd5b6116eb88828901611511565b9550955050602086013567ffffffffffffffff81111561170a57600080fd5b6117168882890161155b565b93509350506040611729888289016115e4565b9150509295509295909350565b60006020828403121561174857600080fd5b6000611756848285016115a5565b91505092915050565b60006020828403121561177157600080fd5b600061177f848285016115cf565b91505092915050565b60006020828403121561179a57600080fd5b60006117a8848285016115e4565b91505092915050565b6117ba81611b5d565b82525050565b6117c981611b6f565b82525050565b6117d881611bb5565b82525050565b60006117e982611aeb565b6117f38185611af6565b9350611803818560208601611bd9565b61180c81611d12565b840191505092915050565b6000611824601183611af6565b915061182f82611d23565b602082019050919050565b6000611847601283611af6565b915061185282611d4c565b602082019050919050565b600061186a601183611af6565b915061187582611d75565b602082019050919050565b600061188d601083611af6565b915061189882611d9e565b602082019050919050565b60006118b0601883611af6565b91506118bb82611dc7565b602082019050919050565b60006118d3600983611af6565b91506118de82611df0565b602082019050919050565b6118f281611b9b565b82525050565b61190181611ba5565b82525050565b600060208201905061191c60008301846117b1565b92915050565b600060408201905061193760008301856117b1565b61194460208301846118e9565b9392505050565b600060208201905061196060008301846117c0565b92915050565b600060208201905061197b60008301846117cf565b92915050565b6000602082019050818103600083015261199b81846117de565b905092915050565b600060208201905081810360008301526119bc81611817565b9050919050565b600060208201905081810360008301526119dc8161183a565b9050919050565b600060208201905081810360008301526119fc8161185d565b9050919050565b60006020820190508181036000830152611a1c81611880565b9050919050565b60006020820190508181036000830152611a3c816118a3565b9050919050565b60006020820190508181036000830152611a5c816118c6565b9050919050565b6000602082019050611a7860008301846118e9565b92915050565b6000604082019050611a9360008301856118e9565b611aa060208301846117c0565b9392505050565b6000604082019050611abc60008301856118e9565b611ac960208301846118f8565b9392505050565b6000602082019050611ae560008301846118f8565b92915050565b600081519050919050565b600082825260208201905092915050565b6000611b1282611b9b565b9150611b1d83611b9b565b9250827fffffffffffffffffffffffffffffffffffffffffffffffffffffffffffffffff03821115611b5257611b51611cb4565b5b828201905092915050565b6000611b6882611b7b565b9050919050565b60008115159050919050565b600073ffffffffffffffffffffffffffffffffffffffff82169050919050565b6000819050919050565b600063ffffffff82169050919050565b6000611bc082611bc7565b9050919050565b6000611bd282611b7b565b9050919050565b60005b83811015611bf7578082015181840152602081019050611bdc565b83811115611c06576000848401525b50505050565b60006002820490506001821680611c2457607f821691505b60208210811415611c3857611c37611ce3565b5b50919050565b6000611c4982611b9b565b91507fffffffffffffffffffffffffffffffffffffffffffffffffffffffffffffffff821415611c7c57611c7b611cb4565b5b600182019050919050565b6000611c9282611ba5565b915063ffffffff821415611ca957611ca8611cb4565b5b600182019050919050565b7f4e487b7100000000000000000000000000000000000000000000000000000000600052601160045260246000fd5b7f4e487b7100000000000000000000000000000000000000000000000000000000600052602260045260246000fd5b6000601f19601f8301169050919050565b7f6c656e67746820646966666572656e6365000000000000000000000000000000600082015250565b7f73616d65206f776e657220616464726573730000000000000000000000000000600082015250565b7f6e6f742076616c69642061646472657373000000000000000000000000000000600082015250565b7f68617665206265656e2072656465656d00000000000000000000000000000000600082015250565b7f73656e6420746f20746865207a65726f20616464726573730000000000000000600082015250565b7f6e6f74206f776e65720000000000000000000000000000000000000000000000600082015250565b611e2281611b5d565b8114611e2d57600080fd5b50565b611e3981611b6f565b8114611e4457600080fd5b50565b611e5081611b9b565b8114611e5b57600080fd5b50565b611e6781611ba5565b8114611e7257600080fd5b5056fea26469706673582212200a16b5a24de28daf7e0888805cd60c5b681e80c3fead288382a180a9e8735c2264736f6c63430008030033",
  "immutableReferences": {},
  "source": "// SPDX-License-Identifier: UNLICENSED\r\n\r\npragma solidity ^0.8.0;\r\n\r\nimport \"./PurseTokenMultiSigUpgradable.sol\";\r\n\r\ncontract PurseDistribution {\r\n    event claimReward(address indexed owner, uint256 amount, uint32 indexed Iteration);\r\n    event claimAllReward(address indexed owner, uint256 amount, uint32 Iteration_End);\r\n    event addHolder(address indexed sender, uint32 iteration);\r\n    event updateHolder(address indexed sender, uint32 iteration);\r\n    \r\n    string public name = \"Purse Distribution\";\r\n    PurseTokenMultiSigUpgradable public purseToken;\r\n    address public owner;\r\n    mapping(address => bool) public isOwner;\r\n    mapping(address => mapping(uint32 => holderInfo)) public holder;   //address->index   \r\n    mapping(uint32 => uint256) public numOfHolder;\r\n\r\n    struct holderInfo {\r\n        uint256 distributeAmount;\r\n        bool isRedeem;\r\n    }\r\n    \r\n    modifier onlyOwner() {\r\n        require(isOwner[msg.sender], \"not owner\");\r\n        _;\r\n    }\r\n\r\n    constructor(PurseTokenMultiSigUpgradable _purseToken) {\r\n        purseToken = _purseToken;\r\n        isOwner[msg.sender] = true;\r\n        owner = msg.sender;\r\n    }\r\n\r\n    function addHolderInfo(address[] calldata _holder, uint256[] calldata _amount , uint32 iteration) public onlyOwner {\r\n        uint256 i = 0;\r\n        require(_holder.length == _amount.length, \"length difference\");\r\n        for (i; i < _holder.length; i++) {\r\n            holder[_holder[i]][iteration] = holderInfo(_amount[i], true);\r\n        }\r\n        numOfHolder[iteration] += _holder.length;\r\n        emit addHolder(msg.sender, iteration);\r\n    }\r\n\r\n    function updateHolderInfo(address[] calldata _holder, uint256[] calldata _amount , uint32 iteration) public onlyOwner {\r\n        uint256 i = 0;\r\n        require(_holder.length == _amount.length, \"length difference\");\r\n        for (i; i < _holder.length; i++) {\r\n            holder[_holder[i]][iteration] = holderInfo(_amount[i], true);\r\n        }\r\n        emit updateHolder(msg.sender, iteration);\r\n    }\r\n\r\n    // Notice Transfers tokens held by timelock to beneficiary.\r\n    function claim(uint32 iteration) public {\r\n        require(holder[msg.sender][iteration].isRedeem == true, 'have been redeem');\r\n\r\n        holder[msg.sender][iteration].isRedeem = false;\r\n        uint256 claimAmount = holder[msg.sender][iteration].distributeAmount;\r\n        purseToken.transfer(msg.sender, claimAmount);\r\n        emit claimReward(msg.sender, claimAmount, iteration);\r\n    }\r\n\r\n    function claimAll(uint32 iteration_end) public {\r\n        uint256 claimAmount = 0;\r\n        for (uint32 i = 0; i <= iteration_end; i++) {\r\n                if (holder[msg.sender][i].isRedeem == true) {\r\n                    require(holder[msg.sender][i].isRedeem == true, 'have been redeem');\r\n                    holder[msg.sender][i].isRedeem = false;\r\n                    uint256 holderAmount = holder[msg.sender][i].distributeAmount;\r\n                    claimAmount += holderAmount;                    \r\n                }\r\n        }\r\n        if (claimAmount > 0) {\r\n            purseToken.transfer(msg.sender, claimAmount);\r\n        }\r\n        emit claimAllReward(msg.sender, claimAmount, iteration_end);\r\n    }\r\n    \r\n    function returnPurseToken(address _to) public onlyOwner {\r\n        require(_to != address(0), \"send to the zero address\");\r\n        uint256 remainingAmount = purseToken.balanceOf(address(this));\r\n        purseToken.transfer(_to, remainingAmount);\r\n    }\r\n\r\n    function returnAnyToken(address token, uint256 amount, address _to) public onlyOwner{\r\n        require(_to != address(0), \"send to the zero address\");\r\n        ERC20Interface(token).transfer(_to, amount);\r\n    } \r\n\r\n    function updateOwner(address _owner) public onlyOwner{\r\n        require(_owner != address(0), \"not valid address\");\r\n        require(_owner != owner, \"same owner address\");\r\n        isOwner[_owner] = true;\r\n        owner = _owner;\r\n    } \r\n}\r\n",
  "sourcePath": "C:/Users/cheek/Desktop/Developer doc/Visual Studio Code/PundiX/PurseRewardTokenFinal/src/contracts/PurseDistribution.sol",
  "compiler": {
    "name": "solc",
    "version": "0.8.3+commit.8d00100c.Emscripten.clang"
  },
  "schemaVersion": "3.2.3",
  "updatedAt": "2021-09-06T02:22:24.248Z",
  "networkType": "ethereum",
  "devdoc": {
    "kind": "dev",
    "methods": {},
    "version": 1
  },
  "userdoc": {
    "kind": "user",
    "methods": {},
    "version": 1
  }
}