{
  "contractName": "TokenFarm",
  "abi": [
    {
      "inputs": [
        {
          "internalType": "contract XToken",
          "name": "_xToken",
          "type": "address"
        },
        {
          "internalType": "contract LPXToken",
          "name": "_lpXToken",
          "type": "address"
        },
        {
          "internalType": "contract PurseToken",
          "name": "_purseToken",
          "type": "address"
        },
        {
          "internalType": "uint256",
          "name": "_blockReward",
          "type": "uint256"
        }
      ],
      "stateMutability": "nonpayable",
      "type": "constructor"
    },
    {
      "inputs": [],
      "name": "decimalFlow",
      "outputs": [
        {
          "internalType": "uint256",
          "name": "",
          "type": "uint256"
        }
      ],
      "stateMutability": "view",
      "type": "function",
      "constant": true
    },
    {
      "inputs": [],
      "name": "duration",
      "outputs": [
        {
          "internalType": "uint256",
          "name": "",
          "type": "uint256"
        }
      ],
      "stateMutability": "view",
      "type": "function",
      "constant": true
    },
    {
      "inputs": [],
      "name": "farmInfo",
      "outputs": [
        {
          "internalType": "uint256",
          "name": "blockReward",
          "type": "uint256"
        },
        {
          "internalType": "uint256",
          "name": "lastRewardBlock",
          "type": "uint256"
        },
        {
          "internalType": "uint256",
          "name": "farmableSupply",
          "type": "uint256"
        }
      ],
      "stateMutability": "view",
      "type": "function",
      "constant": true
    },
    {
      "inputs": [],
      "name": "lpXToken",
      "outputs": [
        {
          "internalType": "contract LPXToken",
          "name": "",
          "type": "address"
        }
      ],
      "stateMutability": "view",
      "type": "function",
      "constant": true
    },
    {
      "inputs": [],
      "name": "name",
      "outputs": [
        {
          "internalType": "string",
          "name": "",
          "type": "string"
        }
      ],
      "stateMutability": "view",
      "type": "function",
      "constant": true
    },
    {
      "inputs": [],
      "name": "owner",
      "outputs": [
        {
          "internalType": "address",
          "name": "",
          "type": "address"
        }
      ],
      "stateMutability": "view",
      "type": "function",
      "constant": true
    },
    {
      "inputs": [],
      "name": "penaltyRate",
      "outputs": [
        {
          "internalType": "uint256",
          "name": "",
          "type": "uint256"
        }
      ],
      "stateMutability": "view",
      "type": "function",
      "constant": true
    },
    {
      "inputs": [],
      "name": "purseToken",
      "outputs": [
        {
          "internalType": "contract PurseToken",
          "name": "",
          "type": "address"
        }
      ],
      "stateMutability": "view",
      "type": "function",
      "constant": true
    },
    {
      "inputs": [
        {
          "internalType": "address",
          "name": "",
          "type": "address"
        }
      ],
      "name": "stakerInfo",
      "outputs": [
        {
          "internalType": "uint256",
          "name": "stakingBalance",
          "type": "uint256"
        },
        {
          "internalType": "uint256",
          "name": "rewardBalance",
          "type": "uint256"
        },
        {
          "internalType": "uint256",
          "name": "stakingTimestamp",
          "type": "uint256"
        },
        {
          "internalType": "uint256",
          "name": "stakingBlock",
          "type": "uint256"
        },
        {
          "internalType": "bool",
          "name": "hasStaked",
          "type": "bool"
        },
        {
          "internalType": "bool",
          "name": "isStaking",
          "type": "bool"
        },
        {
          "internalType": "uint256",
          "name": "poolShareRatio",
          "type": "uint256"
        }
      ],
      "stateMutability": "view",
      "type": "function",
      "constant": true
    },
    {
      "inputs": [
        {
          "internalType": "uint256",
          "name": "",
          "type": "uint256"
        }
      ],
      "name": "stakers",
      "outputs": [
        {
          "internalType": "address",
          "name": "",
          "type": "address"
        }
      ],
      "stateMutability": "view",
      "type": "function",
      "constant": true
    },
    {
      "inputs": [],
      "name": "xToken",
      "outputs": [
        {
          "internalType": "contract XToken",
          "name": "",
          "type": "address"
        }
      ],
      "stateMutability": "view",
      "type": "function",
      "constant": true
    },
    {
      "inputs": [
        {
          "internalType": "uint256",
          "name": "_amount",
          "type": "uint256"
        }
      ],
      "name": "stakeTokens",
      "outputs": [],
      "stateMutability": "nonpayable",
      "type": "function"
    },
    {
      "inputs": [],
      "name": "unstakeTokens",
      "outputs": [],
      "stateMutability": "nonpayable",
      "type": "function"
    },
    {
      "inputs": [
        {
          "internalType": "uint256",
          "name": "_amount",
          "type": "uint256"
        }
      ],
      "name": "issueTokens",
      "outputs": [],
      "stateMutability": "nonpayable",
      "type": "function"
    },
    {
      "inputs": [],
      "name": "updateRewardTokens",
      "outputs": [],
      "stateMutability": "nonpayable",
      "type": "function"
    },
    {
      "inputs": [],
      "name": "emergencyUnstakeTokens",
      "outputs": [],
      "stateMutability": "nonpayable",
      "type": "function"
    },
    {
      "inputs": [],
      "name": "getTotalBalance",
      "outputs": [],
      "stateMutability": "nonpayable",
      "type": "function"
    },
    {
      "inputs": [],
      "name": "getPoolShareRatio",
      "outputs": [],
      "stateMutability": "nonpayable",
      "type": "function"
    },
    {
      "inputs": [
        {
          "internalType": "address",
          "name": "_to",
          "type": "address"
        },
        {
          "internalType": "uint256",
          "name": "_amount",
          "type": "uint256"
        }
      ],
      "name": "transferOwnership",
      "outputs": [],
      "stateMutability": "nonpayable",
      "type": "function"
    },
    {
      "inputs": [
        {
          "internalType": "uint256",
          "name": "_amount",
          "type": "uint256"
        }
      ],
      "name": "redeemToken",
      "outputs": [],
      "stateMutability": "nonpayable",
      "type": "function"
    }
  ],
  "bytecode": "0x60806040526040518060400160405280600c81526020017f5820546f6b656e204661726d00000000000000000000000000000000000000008152506000908051906020019062000051929190620001a9565b506002600655620f42406007553480156200006b57600080fd5b5060405162002b7138038062002b718339818101604052810190620000919190620002b5565b83600160006101000a81548173ffffffffffffffffffffffffffffffffffffffff021916908373ffffffffffffffffffffffffffffffffffffffff16021790555082600260006101000a81548173ffffffffffffffffffffffffffffffffffffffff021916908373ffffffffffffffffffffffffffffffffffffffff16021790555081600360006101000a81548173ffffffffffffffffffffffffffffffffffffffff021916908373ffffffffffffffffffffffffffffffffffffffff1602179055508060086000018190555033600460006101000a81548173ffffffffffffffffffffffffffffffffffffffff021916908373ffffffffffffffffffffffffffffffffffffffff1602179055505050505062000468565b828054620001b7906200039b565b90600052602060002090601f016020900481019282620001db576000855562000227565b82601f10620001f657805160ff191683800117855562000227565b8280016001018555821562000227579182015b828111156200022657825182559160200191906001019062000209565b5b5090506200023691906200023a565b5090565b5b80821115620002555760008160009055506001016200023b565b5090565b6000815190506200026a8162000400565b92915050565b60008151905062000281816200041a565b92915050565b600081519050620002988162000434565b92915050565b600081519050620002af816200044e565b92915050565b60008060008060808587031215620002cc57600080fd5b6000620002dc8782880162000287565b9450506020620002ef8782880162000259565b9350506040620003028782880162000270565b925050606062000315878288016200029e565b91505092959194509250565b60006200032e8262000371565b9050919050565b6000620003428262000321565b9050919050565b6000620003568262000321565b9050919050565b60006200036a8262000321565b9050919050565b600073ffffffffffffffffffffffffffffffffffffffff82169050919050565b6000819050919050565b60006002820490506001821680620003b457607f821691505b60208210811415620003cb57620003ca620003d1565b5b50919050565b7f4e487b7100000000000000000000000000000000000000000000000000000000600052602260045260246000fd5b6200040b8162000335565b81146200041757600080fd5b50565b620004258162000349565b81146200043157600080fd5b50565b6200043f816200035d565b81146200044b57600080fd5b50565b620004598162000391565b81146200046557600080fd5b50565b6126f980620004786000396000f3fe608060405234801561001057600080fd5b506004361061012c5760003560e01c80634e8fd73a116100ad578063a179b81211610071578063a179b812146102cb578063a5820daa146102d5578063a5ce413b146102f1578063d6b7494f146102fb578063fd5e6dd1146103195761012c565b80634e8fd73a1461024b57806351bf16ef1461025557806371cd777d146102735780637547c7a3146102915780638da5cb5b146102ad5761012c565b80630fb5a6b4116100f45780630fb5a6b4146101af57806312b58349146101cd5780631d49d66c146101d7578063435e05dd146101f75780634e745f1f146102155761012c565b8063013054c21461013157806306fdde031461014d578063088b699e1461016b5780630a276680146101895780630d7a70d4146101a5575b600080fd5b61014b60048036038101906101469190611e42565b610349565b005b6101556104df565b604051610162919061218a565b60405180910390f35b61017361056d565b604051610180919061216f565b60405180910390f35b6101a3600480360381019061019e9190611ddd565b610593565b005b6101ad610a3e565b005b6101b7610c76565b6040516101c4919061228c565b60405180910390f35b6101d5610c7d565b005b6101df610d73565b6040516101ee939291906122a7565b60405180910390f35b6101ff610d8b565b60405161020c9190612139565b60405180910390f35b61022f600480360381019061022a9190611db4565b610db1565b60405161024297969594939291906122de565b60405180910390f35b610253610e0d565b005b61025d610fcb565b60405161026a9190612154565b60405180910390f35b61027b610ff1565b604051610288919061228c565b60405180910390f35b6102ab60048036038101906102a69190611e42565b610ff7565b005b6102b56113bd565b6040516102c291906120be565b60405180910390f35b6102d36113e3565b005b6102ef60048036038101906102ea9190611e42565b611764565b005b6102f96119f6565b005b610303611d31565b604051610310919061228c565b60405180910390f35b610333600480360381019061032e9190611e42565b611d36565b60405161034091906120be565b60405180910390f35b610351610e0d565b60008111610394576040517f08c379a000000000000000000000000000000000000000000000000000000000815260040161038b9061226c565b60405180910390fd5b6000600b60003373ffffffffffffffffffffffffffffffffffffffff1673ffffffffffffffffffffffffffffffffffffffff1681526020019081526020016000206001015490508082111561041e576040517f08c379a0000000000000000000000000000000000000000000000000000000008152600401610415906121cc565b60405180910390fd5b600360009054906101000a900473ffffffffffffffffffffffffffffffffffffffff1673ffffffffffffffffffffffffffffffffffffffff1663a9059cbb336006548561046b91906123f0565b6040518363ffffffff1660e01b8152600401610488929190612110565b602060405180830381600087803b1580156104a257600080fd5b505af11580156104b6573d6000803e3d6000fd5b505050506040513d601f19601f820116820180604052508101906104da9190611e19565b505050565b600080546104ec90612565565b80601f016020809104026020016040519081016040528092919081815260200182805461051890612565565b80156105655780601f1061053a57610100808354040283529160200191610565565b820191906000526020600020905b81548152906001019060200180831161054857829003601f168201915b505050505081565b600160009054906101000a900473ffffffffffffffffffffffffffffffffffffffff1681565b600081116105d6576040517f08c379a00000000000000000000000000000000000000000000000000000000081526004016105cd9061226c565b60405180910390fd5b8173ffffffffffffffffffffffffffffffffffffffff168273ffffffffffffffffffffffffffffffffffffffff1614610644576040517f08c379a000000000000000000000000000000000000000000000000000000000815260040161063b906121ec565b60405180910390fd5b6000600b60003373ffffffffffffffffffffffffffffffffffffffff1673ffffffffffffffffffffffffffffffffffffffff168152602001908152602001600020600001549050808211156106ce576040517f08c379a00000000000000000000000000000000000000000000000000000000081526004016106c5906121ac565b60405180910390fd5b6106d6610e0d565b600260009054906101000a900473ffffffffffffffffffffffffffffffffffffffff1673ffffffffffffffffffffffffffffffffffffffff166323b872dd3385856040518463ffffffff1660e01b8152600401610735939291906120d9565b602060405180830381600087803b15801561074f57600080fd5b505af1158015610763573d6000803e3d6000fd5b505050506040513d601f19601f820116820180604052508101906107879190611e19565b5081600b60003373ffffffffffffffffffffffffffffffffffffffff1673ffffffffffffffffffffffffffffffffffffffff16815260200190815260200160002060000160008282546107da919061244a565b9250508190555081600b60008573ffffffffffffffffffffffffffffffffffffffff1673ffffffffffffffffffffffffffffffffffffffff16815260200190815260200160002060000160008282546108339190612369565b92505081905550600b60003373ffffffffffffffffffffffffffffffffffffffff1673ffffffffffffffffffffffffffffffffffffffff16815260200190815260200160002060020154600b60008573ffffffffffffffffffffffffffffffffffffffff1673ffffffffffffffffffffffffffffffffffffffff16815260200190815260200160002060020181905550600b60008473ffffffffffffffffffffffffffffffffffffffff1673ffffffffffffffffffffffffffffffffffffffff16815260200190815260200160002060040160009054906101000a900460ff1661097b576005839080600181540180825580915050600190039060005260206000200160009091909190916101000a81548173ffffffffffffffffffffffffffffffffffffffff021916908373ffffffffffffffffffffffffffffffffffffffff1602179055505b6001600b60008573ffffffffffffffffffffffffffffffffffffffff1673ffffffffffffffffffffffffffffffffffffffff16815260200190815260200160002060040160016101000a81548160ff0219169083151502179055506001600b60008573ffffffffffffffffffffffffffffffffffffffff1673ffffffffffffffffffffffffffffffffffffffff16815260200190815260200160002060040160006101000a81548160ff021916908315150217905550610a39610c7d565b505050565b60006008600201541415610b275760005b600580549050811015610b2157600060058281548110610a98577f4e487b7100000000000000000000000000000000000000000000000000000000600052603260045260246000fd5b9060005260206000200160009054906101000a900473ffffffffffffffffffffffffffffffffffffffff1690506000600b60008373ffffffffffffffffffffffffffffffffffffffff1673ffffffffffffffffffffffffffffffffffffffff16815260200190815260200160002060050181905550508080610b1990612597565b915050610a4f565b50610c74565b60005b600580549050811015610c7257600060058281548110610b73577f4e487b7100000000000000000000000000000000000000000000000000000000600052603260045260246000fd5b9060005260206000200160009054906101000a900473ffffffffffffffffffffffffffffffffffffffff1690506000600b60008373ffffffffffffffffffffffffffffffffffffffff1673ffffffffffffffffffffffffffffffffffffffff1681526020019081526020016000206000015490506000600860020154600754606484610bff91906123f0565b610c0991906123f0565b610c1391906123bf565b905080600b60008573ffffffffffffffffffffffffffffffffffffffff1673ffffffffffffffffffffffffffffffffffffffff168152602001908152602001600020600501819055505050508080610c6a90612597565b915050610b2a565b505b565b6201518081565b600080600090505b600580549050811015610d6557600060058281548110610cce577f4e487b7100000000000000000000000000000000000000000000000000000000600052603260045260246000fd5b9060005260206000200160009054906101000a900473ffffffffffffffffffffffffffffffffffffffff1690506000600b60008373ffffffffffffffffffffffffffffffffffffffff1673ffffffffffffffffffffffffffffffffffffffff1681526020019081526020016000206000015490508381610d4e9190612369565b935050508080610d5d90612597565b915050610c85565b508060086002018190555050565b60088060000154908060010154908060020154905083565b600260009054906101000a900473ffffffffffffffffffffffffffffffffffffffff1681565b600b6020528060005260406000206000915090508060000154908060010154908060020154908060030154908060040160009054906101000a900460ff16908060040160019054906101000a900460ff16908060050154905087565b610e15610c7d565b60006008600201541415610e325743600860010181905550610fc9565b60005b600580549050811015610fbd57600060058281548110610e7e577f4e487b7100000000000000000000000000000000000000000000000000000000600052603260045260246000fd5b9060005260206000200160009054906101000a900473ffffffffffffffffffffffffffffffffffffffff1690506000600b60008373ffffffffffffffffffffffffffffffffffffffff1673ffffffffffffffffffffffffffffffffffffffff168152602001908152602001600020600001549050600060086002015482600860000154610f0b91906123f0565b610f1591906123bf565b90506000439050600060086001015482610f2f919061244a565b905060008184610f3f91906123f0565b90506000811115610fa45780600b60008873ffffffffffffffffffffffffffffffffffffffff1673ffffffffffffffffffffffffffffffffffffffff1681526020019081526020016000206001016000828254610f9c9190612369565b925050819055505b5050505050508080610fb590612597565b915050610e35565b50436008600101819055505b565b600360009054906101000a900473ffffffffffffffffffffffffffffffffffffffff1681565b60075481565b6000811161103a576040517f08c379a00000000000000000000000000000000000000000000000000000000081526004016110319061226c565b60405180910390fd5b611042610e0d565b600160009054906101000a900473ffffffffffffffffffffffffffffffffffffffff1673ffffffffffffffffffffffffffffffffffffffff166323b872dd3330846040518463ffffffff1660e01b81526004016110a1939291906120d9565b602060405180830381600087803b1580156110bb57600080fd5b505af11580156110cf573d6000803e3d6000fd5b505050506040513d601f19601f820116820180604052508101906110f39190611e19565b5080600b60003373ffffffffffffffffffffffffffffffffffffffff1673ffffffffffffffffffffffffffffffffffffffff16815260200190815260200160002060000160008282546111469190612369565b9250508190555042600b60003373ffffffffffffffffffffffffffffffffffffffff1673ffffffffffffffffffffffffffffffffffffffff16815260200190815260200160002060020181905550600b60003373ffffffffffffffffffffffffffffffffffffffff1673ffffffffffffffffffffffffffffffffffffffff16815260200190815260200160002060040160009054906101000a900460ff1661124c576005339080600181540180825580915050600190039060005260206000200160009091909190916101000a81548173ffffffffffffffffffffffffffffffffffffffff021916908373ffffffffffffffffffffffffffffffffffffffff1602179055505b6001600b60003373ffffffffffffffffffffffffffffffffffffffff1673ffffffffffffffffffffffffffffffffffffffff16815260200190815260200160002060040160016101000a81548160ff0219169083151502179055506001600b60003373ffffffffffffffffffffffffffffffffffffffff1673ffffffffffffffffffffffffffffffffffffffff16815260200190815260200160002060040160006101000a81548160ff021916908315150217905550600260009054906101000a900473ffffffffffffffffffffffffffffffffffffffff1673ffffffffffffffffffffffffffffffffffffffff1663a9059cbb33836040518363ffffffff1660e01b815260040161135f929190612110565b602060405180830381600087803b15801561137957600080fd5b505af115801561138d573d6000803e3d6000fd5b505050506040513d601f19601f820116820180604052508101906113b19190611e19565b506113ba610c7d565b50565b600460009054906101000a900473ffffffffffffffffffffffffffffffffffffffff1681565b6113eb610e0d565b6000600b60003373ffffffffffffffffffffffffffffffffffffffff1673ffffffffffffffffffffffffffffffffffffffff16815260200190815260200160002060000154905060008111611475576040517f08c379a000000000000000000000000000000000000000000000000000000000815260040161146c9061220c565b60405180910390fd5b6000606460148361148691906123f0565b61149091906123bf565b9050600081836114a0919061244a565b9050600160009054906101000a900473ffffffffffffffffffffffffffffffffffffffff1673ffffffffffffffffffffffffffffffffffffffff1663a9059cbb33836040518363ffffffff1660e01b81526004016114ff929190612110565b602060405180830381600087803b15801561151957600080fd5b505af115801561152d573d6000803e3d6000fd5b505050506040513d601f19601f820116820180604052508101906115519190611e19565b50600160009054906101000a900473ffffffffffffffffffffffffffffffffffffffff1673ffffffffffffffffffffffffffffffffffffffff1663a9059cbb30846040518363ffffffff1660e01b81526004016115af929190612110565b602060405180830381600087803b1580156115c957600080fd5b505af11580156115dd573d6000803e3d6000fd5b505050506040513d601f19601f820116820180604052508101906116019190611e19565b50600260009054906101000a900473ffffffffffffffffffffffffffffffffffffffff1673ffffffffffffffffffffffffffffffffffffffff166323b872dd3330866040518463ffffffff1660e01b8152600401611661939291906120d9565b602060405180830381600087803b15801561167b57600080fd5b505af115801561168f573d6000803e3d6000fd5b505050506040513d601f19601f820116820180604052508101906116b39190611e19565b506000600b60003373ffffffffffffffffffffffffffffffffffffffff1673ffffffffffffffffffffffffffffffffffffffff168152602001908152602001600020600001819055506000600b60003373ffffffffffffffffffffffffffffffffffffffff1673ffffffffffffffffffffffffffffffffffffffff16815260200190815260200160002060040160016101000a81548160ff02191690831515021790555061175f610c7d565b505050565b600081116117a7576040517f08c379a000000000000000000000000000000000000000000000000000000000815260040161179e9061226c565b60405180910390fd5b600460009054906101000a900473ffffffffffffffffffffffffffffffffffffffff1673ffffffffffffffffffffffffffffffffffffffff163373ffffffffffffffffffffffffffffffffffffffff1614611837576040517f08c379a000000000000000000000000000000000000000000000000000000000815260040161182e9061224c565b60405180910390fd5b61183f610c7d565b6000600860020154141561185c57436008600101819055506119f3565b60005b6005805490508110156119e7576000600582815481106118a8577f4e487b7100000000000000000000000000000000000000000000000000000000600052603260045260246000fd5b9060005260206000200160009054906101000a900473ffffffffffffffffffffffffffffffffffffffff1690506000600b60008373ffffffffffffffffffffffffffffffffffffffff1673ffffffffffffffffffffffffffffffffffffffff16815260200190815260200160002060000154905060006008600201548260086000015461193591906123f0565b61193f91906123bf565b90506000439050600060086001015482611959919061244a565b90506000818461196991906123f0565b905060008111156119ce5780600b60008873ffffffffffffffffffffffffffffffffffffffff1673ffffffffffffffffffffffffffffffffffffffff16815260200190815260200160002060010160008282546119c69190612369565b925050819055505b50505050505080806119df90612597565b91505061185f565b50436008600101819055505b50565b6119fe610e0d565b6000600b60003373ffffffffffffffffffffffffffffffffffffffff1673ffffffffffffffffffffffffffffffffffffffff16815260200190815260200160002060000154905060008111611a88576040517f08c379a0000000000000000000000000000000000000000000000000000000008152600401611a7f9061220c565b60405180910390fd5b600062015180600b60003373ffffffffffffffffffffffffffffffffffffffff1673ffffffffffffffffffffffffffffffffffffffff16815260200190815260200160002060020154611adb9190612369565b905080421015611b20576040517f08c379a0000000000000000000000000000000000000000000000000000000008152600401611b179061222c565b60405180910390fd5b600160009054906101000a900473ffffffffffffffffffffffffffffffffffffffff1673ffffffffffffffffffffffffffffffffffffffff1663a9059cbb33846040518363ffffffff1660e01b8152600401611b7d929190612110565b602060405180830381600087803b158015611b9757600080fd5b505af1158015611bab573d6000803e3d6000fd5b505050506040513d601f19601f82011682018060405250810190611bcf9190611e19565b50600260009054906101000a900473ffffffffffffffffffffffffffffffffffffffff1673ffffffffffffffffffffffffffffffffffffffff166323b872dd3330856040518463ffffffff1660e01b8152600401611c2f939291906120d9565b602060405180830381600087803b158015611c4957600080fd5b505af1158015611c5d573d6000803e3d6000fd5b505050506040513d601f19601f82011682018060405250810190611c819190611e19565b506000600b60003373ffffffffffffffffffffffffffffffffffffffff1673ffffffffffffffffffffffffffffffffffffffff168152602001908152602001600020600001819055506000600b60003373ffffffffffffffffffffffffffffffffffffffff1673ffffffffffffffffffffffffffffffffffffffff16815260200190815260200160002060040160016101000a81548160ff021916908315150217905550611d2d610c7d565b5050565b601481565b60058181548110611d4657600080fd5b906000526020600020016000915054906101000a900473ffffffffffffffffffffffffffffffffffffffff1681565b600081359050611d848161267e565b92915050565b600081519050611d9981612695565b92915050565b600081359050611dae816126ac565b92915050565b600060208284031215611dc657600080fd5b6000611dd484828501611d75565b91505092915050565b60008060408385031215611df057600080fd5b6000611dfe85828601611d75565b9250506020611e0f85828601611d9f565b9150509250929050565b600060208284031215611e2b57600080fd5b6000611e3984828501611d8a565b91505092915050565b600060208284031215611e5457600080fd5b6000611e6284828501611d9f565b91505092915050565b611e748161247e565b82525050565b611e8381612490565b82525050565b611e92816124c6565b82525050565b611ea1816124ea565b82525050565b611eb08161250e565b82525050565b6000611ec18261234d565b611ecb8185612358565b9350611edb818560208601612532565b611ee48161266d565b840191505092915050565b6000611efc601b83612358565b91507f616d6f756e74206d6f7265207468616e204c502062616c616e636500000000006000830152602082019050919050565b6000611f3c601f83612358565b91507f616d6f756e74206d6f7265207468616e207265776172642062616c616e6365006000830152602082019050919050565b6000611f7c600f83612358565b91507f496e76616c6964206164647265737300000000000000000000000000000000006000830152602082019050919050565b6000611fbc601b83612358565b91507f7374616b696e672062616c616e63652063616e6e6f74206265203000000000006000830152602082019050919050565b6000611ffc601c83612358565b91507f746f6f206561726c7920746f20776974686472617720546f6b656e73000000006000830152602082019050919050565b600061203c601483612358565b91507f63616c6c6572206d757374206265206f776e65720000000000000000000000006000830152602082019050919050565b600061207c601283612358565b91507f616d6f756e742063616e6e6f74206265203000000000000000000000000000006000830152602082019050919050565b6120b8816124bc565b82525050565b60006020820190506120d36000830184611e6b565b92915050565b60006060820190506120ee6000830186611e6b565b6120fb6020830185611e6b565b61210860408301846120af565b949350505050565b60006040820190506121256000830185611e6b565b61213260208301846120af565b9392505050565b600060208201905061214e6000830184611e89565b92915050565b60006020820190506121696000830184611e98565b92915050565b60006020820190506121846000830184611ea7565b92915050565b600060208201905081810360008301526121a48184611eb6565b905092915050565b600060208201905081810360008301526121c581611eef565b9050919050565b600060208201905081810360008301526121e581611f2f565b9050919050565b6000602082019050818103600083015261220581611f6f565b9050919050565b6000602082019050818103600083015261222581611faf565b9050919050565b6000602082019050818103600083015261224581611fef565b9050919050565b600060208201905081810360008301526122658161202f565b9050919050565b600060208201905081810360008301526122858161206f565b9050919050565b60006020820190506122a160008301846120af565b92915050565b60006060820190506122bc60008301866120af565b6122c960208301856120af565b6122d660408301846120af565b949350505050565b600060e0820190506122f3600083018a6120af565b61230060208301896120af565b61230d60408301886120af565b61231a60608301876120af565b6123276080830186611e7a565b61233460a0830185611e7a565b61234160c08301846120af565b98975050505050505050565b600081519050919050565b600082825260208201905092915050565b6000612374826124bc565b915061237f836124bc565b9250827fffffffffffffffffffffffffffffffffffffffffffffffffffffffffffffffff038211156123b4576123b36125e0565b5b828201905092915050565b60006123ca826124bc565b91506123d5836124bc565b9250826123e5576123e461260f565b5b828204905092915050565b60006123fb826124bc565b9150612406836124bc565b9250817fffffffffffffffffffffffffffffffffffffffffffffffffffffffffffffffff048311821515161561243f5761243e6125e0565b5b828202905092915050565b6000612455826124bc565b9150612460836124bc565b925082821015612473576124726125e0565b5b828203905092915050565b60006124898261249c565b9050919050565b60008115159050919050565b600073ffffffffffffffffffffffffffffffffffffffff82169050919050565b6000819050919050565b60006124d1826124d8565b9050919050565b60006124e38261249c565b9050919050565b60006124f5826124fc565b9050919050565b60006125078261249c565b9050919050565b600061251982612520565b9050919050565b600061252b8261249c565b9050919050565b60005b83811015612550578082015181840152602081019050612535565b8381111561255f576000848401525b50505050565b6000600282049050600182168061257d57607f821691505b602082108114156125915761259061263e565b5b50919050565b60006125a2826124bc565b91507fffffffffffffffffffffffffffffffffffffffffffffffffffffffffffffffff8214156125d5576125d46125e0565b5b600182019050919050565b7f4e487b7100000000000000000000000000000000000000000000000000000000600052601160045260246000fd5b7f4e487b7100000000000000000000000000000000000000000000000000000000600052601260045260246000fd5b7f4e487b7100000000000000000000000000000000000000000000000000000000600052602260045260246000fd5b6000601f19601f8301169050919050565b6126878161247e565b811461269257600080fd5b50565b61269e81612490565b81146126a957600080fd5b50565b6126b5816124bc565b81146126c057600080fd5b5056fea2646970667358221220f3c4a659a5666e0f7c1540b803b1fcbf1e5c97733e0ac4f6b50f12ea2c58f80064736f6c63430008000033",
  "immutableReferences": {},
  "source": "pragma solidity ^0.8.0;\r\n\r\nimport \"./XToken.sol\";\r\nimport \"./LPXToken.sol\";\r\nimport \"./PurseToken.sol\";\r\n\r\ncontract TokenFarm {\r\n    string public name = \"X Token Farm\";\r\n    XToken public xToken;\r\n    LPXToken public lpXToken;\r\n    PurseToken public purseToken;\r\n    address public owner;\r\n    address[] public stakers;\r\n    uint256 internal tokenBurnRate = 2;\r\n    uint256 public constant duration = 1 days;\r\n    uint256 public constant penaltyRate = 20;\r\n    uint256 public decimalFlow = 1000000;\r\n\r\n    FarmInfo public farmInfo;\r\n    mapping(address => StakerInfo) public stakerInfo;\r\n\r\n    struct StakerInfo {\r\n        uint256 stakingBalance;\r\n        uint256 rewardBalance;\r\n        uint256 stakingTimestamp;\r\n        uint256 stakingBlock;\r\n        bool hasStaked;\r\n        bool isStaking;\r\n        uint256 poolShareRatio;\r\n    }\r\n\r\n    struct FarmInfo {\r\n        uint256 blockReward;\r\n        uint256 lastRewardBlock; // Last block number that reward distribution occurs.\r\n        uint256 farmableSupply; // set in init, total amount of tokens farmable\r\n    }\r\n\r\n    constructor (XToken _xToken, LPXToken _lpXToken, PurseToken _purseToken, uint256 _blockReward) public {\r\n        xToken = _xToken;\r\n        lpXToken = _lpXToken;\r\n        purseToken = _purseToken;\r\n        farmInfo.blockReward = _blockReward;\r\n        owner = msg.sender;\r\n    }\r\n\r\n    // Stakes Tokens\r\n    function stakeTokens(uint256 _amount) public {\r\n        require(_amount > 0, \"amount cannot be 0\");\r\n        updateRewardTokens();\r\n        xToken.transferFrom(msg.sender, address(this), _amount); // Stake x token\r\n        stakerInfo[msg.sender].stakingBalance += _amount;\r\n        stakerInfo[msg.sender].stakingTimestamp = block.timestamp;\r\n        // stakerInfo[msg.sender].stakingBlock = block.number;\r\n\r\n        if (!stakerInfo[msg.sender].hasStaked) {\r\n            stakers.push(msg.sender);\r\n        }\r\n\r\n        //Update staking status\r\n        stakerInfo[msg.sender].isStaking = true;\r\n        stakerInfo[msg.sender].hasStaked = true;\r\n\r\n        lpXToken.transfer(msg.sender, _amount);\r\n        getTotalBalance();\r\n        // getPoolShareRatio();\r\n    }\r\n\r\n    // Unstacking Tokens\r\n    function unstakeTokens() public {\r\n        updateRewardTokens();\r\n        uint256 balance = stakerInfo[msg.sender].stakingBalance;\r\n        require(balance > 0, \"staking balance cannot be 0\");\r\n        uint256 end = stakerInfo[msg.sender].stakingTimestamp + duration;\r\n        require(block.timestamp >= end, \"too early to withdraw Tokens\");\r\n        xToken.transfer(msg.sender, balance); // withdraw dai token\r\n        lpXToken.transferFrom(msg.sender, address(this), balance); //return lpX token\r\n\r\n        stakerInfo[msg.sender].stakingBalance = 0;\r\n        stakerInfo[msg.sender].isStaking = false;\r\n        getTotalBalance();\r\n        // getPoolShareRatio();\r\n    }\r\n\r\n    // Issuing Tokens\r\n    function issueTokens(uint256 _amount) public {\r\n        require(_amount > 0, \"amount cannot be 0\");\r\n\r\n        // Only owner can call this function\r\n        require(msg.sender == owner, \"caller must be owner\");\r\n        getTotalBalance();\r\n\r\n        if (farmInfo.farmableSupply == 0) {\r\n            farmInfo.lastRewardBlock = block.number;\r\n            return;\r\n        }\r\n\r\n        //Issue tokens to all stakers\r\n        for (uint256 i = 0; i < stakers.length; i++) {\r\n            address recipient = stakers[i];\r\n            uint256 balance = stakerInfo[recipient].stakingBalance;\r\n            uint256 amount = (farmInfo.blockReward * balance) /\r\n                farmInfo.farmableSupply;\r\n\r\n            uint256 blknumbernow = block.number;\r\n            uint256 diffofblk = blknumbernow - farmInfo.lastRewardBlock;\r\n            uint256 totalamount = amount * diffofblk;\r\n\r\n            if (totalamount > 0) {\r\n                stakerInfo[recipient].rewardBalance += totalamount; //Update reward balance\r\n            }\r\n        }\r\n        farmInfo.lastRewardBlock = block.number;\r\n    }\r\n\r\n    // Issuing Tokens for internal\r\n    function updateRewardTokens() public {\r\n        getTotalBalance();\r\n\r\n        if (farmInfo.farmableSupply == 0) {\r\n            farmInfo.lastRewardBlock = block.number;\r\n            return;\r\n        }\r\n        //update reward tokens to all stakers\r\n        for (uint256 i = 0; i < stakers.length; i++) {\r\n            address recipient = stakers[i];\r\n            uint256 balance = stakerInfo[recipient].stakingBalance;\r\n            // uint256 ratio = (balance * 100 * decimalFlow) / farmInfo.farmableSupply;\r\n            uint256 amount = (farmInfo.blockReward * balance) /\r\n                farmInfo.farmableSupply;\r\n\r\n            uint256 blknumbernow = block.number;\r\n            uint256 diffofblk = blknumbernow - farmInfo.lastRewardBlock;\r\n            uint256 totalamount = amount * diffofblk;\r\n\r\n            if (totalamount > 0) {\r\n                stakerInfo[recipient].rewardBalance += totalamount; //Update reward balance\r\n            }\r\n        }\r\n        farmInfo.lastRewardBlock = block.number;\r\n    }\r\n\r\n    // Emergency Unstacking Tokens to withdraw LP tokens with penalty\r\n    function emergencyUnstakeTokens() public {\r\n        updateRewardTokens();\r\n        uint256 balance = stakerInfo[msg.sender].stakingBalance;\r\n        require(balance > 0, \"staking balance cannot be 0\");\r\n        uint256 penalty = (balance * penaltyRate) / 100;\r\n        uint256 remainingBalance = balance - penalty;\r\n        xToken.transfer(msg.sender, remainingBalance); // Unstake x token\r\n        xToken.transfer(address(this), penalty); // Unstake penalty x token\r\n        lpXToken.transferFrom(msg.sender, address(this), balance); //return lpx token\r\n\r\n        stakerInfo[msg.sender].stakingBalance = 0;\r\n        stakerInfo[msg.sender].isStaking = false;\r\n        getTotalBalance();\r\n        // getPoolShareRatio();\r\n    }\r\n\r\n    function getTotalBalance() public {\r\n        uint256 totalBalance;\r\n        for (uint256 i = 0; i < stakers.length; i++) {\r\n            address recipient = stakers[i];\r\n            uint256 balance = stakerInfo[recipient].stakingBalance;\r\n            totalBalance = balance + totalBalance;\r\n        }\r\n        farmInfo.farmableSupply = totalBalance;\r\n    }\r\n\r\n    function getPoolShareRatio() public {\r\n        if (farmInfo.farmableSupply == 0) {\r\n            for (uint256 i = 0; i < stakers.length; i++) {\r\n                address recipient = stakers[i];\r\n                stakerInfo[recipient].poolShareRatio = 0;\r\n            }\r\n        } else {\r\n            for (uint256 i = 0; i < stakers.length; i++) {\r\n                address recipient = stakers[i];\r\n                uint256 balance = stakerInfo[recipient].stakingBalance;\r\n                uint256 ratio = (balance * 100 * decimalFlow) /\r\n                    farmInfo.farmableSupply;\r\n                stakerInfo[recipient].poolShareRatio = ratio;\r\n            }\r\n        }\r\n    }\r\n\r\n    function transferOwnership(address _to, uint256 _amount) public {\r\n        require(_amount > 0, \"amount cannot be 0\");\r\n        require(_to == address(_to), \"Invalid address\");\r\n        uint256 balance = stakerInfo[msg.sender].stakingBalance;\r\n        require(_amount <= balance, \"amount more than LP balance\");\r\n        updateRewardTokens();\r\n        lpXToken.transferFrom(msg.sender, _to, _amount); //transfer lpXToken\r\n        stakerInfo[msg.sender].stakingBalance -= _amount;\r\n\r\n        stakerInfo[_to].stakingBalance += (_amount); //Update staking balance\r\n        stakerInfo[_to].stakingTimestamp = stakerInfo[msg.sender]\r\n        .stakingTimestamp;\r\n\r\n        if (!stakerInfo[_to].hasStaked) {\r\n            stakers.push(_to);\r\n        }\r\n\r\n        //Update staking status\r\n        stakerInfo[_to].isStaking = true;\r\n        stakerInfo[_to].hasStaked = true;\r\n\r\n        getTotalBalance();\r\n        // getPoolShareRatio();\r\n    }\r\n\r\n    function redeemToken(uint256 _amount) public {\r\n        updateRewardTokens();\r\n        require(_amount > 0, \"amount cannot be 0\");\r\n        uint256 balance = stakerInfo[msg.sender].rewardBalance;\r\n        require(_amount <= balance, \"amount more than reward balance\");\r\n        purseToken.transfer(msg.sender, _amount * tokenBurnRate); // Redeem reward token\r\n    }\r\n}\r\n",
  "sourcePath": "C:/Users/cheek/Desktop/Developer doc/Visual Studio Code/PundiX/PurseReward/YieldFarm_BridgeEthBsc/src/contracts/TokenFarm_compund.sol",
  "compiler": {
    "name": "solc",
    "version": "0.8.0+commit.c7dfd78e.Emscripten.clang"
  },
  "schemaVersion": "3.3.4",
  "updatedAt": "2021-08-16T01:39:56.088Z",
  "networkType": "ethereum",
  "devdoc": {
    "kind": "dev",
    "methods": {},
    "version": 1
  },
  "userdoc": {
    "kind": "user",
    "methods": {},
    "version": 1
  }
}